ARM GAS  C:\Users\CFAR\AppData\Local\Temp\ccjKwKej.s 			page 1


   1              		.cpu cortex-m4
   2              		.eabi_attribute 27, 1
   3              		.eabi_attribute 28, 1
   4              		.eabi_attribute 20, 1
   5              		.eabi_attribute 21, 1
   6              		.eabi_attribute 23, 3
   7              		.eabi_attribute 24, 1
   8              		.eabi_attribute 25, 1
   9              		.eabi_attribute 26, 1
  10              		.eabi_attribute 30, 2
  11              		.eabi_attribute 34, 1
  12              		.eabi_attribute 18, 4
  13              		.file	"app_adc.c"
  14              		.text
  15              	.Ltext0:
  16              		.cfi_sections	.debug_frame
  17              		.section	.text.adc_thread,"ax",%progbits
  18              		.align	1
  19              		.p2align 4,,15
  20              		.syntax unified
  21              		.thumb
  22              		.thumb_func
  23              		.fpu fpv4-sp-d16
  24              		.type	adc_thread, %function
  25              	adc_thread:
  26              	.LFB263:
  27              		.file 1 "applications/app_adc.c"
  28              		.loc 1 88 0
  29              		.cfi_startproc
  30              		@ args = 0, pretend = 0, frame = 16
  31              		@ frame_needed = 0, uses_anonymous_args = 0
  32              	.LVL0:
  33 0000 2DE9F04F 		push	{r4, r5, r6, r7, r8, r9, r10, fp, lr}
  34              		.cfi_def_cfa_offset 36
  35              		.cfi_offset 4, -36
  36              		.cfi_offset 5, -32
  37              		.cfi_offset 6, -28
  38              		.cfi_offset 7, -24
  39              		.cfi_offset 8, -20
  40              		.cfi_offset 9, -16
  41              		.cfi_offset 10, -12
  42              		.cfi_offset 11, -8
  43              		.cfi_offset 14, -4
  44              	.LBB64:
  45              	.LBB65:
  46              		.file 2 "ChibiOS_3.0.5/os/rt/include/chregistry.h"
  47              		.loc 2 135 0
  48 0004 DFF87C93 		ldr	r9, .L234+84
  49              	.LBE65:
  50              	.LBE64:
  51              		.loc 1 94 0
  52 0008 DFF87CA3 		ldr	r10, .L234+88
  53              	.LBB69:
  54              	.LBB66:
  55              		.loc 2 135 0
  56 000c D9F81820 		ldr	r2, [r9, #24]
  57              	.LBE66:
ARM GAS  C:\Users\CFAR\AppData\Local\Temp\ccjKwKej.s 			page 2


  58              	.LBE69:
  59              		.loc 1 94 0
  60 0010 9AF80030 		ldrb	r3, [r10]	@ zero_extendqisi2
  61              	.LBB70:
  62              	.LBB67:
  63              		.loc 2 135 0
  64 0014 C649     		ldr	r1, .L234
  65              	.LBE67:
  66              	.LBE70:
  67              		.loc 1 88 0
  68 0016 2DED088B 		vpush.64	{d8, d9, d10, d11}
  69              		.cfi_def_cfa_offset 68
  70              		.cfi_offset 80, -68
  71              		.cfi_offset 81, -64
  72              		.cfi_offset 82, -60
  73              		.cfi_offset 83, -56
  74              		.cfi_offset 84, -52
  75              		.cfi_offset 85, -48
  76              		.cfi_offset 86, -44
  77              		.cfi_offset 87, -40
  78              	.LBB71:
  79              	.LBB68:
  80              		.loc 2 135 0
  81 001a 9161     		str	r1, [r2, #24]
  82              	.LVL1:
  83              	.LBE68:
  84              	.LBE71:
  85              		.loc 1 88 0
  86 001c 85B0     		sub	sp, sp, #20
  87              		.cfi_def_cfa_offset 88
  88              		.loc 1 95 0
  89 001e 2022     		movs	r2, #32
  90              		.loc 1 94 0
  91 0020 002B     		cmp	r3, #0
  92 0022 00F02283 		beq	.L2
  93              		.loc 1 95 0
  94 0026 4021     		movs	r1, #64
  95 0028 C248     		ldr	r0, .L234+4
  96              	.LVL2:
  97 002a FFF7FEFF 		bl	_pal_lld_setgroupmode
  98              	.LVL3:
  99              		.loc 1 96 0
 100 002e 2022     		movs	r2, #32
 101 0030 8021     		movs	r1, #128
 102 0032 C048     		ldr	r0, .L234+4
 103 0034 FFF7FEFF 		bl	_pal_lld_setgroupmode
 104              	.LVL4:
 105              	.L3:
 106              		.loc 1 101 0
 107 0038 BF4A     		ldr	r2, .L234+8
 108 003a C04C     		ldr	r4, .L234+12
 109              	.LBB72:
 110              		.loc 1 120 0
 111 003c 9FEDC08A 		vldr.32	s16, .L234+16
 112              		.loc 1 125 0
 113 0040 DFEDC08A 		vldr.32	s17, .L234+20
 114              	.LBB73:
ARM GAS  C:\Users\CFAR\AppData\Local\Temp\ccjKwKej.s 			page 3


 115              	.LBB74:
 116              	.LBB75:
 117              		.loc 1 529 0
 118 0044 9FEDC09A 		vldr.32	s18, .L234+24
 119 0048 DFEDC09A 		vldr.32	s19, .L234+28
 120              	.LBE75:
 121              	.LBE74:
 122              	.LBE73:
 123              	.LBE72:
 124              		.loc 1 101 0
 125 004c 0123     		movs	r3, #1
 126 004e 1370     		strb	r3, [r2]
 127              	.L4:
 128              	.LBB156:
 129              		.loc 1 105 0
 130 0050 236C     		ldr	r3, [r4, #64]
 131 0052 42F21075 		movw	r5, #10000
 132 0056 B5FBF3F5 		udiv	r5, r5, r3
 133              	.LVL5:
 134              		.loc 1 109 0
 135 005a 002D     		cmp	r5, #0
 136 005c 08BF     		it	eq
 137 005e 0125     		moveq	r5, #1
 138              	.LVL6:
 139              		.loc 1 111 0
 140 0060 2846     		mov	r0, r5
 141 0062 FFF7FEFF 		bl	chThdSleep
 142              	.LVL7:
 143              		.loc 1 113 0
 144 0066 BA4B     		ldr	r3, .L234+32
 145 0068 1B78     		ldrb	r3, [r3]	@ zero_extendqisi2
 146 006a 002B     		cmp	r3, #0
 147 006c 40F0DE82 		bne	.L222
 148              		.loc 1 119 0
 149 0070 FFF7FEFF 		bl	mc_interface_get_fault
 150              	.LVL8:
 151 0074 10B1     		cbz	r0, .L7
 152              		.loc 1 120 0
 153 0076 B74B     		ldr	r3, .L234+36
 154 0078 83ED008A 		vstr.32	s16, [r3]
 155              	.L7:
 156              		.loc 1 124 0
 157 007c B64E     		ldr	r6, .L234+40
 158              		.loc 1 126 0
 159 007e 9FEDB70A 		vldr.32	s0, .L234+44
 160              		.loc 1 124 0
 161 0082 B38A     		ldrh	r3, [r6, #20]
 162 0084 07EE103A 		vmov	s14, r3	@ int
 163 0088 B8EE477A 		vcvt.f32.u32	s14, s14
 164              		.loc 1 128 0
 165 008c B44B     		ldr	r3, .L234+48
 166              		.loc 1 125 0
 167 008e C7EE287A 		vdiv.f32	s15, s14, s17
 168              		.loc 1 126 0
 169 0092 27EE800A 		vmul.f32	s0, s15, s0
 170              		.loc 1 128 0
 171 0096 83ED000A 		vstr.32	s0, [r3]
ARM GAS  C:\Users\CFAR\AppData\Local\Temp\ccjKwKej.s 			page 4


 172              		.loc 1 131 0
 173 009a 237F     		ldrb	r3, [r4, #28]	@ zero_extendqisi2
 174              		.loc 1 126 0
 175 009c 8DED020A 		vstr.32	s0, [sp, #8]
 176              		.loc 1 131 0
 177 00a0 3BB3     		cbz	r3, .L8
 178              	.LBB85:
 179              		.loc 1 135 0
 180 00a2 B049     		ldr	r1, .L234+52
 181 00a4 B04B     		ldr	r3, .L234+56
 182 00a6 0A68     		ldr	r2, [r1]
 183 00a8 501C     		adds	r0, r2, #1
 184 00aa 03EB8202 		add	r2, r3, r2, lsl #2
 185 00ae 82ED000A 		vstr.32	s0, [r2]
 186              	.LBB86:
 187              		.loc 1 142 0
 188 00b2 D3ED007A 		vldr.32	s15, [r3]
 189 00b6 D3ED015A 		vldr.32	s11, [r3, #4]
 190 00ba 93ED026A 		vldr.32	s12, [r3, #8]
 191 00be D3ED036A 		vldr.32	s13, [r3, #12]
 192 00c2 93ED047A 		vldr.32	s14, [r3, #16]
 193              	.LBE86:
 194              		.loc 1 135 0
 195 00c6 0860     		str	r0, [r1]
 196              	.LBB87:
 197              		.loc 1 142 0
 198 00c8 77EE887A 		vadd.f32	s15, s15, s16
 199              	.LBE87:
 200              		.loc 1 144 0
 201 00cc B1EE045A 		vmov.f32	s10, #5.0e+0
 202              	.LBB88:
 203              		.loc 1 142 0
 204 00d0 77EEA57A 		vadd.f32	s15, s15, s11
 205              	.LBE88:
 206              		.loc 1 136 0
 207 00d4 0428     		cmp	r0, #4
 208              	.LBB89:
 209              		.loc 1 142 0
 210 00d6 77EE867A 		vadd.f32	s15, s15, s12
 211              	.LBE89:
 212              		.loc 1 137 0
 213 00da C8BF     		it	gt
 214 00dc 0022     		movgt	r2, #0
 215              	.LBB90:
 216              		.loc 1 142 0
 217 00de 77EEA67A 		vadd.f32	s15, s15, s13
 218              	.LBE90:
 219              		.loc 1 137 0
 220 00e2 C8BF     		it	gt
 221 00e4 0A60     		strgt	r2, [r1]
 222              	.LVL9:
 223              	.LBB91:
 224              		.loc 1 142 0
 225 00e6 77EE877A 		vadd.f32	s15, s15, s14
 226              	.LBE91:
 227              		.loc 1 144 0
 228 00ea 87EE850A 		vdiv.f32	s0, s15, s10
ARM GAS  C:\Users\CFAR\AppData\Local\Temp\ccjKwKej.s 			page 5


 229 00ee 8DED020A 		vstr.32	s0, [sp, #8]
 230              	.LVL10:
 231              	.L8:
 232              	.LBE85:
 233              		.loc 1 148 0
 234 00f2 2378     		ldrb	r3, [r4]	@ zero_extendqisi2
 235 00f4 DBB2     		uxtb	r3, r3
 236 00f6 0D2B     		cmp	r3, #13
 237 00f8 00F20D81 		bhi	.L10
 238 00fc 0122     		movs	r2, #1
 239 00fe 02FA03F3 		lsl	r3, r2, r3
 240 0102 42F26442 		movw	r2, #9316
 241 0106 1342     		tst	r3, r2
 242 0108 00F00581 		beq	.L10
 243              		.loc 1 155 0
 244 010c D4ED047A 		vldr.32	s15, [r4, #16]
 245 0110 F4EEC07A 		vcmpe.f32	s15, s0
 246 0114 F1EE10FA 		vmrs	APSR_nzcv, FPSCR
 247 0118 40F39A82 		ble	.L212
 248              		.loc 1 156 0
 249 011c D4ED020A 		vldr.32	s1, [r4, #8]
 250 0120 94ED041A 		vldr.32	s2, [r4, #16]
 251 0124 B6EE002A 		vmov.f32	s4, #5.0e-1
 252 0128 F0EE481A 		vmov.f32	s3, s16
 253 012c FFF7FEFF 		bl	utils_map
 254              	.LVL11:
 255 0130 8DED020A 		vstr.32	s0, [sp, #8]
 256              	.L13:
 257              		.loc 1 171 0
 258 0134 02A8     		add	r0, sp, #8
 259 0136 F7EE000A 		vmov.f32	s1, #1.0e+0
 260 013a B0EE480A 		vmov.f32	s0, s16
 261 013e FFF7FEFF 		bl	utils_truncate_number
 262              	.LVL12:
 263              		.loc 1 174 0
 264 0142 94F82030 		ldrb	r3, [r4, #32]	@ zero_extendqisi2
 265              		.loc 1 175 0
 266 0146 DDED027A 		vldr.32	s15, [sp, #8]
 267              		.loc 1 174 0
 268 014a 2BB1     		cbz	r3, .L15
 269              		.loc 1 175 0
 270 014c B7EE007A 		vmov.f32	s14, #1.0e+0
 271 0150 77EE677A 		vsub.f32	s15, s14, s15
 272 0154 CDED027A 		vstr.32	s15, [sp, #8]
 273              	.L15:
 274              		.loc 1 178 0
 275 0158 844B     		ldr	r3, .L234+60
 276              		.loc 1 184 0
 277 015a 9FED800A 		vldr.32	s0, .L234+44
 278              		.loc 1 178 0
 279 015e C3ED007A 		vstr.32	s15, [r3]
 280              		.loc 1 182 0
 281 0162 F389     		ldrh	r3, [r6, #14]
 282 0164 07EE103A 		vmov	s14, r3	@ int
 283 0168 B8EE477A 		vcvt.f32.u32	s14, s14
 284              		.loc 1 189 0
 285 016c 804B     		ldr	r3, .L234+64
ARM GAS  C:\Users\CFAR\AppData\Local\Temp\ccjKwKej.s 			page 6


 286              		.loc 1 183 0
 287 016e C7EE287A 		vdiv.f32	s15, s14, s17
 288              		.loc 1 184 0
 289 0172 27EE800A 		vmul.f32	s0, s15, s0
 290              		.loc 1 189 0
 291 0176 83ED000A 		vstr.32	s0, [r3]
 292              		.loc 1 192 0
 293 017a 237F     		ldrb	r3, [r4, #28]	@ zero_extendqisi2
 294              		.loc 1 184 0
 295 017c 8DED030A 		vstr.32	s0, [sp, #12]
 296              		.loc 1 192 0
 297 0180 3BB3     		cbz	r3, .L16
 298              	.LBB92:
 299              		.loc 1 196 0
 300 0182 7C49     		ldr	r1, .L234+68
 301 0184 7C4B     		ldr	r3, .L234+72
 302 0186 0A68     		ldr	r2, [r1]
 303 0188 501C     		adds	r0, r2, #1
 304 018a 03EB8202 		add	r2, r3, r2, lsl #2
 305 018e 82ED000A 		vstr.32	s0, [r2]
 306              	.LBB93:
 307              		.loc 1 203 0
 308 0192 D3ED007A 		vldr.32	s15, [r3]
 309 0196 D3ED015A 		vldr.32	s11, [r3, #4]
 310 019a 93ED026A 		vldr.32	s12, [r3, #8]
 311 019e D3ED036A 		vldr.32	s13, [r3, #12]
 312 01a2 93ED047A 		vldr.32	s14, [r3, #16]
 313              	.LBE93:
 314              		.loc 1 196 0
 315 01a6 0860     		str	r0, [r1]
 316              	.LBB94:
 317              		.loc 1 203 0
 318 01a8 77EE887A 		vadd.f32	s15, s15, s16
 319              	.LBE94:
 320              		.loc 1 205 0
 321 01ac B1EE045A 		vmov.f32	s10, #5.0e+0
 322              	.LBB95:
 323              		.loc 1 203 0
 324 01b0 77EEA57A 		vadd.f32	s15, s15, s11
 325              	.LBE95:
 326              		.loc 1 197 0
 327 01b4 0428     		cmp	r0, #4
 328              	.LBB96:
 329              		.loc 1 203 0
 330 01b6 77EE867A 		vadd.f32	s15, s15, s12
 331              	.LBE96:
 332              		.loc 1 198 0
 333 01ba C8BF     		it	gt
 334 01bc 0022     		movgt	r2, #0
 335              	.LBB97:
 336              		.loc 1 203 0
 337 01be 77EEA67A 		vadd.f32	s15, s15, s13
 338              	.LBE97:
 339              		.loc 1 198 0
 340 01c2 C8BF     		it	gt
 341 01c4 0A60     		strgt	r2, [r1]
 342              	.LVL13:
ARM GAS  C:\Users\CFAR\AppData\Local\Temp\ccjKwKej.s 			page 7


 343              	.LBB98:
 344              		.loc 1 203 0
 345 01c6 77EE877A 		vadd.f32	s15, s15, s14
 346              	.LBE98:
 347              		.loc 1 205 0
 348 01ca 87EE850A 		vdiv.f32	s0, s15, s10
 349 01ce 8DED030A 		vstr.32	s0, [sp, #12]
 350              	.LVL14:
 351              	.L16:
 352              	.LBE92:
 353              		.loc 1 209 0
 354 01d2 D4ED050A 		vldr.32	s1, [r4, #20]
 355 01d6 94ED061A 		vldr.32	s2, [r4, #24]
 356 01da B7EE002A 		vmov.f32	s4, #1.0e+0
 357 01de F0EE481A 		vmov.f32	s3, s16
 358 01e2 FFF7FEFF 		bl	utils_map
 359              	.LVL15:
 360 01e6 04A8     		add	r0, sp, #16
 361 01e8 20ED010A 		vstmdb.32	r0!, {s0}
 362              		.loc 1 210 0
 363 01ec F7EE000A 		vmov.f32	s1, #1.0e+0
 364 01f0 B0EE480A 		vmov.f32	s0, s16
 365 01f4 FFF7FEFF 		bl	utils_truncate_number
 366              	.LVL16:
 367              		.loc 1 213 0
 368 01f8 94F82130 		ldrb	r3, [r4, #33]	@ zero_extendqisi2
 369              		.loc 1 214 0
 370 01fc DDED037A 		vldr.32	s15, [sp, #12]
 371              		.loc 1 213 0
 372 0200 2BB1     		cbz	r3, .L19
 373              		.loc 1 214 0
 374 0202 B7EE007A 		vmov.f32	s14, #1.0e+0
 375 0206 77EE677A 		vsub.f32	s15, s14, s15
 376 020a CDED037A 		vstr.32	s15, [sp, #12]
 377              	.L19:
 378              		.loc 1 217 0
 379 020e 5B4B     		ldr	r3, .L234+76
 380 0210 C3ED007A 		vstr.32	s15, [r3]
 381              	.LVL17:
 382              		.loc 1 222 0
 383 0214 9AF80030 		ldrb	r3, [r10]	@ zero_extendqisi2
 384 0218 03F0FF02 		and	r2, r3, #255
 385 021c 002B     		cmp	r3, #0
 386 021e 00F0B481 		beq	.L20
 387              		.loc 1 223 0
 388 0222 444B     		ldr	r3, .L234+4
 389 0224 1F69     		ldr	r7, [r3, #16]
 390              		.loc 1 224 0
 391 0226 A37F     		ldrb	r3, [r4, #30]	@ zero_extendqisi2
 392              		.loc 1 223 0
 393 0228 BF09     		lsrs	r7, r7, #6
 394              	.LVL18:
 395              		.loc 1 224 0
 396 022a 03B9     		cbnz	r3, .L218
 397 022c FF43     		mvns	r7, r7
 398              	.LVL19:
 399              	.L218:
ARM GAS  C:\Users\CFAR\AppData\Local\Temp\ccjKwKej.s 			page 8


 400              		.loc 1 227 0
 401 022e 414B     		ldr	r3, .L234+4
 402 0230 1E69     		ldr	r6, [r3, #16]
 403              		.loc 1 228 0
 404 0232 E37F     		ldrb	r3, [r4, #31]	@ zero_extendqisi2
 405              		.loc 1 227 0
 406 0234 F609     		lsrs	r6, r6, #7
 407 0236 07F00107 		and	r7, r7, #1
 408              	.LVL20:
 409 023a F243     		mvns	r2, r6
 410              	.LVL21:
 411              		.loc 1 228 0
 412 023c 002B     		cmp	r3, #0
 413 023e 00F0CD81 		beq	.L219
 414              		.loc 1 229 0
 415 0242 06F00106 		and	r6, r6, #1
 416              	.LVL22:
 417              	.L24:
 418              		.loc 1 252 0
 419 0246 FFF7FEFF 		bl	app_is_output_disabled
 420              	.LVL23:
 421 024a 8046     		mov	r8, r0
 422 024c 0028     		cmp	r0, #0
 423 024e 7FF4FFAE 		bne	.L4
 424              		.loc 1 256 0
 425 0252 2378     		ldrb	r3, [r4]	@ zero_extendqisi2
 426 0254 DBB2     		uxtb	r3, r3
 427 0256 0E2B     		cmp	r3, #14
 428 0258 17D8     		bhi	.L30
 429 025a 0122     		movs	r2, #1
 430 025c 02FA03F3 		lsl	r3, r2, r3
 431 0260 44F68802 		movw	r2, #18568
 432 0264 1342     		tst	r3, r2
 433 0266 40F0E981 		bne	.L31
 434 026a 42F26442 		movw	r2, #9316
 435 026e 1342     		tst	r3, r2
 436 0270 40F00082 		bne	.L32
 437 0274 13F4887F 		tst	r3, #272
 438 0278 07D0     		beq	.L30
 439              		.loc 1 269 0
 440 027a 9DED027A 		vldr.32	s14, [sp, #8]
 441 027e DDED037A 		vldr.32	s15, [sp, #12]
 442 0282 77EE677A 		vsub.f32	s15, s14, s15
 443 0286 CDED027A 		vstr.32	s15, [sp, #8]
 444              	.L30:
 445              		.loc 1 287 0
 446 028a 94ED010A 		vldr.32	s0, [r4, #4]
 447              		.loc 1 295 0
 448 028e DFF8FCB0 		ldr	fp, .L234+92
 449              		.loc 1 287 0
 450 0292 02A8     		add	r0, sp, #8
 451 0294 F7EE000A 		vmov.f32	s1, #1.0e+0
 452 0298 FFF7FEFF 		bl	utils_deadband
 453              	.LVL24:
 454              		.loc 1 290 0
 455 029c D4ED090A 		vldr.32	s1, [r4, #36]
 456 02a0 9DED020A 		vldr.32	s0, [sp, #8]
ARM GAS  C:\Users\CFAR\AppData\Local\Temp\ccjKwKej.s 			page 9


 457 02a4 94ED0A1A 		vldr.32	s2, [r4, #40]
 458 02a8 94F82C00 		ldrb	r0, [r4, #44]	@ zero_extendqisi2
 459 02ac FFF7FEFF 		bl	utils_throttle_curve
 460              	.LVL25:
 461              		.loc 1 295 0
 462 02b0 DBED007A 		vldr.32	s15, [fp]
 463              		.loc 1 290 0
 464 02b4 8DED020A 		vstr.32	s0, [sp, #8]
 465              		.loc 1 295 0
 466 02b8 F0EEE77A 		vabs.f32	s15, s15
 467 02bc B0EEC07A 		vabs.f32	s14, s0
 468 02c0 B4EEE77A 		vcmpe.f32	s14, s15
 469 02c4 F1EE10FA 		vmrs	APSR_nzcv, FPSCR
 470 02c8 CCBF     		ite	gt
 471 02ca D4ED0C0A 		vldrgt.32	s1, [r4, #48]
 472 02ce D4ED0D0A 		vldrle.32	s1, [r4, #52]
 473              	.LVL26:
 474              		.loc 1 302 0
 475 02d2 DFED2B7A 		vldr.32	s15, .L234+80
 476 02d6 F4EEE70A 		vcmpe.f32	s1, s15
 477 02da F1EE10FA 		vmrs	APSR_nzcv, FPSCR
 478 02de 00F38081 		bgt	.L223
 479              	.LVL27:
 480              	.L37:
 481              		.loc 1 312 0
 482 02e2 FFF7FEFF 		bl	mc_interface_get_configuration
 483              	.LVL28:
 484 02e6 8346     		mov	fp, r0
 485              	.LVL29:
 486              		.loc 1 313 0
 487 02e8 FFF7FEFF 		bl	mc_interface_get_rpm
 488              	.LVL30:
 489              		.loc 1 317 0
 490 02ec 2378     		ldrb	r3, [r4]	@ zero_extendqisi2
 491 02ee 013B     		subs	r3, r3, #1
 492 02f0 0D2B     		cmp	r3, #13
 493 02f2 3FF6ADAE 		bhi	.L4
 494 02f6 DFE813F0 		tbh	[pc, r3, lsl #1]
 495              	.L41:
 496 02fa 2801     		.2byte	(.L40-.L41)/2
 497 02fc 2801     		.2byte	(.L40-.L41)/2
 498 02fe 2801     		.2byte	(.L40-.L41)/2
 499 0300 0501     		.2byte	(.L42-.L41)/2
 500 0302 0501     		.2byte	(.L42-.L41)/2
 501 0304 0501     		.2byte	(.L42-.L41)/2
 502 0306 0501     		.2byte	(.L42-.L41)/2
 503 0308 0501     		.2byte	(.L42-.L41)/2
 504 030a 8900     		.2byte	(.L43-.L41)/2
 505 030c 8900     		.2byte	(.L43-.L41)/2
 506 030e 8900     		.2byte	(.L43-.L41)/2
 507 0310 4B00     		.2byte	(.L44-.L41)/2
 508 0312 4B00     		.2byte	(.L44-.L41)/2
 509 0314 4B00     		.2byte	(.L44-.L41)/2
 510              	.LVL31:
 511              		.p2align 1
 512              	.L10:
 513              		.loc 1 166 0
ARM GAS  C:\Users\CFAR\AppData\Local\Temp\ccjKwKej.s 			page 10


 514 0316 D4ED020A 		vldr.32	s1, [r4, #8]
 515 031a 94ED031A 		vldr.32	s2, [r4, #12]
 516 031e B7EE002A 		vmov.f32	s4, #1.0e+0
 517 0322 F0EE481A 		vmov.f32	s3, s16
 518 0326 FFF7FEFF 		bl	utils_map
 519              	.LVL32:
 520 032a 8DED020A 		vstr.32	s0, [sp, #8]
 521              		.loc 1 167 0
 522 032e 01E7     		b	.L13
 523              	.L235:
 524              		.align	2
 525              	.L234:
 526 0330 00000000 		.word	.LC0
 527 0334 00080240 		.word	1073874944
 528 0338 00000000 		.word	.LANCHOR1
 529 033c 00000000 		.word	.LANCHOR2
 530 0340 00000000 		.word	0
 531 0344 00F07F45 		.word	1166012416
 532 0348 00401C46 		.word	1176256512
 533 034c CDCCCC3D 		.word	1036831949
 534 0350 00000000 		.word	.LANCHOR3
 535 0354 00000000 		.word	.LANCHOR4
 536 0358 00000000 		.word	ADC_Value
 537 035c 33335340 		.word	1079194419
 538 0360 00000000 		.word	.LANCHOR5
 539 0364 00000000 		.word	.LANCHOR6
 540 0368 00000000 		.word	.LANCHOR7
 541 036c 00000000 		.word	.LANCHOR8
 542 0370 00000000 		.word	.LANCHOR9
 543 0374 00000000 		.word	.LANCHOR10
 544 0378 00000000 		.word	.LANCHOR11
 545 037c 00000000 		.word	.LANCHOR12
 546 0380 0AD7233C 		.word	1008981770
 547 0384 00000000 		.word	ch
 548 0388 00000000 		.word	.LANCHOR0
 549 038c 00000000 		.word	.LANCHOR13
 550              	.LVL33:
 551              	.L44:
 552              		.loc 1 378 0
 553 0390 D44B     		ldr	r3, .L236
 554 0392 DFEDD57A 		vldr.32	s15, .L236+4
 555 0396 93ED007A 		vldr.32	s14, [r3]
 556              		.loc 1 372 0
 557 039a DDED02AA 		vldr.32	s21, [sp, #8]
 558              	.LVL34:
 559              		.loc 1 378 0
 560 039e B4EEE77A 		vcmpe.f32	s14, s15
 561 03a2 F1EE10FA 		vmrs	APSR_nzcv, FPSCR
 562 03a6 00F17081 		bmi	.L224
 563              	.L55:
 564              	.LVL35:
 565              	.LBB99:
 566              		.loc 1 380 0
 567 03aa F5EEC0AA 		vcmpe.f32	s21, #0
 568 03ae F1EE10FA 		vmrs	APSR_nzcv, FPSCR
 569              		.loc 1 383 0
 570 03b2 B4BF     		ite	lt
ARM GAS  C:\Users\CFAR\AppData\Local\Temp\ccjKwKej.s 			page 11


 571 03b4 9BED060A 		vldrlt.32	s0, [fp, #24]
 572              		.loc 1 381 0
 573 03b8 9BED070A 		vldrge.32	s0, [fp, #28]
 574 03bc 0193     		str	r3, [sp, #4]
 575              		.loc 1 383 0
 576 03be B8BF     		it	lt
 577 03c0 B0EEC00A 		vabslt.f32	s0, s0
 578 03c4 20EE2A0A 		vmul.f32	s0, s0, s21
 579              	.LVL36:
 580              		.loc 1 386 0
 581 03c8 FFF7FEFF 		bl	mc_interface_set_pid_speed
 582              	.LVL37:
 583 03cc DDED027A 		vldr.32	s15, [sp, #8]
 584 03d0 019B     		ldr	r3, [sp, #4]
 585              		.loc 1 387 0
 586 03d2 0126     		movs	r6, #1
 587              	.LVL38:
 588              	.L57:
 589              	.LBE99:
 590              		.loc 1 390 0
 591 03d4 9FEDC57A 		vldr.32	s14, .L236+8
 592 03d8 F0EEE77A 		vabs.f32	s15, s15
 593 03dc F4EEC77A 		vcmpe.f32	s15, s14
 594 03e0 F1EE10FA 		vmrs	APSR_nzcv, FPSCR
 595 03e4 40F15981 		bpl	.L216
 596              		.loc 1 391 0
 597 03e8 07EE905A 		vmov	s15, r5	@ int
 598 03ec B8EEE77A 		vcvt.f32.s32	s14, s15
 599 03f0 DFEDBF7A 		vldr.32	s15, .L236+12
 600 03f4 D3ED006A 		vldr.32	s13, [r3]
 601 03f8 67EE277A 		vmul.f32	s15, s14, s15
 602              		.loc 1 310 0
 603 03fc 0025     		movs	r5, #0
 604              	.LVL39:
 605              		.loc 1 391 0
 606 03fe 87EE897A 		vdiv.f32	s14, s15, s18
 607 0402 77EE267A 		vadd.f32	s15, s14, s13
 608 0406 C3ED007A 		vstr.32	s15, [r3]
 609 040a 2EE0     		b	.L45
 610              	.LVL40:
 611              	.L43:
 612              		.loc 1 359 0
 613 040c 9DED020A 		vldr.32	s0, [sp, #8]
 614 0410 DFEDB67A 		vldr.32	s15, .L236+8
 615 0414 B0EEC07A 		vabs.f32	s14, s0
 616 0418 B4EEE77A 		vcmpe.f32	s14, s15
 617 041c F1EE10FA 		vmrs	APSR_nzcv, FPSCR
 618 0420 40F15E81 		bpl	.L225
 619              		.loc 1 360 0
 620 0424 07EE905A 		vmov	s15, r5	@ int
 621 0428 F8EEE76A 		vcvt.f32.s32	s13, s15
 622 042c DFEDB07A 		vldr.32	s15, .L236+12
 623 0430 AC4B     		ldr	r3, .L236
 624 0432 66EEA76A 		vmul.f32	s13, s13, s15
 625 0436 D3ED007A 		vldr.32	s15, [r3]
 626 043a 86EE897A 		vdiv.f32	s14, s13, s18
 627 043e 77EE277A 		vadd.f32	s15, s14, s15
ARM GAS  C:\Users\CFAR\AppData\Local\Temp\ccjKwKej.s 			page 12


 628 0442 C3ED007A 		vstr.32	s15, [r3]
 629              	.L51:
 630              		.loc 1 363 0
 631 0446 93ED007A 		vldr.32	s14, [r3]
 632 044a DFEDA77A 		vldr.32	s15, .L236+4
 633 044e B4EEE77A 		vcmpe.f32	s14, s15
 634 0452 F1EE10FA 		vmrs	APSR_nzcv, FPSCR
 635 0456 40F1DC81 		bpl	.L53
 636              		.loc 1 363 0 is_stmt 0 discriminator 1
 637 045a 627F     		ldrb	r2, [r4, #29]	@ zero_extendqisi2
 638 045c 002A     		cmp	r2, #0
 639 045e 00F0D881 		beq	.L53
 640              		.loc 1 314 0 is_stmt 1
 641 0462 0026     		movs	r6, #0
 642              	.LVL41:
 643              		.loc 1 309 0
 644 0464 DFEDA3AA 		vldr.32	s21, .L236+16
 645              		.loc 1 310 0
 646 0468 3546     		mov	r5, r6
 647              	.LVL42:
 648              	.L45:
 649              		.loc 1 400 0
 650 046a 93ED007A 		vldr.32	s14, [r3]
 651 046e DFED9E7A 		vldr.32	s15, .L236+4
 652 0472 B4EEE77A 		vcmpe.f32	s14, s15
 653 0476 F1EE10FA 		vmrs	APSR_nzcv, FPSCR
 654 047a 40F14981 		bpl	.L62
 655              		.loc 1 400 0 is_stmt 0 discriminator 1
 656 047e 627F     		ldrb	r2, [r4, #29]	@ zero_extendqisi2
 657 0480 002A     		cmp	r2, #0
 658 0482 00F04581 		beq	.L62
 659              	.LBB100:
 660              		.loc 1 402 0 is_stmt 1
 661 0486 9C4A     		ldr	r2, .L236+20
 662 0488 93ED007A 		vldr.32	s14, [r3]
 663 048c D2ED007A 		vldr.32	s15, [r2]	@ int
 664 0490 F8EEE77A 		vcvt.f32.s32	s15, s15
 665 0494 F4EE477A 		vcmp.f32	s15, s14
 666 0498 F1EE10FA 		vmrs	APSR_nzcv, FPSCR
 667              		.loc 1 403 0
 668 049c 08BF     		it	eq
 669 049e 83ED008A 		vstreq.32	s16, [r3]
 670              		.loc 1 405 0
 671 04a2 D3ED007A 		vldr.32	s15, [r3]
 672 04a6 FDEEE77A 		vcvt.s32.f32	s15, s15
 673 04aa C2ED007A 		vstr.32	s15, [r2]	@ int
 674              		.loc 1 406 0
 675 04ae FFF7FEFF 		bl	timeout_get_brake_current
 676              	.LVL43:
 677 04b2 FFF7FEFF 		bl	mc_interface_set_brake_current
 678              	.LVL44:
 679              		.loc 1 408 0
 680 04b6 94F83830 		ldrb	r3, [r4, #56]	@ zero_extendqisi2
 681 04ba 002B     		cmp	r3, #0
 682 04bc 3FF4C8AD 		beq	.L4
 683              	.LBB101:
 684              		.loc 1 409 0
ARM GAS  C:\Users\CFAR\AppData\Local\Temp\ccjKwKej.s 			page 13


 685 04c0 0025     		movs	r5, #0
 686              	.LVL45:
 687 04c2 02E0     		b	.L67
 688              	.LVL46:
 689              	.L65:
 690              		.loc 1 409 0 is_stmt 0 discriminator 2
 691 04c4 0A2D     		cmp	r5, #10
 692 04c6 3FF4C3AD 		beq	.L4
 693              	.LVL47:
 694              	.L67:
 695              	.LBB102:
 696              		.loc 1 410 0 is_stmt 1
 697 04ca 2846     		mov	r0, r5
 698 04cc FFF7FEFF 		bl	comm_can_get_status_msg_index
 699              	.LVL48:
 700              		.loc 1 412 0
 701 04d0 0668     		ldr	r6, [r0]
 702 04d2 002E     		cmp	r6, #0
 703              	.LBE102:
 704              		.loc 1 409 0
 705 04d4 05F10105 		add	r5, r5, #1
 706              	.LVL49:
 707              	.LBB107:
 708              		.loc 1 412 0
 709 04d8 F4DB     		blt	.L65
 710              	.LBB103:
 711              	.LBB104:
 712              		.file 3 "ChibiOS_3.0.5/os/rt/include/chvt.h"
 713              		.loc 3 267 0 discriminator 1
 714 04da 4268     		ldr	r2, [r0, #4]
 715              	.LBB105:
 716              	.LBB106:
 717              		.loc 3 231 0 discriminator 1
 718 04dc D9F82830 		ldr	r3, [r9, #40]
 719              	.LVL50:
 720              	.LBE106:
 721              	.LBE105:
 722              		.loc 3 267 0 discriminator 1
 723 04e0 9B1A     		subs	r3, r3, r2
 724              	.LBE104:
 725              	.LBE103:
 726              		.loc 1 412 0 discriminator 1
 727 04e2 07EE903A 		vmov	s15, r3	@ int
 728 04e6 F8EE677A 		vcvt.f32.u32	s15, s15
 729 04ea 87EE897A 		vdiv.f32	s14, s15, s18
 730 04ee B4EEE97A 		vcmpe.f32	s14, s19
 731 04f2 F1EE10FA 		vmrs	APSR_nzcv, FPSCR
 732 04f6 E5D5     		bpl	.L65
 733              		.loc 1 413 0
 734 04f8 FFF7FEFF 		bl	timeout_get_brake_current
 735              	.LVL51:
 736 04fc F0B2     		uxtb	r0, r6
 737 04fe FFF7FEFF 		bl	comm_can_set_current_brake
 738              	.LVL52:
 739 0502 DFE7     		b	.L65
 740              	.LVL53:
 741              	.L42:
ARM GAS  C:\Users\CFAR\AppData\Local\Temp\ccjKwKej.s 			page 14


 742              	.LBE107:
 743              	.LBE101:
 744              	.LBE100:
 745              		.loc 1 339 0
 746 0504 DDED027A 		vldr.32	s15, [sp, #8]
 747              		.loc 1 346 0
 748 0508 9FED787A 		vldr.32	s14, .L236+8
 749              		.loc 1 339 0
 750 050c F5EEC07A 		vcmpe.f32	s15, #0
 751 0510 F1EE10FA 		vmrs	APSR_nzcv, FPSCR
 752              		.loc 1 346 0
 753 0514 F4EEC77A 		vcmpe.f32	s15, s14
 754              		.loc 1 342 0
 755 0518 B9BF     		ittee	lt
 756 051a F0EEE7AA 		vabslt.f32	s21, s15
 757              	.LVL54:
 758              		.loc 1 343 0
 759 051e 4FF00108 		movlt	r8, #1
 760              		.loc 1 340 0
 761 0522 F0EE67AA 		vmovge.f32	s21, s15
 762              	.LVL55:
 763              		.loc 1 311 0
 764 0526 4FF00008 		movge	r8, #0
 765              	.LVL56:
 766              		.loc 1 346 0
 767 052a F1EE10FA 		vmrs	APSR_nzcv, FPSCR
 768 052e 00F1BA80 		bmi	.L118
 769              		.loc 1 350 0
 770 0532 2278     		ldrb	r2, [r4]	@ zero_extendqisi2
 771 0534 6B4B     		ldr	r3, .L236
 772 0536 042A     		cmp	r2, #4
 773 0538 00F0CA80 		beq	.L50
 774              	.L227:
 775              		.loc 1 351 0 discriminator 1
 776 053c 2278     		ldrb	r2, [r4]	@ zero_extendqisi2
 777              		.loc 1 350 0 discriminator 1
 778 053e 052A     		cmp	r2, #5
 779 0540 00F0C680 		beq	.L50
 780              		.loc 1 314 0
 781 0544 0026     		movs	r6, #0
 782              	.LVL57:
 783              		.loc 1 338 0
 784 0546 0125     		movs	r5, #1
 785              	.LVL58:
 786 0548 8FE7     		b	.L45
 787              	.LVL59:
 788              	.L40:
 789              		.loc 1 322 0
 790 054a DDED02AA 		vldr.32	s21, [sp, #8]
 791              	.LVL60:
 792              		.loc 1 328 0
 793 054e DFED677A 		vldr.32	s15, .L236+8
 794 0552 B0EEEA7A 		vabs.f32	s14, s21
 795 0556 B4EEE77A 		vcmpe.f32	s14, s15
 796 055a F1EE10FA 		vmrs	APSR_nzcv, FPSCR
 797 055e 40F19E80 		bpl	.L214
 798              		.loc 1 329 0
ARM GAS  C:\Users\CFAR\AppData\Local\Temp\ccjKwKej.s 			page 15


 799 0562 07EE905A 		vmov	s15, r5	@ int
 800 0566 F8EEE76A 		vcvt.f32.s32	s13, s15
 801 056a DFED617A 		vldr.32	s15, .L236+12
 802 056e 5D4B     		ldr	r3, .L236
 803 0570 66EEA76A 		vmul.f32	s13, s13, s15
 804 0574 D3ED007A 		vldr.32	s15, [r3]
 805 0578 86EE897A 		vdiv.f32	s14, s13, s18
 806              		.loc 1 314 0
 807 057c 0026     		movs	r6, #0
 808              	.LVL61:
 809              		.loc 1 321 0
 810 057e 0125     		movs	r5, #1
 811              	.LVL62:
 812              		.loc 1 329 0
 813 0580 77EE277A 		vadd.f32	s15, s14, s15
 814 0584 C3ED007A 		vstr.32	s15, [r3]
 815 0588 6FE7     		b	.L45
 816              	.LVL63:
 817              	.L20:
 818              		.loc 1 233 0
 819 058a 2378     		ldrb	r3, [r4]	@ zero_extendqisi2
 820 058c 032B     		cmp	r3, #3
 821 058e 19D0     		beq	.L25
 822              		.loc 1 234 0 discriminator 1
 823 0590 2378     		ldrb	r3, [r4]	@ zero_extendqisi2
 824              		.loc 1 233 0 discriminator 1
 825 0592 052B     		cmp	r3, #5
 826 0594 16D0     		beq	.L25
 827              		.loc 1 235 0
 828 0596 2378     		ldrb	r3, [r4]	@ zero_extendqisi2
 829              		.loc 1 234 0
 830 0598 072B     		cmp	r3, #7
 831 059a 13D0     		beq	.L25
 832              		.loc 1 236 0
 833 059c 2378     		ldrb	r3, [r4]	@ zero_extendqisi2
 834              		.loc 1 235 0
 835 059e 0B2B     		cmp	r3, #11
 836 05a0 10D0     		beq	.L25
 837              		.loc 1 237 0
 838 05a2 2378     		ldrb	r3, [r4]	@ zero_extendqisi2
 839              		.loc 1 236 0
 840 05a4 0E2B     		cmp	r3, #14
 841 05a6 0DD0     		beq	.L25
 842              		.loc 1 243 0
 843 05a8 544B     		ldr	r3, .L236+24
 844 05aa 1F69     		ldr	r7, [r3, #16]
 845              		.loc 1 244 0
 846 05ac A37F     		ldrb	r3, [r4, #30]	@ zero_extendqisi2
 847              		.loc 1 243 0
 848 05ae 7F09     		lsrs	r7, r7, #5
 849 05b0 F943     		mvns	r1, r7
 850              	.LVL64:
 851              		.loc 1 244 0
 852 05b2 03F0FF06 		and	r6, r3, #255
 853 05b6 002B     		cmp	r3, #0
 854 05b8 00F0A181 		beq	.L226
 855              		.loc 1 245 0
ARM GAS  C:\Users\CFAR\AppData\Local\Temp\ccjKwKej.s 			page 16


 856 05bc 07F00107 		and	r7, r7, #1
 857              	.LVL65:
 858              		.loc 1 221 0
 859 05c0 1646     		mov	r6, r2
 860 05c2 40E6     		b	.L24
 861              	.LVL66:
 862              	.L25:
 863              		.loc 1 238 0
 864 05c4 4D4B     		ldr	r3, .L236+24
 865 05c6 1E69     		ldr	r6, [r3, #16]
 866              		.loc 1 239 0
 867 05c8 E37F     		ldrb	r3, [r4, #31]	@ zero_extendqisi2
 868              		.loc 1 238 0
 869 05ca 7609     		lsrs	r6, r6, #5
 870 05cc F243     		mvns	r2, r6
 871              	.LVL67:
 872              		.loc 1 239 0
 873 05ce 03F0FF07 		and	r7, r3, #255
 874 05d2 1BB1     		cbz	r3, .L219
 875              		.loc 1 240 0
 876 05d4 06F00106 		and	r6, r6, #1
 877              	.LVL68:
 878              		.loc 1 220 0
 879 05d8 0027     		movs	r7, #0
 880 05da 34E6     		b	.L24
 881              	.LVL69:
 882              	.L219:
 883              		.loc 1 238 0
 884 05dc 02F00106 		and	r6, r2, #1
 885 05e0 31E6     		b	.L24
 886              	.LVL70:
 887              	.L223:
 888              	.LBB108:
 889              		.loc 1 303 0
 890 05e2 474A     		ldr	r2, .L236+28
 891              	.LBB109:
 892              	.LBB110:
 893              	.LBB111:
 894              	.LBB112:
 895              		.loc 3 231 0
 896 05e4 D9F82830 		ldr	r3, [r9, #40]
 897              	.LVL71:
 898              	.LBE112:
 899              	.LBE111:
 900              		.loc 3 267 0
 901 05e8 1168     		ldr	r1, [r2]
 902              	.LBE110:
 903              	.LBE109:
 904              		.loc 1 303 0
 905 05ea 4648     		ldr	r0, .L236+32
 906              	.LBB114:
 907              	.LBB113:
 908              		.loc 3 267 0
 909 05ec 0192     		str	r2, [sp, #4]
 910 05ee 5B1A     		subs	r3, r3, r1
 911              	.LVL72:
 912              	.LBE113:
ARM GAS  C:\Users\CFAR\AppData\Local\Temp\ccjKwKej.s 			page 17


 913              	.LBE114:
 914              		.loc 1 303 0
 915 05f0 4FF47A7C 		mov	ip, #1000
 916 05f4 42F20F71 		movw	r1, #9999
 917 05f8 0CFB0313 		mla	r3, ip, r3, r1
 918 05fc A0FB0323 		umull	r2, r3, r0, r3
 919 0600 5B0B     		lsrs	r3, r3, #13
 920 0602 07EE903A 		vmov	s15, r3	@ int
 921 0606 9FED3A7A 		vldr.32	s14, .L236+12
 922              		.loc 1 304 0
 923 060a 3F48     		ldr	r0, .L236+36
 924              		.loc 1 303 0
 925 060c F8EEE77A 		vcvt.f32.s32	s15, s15
 926 0610 60EE870A 		vmul.f32	s1, s1, s14
 927              	.LVL73:
 928              		.loc 1 304 0
 929 0614 C7EEA00A 		vdiv.f32	s1, s15, s1
 930 0618 FFF7FEFF 		bl	utils_step_towards
 931              	.LVL74:
 932              		.loc 1 305 0
 933 061c 019A     		ldr	r2, [sp, #4]
 934              	.LBB115:
 935              	.LBB116:
 936              		.loc 3 231 0
 937 061e D9F82830 		ldr	r3, [r9, #40]
 938              	.LBE116:
 939              	.LBE115:
 940              		.loc 1 305 0
 941 0622 1360     		str	r3, [r2]
 942              		.loc 1 306 0
 943 0624 DBF80030 		ldr	r3, [fp]	@ float
 944 0628 0293     		str	r3, [sp, #8]	@ float
 945 062a 5AE6     		b	.L37
 946              	.LVL75:
 947              	.L222:
 948              	.LBE108:
 949              		.loc 1 114 0
 950 062c 374A     		ldr	r2, .L236+40
 951 062e 0023     		movs	r3, #0
 952 0630 1370     		strb	r3, [r2]
 953              	.LBE156:
 954              		.loc 1 562 0
 955 0632 05B0     		add	sp, sp, #20
 956              		.cfi_remember_state
 957              		.cfi_def_cfa_offset 68
 958              		@ sp needed
 959 0634 BDEC088B 		vldm	sp!, {d8-d11}
 960              		.cfi_restore 86
 961              		.cfi_restore 87
 962              		.cfi_restore 84
 963              		.cfi_restore 85
 964              		.cfi_restore 82
 965              		.cfi_restore 83
 966              		.cfi_restore 80
 967              		.cfi_restore 81
 968              		.cfi_def_cfa_offset 36
 969 0638 BDE8F08F 		pop	{r4, r5, r6, r7, r8, r9, r10, fp, pc}
ARM GAS  C:\Users\CFAR\AppData\Local\Temp\ccjKwKej.s 			page 18


 970              	.LVL76:
 971              	.L31:
 972              		.cfi_restore_state
 973              	.LBB157:
 974              		.loc 1 277 0
 975 063c 002E     		cmp	r6, #0
 976 063e 3FF424AE 		beq	.L30
 977              		.loc 1 278 0
 978 0642 DDED027A 		vldr.32	s15, [sp, #8]
 979 0646 F1EE677A 		vneg.f32	s15, s15
 980 064a CDED027A 		vstr.32	s15, [sp, #8]
 981 064e 1CE6     		b	.L30
 982              	.LVL77:
 983              	.L212:
 984              		.loc 1 159 0
 985 0650 D4ED040A 		vldr.32	s1, [r4, #16]
 986 0654 94ED031A 		vldr.32	s2, [r4, #12]
 987 0658 B7EE002A 		vmov.f32	s4, #1.0e+0
 988 065c F6EE001A 		vmov.f32	s3, #5.0e-1
 989 0660 FFF7FEFF 		bl	utils_map
 990              	.LVL78:
 991 0664 8DED020A 		vstr.32	s0, [sp, #8]
 992 0668 64E5     		b	.L13
 993              	.LVL79:
 994              	.L2:
 995              	.LBE157:
 996              		.loc 1 98 0
 997 066a 1146     		mov	r1, r2
 998 066c 2348     		ldr	r0, .L236+24
 999              	.LVL80:
 1000 066e FFF7FEFF 		bl	_pal_lld_setgroupmode
 1001              	.LVL81:
 1002 0672 E1E4     		b	.L3
 1003              	.LVL82:
 1004              	.L32:
 1005              	.LBB158:
 1006              		.loc 1 264 0
 1007 0674 DDED026A 		vldr.32	s13, [sp, #8]
 1008 0678 B0EE007A 		vmov.f32	s14, #2.0e+0
 1009 067c FFEE007A 		vmov.f32	s15, #-1.0e+0
 1010 0680 E6EE877A 		vfma.f32	s15, s13, s14
 1011 0684 CDED027A 		vstr.32	s15, [sp, #8]
 1012              		.loc 1 265 0
 1013 0688 FFE5     		b	.L30
 1014              	.LVL83:
 1015              	.L224:
 1016              		.loc 1 378 0 discriminator 1
 1017 068a 627F     		ldrb	r2, [r4, #29]	@ zero_extendqisi2
 1018 068c 002A     		cmp	r2, #0
 1019 068e 3FF48CAE 		beq	.L55
 1020 0692 F0EE6A7A 		vmov.f32	s15, s21
 1021              		.loc 1 314 0
 1022 0696 0026     		movs	r6, #0
 1023              	.LVL84:
 1024 0698 9CE6     		b	.L57
 1025              	.LVL85:
 1026              	.L216:
ARM GAS  C:\Users\CFAR\AppData\Local\Temp\ccjKwKej.s 			page 19


 1027              		.loc 1 310 0
 1028 069a 0025     		movs	r5, #0
 1029              	.LVL86:
 1030 069c E5E6     		b	.L45
 1031              	.LVL87:
 1032              	.L214:
 1033              		.loc 1 314 0
 1034 069e 0026     		movs	r6, #0
 1035              	.LVL88:
 1036              		.loc 1 321 0
 1037 06a0 0125     		movs	r5, #1
 1038              	.LVL89:
 1039 06a2 104B     		ldr	r3, .L236
 1040 06a4 E1E6     		b	.L45
 1041              	.LVL90:
 1042              	.L118:
 1043              		.loc 1 347 0
 1044 06a6 07EE905A 		vmov	s15, r5	@ int
 1045 06aa F8EEE76A 		vcvt.f32.s32	s13, s15
 1046 06ae DFED107A 		vldr.32	s15, .L236+12
 1047 06b2 0C4B     		ldr	r3, .L236
 1048 06b4 66EEA76A 		vmul.f32	s13, s13, s15
 1049 06b8 D3ED007A 		vldr.32	s15, [r3]
 1050 06bc 86EE897A 		vdiv.f32	s14, s13, s18
 1051 06c0 77EE277A 		vadd.f32	s15, s14, s15
 1052 06c4 C3ED007A 		vstr.32	s15, [r3]
 1053              		.loc 1 350 0
 1054 06c8 2278     		ldrb	r2, [r4]	@ zero_extendqisi2
 1055 06ca 042A     		cmp	r2, #4
 1056 06cc 7FF436AF 		bne	.L227
 1057              	.L50:
 1058              		.loc 1 351 0
 1059 06d0 002E     		cmp	r6, #0
 1060 06d2 00F0DE80 		beq	.L108
 1061              		.loc 1 338 0
 1062 06d6 3546     		mov	r5, r6
 1063              	.LVL91:
 1064              		.loc 1 352 0
 1065 06d8 F1EE6AAA 		vneg.f32	s21, s21
 1066              	.LVL92:
 1067              		.loc 1 314 0
 1068 06dc 0026     		movs	r6, #0
 1069              	.LVL93:
 1070 06de C4E6     		b	.L45
 1071              	.LVL94:
 1072              	.L225:
 1073 06e0 004B     		ldr	r3, .L236
 1074 06e2 B0E6     		b	.L51
 1075              	.L237:
 1076              		.align	2
 1077              	.L236:
 1078 06e4 00000000 		.word	.LANCHOR4
 1079 06e8 0000FA43 		.word	1140457472
 1080 06ec 6F12833A 		.word	981668463
 1081 06f0 00007A44 		.word	1148846080
 1082 06f4 00000000 		.word	0
 1083 06f8 00000000 		.word	.LANCHOR15
ARM GAS  C:\Users\CFAR\AppData\Local\Temp\ccjKwKej.s 			page 20


 1084 06fc 00040240 		.word	1073873920
 1085 0700 00000000 		.word	.LANCHOR14
 1086 0704 5917B7D1 		.word	-776530087
 1087 0708 00000000 		.word	.LANCHOR13
 1088 070c 00000000 		.word	.LANCHOR1
 1089              	.LVL95:
 1090              	.L62:
 1091              		.loc 1 430 0
 1092 0710 DFF840B3 		ldr	fp, .L238+20
 1093              	.LVL96:
 1094              		.loc 1 422 0
 1095 0714 FFF7FEFF 		bl	timeout_reset
 1096              	.LVL97:
 1097              		.loc 1 430 0
 1098 0718 DBF80010 		ldr	r1, [fp]
 1099 071c 0191     		str	r1, [sp, #4]
 1100 071e 4B1C     		adds	r3, r1, #1
 1101 0720 CBF80030 		str	r3, [fp]
 1102 0724 FFF7FEFF 		bl	mc_interface_get_rpm
 1103              	.LVL98:
 1104              		.loc 1 431 0
 1105 0728 DBF80020 		ldr	r2, [fp]
 1106              		.loc 1 430 0
 1107 072c C44B     		ldr	r3, .L238
 1108 072e 0199     		ldr	r1, [sp, #4]
 1109              		.loc 1 435 0
 1110 0730 DFEDC47A 		vldr.32	s15, .L238+4
 1111              		.loc 1 430 0
 1112 0734 03EB8103 		add	r3, r3, r1, lsl #2
 1113              		.loc 1 431 0
 1114 0738 072A     		cmp	r2, #7
 1115              		.loc 1 430 0
 1116 073a 83ED000A 		vstr.32	s0, [r3]
 1117              		.loc 1 432 0
 1118 073e C4BF     		itt	gt
 1119 0740 0023     		movgt	r3, #0
 1120 0742 CBF80030 		strgt	r3, [fp]
 1121              	.LVL99:
 1122 0746 BE4B     		ldr	r3, .L238
 1123 0748 03F12002 		add	r2, r3, #32
 1124              	.LVL100:
 1125              	.L69:
 1126              	.LBB117:
 1127              		.loc 1 437 0 discriminator 3
 1128 074c B3EC017A 		vldmia.32	r3!, {s14}
 1129              		.loc 1 436 0 discriminator 3
 1130 0750 9A42     		cmp	r2, r3
 1131              		.loc 1 437 0 discriminator 3
 1132 0752 77EE877A 		vadd.f32	s15, s15, s14
 1133              	.LVL101:
 1134              		.loc 1 436 0 discriminator 3
 1135 0756 F9D1     		bne	.L69
 1136              	.LVL102:
 1137              	.LBE117:
 1138              		.loc 1 441 0
 1139 0758 65B1     		cbz	r5, .L70
 1140              		.loc 1 441 0 is_stmt 0 discriminator 1
ARM GAS  C:\Users\CFAR\AppData\Local\Temp\ccjKwKej.s 			page 21


 1141 075a 5FB1     		cbz	r7, .L70
 1142              		.loc 1 441 0 discriminator 2
 1143 075c 9DED027A 		vldr.32	s14, [sp, #8]
 1144 0760 DFEDB96A 		vldr.32	s13, .L238+8
 1145 0764 B0EEC77A 		vabs.f32	s14, s14
 1146 0768 B4EEE67A 		vcmpe.f32	s14, s13
 1147 076c F1EE10FA 		vmrs	APSR_nzcv, FPSCR
 1148 0770 00F19180 		bmi	.L228
 1149              	.L70:
 1150              		.loc 1 467 0 is_stmt 1
 1151 0774 B54B     		ldr	r3, .L238+12
 1152 0776 0027     		movs	r7, #0
 1153              	.LVL103:
 1154 0778 1F70     		strb	r7, [r3]
 1155              		.loc 1 470 0
 1156 077a FFF7FEFF 		bl	mc_interface_get_rpm
 1157              	.LVL104:
 1158              		.loc 1 472 0
 1159 077e 94F83830 		ldrb	r3, [r4, #56]	@ zero_extendqisi2
 1160              		.loc 1 470 0
 1161 0782 B0EE40BA 		vmov.f32	s22, s0
 1162              	.LVL105:
 1163              		.loc 1 471 0
 1164 0786 B0EE40AA 		vmov.f32	s20, s0
 1165              		.loc 1 472 0
 1166 078a DBB9     		cbnz	r3, .L80
 1167              	.LVL106:
 1168              	.L77:
 1169              		.loc 1 487 0
 1170 078c 26B1     		cbz	r6, .L81
 1171              		.loc 1 487 0 is_stmt 0 discriminator 1
 1172 078e 94F83830 		ldrb	r3, [r4, #56]	@ zero_extendqisi2
 1173 0792 002B     		cmp	r3, #0
 1174 0794 40F0B680 		bne	.L229
 1175              	.LVL107:
 1176              	.L81:
 1177              		.loc 1 499 0 is_stmt 1
 1178 0798 002D     		cmp	r5, #0
 1179 079a 3FF459AC 		beq	.L4
 1180              		.loc 1 500 0
 1181 079e B8F1000F 		cmp	r8, #0
 1182 07a2 4BD1     		bne	.L230
 1183              	.LVL108:
 1184              	.LBB118:
 1185              		.loc 1 516 0
 1186 07a4 F5EEC0AA 		vcmpe.f32	s21, #0
 1187 07a8 F1EE10FA 		vmrs	APSR_nzcv, FPSCR
 1188              		.loc 1 525 0
 1189 07ac 94F83830 		ldrb	r3, [r4, #56]	@ zero_extendqisi2
 1190              		.loc 1 516 0
 1191 07b0 00F1D880 		bmi	.L92
 1192              		.loc 1 525 0
 1193 07b4 002B     		cmp	r3, #0
 1194 07b6 40F0E180 		bne	.L231
 1195              	.LVL109:
 1196              	.L93:
 1197              		.loc 1 557 0
ARM GAS  C:\Users\CFAR\AppData\Local\Temp\ccjKwKej.s 			page 22


 1198 07ba B0EE6A0A 		vmov.f32	s0, s21
 1199 07be FFF7FEFF 		bl	mc_interface_set_current_rel
 1200              	.LVL110:
 1201 07c2 45E4     		b	.L4
 1202              	.LVL111:
 1203              	.L80:
 1204              	.LBE118:
 1205              	.LBB119:
 1206              	.LBB120:
 1207              		.loc 1 474 0
 1208 07c4 3846     		mov	r0, r7
 1209 07c6 FFF7FEFF 		bl	comm_can_get_status_msg_index
 1210              	.LVL112:
 1211              		.loc 1 476 0
 1212 07ca 0368     		ldr	r3, [r0]
 1213 07cc 002B     		cmp	r3, #0
 1214              	.LBE120:
 1215              		.loc 1 473 0
 1216 07ce 07F10107 		add	r7, r7, #1
 1217              	.LVL113:
 1218              	.LBB127:
 1219              		.loc 1 476 0
 1220 07d2 1BDB     		blt	.L78
 1221              	.LBB121:
 1222              	.LBB122:
 1223              	.LBB123:
 1224              	.LBB124:
 1225              		.loc 3 231 0 discriminator 1
 1226 07d4 D9F82830 		ldr	r3, [r9, #40]
 1227              	.LVL114:
 1228              	.LBE124:
 1229              	.LBE123:
 1230              		.loc 3 267 0 discriminator 1
 1231 07d8 4268     		ldr	r2, [r0, #4]
 1232 07da 9B1A     		subs	r3, r3, r2
 1233              	.LBE122:
 1234              	.LBE121:
 1235              		.loc 1 476 0 discriminator 1
 1236 07dc 07EE903A 		vmov	s15, r3	@ int
 1237 07e0 F8EE677A 		vcvt.f32.u32	s15, s15
 1238              	.LBB125:
 1239              		.loc 1 479 0 discriminator 1
 1240 07e4 F0EECA6A 		vabs.f32	s13, s20
 1241              	.LBE125:
 1242              		.loc 1 476 0 discriminator 1
 1243 07e8 87EE897A 		vdiv.f32	s14, s15, s18
 1244 07ec B4EEE97A 		vcmpe.f32	s14, s19
 1245 07f0 F1EE10FA 		vmrs	APSR_nzcv, FPSCR
 1246 07f4 0AD5     		bpl	.L78
 1247              	.LBB126:
 1248              		.loc 1 477 0
 1249 07f6 D0ED027A 		vldr.32	s15, [r0, #8]
 1250              	.LVL115:
 1251              		.loc 1 479 0
 1252 07fa B0EEE77A 		vabs.f32	s14, s15
 1253              		.loc 1 480 0
 1254 07fe B4EE667A 		vcmp.f32	s14, s13
ARM GAS  C:\Users\CFAR\AppData\Local\Temp\ccjKwKej.s 			page 23


 1255 0802 F1EE10FA 		vmrs	APSR_nzcv, FPSCR
 1256 0806 48BF     		it	mi
 1257 0808 B0EE67AA 		vmovmi.f32	s20, s15
 1258              	.LVL116:
 1259              	.L78:
 1260              	.LBE126:
 1261              	.LBE127:
 1262              		.loc 1 473 0 discriminator 2
 1263 080c 0A2F     		cmp	r7, #10
 1264 080e D9D1     		bne	.L80
 1265 0810 BCE7     		b	.L77
 1266              	.LVL117:
 1267              	.L53:
 1268              	.LBE119:
 1269              		.loc 1 364 0
 1270 0812 DBED161A 		vldr.32	s3, [fp, #88]
 1271 0816 9BED162A 		vldr.32	s4, [fp, #88]
 1272 081a 0193     		str	r3, [sp, #4]
 1273 081c F1EE611A 		vneg.f32	s3, s3
 1274 0820 B7EE001A 		vmov.f32	s2, #1.0e+0
 1275 0824 FFEE000A 		vmov.f32	s1, #-1.0e+0
 1276 0828 FFF7FEFF 		bl	utils_map
 1277              	.LVL118:
 1278 082c FFF7FEFF 		bl	mc_interface_set_duty
 1279              	.LVL119:
 1280              		.loc 1 309 0
 1281 0830 DFED84AA 		vldr.32	s21, .L238+4
 1282 0834 019B     		ldr	r3, [sp, #4]
 1283              		.loc 1 310 0
 1284 0836 0025     		movs	r5, #0
 1285              	.LVL120:
 1286              		.loc 1 365 0
 1287 0838 0126     		movs	r6, #1
 1288              	.LVL121:
 1289 083a 16E6     		b	.L45
 1290              	.LVL122:
 1291              	.L230:
 1292              		.loc 1 501 0
 1293 083c B0EE6A0A 		vmov.f32	s0, s21
 1294 0840 FFF7FEFF 		bl	mc_interface_set_brake_current_rel
 1295              	.LVL123:
 1296              		.loc 1 504 0
 1297 0844 94F83830 		ldrb	r3, [r4, #56]	@ zero_extendqisi2
 1298 0848 002B     		cmp	r3, #0
 1299 084a 3FF401AC 		beq	.L4
 1300              	.LBB128:
 1301              		.loc 1 505 0
 1302 084e 0025     		movs	r5, #0
 1303              	.LVL124:
 1304 0850 02E0     		b	.L91
 1305              	.LVL125:
 1306              	.L89:
 1307              		.loc 1 505 0 is_stmt 0 discriminator 2
 1308 0852 0A2D     		cmp	r5, #10
 1309 0854 3FF4FCAB 		beq	.L4
 1310              	.LVL126:
 1311              	.L91:
ARM GAS  C:\Users\CFAR\AppData\Local\Temp\ccjKwKej.s 			page 24


 1312              	.LBB129:
 1313              		.loc 1 506 0 is_stmt 1
 1314 0858 2846     		mov	r0, r5
 1315 085a FFF7FEFF 		bl	comm_can_get_status_msg_index
 1316              	.LVL127:
 1317              		.loc 1 508 0
 1318 085e 0268     		ldr	r2, [r0]
 1319 0860 002A     		cmp	r2, #0
 1320              	.LBE129:
 1321              		.loc 1 505 0
 1322 0862 05F10105 		add	r5, r5, #1
 1323              	.LVL128:
 1324              	.LBB134:
 1325              		.loc 1 508 0
 1326 0866 F4DB     		blt	.L89
 1327              	.LBB130:
 1328              	.LBB131:
 1329              		.loc 3 267 0 discriminator 1
 1330 0868 4168     		ldr	r1, [r0, #4]
 1331              	.LBB132:
 1332              	.LBB133:
 1333              		.loc 3 231 0 discriminator 1
 1334 086a D9F82830 		ldr	r3, [r9, #40]
 1335              	.LVL129:
 1336              	.LBE133:
 1337              	.LBE132:
 1338              		.loc 3 267 0 discriminator 1
 1339 086e 5B1A     		subs	r3, r3, r1
 1340              	.LBE131:
 1341              	.LBE130:
 1342              		.loc 1 508 0 discriminator 1
 1343 0870 07EE903A 		vmov	s15, r3	@ int
 1344 0874 F8EE677A 		vcvt.f32.u32	s15, s15
 1345 0878 87EE897A 		vdiv.f32	s14, s15, s18
 1346 087c B4EEE97A 		vcmpe.f32	s14, s19
 1347 0880 F1EE10FA 		vmrs	APSR_nzcv, FPSCR
 1348 0884 E5D5     		bpl	.L89
 1349              		.loc 1 509 0
 1350 0886 D0B2     		uxtb	r0, r2
 1351              	.LVL130:
 1352 0888 B0EE6A0A 		vmov.f32	s0, s21
 1353 088c FFF7FEFF 		bl	comm_can_set_current_brake_rel
 1354              	.LVL131:
 1355 0890 DFE7     		b	.L89
 1356              	.LVL132:
 1357              	.L108:
 1358              	.LBE134:
 1359              	.LBE128:
 1360              		.loc 1 338 0
 1361 0892 0125     		movs	r5, #1
 1362              	.LVL133:
 1363 0894 E9E5     		b	.L45
 1364              	.LVL134:
 1365              	.L228:
 1366              	.LBB135:
 1367              		.loc 1 444 0
 1368 0896 6D4B     		ldr	r3, .L238+12
ARM GAS  C:\Users\CFAR\AppData\Local\Temp\ccjKwKej.s 			page 25


 1369 0898 1A78     		ldrb	r2, [r3]	@ zero_extendqisi2
 1370 089a 002A     		cmp	r2, #0
 1371 089c 58D0     		beq	.L72
 1372 089e 6C4B     		ldr	r3, .L238+16
 1373 08a0 93ED000A 		vldr.32	s0, [r3]
 1374              	.L73:
 1375              		.loc 1 449 0
 1376 08a4 FFF7FEFF 		bl	mc_interface_set_pid_speed
 1377              	.LVL135:
 1378              		.loc 1 452 0
 1379 08a8 94F83830 		ldrb	r3, [r4, #56]	@ zero_extendqisi2
 1380 08ac 002B     		cmp	r3, #0
 1381 08ae 3FF4CFAB 		beq	.L4
 1382              	.LBB136:
 1383              		.loc 1 453 0
 1384 08b2 FFF7FEFF 		bl	mc_interface_get_tot_current_directional_filtered
 1385              	.LVL136:
 1386              	.LBB137:
 1387              		.loc 1 455 0
 1388 08b6 0025     		movs	r5, #0
 1389              	.LVL137:
 1390              	.LBE137:
 1391              		.loc 1 453 0
 1392 08b8 B0EE40AA 		vmov.f32	s20, s0
 1393              	.LVL138:
 1394 08bc 02E0     		b	.L76
 1395              	.LVL139:
 1396              	.L74:
 1397              	.LBB144:
 1398              		.loc 1 455 0 discriminator 2
 1399 08be 0A2D     		cmp	r5, #10
 1400 08c0 3FF4C6AB 		beq	.L4
 1401              	.LVL140:
 1402              	.L76:
 1403              	.LBB138:
 1404              		.loc 1 456 0
 1405 08c4 2846     		mov	r0, r5
 1406 08c6 FFF7FEFF 		bl	comm_can_get_status_msg_index
 1407              	.LVL141:
 1408              		.loc 1 458 0
 1409 08ca 0268     		ldr	r2, [r0]
 1410 08cc 002A     		cmp	r2, #0
 1411              	.LBE138:
 1412              		.loc 1 455 0
 1413 08ce 05F10105 		add	r5, r5, #1
 1414              	.LVL142:
 1415              	.LBB143:
 1416              		.loc 1 458 0
 1417 08d2 F4DB     		blt	.L74
 1418              	.LBB139:
 1419              	.LBB140:
 1420              		.loc 3 267 0 discriminator 1
 1421 08d4 4168     		ldr	r1, [r0, #4]
 1422              	.LBB141:
 1423              	.LBB142:
 1424              		.loc 3 231 0 discriminator 1
 1425 08d6 D9F82830 		ldr	r3, [r9, #40]
ARM GAS  C:\Users\CFAR\AppData\Local\Temp\ccjKwKej.s 			page 26


 1426              	.LVL143:
 1427              	.LBE142:
 1428              	.LBE141:
 1429              		.loc 3 267 0 discriminator 1
 1430 08da 5B1A     		subs	r3, r3, r1
 1431              	.LBE140:
 1432              	.LBE139:
 1433              		.loc 1 458 0 discriminator 1
 1434 08dc 07EE903A 		vmov	s15, r3	@ int
 1435 08e0 F8EE677A 		vcvt.f32.u32	s15, s15
 1436 08e4 87EE897A 		vdiv.f32	s14, s15, s18
 1437 08e8 B4EEE97A 		vcmpe.f32	s14, s19
 1438 08ec F1EE10FA 		vmrs	APSR_nzcv, FPSCR
 1439 08f0 E5D5     		bpl	.L74
 1440              		.loc 1 459 0
 1441 08f2 D0B2     		uxtb	r0, r2
 1442              	.LVL144:
 1443 08f4 B0EE4A0A 		vmov.f32	s0, s20
 1444 08f8 FFF7FEFF 		bl	comm_can_set_current
 1445              	.LVL145:
 1446 08fc DFE7     		b	.L74
 1447              	.LVL146:
 1448              	.L226:
 1449              	.LBE143:
 1450              	.LBE144:
 1451              	.LBE136:
 1452              	.LBE135:
 1453              		.loc 1 243 0
 1454 08fe 01F00107 		and	r7, r1, #1
 1455 0902 A0E4     		b	.L24
 1456              	.LVL147:
 1457              	.L229:
 1458              	.LBB145:
 1459              		.loc 1 488 0
 1460 0904 FFF7FEFF 		bl	mc_interface_get_duty_cycle_now
 1461              	.LVL148:
 1462              	.LBB146:
 1463              		.loc 1 490 0
 1464 0908 0026     		movs	r6, #0
 1465              	.LVL149:
 1466              	.LBE146:
 1467              		.loc 1 488 0
 1468 090a F0EE40BA 		vmov.f32	s23, s0
 1469              	.LVL150:
 1470 090e 02E0     		b	.L84
 1471              	.LVL151:
 1472              	.L82:
 1473              	.LBB153:
 1474              		.loc 1 490 0 discriminator 2
 1475 0910 0A2E     		cmp	r6, #10
 1476 0912 3FF441AF 		beq	.L81
 1477              	.LVL152:
 1478              	.L84:
 1479              	.LBB147:
 1480              		.loc 1 491 0
 1481 0916 3046     		mov	r0, r6
 1482 0918 FFF7FEFF 		bl	comm_can_get_status_msg_index
ARM GAS  C:\Users\CFAR\AppData\Local\Temp\ccjKwKej.s 			page 27


 1483              	.LVL153:
 1484              		.loc 1 493 0
 1485 091c 0268     		ldr	r2, [r0]
 1486 091e 002A     		cmp	r2, #0
 1487              	.LBE147:
 1488              		.loc 1 490 0
 1489 0920 06F10106 		add	r6, r6, #1
 1490              	.LVL154:
 1491              	.LBB152:
 1492              		.loc 1 493 0
 1493 0924 F4DB     		blt	.L82
 1494              	.LBB148:
 1495              	.LBB149:
 1496              		.loc 3 267 0 discriminator 1
 1497 0926 4168     		ldr	r1, [r0, #4]
 1498              	.LBB150:
 1499              	.LBB151:
 1500              		.loc 3 231 0 discriminator 1
 1501 0928 D9F82830 		ldr	r3, [r9, #40]
 1502              	.LVL155:
 1503              	.LBE151:
 1504              	.LBE150:
 1505              		.loc 3 267 0 discriminator 1
 1506 092c 5B1A     		subs	r3, r3, r1
 1507              	.LBE149:
 1508              	.LBE148:
 1509              		.loc 1 493 0 discriminator 1
 1510 092e 07EE903A 		vmov	s15, r3	@ int
 1511 0932 F8EE677A 		vcvt.f32.u32	s15, s15
 1512 0936 87EE897A 		vdiv.f32	s14, s15, s18
 1513 093a B4EEE97A 		vcmpe.f32	s14, s19
 1514 093e F1EE10FA 		vmrs	APSR_nzcv, FPSCR
 1515 0942 E5D5     		bpl	.L82
 1516              		.loc 1 494 0
 1517 0944 D0B2     		uxtb	r0, r2
 1518              	.LVL156:
 1519 0946 B0EE6B0A 		vmov.f32	s0, s23
 1520 094a FFF7FEFF 		bl	comm_can_set_duty
 1521              	.LVL157:
 1522 094e DFE7     		b	.L82
 1523              	.LVL158:
 1524              	.L72:
 1525              	.LBE152:
 1526              	.LBE153:
 1527              	.LBE145:
 1528              		.loc 1 439 0
 1529 0950 B4EE000A 		vmov.f32	s0, #1.25e-1
 1530 0954 27EE800A 		vmul.f32	s0, s15, s0
 1531              	.LBB154:
 1532              		.loc 1 446 0
 1533 0958 3D49     		ldr	r1, .L238+16
 1534              		.loc 1 445 0
 1535 095a 0122     		movs	r2, #1
 1536              		.loc 1 446 0
 1537 095c 81ED000A 		vstr.32	s0, [r1]
 1538              		.loc 1 445 0
 1539 0960 1A70     		strb	r2, [r3]
ARM GAS  C:\Users\CFAR\AppData\Local\Temp\ccjKwKej.s 			page 28


 1540 0962 9FE7     		b	.L73
 1541              	.LVL159:
 1542              	.L92:
 1543              	.LBE154:
 1544              	.LBB155:
 1545              		.loc 1 518 0
 1546 0964 F1EE6AAA 		vneg.f32	s21, s21
 1547              	.LVL160:
 1548              		.loc 1 525 0
 1549 0968 03F0FF08 		and	r8, r3, #255
 1550              	.LVL161:
 1551 096c 002B     		cmp	r3, #0
 1552 096e 5FD1     		bne	.L232
 1553              	.LVL162:
 1554              	.L95:
 1555              		.loc 1 555 0
 1556 0970 B1EE6A0A 		vneg.f32	s0, s21
 1557 0974 FFF7FEFF 		bl	mc_interface_set_current_rel
 1558              	.LVL163:
 1559 0978 FFF76ABB 		b	.L4
 1560              	.LVL164:
 1561              	.L231:
 1562              		.loc 1 525 0
 1563 097c F0EE6ABA 		vmov.f32	s23, s21
 1564              	.LVL165:
 1565              	.L96:
 1566              		.loc 1 519 0 discriminator 1
 1567 0980 0025     		movs	r5, #0
 1568              	.LVL166:
 1569 0982 4646     		mov	r6, r8
 1570              	.LVL167:
 1571              	.L94:
 1572              	.LBB83:
 1573              	.LBB82:
 1574              		.loc 1 527 0
 1575 0984 2846     		mov	r0, r5
 1576 0986 FFF7FEFF 		bl	comm_can_get_status_msg_index
 1577              	.LVL168:
 1578              		.loc 1 529 0
 1579 098a 0368     		ldr	r3, [r0]
 1580 098c 002B     		cmp	r3, #0
 1581 098e 30DB     		blt	.L97
 1582              	.LBB76:
 1583              	.LBB77:
 1584              	.LBB78:
 1585              	.LBB79:
 1586              		.loc 3 231 0 discriminator 1
 1587 0990 D9F82820 		ldr	r2, [r9, #40]
 1588              	.LVL169:
 1589              	.LBE79:
 1590              	.LBE78:
 1591              		.loc 3 267 0 discriminator 1
 1592 0994 4168     		ldr	r1, [r0, #4]
 1593 0996 521A     		subs	r2, r2, r1
 1594              	.LBE77:
 1595              	.LBE76:
 1596              		.loc 1 529 0 discriminator 1
ARM GAS  C:\Users\CFAR\AppData\Local\Temp\ccjKwKej.s 			page 29


 1597 0998 07EE902A 		vmov	s15, r2	@ int
 1598 099c F8EE677A 		vcvt.f32.u32	s15, s15
 1599 09a0 87EE897A 		vdiv.f32	s14, s15, s18
 1600 09a4 B4EEE97A 		vcmpe.f32	s14, s19
 1601 09a8 F1EE10FA 		vmrs	APSR_nzcv, FPSCR
 1602 09ac 21D5     		bpl	.L97
 1603              		.loc 1 530 0
 1604 09ae 94F83920 		ldrb	r2, [r4, #57]	@ zero_extendqisi2
 1605              	.LBB80:
 1606              		.loc 1 537 0
 1607 09b2 DFED240A 		vldr.32	s1, .L238+4
 1608              	.LBE80:
 1609              		.loc 1 530 0
 1610 09b6 9AB1     		cbz	r2, .L99
 1611              	.LBB81:
 1612              		.loc 1 531 0
 1613 09b8 90ED020A 		vldr.32	s0, [r0, #8]
 1614              	.LVL170:
 1615              		.loc 1 532 0
 1616 09bc 0EB1     		cbz	r6, .L100
 1617              		.loc 1 533 0
 1618 09be B1EE400A 		vneg.f32	s0, s0
 1619              	.LVL171:
 1620              	.L100:
 1621              		.loc 1 537 0
 1622 09c2 94ED0F1A 		vldr.32	s2, [r4, #60]
 1623 09c6 0190     		str	r0, [sp, #4]
 1624 09c8 30EE4A0A 		vsub.f32	s0, s0, s20
 1625              	.LVL172:
 1626 09cc B0EE482A 		vmov.f32	s4, s16
 1627 09d0 F0EE6B1A 		vmov.f32	s3, s23
 1628 09d4 FFF7FEFF 		bl	utils_map
 1629              	.LVL173:
 1630 09d8 0198     		ldr	r0, [sp, #4]
 1631 09da 0368     		ldr	r3, [r0]
 1632 09dc F0EE40AA 		vmov.f32	s21, s0
 1633              	.LVL174:
 1634              	.L99:
 1635 09e0 DBB2     		uxtb	r3, r3
 1636              	.LBE81:
 1637              		.loc 1 541 0
 1638 09e2 B1EE6A0A 		vneg.f32	s0, s21
 1639 09e6 1846     		mov	r0, r3
 1640              		.loc 1 540 0
 1641 09e8 0EB9     		cbnz	r6, .L220
 1642              		.loc 1 543 0
 1643 09ea B0EE6A0A 		vmov.f32	s0, s21
 1644              	.L220:
 1645 09ee FFF7FEFF 		bl	comm_can_set_current_rel
 1646              	.LVL175:
 1647              	.L97:
 1648              	.LBE82:
 1649              		.loc 1 526 0 discriminator 2
 1650 09f2 0135     		adds	r5, r5, #1
 1651              	.LVL176:
 1652 09f4 0A2D     		cmp	r5, #10
 1653 09f6 C5D1     		bne	.L94
ARM GAS  C:\Users\CFAR\AppData\Local\Temp\ccjKwKej.s 			page 30


 1654              	.LBE83:
 1655              		.loc 1 548 0
 1656 09f8 94F83930 		ldrb	r3, [r4, #57]	@ zero_extendqisi2
 1657 09fc B046     		mov	r8, r6
 1658 09fe 23B9     		cbnz	r3, .L233
 1659              		.loc 1 554 0
 1660 0a00 B8F1000F 		cmp	r8, #0
 1661 0a04 3FF4D9AE 		beq	.L93
 1662 0a08 B2E7     		b	.L95
 1663              	.L233:
 1664              	.LVL177:
 1665              	.LBB84:
 1666              		.loc 1 550 0
 1667 0a0a 94ED0F1A 		vldr.32	s2, [r4, #60]
 1668 0a0e DFED0D0A 		vldr.32	s1, .L238+4
 1669 0a12 F0EE6B1A 		vmov.f32	s3, s23
 1670 0a16 3BEE4A0A 		vsub.f32	s0, s22, s20
 1671              	.LVL178:
 1672 0a1a B0EE482A 		vmov.f32	s4, s16
 1673 0a1e FFF7FEFF 		bl	utils_map
 1674              	.LVL179:
 1675 0a22 F0EE40AA 		vmov.f32	s21, s0
 1676              	.LVL180:
 1677              	.LBE84:
 1678              		.loc 1 554 0
 1679 0a26 B8F1000F 		cmp	r8, #0
 1680 0a2a 3FF4C6AE 		beq	.L93
 1681 0a2e 9FE7     		b	.L95
 1682              	.LVL181:
 1683              	.L232:
 1684              		.loc 1 520 0
 1685 0a30 B1EE4BBA 		vneg.f32	s22, s22
 1686              	.LVL182:
 1687              		.loc 1 521 0
 1688 0a34 B1EE4AAA 		vneg.f32	s20, s20
 1689              	.LVL183:
 1690              		.loc 1 519 0
 1691 0a38 F0EE6ABA 		vmov.f32	s23, s21
 1692 0a3c A0E7     		b	.L96
 1693              	.L239:
 1694 0a3e 00BF     		.align	2
 1695              	.L238:
 1696 0a40 00000000 		.word	.LANCHOR17
 1697 0a44 00000000 		.word	0
 1698 0a48 6F12833A 		.word	981668463
 1699 0a4c 00000000 		.word	.LANCHOR18
 1700 0a50 00000000 		.word	.LANCHOR19
 1701 0a54 00000000 		.word	.LANCHOR16
 1702              	.LBE155:
 1703              	.LBE158:
 1704              		.cfi_endproc
 1705              	.LFE263:
 1706              		.size	adc_thread, .-adc_thread
 1707              		.section	.text.app_adc_configure,"ax",%progbits
 1708              		.align	1
 1709              		.p2align 4,,15
 1710              		.global	app_adc_configure
ARM GAS  C:\Users\CFAR\AppData\Local\Temp\ccjKwKej.s 			page 31


 1711              		.syntax unified
 1712              		.thumb
 1713              		.thumb_func
 1714              		.fpu fpv4-sp-d16
 1715              		.type	app_adc_configure, %function
 1716              	app_adc_configure:
 1717              	.LFB256:
 1718              		.loc 1 53 0
 1719              		.cfi_startproc
 1720              		@ args = 0, pretend = 0, frame = 0
 1721              		@ frame_needed = 0, uses_anonymous_args = 0
 1722              	.LVL184:
 1723 0000 08B5     		push	{r3, lr}
 1724              		.cfi_def_cfa_offset 8
 1725              		.cfi_offset 3, -8
 1726              		.cfi_offset 14, -4
 1727              		.loc 1 54 0
 1728 0002 0146     		mov	r1, r0
 1729 0004 4422     		movs	r2, #68
 1730 0006 0348     		ldr	r0, .L242
 1731              	.LVL185:
 1732 0008 FFF7FEFF 		bl	memcpy
 1733              	.LVL186:
 1734              		.loc 1 55 0
 1735 000c 024B     		ldr	r3, .L242+4
 1736 000e 0022     		movs	r2, #0
 1737 0010 1A60     		str	r2, [r3]	@ float
 1738              		.loc 1 56 0
 1739 0012 08BD     		pop	{r3, pc}
 1740              	.L243:
 1741              		.align	2
 1742              	.L242:
 1743 0014 00000000 		.word	.LANCHOR2
 1744 0018 00000000 		.word	.LANCHOR4
 1745              		.cfi_endproc
 1746              	.LFE256:
 1747              		.size	app_adc_configure, .-app_adc_configure
 1748              		.section	.text.app_adc_start,"ax",%progbits
 1749              		.align	1
 1750              		.p2align 4,,15
 1751              		.global	app_adc_start
 1752              		.syntax unified
 1753              		.thumb
 1754              		.thumb_func
 1755              		.fpu fpv4-sp-d16
 1756              		.type	app_adc_start, %function
 1757              	app_adc_start:
 1758              	.LFB257:
 1759              		.loc 1 58 0
 1760              		.cfi_startproc
 1761              		@ args = 0, pretend = 0, frame = 0
 1762              		@ frame_needed = 0, uses_anonymous_args = 0
 1763              	.LVL187:
 1764 0000 30B5     		push	{r4, r5, lr}
 1765              		.cfi_def_cfa_offset 12
 1766              		.cfi_offset 4, -12
 1767              		.cfi_offset 5, -8
ARM GAS  C:\Users\CFAR\AppData\Local\Temp\ccjKwKej.s 			page 32


 1768              		.cfi_offset 14, -4
 1769              		.loc 1 59 0
 1770 0002 0849     		ldr	r1, .L246
 1771              		.loc 1 60 0
 1772 0004 084D     		ldr	r5, .L246+4
 1773              		.loc 1 61 0
 1774 0006 094B     		ldr	r3, .L246+8
 1775              		.loc 1 58 0
 1776 0008 83B0     		sub	sp, sp, #12
 1777              		.cfi_def_cfa_offset 24
 1778              		.loc 1 60 0
 1779 000a 0024     		movs	r4, #0
 1780              		.loc 1 61 0
 1781 000c 0094     		str	r4, [sp]
 1782 000e 4022     		movs	r2, #64
 1783              		.loc 1 59 0
 1784 0010 0870     		strb	r0, [r1]
 1785              		.loc 1 61 0
 1786 0012 4FF4B361 		mov	r1, #1432
 1787 0016 0648     		ldr	r0, .L246+12
 1788              	.LVL188:
 1789              		.loc 1 60 0
 1790 0018 2C70     		strb	r4, [r5]
 1791              	.LVL189:
 1792              		.loc 1 61 0
 1793 001a FFF7FEFF 		bl	chThdCreateStatic
 1794              	.LVL190:
 1795              		.loc 1 62 0
 1796 001e 03B0     		add	sp, sp, #12
 1797              		.cfi_def_cfa_offset 12
 1798              		@ sp needed
 1799 0020 30BD     		pop	{r4, r5, pc}
 1800              	.L247:
 1801 0022 00BF     		.align	2
 1802              	.L246:
 1803 0024 00000000 		.word	.LANCHOR0
 1804 0028 00000000 		.word	.LANCHOR3
 1805 002c 00000000 		.word	adc_thread
 1806 0030 00000000 		.word	.LANCHOR20
 1807              		.cfi_endproc
 1808              	.LFE257:
 1809              		.size	app_adc_start, .-app_adc_start
 1810              		.section	.text.app_adc_stop,"ax",%progbits
 1811              		.align	1
 1812              		.p2align 4,,15
 1813              		.global	app_adc_stop
 1814              		.syntax unified
 1815              		.thumb
 1816              		.thumb_func
 1817              		.fpu fpv4-sp-d16
 1818              		.type	app_adc_stop, %function
 1819              	app_adc_stop:
 1820              	.LFB258:
 1821              		.loc 1 64 0
 1822              		.cfi_startproc
 1823              		@ args = 0, pretend = 0, frame = 0
 1824              		@ frame_needed = 0, uses_anonymous_args = 0
ARM GAS  C:\Users\CFAR\AppData\Local\Temp\ccjKwKej.s 			page 33


 1825              		.loc 1 65 0
 1826 0000 064B     		ldr	r3, .L256
 1827              		.loc 1 64 0
 1828 0002 10B5     		push	{r4, lr}
 1829              		.cfi_def_cfa_offset 8
 1830              		.cfi_offset 4, -8
 1831              		.cfi_offset 14, -4
 1832              		.loc 1 65 0
 1833 0004 0122     		movs	r2, #1
 1834              		.loc 1 66 0
 1835 0006 064C     		ldr	r4, .L256+4
 1836              		.loc 1 65 0
 1837 0008 1A70     		strb	r2, [r3]
 1838              		.loc 1 66 0
 1839 000a 2378     		ldrb	r3, [r4]	@ zero_extendqisi2
 1840 000c 2BB1     		cbz	r3, .L248
 1841              	.L250:
 1842              		.loc 1 67 0
 1843 000e 0A20     		movs	r0, #10
 1844 0010 FFF7FEFF 		bl	chThdSleep
 1845              	.LVL191:
 1846              		.loc 1 66 0
 1847 0014 2378     		ldrb	r3, [r4]	@ zero_extendqisi2
 1848 0016 002B     		cmp	r3, #0
 1849 0018 F9D1     		bne	.L250
 1850              	.L248:
 1851              		.loc 1 69 0
 1852 001a 10BD     		pop	{r4, pc}
 1853              	.L257:
 1854              		.align	2
 1855              	.L256:
 1856 001c 00000000 		.word	.LANCHOR3
 1857 0020 00000000 		.word	.LANCHOR1
 1858              		.cfi_endproc
 1859              	.LFE258:
 1860              		.size	app_adc_stop, .-app_adc_stop
 1861              		.section	.text.app_adc_get_decoded_level,"ax",%progbits
 1862              		.align	1
 1863              		.p2align 4,,15
 1864              		.global	app_adc_get_decoded_level
 1865              		.syntax unified
 1866              		.thumb
 1867              		.thumb_func
 1868              		.fpu fpv4-sp-d16
 1869              		.type	app_adc_get_decoded_level, %function
 1870              	app_adc_get_decoded_level:
 1871              	.LFB259:
 1872              		.loc 1 71 0
 1873              		.cfi_startproc
 1874              		@ args = 0, pretend = 0, frame = 0
 1875              		@ frame_needed = 0, uses_anonymous_args = 0
 1876              		@ link register save eliminated.
 1877              		.loc 1 72 0
 1878 0000 014B     		ldr	r3, .L259
 1879 0002 93ED000A 		vldr.32	s0, [r3]
 1880              		.loc 1 73 0
 1881 0006 7047     		bx	lr
ARM GAS  C:\Users\CFAR\AppData\Local\Temp\ccjKwKej.s 			page 34


 1882              	.L260:
 1883              		.align	2
 1884              	.L259:
 1885 0008 00000000 		.word	.LANCHOR8
 1886              		.cfi_endproc
 1887              	.LFE259:
 1888              		.size	app_adc_get_decoded_level, .-app_adc_get_decoded_level
 1889              		.section	.text.app_adc_get_voltage,"ax",%progbits
 1890              		.align	1
 1891              		.p2align 4,,15
 1892              		.global	app_adc_get_voltage
 1893              		.syntax unified
 1894              		.thumb
 1895              		.thumb_func
 1896              		.fpu fpv4-sp-d16
 1897              		.type	app_adc_get_voltage, %function
 1898              	app_adc_get_voltage:
 1899              	.LFB260:
 1900              		.loc 1 75 0
 1901              		.cfi_startproc
 1902              		@ args = 0, pretend = 0, frame = 0
 1903              		@ frame_needed = 0, uses_anonymous_args = 0
 1904              		@ link register save eliminated.
 1905              		.loc 1 76 0
 1906 0000 014B     		ldr	r3, .L262
 1907 0002 93ED000A 		vldr.32	s0, [r3]
 1908              		.loc 1 77 0
 1909 0006 7047     		bx	lr
 1910              	.L263:
 1911              		.align	2
 1912              	.L262:
 1913 0008 00000000 		.word	.LANCHOR5
 1914              		.cfi_endproc
 1915              	.LFE260:
 1916              		.size	app_adc_get_voltage, .-app_adc_get_voltage
 1917              		.section	.text.app_adc_get_decoded_level2,"ax",%progbits
 1918              		.align	1
 1919              		.p2align 4,,15
 1920              		.global	app_adc_get_decoded_level2
 1921              		.syntax unified
 1922              		.thumb
 1923              		.thumb_func
 1924              		.fpu fpv4-sp-d16
 1925              		.type	app_adc_get_decoded_level2, %function
 1926              	app_adc_get_decoded_level2:
 1927              	.LFB261:
 1928              		.loc 1 79 0
 1929              		.cfi_startproc
 1930              		@ args = 0, pretend = 0, frame = 0
 1931              		@ frame_needed = 0, uses_anonymous_args = 0
 1932              		@ link register save eliminated.
 1933              		.loc 1 80 0
 1934 0000 014B     		ldr	r3, .L265
 1935 0002 93ED000A 		vldr.32	s0, [r3]
 1936              		.loc 1 81 0
 1937 0006 7047     		bx	lr
 1938              	.L266:
ARM GAS  C:\Users\CFAR\AppData\Local\Temp\ccjKwKej.s 			page 35


 1939              		.align	2
 1940              	.L265:
 1941 0008 00000000 		.word	.LANCHOR12
 1942              		.cfi_endproc
 1943              	.LFE261:
 1944              		.size	app_adc_get_decoded_level2, .-app_adc_get_decoded_level2
 1945              		.section	.text.app_adc_get_voltage2,"ax",%progbits
 1946              		.align	1
 1947              		.p2align 4,,15
 1948              		.global	app_adc_get_voltage2
 1949              		.syntax unified
 1950              		.thumb
 1951              		.thumb_func
 1952              		.fpu fpv4-sp-d16
 1953              		.type	app_adc_get_voltage2, %function
 1954              	app_adc_get_voltage2:
 1955              	.LFB262:
 1956              		.loc 1 83 0
 1957              		.cfi_startproc
 1958              		@ args = 0, pretend = 0, frame = 0
 1959              		@ frame_needed = 0, uses_anonymous_args = 0
 1960              		@ link register save eliminated.
 1961              		.loc 1 84 0
 1962 0000 014B     		ldr	r3, .L268
 1963 0002 93ED000A 		vldr.32	s0, [r3]
 1964              		.loc 1 85 0
 1965 0006 7047     		bx	lr
 1966              	.L269:
 1967              		.align	2
 1968              	.L268:
 1969 0008 00000000 		.word	.LANCHOR9
 1970              		.cfi_endproc
 1971              	.LFE262:
 1972              		.size	app_adc_get_voltage2, .-app_adc_get_voltage2
 1973              		.section	.bss.adc_thread_wa,"aw",%nobits
 1974              		.align	3
 1975              		.set	.LANCHOR20,. + 0
 1976              		.type	adc_thread_wa, %object
 1977              		.size	adc_thread_wa, 1432
 1978              	adc_thread_wa:
 1979 0000 00000000 		.space	1432
 1979      00000000 
 1979      00000000 
 1979      00000000 
 1979      00000000 
 1980              		.section	.bss.config,"aw",%nobits
 1981              		.align	2
 1982              		.set	.LANCHOR2,. + 0
 1983              		.type	config, %object
 1984              		.size	config, 68
 1985              	config:
 1986 0000 00000000 		.space	68
 1986      00000000 
 1986      00000000 
 1986      00000000 
 1986      00000000 
 1987              		.section	.bss.decoded_level,"aw",%nobits
ARM GAS  C:\Users\CFAR\AppData\Local\Temp\ccjKwKej.s 			page 36


 1988              		.align	2
 1989              		.set	.LANCHOR8,. + 0
 1990              		.type	decoded_level, %object
 1991              		.size	decoded_level, 4
 1992              	decoded_level:
 1993 0000 00000000 		.space	4
 1994              		.section	.bss.decoded_level2,"aw",%nobits
 1995              		.align	2
 1996              		.set	.LANCHOR12,. + 0
 1997              		.type	decoded_level2, %object
 1998              		.size	decoded_level2, 4
 1999              	decoded_level2:
 2000 0000 00000000 		.space	4
 2001              		.section	.bss.filter_buffer.12077,"aw",%nobits
 2002              		.align	2
 2003              		.set	.LANCHOR7,. + 0
 2004              		.type	filter_buffer.12077, %object
 2005              		.size	filter_buffer.12077, 20
 2006              	filter_buffer.12077:
 2007 0000 00000000 		.space	20
 2007      00000000 
 2007      00000000 
 2007      00000000 
 2007      00000000 
 2008              		.section	.bss.filter_buffer.12147,"aw",%nobits
 2009              		.align	2
 2010              		.set	.LANCHOR17,. + 0
 2011              		.type	filter_buffer.12147, %object
 2012              		.size	filter_buffer.12147, 32
 2013              	filter_buffer.12147:
 2014 0000 00000000 		.space	32
 2014      00000000 
 2014      00000000 
 2014      00000000 
 2014      00000000 
 2015              		.section	.bss.filter_buffer2.12091,"aw",%nobits
 2016              		.align	2
 2017              		.set	.LANCHOR11,. + 0
 2018              		.type	filter_buffer2.12091, %object
 2019              		.size	filter_buffer2.12091, 20
 2020              	filter_buffer2.12091:
 2021 0000 00000000 		.space	20
 2021      00000000 
 2021      00000000 
 2021      00000000 
 2021      00000000 
 2022              		.section	.bss.filter_ptr.12078,"aw",%nobits
 2023              		.align	2
 2024              		.set	.LANCHOR6,. + 0
 2025              		.type	filter_ptr.12078, %object
 2026              		.size	filter_ptr.12078, 4
 2027              	filter_ptr.12078:
 2028 0000 00000000 		.space	4
 2029              		.section	.bss.filter_ptr.12148,"aw",%nobits
 2030              		.align	2
 2031              		.set	.LANCHOR16,. + 0
 2032              		.type	filter_ptr.12148, %object
ARM GAS  C:\Users\CFAR\AppData\Local\Temp\ccjKwKej.s 			page 37


 2033              		.size	filter_ptr.12148, 4
 2034              	filter_ptr.12148:
 2035 0000 00000000 		.space	4
 2036              		.section	.bss.filter_ptr2.12092,"aw",%nobits
 2037              		.align	2
 2038              		.set	.LANCHOR10,. + 0
 2039              		.type	filter_ptr2.12092, %object
 2040              		.size	filter_ptr2.12092, 4
 2041              	filter_ptr2.12092:
 2042 0000 00000000 		.space	4
 2043              		.section	.bss.is_running,"aw",%nobits
 2044              		.set	.LANCHOR1,. + 0
 2045              		.type	is_running, %object
 2046              		.size	is_running, 1
 2047              	is_running:
 2048 0000 00       		.space	1
 2049              		.section	.bss.last_time.12113,"aw",%nobits
 2050              		.align	2
 2051              		.set	.LANCHOR14,. + 0
 2052              		.type	last_time.12113, %object
 2053              		.size	last_time.12113, 4
 2054              	last_time.12113:
 2055 0000 00000000 		.space	4
 2056              		.section	.bss.ms_without_power,"aw",%nobits
 2057              		.align	2
 2058              		.set	.LANCHOR4,. + 0
 2059              		.type	ms_without_power, %object
 2060              		.size	ms_without_power, 4
 2061              	ms_without_power:
 2062 0000 00000000 		.space	4
 2063              		.section	.bss.pid_rpm.12154,"aw",%nobits
 2064              		.align	2
 2065              		.set	.LANCHOR19,. + 0
 2066              		.type	pid_rpm.12154, %object
 2067              		.size	pid_rpm.12154, 4
 2068              	pid_rpm.12154:
 2069 0000 00000000 		.space	4
 2070              		.section	.bss.pulses_without_power_before.12140,"aw",%nobits
 2071              		.align	2
 2072              		.set	.LANCHOR15,. + 0
 2073              		.type	pulses_without_power_before.12140, %object
 2074              		.size	pulses_without_power_before.12140, 4
 2075              	pulses_without_power_before.12140:
 2076 0000 00000000 		.space	4
 2077              		.section	.bss.pwr_ramp.12114,"aw",%nobits
 2078              		.align	2
 2079              		.set	.LANCHOR13,. + 0
 2080              		.type	pwr_ramp.12114, %object
 2081              		.size	pwr_ramp.12114, 4
 2082              	pwr_ramp.12114:
 2083 0000 00000000 		.space	4
 2084              		.section	.bss.read_voltage,"aw",%nobits
 2085              		.align	2
 2086              		.set	.LANCHOR5,. + 0
 2087              		.type	read_voltage, %object
 2088              		.size	read_voltage, 4
 2089              	read_voltage:
ARM GAS  C:\Users\CFAR\AppData\Local\Temp\ccjKwKej.s 			page 38


 2090 0000 00000000 		.space	4
 2091              		.section	.bss.read_voltage2,"aw",%nobits
 2092              		.align	2
 2093              		.set	.LANCHOR9,. + 0
 2094              		.type	read_voltage2, %object
 2095              		.size	read_voltage2, 4
 2096              	read_voltage2:
 2097 0000 00000000 		.space	4
 2098              		.section	.bss.use_rx_tx_as_buttons,"aw",%nobits
 2099              		.set	.LANCHOR0,. + 0
 2100              		.type	use_rx_tx_as_buttons, %object
 2101              		.size	use_rx_tx_as_buttons, 1
 2102              	use_rx_tx_as_buttons:
 2103 0000 00       		.space	1
 2104              		.section	.bss.was_pid.12146,"aw",%nobits
 2105              		.set	.LANCHOR18,. + 0
 2106              		.type	was_pid.12146, %object
 2107              		.size	was_pid.12146, 1
 2108              	was_pid.12146:
 2109 0000 00       		.space	1
 2110              		.section	.data.stop_now,"aw",%progbits
 2111              		.set	.LANCHOR3,. + 0
 2112              		.type	stop_now, %object
 2113              		.size	stop_now, 1
 2114              	stop_now:
 2115 0000 01       		.byte	1
 2116              		.section	.rodata.adc_thread.str1.4,"aMS",%progbits,1
 2117              		.align	2
 2118              	.LC0:
 2119 0000 4150505F 		.ascii	"APP_ADC\000"
 2119      41444300 
 2120              		.text
 2121              	.Letext0:
 2122              		.file 4 "c:\\st\\stm32cubeide_1.3.0\\stm32cubeide\\plugins\\com.st.stm32cube.ide.mcu.externaltools
 2123              		.file 5 "c:\\st\\stm32cubeide_1.3.0\\stm32cubeide\\plugins\\com.st.stm32cube.ide.mcu.externaltools
 2124              		.file 6 "c:\\st\\stm32cubeide_1.3.0\\stm32cubeide\\plugins\\com.st.stm32cube.ide.mcu.externaltools
 2125              		.file 7 "ChibiOS_3.0.5/os/rt/ports/ARMCMx/compilers/GCC/chtypes.h"
 2126              		.file 8 "ChibiOS_3.0.5/os/rt/include/chsystypes.h"
 2127              		.file 9 "ChibiOS_3.0.5/os/rt/include/chschd.h"
 2128              		.file 10 "ChibiOS_3.0.5/os/ext/CMSIS/include/core_cm4.h"
 2129              		.file 11 "ChibiOS_3.0.5/os/ext/CMSIS/ST/system_stm32f4xx.h"
 2130              		.file 12 "ChibiOS_3.0.5/os/ext/CMSIS/ST/stm32f407xx.h"
 2131              		.file 13 "ChibiOS_3.0.5/os/rt/ports/ARMCMx/chcore.h"
 2132              		.file 14 "ChibiOS_3.0.5/os/rt/ports/ARMCMx/chcore_v7m.h"
 2133              		.file 15 "ChibiOS_3.0.5/os/rt/include/chtm.h"
 2134              		.file 16 "ChibiOS_3.0.5/os/rt/include/chsem.h"
 2135              		.file 17 "ChibiOS_3.0.5/os/rt/include/chmtx.h"
 2136              		.file 18 "ChibiOS_3.0.5/os/rt/include/chevents.h"
 2137              		.file 19 "ChibiOS_3.0.5/os/rt/include/chqueues.h"
 2138              		.file 20 "./datatypes.h"
 2139              		.file 21 "./conf_general.h"
 2140              		.file 22 "ChibiOS_3.0.5/os/hal/ports/STM32/STM32F4xx/stm32_dma.h"
 2141              		.file 23 "ChibiOS_3.0.5/os/hal/ports/STM32/LLD/GPIOv2/pal_lld.h"
 2142              		.file 24 "ChibiOS_3.0.5/os/hal/include/can.h"
 2143              		.file 25 "ChibiOS_3.0.5/os/hal/ports/STM32/LLD/can_lld.h"
 2144              		.file 26 "ChibiOS_3.0.5/os/hal/include/i2c.h"
 2145              		.file 27 "ChibiOS_3.0.5/os/hal/ports/STM32/LLD/I2Cv1/i2c_lld.h"
ARM GAS  C:\Users\CFAR\AppData\Local\Temp\ccjKwKej.s 			page 39


 2146              		.file 28 "ChibiOS_3.0.5/os/hal/include/icu.h"
 2147              		.file 29 "ChibiOS_3.0.5/os/hal/ports/STM32/LLD/TIMv1/icu_lld.h"
 2148              		.file 30 "ChibiOS_3.0.5/os/hal/ports/STM32/LLD/TIMv1/stm32_tim.h"
 2149              		.file 31 "ChibiOS_3.0.5/os/hal/include/serial.h"
 2150              		.file 32 "ChibiOS_3.0.5/os/hal/ports/STM32/LLD/USARTv1/serial_lld.h"
 2151              		.file 33 "ChibiOS_3.0.5/os/hal/include/spi.h"
 2152              		.file 34 "ChibiOS_3.0.5/os/hal/ports/STM32/LLD/SPIv1/spi_lld.h"
 2153              		.file 35 "ChibiOS_3.0.5/os/hal/include/usb.h"
 2154              		.file 36 "ChibiOS_3.0.5/os/hal/ports/STM32/LLD/OTGv1/usb_lld.h"
 2155              		.file 37 "ChibiOS_3.0.5/os/hal/ports/STM32/LLD/OTGv1/stm32_otg.h"
 2156              		.file 38 "./mc_interface.h"
 2157              		.file 39 "./utils.h"
 2158              		.file 40 "c:\\st\\stm32cubeide_1.3.0\\stm32cubeide\\plugins\\com.st.stm32cube.ide.mcu.externaltool
 2159              		.file 41 "c:\\st\\stm32cubeide_1.3.0\\stm32cubeide\\plugins\\com.st.stm32cube.ide.mcu.externaltool
 2160              		.file 42 "c:\\st\\stm32cubeide_1.3.0\\stm32cubeide\\plugins\\com.st.stm32cube.ide.mcu.externaltool
 2161              		.file 43 "c:\\st\\stm32cubeide_1.3.0\\stm32cubeide\\plugins\\com.st.stm32cube.ide.mcu.externaltool
 2162              		.file 44 "./comm_can.h"
 2163              		.file 45 "./timeout.h"
 2164              		.file 46 "ChibiOS_3.0.5/os/rt/include/chthreads.h"
 2165              		.file 47 "applications/app.h"
 2166              		.file 48 "<built-in>"
