ARM GAS  C:\Users\CFAR\AppData\Local\Temp\ccWSvPNP.s 			page 1


   1              		.cpu cortex-m4
   2              		.eabi_attribute 27, 1
   3              		.eabi_attribute 28, 1
   4              		.eabi_attribute 20, 1
   5              		.eabi_attribute 21, 1
   6              		.eabi_attribute 23, 3
   7              		.eabi_attribute 24, 1
   8              		.eabi_attribute 25, 1
   9              		.eabi_attribute 26, 1
  10              		.eabi_attribute 30, 2
  11              		.eabi_attribute 34, 1
  12              		.eabi_attribute 18, 4
  13              		.file	"can_lld.c"
  14              		.text
  15              	.Ltext0:
  16              		.cfi_sections	.debug_frame
  17              		.section	.text.can_lld_set_filters,"ax",%progbits
  18              		.align	1
  19              		.p2align 4,,15
  20              		.syntax unified
  21              		.thumb
  22              		.thumb_func
  23              		.fpu fpv4-sp-d16
  24              		.type	can_lld_set_filters, %function
  25              	can_lld_set_filters:
  26              	.LFB256:
  27              		.file 1 "ChibiOS_3.0.5/os/hal/ports/STM32/LLD/can_lld.c"
  28              		.loc 1 77 0
  29              		.cfi_startproc
  30              		@ args = 0, pretend = 0, frame = 0
  31              		@ frame_needed = 0, uses_anonymous_args = 0
  32              		@ link register save eliminated.
  33              	.LVL0:
  34 0000 F0B4     		push	{r4, r5, r6, r7}
  35              		.cfi_def_cfa_offset 16
  36              		.cfi_offset 4, -16
  37              		.cfi_offset 5, -12
  38              		.cfi_offset 6, -8
  39              		.cfi_offset 7, -4
  40              		.loc 1 80 0
  41 0002 444D     		ldr	r5, .L22
  42              		.loc 1 83 0
  43 0004 444C     		ldr	r4, .L22+4
  44              		.loc 1 80 0
  45 0006 2B6C     		ldr	r3, [r5, #64]
  46 0008 43F00073 		orr	r3, r3, #33554432
  47 000c 2B64     		str	r3, [r5, #64]
  48              		.loc 1 83 0
  49 000e D4F80032 		ldr	r3, [r4, #512]
  50 0012 1B0C     		lsrs	r3, r3, #16
  51 0014 1B04     		lsls	r3, r3, #16
  52 0016 43F00103 		orr	r3, r3, #1
  53 001a 43EA0023 		orr	r3, r3, r0, lsl #8
  54 001e C4F80032 		str	r3, [r4, #512]
  55              		.loc 1 84 0
  56 0022 0029     		cmp	r1, #0
  57 0024 5BD0     		beq	.L2
ARM GAS  C:\Users\CFAR\AppData\Local\Temp\ccWSvPNP.s 			page 2


  58              	.LBB266:
  59              		.loc 1 88 0
  60 0026 0023     		movs	r3, #0
  61 0028 C4F81C32 		str	r3, [r4, #540]
  62              		.loc 1 92 0
  63 002c 1846     		mov	r0, r3
  64              	.LVL1:
  65              		.loc 1 89 0
  66 002e C4F80432 		str	r3, [r4, #516]
  67              		.loc 1 90 0
  68 0032 C4F80C32 		str	r3, [r4, #524]
  69              		.loc 1 91 0
  70 0036 C4F81432 		str	r3, [r4, #532]
  71              	.LVL2:
  72              		.loc 1 93 0
  73 003a 1C46     		mov	r4, r3
  74              	.LVL3:
  75              	.L3:
  76 003c C300     		lsls	r3, r0, #3
  77 003e 03F18043 		add	r3, r3, #1073741824
  78 0042 03F5C843 		add	r3, r3, #25600
  79              		.loc 1 92 0 discriminator 3
  80 0046 0130     		adds	r0, r0, #1
  81              	.LVL4:
  82 0048 1C28     		cmp	r0, #28
  83              		.loc 1 93 0 discriminator 3
  84 004a C3F84042 		str	r4, [r3, #576]
  85              		.loc 1 94 0 discriminator 3
  86 004e C3F84442 		str	r4, [r3, #580]
  87              		.loc 1 92 0 discriminator 3
  88 0052 F3D1     		bne	.L3
  89              		.loc 1 101 0
  90 0054 304D     		ldr	r5, .L22+4
  91              		.loc 1 98 0
  92 0056 0026     		movs	r6, #0
  93              		.loc 1 99 0
  94 0058 0127     		movs	r7, #1
  95              	.LVL5:
  96              	.L7:
  97 005a 1068     		ldr	r0, [r2]
  98              		.loc 1 100 0
  99 005c 1479     		ldrb	r4, [r2, #4]	@ zero_extendqisi2
 100 005e C300     		lsls	r3, r0, #3
 101 0060 03F18043 		add	r3, r3, #1073741824
 102 0064 14F0010F 		tst	r4, #1
 103 0068 03F5C843 		add	r3, r3, #25600
 104              		.loc 1 98 0
 105 006c 06F10106 		add	r6, r6, #1
 106              	.LVL6:
 107              		.loc 1 99 0
 108 0070 07FA00F0 		lsl	r0, r7, r0
 109              	.LVL7:
 110              		.loc 1 100 0
 111 0074 05D0     		beq	.L4
 112              		.loc 1 101 0
 113 0076 D5F804C2 		ldr	ip, [r5, #516]
 114 007a 4CEA000C 		orr	ip, ip, r0
ARM GAS  C:\Users\CFAR\AppData\Local\Temp\ccWSvPNP.s 			page 3


 115 007e C5F804C2 		str	ip, [r5, #516]
 116              	.L4:
 117              		.loc 1 102 0
 118 0082 14F0020F 		tst	r4, #2
 119 0086 05D0     		beq	.L5
 120              		.loc 1 103 0
 121 0088 D5F80CC2 		ldr	ip, [r5, #524]
 122 008c 4CEA000C 		orr	ip, ip, r0
 123 0090 C5F80CC2 		str	ip, [r5, #524]
 124              	.L5:
 125              		.loc 1 104 0
 126 0094 6407     		lsls	r4, r4, #29
 127 0096 04D5     		bpl	.L6
 128              		.loc 1 105 0
 129 0098 D5F81442 		ldr	r4, [r5, #532]
 130 009c 0443     		orrs	r4, r4, r0
 131 009e C5F81442 		str	r4, [r5, #532]
 132              	.L6:
 133              		.loc 1 106 0 discriminator 2
 134 00a2 9468     		ldr	r4, [r2, #8]
 135 00a4 C3F84042 		str	r4, [r3, #576]
 136              		.loc 1 107 0 discriminator 2
 137 00a8 D468     		ldr	r4, [r2, #12]
 138 00aa C3F84442 		str	r4, [r3, #580]
 139              		.loc 1 108 0 discriminator 2
 140 00ae D5F81C32 		ldr	r3, [r5, #540]
 141              		.loc 1 98 0 discriminator 2
 142 00b2 B142     		cmp	r1, r6
 143              		.loc 1 108 0 discriminator 2
 144 00b4 40EA0300 		orr	r0, r0, r3
 145              	.LVL8:
 146              		.loc 1 109 0 discriminator 2
 147 00b8 02F11002 		add	r2, r2, #16
 148              	.LVL9:
 149              		.loc 1 108 0 discriminator 2
 150 00bc C5F81C02 		str	r0, [r5, #540]
 151              		.loc 1 98 0 discriminator 2
 152 00c0 CBD1     		bne	.L7
 153              	.LVL10:
 154              	.L8:
 155              	.LBE266:
 156              		.loc 1 131 0
 157 00c2 1549     		ldr	r1, .L22+4
 158              	.LVL11:
 159              		.loc 1 134 0
 160 00c4 134A     		ldr	r2, .L22
 161              		.loc 1 131 0
 162 00c6 D1F80032 		ldr	r3, [r1, #512]
 163 00ca 23F00103 		bic	r3, r3, #1
 164 00ce C1F80032 		str	r3, [r1, #512]
 165              		.loc 1 134 0
 166 00d2 136C     		ldr	r3, [r2, #64]
 167 00d4 23F00073 		bic	r3, r3, #33554432
 168 00d8 1364     		str	r3, [r2, #64]
 169              		.loc 1 135 0
 170 00da F0BC     		pop	{r4, r5, r6, r7}
 171              		.cfi_remember_state
ARM GAS  C:\Users\CFAR\AppData\Local\Temp\ccWSvPNP.s 			page 4


 172              		.cfi_restore 7
 173              		.cfi_restore 6
 174              		.cfi_restore 5
 175              		.cfi_restore 4
 176              		.cfi_def_cfa_offset 0
 177 00dc 7047     		bx	lr
 178              	.LVL12:
 179              	.L2:
 180              		.cfi_restore_state
 181 00de C200     		lsls	r2, r0, #3
 182              	.LVL13:
 183 00e0 02F18042 		add	r2, r2, #1073741824
 184              		.loc 1 124 0
 185 00e4 0123     		movs	r3, #1
 186 00e6 02F5C842 		add	r2, r2, #25600
 187 00ea 8340     		lsls	r3, r3, r0
 188 00ec 43F00103 		orr	r3, r3, #1
 189              		.loc 1 115 0
 190 00f0 C4F84012 		str	r1, [r4, #576]
 191              		.loc 1 116 0
 192 00f4 C4F84412 		str	r1, [r4, #580]
 193              		.loc 1 118 0
 194 00f8 C2F84012 		str	r1, [r2, #576]
 195              		.loc 1 119 0
 196 00fc C2F84412 		str	r1, [r2, #580]
 197              		.loc 1 121 0
 198 0100 C4F80412 		str	r1, [r4, #516]
 199              		.loc 1 122 0
 200 0104 C4F81412 		str	r1, [r4, #532]
 201              		.loc 1 124 0
 202 0108 C4F80C32 		str	r3, [r4, #524]
 203              		.loc 1 125 0
 204 010c C4F81C32 		str	r3, [r4, #540]
 205 0110 D7E7     		b	.L8
 206              	.L23:
 207 0112 00BF     		.align	2
 208              	.L22:
 209 0114 00380240 		.word	1073887232
 210 0118 00640040 		.word	1073767424
 211              		.cfi_endproc
 212              	.LFE256:
 213              		.size	can_lld_set_filters, .-can_lld_set_filters
 214              		.section	.text.Vector8C,"ax",%progbits
 215              		.align	1
 216              		.p2align 4,,15
 217              		.global	Vector8C
 218              		.syntax unified
 219              		.thumb
 220              		.thumb_func
 221              		.fpu fpv4-sp-d16
 222              		.type	Vector8C, %function
 223              	Vector8C:
 224              	.LFB261:
 225              		.loc 1 330 0
 226              		.cfi_startproc
 227              		@ args = 0, pretend = 0, frame = 0
 228              		@ frame_needed = 0, uses_anonymous_args = 0
ARM GAS  C:\Users\CFAR\AppData\Local\Temp\ccWSvPNP.s 			page 5


 229              	.LVL14:
 230              	.LBB285:
 231              	.LBB286:
 232              		.loc 1 149 0
 233 0000 164B     		ldr	r3, .L39
 234 0002 DA6A     		ldr	r2, [r3, #44]
 235 0004 9368     		ldr	r3, [r2, #8]
 236              	.LVL15:
 237              	.LBE286:
 238              	.LBE285:
 239              		.loc 1 330 0
 240 0006 10B5     		push	{r4, lr}
 241              		.cfi_def_cfa_offset 8
 242              		.cfi_offset 4, -8
 243              		.cfi_offset 14, -4
 244              	.LBB304:
 245              	.LBB303:
 246              		.loc 1 156 0
 247 0008 13F00104 		ands	r4, r3, #1
 248              		.loc 1 150 0
 249 000c 9360     		str	r3, [r2, #8]
 250              	.LVL16:
 251              		.loc 1 156 0
 252 000e 05D0     		beq	.L25
 253              		.loc 1 161 0
 254 0010 13F00C0F 		tst	r3, #12
 255 0014 14BF     		ite	ne
 256 0016 4FF48034 		movne	r4, #65536
 257 001a 0124     		moveq	r4, #1
 258              	.L25:
 259              	.LVL17:
 260              		.loc 1 166 0
 261 001c D905     		lsls	r1, r3, #23
 262 001e 06D5     		bpl	.L26
 263              		.loc 1 167 0
 264 0020 13F4406F 		tst	r3, #3072
 265              		.loc 1 168 0
 266 0024 14BF     		ite	ne
 267 0026 44F40034 		orrne	r4, r4, #131072
 268              	.LVL18:
 269              		.loc 1 171 0
 270 002a 44F00204 		orreq	r4, r4, #2
 271              	.LVL19:
 272              	.L26:
 273              		.loc 1 176 0
 274 002e DA03     		lsls	r2, r3, #15
 275 0030 06D5     		bpl	.L28
 276              		.loc 1 177 0
 277 0032 13F4402F 		tst	r3, #786432
 278              		.loc 1 178 0
 279 0036 14BF     		ite	ne
 280 0038 44F48024 		orrne	r4, r4, #262144
 281              	.LVL20:
 282              		.loc 1 181 0
 283 003c 44F00404 		orreq	r4, r4, #4
 284              	.LVL21:
 285              	.L28:
ARM GAS  C:\Users\CFAR\AppData\Local\Temp\ccWSvPNP.s 			page 6


 286              	.LBB287:
 287              	.LBB288:
 288              	.LBB289:
 289              	.LBB290:
 290              	.LBB291:
 291              	.LBB292:
 292              		.file 2 "ChibiOS_3.0.5/os/ext/CMSIS/include/core_cmFunc.h"
 293              		.loc 2 342 0
 294              		.syntax unified
 295              	@ 342 "ChibiOS_3.0.5/os/ext/CMSIS/include/core_cmFunc.h" 1
 296 0040 72B6     		cpsid i
 297              	@ 0 "" 2
 298              	.LVL22:
 299              		.thumb
 300              		.syntax unified
 301              	.LBE292:
 302              	.LBE291:
 303              	.LBE290:
 304              	.LBE289:
 305              	.LBE288:
 306              	.LBE287:
 307              	.LBB293:
 308              	.LBB294:
 309              		.file 3 "ChibiOS_3.0.5/os/hal/osal/rt/osal.h"
 310              		.loc 3 810 0
 311 0042 0021     		movs	r1, #0
 312 0044 0648     		ldr	r0, .L39+4
 313 0046 FFF7FEFF 		bl	chThdDequeueAllI
 314              	.LVL23:
 315              	.LBE294:
 316              	.LBE293:
 317              	.LBB295:
 318              	.LBB296:
 319              		.loc 3 844 0
 320 004a 2146     		mov	r1, r4
 321 004c 0548     		ldr	r0, .L39+8
 322 004e FFF7FEFF 		bl	chEvtBroadcastFlagsI
 323              	.LVL24:
 324              	.LBE296:
 325              	.LBE295:
 326              	.LBB297:
 327              	.LBB298:
 328              	.LBB299:
 329              	.LBB300:
 330              	.LBB301:
 331              	.LBB302:
 332              		.loc 2 331 0
 333              		.syntax unified
 334              	@ 331 "ChibiOS_3.0.5/os/ext/CMSIS/include/core_cmFunc.h" 1
 335 0052 62B6     		cpsie i
 336              	@ 0 "" 2
 337              	.LVL25:
 338              		.thumb
 339              		.syntax unified
 340              	.LBE302:
 341              	.LBE301:
 342              	.LBE300:
ARM GAS  C:\Users\CFAR\AppData\Local\Temp\ccWSvPNP.s 			page 7


 343              	.LBE299:
 344              	.LBE298:
 345              	.LBE297:
 346              	.LBE303:
 347              	.LBE304:
 348              		.loc 1 337 0
 349 0054 BDE81040 		pop	{r4, lr}
 350              		.cfi_restore 14
 351              		.cfi_restore 4
 352              		.cfi_def_cfa_offset 0
 353              		.loc 1 336 0
 354 0058 FFF7FEBF 		b	_port_irq_epilogue
 355              	.LVL26:
 356              	.L40:
 357              		.align	2
 358              	.L39:
 359 005c 00000000 		.word	.LANCHOR0
 360 0060 08000000 		.word	.LANCHOR0+8
 361 0064 1C000000 		.word	.LANCHOR0+28
 362              		.cfi_endproc
 363              	.LFE261:
 364              		.size	Vector8C, .-Vector8C
 365              		.section	.text.Vector90,"ax",%progbits
 366              		.align	1
 367              		.p2align 4,,15
 368              		.global	Vector90
 369              		.syntax unified
 370              		.thumb
 371              		.thumb_func
 372              		.fpu fpv4-sp-d16
 373              		.type	Vector90, %function
 374              	Vector90:
 375              	.LFB262:
 376              		.loc 1 344 0
 377              		.cfi_startproc
 378              		@ args = 0, pretend = 0, frame = 0
 379              		@ frame_needed = 0, uses_anonymous_args = 0
 380              	.LVL27:
 381 0000 38B5     		push	{r3, r4, r5, lr}
 382              		.cfi_def_cfa_offset 16
 383              		.cfi_offset 3, -16
 384              		.cfi_offset 4, -12
 385              		.cfi_offset 5, -8
 386              		.cfi_offset 14, -4
 387              	.LBB337:
 388              	.LBB338:
 389              		.loc 1 202 0
 390 0002 124C     		ldr	r4, .L52
 391 0004 E36A     		ldr	r3, [r4, #44]
 392 0006 DD68     		ldr	r5, [r3, #12]
 393              	.LVL28:
 394              		.loc 1 203 0
 395 0008 AA07     		lsls	r2, r5, #30
 396 000a 0DD1     		bne	.L51
 397              	.L42:
 398              		.loc 1 211 0
 399 000c EB06     		lsls	r3, r5, #27
ARM GAS  C:\Users\CFAR\AppData\Local\Temp\ccWSvPNP.s 			page 8


 400 000e 07D5     		bpl	.L43
 401              		.loc 1 213 0
 402 0010 E36A     		ldr	r3, [r4, #44]
 403 0012 1021     		movs	r1, #16
 404 0014 D960     		str	r1, [r3, #12]
 405              	.LBB339:
 406              	.LBB340:
 407              	.LBB341:
 408              	.LBB342:
 409              	.LBB343:
 410              	.LBB344:
 411              		.loc 2 342 0
 412              		.syntax unified
 413              	@ 342 "ChibiOS_3.0.5/os/ext/CMSIS/include/core_cmFunc.h" 1
 414 0016 72B6     		cpsid i
 415              	@ 0 "" 2
 416              	.LVL29:
 417              		.thumb
 418              		.syntax unified
 419              	.LBE344:
 420              	.LBE343:
 421              	.LBE342:
 422              	.LBE341:
 423              	.LBE340:
 424              	.LBE339:
 425              	.LBB345:
 426              	.LBB346:
 427              		.loc 3 844 0
 428 0018 0D48     		ldr	r0, .L52+4
 429 001a FFF7FEFF 		bl	chEvtBroadcastFlagsI
 430              	.LVL30:
 431              	.LBE346:
 432              	.LBE345:
 433              	.LBB347:
 434              	.LBB348:
 435              	.LBB349:
 436              	.LBB350:
 437              	.LBB351:
 438              	.LBB352:
 439              		.loc 2 331 0
 440              		.syntax unified
 441              	@ 331 "ChibiOS_3.0.5/os/ext/CMSIS/include/core_cmFunc.h" 1
 442 001e 62B6     		cpsie i
 443              	@ 0 "" 2
 444              		.thumb
 445              		.syntax unified
 446              	.L43:
 447              	.LVL31:
 448              	.LBE352:
 449              	.LBE351:
 450              	.LBE350:
 451              	.LBE349:
 452              	.LBE348:
 453              	.LBE347:
 454              	.LBE338:
 455              	.LBE337:
 456              		.loc 1 351 0
ARM GAS  C:\Users\CFAR\AppData\Local\Temp\ccWSvPNP.s 			page 9


 457 0020 BDE83840 		pop	{r3, r4, r5, lr}
 458              		.cfi_remember_state
 459              		.cfi_restore 14
 460              		.cfi_restore 5
 461              		.cfi_restore 4
 462              		.cfi_restore 3
 463              		.cfi_def_cfa_offset 0
 464              		.loc 1 350 0
 465 0024 FFF7FEBF 		b	_port_irq_epilogue
 466              	.LVL32:
 467              	.L51:
 468              		.cfi_restore_state
 469              	.LBB370:
 470              	.LBB369:
 471              		.loc 1 205 0
 472 0028 5A69     		ldr	r2, [r3, #20]
 473 002a 22F00202 		bic	r2, r2, #2
 474 002e 5A61     		str	r2, [r3, #20]
 475              	.LBB353:
 476              	.LBB354:
 477              	.LBB355:
 478              	.LBB356:
 479              	.LBB357:
 480              	.LBB358:
 481              		.loc 2 342 0
 482              		.syntax unified
 483              	@ 342 "ChibiOS_3.0.5/os/ext/CMSIS/include/core_cmFunc.h" 1
 484 0030 72B6     		cpsid i
 485              	@ 0 "" 2
 486              	.LVL33:
 487              		.thumb
 488              		.syntax unified
 489              	.LBE358:
 490              	.LBE357:
 491              	.LBE356:
 492              	.LBE355:
 493              	.LBE354:
 494              	.LBE353:
 495              	.LBB359:
 496              	.LBB360:
 497              		.loc 3 810 0
 498 0032 0021     		movs	r1, #0
 499 0034 04F11000 		add	r0, r4, #16
 500 0038 FFF7FEFF 		bl	chThdDequeueAllI
 501              	.LVL34:
 502              	.LBE360:
 503              	.LBE359:
 504              	.LBB361:
 505              	.LBB362:
 506              		.loc 3 844 0
 507 003c 04F11800 		add	r0, r4, #24
 508 0040 0121     		movs	r1, #1
 509 0042 FFF7FEFF 		bl	chEvtBroadcastFlagsI
 510              	.LVL35:
 511              	.LBE362:
 512              	.LBE361:
 513              	.LBB363:
ARM GAS  C:\Users\CFAR\AppData\Local\Temp\ccWSvPNP.s 			page 10


 514              	.LBB364:
 515              	.LBB365:
 516              	.LBB366:
 517              	.LBB367:
 518              	.LBB368:
 519              		.loc 2 331 0
 520              		.syntax unified
 521              	@ 331 "ChibiOS_3.0.5/os/ext/CMSIS/include/core_cmFunc.h" 1
 522 0046 62B6     		cpsie i
 523              	@ 0 "" 2
 524              		.thumb
 525              		.syntax unified
 526 0048 E0E7     		b	.L42
 527              	.L53:
 528 004a 00BF     		.align	2
 529              	.L52:
 530 004c 00000000 		.word	.LANCHOR0
 531 0050 20000000 		.word	.LANCHOR0+32
 532              	.LBE368:
 533              	.LBE367:
 534              	.LBE366:
 535              	.LBE365:
 536              	.LBE364:
 537              	.LBE363:
 538              	.LBE369:
 539              	.LBE370:
 540              		.cfi_endproc
 541              	.LFE262:
 542              		.size	Vector90, .-Vector90
 543              		.section	.text.Vector94,"ax",%progbits
 544              		.align	1
 545              		.p2align 4,,15
 546              		.global	Vector94
 547              		.syntax unified
 548              		.thumb
 549              		.thumb_func
 550              		.fpu fpv4-sp-d16
 551              		.type	Vector94, %function
 552              	Vector94:
 553              	.LFB263:
 554              		.loc 1 358 0
 555              		.cfi_startproc
 556              		@ args = 0, pretend = 0, frame = 0
 557              		@ frame_needed = 0, uses_anonymous_args = 0
 558              	.LVL36:
 559 0000 38B5     		push	{r3, r4, r5, lr}
 560              		.cfi_def_cfa_offset 16
 561              		.cfi_offset 3, -16
 562              		.cfi_offset 4, -12
 563              		.cfi_offset 5, -8
 564              		.cfi_offset 14, -4
 565              	.LBB403:
 566              	.LBB404:
 567              		.loc 1 230 0
 568 0002 124C     		ldr	r4, .L65
 569 0004 E36A     		ldr	r3, [r4, #44]
 570 0006 1D69     		ldr	r5, [r3, #16]
ARM GAS  C:\Users\CFAR\AppData\Local\Temp\ccWSvPNP.s 			page 11


 571              	.LVL37:
 572              		.loc 1 231 0
 573 0008 AA07     		lsls	r2, r5, #30
 574 000a 0DD1     		bne	.L64
 575              	.L55:
 576              		.loc 1 239 0
 577 000c EB06     		lsls	r3, r5, #27
 578 000e 07D5     		bpl	.L56
 579              		.loc 1 241 0
 580 0010 E36A     		ldr	r3, [r4, #44]
 581 0012 1021     		movs	r1, #16
 582 0014 1961     		str	r1, [r3, #16]
 583              	.LBB405:
 584              	.LBB406:
 585              	.LBB407:
 586              	.LBB408:
 587              	.LBB409:
 588              	.LBB410:
 589              		.loc 2 342 0
 590              		.syntax unified
 591              	@ 342 "ChibiOS_3.0.5/os/ext/CMSIS/include/core_cmFunc.h" 1
 592 0016 72B6     		cpsid i
 593              	@ 0 "" 2
 594              	.LVL38:
 595              		.thumb
 596              		.syntax unified
 597              	.LBE410:
 598              	.LBE409:
 599              	.LBE408:
 600              	.LBE407:
 601              	.LBE406:
 602              	.LBE405:
 603              	.LBB411:
 604              	.LBB412:
 605              		.loc 3 844 0
 606 0018 0D48     		ldr	r0, .L65+4
 607 001a FFF7FEFF 		bl	chEvtBroadcastFlagsI
 608              	.LVL39:
 609              	.LBE412:
 610              	.LBE411:
 611              	.LBB413:
 612              	.LBB414:
 613              	.LBB415:
 614              	.LBB416:
 615              	.LBB417:
 616              	.LBB418:
 617              		.loc 2 331 0
 618              		.syntax unified
 619              	@ 331 "ChibiOS_3.0.5/os/ext/CMSIS/include/core_cmFunc.h" 1
 620 001e 62B6     		cpsie i
 621              	@ 0 "" 2
 622              		.thumb
 623              		.syntax unified
 624              	.L56:
 625              	.LVL40:
 626              	.LBE418:
 627              	.LBE417:
ARM GAS  C:\Users\CFAR\AppData\Local\Temp\ccWSvPNP.s 			page 12


 628              	.LBE416:
 629              	.LBE415:
 630              	.LBE414:
 631              	.LBE413:
 632              	.LBE404:
 633              	.LBE403:
 634              		.loc 1 365 0
 635 0020 BDE83840 		pop	{r3, r4, r5, lr}
 636              		.cfi_remember_state
 637              		.cfi_restore 14
 638              		.cfi_restore 5
 639              		.cfi_restore 4
 640              		.cfi_restore 3
 641              		.cfi_def_cfa_offset 0
 642              		.loc 1 364 0
 643 0024 FFF7FEBF 		b	_port_irq_epilogue
 644              	.LVL41:
 645              	.L64:
 646              		.cfi_restore_state
 647              	.LBB436:
 648              	.LBB435:
 649              		.loc 1 233 0
 650 0028 5A69     		ldr	r2, [r3, #20]
 651 002a 22F01002 		bic	r2, r2, #16
 652 002e 5A61     		str	r2, [r3, #20]
 653              	.LBB419:
 654              	.LBB420:
 655              	.LBB421:
 656              	.LBB422:
 657              	.LBB423:
 658              	.LBB424:
 659              		.loc 2 342 0
 660              		.syntax unified
 661              	@ 342 "ChibiOS_3.0.5/os/ext/CMSIS/include/core_cmFunc.h" 1
 662 0030 72B6     		cpsid i
 663              	@ 0 "" 2
 664              	.LVL42:
 665              		.thumb
 666              		.syntax unified
 667              	.LBE424:
 668              	.LBE423:
 669              	.LBE422:
 670              	.LBE421:
 671              	.LBE420:
 672              	.LBE419:
 673              	.LBB425:
 674              	.LBB426:
 675              		.loc 3 810 0
 676 0032 0021     		movs	r1, #0
 677 0034 04F11000 		add	r0, r4, #16
 678 0038 FFF7FEFF 		bl	chThdDequeueAllI
 679              	.LVL43:
 680              	.LBE426:
 681              	.LBE425:
 682              	.LBB427:
 683              	.LBB428:
 684              		.loc 3 844 0
ARM GAS  C:\Users\CFAR\AppData\Local\Temp\ccWSvPNP.s 			page 13


 685 003c 04F11800 		add	r0, r4, #24
 686 0040 0221     		movs	r1, #2
 687 0042 FFF7FEFF 		bl	chEvtBroadcastFlagsI
 688              	.LVL44:
 689              	.LBE428:
 690              	.LBE427:
 691              	.LBB429:
 692              	.LBB430:
 693              	.LBB431:
 694              	.LBB432:
 695              	.LBB433:
 696              	.LBB434:
 697              		.loc 2 331 0
 698              		.syntax unified
 699              	@ 331 "ChibiOS_3.0.5/os/ext/CMSIS/include/core_cmFunc.h" 1
 700 0046 62B6     		cpsie i
 701              	@ 0 "" 2
 702              		.thumb
 703              		.syntax unified
 704 0048 E0E7     		b	.L55
 705              	.L66:
 706 004a 00BF     		.align	2
 707              	.L65:
 708 004c 00000000 		.word	.LANCHOR0
 709 0050 20000000 		.word	.LANCHOR0+32
 710              	.LBE434:
 711              	.LBE433:
 712              	.LBE432:
 713              	.LBE431:
 714              	.LBE430:
 715              	.LBE429:
 716              	.LBE435:
 717              	.LBE436:
 718              		.cfi_endproc
 719              	.LFE263:
 720              		.size	Vector94, .-Vector94
 721              		.section	.text.Vector98,"ax",%progbits
 722              		.align	1
 723              		.p2align 4,,15
 724              		.global	Vector98
 725              		.syntax unified
 726              		.thumb
 727              		.thumb_func
 728              		.fpu fpv4-sp-d16
 729              		.type	Vector98, %function
 730              	Vector98:
 731              	.LFB264:
 732              		.loc 1 372 0
 733              		.cfi_startproc
 734              		@ args = 0, pretend = 0, frame = 0
 735              		@ frame_needed = 0, uses_anonymous_args = 0
 736              	.LVL45:
 737 0000 38B5     		push	{r3, r4, r5, lr}
 738              		.cfi_def_cfa_offset 16
 739              		.cfi_offset 3, -16
 740              		.cfi_offset 4, -12
 741              		.cfi_offset 5, -8
ARM GAS  C:\Users\CFAR\AppData\Local\Temp\ccWSvPNP.s 			page 14


 742              		.cfi_offset 14, -4
 743              	.LBB468:
 744              	.LBB469:
 745              		.loc 1 258 0
 746 0002 174D     		ldr	r5, .L82
 747 0004 EB6A     		ldr	r3, [r5, #44]
 748 0006 5C68     		ldr	r4, [r3, #4]
 749              	.LVL46:
 750              		.loc 1 259 0
 751 0008 1C22     		movs	r2, #28
 752 000a 5A60     		str	r2, [r3, #4]
 753              		.loc 1 262 0
 754 000c 2207     		lsls	r2, r4, #28
 755 000e 19D4     		bmi	.L81
 756              	.L68:
 757              		.loc 1 271 0
 758 0010 6307     		lsls	r3, r4, #29
 759 0012 13D5     		bpl	.L69
 760              	.LBB470:
 761              		.loc 1 273 0
 762 0014 EA6A     		ldr	r2, [r5, #44]
 763 0016 9369     		ldr	r3, [r2, #24]
 764              	.LVL47:
 765              		.loc 1 275 0
 766 0018 9169     		ldr	r1, [r2, #24]
 767 001a 21F07001 		bic	r1, r1, #112
 768 001e 9161     		str	r1, [r2, #24]
 769              		.loc 1 277 0
 770 0020 13F0700F 		tst	r3, #112
 771              		.loc 1 276 0
 772 0024 03F00701 		and	r1, r3, #7
 773              	.LVL48:
 774              		.loc 1 278 0
 775 0028 18BF     		it	ne
 776 002a 41F00801 		orrne	r1, r1, #8
 777              	.LVL49:
 778              	.LBB471:
 779              	.LBB472:
 780              	.LBB473:
 781              	.LBB474:
 782              	.LBB475:
 783              	.LBB476:
 784              		.loc 2 342 0
 785              		.syntax unified
 786              	@ 342 "ChibiOS_3.0.5/os/ext/CMSIS/include/core_cmFunc.h" 1
 787 002e 72B6     		cpsid i
 788              	@ 0 "" 2
 789              	.LVL50:
 790              		.thumb
 791              		.syntax unified
 792              	.LBE476:
 793              	.LBE475:
 794              	.LBE474:
 795              	.LBE473:
 796              	.LBE472:
 797              	.LBE471:
 798              	.LBB477:
ARM GAS  C:\Users\CFAR\AppData\Local\Temp\ccWSvPNP.s 			page 15


 799              	.LBB478:
 800              		.loc 3 844 0
 801 0030 0C48     		ldr	r0, .L82+4
 802 0032 41EA0341 		orr	r1, r1, r3, lsl #16
 803              	.LVL51:
 804 0036 FFF7FEFF 		bl	chEvtBroadcastFlagsI
 805              	.LVL52:
 806              	.LBE478:
 807              	.LBE477:
 808              	.LBB479:
 809              	.LBB480:
 810              	.LBB481:
 811              	.LBB482:
 812              	.LBB483:
 813              	.LBB484:
 814              		.loc 2 331 0
 815              		.syntax unified
 816              	@ 331 "ChibiOS_3.0.5/os/ext/CMSIS/include/core_cmFunc.h" 1
 817 003a 62B6     		cpsie i
 818              	@ 0 "" 2
 819              		.thumb
 820              		.syntax unified
 821              	.L69:
 822              	.LVL53:
 823              	.LBE484:
 824              	.LBE483:
 825              	.LBE482:
 826              	.LBE481:
 827              	.LBE480:
 828              	.LBE479:
 829              	.LBE470:
 830              	.LBE469:
 831              	.LBE468:
 832              		.loc 1 379 0
 833 003c BDE83840 		pop	{r3, r4, r5, lr}
 834              		.cfi_remember_state
 835              		.cfi_restore 14
 836              		.cfi_restore 5
 837              		.cfi_restore 4
 838              		.cfi_restore 3
 839              		.cfi_def_cfa_offset 0
 840              		.loc 1 378 0
 841 0040 FFF7FEBF 		b	_port_irq_epilogue
 842              	.LVL54:
 843              	.L81:
 844              		.cfi_restore_state
 845              	.LBB500:
 846              	.LBB499:
 847              		.loc 1 264 0
 848 0044 1A68     		ldr	r2, [r3]
 849              		.loc 1 263 0
 850 0046 2846     		mov	r0, r5
 851              		.loc 1 264 0
 852 0048 22F00202 		bic	r2, r2, #2
 853              		.loc 1 263 0
 854 004c 0321     		movs	r1, #3
 855 004e 00F8281B 		strb	r1, [r0], #40
ARM GAS  C:\Users\CFAR\AppData\Local\Temp\ccWSvPNP.s 			page 16


 856              		.loc 1 264 0
 857 0052 1A60     		str	r2, [r3]
 858              	.LBB485:
 859              	.LBB486:
 860              	.LBB487:
 861              	.LBB488:
 862              	.LBB489:
 863              	.LBB490:
 864              		.loc 2 342 0
 865              		.syntax unified
 866              	@ 342 "ChibiOS_3.0.5/os/ext/CMSIS/include/core_cmFunc.h" 1
 867 0054 72B6     		cpsid i
 868              	@ 0 "" 2
 869              	.LVL55:
 870              		.thumb
 871              		.syntax unified
 872              	.LBE490:
 873              	.LBE489:
 874              	.LBE488:
 875              	.LBE487:
 876              	.LBE486:
 877              	.LBE485:
 878              	.LBB491:
 879              	.LBB492:
 880              		.loc 3 844 0
 881 0056 0021     		movs	r1, #0
 882 0058 FFF7FEFF 		bl	chEvtBroadcastFlagsI
 883              	.LVL56:
 884              	.LBE492:
 885              	.LBE491:
 886              	.LBB493:
 887              	.LBB494:
 888              	.LBB495:
 889              	.LBB496:
 890              	.LBB497:
 891              	.LBB498:
 892              		.loc 2 331 0
 893              		.syntax unified
 894              	@ 331 "ChibiOS_3.0.5/os/ext/CMSIS/include/core_cmFunc.h" 1
 895 005c 62B6     		cpsie i
 896              	@ 0 "" 2
 897              		.thumb
 898              		.syntax unified
 899 005e D7E7     		b	.L68
 900              	.L83:
 901              		.align	2
 902              	.L82:
 903 0060 00000000 		.word	.LANCHOR0
 904 0064 20000000 		.word	.LANCHOR0+32
 905              	.LBE498:
 906              	.LBE497:
 907              	.LBE496:
 908              	.LBE495:
 909              	.LBE494:
 910              	.LBE493:
 911              	.LBE499:
 912              	.LBE500:
ARM GAS  C:\Users\CFAR\AppData\Local\Temp\ccWSvPNP.s 			page 17


 913              		.cfi_endproc
 914              	.LFE264:
 915              		.size	Vector98, .-Vector98
 916              		.section	.text.can_lld_init,"ax",%progbits
 917              		.align	1
 918              		.p2align 4,,15
 919              		.global	can_lld_init
 920              		.syntax unified
 921              		.thumb
 922              		.thumb_func
 923              		.fpu fpv4-sp-d16
 924              		.type	can_lld_init, %function
 925              	can_lld_init:
 926              	.LFB265:
 927              		.loc 1 483 0
 928              		.cfi_startproc
 929              		@ args = 0, pretend = 0, frame = 0
 930              		@ frame_needed = 0, uses_anonymous_args = 0
 931 0000 10B5     		push	{r4, lr}
 932              		.cfi_def_cfa_offset 8
 933              		.cfi_offset 4, -8
 934              		.cfi_offset 14, -4
 935              		.loc 1 487 0
 936 0002 064C     		ldr	r4, .L86
 937 0004 2046     		mov	r0, r4
 938 0006 FFF7FEFF 		bl	canObjectInit
 939              	.LVL57:
 940              		.loc 1 498 0
 941 000a 0022     		movs	r2, #0
 942              		.loc 1 488 0
 943 000c 044B     		ldr	r3, .L86+4
 944 000e E362     		str	r3, [r4, #44]
 945              		.loc 1 498 0
 946 0010 1146     		mov	r1, r2
 947 0012 0E20     		movs	r0, #14
 948              		.loc 1 502 0
 949 0014 BDE81040 		pop	{r4, lr}
 950              		.cfi_restore 14
 951              		.cfi_restore 4
 952              		.cfi_def_cfa_offset 0
 953              		.loc 1 498 0
 954 0018 FFF7FEBF 		b	can_lld_set_filters
 955              	.LVL58:
 956              	.L87:
 957              		.align	2
 958              	.L86:
 959 001c 00000000 		.word	.LANCHOR0
 960 0020 00640040 		.word	1073767424
 961              		.cfi_endproc
 962              	.LFE265:
 963              		.size	can_lld_init, .-can_lld_init
 964              		.section	.text.can_lld_start,"ax",%progbits
 965              		.align	1
 966              		.p2align 4,,15
 967              		.global	can_lld_start
 968              		.syntax unified
 969              		.thumb
ARM GAS  C:\Users\CFAR\AppData\Local\Temp\ccWSvPNP.s 			page 18


 970              		.thumb_func
 971              		.fpu fpv4-sp-d16
 972              		.type	can_lld_start, %function
 973              	can_lld_start:
 974              	.LFB266:
 975              		.loc 1 511 0
 976              		.cfi_startproc
 977              		@ args = 0, pretend = 0, frame = 0
 978              		@ frame_needed = 0, uses_anonymous_args = 0
 979              	.LVL59:
 980              		.loc 1 515 0
 981 0000 184B     		ldr	r3, .L96
 982 0002 9842     		cmp	r0, r3
 983              		.loc 1 511 0
 984 0004 10B5     		push	{r4, lr}
 985              		.cfi_def_cfa_offset 8
 986              		.cfi_offset 4, -8
 987              		.cfi_offset 14, -4
 988              		.loc 1 511 0
 989 0006 0446     		mov	r4, r0
 990              		.loc 1 515 0
 991 0008 15D0     		beq	.L95
 992              	.LVL60:
 993              	.L89:
 994              		.loc 1 545 0
 995 000a E36A     		ldr	r3, [r4, #44]
 996 000c 0122     		movs	r2, #1
 997 000e 1A60     		str	r2, [r3]
 998              		.loc 1 546 0
 999 0010 5A68     		ldr	r2, [r3, #4]
 1000 0012 D107     		lsls	r1, r2, #31
 1001 0014 07D4     		bmi	.L90
 1002              	.L91:
 1003              	.LVL61:
 1004              	.LBB501:
 1005              	.LBB502:
 1006              	.LBB503:
 1007              		.file 4 "ChibiOS_3.0.5/os/rt/include/chthreads.h"
 1008              		.loc 4 268 0
 1009 0016 0121     		movs	r1, #1
 1010 0018 0820     		movs	r0, #8
 1011 001a FFF7FEFF 		bl	chSchGoSleepTimeoutS
 1012              	.LVL62:
 1013              	.LBE503:
 1014              	.LBE502:
 1015              	.LBE501:
 1016              		.loc 1 546 0
 1017 001e E36A     		ldr	r3, [r4, #44]
 1018 0020 5A68     		ldr	r2, [r3, #4]
 1019 0022 D207     		lsls	r2, r2, #31
 1020 0024 F7D5     		bpl	.L91
 1021              	.LVL63:
 1022              	.L90:
 1023              		.loc 1 548 0
 1024 0026 6268     		ldr	r2, [r4, #4]
 1025              		.loc 1 552 0
 1026 0028 0F49     		ldr	r1, .L96+4
ARM GAS  C:\Users\CFAR\AppData\Local\Temp\ccWSvPNP.s 			page 19


 1027              		.loc 1 549 0
 1028 002a D2E90020 		ldrd	r2, r0, [r2]
 1029              		.loc 1 548 0
 1030 002e D861     		str	r0, [r3, #28]
 1031              		.loc 1 549 0
 1032 0030 1A60     		str	r2, [r3]
 1033              		.loc 1 552 0
 1034 0032 5961     		str	r1, [r3, #20]
 1035              		.loc 1 556 0
 1036 0034 10BD     		pop	{r4, pc}
 1037              	.LVL64:
 1038              	.L95:
 1039              		.loc 1 519 0
 1040 0036 0B21     		movs	r1, #11
 1041 0038 1320     		movs	r0, #19
 1042              	.LVL65:
 1043 003a FFF7FEFF 		bl	nvicEnableVector
 1044              	.LVL66:
 1045              		.loc 1 520 0
 1046 003e 0B21     		movs	r1, #11
 1047 0040 1420     		movs	r0, #20
 1048 0042 FFF7FEFF 		bl	nvicEnableVector
 1049              	.LVL67:
 1050              		.loc 1 521 0
 1051 0046 0B21     		movs	r1, #11
 1052 0048 1520     		movs	r0, #21
 1053 004a FFF7FEFF 		bl	nvicEnableVector
 1054              	.LVL68:
 1055              		.loc 1 522 0
 1056 004e 0B21     		movs	r1, #11
 1057 0050 1620     		movs	r0, #22
 1058 0052 FFF7FEFF 		bl	nvicEnableVector
 1059              	.LVL69:
 1060              		.loc 1 524 0
 1061 0056 054A     		ldr	r2, .L96+8
 1062 0058 136C     		ldr	r3, [r2, #64]
 1063 005a 43F00073 		orr	r3, r3, #33554432
 1064 005e 1364     		str	r3, [r2, #64]
 1065 0060 D3E7     		b	.L89
 1066              	.L97:
 1067 0062 00BF     		.align	2
 1068              	.L96:
 1069 0064 00000000 		.word	.LANCHOR0
 1070 0068 5B8F0100 		.word	102235
 1071 006c 00380240 		.word	1073887232
 1072              		.cfi_endproc
 1073              	.LFE266:
 1074              		.size	can_lld_start, .-can_lld_start
 1075              		.section	.text.can_lld_stop,"ax",%progbits
 1076              		.align	1
 1077              		.p2align 4,,15
 1078              		.global	can_lld_stop
 1079              		.syntax unified
 1080              		.thumb
 1081              		.thumb_func
 1082              		.fpu fpv4-sp-d16
 1083              		.type	can_lld_stop, %function
ARM GAS  C:\Users\CFAR\AppData\Local\Temp\ccWSvPNP.s 			page 20


 1084              	can_lld_stop:
 1085              	.LFB267:
 1086              		.loc 1 565 0
 1087              		.cfi_startproc
 1088              		@ args = 0, pretend = 0, frame = 0
 1089              		@ frame_needed = 0, uses_anonymous_args = 0
 1090              	.LVL70:
 1091 0000 08B5     		push	{r3, lr}
 1092              		.cfi_def_cfa_offset 8
 1093              		.cfi_offset 3, -8
 1094              		.cfi_offset 14, -4
 1095              		.loc 1 568 0
 1096 0002 0378     		ldrb	r3, [r0]	@ zero_extendqisi2
 1097 0004 032B     		cmp	r3, #3
 1098 0006 00D0     		beq	.L101
 1099              	.L98:
 1100              		.loc 1 605 0
 1101 0008 08BD     		pop	{r3, pc}
 1102              	.L101:
 1103              		.loc 1 570 0
 1104 000a 0D4B     		ldr	r3, .L102
 1105 000c 9842     		cmp	r0, r3
 1106 000e FBD1     		bne	.L98
 1107              		.loc 1 576 0
 1108 0010 0C4B     		ldr	r3, .L102+4
 1109 0012 0D4A     		ldr	r2, .L102+8
 1110 0014 1A60     		str	r2, [r3]
 1111              		.loc 1 577 0
 1112 0016 0022     		movs	r2, #0
 1113 0018 5A61     		str	r2, [r3, #20]
 1114              		.loc 1 581 0
 1115 001a 1320     		movs	r0, #19
 1116              	.LVL71:
 1117 001c FFF7FEFF 		bl	nvicDisableVector
 1118              	.LVL72:
 1119              		.loc 1 582 0
 1120 0020 1420     		movs	r0, #20
 1121 0022 FFF7FEFF 		bl	nvicDisableVector
 1122              	.LVL73:
 1123              		.loc 1 583 0
 1124 0026 1520     		movs	r0, #21
 1125 0028 FFF7FEFF 		bl	nvicDisableVector
 1126              	.LVL74:
 1127              		.loc 1 584 0
 1128 002c 1620     		movs	r0, #22
 1129 002e FFF7FEFF 		bl	nvicDisableVector
 1130              	.LVL75:
 1131              		.loc 1 586 0
 1132 0032 064A     		ldr	r2, .L102+12
 1133 0034 136C     		ldr	r3, [r2, #64]
 1134 0036 23F00073 		bic	r3, r3, #33554432
 1135 003a 1364     		str	r3, [r2, #64]
 1136              		.loc 1 605 0
 1137 003c 08BD     		pop	{r3, pc}
 1138              	.L103:
 1139 003e 00BF     		.align	2
 1140              	.L102:
ARM GAS  C:\Users\CFAR\AppData\Local\Temp\ccWSvPNP.s 			page 21


 1141 0040 00000000 		.word	.LANCHOR0
 1142 0044 00640040 		.word	1073767424
 1143 0048 02000100 		.word	65538
 1144 004c 00380240 		.word	1073887232
 1145              		.cfi_endproc
 1146              	.LFE267:
 1147              		.size	can_lld_stop, .-can_lld_stop
 1148              		.section	.text.can_lld_is_tx_empty,"ax",%progbits
 1149              		.align	1
 1150              		.p2align 4,,15
 1151              		.global	can_lld_is_tx_empty
 1152              		.syntax unified
 1153              		.thumb
 1154              		.thumb_func
 1155              		.fpu fpv4-sp-d16
 1156              		.type	can_lld_is_tx_empty, %function
 1157              	can_lld_is_tx_empty:
 1158              	.LFB268:
 1159              		.loc 1 619 0
 1160              		.cfi_startproc
 1161              		@ args = 0, pretend = 0, frame = 0
 1162              		@ frame_needed = 0, uses_anonymous_args = 0
 1163              		@ link register save eliminated.
 1164              	.LVL76:
 1165              		.loc 1 621 0
 1166 0000 0329     		cmp	r1, #3
 1167 0002 1AD8     		bhi	.L111
 1168 0004 DFE801F0 		tbb	[pc, r1]
 1169              	.L107:
 1170 0008 11       		.byte	(.L106-.L107)/2
 1171 0009 0C       		.byte	(.L108-.L107)/2
 1172 000a 07       		.byte	(.L109-.L107)/2
 1173 000b 02       		.byte	(.L110-.L107)/2
 1174              		.p2align 1
 1175              	.L110:
 1176              		.loc 1 629 0
 1177 000c C36A     		ldr	r3, [r0, #44]
 1178 000e 9868     		ldr	r0, [r3, #8]
 1179              	.LVL77:
 1180 0010 C0F30070 		ubfx	r0, r0, #28, #1
 1181 0014 7047     		bx	lr
 1182              	.LVL78:
 1183              	.L109:
 1184              		.loc 1 627 0
 1185 0016 C36A     		ldr	r3, [r0, #44]
 1186 0018 9868     		ldr	r0, [r3, #8]
 1187              	.LVL79:
 1188 001a C0F3C060 		ubfx	r0, r0, #27, #1
 1189 001e 7047     		bx	lr
 1190              	.LVL80:
 1191              	.L108:
 1192              		.loc 1 625 0
 1193 0020 C36A     		ldr	r3, [r0, #44]
 1194 0022 9868     		ldr	r0, [r3, #8]
 1195              	.LVL81:
 1196 0024 C0F38060 		ubfx	r0, r0, #26, #1
 1197 0028 7047     		bx	lr
ARM GAS  C:\Users\CFAR\AppData\Local\Temp\ccWSvPNP.s 			page 22


 1198              	.LVL82:
 1199              	.L106:
 1200              		.loc 1 623 0
 1201 002a C36A     		ldr	r3, [r0, #44]
 1202 002c 9B68     		ldr	r3, [r3, #8]
 1203 002e 13F0E05F 		tst	r3, #469762048
 1204 0032 14BF     		ite	ne
 1205 0034 0120     		movne	r0, #1
 1206              	.LVL83:
 1207 0036 0020     		moveq	r0, #0
 1208 0038 7047     		bx	lr
 1209              	.LVL84:
 1210              	.L111:
 1211              		.loc 1 631 0
 1212 003a 0020     		movs	r0, #0
 1213              	.LVL85:
 1214              		.loc 1 633 0
 1215 003c 7047     		bx	lr
 1216              		.cfi_endproc
 1217              	.LFE268:
 1218              		.size	can_lld_is_tx_empty, .-can_lld_is_tx_empty
 1219 003e 00BF     		.section	.text.can_lld_transmit,"ax",%progbits
 1220              		.align	1
 1221              		.p2align 4,,15
 1222              		.global	can_lld_transmit
 1223              		.syntax unified
 1224              		.thumb
 1225              		.thumb_func
 1226              		.fpu fpv4-sp-d16
 1227              		.type	can_lld_transmit, %function
 1228              	can_lld_transmit:
 1229              	.LFB269:
 1230              		.loc 1 646 0
 1231              		.cfi_startproc
 1232              		@ args = 0, pretend = 0, frame = 0
 1233              		@ frame_needed = 0, uses_anonymous_args = 0
 1234              		@ link register save eliminated.
 1235              	.LVL86:
 1236              		.loc 1 651 0
 1237 0000 0329     		cmp	r1, #3
 1238 0002 34D8     		bhi	.L123
 1239 0004 DFE801F0 		tbb	[pc, r1]
 1240              	.L115:
 1241 0008 23       		.byte	(.L114-.L115)/2
 1242 0009 2B       		.byte	(.L116-.L115)/2
 1243 000a 1F       		.byte	(.L117-.L115)/2
 1244 000b 02       		.byte	(.L118-.L115)/2
 1245              		.p2align 1
 1246              	.L118:
 1247              		.loc 1 662 0
 1248 000c C16A     		ldr	r1, [r0, #44]
 1249              	.LVL87:
 1250 000e 01F5D071 		add	r1, r1, #416
 1251              	.LVL88:
 1252              	.L119:
 1253 0012 1078     		ldrb	r0, [r2]	@ zero_extendqisi2
 1254              	.LVL89:
ARM GAS  C:\Users\CFAR\AppData\Local\Temp\ccWSvPNP.s 			page 23


 1255              		.loc 1 646 0
 1256 0014 10B4     		push	{r4}
 1257              		.cfi_def_cfa_offset 4
 1258              		.cfi_offset 4, -4
 1259 0016 C0F30013 		ubfx	r3, r0, #4, #1
 1260              		.loc 1 669 0
 1261 001a 8406     		lsls	r4, r0, #26
 1262 001c 4FEA4303 		lsl	r3, r3, #1
 1263 0020 21D5     		bpl	.L120
 1264              		.loc 1 670 0
 1265 0022 5468     		ldr	r4, [r2, #4]
 1266 0024 43EAC403 		orr	r3, r3, r4, lsl #3
 1267 0028 43F00403 		orr	r3, r3, #4
 1268              	.LVL90:
 1269              	.L121:
 1270              		.loc 1 676 0
 1271 002c D2E90242 		ldrd	r4, r2, [r2, #8]
 1272              	.LVL91:
 1273              		.loc 1 674 0
 1274 0030 00F00F00 		and	r0, r0, #15
 1275              		.loc 1 677 0
 1276 0034 43F00103 		orr	r3, r3, #1
 1277              	.LVL92:
 1278              		.loc 1 674 0
 1279 0038 4860     		str	r0, [r1, #4]
 1280              		.loc 1 675 0
 1281 003a 8C60     		str	r4, [r1, #8]
 1282              		.loc 1 676 0
 1283 003c CA60     		str	r2, [r1, #12]
 1284              		.loc 1 678 0
 1285 003e 5DF8044B 		ldr	r4, [sp], #4
 1286              		.cfi_restore 4
 1287              		.cfi_def_cfa_offset 0
 1288              		.loc 1 677 0
 1289 0042 0B60     		str	r3, [r1]
 1290              		.loc 1 678 0
 1291 0044 7047     		bx	lr
 1292              	.LVL93:
 1293              	.L117:
 1294              		.loc 1 659 0
 1295 0046 C16A     		ldr	r1, [r0, #44]
 1296              	.LVL94:
 1297 0048 01F5C871 		add	r1, r1, #400
 1298              	.LVL95:
 1299              		.loc 1 660 0
 1300 004c E1E7     		b	.L119
 1301              	.LVL96:
 1302              	.L114:
 1303              		.loc 1 653 0
 1304 004e C16A     		ldr	r1, [r0, #44]
 1305              	.LVL97:
 1306 0050 8B68     		ldr	r3, [r1, #8]
 1307 0052 C3F30163 		ubfx	r3, r3, #24, #2
 1308 0056 1833     		adds	r3, r3, #24
 1309 0058 01EB0311 		add	r1, r1, r3, lsl #4
 1310              	.LVL98:
 1311              		.loc 1 654 0
ARM GAS  C:\Users\CFAR\AppData\Local\Temp\ccWSvPNP.s 			page 24


 1312 005c D9E7     		b	.L119
 1313              	.LVL99:
 1314              	.L116:
 1315              		.loc 1 656 0
 1316 005e C16A     		ldr	r1, [r0, #44]
 1317              	.LVL100:
 1318 0060 01F5C071 		add	r1, r1, #384
 1319              	.LVL101:
 1320              		.loc 1 657 0
 1321 0064 D5E7     		b	.L119
 1322              	.LVL102:
 1323              	.L120:
 1324              		.cfi_def_cfa_offset 4
 1325              		.cfi_offset 4, -4
 1326              		.loc 1 673 0
 1327 0066 9488     		ldrh	r4, [r2, #4]
 1328 0068 43EA4453 		orr	r3, r3, r4, lsl #21
 1329              	.LVL103:
 1330 006c DEE7     		b	.L121
 1331              	.LVL104:
 1332              	.L123:
 1333 006e 7047     		bx	lr
 1334              		.cfi_endproc
 1335              	.LFE269:
 1336              		.size	can_lld_transmit, .-can_lld_transmit
 1337              		.section	.text.can_lld_is_rx_nonempty,"ax",%progbits
 1338              		.align	1
 1339              		.p2align 4,,15
 1340              		.global	can_lld_is_rx_nonempty
 1341              		.syntax unified
 1342              		.thumb
 1343              		.thumb_func
 1344              		.fpu fpv4-sp-d16
 1345              		.type	can_lld_is_rx_nonempty, %function
 1346              	can_lld_is_rx_nonempty:
 1347              	.LFB270:
 1348              		.loc 1 692 0
 1349              		.cfi_startproc
 1350              		@ args = 0, pretend = 0, frame = 0
 1351              		@ frame_needed = 0, uses_anonymous_args = 0
 1352              		@ link register save eliminated.
 1353              	.LVL105:
 1354              		.loc 1 694 0
 1355 0000 0129     		cmp	r1, #1
 1356 0002 11D0     		beq	.L127
 1357 0004 0AD3     		bcc	.L128
 1358 0006 0229     		cmp	r1, #2
 1359 0008 06D1     		bne	.L135
 1360              		.loc 1 701 0
 1361 000a C36A     		ldr	r3, [r0, #44]
 1362              	.L134:
 1363 000c 1869     		ldr	r0, [r3, #16]
 1364              	.LVL106:
 1365 000e 10F00300 		ands	r0, r0, #3
 1366 0012 18BF     		it	ne
 1367 0014 0120     		movne	r0, #1
 1368 0016 7047     		bx	lr
ARM GAS  C:\Users\CFAR\AppData\Local\Temp\ccWSvPNP.s 			page 25


 1369              	.LVL107:
 1370              	.L135:
 1371              		.loc 1 703 0
 1372 0018 0020     		movs	r0, #0
 1373              	.LVL108:
 1374              		.loc 1 705 0
 1375 001a 7047     		bx	lr
 1376              	.LVL109:
 1377              	.L128:
 1378              		.loc 1 696 0
 1379 001c C36A     		ldr	r3, [r0, #44]
 1380 001e DA68     		ldr	r2, [r3, #12]
 1381 0020 9207     		lsls	r2, r2, #30
 1382 0022 F3D0     		beq	.L134
 1383 0024 0120     		movs	r0, #1
 1384              	.LVL110:
 1385 0026 7047     		bx	lr
 1386              	.LVL111:
 1387              	.L127:
 1388              		.loc 1 699 0
 1389 0028 C36A     		ldr	r3, [r0, #44]
 1390 002a D868     		ldr	r0, [r3, #12]
 1391              	.LVL112:
 1392 002c 10F00300 		ands	r0, r0, #3
 1393 0030 18BF     		it	ne
 1394 0032 0120     		movne	r0, #1
 1395 0034 7047     		bx	lr
 1396              		.cfi_endproc
 1397              	.LFE270:
 1398              		.size	can_lld_is_rx_nonempty, .-can_lld_is_rx_nonempty
 1399 0036 00BF     		.section	.text.can_lld_receive,"ax",%progbits
 1400              		.align	1
 1401              		.p2align 4,,15
 1402              		.global	can_lld_receive
 1403              		.syntax unified
 1404              		.thumb
 1405              		.thumb_func
 1406              		.fpu fpv4-sp-d16
 1407              		.type	can_lld_receive, %function
 1408              	can_lld_receive:
 1409              	.LFB271:
 1410              		.loc 1 718 0
 1411              		.cfi_startproc
 1412              		@ args = 0, pretend = 0, frame = 0
 1413              		@ frame_needed = 0, uses_anonymous_args = 0
 1414              		@ link register save eliminated.
 1415              	.LVL113:
 1416 0000 30B4     		push	{r4, r5}
 1417              		.cfi_def_cfa_offset 8
 1418              		.cfi_offset 4, -8
 1419              		.cfi_offset 5, -4
 1420              		.loc 1 721 0
 1421 0002 0029     		cmp	r1, #0
 1422 0004 2FD1     		bne	.L137
 1423              		.loc 1 722 0
 1424 0006 C36A     		ldr	r3, [r0, #44]
 1425 0008 D968     		ldr	r1, [r3, #12]
ARM GAS  C:\Users\CFAR\AppData\Local\Temp\ccWSvPNP.s 			page 26


 1426              	.LVL114:
 1427 000a 8807     		lsls	r0, r1, #30
 1428              	.LVL115:
 1429 000c 44D0     		beq	.L147
 1430              	.L138:
 1431              		.loc 1 734 0
 1432 000e D3F8B001 		ldr	r0, [r3, #432]
 1433              	.LVL116:
 1434              		.loc 1 735 0
 1435 0012 D3F8B411 		ldr	r1, [r3, #436]
 1436              	.LVL117:
 1437              		.loc 1 736 0
 1438 0016 D3F8B841 		ldr	r4, [r3, #440]
 1439              		.loc 1 737 0
 1440 001a D3F8BC51 		ldr	r5, [r3, #444]
 1441              		.loc 1 736 0
 1442 001e D460     		str	r4, [r2, #12]
 1443              		.loc 1 740 0
 1444 0020 2024     		movs	r4, #32
 1445              		.loc 1 737 0
 1446 0022 1561     		str	r5, [r2, #16]
 1447              		.loc 1 740 0
 1448 0024 DC60     		str	r4, [r3, #12]
 1449              		.loc 1 744 0
 1450 0026 DC68     		ldr	r4, [r3, #12]
 1451 0028 A507     		lsls	r5, r4, #30
 1452 002a 03D1     		bne	.L143
 1453              		.loc 1 745 0
 1454 002c 5C69     		ldr	r4, [r3, #20]
 1455 002e 44F00204 		orr	r4, r4, #2
 1456 0032 5C61     		str	r4, [r3, #20]
 1457              	.L143:
 1458              		.loc 1 768 0
 1459 0034 1379     		ldrb	r3, [r2, #4]	@ zero_extendqisi2
 1460 0036 4408     		lsrs	r4, r0, #1
 1461 0038 64F30413 		bfi	r3, r4, #4, #1
 1462              		.loc 1 769 0
 1463 003c 8408     		lsrs	r4, r0, #2
 1464 003e 64F34513 		bfi	r3, r4, #5, #1
 1465 0042 1371     		strb	r3, [r2, #4]
 1466              		.loc 1 770 0
 1467 0044 9B06     		lsls	r3, r3, #26
 1468 0046 2BD5     		bpl	.L144
 1469              		.loc 1 771 0
 1470 0048 9368     		ldr	r3, [r2, #8]
 1471 004a C008     		lsrs	r0, r0, #3
 1472              	.LVL118:
 1473 004c 60F31C03 		bfi	r3, r0, #0, #29
 1474 0050 9360     		str	r3, [r2, #8]
 1475              	.L145:
 1476              		.loc 1 774 0
 1477 0052 1379     		ldrb	r3, [r2, #4]	@ zero_extendqisi2
 1478              		.loc 1 775 0
 1479 0054 080A     		lsrs	r0, r1, #8
 1480              		.loc 1 774 0
 1481 0056 61F30303 		bfi	r3, r1, #0, #4
 1482              		.loc 1 776 0
ARM GAS  C:\Users\CFAR\AppData\Local\Temp\ccWSvPNP.s 			page 27


 1483 005a 090C     		lsrs	r1, r1, #16
 1484              	.LVL119:
 1485              		.loc 1 774 0
 1486 005c 1371     		strb	r3, [r2, #4]
 1487              		.loc 1 775 0
 1488 005e 1070     		strb	r0, [r2]
 1489              		.loc 1 776 0
 1490 0060 5180     		strh	r1, [r2, #2]	@ movhi
 1491              	.L136:
 1492              		.loc 1 777 0
 1493 0062 30BC     		pop	{r4, r5}
 1494              		.cfi_remember_state
 1495              		.cfi_restore 5
 1496              		.cfi_restore 4
 1497              		.cfi_def_cfa_offset 0
 1498 0064 7047     		bx	lr
 1499              	.LVL120:
 1500              	.L137:
 1501              		.cfi_restore_state
 1502              		.loc 1 731 0
 1503 0066 0129     		cmp	r1, #1
 1504 0068 20D0     		beq	.L141
 1505 006a 0229     		cmp	r1, #2
 1506 006c F9D1     		bne	.L136
 1507 006e C36A     		ldr	r3, [r0, #44]
 1508              	.LVL121:
 1509              	.L139:
 1510              		.loc 1 749 0
 1511 0070 D3F8C001 		ldr	r0, [r3, #448]
 1512              	.LVL122:
 1513              		.loc 1 750 0
 1514 0074 D3F8C411 		ldr	r1, [r3, #452]
 1515              	.LVL123:
 1516              		.loc 1 751 0
 1517 0078 D3F8C841 		ldr	r4, [r3, #456]
 1518              		.loc 1 752 0
 1519 007c D3F8CC51 		ldr	r5, [r3, #460]
 1520              		.loc 1 751 0
 1521 0080 D460     		str	r4, [r2, #12]
 1522              		.loc 1 755 0
 1523 0082 2024     		movs	r4, #32
 1524              		.loc 1 752 0
 1525 0084 1561     		str	r5, [r2, #16]
 1526              		.loc 1 755 0
 1527 0086 1C61     		str	r4, [r3, #16]
 1528              		.loc 1 759 0
 1529 0088 1C69     		ldr	r4, [r3, #16]
 1530 008a A407     		lsls	r4, r4, #30
 1531 008c D2D1     		bne	.L143
 1532              		.loc 1 760 0
 1533 008e 5C69     		ldr	r4, [r3, #20]
 1534 0090 44F01004 		orr	r4, r4, #16
 1535 0094 5C61     		str	r4, [r3, #20]
 1536 0096 CDE7     		b	.L143
 1537              	.LVL124:
 1538              	.L147:
 1539              		.loc 1 724 0
ARM GAS  C:\Users\CFAR\AppData\Local\Temp\ccWSvPNP.s 			page 28


 1540 0098 1969     		ldr	r1, [r3, #16]
 1541 009a 8907     		lsls	r1, r1, #30
 1542 009c E8D1     		bne	.L139
 1543 009e E0E7     		b	.L136
 1544              	.LVL125:
 1545              	.L144:
 1546              		.loc 1 773 0
 1547 00a0 1389     		ldrh	r3, [r2, #8]
 1548 00a2 400D     		lsrs	r0, r0, #21
 1549              	.LVL126:
 1550 00a4 60F30A03 		bfi	r3, r0, #0, #11
 1551 00a8 1381     		strh	r3, [r2, #8]	@ movhi
 1552 00aa D2E7     		b	.L145
 1553              	.LVL127:
 1554              	.L141:
 1555 00ac C36A     		ldr	r3, [r0, #44]
 1556 00ae AEE7     		b	.L138
 1557              		.cfi_endproc
 1558              	.LFE271:
 1559              		.size	can_lld_receive, .-can_lld_receive
 1560              		.section	.text.can_lld_sleep,"ax",%progbits
 1561              		.align	1
 1562              		.p2align 4,,15
 1563              		.global	can_lld_sleep
 1564              		.syntax unified
 1565              		.thumb
 1566              		.thumb_func
 1567              		.fpu fpv4-sp-d16
 1568              		.type	can_lld_sleep, %function
 1569              	can_lld_sleep:
 1570              	.LFB272:
 1571              		.loc 1 787 0
 1572              		.cfi_startproc
 1573              		@ args = 0, pretend = 0, frame = 0
 1574              		@ frame_needed = 0, uses_anonymous_args = 0
 1575              		@ link register save eliminated.
 1576              	.LVL128:
 1577              		.loc 1 789 0
 1578 0000 C26A     		ldr	r2, [r0, #44]
 1579 0002 1368     		ldr	r3, [r2]
 1580 0004 43F00203 		orr	r3, r3, #2
 1581 0008 1360     		str	r3, [r2]
 1582              		.loc 1 790 0
 1583 000a 7047     		bx	lr
 1584              		.cfi_endproc
 1585              	.LFE272:
 1586              		.size	can_lld_sleep, .-can_lld_sleep
 1587              		.section	.text.can_lld_wakeup,"ax",%progbits
 1588              		.align	1
 1589              		.p2align 4,,15
 1590              		.global	can_lld_wakeup
 1591              		.syntax unified
 1592              		.thumb
 1593              		.thumb_func
 1594              		.fpu fpv4-sp-d16
 1595              		.type	can_lld_wakeup, %function
 1596              	can_lld_wakeup:
ARM GAS  C:\Users\CFAR\AppData\Local\Temp\ccWSvPNP.s 			page 29


 1597              	.LFB273:
 1598              		.loc 1 799 0
 1599              		.cfi_startproc
 1600              		@ args = 0, pretend = 0, frame = 0
 1601              		@ frame_needed = 0, uses_anonymous_args = 0
 1602              		@ link register save eliminated.
 1603              	.LVL129:
 1604              		.loc 1 801 0
 1605 0000 C26A     		ldr	r2, [r0, #44]
 1606 0002 1368     		ldr	r3, [r2]
 1607 0004 23F00203 		bic	r3, r3, #2
 1608 0008 1360     		str	r3, [r2]
 1609              		.loc 1 802 0
 1610 000a 7047     		bx	lr
 1611              		.cfi_endproc
 1612              	.LFE273:
 1613              		.size	can_lld_wakeup, .-can_lld_wakeup
 1614              		.section	.text.canSTM32SetFilters,"ax",%progbits
 1615              		.align	1
 1616              		.p2align 4,,15
 1617              		.global	canSTM32SetFilters
 1618              		.syntax unified
 1619              		.thumb
 1620              		.thumb_func
 1621              		.fpu fpv4-sp-d16
 1622              		.type	canSTM32SetFilters, %function
 1623              	canSTM32SetFilters:
 1624              	.LFB274:
 1625              		.loc 1 817 0
 1626              		.cfi_startproc
 1627              		@ args = 0, pretend = 0, frame = 0
 1628              		@ frame_needed = 0, uses_anonymous_args = 0
 1629              		@ link register save eliminated.
 1630              	.LVL130:
 1631              		.loc 1 829 0
 1632 0000 FFF7FEBF 		b	can_lld_set_filters
 1633              	.LVL131:
 1634              		.cfi_endproc
 1635              	.LFE274:
 1636              		.size	canSTM32SetFilters, .-canSTM32SetFilters
 1637              		.global	CAND1
 1638              		.section	.bss.CAND1,"aw",%nobits
 1639              		.align	2
 1640              		.set	.LANCHOR0,. + 0
 1641              		.type	CAND1, %object
 1642              		.size	CAND1, 48
 1643              	CAND1:
 1644 0000 00000000 		.space	48
 1644      00000000 
 1644      00000000 
 1644      00000000 
 1644      00000000 
 1645              		.text
 1646              	.Letext0:
 1647              		.file 5 "c:\\st\\stm32cubeide_1.3.0\\stm32cubeide\\plugins\\com.st.stm32cube.ide.mcu.externaltools
 1648              		.file 6 "c:\\st\\stm32cubeide_1.3.0\\stm32cubeide\\plugins\\com.st.stm32cube.ide.mcu.externaltools
 1649              		.file 7 "c:\\st\\stm32cubeide_1.3.0\\stm32cubeide\\plugins\\com.st.stm32cube.ide.mcu.externaltools
ARM GAS  C:\Users\CFAR\AppData\Local\Temp\ccWSvPNP.s 			page 30


 1650              		.file 8 "ChibiOS_3.0.5/os/rt/ports/ARMCMx/compilers/GCC/chtypes.h"
 1651              		.file 9 "ChibiOS_3.0.5/os/rt/include/chsystypes.h"
 1652              		.file 10 "ChibiOS_3.0.5/os/rt/include/chschd.h"
 1653              		.file 11 "ChibiOS_3.0.5/os/ext/CMSIS/include/core_cm4.h"
 1654              		.file 12 "ChibiOS_3.0.5/os/ext/CMSIS/ST/system_stm32f4xx.h"
 1655              		.file 13 "ChibiOS_3.0.5/os/ext/CMSIS/ST/stm32f407xx.h"
 1656              		.file 14 "ChibiOS_3.0.5/os/rt/ports/ARMCMx/chcore.h"
 1657              		.file 15 "ChibiOS_3.0.5/os/rt/ports/ARMCMx/chcore_v7m.h"
 1658              		.file 16 "ChibiOS_3.0.5/os/rt/include/chtm.h"
 1659              		.file 17 "ChibiOS_3.0.5/os/rt/include/chsem.h"
 1660              		.file 18 "ChibiOS_3.0.5/os/rt/include/chmtx.h"
 1661              		.file 19 "ChibiOS_3.0.5/os/rt/include/chregistry.h"
 1662              		.file 20 "ChibiOS_3.0.5/os/rt/include/chevents.h"
 1663              		.file 21 "ChibiOS_3.0.5/os/rt/include/chqueues.h"
 1664              		.file 22 "./conf_general.h"
 1665              		.file 23 "ChibiOS_3.0.5/os/hal/ports/STM32/STM32F4xx/stm32_dma.h"
 1666              		.file 24 "ChibiOS_3.0.5/os/hal/ports/STM32/LLD/GPIOv2/pal_lld.h"
 1667              		.file 25 "ChibiOS_3.0.5/os/hal/include/can.h"
 1668              		.file 26 "ChibiOS_3.0.5/os/hal/ports/STM32/LLD/can_lld.h"
 1669              		.file 27 "ChibiOS_3.0.5/os/hal/include/i2c.h"
 1670              		.file 28 "ChibiOS_3.0.5/os/hal/ports/STM32/LLD/I2Cv1/i2c_lld.h"
 1671              		.file 29 "ChibiOS_3.0.5/os/hal/include/icu.h"
 1672              		.file 30 "ChibiOS_3.0.5/os/hal/ports/STM32/LLD/TIMv1/icu_lld.h"
 1673              		.file 31 "ChibiOS_3.0.5/os/hal/ports/STM32/LLD/TIMv1/stm32_tim.h"
 1674              		.file 32 "ChibiOS_3.0.5/os/hal/include/serial.h"
 1675              		.file 33 "ChibiOS_3.0.5/os/hal/ports/STM32/LLD/USARTv1/serial_lld.h"
 1676              		.file 34 "ChibiOS_3.0.5/os/hal/include/spi.h"
 1677              		.file 35 "ChibiOS_3.0.5/os/hal/ports/STM32/LLD/SPIv1/spi_lld.h"
 1678              		.file 36 "ChibiOS_3.0.5/os/hal/include/usb.h"
 1679              		.file 37 "ChibiOS_3.0.5/os/hal/ports/STM32/LLD/OTGv1/usb_lld.h"
 1680              		.file 38 "ChibiOS_3.0.5/os/hal/ports/STM32/LLD/OTGv1/stm32_otg.h"
 1681              		.file 39 "ChibiOS_3.0.5/os/rt/include/chsys.h"
 1682              		.file 40 "ChibiOS_3.0.5/os/hal/ports/common/ARMCMx/nvic.h"
