ARM GAS  C:\Users\CFAR\AppData\Local\Temp\cccdjdoZ.s 			page 1


   1              		.cpu cortex-m4
   2              		.eabi_attribute 27, 1
   3              		.eabi_attribute 28, 1
   4              		.eabi_attribute 20, 1
   5              		.eabi_attribute 21, 1
   6              		.eabi_attribute 23, 3
   7              		.eabi_attribute 24, 1
   8              		.eabi_attribute 25, 1
   9              		.eabi_attribute 26, 1
  10              		.eabi_attribute 30, 2
  11              		.eabi_attribute 34, 1
  12              		.eabi_attribute 18, 4
  13              		.file	"chmboxes.c"
  14              		.text
  15              	.Ltext0:
  16              		.cfi_sections	.debug_frame
  17              		.section	.text.chMBObjectInit,"ax",%progbits
  18              		.align	1
  19              		.p2align 4,,15
  20              		.global	chMBObjectInit
  21              		.syntax unified
  22              		.thumb
  23              		.thumb_func
  24              		.fpu fpv4-sp-d16
  25              		.type	chMBObjectInit, %function
  26              	chMBObjectInit:
  27              	.LFB219:
  28              		.file 1 "ChibiOS_3.0.5/os/rt/src/chmboxes.c"
  29              		.loc 1 86 0
  30              		.cfi_startproc
  31              		@ args = 0, pretend = 0, frame = 0
  32              		@ frame_needed = 0, uses_anonymous_args = 0
  33              	.LVL0:
  34 0000 10B5     		push	{r4, lr}
  35              		.cfi_def_cfa_offset 8
  36              		.cfi_offset 4, -8
  37              		.cfi_offset 14, -4
  38              		.loc 1 86 0
  39 0002 0B46     		mov	r3, r1
  40              		.loc 1 93 0
  41 0004 01EB8201 		add	r1, r1, r2, lsl #2
  42              	.LVL1:
  43 0008 4160     		str	r1, [r0, #4]
  44              		.loc 1 86 0
  45 000a 0446     		mov	r4, r0
  46              		.loc 1 90 0
  47 000c 0360     		str	r3, [r0]
  48              		.loc 1 92 0
  49 000e C0E90233 		strd	r3, r3, [r0, #8]
  50              		.loc 1 94 0
  51 0012 1146     		mov	r1, r2
  52 0014 1C30     		adds	r0, r0, #28
  53              	.LVL2:
  54 0016 FFF7FEFF 		bl	chSemObjectInit
  55              	.LVL3:
  56              		.loc 1 95 0
  57 001a 04F11000 		add	r0, r4, #16
ARM GAS  C:\Users\CFAR\AppData\Local\Temp\cccdjdoZ.s 			page 2


  58 001e 0021     		movs	r1, #0
  59              		.loc 1 96 0
  60 0020 BDE81040 		pop	{r4, lr}
  61              		.cfi_restore 14
  62              		.cfi_restore 4
  63              		.cfi_def_cfa_offset 0
  64              	.LVL4:
  65              		.loc 1 95 0
  66 0024 FFF7FEBF 		b	chSemObjectInit
  67              	.LVL5:
  68              		.cfi_endproc
  69              	.LFE219:
  70              		.size	chMBObjectInit, .-chMBObjectInit
  71              		.section	.text.chMBResetI,"ax",%progbits
  72              		.align	1
  73              		.p2align 4,,15
  74              		.global	chMBResetI
  75              		.syntax unified
  76              		.thumb
  77              		.thumb_func
  78              		.fpu fpv4-sp-d16
  79              		.type	chMBResetI, %function
  80              	chMBResetI:
  81              	.LFB221:
  82              		.loc 1 124 0
  83              		.cfi_startproc
  84              		@ args = 0, pretend = 0, frame = 0
  85              		@ frame_needed = 0, uses_anonymous_args = 0
  86              	.LVL6:
  87 0000 10B5     		push	{r4, lr}
  88              		.cfi_def_cfa_offset 8
  89              		.cfi_offset 4, -8
  90              		.cfi_offset 14, -4
  91              		.loc 1 124 0
  92 0002 0446     		mov	r4, r0
  93              		.loc 1 131 0
  94 0004 D4E90031 		ldrd	r3, r1, [r4]
  95 0008 C91A     		subs	r1, r1, r3
  96 000a 1C30     		adds	r0, r0, #28
  97              	.LVL7:
  98              		.loc 1 129 0
  99 000c A360     		str	r3, [r4, #8]
 100              		.loc 1 130 0
 101 000e E360     		str	r3, [r4, #12]
 102              		.loc 1 131 0
 103 0010 8910     		asrs	r1, r1, #2
 104 0012 FFF7FEFF 		bl	chSemResetI
 105              	.LVL8:
 106              		.loc 1 132 0
 107 0016 04F11000 		add	r0, r4, #16
 108 001a 0021     		movs	r1, #0
 109              		.loc 1 133 0
 110 001c BDE81040 		pop	{r4, lr}
 111              		.cfi_restore 14
 112              		.cfi_restore 4
 113              		.cfi_def_cfa_offset 0
 114              	.LVL9:
ARM GAS  C:\Users\CFAR\AppData\Local\Temp\cccdjdoZ.s 			page 3


 115              		.loc 1 132 0
 116 0020 FFF7FEBF 		b	chSemResetI
 117              	.LVL10:
 118              		.cfi_endproc
 119              	.LFE221:
 120              		.size	chMBResetI, .-chMBResetI
 121              		.section	.text.chMBReset,"ax",%progbits
 122              		.align	1
 123              		.p2align 4,,15
 124              		.global	chMBReset
 125              		.syntax unified
 126              		.thumb
 127              		.thumb_func
 128              		.fpu fpv4-sp-d16
 129              		.type	chMBReset, %function
 130              	chMBReset:
 131              	.LFB220:
 132              		.loc 1 107 0
 133              		.cfi_startproc
 134              		@ args = 0, pretend = 0, frame = 0
 135              		@ frame_needed = 0, uses_anonymous_args = 0
 136              	.LVL11:
 137 0000 08B5     		push	{r3, lr}
 138              		.cfi_def_cfa_offset 8
 139              		.cfi_offset 3, -8
 140              		.cfi_offset 14, -4
 141              	.LBB72:
 142              	.LBB73:
 143              	.LBB74:
 144              	.LBB75:
 145              		.file 2 "ChibiOS_3.0.5/os/ext/CMSIS/include/core_cmFunc.h"
 146              		.loc 2 342 0
 147              		.syntax unified
 148              	@ 342 "ChibiOS_3.0.5/os/ext/CMSIS/include/core_cmFunc.h" 1
 149 0002 72B6     		cpsid i
 150              	@ 0 "" 2
 151              		.thumb
 152              		.syntax unified
 153              	.LBE75:
 154              	.LBE74:
 155              	.LBE73:
 156              	.LBE72:
 157              		.loc 1 110 0
 158 0004 FFF7FEFF 		bl	chMBResetI
 159              	.LVL12:
 160              		.loc 1 111 0
 161 0008 FFF7FEFF 		bl	chSchRescheduleS
 162              	.LVL13:
 163              	.LBB76:
 164              	.LBB77:
 165              	.LBB78:
 166              	.LBB79:
 167              	.LBB80:
 168              		.loc 2 331 0
 169              		.syntax unified
 170              	@ 331 "ChibiOS_3.0.5/os/ext/CMSIS/include/core_cmFunc.h" 1
 171 000c 62B6     		cpsie i
ARM GAS  C:\Users\CFAR\AppData\Local\Temp\cccdjdoZ.s 			page 4


 172              	@ 0 "" 2
 173              		.thumb
 174              		.syntax unified
 175              	.LBE80:
 176              	.LBE79:
 177              	.LBE78:
 178              	.LBE77:
 179              	.LBE76:
 180              		.loc 1 113 0
 181 000e 08BD     		pop	{r3, pc}
 182              		.cfi_endproc
 183              	.LFE220:
 184              		.size	chMBReset, .-chMBReset
 185              		.section	.text.chMBPost,"ax",%progbits
 186              		.align	1
 187              		.p2align 4,,15
 188              		.global	chMBPost
 189              		.syntax unified
 190              		.thumb
 191              		.thumb_func
 192              		.fpu fpv4-sp-d16
 193              		.type	chMBPost, %function
 194              	chMBPost:
 195              	.LFB222:
 196              		.loc 1 154 0
 197              		.cfi_startproc
 198              		@ args = 0, pretend = 0, frame = 0
 199              		@ frame_needed = 0, uses_anonymous_args = 0
 200              	.LVL14:
 201 0000 70B5     		push	{r4, r5, r6, lr}
 202              		.cfi_def_cfa_offset 16
 203              		.cfi_offset 4, -16
 204              		.cfi_offset 5, -12
 205              		.cfi_offset 6, -8
 206              		.cfi_offset 14, -4
 207              		.loc 1 154 0
 208 0002 0446     		mov	r4, r0
 209 0004 0E46     		mov	r6, r1
 210              	.LBB94:
 211              	.LBB95:
 212              	.LBB96:
 213              	.LBB97:
 214              		.loc 2 342 0
 215              		.syntax unified
 216              	@ 342 "ChibiOS_3.0.5/os/ext/CMSIS/include/core_cmFunc.h" 1
 217 0006 72B6     		cpsid i
 218              	@ 0 "" 2
 219              	.LVL15:
 220              		.thumb
 221              		.syntax unified
 222              	.LBE97:
 223              	.LBE96:
 224              	.LBE95:
 225              	.LBE94:
 226              	.LBB98:
 227              	.LBB99:
 228              		.loc 1 189 0
ARM GAS  C:\Users\CFAR\AppData\Local\Temp\cccdjdoZ.s 			page 5


 229 0008 1146     		mov	r1, r2
 230              	.LVL16:
 231 000a 1C30     		adds	r0, r0, #28
 232              	.LVL17:
 233 000c FFF7FEFF 		bl	chSemWaitTimeoutS
 234              	.LVL18:
 235              		.loc 1 190 0
 236 0010 0546     		mov	r5, r0
 237 0012 78B9     		cbnz	r0, .L9
 238              	.LVL19:
 239              	.LBB100:
 240              	.LBB101:
 241              		.loc 1 192 0
 242 0014 D4E90112 		ldrd	r1, r2, [r4, #4]
 243              		.loc 1 191 0
 244 0018 131D     		adds	r3, r2, #4
 245              		.loc 1 192 0
 246 001a 8B42     		cmp	r3, r1
 247              		.loc 1 191 0
 248 001c A360     		str	r3, [r4, #8]
 249              		.loc 1 193 0
 250 001e 28BF     		it	cs
 251 0020 2368     		ldrcs	r3, [r4]
 252              		.loc 1 191 0
 253 0022 1660     		str	r6, [r2]
 254              		.loc 1 195 0
 255 0024 04F11000 		add	r0, r4, #16
 256              	.LVL20:
 257              		.loc 1 193 0
 258 0028 28BF     		it	cs
 259 002a A360     		strcs	r3, [r4, #8]
 260              		.loc 1 195 0
 261 002c FFF7FEFF 		bl	chSemSignalI
 262              	.LVL21:
 263              		.loc 1 196 0
 264 0030 FFF7FEFF 		bl	chSchRescheduleS
 265              	.LVL22:
 266              	.L9:
 267              	.LBE101:
 268              	.LBE100:
 269              	.LBE99:
 270              	.LBE98:
 271              	.LBB102:
 272              	.LBB103:
 273              	.LBB104:
 274              	.LBB105:
 275              	.LBB106:
 276              		.loc 2 331 0
 277              		.syntax unified
 278              	@ 331 "ChibiOS_3.0.5/os/ext/CMSIS/include/core_cmFunc.h" 1
 279 0034 62B6     		cpsie i
 280              	@ 0 "" 2
 281              		.thumb
 282              		.syntax unified
 283              	.LBE106:
 284              	.LBE105:
 285              	.LBE104:
ARM GAS  C:\Users\CFAR\AppData\Local\Temp\cccdjdoZ.s 			page 6


 286              	.LBE103:
 287              	.LBE102:
 288              		.loc 1 162 0
 289 0036 2846     		mov	r0, r5
 290 0038 70BD     		pop	{r4, r5, r6, pc}
 291              		.cfi_endproc
 292              	.LFE222:
 293              		.size	chMBPost, .-chMBPost
 294 003a 00BF     		.section	.text.chMBPostS,"ax",%progbits
 295              		.align	1
 296              		.p2align 4,,15
 297              		.global	chMBPostS
 298              		.syntax unified
 299              		.thumb
 300              		.thumb_func
 301              		.fpu fpv4-sp-d16
 302              		.type	chMBPostS, %function
 303              	chMBPostS:
 304              	.LFB223:
 305              		.loc 1 183 0
 306              		.cfi_startproc
 307              		@ args = 0, pretend = 0, frame = 0
 308              		@ frame_needed = 0, uses_anonymous_args = 0
 309              	.LVL23:
 310 0000 70B5     		push	{r4, r5, r6, lr}
 311              		.cfi_def_cfa_offset 16
 312              		.cfi_offset 4, -16
 313              		.cfi_offset 5, -12
 314              		.cfi_offset 6, -8
 315              		.cfi_offset 14, -4
 316              		.loc 1 183 0
 317 0002 0446     		mov	r4, r0
 318 0004 0E46     		mov	r6, r1
 319              		.loc 1 189 0
 320 0006 1C30     		adds	r0, r0, #28
 321              	.LVL24:
 322 0008 1146     		mov	r1, r2
 323              	.LVL25:
 324 000a FFF7FEFF 		bl	chSemWaitTimeoutS
 325              	.LVL26:
 326              		.loc 1 190 0
 327 000e 0546     		mov	r5, r0
 328 0010 78B9     		cbnz	r0, .L12
 329              	.LVL27:
 330              	.LBB109:
 331              	.LBB110:
 332              		.loc 1 192 0
 333 0012 D4E90112 		ldrd	r1, r2, [r4, #4]
 334              		.loc 1 191 0
 335 0016 131D     		adds	r3, r2, #4
 336              		.loc 1 192 0
 337 0018 8B42     		cmp	r3, r1
 338              		.loc 1 191 0
 339 001a A360     		str	r3, [r4, #8]
 340              		.loc 1 193 0
 341 001c 28BF     		it	cs
 342 001e 2368     		ldrcs	r3, [r4]
ARM GAS  C:\Users\CFAR\AppData\Local\Temp\cccdjdoZ.s 			page 7


 343              		.loc 1 191 0
 344 0020 1660     		str	r6, [r2]
 345              		.loc 1 195 0
 346 0022 04F11000 		add	r0, r4, #16
 347              	.LVL28:
 348              		.loc 1 193 0
 349 0026 28BF     		it	cs
 350 0028 A360     		strcs	r3, [r4, #8]
 351              		.loc 1 195 0
 352 002a FFF7FEFF 		bl	chSemSignalI
 353              	.LVL29:
 354              		.loc 1 196 0
 355 002e FFF7FEFF 		bl	chSchRescheduleS
 356              	.LVL30:
 357              	.L12:
 358              	.LBE110:
 359              	.LBE109:
 360              		.loc 1 200 0
 361 0032 2846     		mov	r0, r5
 362 0034 70BD     		pop	{r4, r5, r6, pc}
 363              		.cfi_endproc
 364              	.LFE223:
 365              		.size	chMBPostS, .-chMBPostS
 366 0036 00BF     		.section	.text.chMBPostI,"ax",%progbits
 367              		.align	1
 368              		.p2align 4,,15
 369              		.global	chMBPostI
 370              		.syntax unified
 371              		.thumb
 372              		.thumb_func
 373              		.fpu fpv4-sp-d16
 374              		.type	chMBPostI, %function
 375              	chMBPostI:
 376              	.LFB224:
 377              		.loc 1 216 0
 378              		.cfi_startproc
 379              		@ args = 0, pretend = 0, frame = 0
 380              		@ frame_needed = 0, uses_anonymous_args = 0
 381              	.LVL31:
 382 0000 38B5     		push	{r3, r4, r5, lr}
 383              		.cfi_def_cfa_offset 16
 384              		.cfi_offset 3, -16
 385              		.cfi_offset 4, -12
 386              		.cfi_offset 5, -8
 387              		.cfi_offset 14, -4
 388              		.loc 1 221 0
 389 0002 436A     		ldr	r3, [r0, #36]
 390              	.LVL32:
 391 0004 002B     		cmp	r3, #0
 392 0006 12DD     		ble	.L19
 393              	.LVL33:
 394              		.loc 1 227 0
 395 0008 D0E90154 		ldrd	r5, r4, [r0, #4]
 396              		.loc 1 226 0
 397 000c 221D     		adds	r2, r4, #4
 398              	.LBB111:
 399              	.LBB112:
ARM GAS  C:\Users\CFAR\AppData\Local\Temp\cccdjdoZ.s 			page 8


 400              		.file 3 "ChibiOS_3.0.5/os/rt/include/chsem.h"
 401              		.loc 3 122 0
 402 000e 013B     		subs	r3, r3, #1
 403              	.LBE112:
 404              	.LBE111:
 405              		.loc 1 227 0
 406 0010 AA42     		cmp	r2, r5
 407              	.LBB114:
 408              	.LBB113:
 409              		.loc 3 122 0
 410 0012 4362     		str	r3, [r0, #36]
 411              	.LBE113:
 412              	.LBE114:
 413              		.loc 1 228 0
 414 0014 28BF     		it	cs
 415 0016 0368     		ldrcs	r3, [r0]
 416              		.loc 1 226 0
 417 0018 8260     		str	r2, [r0, #8]
 418 001a 2160     		str	r1, [r4]
 419              		.loc 1 230 0
 420 001c 00F11000 		add	r0, r0, #16
 421              	.LVL34:
 422              		.loc 1 228 0
 423 0020 28BF     		it	cs
 424 0022 40F8083C 		strcs	r3, [r0, #-8]
 425              		.loc 1 230 0
 426 0026 FFF7FEFF 		bl	chSemSignalI
 427              	.LVL35:
 428              		.loc 1 232 0
 429 002a 0020     		movs	r0, #0
 430              		.loc 1 233 0
 431 002c 38BD     		pop	{r3, r4, r5, pc}
 432              	.LVL36:
 433              	.L19:
 434              		.loc 1 222 0
 435 002e 4FF0FF30 		mov	r0, #-1
 436              	.LVL37:
 437              		.loc 1 233 0
 438 0032 38BD     		pop	{r3, r4, r5, pc}
 439              		.cfi_endproc
 440              	.LFE224:
 441              		.size	chMBPostI, .-chMBPostI
 442              		.section	.text.chMBPostAhead,"ax",%progbits
 443              		.align	1
 444              		.p2align 4,,15
 445              		.global	chMBPostAhead
 446              		.syntax unified
 447              		.thumb
 448              		.thumb_func
 449              		.fpu fpv4-sp-d16
 450              		.type	chMBPostAhead, %function
 451              	chMBPostAhead:
 452              	.LFB225:
 453              		.loc 1 254 0
 454              		.cfi_startproc
 455              		@ args = 0, pretend = 0, frame = 0
 456              		@ frame_needed = 0, uses_anonymous_args = 0
ARM GAS  C:\Users\CFAR\AppData\Local\Temp\cccdjdoZ.s 			page 9


 457              	.LVL38:
 458 0000 70B5     		push	{r4, r5, r6, lr}
 459              		.cfi_def_cfa_offset 16
 460              		.cfi_offset 4, -16
 461              		.cfi_offset 5, -12
 462              		.cfi_offset 6, -8
 463              		.cfi_offset 14, -4
 464              		.loc 1 254 0
 465 0002 0446     		mov	r4, r0
 466 0004 0E46     		mov	r6, r1
 467              	.LBB128:
 468              	.LBB129:
 469              	.LBB130:
 470              	.LBB131:
 471              		.loc 2 342 0
 472              		.syntax unified
 473              	@ 342 "ChibiOS_3.0.5/os/ext/CMSIS/include/core_cmFunc.h" 1
 474 0006 72B6     		cpsid i
 475              	@ 0 "" 2
 476              	.LVL39:
 477              		.thumb
 478              		.syntax unified
 479              	.LBE131:
 480              	.LBE130:
 481              	.LBE129:
 482              	.LBE128:
 483              	.LBB132:
 484              	.LBB133:
 485              		.loc 1 289 0
 486 0008 1146     		mov	r1, r2
 487              	.LVL40:
 488 000a 1C30     		adds	r0, r0, #28
 489              	.LVL41:
 490 000c FFF7FEFF 		bl	chSemWaitTimeoutS
 491              	.LVL42:
 492              		.loc 1 290 0
 493 0010 0546     		mov	r5, r0
 494 0012 10B1     		cbz	r0, .L25
 495              	.LVL43:
 496              	.LBE133:
 497              	.LBE132:
 498              	.LBB137:
 499              	.LBB138:
 500              	.LBB139:
 501              	.LBB140:
 502              	.LBB141:
 503              		.loc 2 331 0
 504              		.syntax unified
 505              	@ 331 "ChibiOS_3.0.5/os/ext/CMSIS/include/core_cmFunc.h" 1
 506 0014 62B6     		cpsie i
 507              	@ 0 "" 2
 508              		.thumb
 509              		.syntax unified
 510              	.LBE141:
 511              	.LBE140:
 512              	.LBE139:
 513              	.LBE138:
ARM GAS  C:\Users\CFAR\AppData\Local\Temp\cccdjdoZ.s 			page 10


 514              	.LBE137:
 515              		.loc 1 262 0
 516 0016 2846     		mov	r0, r5
 517 0018 70BD     		pop	{r4, r5, r6, pc}
 518              	.LVL44:
 519              	.L25:
 520              	.LBB146:
 521              	.LBB136:
 522              	.LBB134:
 523              	.LBB135:
 524              		.loc 1 291 0
 525 001a E368     		ldr	r3, [r4, #12]
 526 001c 2268     		ldr	r2, [r4]
 527 001e 043B     		subs	r3, r3, #4
 528 0020 9342     		cmp	r3, r2
 529 0022 E360     		str	r3, [r4, #12]
 530 0024 02D2     		bcs	.L23
 531              		.loc 1 292 0
 532 0026 6368     		ldr	r3, [r4, #4]
 533 0028 043B     		subs	r3, r3, #4
 534 002a E360     		str	r3, [r4, #12]
 535              	.L23:
 536              		.loc 1 294 0
 537 002c 1E60     		str	r6, [r3]
 538              		.loc 1 295 0
 539 002e 04F11000 		add	r0, r4, #16
 540              	.LVL45:
 541 0032 FFF7FEFF 		bl	chSemSignalI
 542              	.LVL46:
 543              		.loc 1 296 0
 544 0036 FFF7FEFF 		bl	chSchRescheduleS
 545              	.LVL47:
 546              	.LBE135:
 547              	.LBE134:
 548              	.LBE136:
 549              	.LBE146:
 550              	.LBB147:
 551              	.LBB145:
 552              	.LBB144:
 553              	.LBB143:
 554              	.LBB142:
 555              		.loc 2 331 0
 556              		.syntax unified
 557              	@ 331 "ChibiOS_3.0.5/os/ext/CMSIS/include/core_cmFunc.h" 1
 558 003a 62B6     		cpsie i
 559              	@ 0 "" 2
 560              		.thumb
 561              		.syntax unified
 562              	.LBE142:
 563              	.LBE143:
 564              	.LBE144:
 565              	.LBE145:
 566              	.LBE147:
 567              		.loc 1 262 0
 568 003c 2846     		mov	r0, r5
 569 003e 70BD     		pop	{r4, r5, r6, pc}
 570              		.cfi_endproc
ARM GAS  C:\Users\CFAR\AppData\Local\Temp\cccdjdoZ.s 			page 11


 571              	.LFE225:
 572              		.size	chMBPostAhead, .-chMBPostAhead
 573              		.section	.text.chMBPostAheadS,"ax",%progbits
 574              		.align	1
 575              		.p2align 4,,15
 576              		.global	chMBPostAheadS
 577              		.syntax unified
 578              		.thumb
 579              		.thumb_func
 580              		.fpu fpv4-sp-d16
 581              		.type	chMBPostAheadS, %function
 582              	chMBPostAheadS:
 583              	.LFB226:
 584              		.loc 1 283 0
 585              		.cfi_startproc
 586              		@ args = 0, pretend = 0, frame = 0
 587              		@ frame_needed = 0, uses_anonymous_args = 0
 588              	.LVL48:
 589 0000 70B5     		push	{r4, r5, r6, lr}
 590              		.cfi_def_cfa_offset 16
 591              		.cfi_offset 4, -16
 592              		.cfi_offset 5, -12
 593              		.cfi_offset 6, -8
 594              		.cfi_offset 14, -4
 595              		.loc 1 283 0
 596 0002 0446     		mov	r4, r0
 597 0004 0E46     		mov	r6, r1
 598              		.loc 1 289 0
 599 0006 1C30     		adds	r0, r0, #28
 600              	.LVL49:
 601 0008 1146     		mov	r1, r2
 602              	.LVL50:
 603 000a FFF7FEFF 		bl	chSemWaitTimeoutS
 604              	.LVL51:
 605              		.loc 1 290 0
 606 000e 0546     		mov	r5, r0
 607 0010 60B9     		cbnz	r0, .L26
 608              	.LVL52:
 609              	.LBB150:
 610              	.LBB151:
 611              		.loc 1 291 0
 612 0012 E368     		ldr	r3, [r4, #12]
 613 0014 2268     		ldr	r2, [r4]
 614 0016 043B     		subs	r3, r3, #4
 615 0018 9342     		cmp	r3, r2
 616 001a E360     		str	r3, [r4, #12]
 617 001c 08D3     		bcc	.L30
 618              	.L28:
 619              		.loc 1 294 0
 620 001e 1E60     		str	r6, [r3]
 621              		.loc 1 295 0
 622 0020 04F11000 		add	r0, r4, #16
 623              	.LVL53:
 624 0024 FFF7FEFF 		bl	chSemSignalI
 625              	.LVL54:
 626              		.loc 1 296 0
 627 0028 FFF7FEFF 		bl	chSchRescheduleS
ARM GAS  C:\Users\CFAR\AppData\Local\Temp\cccdjdoZ.s 			page 12


 628              	.LVL55:
 629              	.L26:
 630              	.LBE151:
 631              	.LBE150:
 632              		.loc 1 300 0
 633 002c 2846     		mov	r0, r5
 634 002e 70BD     		pop	{r4, r5, r6, pc}
 635              	.LVL56:
 636              	.L30:
 637              	.LBB153:
 638              	.LBB152:
 639              		.loc 1 292 0
 640 0030 6368     		ldr	r3, [r4, #4]
 641 0032 043B     		subs	r3, r3, #4
 642 0034 E360     		str	r3, [r4, #12]
 643 0036 F2E7     		b	.L28
 644              	.LBE152:
 645              	.LBE153:
 646              		.cfi_endproc
 647              	.LFE226:
 648              		.size	chMBPostAheadS, .-chMBPostAheadS
 649              		.section	.text.chMBPostAheadI,"ax",%progbits
 650              		.align	1
 651              		.p2align 4,,15
 652              		.global	chMBPostAheadI
 653              		.syntax unified
 654              		.thumb
 655              		.thumb_func
 656              		.fpu fpv4-sp-d16
 657              		.type	chMBPostAheadI, %function
 658              	chMBPostAheadI:
 659              	.LFB227:
 660              		.loc 1 316 0
 661              		.cfi_startproc
 662              		@ args = 0, pretend = 0, frame = 0
 663              		@ frame_needed = 0, uses_anonymous_args = 0
 664              	.LVL57:
 665              		.loc 1 321 0
 666 0000 426A     		ldr	r2, [r0, #36]
 667              	.LVL58:
 668 0002 002A     		cmp	r2, #0
 669 0004 11DD     		ble	.L34
 670              	.LVL59:
 671              		.loc 1 325 0
 672 0006 C368     		ldr	r3, [r0, #12]
 673              		.loc 1 316 0
 674 0008 10B5     		push	{r4, lr}
 675              		.cfi_def_cfa_offset 8
 676              		.cfi_offset 4, -8
 677              		.cfi_offset 14, -4
 678              		.loc 1 325 0
 679 000a 0468     		ldr	r4, [r0]
 680 000c 043B     		subs	r3, r3, #4
 681              	.LBB154:
 682              	.LBB155:
 683              		.loc 3 122 0
 684 000e 013A     		subs	r2, r2, #1
ARM GAS  C:\Users\CFAR\AppData\Local\Temp\cccdjdoZ.s 			page 13


 685              	.LBE155:
 686              	.LBE154:
 687              		.loc 1 325 0
 688 0010 A342     		cmp	r3, r4
 689              	.LBB157:
 690              	.LBB156:
 691              		.loc 3 122 0
 692 0012 4262     		str	r2, [r0, #36]
 693              	.LBE156:
 694              	.LBE157:
 695              		.loc 1 325 0
 696 0014 C360     		str	r3, [r0, #12]
 697 0016 02D2     		bcs	.L33
 698              		.loc 1 326 0
 699 0018 4368     		ldr	r3, [r0, #4]
 700 001a 043B     		subs	r3, r3, #4
 701 001c C360     		str	r3, [r0, #12]
 702              	.L33:
 703              		.loc 1 328 0
 704 001e 1960     		str	r1, [r3]
 705              		.loc 1 329 0
 706 0020 1030     		adds	r0, r0, #16
 707              	.LVL60:
 708 0022 FFF7FEFF 		bl	chSemSignalI
 709              	.LVL61:
 710              		.loc 1 331 0
 711 0026 0020     		movs	r0, #0
 712              		.loc 1 332 0
 713 0028 10BD     		pop	{r4, pc}
 714              	.LVL62:
 715              	.L34:
 716              		.cfi_def_cfa_offset 0
 717              		.cfi_restore 4
 718              		.cfi_restore 14
 719              		.loc 1 322 0
 720 002a 4FF0FF30 		mov	r0, #-1
 721              	.LVL63:
 722              		.loc 1 332 0
 723 002e 7047     		bx	lr
 724              		.cfi_endproc
 725              	.LFE227:
 726              		.size	chMBPostAheadI, .-chMBPostAheadI
 727              		.section	.text.chMBFetch,"ax",%progbits
 728              		.align	1
 729              		.p2align 4,,15
 730              		.global	chMBFetch
 731              		.syntax unified
 732              		.thumb
 733              		.thumb_func
 734              		.fpu fpv4-sp-d16
 735              		.type	chMBFetch, %function
 736              	chMBFetch:
 737              	.LFB228:
 738              		.loc 1 353 0
 739              		.cfi_startproc
 740              		@ args = 0, pretend = 0, frame = 0
 741              		@ frame_needed = 0, uses_anonymous_args = 0
ARM GAS  C:\Users\CFAR\AppData\Local\Temp\cccdjdoZ.s 			page 14


 742              	.LVL64:
 743 0000 70B5     		push	{r4, r5, r6, lr}
 744              		.cfi_def_cfa_offset 16
 745              		.cfi_offset 4, -16
 746              		.cfi_offset 5, -12
 747              		.cfi_offset 6, -8
 748              		.cfi_offset 14, -4
 749              		.loc 1 353 0
 750 0002 0446     		mov	r4, r0
 751 0004 0E46     		mov	r6, r1
 752              	.LBB171:
 753              	.LBB172:
 754              	.LBB173:
 755              	.LBB174:
 756              		.loc 2 342 0
 757              		.syntax unified
 758              	@ 342 "ChibiOS_3.0.5/os/ext/CMSIS/include/core_cmFunc.h" 1
 759 0006 72B6     		cpsid i
 760              	@ 0 "" 2
 761              	.LVL65:
 762              		.thumb
 763              		.syntax unified
 764              	.LBE174:
 765              	.LBE173:
 766              	.LBE172:
 767              	.LBE171:
 768              	.LBB175:
 769              	.LBB176:
 770              		.loc 1 388 0
 771 0008 1146     		mov	r1, r2
 772              	.LVL66:
 773 000a 1030     		adds	r0, r0, #16
 774              	.LVL67:
 775 000c FFF7FEFF 		bl	chSemWaitTimeoutS
 776              	.LVL68:
 777              		.loc 1 389 0
 778 0010 0546     		mov	r5, r0
 779 0012 80B9     		cbnz	r0, .L40
 780              	.LVL69:
 781              	.LBB177:
 782              	.LBB178:
 783              		.loc 1 390 0
 784 0014 E368     		ldr	r3, [r4, #12]
 785              		.loc 1 391 0
 786 0016 6268     		ldr	r2, [r4, #4]
 787              		.loc 1 390 0
 788 0018 1968     		ldr	r1, [r3]
 789 001a 0433     		adds	r3, r3, #4
 790              		.loc 1 391 0
 791 001c 9342     		cmp	r3, r2
 792              		.loc 1 390 0
 793 001e E360     		str	r3, [r4, #12]
 794              		.loc 1 392 0
 795 0020 28BF     		it	cs
 796 0022 2368     		ldrcs	r3, [r4]
 797              		.loc 1 390 0
 798 0024 3160     		str	r1, [r6]
ARM GAS  C:\Users\CFAR\AppData\Local\Temp\cccdjdoZ.s 			page 15


 799              		.loc 1 394 0
 800 0026 04F11C00 		add	r0, r4, #28
 801              	.LVL70:
 802              		.loc 1 392 0
 803 002a 28BF     		it	cs
 804 002c E360     		strcs	r3, [r4, #12]
 805              		.loc 1 394 0
 806 002e FFF7FEFF 		bl	chSemSignalI
 807              	.LVL71:
 808              		.loc 1 395 0
 809 0032 FFF7FEFF 		bl	chSchRescheduleS
 810              	.LVL72:
 811              	.L40:
 812              	.LBE178:
 813              	.LBE177:
 814              	.LBE176:
 815              	.LBE175:
 816              	.LBB179:
 817              	.LBB180:
 818              	.LBB181:
 819              	.LBB182:
 820              	.LBB183:
 821              		.loc 2 331 0
 822              		.syntax unified
 823              	@ 331 "ChibiOS_3.0.5/os/ext/CMSIS/include/core_cmFunc.h" 1
 824 0036 62B6     		cpsie i
 825              	@ 0 "" 2
 826              		.thumb
 827              		.syntax unified
 828              	.LBE183:
 829              	.LBE182:
 830              	.LBE181:
 831              	.LBE180:
 832              	.LBE179:
 833              		.loc 1 361 0
 834 0038 2846     		mov	r0, r5
 835 003a 70BD     		pop	{r4, r5, r6, pc}
 836              		.cfi_endproc
 837              	.LFE228:
 838              		.size	chMBFetch, .-chMBFetch
 839              		.section	.text.chMBFetchS,"ax",%progbits
 840              		.align	1
 841              		.p2align 4,,15
 842              		.global	chMBFetchS
 843              		.syntax unified
 844              		.thumb
 845              		.thumb_func
 846              		.fpu fpv4-sp-d16
 847              		.type	chMBFetchS, %function
 848              	chMBFetchS:
 849              	.LFB229:
 850              		.loc 1 382 0
 851              		.cfi_startproc
 852              		@ args = 0, pretend = 0, frame = 0
 853              		@ frame_needed = 0, uses_anonymous_args = 0
 854              	.LVL73:
 855 0000 70B5     		push	{r4, r5, r6, lr}
ARM GAS  C:\Users\CFAR\AppData\Local\Temp\cccdjdoZ.s 			page 16


 856              		.cfi_def_cfa_offset 16
 857              		.cfi_offset 4, -16
 858              		.cfi_offset 5, -12
 859              		.cfi_offset 6, -8
 860              		.cfi_offset 14, -4
 861              		.loc 1 382 0
 862 0002 0446     		mov	r4, r0
 863 0004 0E46     		mov	r6, r1
 864              		.loc 1 388 0
 865 0006 1030     		adds	r0, r0, #16
 866              	.LVL74:
 867 0008 1146     		mov	r1, r2
 868              	.LVL75:
 869 000a FFF7FEFF 		bl	chSemWaitTimeoutS
 870              	.LVL76:
 871              		.loc 1 389 0
 872 000e 0546     		mov	r5, r0
 873 0010 80B9     		cbnz	r0, .L43
 874              	.LVL77:
 875              	.LBB186:
 876              	.LBB187:
 877              		.loc 1 390 0
 878 0012 E368     		ldr	r3, [r4, #12]
 879              		.loc 1 391 0
 880 0014 6268     		ldr	r2, [r4, #4]
 881              		.loc 1 390 0
 882 0016 1968     		ldr	r1, [r3]
 883 0018 0433     		adds	r3, r3, #4
 884              		.loc 1 391 0
 885 001a 9342     		cmp	r3, r2
 886              		.loc 1 390 0
 887 001c E360     		str	r3, [r4, #12]
 888              		.loc 1 392 0
 889 001e 28BF     		it	cs
 890 0020 2368     		ldrcs	r3, [r4]
 891              		.loc 1 390 0
 892 0022 3160     		str	r1, [r6]
 893              		.loc 1 394 0
 894 0024 04F11C00 		add	r0, r4, #28
 895              	.LVL78:
 896              		.loc 1 392 0
 897 0028 28BF     		it	cs
 898 002a E360     		strcs	r3, [r4, #12]
 899              		.loc 1 394 0
 900 002c FFF7FEFF 		bl	chSemSignalI
 901              	.LVL79:
 902              		.loc 1 395 0
 903 0030 FFF7FEFF 		bl	chSchRescheduleS
 904              	.LVL80:
 905              	.L43:
 906              	.LBE187:
 907              	.LBE186:
 908              		.loc 1 399 0
 909 0034 2846     		mov	r0, r5
 910 0036 70BD     		pop	{r4, r5, r6, pc}
 911              		.cfi_endproc
 912              	.LFE229:
ARM GAS  C:\Users\CFAR\AppData\Local\Temp\cccdjdoZ.s 			page 17


 913              		.size	chMBFetchS, .-chMBFetchS
 914              		.section	.text.chMBFetchI,"ax",%progbits
 915              		.align	1
 916              		.p2align 4,,15
 917              		.global	chMBFetchI
 918              		.syntax unified
 919              		.thumb
 920              		.thumb_func
 921              		.fpu fpv4-sp-d16
 922              		.type	chMBFetchI, %function
 923              	chMBFetchI:
 924              	.LFB230:
 925              		.loc 1 415 0
 926              		.cfi_startproc
 927              		@ args = 0, pretend = 0, frame = 0
 928              		@ frame_needed = 0, uses_anonymous_args = 0
 929              	.LVL81:
 930              		.loc 1 420 0
 931 0000 8269     		ldr	r2, [r0, #24]
 932              	.LVL82:
 933 0002 002A     		cmp	r2, #0
 934 0004 14DD     		ble	.L50
 935              	.LVL83:
 936              		.loc 1 424 0
 937 0006 C368     		ldr	r3, [r0, #12]
 938              	.LBB188:
 939              	.LBB189:
 940              		.loc 3 122 0
 941 0008 013A     		subs	r2, r2, #1
 942              	.LBE189:
 943              	.LBE188:
 944              		.loc 1 415 0
 945 000a 10B5     		push	{r4, lr}
 946              		.cfi_def_cfa_offset 8
 947              		.cfi_offset 4, -8
 948              		.cfi_offset 14, -4
 949              	.LBB191:
 950              	.LBB190:
 951              		.loc 3 122 0
 952 000c 8261     		str	r2, [r0, #24]
 953              	.LBE190:
 954              	.LBE191:
 955              		.loc 1 425 0
 956 000e 4268     		ldr	r2, [r0, #4]
 957              		.loc 1 424 0
 958 0010 1C68     		ldr	r4, [r3]
 959 0012 0433     		adds	r3, r3, #4
 960              		.loc 1 425 0
 961 0014 9342     		cmp	r3, r2
 962              		.loc 1 424 0
 963 0016 C360     		str	r3, [r0, #12]
 964              		.loc 1 426 0
 965 0018 28BF     		it	cs
 966 001a 0368     		ldrcs	r3, [r0]
 967              		.loc 1 424 0
 968 001c 0C60     		str	r4, [r1]
 969              		.loc 1 428 0
ARM GAS  C:\Users\CFAR\AppData\Local\Temp\cccdjdoZ.s 			page 18


 970 001e 00F11C00 		add	r0, r0, #28
 971              	.LVL84:
 972              		.loc 1 426 0
 973 0022 28BF     		it	cs
 974 0024 40F8103C 		strcs	r3, [r0, #-16]
 975              		.loc 1 428 0
 976 0028 FFF7FEFF 		bl	chSemSignalI
 977              	.LVL85:
 978              		.loc 1 430 0
 979 002c 0020     		movs	r0, #0
 980              		.loc 1 431 0
 981 002e 10BD     		pop	{r4, pc}
 982              	.LVL86:
 983              	.L50:
 984              		.cfi_def_cfa_offset 0
 985              		.cfi_restore 4
 986              		.cfi_restore 14
 987              		.loc 1 421 0
 988 0030 4FF0FF30 		mov	r0, #-1
 989              	.LVL87:
 990              		.loc 1 431 0
 991 0034 7047     		bx	lr
 992              		.cfi_endproc
 993              	.LFE230:
 994              		.size	chMBFetchI, .-chMBFetchI
 995 0036 00BF     		.text
 996              	.Letext0:
 997              		.file 4 "c:\\st\\stm32cubeide_1.3.0\\stm32cubeide\\plugins\\com.st.stm32cube.ide.mcu.externaltools
 998              		.file 5 "c:\\st\\stm32cubeide_1.3.0\\stm32cubeide\\plugins\\com.st.stm32cube.ide.mcu.externaltools
 999              		.file 6 "ChibiOS_3.0.5/os/rt/ports/ARMCMx/compilers/GCC/chtypes.h"
 1000              		.file 7 "ChibiOS_3.0.5/os/rt/include/chsystypes.h"
 1001              		.file 8 "ChibiOS_3.0.5/os/rt/include/chschd.h"
 1002              		.file 9 "ChibiOS_3.0.5/os/ext/CMSIS/include/core_cm4.h"
 1003              		.file 10 "ChibiOS_3.0.5/os/ext/CMSIS/ST/system_stm32f4xx.h"
 1004              		.file 11 "ChibiOS_3.0.5/os/rt/ports/ARMCMx/chcore.h"
 1005              		.file 12 "ChibiOS_3.0.5/os/rt/ports/ARMCMx/chcore_v7m.h"
 1006              		.file 13 "ChibiOS_3.0.5/os/rt/include/chtm.h"
 1007              		.file 14 "ChibiOS_3.0.5/os/rt/include/chmtx.h"
 1008              		.file 15 "ChibiOS_3.0.5/os/rt/include/chregistry.h"
 1009              		.file 16 "ChibiOS_3.0.5/os/rt/include/chmboxes.h"
 1010              		.file 17 "ChibiOS_3.0.5/os/rt/include/chsys.h"
