ARM GAS  C:\Users\CFAR\AppData\Local\Temp\ccVwddjU.s 			page 1


   1              		.cpu cortex-m4
   2              		.eabi_attribute 27, 1
   3              		.eabi_attribute 28, 1
   4              		.eabi_attribute 20, 1
   5              		.eabi_attribute 21, 1
   6              		.eabi_attribute 23, 3
   7              		.eabi_attribute 24, 1
   8              		.eabi_attribute 25, 1
   9              		.eabi_attribute 26, 1
  10              		.eabi_attribute 30, 2
  11              		.eabi_attribute 34, 1
  12              		.eabi_attribute 18, 4
  13              		.file	"chvt.c"
  14              		.text
  15              	.Ltext0:
  16              		.cfi_sections	.debug_frame
  17              		.section	.text._vt_init,"ax",%progbits
  18              		.align	1
  19              		.p2align 4,,15
  20              		.global	_vt_init
  21              		.syntax unified
  22              		.thumb
  23              		.thumb_func
  24              		.fpu fpv4-sp-d16
  25              		.type	_vt_init, %function
  26              	_vt_init:
  27              	.LFB219:
  28              		.file 1 "ChibiOS_3.0.5/os/rt/src/chvt.c"
  29              		.loc 1 61 0
  30              		.cfi_startproc
  31              		@ args = 0, pretend = 0, frame = 0
  32              		@ frame_needed = 0, uses_anonymous_args = 0
  33              		@ link register save eliminated.
  34              		.loc 1 63 0
  35 0000 054B     		ldr	r3, .L3
  36              		.loc 1 65 0
  37 0002 4FF0FF30 		mov	r0, #-1
  38              		.loc 1 67 0
  39 0006 0021     		movs	r1, #0
  40              		.loc 1 63 0
  41 0008 03F11C02 		add	r2, r3, #28
  42              		.loc 1 65 0
  43 000c 5862     		str	r0, [r3, #36]
  44              		.loc 1 67 0
  45 000e 9962     		str	r1, [r3, #40]
  46              		.loc 1 64 0
  47 0010 C3E90722 		strd	r2, r2, [r3, #28]
  48              		.loc 1 71 0
  49 0014 7047     		bx	lr
  50              	.L4:
  51 0016 00BF     		.align	2
  52              	.L3:
  53 0018 00000000 		.word	ch
  54              		.cfi_endproc
  55              	.LFE219:
  56              		.size	_vt_init, .-_vt_init
  57              		.section	.text.chVTDoSetI,"ax",%progbits
ARM GAS  C:\Users\CFAR\AppData\Local\Temp\ccVwddjU.s 			page 2


  58              		.align	1
  59              		.p2align 4,,15
  60              		.global	chVTDoSetI
  61              		.syntax unified
  62              		.thumb
  63              		.thumb_func
  64              		.fpu fpv4-sp-d16
  65              		.type	chVTDoSetI, %function
  66              	chVTDoSetI:
  67              	.LFB220:
  68              		.loc 1 96 0
  69              		.cfi_startproc
  70              		@ args = 0, pretend = 0, frame = 0
  71              		@ frame_needed = 0, uses_anonymous_args = 0
  72              		@ link register save eliminated.
  73              	.LVL0:
  74 0000 30B4     		push	{r4, r5}
  75              		.cfi_def_cfa_offset 8
  76              		.cfi_offset 4, -8
  77              		.cfi_offset 5, -4
  78              		.loc 1 150 0
  79 0002 0D4D     		ldr	r5, .L10
  80 0004 EC69     		ldr	r4, [r5, #28]
  81              		.loc 1 103 0
  82 0006 0361     		str	r3, [r0, #16]
  83              		.loc 1 151 0
  84 0008 A368     		ldr	r3, [r4, #8]
  85              	.LVL1:
  86              		.loc 1 104 0
  87 000a C260     		str	r2, [r0, #12]
  88              	.LVL2:
  89              		.loc 1 151 0
  90 000c 9942     		cmp	r1, r3
  91 000e 04D9     		bls	.L6
  92              	.LVL3:
  93              	.L7:
  94              		.loc 1 153 0
  95 0010 2468     		ldr	r4, [r4]
  96              	.LVL4:
  97              		.loc 1 152 0
  98 0012 C91A     		subs	r1, r1, r3
  99              	.LVL5:
 100              		.loc 1 151 0
 101 0014 A368     		ldr	r3, [r4, #8]
 102 0016 8B42     		cmp	r3, r1
 103 0018 FAD3     		bcc	.L7
 104              	.L6:
 105              		.loc 1 158 0
 106 001a 6368     		ldr	r3, [r4, #4]
 107 001c C0E90043 		strd	r4, r3, [r0]
 108              		.loc 1 159 0
 109 0020 1860     		str	r0, [r3]
 110              		.loc 1 160 0
 111 0022 6060     		str	r0, [r4, #4]
 112              		.loc 1 161 0
 113 0024 8160     		str	r1, [r0, #8]
 114              		.loc 1 165 0
ARM GAS  C:\Users\CFAR\AppData\Local\Temp\ccVwddjU.s 			page 3


 115 0026 A368     		ldr	r3, [r4, #8]
 116              		.loc 1 166 0
 117 0028 4FF0FF32 		mov	r2, #-1
 118              	.LVL6:
 119              		.loc 1 165 0
 120 002c 591A     		subs	r1, r3, r1
 121              	.LVL7:
 122 002e A160     		str	r1, [r4, #8]
 123              	.LVL8:
 124              		.loc 1 166 0
 125 0030 6A62     		str	r2, [r5, #36]
 126              		.loc 1 167 0
 127 0032 30BC     		pop	{r4, r5}
 128              		.cfi_restore 5
 129              		.cfi_restore 4
 130              		.cfi_def_cfa_offset 0
 131              	.LVL9:
 132 0034 7047     		bx	lr
 133              	.L11:
 134 0036 00BF     		.align	2
 135              	.L10:
 136 0038 00000000 		.word	ch
 137              		.cfi_endproc
 138              	.LFE220:
 139              		.size	chVTDoSetI, .-chVTDoSetI
 140              		.section	.text.chVTDoResetI,"ax",%progbits
 141              		.align	1
 142              		.p2align 4,,15
 143              		.global	chVTDoResetI
 144              		.syntax unified
 145              		.thumb
 146              		.thumb_func
 147              		.fpu fpv4-sp-d16
 148              		.type	chVTDoResetI, %function
 149              	chVTDoResetI:
 150              	.LFB221:
 151              		.loc 1 177 0
 152              		.cfi_startproc
 153              		@ args = 0, pretend = 0, frame = 0
 154              		@ frame_needed = 0, uses_anonymous_args = 0
 155              		@ link register save eliminated.
 156              	.LVL10:
 157              		.loc 1 186 0
 158 0000 0368     		ldr	r3, [r0]
 159              		.loc 1 189 0
 160 0002 4168     		ldr	r1, [r0, #4]
 161              		.loc 1 186 0
 162 0004 9A68     		ldr	r2, [r3, #8]
 163              		.loc 1 177 0
 164 0006 30B4     		push	{r4, r5}
 165              		.cfi_def_cfa_offset 8
 166              		.cfi_offset 4, -8
 167              		.cfi_offset 5, -4
 168              		.loc 1 186 0
 169 0008 8568     		ldr	r5, [r0, #8]
 170              		.loc 1 195 0
 171 000a 064C     		ldr	r4, .L14
ARM GAS  C:\Users\CFAR\AppData\Local\Temp\ccVwddjU.s 			page 4


 172              		.loc 1 186 0
 173 000c 2A44     		add	r2, r2, r5
 174 000e 9A60     		str	r2, [r3, #8]
 175              		.loc 1 189 0
 176 0010 0B60     		str	r3, [r1]
 177              		.loc 1 190 0
 178 0012 0568     		ldr	r5, [r0]
 179              		.loc 1 191 0
 180 0014 0022     		movs	r2, #0
 181              		.loc 1 195 0
 182 0016 4FF0FF33 		mov	r3, #-1
 183              		.loc 1 190 0
 184 001a 6960     		str	r1, [r5, #4]
 185              		.loc 1 191 0
 186 001c C260     		str	r2, [r0, #12]
 187              		.loc 1 195 0
 188 001e 6362     		str	r3, [r4, #36]
 189              		.loc 1 255 0
 190 0020 30BC     		pop	{r4, r5}
 191              		.cfi_restore 5
 192              		.cfi_restore 4
 193              		.cfi_def_cfa_offset 0
 194 0022 7047     		bx	lr
 195              	.L15:
 196              		.align	2
 197              	.L14:
 198 0024 00000000 		.word	ch
 199              		.cfi_endproc
 200              	.LFE221:
 201              		.size	chVTDoResetI, .-chVTDoResetI
 202              		.text
 203              	.Letext0:
 204              		.file 2 "c:\\st\\stm32cubeide_1.3.0\\stm32cubeide\\plugins\\com.st.stm32cube.ide.mcu.externaltools
 205              		.file 3 "c:\\st\\stm32cubeide_1.3.0\\stm32cubeide\\plugins\\com.st.stm32cube.ide.mcu.externaltools
 206              		.file 4 "ChibiOS_3.0.5/os/rt/ports/ARMCMx/compilers/GCC/chtypes.h"
 207              		.file 5 "ChibiOS_3.0.5/os/rt/include/chsystypes.h"
 208              		.file 6 "ChibiOS_3.0.5/os/rt/include/chschd.h"
 209              		.file 7 "ChibiOS_3.0.5/os/ext/CMSIS/include/core_cm4.h"
 210              		.file 8 "ChibiOS_3.0.5/os/ext/CMSIS/ST/system_stm32f4xx.h"
 211              		.file 9 "ChibiOS_3.0.5/os/rt/ports/ARMCMx/chcore.h"
 212              		.file 10 "ChibiOS_3.0.5/os/rt/ports/ARMCMx/chcore_v7m.h"
 213              		.file 11 "ChibiOS_3.0.5/os/rt/include/chtm.h"
 214              		.file 12 "ChibiOS_3.0.5/os/rt/include/chsem.h"
 215              		.file 13 "ChibiOS_3.0.5/os/rt/include/chmtx.h"
 216              		.file 14 "ChibiOS_3.0.5/os/rt/include/chregistry.h"
