ARM GAS  C:\Users\CFAR\AppData\Local\Temp\ccBnUWel.s 			page 1


   1              		.cpu cortex-m4
   2              		.eabi_attribute 27, 1
   3              		.eabi_attribute 28, 1
   4              		.eabi_attribute 20, 1
   5              		.eabi_attribute 21, 1
   6              		.eabi_attribute 23, 3
   7              		.eabi_attribute 24, 1
   8              		.eabi_attribute 25, 1
   9              		.eabi_attribute 26, 1
  10              		.eabi_attribute 30, 2
  11              		.eabi_attribute 34, 1
  12              		.eabi_attribute 18, 4
  13              		.file	"confgenerator.c"
  14              		.text
  15              	.Ltext0:
  16              		.cfi_sections	.debug_frame
  17              		.section	.text.confgenerator_serialize_mcconf,"ax",%progbits
  18              		.align	1
  19              		.p2align 4,,15
  20              		.global	confgenerator_serialize_mcconf
  21              		.syntax unified
  22              		.thumb
  23              		.thumb_func
  24              		.fpu fpv4-sp-d16
  25              		.type	confgenerator_serialize_mcconf, %function
  26              	confgenerator_serialize_mcconf:
  27              	.LFB219:
  28              		.file 1 "confgenerator.c"
  29              		.loc 1 7 0
  30              		.cfi_startproc
  31              		@ args = 0, pretend = 0, frame = 8
  32              		@ frame_needed = 0, uses_anonymous_args = 0
  33              	.LVL0:
  34 0000 70B5     		push	{r4, r5, r6, lr}
  35              		.cfi_def_cfa_offset 16
  36              		.cfi_offset 4, -16
  37              		.cfi_offset 5, -12
  38              		.cfi_offset 6, -8
  39              		.cfi_offset 14, -4
  40 0002 82B0     		sub	sp, sp, #8
  41              		.cfi_def_cfa_offset 24
  42              		.loc 1 8 0
  43 0004 02AE     		add	r6, sp, #8
  44 0006 0023     		movs	r3, #0
  45 0008 46F8043D 		str	r3, [r6, #-4]!
  46              		.loc 1 7 0
  47 000c 0C46     		mov	r4, r1
  48              		.loc 1 10 0
  49 000e 3246     		mov	r2, r6
  50 0010 F249     		ldr	r1, .L4
  51              	.LVL1:
  52              		.loc 1 7 0
  53 0012 0546     		mov	r5, r0
  54              		.loc 1 10 0
  55 0014 FFF7FEFF 		bl	buffer_append_uint32
  56              	.LVL2:
  57              		.loc 1 12 0
ARM GAS  C:\Users\CFAR\AppData\Local\Temp\ccBnUWel.s 			page 2


  58 0018 019B     		ldr	r3, [sp, #4]
  59 001a 2278     		ldrb	r2, [r4]	@ zero_extendqisi2
  60 001c EA54     		strb	r2, [r5, r3]
  61              		.loc 1 13 0
  62 001e EA18     		adds	r2, r5, r3
  63 0020 6178     		ldrb	r1, [r4, #1]	@ zero_extendqisi2
  64 0022 5170     		strb	r1, [r2, #1]
  65              		.loc 1 14 0
  66 0024 A178     		ldrb	r1, [r4, #2]	@ zero_extendqisi2
  67 0026 9170     		strb	r1, [r2, #2]
  68              		.loc 1 15 0
  69 0028 E178     		ldrb	r1, [r4, #3]	@ zero_extendqisi2
  70 002a D170     		strb	r1, [r2, #3]
  71 002c 0433     		adds	r3, r3, #4
  72              		.loc 1 16 0
  73 002e 94ED010A 		vldr.32	s0, [r4, #4]
  74              		.loc 1 15 0
  75 0032 0193     		str	r3, [sp, #4]
  76              		.loc 1 16 0
  77 0034 3146     		mov	r1, r6
  78 0036 2846     		mov	r0, r5
  79 0038 FFF7FEFF 		bl	buffer_append_float32_auto
  80              	.LVL3:
  81              		.loc 1 17 0
  82 003c 3146     		mov	r1, r6
  83 003e 94ED020A 		vldr.32	s0, [r4, #8]
  84 0042 2846     		mov	r0, r5
  85 0044 FFF7FEFF 		bl	buffer_append_float32_auto
  86              	.LVL4:
  87              		.loc 1 18 0
  88 0048 3146     		mov	r1, r6
  89 004a 94ED030A 		vldr.32	s0, [r4, #12]
  90 004e 2846     		mov	r0, r5
  91 0050 FFF7FEFF 		bl	buffer_append_float32_auto
  92              	.LVL5:
  93              		.loc 1 19 0
  94 0054 3146     		mov	r1, r6
  95 0056 94ED040A 		vldr.32	s0, [r4, #16]
  96 005a 2846     		mov	r0, r5
  97 005c FFF7FEFF 		bl	buffer_append_float32_auto
  98              	.LVL6:
  99              		.loc 1 20 0
 100 0060 3146     		mov	r1, r6
 101 0062 94ED050A 		vldr.32	s0, [r4, #20]
 102 0066 2846     		mov	r0, r5
 103 0068 FFF7FEFF 		bl	buffer_append_float32_auto
 104              	.LVL7:
 105              		.loc 1 21 0
 106 006c 3146     		mov	r1, r6
 107 006e 94ED060A 		vldr.32	s0, [r4, #24]
 108 0072 2846     		mov	r0, r5
 109 0074 FFF7FEFF 		bl	buffer_append_float32_auto
 110              	.LVL8:
 111              		.loc 1 22 0
 112 0078 3146     		mov	r1, r6
 113 007a 94ED070A 		vldr.32	s0, [r4, #28]
 114 007e 2846     		mov	r0, r5
ARM GAS  C:\Users\CFAR\AppData\Local\Temp\ccBnUWel.s 			page 3


 115 0080 FFF7FEFF 		bl	buffer_append_float32_auto
 116              	.LVL9:
 117              		.loc 1 23 0
 118 0084 3146     		mov	r1, r6
 119 0086 94ED080A 		vldr.32	s0, [r4, #32]
 120 008a 2846     		mov	r0, r5
 121 008c FFF7FEFF 		bl	buffer_append_float32_auto
 122              	.LVL10:
 123              		.loc 1 24 0
 124 0090 3146     		mov	r1, r6
 125 0092 94ED090A 		vldr.32	s0, [r4, #36]
 126 0096 2846     		mov	r0, r5
 127 0098 FFF7FEFF 		bl	buffer_append_float32_auto
 128              	.LVL11:
 129              		.loc 1 25 0
 130 009c 3146     		mov	r1, r6
 131 009e 94ED0A0A 		vldr.32	s0, [r4, #40]
 132 00a2 2846     		mov	r0, r5
 133 00a4 FFF7FEFF 		bl	buffer_append_float32_auto
 134              	.LVL12:
 135              		.loc 1 26 0
 136 00a8 3146     		mov	r1, r6
 137 00aa 94ED0B0A 		vldr.32	s0, [r4, #44]
 138 00ae 2846     		mov	r0, r5
 139 00b0 FFF7FEFF 		bl	buffer_append_float32_auto
 140              	.LVL13:
 141              		.loc 1 27 0
 142 00b4 3146     		mov	r1, r6
 143 00b6 94ED0C0A 		vldr.32	s0, [r4, #48]
 144 00ba 2846     		mov	r0, r5
 145 00bc FFF7FEFF 		bl	buffer_append_float32_auto
 146              	.LVL14:
 147              		.loc 1 28 0
 148 00c0 3146     		mov	r1, r6
 149 00c2 94ED0D0A 		vldr.32	s0, [r4, #52]
 150 00c6 2846     		mov	r0, r5
 151 00c8 FFF7FEFF 		bl	buffer_append_float32_auto
 152              	.LVL15:
 153              		.loc 1 29 0
 154 00cc 3146     		mov	r1, r6
 155 00ce 94ED0E0A 		vldr.32	s0, [r4, #56]
 156 00d2 2846     		mov	r0, r5
 157 00d4 FFF7FEFF 		bl	buffer_append_float32_auto
 158              	.LVL16:
 159              		.loc 1 30 0
 160 00d8 019B     		ldr	r3, [sp, #4]
 161 00da 94F83C20 		ldrb	r2, [r4, #60]	@ zero_extendqisi2
 162 00de EA54     		strb	r2, [r5, r3]
 163              		.loc 1 31 0
 164 00e0 3146     		mov	r1, r6
 165              		.loc 1 30 0
 166 00e2 0133     		adds	r3, r3, #1
 167              		.loc 1 31 0
 168 00e4 94ED100A 		vldr.32	s0, [r4, #64]
 169              		.loc 1 30 0
 170 00e8 0193     		str	r3, [sp, #4]
 171              		.loc 1 31 0
ARM GAS  C:\Users\CFAR\AppData\Local\Temp\ccBnUWel.s 			page 4


 172 00ea 2846     		mov	r0, r5
 173 00ec FFF7FEFF 		bl	buffer_append_float32_auto
 174              	.LVL17:
 175              		.loc 1 32 0
 176 00f0 3146     		mov	r1, r6
 177 00f2 94ED110A 		vldr.32	s0, [r4, #68]
 178 00f6 2846     		mov	r0, r5
 179 00f8 FFF7FEFF 		bl	buffer_append_float32_auto
 180              	.LVL18:
 181              		.loc 1 33 0
 182 00fc 3146     		mov	r1, r6
 183 00fe 94ED120A 		vldr.32	s0, [r4, #72]
 184 0102 2846     		mov	r0, r5
 185 0104 FFF7FEFF 		bl	buffer_append_float32_auto
 186              	.LVL19:
 187              		.loc 1 34 0
 188 0108 3146     		mov	r1, r6
 189 010a 94ED130A 		vldr.32	s0, [r4, #76]
 190 010e 2846     		mov	r0, r5
 191 0110 FFF7FEFF 		bl	buffer_append_float32_auto
 192              	.LVL20:
 193              		.loc 1 35 0
 194 0114 3146     		mov	r1, r6
 195 0116 94ED140A 		vldr.32	s0, [r4, #80]
 196 011a 2846     		mov	r0, r5
 197 011c FFF7FEFF 		bl	buffer_append_float32_auto
 198              	.LVL21:
 199              		.loc 1 36 0
 200 0120 3146     		mov	r1, r6
 201 0122 94ED150A 		vldr.32	s0, [r4, #84]
 202 0126 2846     		mov	r0, r5
 203 0128 FFF7FEFF 		bl	buffer_append_float32_auto
 204              	.LVL22:
 205              		.loc 1 37 0
 206 012c 3146     		mov	r1, r6
 207 012e 94ED160A 		vldr.32	s0, [r4, #88]
 208 0132 2846     		mov	r0, r5
 209 0134 FFF7FEFF 		bl	buffer_append_float32_auto
 210              	.LVL23:
 211              		.loc 1 38 0
 212 0138 3146     		mov	r1, r6
 213 013a 94ED170A 		vldr.32	s0, [r4, #92]
 214 013e 2846     		mov	r0, r5
 215 0140 FFF7FEFF 		bl	buffer_append_float32_auto
 216              	.LVL24:
 217              		.loc 1 39 0
 218 0144 3146     		mov	r1, r6
 219 0146 94ED180A 		vldr.32	s0, [r4, #96]
 220 014a 2846     		mov	r0, r5
 221 014c FFF7FEFF 		bl	buffer_append_float32_auto
 222              	.LVL25:
 223              		.loc 1 40 0
 224 0150 3146     		mov	r1, r6
 225 0152 94ED190A 		vldr.32	s0, [r4, #100]
 226 0156 2846     		mov	r0, r5
 227 0158 FFF7FEFF 		bl	buffer_append_float32_auto
 228              	.LVL26:
ARM GAS  C:\Users\CFAR\AppData\Local\Temp\ccBnUWel.s 			page 5


 229              		.loc 1 41 0
 230 015c 3146     		mov	r1, r6
 231 015e 94ED1A0A 		vldr.32	s0, [r4, #104]
 232 0162 2846     		mov	r0, r5
 233 0164 FFF7FEFF 		bl	buffer_append_float32_auto
 234              	.LVL27:
 235              		.loc 1 42 0
 236 0168 3146     		mov	r1, r6
 237 016a 94ED1B0A 		vldr.32	s0, [r4, #108]
 238 016e 2846     		mov	r0, r5
 239 0170 FFF7FEFF 		bl	buffer_append_float32_auto
 240              	.LVL28:
 241              		.loc 1 43 0
 242 0174 3146     		mov	r1, r6
 243 0176 94ED220A 		vldr.32	s0, [r4, #136]
 244 017a 2846     		mov	r0, r5
 245 017c FFF7FEFF 		bl	buffer_append_float32_auto
 246              	.LVL29:
 247              		.loc 1 44 0
 248 0180 3146     		mov	r1, r6
 249 0182 94ED230A 		vldr.32	s0, [r4, #140]
 250 0186 2846     		mov	r0, r5
 251 0188 FFF7FEFF 		bl	buffer_append_float32_auto
 252              	.LVL30:
 253              		.loc 1 45 0
 254 018c 3146     		mov	r1, r6
 255 018e 94ED240A 		vldr.32	s0, [r4, #144]
 256 0192 2846     		mov	r0, r5
 257 0194 FFF7FEFF 		bl	buffer_append_float32_auto
 258              	.LVL31:
 259              		.loc 1 46 0
 260 0198 3146     		mov	r1, r6
 261 019a 94ED250A 		vldr.32	s0, [r4, #148]
 262 019e 2846     		mov	r0, r5
 263 01a0 FFF7FEFF 		bl	buffer_append_float32_auto
 264              	.LVL32:
 265              		.loc 1 47 0
 266 01a4 3146     		mov	r1, r6
 267 01a6 94ED260A 		vldr.32	s0, [r4, #152]
 268 01aa 2846     		mov	r0, r5
 269 01ac FFF7FEFF 		bl	buffer_append_float32_auto
 270              	.LVL33:
 271              		.loc 1 48 0
 272 01b0 3146     		mov	r1, r6
 273 01b2 94ED270A 		vldr.32	s0, [r4, #156]
 274 01b6 2846     		mov	r0, r5
 275 01b8 FFF7FEFF 		bl	buffer_append_float32_auto
 276              	.LVL34:
 277              		.loc 1 49 0
 278 01bc 3146     		mov	r1, r6
 279 01be 94ED280A 		vldr.32	s0, [r4, #160]
 280 01c2 2846     		mov	r0, r5
 281 01c4 FFF7FEFF 		bl	buffer_append_float32_auto
 282              	.LVL35:
 283              		.loc 1 50 0
 284 01c8 019A     		ldr	r2, [sp, #4]
 285 01ca 94F8A430 		ldrb	r3, [r4, #164]	@ zero_extendqisi2
ARM GAS  C:\Users\CFAR\AppData\Local\Temp\ccBnUWel.s 			page 6


 286 01ce AB54     		strb	r3, [r5, r2]
 287              		.loc 1 51 0
 288 01d0 AB18     		adds	r3, r5, r2
 289 01d2 94F8A510 		ldrb	r1, [r4, #165]	@ zero_extendqisi2
 290 01d6 5970     		strb	r1, [r3, #1]
 291              		.loc 1 52 0
 292 01d8 94F8A610 		ldrb	r1, [r4, #166]	@ zero_extendqisi2
 293 01dc 9970     		strb	r1, [r3, #2]
 294              		.loc 1 53 0
 295 01de 94F8A710 		ldrb	r1, [r4, #167]	@ zero_extendqisi2
 296 01e2 D970     		strb	r1, [r3, #3]
 297              		.loc 1 54 0
 298 01e4 94F8A810 		ldrb	r1, [r4, #168]	@ zero_extendqisi2
 299 01e8 1971     		strb	r1, [r3, #4]
 300              		.loc 1 55 0
 301 01ea 94F8A910 		ldrb	r1, [r4, #169]	@ zero_extendqisi2
 302 01ee 5971     		strb	r1, [r3, #5]
 303              		.loc 1 56 0
 304 01f0 94F8AA10 		ldrb	r1, [r4, #170]	@ zero_extendqisi2
 305 01f4 9971     		strb	r1, [r3, #6]
 306              		.loc 1 57 0
 307 01f6 94F9AB10 		ldrsb	r1, [r4, #171]
 308 01fa D971     		strb	r1, [r3, #7]
 309 01fc 0832     		adds	r2, r2, #8
 310              		.loc 1 58 0
 311 01fe 94ED2B0A 		vldr.32	s0, [r4, #172]
 312              		.loc 1 57 0
 313 0202 0192     		str	r2, [sp, #4]
 314              		.loc 1 58 0
 315 0204 3146     		mov	r1, r6
 316 0206 2846     		mov	r0, r5
 317 0208 FFF7FEFF 		bl	buffer_append_float32_auto
 318              	.LVL36:
 319              		.loc 1 59 0
 320 020c 3146     		mov	r1, r6
 321 020e 94ED2C0A 		vldr.32	s0, [r4, #176]
 322 0212 2846     		mov	r0, r5
 323 0214 FFF7FEFF 		bl	buffer_append_float32_auto
 324              	.LVL37:
 325              		.loc 1 60 0
 326 0218 3146     		mov	r1, r6
 327 021a 94ED2D0A 		vldr.32	s0, [r4, #180]
 328 021e 2846     		mov	r0, r5
 329 0220 FFF7FEFF 		bl	buffer_append_float32_auto
 330              	.LVL38:
 331              		.loc 1 61 0
 332 0224 3146     		mov	r1, r6
 333 0226 94ED2E0A 		vldr.32	s0, [r4, #184]
 334 022a 2846     		mov	r0, r5
 335 022c FFF7FEFF 		bl	buffer_append_float32_auto
 336              	.LVL39:
 337              		.loc 1 62 0
 338 0230 3146     		mov	r1, r6
 339 0232 94ED2F0A 		vldr.32	s0, [r4, #188]
 340 0236 2846     		mov	r0, r5
 341 0238 FFF7FEFF 		bl	buffer_append_float32_auto
 342              	.LVL40:
ARM GAS  C:\Users\CFAR\AppData\Local\Temp\ccBnUWel.s 			page 7


 343              		.loc 1 63 0
 344 023c 019B     		ldr	r3, [sp, #4]
 345 023e 94F8C420 		ldrb	r2, [r4, #196]	@ zero_extendqisi2
 346 0242 EA54     		strb	r2, [r5, r3]
 347              		.loc 1 64 0
 348 0244 3146     		mov	r1, r6
 349              		.loc 1 63 0
 350 0246 0133     		adds	r3, r3, #1
 351              		.loc 1 64 0
 352 0248 94ED300A 		vldr.32	s0, [r4, #192]
 353              		.loc 1 63 0
 354 024c 0193     		str	r3, [sp, #4]
 355              		.loc 1 64 0
 356 024e 2846     		mov	r0, r5
 357 0250 FFF7FEFF 		bl	buffer_append_float32_auto
 358              	.LVL41:
 359              		.loc 1 65 0
 360 0254 3146     		mov	r1, r6
 361 0256 94ED320A 		vldr.32	s0, [r4, #200]
 362 025a 2846     		mov	r0, r5
 363 025c FFF7FEFF 		bl	buffer_append_float32_auto
 364              	.LVL42:
 365              		.loc 1 66 0
 366 0260 3146     		mov	r1, r6
 367 0262 94ED340A 		vldr.32	s0, [r4, #208]
 368 0266 2846     		mov	r0, r5
 369 0268 FFF7FEFF 		bl	buffer_append_float32_auto
 370              	.LVL43:
 371              		.loc 1 67 0
 372 026c 3146     		mov	r1, r6
 373 026e 94ED360A 		vldr.32	s0, [r4, #216]
 374 0272 2846     		mov	r0, r5
 375 0274 FFF7FEFF 		bl	buffer_append_float32_auto
 376              	.LVL44:
 377              		.loc 1 68 0
 378 0278 3146     		mov	r1, r6
 379 027a 94ED330A 		vldr.32	s0, [r4, #204]
 380 027e 2846     		mov	r0, r5
 381 0280 FFF7FEFF 		bl	buffer_append_float32_auto
 382              	.LVL45:
 383              		.loc 1 69 0
 384 0284 3146     		mov	r1, r6
 385 0286 94ED350A 		vldr.32	s0, [r4, #212]
 386 028a 2846     		mov	r0, r5
 387 028c FFF7FEFF 		bl	buffer_append_float32_auto
 388              	.LVL46:
 389              		.loc 1 70 0
 390 0290 3146     		mov	r1, r6
 391 0292 94ED370A 		vldr.32	s0, [r4, #220]
 392 0296 2846     		mov	r0, r5
 393 0298 FFF7FEFF 		bl	buffer_append_float32_auto
 394              	.LVL47:
 395              		.loc 1 71 0
 396 029c 019B     		ldr	r3, [sp, #4]
 397 029e 94F81821 		ldrb	r2, [r4, #280]	@ zero_extendqisi2
 398 02a2 EA54     		strb	r2, [r5, r3]
 399              		.loc 1 72 0
ARM GAS  C:\Users\CFAR\AppData\Local\Temp\ccBnUWel.s 			page 8


 400 02a4 3146     		mov	r1, r6
 401              		.loc 1 71 0
 402 02a6 0133     		adds	r3, r3, #1
 403              		.loc 1 72 0
 404 02a8 94ED3D0A 		vldr.32	s0, [r4, #244]
 405              		.loc 1 71 0
 406 02ac 0193     		str	r3, [sp, #4]
 407              		.loc 1 72 0
 408 02ae 2846     		mov	r0, r5
 409 02b0 FFF7FEFF 		bl	buffer_append_float32_auto
 410              	.LVL48:
 411              		.loc 1 73 0
 412 02b4 3146     		mov	r1, r6
 413 02b6 94ED3E0A 		vldr.32	s0, [r4, #248]
 414 02ba 2846     		mov	r0, r5
 415 02bc FFF7FEFF 		bl	buffer_append_float32_auto
 416              	.LVL49:
 417              		.loc 1 74 0
 418 02c0 3146     		mov	r1, r6
 419 02c2 94ED380A 		vldr.32	s0, [r4, #224]
 420 02c6 2846     		mov	r0, r5
 421 02c8 FFF7FEFF 		bl	buffer_append_float32_auto
 422              	.LVL50:
 423              		.loc 1 75 0
 424 02cc 3146     		mov	r1, r6
 425 02ce 94ED390A 		vldr.32	s0, [r4, #228]
 426 02d2 2846     		mov	r0, r5
 427 02d4 FFF7FEFF 		bl	buffer_append_float32_auto
 428              	.LVL51:
 429              		.loc 1 76 0
 430 02d8 3146     		mov	r1, r6
 431 02da 94ED3A0A 		vldr.32	s0, [r4, #232]
 432 02de 2846     		mov	r0, r5
 433 02e0 FFF7FEFF 		bl	buffer_append_float32_auto
 434              	.LVL52:
 435              		.loc 1 77 0
 436 02e4 3146     		mov	r1, r6
 437 02e6 94ED3B0A 		vldr.32	s0, [r4, #236]
 438 02ea 2846     		mov	r0, r5
 439 02ec FFF7FEFF 		bl	buffer_append_float32_auto
 440              	.LVL53:
 441              		.loc 1 78 0
 442 02f0 3146     		mov	r1, r6
 443 02f2 94ED3C0A 		vldr.32	s0, [r4, #240]
 444 02f6 2846     		mov	r0, r5
 445 02f8 FFF7FEFF 		bl	buffer_append_float32_auto
 446              	.LVL54:
 447              		.loc 1 79 0
 448 02fc 3146     		mov	r1, r6
 449 02fe 94ED3F0A 		vldr.32	s0, [r4, #252]
 450 0302 2846     		mov	r0, r5
 451 0304 FFF7FEFF 		bl	buffer_append_float32_auto
 452              	.LVL55:
 453              		.loc 1 80 0
 454 0308 3146     		mov	r1, r6
 455 030a 94ED400A 		vldr.32	s0, [r4, #256]
 456 030e 2846     		mov	r0, r5
ARM GAS  C:\Users\CFAR\AppData\Local\Temp\ccBnUWel.s 			page 9


 457 0310 FFF7FEFF 		bl	buffer_append_float32_auto
 458              	.LVL56:
 459              		.loc 1 81 0
 460 0314 3146     		mov	r1, r6
 461 0316 94ED410A 		vldr.32	s0, [r4, #260]
 462 031a 2846     		mov	r0, r5
 463 031c FFF7FEFF 		bl	buffer_append_float32_auto
 464              	.LVL57:
 465              		.loc 1 82 0
 466 0320 3146     		mov	r1, r6
 467 0322 94ED420A 		vldr.32	s0, [r4, #264]
 468 0326 2846     		mov	r0, r5
 469 0328 FFF7FEFF 		bl	buffer_append_float32_auto
 470              	.LVL58:
 471              		.loc 1 83 0
 472 032c 3146     		mov	r1, r6
 473 032e 94ED430A 		vldr.32	s0, [r4, #268]
 474 0332 2846     		mov	r0, r5
 475 0334 FFF7FEFF 		bl	buffer_append_float32_auto
 476              	.LVL59:
 477              		.loc 1 84 0
 478 0338 3146     		mov	r1, r6
 479 033a 94ED440A 		vldr.32	s0, [r4, #272]
 480 033e 2846     		mov	r0, r5
 481 0340 FFF7FEFF 		bl	buffer_append_float32_auto
 482              	.LVL60:
 483              		.loc 1 85 0
 484 0344 3146     		mov	r1, r6
 485 0346 94ED450A 		vldr.32	s0, [r4, #276]
 486 034a 2846     		mov	r0, r5
 487 034c FFF7FEFF 		bl	buffer_append_float32_auto
 488              	.LVL61:
 489              		.loc 1 86 0
 490 0350 019A     		ldr	r2, [sp, #4]
 491 0352 94F81931 		ldrb	r3, [r4, #281]	@ zero_extendqisi2
 492 0356 AB54     		strb	r3, [r5, r2]
 493              		.loc 1 87 0
 494 0358 AB18     		adds	r3, r5, r2
 495 035a 94F81A11 		ldrb	r1, [r4, #282]	@ zero_extendqisi2
 496 035e 5970     		strb	r1, [r3, #1]
 497              		.loc 1 88 0
 498 0360 94F81B11 		ldrb	r1, [r4, #283]	@ zero_extendqisi2
 499 0364 9970     		strb	r1, [r3, #2]
 500              		.loc 1 89 0
 501 0366 94F81C11 		ldrb	r1, [r4, #284]	@ zero_extendqisi2
 502 036a D970     		strb	r1, [r3, #3]
 503              		.loc 1 90 0
 504 036c 94F81D11 		ldrb	r1, [r4, #285]	@ zero_extendqisi2
 505 0370 1971     		strb	r1, [r3, #4]
 506              		.loc 1 91 0
 507 0372 94F81E11 		ldrb	r1, [r4, #286]	@ zero_extendqisi2
 508 0376 5971     		strb	r1, [r3, #5]
 509              		.loc 1 92 0
 510 0378 94F81F11 		ldrb	r1, [r4, #287]	@ zero_extendqisi2
 511 037c 9971     		strb	r1, [r3, #6]
 512              		.loc 1 93 0
 513 037e 94F82011 		ldrb	r1, [r4, #288]	@ zero_extendqisi2
ARM GAS  C:\Users\CFAR\AppData\Local\Temp\ccBnUWel.s 			page 10


 514 0382 D971     		strb	r1, [r3, #7]
 515 0384 0832     		adds	r2, r2, #8
 516              		.loc 1 94 0
 517 0386 94ED490A 		vldr.32	s0, [r4, #292]
 518              		.loc 1 93 0
 519 038a 0192     		str	r2, [sp, #4]
 520              		.loc 1 94 0
 521 038c 3146     		mov	r1, r6
 522 038e 2846     		mov	r0, r5
 523 0390 FFF7FEFF 		bl	buffer_append_float32_auto
 524              	.LVL62:
 525              		.loc 1 95 0
 526 0394 019B     		ldr	r3, [sp, #4]
 527 0396 94F82821 		ldrb	r2, [r4, #296]	@ zero_extendqisi2
 528 039a EA54     		strb	r2, [r5, r3]
 529              		.loc 1 96 0
 530 039c EA18     		adds	r2, r5, r3
 531 039e 94F82911 		ldrb	r1, [r4, #297]	@ zero_extendqisi2
 532 03a2 5170     		strb	r1, [r2, #1]
 533 03a4 0233     		adds	r3, r3, #2
 534              		.loc 1 97 0
 535 03a6 94ED4B0A 		vldr.32	s0, [r4, #300]
 536              		.loc 1 96 0
 537 03aa 0193     		str	r3, [sp, #4]
 538              		.loc 1 97 0
 539 03ac 3146     		mov	r1, r6
 540 03ae 2846     		mov	r0, r5
 541 03b0 FFF7FEFF 		bl	buffer_append_float32_auto
 542              	.LVL63:
 543              		.loc 1 98 0
 544 03b4 019B     		ldr	r3, [sp, #4]
 545 03b6 94F83021 		ldrb	r2, [r4, #304]	@ zero_extendqisi2
 546 03ba EA54     		strb	r2, [r5, r3]
 547              		.loc 1 99 0
 548 03bc 3146     		mov	r1, r6
 549              		.loc 1 98 0
 550 03be 0133     		adds	r3, r3, #1
 551              		.loc 1 99 0
 552 03c0 94ED4D0A 		vldr.32	s0, [r4, #308]
 553              		.loc 1 98 0
 554 03c4 0193     		str	r3, [sp, #4]
 555              		.loc 1 99 0
 556 03c6 2846     		mov	r0, r5
 557 03c8 FFF7FEFF 		bl	buffer_append_float32_auto
 558              	.LVL64:
 559              		.loc 1 100 0
 560 03cc 3146     		mov	r1, r6
 561 03ce 94ED4E0A 		vldr.32	s0, [r4, #312]
 562 03d2 2846     		mov	r0, r5
 563 03d4 FFF7FEFF 		bl	buffer_append_float32_auto
 564              	.LVL65:
 565              		.loc 1 101 0
 566 03d8 019B     		ldr	r3, [sp, #4]
 567 03da 01E0     		b	.L5
 568              	.L6:
 569              		.align	2
 570              	.L4:
ARM GAS  C:\Users\CFAR\AppData\Local\Temp\ccBnUWel.s 			page 11


 571 03dc BD3E73DC 		.word	-596427075
 572              	.L5:
 573 03e0 94F83C21 		ldrb	r2, [r4, #316]	@ zero_extendqisi2
 574 03e4 EA54     		strb	r2, [r5, r3]
 575              		.loc 1 102 0
 576 03e6 EA18     		adds	r2, r5, r3
 577 03e8 94F83D11 		ldrb	r1, [r4, #317]	@ zero_extendqisi2
 578 03ec 5170     		strb	r1, [r2, #1]
 579 03ee 0233     		adds	r3, r3, #2
 580              		.loc 1 103 0
 581 03f0 94ED500A 		vldr.32	s0, [r4, #320]
 582              		.loc 1 102 0
 583 03f4 0193     		str	r3, [sp, #4]
 584              		.loc 1 103 0
 585 03f6 3146     		mov	r1, r6
 586 03f8 2846     		mov	r0, r5
 587 03fa FFF7FEFF 		bl	buffer_append_float32_auto
 588              	.LVL66:
 589              		.loc 1 104 0
 590 03fe 3146     		mov	r1, r6
 591 0400 94ED510A 		vldr.32	s0, [r4, #324]
 592 0404 2846     		mov	r0, r5
 593 0406 FFF7FEFF 		bl	buffer_append_float32_auto
 594              	.LVL67:
 595              		.loc 1 105 0
 596 040a 3146     		mov	r1, r6
 597 040c 94ED520A 		vldr.32	s0, [r4, #328]
 598 0410 2846     		mov	r0, r5
 599 0412 FFF7FEFF 		bl	buffer_append_float32_auto
 600              	.LVL68:
 601              		.loc 1 106 0
 602 0416 94ED530A 		vldr.32	s0, [r4, #332]
 603 041a 3146     		mov	r1, r6
 604 041c 2846     		mov	r0, r5
 605 041e FFF7FEFF 		bl	buffer_append_float32_auto
 606              	.LVL69:
 607              		.loc 1 107 0
 608 0422 3246     		mov	r2, r6
 609 0424 B4F85011 		ldrh	r1, [r4, #336]
 610 0428 2846     		mov	r0, r5
 611 042a FFF7FEFF 		bl	buffer_append_uint16
 612              	.LVL70:
 613              		.loc 1 108 0
 614 042e 94ED550A 		vldr.32	s0, [r4, #340]
 615 0432 3146     		mov	r1, r6
 616 0434 2846     		mov	r0, r5
 617 0436 FFF7FEFF 		bl	buffer_append_float32_auto
 618              	.LVL71:
 619              		.loc 1 109 0
 620 043a 019B     		ldr	r3, [sp, #4]
 621 043c 94F85821 		ldrb	r2, [r4, #344]	@ zero_extendqisi2
 622 0440 EA54     		strb	r2, [r5, r3]
 623              		.loc 1 110 0
 624 0442 2846     		mov	r0, r5
 625              		.loc 1 109 0
 626 0444 0133     		adds	r3, r3, #1
 627              		.loc 1 110 0
ARM GAS  C:\Users\CFAR\AppData\Local\Temp\ccBnUWel.s 			page 12


 628 0446 B4F95C11 		ldrsh	r1, [r4, #348]
 629              		.loc 1 109 0
 630 044a 0193     		str	r3, [sp, #4]
 631              		.loc 1 110 0
 632 044c 3246     		mov	r2, r6
 633 044e FFF7FEFF 		bl	buffer_append_int16
 634              	.LVL72:
 635              		.loc 1 111 0
 636 0452 3246     		mov	r2, r6
 637 0454 B4F96011 		ldrsh	r1, [r4, #352]
 638 0458 2846     		mov	r0, r5
 639 045a FFF7FEFF 		bl	buffer_append_int16
 640              	.LVL73:
 641              		.loc 1 112 0
 642 045e 3146     		mov	r1, r6
 643 0460 94ED590A 		vldr.32	s0, [r4, #356]
 644 0464 2846     		mov	r0, r5
 645 0466 FFF7FEFF 		bl	buffer_append_float32_auto
 646              	.LVL74:
 647              		.loc 1 113 0
 648 046a 3146     		mov	r1, r6
 649 046c 94ED5A0A 		vldr.32	s0, [r4, #360]
 650 0470 2846     		mov	r0, r5
 651 0472 FFF7FEFF 		bl	buffer_append_float32_auto
 652              	.LVL75:
 653              		.loc 1 114 0
 654 0476 3146     		mov	r1, r6
 655 0478 94ED5B0A 		vldr.32	s0, [r4, #364]
 656 047c 2846     		mov	r0, r5
 657 047e FFF7FEFF 		bl	buffer_append_float32_auto
 658              	.LVL76:
 659              		.loc 1 115 0
 660 0482 3146     		mov	r1, r6
 661 0484 94ED5C0A 		vldr.32	s0, [r4, #368]
 662 0488 2846     		mov	r0, r5
 663 048a FFF7FEFF 		bl	buffer_append_float32_auto
 664              	.LVL77:
 665              		.loc 1 116 0
 666 048e 3146     		mov	r1, r6
 667 0490 94ED5D0A 		vldr.32	s0, [r4, #372]
 668 0494 2846     		mov	r0, r5
 669 0496 FFF7FEFF 		bl	buffer_append_float32_auto
 670              	.LVL78:
 671              		.loc 1 117 0
 672 049a 3146     		mov	r1, r6
 673 049c 94ED5E0A 		vldr.32	s0, [r4, #376]
 674 04a0 2846     		mov	r0, r5
 675 04a2 FFF7FEFF 		bl	buffer_append_float32_auto
 676              	.LVL79:
 677              		.loc 1 118 0
 678 04a6 3146     		mov	r1, r6
 679 04a8 94ED5F0A 		vldr.32	s0, [r4, #380]
 680 04ac 2846     		mov	r0, r5
 681 04ae FFF7FEFF 		bl	buffer_append_float32_auto
 682              	.LVL80:
 683              		.loc 1 119 0
 684 04b2 3146     		mov	r1, r6
ARM GAS  C:\Users\CFAR\AppData\Local\Temp\ccBnUWel.s 			page 13


 685 04b4 94ED600A 		vldr.32	s0, [r4, #384]
 686 04b8 2846     		mov	r0, r5
 687 04ba FFF7FEFF 		bl	buffer_append_float32_auto
 688              	.LVL81:
 689              		.loc 1 120 0
 690 04be 019B     		ldr	r3, [sp, #4]
 691 04c0 94F88421 		ldrb	r2, [r4, #388]	@ zero_extendqisi2
 692 04c4 EA54     		strb	r2, [r5, r3]
 693              		.loc 1 121 0
 694 04c6 3146     		mov	r1, r6
 695              		.loc 1 120 0
 696 04c8 0133     		adds	r3, r3, #1
 697              		.loc 1 121 0
 698 04ca 94ED620A 		vldr.32	s0, [r4, #392]
 699              		.loc 1 120 0
 700 04ce 0193     		str	r3, [sp, #4]
 701              		.loc 1 121 0
 702 04d0 2846     		mov	r0, r5
 703 04d2 FFF7FEFF 		bl	buffer_append_float32_auto
 704              	.LVL82:
 705              		.loc 1 122 0
 706 04d6 3146     		mov	r1, r6
 707 04d8 94ED630A 		vldr.32	s0, [r4, #396]
 708 04dc 2846     		mov	r0, r5
 709 04de FFF7FEFF 		bl	buffer_append_float32_auto
 710              	.LVL83:
 711              		.loc 1 123 0
 712 04e2 3146     		mov	r1, r6
 713 04e4 94ED640A 		vldr.32	s0, [r4, #400]
 714 04e8 2846     		mov	r0, r5
 715 04ea FFF7FEFF 		bl	buffer_append_float32_auto
 716              	.LVL84:
 717              		.loc 1 124 0
 718 04ee 3146     		mov	r1, r6
 719 04f0 94ED650A 		vldr.32	s0, [r4, #404]
 720 04f4 2846     		mov	r0, r5
 721 04f6 FFF7FEFF 		bl	buffer_append_float32_auto
 722              	.LVL85:
 723              		.loc 1 125 0
 724 04fa 3146     		mov	r1, r6
 725 04fc 94ED660A 		vldr.32	s0, [r4, #408]
 726 0500 2846     		mov	r0, r5
 727 0502 FFF7FEFF 		bl	buffer_append_float32_auto
 728              	.LVL86:
 729              		.loc 1 126 0
 730 0506 3146     		mov	r1, r6
 731 0508 94ED670A 		vldr.32	s0, [r4, #412]
 732 050c 2846     		mov	r0, r5
 733 050e FFF7FEFF 		bl	buffer_append_float32_auto
 734              	.LVL87:
 735              		.loc 1 127 0
 736 0512 3146     		mov	r1, r6
 737 0514 94ED680A 		vldr.32	s0, [r4, #416]
 738 0518 2846     		mov	r0, r5
 739 051a FFF7FEFF 		bl	buffer_append_float32_auto
 740              	.LVL88:
 741              		.loc 1 128 0
ARM GAS  C:\Users\CFAR\AppData\Local\Temp\ccBnUWel.s 			page 14


 742 051e 3146     		mov	r1, r6
 743 0520 94ED690A 		vldr.32	s0, [r4, #420]
 744 0524 2846     		mov	r0, r5
 745 0526 FFF7FEFF 		bl	buffer_append_float32_auto
 746              	.LVL89:
 747              		.loc 1 129 0
 748 052a 94ED6A0A 		vldr.32	s0, [r4, #424]
 749 052e 3146     		mov	r1, r6
 750 0530 2846     		mov	r0, r5
 751 0532 FFF7FEFF 		bl	buffer_append_float32_auto
 752              	.LVL90:
 753              		.loc 1 130 0
 754 0536 3246     		mov	r2, r6
 755 0538 D4F8AC11 		ldr	r1, [r4, #428]
 756 053c 2846     		mov	r0, r5
 757 053e FFF7FEFF 		bl	buffer_append_int32
 758              	.LVL91:
 759              		.loc 1 131 0
 760 0542 3146     		mov	r1, r6
 761 0544 94ED6C0A 		vldr.32	s0, [r4, #432]
 762 0548 2846     		mov	r0, r5
 763 054a FFF7FEFF 		bl	buffer_append_float32_auto
 764              	.LVL92:
 765              		.loc 1 132 0
 766 054e 94ED6D0A 		vldr.32	s0, [r4, #436]
 767 0552 3146     		mov	r1, r6
 768 0554 2846     		mov	r0, r5
 769 0556 FFF7FEFF 		bl	buffer_append_float32_auto
 770              	.LVL93:
 771              		.loc 1 133 0
 772 055a 3246     		mov	r2, r6
 773 055c D4F8B811 		ldr	r1, [r4, #440]
 774 0560 2846     		mov	r0, r5
 775 0562 FFF7FEFF 		bl	buffer_append_uint32
 776              	.LVL94:
 777              		.loc 1 134 0
 778 0566 019B     		ldr	r3, [sp, #4]
 779 0568 94F8BC21 		ldrb	r2, [r4, #444]	@ zero_extendqisi2
 780 056c EA54     		strb	r2, [r5, r3]
 781              		.loc 1 135 0
 782 056e EA18     		adds	r2, r5, r3
 783 0570 94F8BD11 		ldrb	r1, [r4, #445]	@ zero_extendqisi2
 784 0574 5170     		strb	r1, [r2, #1]
 785              		.loc 1 136 0
 786 0576 94F8BE11 		ldrb	r1, [r4, #446]	@ zero_extendqisi2
 787 057a 9170     		strb	r1, [r2, #2]
 788              		.loc 1 137 0
 789 057c D4F8C011 		ldr	r1, [r4, #448]
 790 0580 D170     		strb	r1, [r2, #3]
 791 0582 0433     		adds	r3, r3, #4
 792              		.loc 1 138 0
 793 0584 94ED710A 		vldr.32	s0, [r4, #452]
 794              		.loc 1 137 0
 795 0588 0193     		str	r3, [sp, #4]
 796              		.loc 1 138 0
 797 058a 3146     		mov	r1, r6
 798 058c 2846     		mov	r0, r5
ARM GAS  C:\Users\CFAR\AppData\Local\Temp\ccBnUWel.s 			page 15


 799 058e FFF7FEFF 		bl	buffer_append_float32_auto
 800              	.LVL95:
 801              		.loc 1 139 0
 802 0592 3146     		mov	r1, r6
 803 0594 94ED720A 		vldr.32	s0, [r4, #456]
 804 0598 2846     		mov	r0, r5
 805 059a FFF7FEFF 		bl	buffer_append_float32_auto
 806              	.LVL96:
 807              		.loc 1 140 0
 808 059e 3146     		mov	r1, r6
 809 05a0 94ED730A 		vldr.32	s0, [r4, #460]
 810 05a4 2846     		mov	r0, r5
 811 05a6 FFF7FEFF 		bl	buffer_append_float32_auto
 812              	.LVL97:
 813              		.loc 1 141 0
 814 05aa 3146     		mov	r1, r6
 815 05ac 94ED740A 		vldr.32	s0, [r4, #464]
 816 05b0 2846     		mov	r0, r5
 817 05b2 FFF7FEFF 		bl	buffer_append_float32_auto
 818              	.LVL98:
 819              		.loc 1 142 0
 820 05b6 019B     		ldr	r3, [sp, #4]
 821 05b8 94F8D421 		ldrb	r2, [r4, #468]	@ zero_extendqisi2
 822 05bc EA54     		strb	r2, [r5, r3]
 823              		.loc 1 143 0
 824 05be EA18     		adds	r2, r5, r3
 825 05c0 94F8D511 		ldrb	r1, [r4, #469]	@ zero_extendqisi2
 826 05c4 5170     		strb	r1, [r2, #1]
 827 05c6 0233     		adds	r3, r3, #2
 828              		.loc 1 144 0
 829 05c8 94ED760A 		vldr.32	s0, [r4, #472]
 830              		.loc 1 143 0
 831 05cc 0193     		str	r3, [sp, #4]
 832              		.loc 1 144 0
 833 05ce 3146     		mov	r1, r6
 834 05d0 2846     		mov	r0, r5
 835 05d2 FFF7FEFF 		bl	buffer_append_float32_auto
 836              	.LVL99:
 837              		.loc 1 145 0
 838 05d6 019B     		ldr	r3, [sp, #4]
 839 05d8 94F8DC21 		ldrb	r2, [r4, #476]	@ zero_extendqisi2
 840 05dc EA54     		strb	r2, [r5, r3]
 841              		.loc 1 146 0
 842 05de 3146     		mov	r1, r6
 843              		.loc 1 145 0
 844 05e0 0133     		adds	r3, r3, #1
 845              		.loc 1 146 0
 846 05e2 94ED780A 		vldr.32	s0, [r4, #480]
 847              		.loc 1 145 0
 848 05e6 0193     		str	r3, [sp, #4]
 849              		.loc 1 146 0
 850 05e8 2846     		mov	r0, r5
 851 05ea FFF7FEFF 		bl	buffer_append_float32_auto
 852              	.LVL100:
 853              		.loc 1 147 0
 854 05ee 3146     		mov	r1, r6
 855 05f0 94ED790A 		vldr.32	s0, [r4, #484]
ARM GAS  C:\Users\CFAR\AppData\Local\Temp\ccBnUWel.s 			page 16


 856 05f4 2846     		mov	r0, r5
 857 05f6 FFF7FEFF 		bl	buffer_append_float32_auto
 858              	.LVL101:
 859              		.loc 1 148 0
 860 05fa 019B     		ldr	r3, [sp, #4]
 861 05fc 94F8E821 		ldrb	r2, [r4, #488]	@ zero_extendqisi2
 862 0600 EA54     		strb	r2, [r5, r3]
 863              		.loc 1 149 0
 864 0602 EA18     		adds	r2, r5, r3
 865 0604 D4F8EC11 		ldr	r1, [r4, #492]
 866 0608 5170     		strb	r1, [r2, #1]
 867 060a 0233     		adds	r3, r3, #2
 868              		.loc 1 150 0
 869 060c 2846     		mov	r0, r5
 870 060e 3146     		mov	r1, r6
 871 0610 94ED7C0A 		vldr.32	s0, [r4, #496]
 872              		.loc 1 149 0
 873 0614 0193     		str	r3, [sp, #4]
 874              		.loc 1 150 0
 875 0616 FFF7FEFF 		bl	buffer_append_float32_auto
 876              	.LVL102:
 877              		.loc 1 153 0
 878 061a 0198     		ldr	r0, [sp, #4]
 879 061c 02B0     		add	sp, sp, #8
 880              		.cfi_def_cfa_offset 16
 881              		@ sp needed
 882 061e 70BD     		pop	{r4, r5, r6, pc}
 883              		.cfi_endproc
 884              	.LFE219:
 885              		.size	confgenerator_serialize_mcconf, .-confgenerator_serialize_mcconf
 886              		.section	.text.confgenerator_serialize_appconf,"ax",%progbits
 887              		.align	1
 888              		.p2align 4,,15
 889              		.global	confgenerator_serialize_appconf
 890              		.syntax unified
 891              		.thumb
 892              		.thumb_func
 893              		.fpu fpv4-sp-d16
 894              		.type	confgenerator_serialize_appconf, %function
 895              	confgenerator_serialize_appconf:
 896              	.LFB220:
 897              		.loc 1 155 0
 898              		.cfi_startproc
 899              		@ args = 0, pretend = 0, frame = 8
 900              		@ frame_needed = 0, uses_anonymous_args = 0
 901              	.LVL103:
 902 0000 70B5     		push	{r4, r5, r6, lr}
 903              		.cfi_def_cfa_offset 16
 904              		.cfi_offset 4, -16
 905              		.cfi_offset 5, -12
 906              		.cfi_offset 6, -8
 907              		.cfi_offset 14, -4
 908 0002 82B0     		sub	sp, sp, #8
 909              		.cfi_def_cfa_offset 24
 910              		.loc 1 156 0
 911 0004 02AE     		add	r6, sp, #8
 912 0006 0023     		movs	r3, #0
ARM GAS  C:\Users\CFAR\AppData\Local\Temp\ccBnUWel.s 			page 17


 913 0008 46F8043D 		str	r3, [r6, #-4]!
 914              		.loc 1 155 0
 915 000c 0C46     		mov	r4, r1
 916              		.loc 1 158 0
 917 000e 3246     		mov	r2, r6
 918 0010 E949     		ldr	r1, .L9
 919              	.LVL104:
 920              		.loc 1 155 0
 921 0012 0546     		mov	r5, r0
 922              		.loc 1 158 0
 923 0014 FFF7FEFF 		bl	buffer_append_uint32
 924              	.LVL105:
 925              		.loc 1 160 0
 926 0018 019B     		ldr	r3, [sp, #4]
 927 001a 2278     		ldrb	r2, [r4]	@ zero_extendqisi2
 928 001c EA54     		strb	r2, [r5, r3]
 929              		.loc 1 161 0
 930 001e 2846     		mov	r0, r5
 931              		.loc 1 160 0
 932 0020 0133     		adds	r3, r3, #1
 933              		.loc 1 161 0
 934 0022 3246     		mov	r2, r6
 935 0024 6168     		ldr	r1, [r4, #4]
 936              		.loc 1 160 0
 937 0026 0193     		str	r3, [sp, #4]
 938              		.loc 1 161 0
 939 0028 FFF7FEFF 		bl	buffer_append_uint32
 940              	.LVL106:
 941              		.loc 1 162 0
 942 002c 94ED020A 		vldr.32	s0, [r4, #8]
 943 0030 3146     		mov	r1, r6
 944 0032 2846     		mov	r0, r5
 945 0034 FFF7FEFF 		bl	buffer_append_float32_auto
 946              	.LVL107:
 947              		.loc 1 163 0
 948 0038 019B     		ldr	r3, [sp, #4]
 949 003a 227B     		ldrb	r2, [r4, #12]	@ zero_extendqisi2
 950 003c EA54     		strb	r2, [r5, r3]
 951              		.loc 1 164 0
 952 003e 2846     		mov	r0, r5
 953              		.loc 1 163 0
 954 0040 0133     		adds	r3, r3, #1
 955              		.loc 1 164 0
 956 0042 218A     		ldrh	r1, [r4, #16]
 957              		.loc 1 163 0
 958 0044 0193     		str	r3, [sp, #4]
 959              		.loc 1 164 0
 960 0046 3246     		mov	r2, r6
 961 0048 FFF7FEFF 		bl	buffer_append_uint16
 962              	.LVL108:
 963              		.loc 1 165 0
 964 004c 019A     		ldr	r2, [sp, #4]
 965 004e 237D     		ldrb	r3, [r4, #20]	@ zero_extendqisi2
 966 0050 AB54     		strb	r3, [r5, r2]
 967              		.loc 1 166 0
 968 0052 AB18     		adds	r3, r5, r2
 969 0054 617D     		ldrb	r1, [r4, #21]	@ zero_extendqisi2
ARM GAS  C:\Users\CFAR\AppData\Local\Temp\ccBnUWel.s 			page 18


 970 0056 5970     		strb	r1, [r3, #1]
 971              		.loc 1 167 0
 972 0058 A17D     		ldrb	r1, [r4, #22]	@ zero_extendqisi2
 973 005a 9970     		strb	r1, [r3, #2]
 974              		.loc 1 168 0
 975 005c E17D     		ldrb	r1, [r4, #23]	@ zero_extendqisi2
 976 005e D970     		strb	r1, [r3, #3]
 977              		.loc 1 169 0
 978 0060 217E     		ldrb	r1, [r4, #24]	@ zero_extendqisi2
 979 0062 1971     		strb	r1, [r3, #4]
 980              		.loc 1 170 0
 981 0064 617E     		ldrb	r1, [r4, #25]	@ zero_extendqisi2
 982 0066 5971     		strb	r1, [r3, #5]
 983              		.loc 1 171 0
 984 0068 A17E     		ldrb	r1, [r4, #26]	@ zero_extendqisi2
 985 006a 9971     		strb	r1, [r3, #6]
 986              		.loc 1 172 0
 987 006c 217F     		ldrb	r1, [r4, #28]	@ zero_extendqisi2
 988 006e D971     		strb	r1, [r3, #7]
 989 0070 0832     		adds	r2, r2, #8
 990              		.loc 1 173 0
 991 0072 94ED080A 		vldr.32	s0, [r4, #32]
 992              		.loc 1 172 0
 993 0076 0192     		str	r2, [sp, #4]
 994              		.loc 1 173 0
 995 0078 3146     		mov	r1, r6
 996 007a 2846     		mov	r0, r5
 997 007c FFF7FEFF 		bl	buffer_append_float32_auto
 998              	.LVL109:
 999              		.loc 1 174 0
 1000 0080 3146     		mov	r1, r6
 1001 0082 94ED090A 		vldr.32	s0, [r4, #36]
 1002 0086 2846     		mov	r0, r5
 1003 0088 FFF7FEFF 		bl	buffer_append_float32_auto
 1004              	.LVL110:
 1005              		.loc 1 175 0
 1006 008c 3146     		mov	r1, r6
 1007 008e 94ED0A0A 		vldr.32	s0, [r4, #40]
 1008 0092 2846     		mov	r0, r5
 1009 0094 FFF7FEFF 		bl	buffer_append_float32_auto
 1010              	.LVL111:
 1011              		.loc 1 176 0
 1012 0098 3146     		mov	r1, r6
 1013 009a 94ED0B0A 		vldr.32	s0, [r4, #44]
 1014 009e 2846     		mov	r0, r5
 1015 00a0 FFF7FEFF 		bl	buffer_append_float32_auto
 1016              	.LVL112:
 1017              		.loc 1 177 0
 1018 00a4 3146     		mov	r1, r6
 1019 00a6 94ED0C0A 		vldr.32	s0, [r4, #48]
 1020 00aa 2846     		mov	r0, r5
 1021 00ac FFF7FEFF 		bl	buffer_append_float32_auto
 1022              	.LVL113:
 1023              		.loc 1 178 0
 1024 00b0 019B     		ldr	r3, [sp, #4]
 1025 00b2 94F83420 		ldrb	r2, [r4, #52]	@ zero_extendqisi2
 1026 00b6 EA54     		strb	r2, [r5, r3]
ARM GAS  C:\Users\CFAR\AppData\Local\Temp\ccBnUWel.s 			page 19


 1027              		.loc 1 179 0
 1028 00b8 EA18     		adds	r2, r5, r3
 1029 00ba 94F83510 		ldrb	r1, [r4, #53]	@ zero_extendqisi2
 1030 00be 5170     		strb	r1, [r2, #1]
 1031 00c0 0233     		adds	r3, r3, #2
 1032              		.loc 1 180 0
 1033 00c2 94ED0E0A 		vldr.32	s0, [r4, #56]
 1034              		.loc 1 179 0
 1035 00c6 0193     		str	r3, [sp, #4]
 1036              		.loc 1 180 0
 1037 00c8 3146     		mov	r1, r6
 1038 00ca 2846     		mov	r0, r5
 1039 00cc FFF7FEFF 		bl	buffer_append_float32_auto
 1040              	.LVL114:
 1041              		.loc 1 181 0
 1042 00d0 3146     		mov	r1, r6
 1043 00d2 94ED0F0A 		vldr.32	s0, [r4, #60]
 1044 00d6 2846     		mov	r0, r5
 1045 00d8 FFF7FEFF 		bl	buffer_append_float32_auto
 1046              	.LVL115:
 1047              		.loc 1 182 0
 1048 00dc 019B     		ldr	r3, [sp, #4]
 1049 00de 94F84020 		ldrb	r2, [r4, #64]	@ zero_extendqisi2
 1050 00e2 EA54     		strb	r2, [r5, r3]
 1051              		.loc 1 183 0
 1052 00e4 3146     		mov	r1, r6
 1053              		.loc 1 182 0
 1054 00e6 0133     		adds	r3, r3, #1
 1055              		.loc 1 183 0
 1056 00e8 94ED110A 		vldr.32	s0, [r4, #68]
 1057              		.loc 1 182 0
 1058 00ec 0193     		str	r3, [sp, #4]
 1059              		.loc 1 183 0
 1060 00ee 2846     		mov	r0, r5
 1061 00f0 FFF7FEFF 		bl	buffer_append_float32_auto
 1062              	.LVL116:
 1063              		.loc 1 184 0
 1064 00f4 3146     		mov	r1, r6
 1065 00f6 94ED120A 		vldr.32	s0, [r4, #72]
 1066 00fa 2846     		mov	r0, r5
 1067 00fc FFF7FEFF 		bl	buffer_append_float32_auto
 1068              	.LVL117:
 1069              		.loc 1 185 0
 1070 0100 019B     		ldr	r3, [sp, #4]
 1071 0102 94F84C20 		ldrb	r2, [r4, #76]	@ zero_extendqisi2
 1072 0106 EA54     		strb	r2, [r5, r3]
 1073              		.loc 1 186 0
 1074 0108 EA18     		adds	r2, r5, r3
 1075 010a 94F84D10 		ldrb	r1, [r4, #77]	@ zero_extendqisi2
 1076 010e 5170     		strb	r1, [r2, #1]
 1077 0110 0233     		adds	r3, r3, #2
 1078              		.loc 1 187 0
 1079 0112 94ED140A 		vldr.32	s0, [r4, #80]
 1080              		.loc 1 186 0
 1081 0116 0193     		str	r3, [sp, #4]
 1082              		.loc 1 187 0
 1083 0118 3146     		mov	r1, r6
ARM GAS  C:\Users\CFAR\AppData\Local\Temp\ccBnUWel.s 			page 20


 1084 011a 2846     		mov	r0, r5
 1085 011c FFF7FEFF 		bl	buffer_append_float32_auto
 1086              	.LVL118:
 1087              		.loc 1 188 0
 1088 0120 3146     		mov	r1, r6
 1089 0122 94ED150A 		vldr.32	s0, [r4, #84]
 1090 0126 2846     		mov	r0, r5
 1091 0128 FFF7FEFF 		bl	buffer_append_float32_auto
 1092              	.LVL119:
 1093              		.loc 1 189 0
 1094 012c 3146     		mov	r1, r6
 1095 012e 94ED160A 		vldr.32	s0, [r4, #88]
 1096 0132 2846     		mov	r0, r5
 1097 0134 FFF7FEFF 		bl	buffer_append_float32_auto
 1098              	.LVL120:
 1099              		.loc 1 190 0
 1100 0138 3146     		mov	r1, r6
 1101 013a 94ED170A 		vldr.32	s0, [r4, #92]
 1102 013e 2846     		mov	r0, r5
 1103 0140 FFF7FEFF 		bl	buffer_append_float32_auto
 1104              	.LVL121:
 1105              		.loc 1 191 0
 1106 0144 019B     		ldr	r3, [sp, #4]
 1107 0146 94F86020 		ldrb	r2, [r4, #96]	@ zero_extendqisi2
 1108 014a EA54     		strb	r2, [r5, r3]
 1109              		.loc 1 192 0
 1110 014c 3146     		mov	r1, r6
 1111              		.loc 1 191 0
 1112 014e 0133     		adds	r3, r3, #1
 1113              		.loc 1 192 0
 1114 0150 94ED190A 		vldr.32	s0, [r4, #100]
 1115              		.loc 1 191 0
 1116 0154 0193     		str	r3, [sp, #4]
 1117              		.loc 1 192 0
 1118 0156 2846     		mov	r0, r5
 1119 0158 FFF7FEFF 		bl	buffer_append_float32_auto
 1120              	.LVL122:
 1121              		.loc 1 193 0
 1122 015c 3146     		mov	r1, r6
 1123 015e 94ED1A0A 		vldr.32	s0, [r4, #104]
 1124 0162 2846     		mov	r0, r5
 1125 0164 FFF7FEFF 		bl	buffer_append_float32_auto
 1126              	.LVL123:
 1127              		.loc 1 194 0
 1128 0168 3146     		mov	r1, r6
 1129 016a 94ED1B0A 		vldr.32	s0, [r4, #108]
 1130 016e 2846     		mov	r0, r5
 1131 0170 FFF7FEFF 		bl	buffer_append_float32_auto
 1132              	.LVL124:
 1133              		.loc 1 195 0
 1134 0174 3146     		mov	r1, r6
 1135 0176 94ED1C0A 		vldr.32	s0, [r4, #112]
 1136 017a 2846     		mov	r0, r5
 1137 017c FFF7FEFF 		bl	buffer_append_float32_auto
 1138              	.LVL125:
 1139              		.loc 1 196 0
 1140 0180 3146     		mov	r1, r6
ARM GAS  C:\Users\CFAR\AppData\Local\Temp\ccBnUWel.s 			page 21


 1141 0182 94ED1D0A 		vldr.32	s0, [r4, #116]
 1142 0186 2846     		mov	r0, r5
 1143 0188 FFF7FEFF 		bl	buffer_append_float32_auto
 1144              	.LVL126:
 1145              		.loc 1 197 0
 1146 018c 3146     		mov	r1, r6
 1147 018e 94ED1E0A 		vldr.32	s0, [r4, #120]
 1148 0192 2846     		mov	r0, r5
 1149 0194 FFF7FEFF 		bl	buffer_append_float32_auto
 1150              	.LVL127:
 1151              		.loc 1 198 0
 1152 0198 019B     		ldr	r3, [sp, #4]
 1153 019a 94F87C20 		ldrb	r2, [r4, #124]	@ zero_extendqisi2
 1154 019e EA54     		strb	r2, [r5, r3]
 1155              		.loc 1 199 0
 1156 01a0 EA18     		adds	r2, r5, r3
 1157 01a2 94F87D10 		ldrb	r1, [r4, #125]	@ zero_extendqisi2
 1158 01a6 5170     		strb	r1, [r2, #1]
 1159              		.loc 1 200 0
 1160 01a8 94F87E10 		ldrb	r1, [r4, #126]	@ zero_extendqisi2
 1161 01ac 9170     		strb	r1, [r2, #2]
 1162              		.loc 1 201 0
 1163 01ae 94F87F10 		ldrb	r1, [r4, #127]	@ zero_extendqisi2
 1164 01b2 D170     		strb	r1, [r2, #3]
 1165              		.loc 1 202 0
 1166 01b4 94F88010 		ldrb	r1, [r4, #128]	@ zero_extendqisi2
 1167 01b8 1171     		strb	r1, [r2, #4]
 1168              		.loc 1 203 0
 1169 01ba 94F88110 		ldrb	r1, [r4, #129]	@ zero_extendqisi2
 1170 01be 5171     		strb	r1, [r2, #5]
 1171 01c0 0633     		adds	r3, r3, #6
 1172              		.loc 1 204 0
 1173 01c2 94ED210A 		vldr.32	s0, [r4, #132]
 1174              		.loc 1 203 0
 1175 01c6 0193     		str	r3, [sp, #4]
 1176              		.loc 1 204 0
 1177 01c8 3146     		mov	r1, r6
 1178 01ca 2846     		mov	r0, r5
 1179 01cc FFF7FEFF 		bl	buffer_append_float32_auto
 1180              	.LVL128:
 1181              		.loc 1 205 0
 1182 01d0 3146     		mov	r1, r6
 1183 01d2 94ED220A 		vldr.32	s0, [r4, #136]
 1184 01d6 2846     		mov	r0, r5
 1185 01d8 FFF7FEFF 		bl	buffer_append_float32_auto
 1186              	.LVL129:
 1187              		.loc 1 206 0
 1188 01dc 019B     		ldr	r3, [sp, #4]
 1189 01de 94F88C20 		ldrb	r2, [r4, #140]	@ zero_extendqisi2
 1190 01e2 EA54     		strb	r2, [r5, r3]
 1191              		.loc 1 207 0
 1192 01e4 3146     		mov	r1, r6
 1193              		.loc 1 206 0
 1194 01e6 0133     		adds	r3, r3, #1
 1195              		.loc 1 207 0
 1196 01e8 94ED240A 		vldr.32	s0, [r4, #144]
 1197              		.loc 1 206 0
ARM GAS  C:\Users\CFAR\AppData\Local\Temp\ccBnUWel.s 			page 22


 1198 01ec 0193     		str	r3, [sp, #4]
 1199              		.loc 1 207 0
 1200 01ee 2846     		mov	r0, r5
 1201 01f0 FFF7FEFF 		bl	buffer_append_float32_auto
 1202              	.LVL130:
 1203              		.loc 1 208 0
 1204 01f4 3146     		mov	r1, r6
 1205 01f6 94ED250A 		vldr.32	s0, [r4, #148]
 1206 01fa 2846     		mov	r0, r5
 1207 01fc FFF7FEFF 		bl	buffer_append_float32_auto
 1208              	.LVL131:
 1209              		.loc 1 209 0
 1210 0200 019B     		ldr	r3, [sp, #4]
 1211 0202 94F89820 		ldrb	r2, [r4, #152]	@ zero_extendqisi2
 1212 0206 EA54     		strb	r2, [r5, r3]
 1213              		.loc 1 210 0
 1214 0208 EA18     		adds	r2, r5, r3
 1215 020a 94F89910 		ldrb	r1, [r4, #153]	@ zero_extendqisi2
 1216 020e 5170     		strb	r1, [r2, #1]
 1217 0210 0233     		adds	r3, r3, #2
 1218              		.loc 1 211 0
 1219 0212 94ED270A 		vldr.32	s0, [r4, #156]
 1220              		.loc 1 210 0
 1221 0216 0193     		str	r3, [sp, #4]
 1222              		.loc 1 211 0
 1223 0218 3146     		mov	r1, r6
 1224 021a 2846     		mov	r0, r5
 1225 021c FFF7FEFF 		bl	buffer_append_float32_auto
 1226              	.LVL132:
 1227              		.loc 1 212 0
 1228 0220 3246     		mov	r2, r6
 1229 0222 B4F8A010 		ldrh	r1, [r4, #160]
 1230 0226 2846     		mov	r0, r5
 1231 0228 FFF7FEFF 		bl	buffer_append_uint16
 1232              	.LVL133:
 1233              		.loc 1 213 0
 1234 022c 3246     		mov	r2, r6
 1235 022e D4F8A410 		ldr	r1, [r4, #164]
 1236 0232 2846     		mov	r0, r5
 1237 0234 FFF7FEFF 		bl	buffer_append_uint32
 1238              	.LVL134:
 1239              		.loc 1 214 0
 1240 0238 019B     		ldr	r3, [sp, #4]
 1241 023a 94F8A820 		ldrb	r2, [r4, #168]	@ zero_extendqisi2
 1242 023e EA54     		strb	r2, [r5, r3]
 1243              		.loc 1 215 0
 1244 0240 3146     		mov	r1, r6
 1245              		.loc 1 214 0
 1246 0242 0133     		adds	r3, r3, #1
 1247              		.loc 1 215 0
 1248 0244 94ED2B0A 		vldr.32	s0, [r4, #172]
 1249              		.loc 1 214 0
 1250 0248 0193     		str	r3, [sp, #4]
 1251              		.loc 1 215 0
 1252 024a 2846     		mov	r0, r5
 1253 024c FFF7FEFF 		bl	buffer_append_float32_auto
 1254              	.LVL135:
ARM GAS  C:\Users\CFAR\AppData\Local\Temp\ccBnUWel.s 			page 23


 1255              		.loc 1 216 0
 1256 0250 3146     		mov	r1, r6
 1257 0252 94ED2C0A 		vldr.32	s0, [r4, #176]
 1258 0256 2846     		mov	r0, r5
 1259 0258 FFF7FEFF 		bl	buffer_append_float32_auto
 1260              	.LVL136:
 1261              		.loc 1 217 0
 1262 025c 3146     		mov	r1, r6
 1263 025e 94ED2D0A 		vldr.32	s0, [r4, #180]
 1264 0262 2846     		mov	r0, r5
 1265 0264 FFF7FEFF 		bl	buffer_append_float32_auto
 1266              	.LVL137:
 1267              		.loc 1 218 0
 1268 0268 3146     		mov	r1, r6
 1269 026a 94ED2E0A 		vldr.32	s0, [r4, #184]
 1270 026e 2846     		mov	r0, r5
 1271 0270 FFF7FEFF 		bl	buffer_append_float32_auto
 1272              	.LVL138:
 1273              		.loc 1 219 0
 1274 0274 3146     		mov	r1, r6
 1275 0276 94ED2F0A 		vldr.32	s0, [r4, #188]
 1276 027a 2846     		mov	r0, r5
 1277 027c FFF7FEFF 		bl	buffer_append_float32_auto
 1278              	.LVL139:
 1279              		.loc 1 220 0
 1280 0280 3146     		mov	r1, r6
 1281 0282 94ED300A 		vldr.32	s0, [r4, #192]
 1282 0286 2846     		mov	r0, r5
 1283 0288 FFF7FEFF 		bl	buffer_append_float32_auto
 1284              	.LVL140:
 1285              		.loc 1 221 0
 1286 028c 019B     		ldr	r3, [sp, #4]
 1287 028e 94F8C420 		ldrb	r2, [r4, #196]	@ zero_extendqisi2
 1288 0292 EA54     		strb	r2, [r5, r3]
 1289              		.loc 1 222 0
 1290 0294 EA18     		adds	r2, r5, r3
 1291 0296 94F8C510 		ldrb	r1, [r4, #197]	@ zero_extendqisi2
 1292 029a 5170     		strb	r1, [r2, #1]
 1293              		.loc 1 223 0
 1294 029c 94F8C610 		ldrb	r1, [r4, #198]	@ zero_extendqisi2
 1295 02a0 9170     		strb	r1, [r2, #2]
 1296 02a2 0333     		adds	r3, r3, #3
 1297              		.loc 1 224 0
 1298 02a4 94ED320A 		vldr.32	s0, [r4, #200]
 1299              		.loc 1 223 0
 1300 02a8 0193     		str	r3, [sp, #4]
 1301              		.loc 1 224 0
 1302 02aa 3146     		mov	r1, r6
 1303 02ac 2846     		mov	r0, r5
 1304 02ae FFF7FEFF 		bl	buffer_append_float32_auto
 1305              	.LVL141:
 1306              		.loc 1 225 0
 1307 02b2 019B     		ldr	r3, [sp, #4]
 1308 02b4 94F8CC20 		ldrb	r2, [r4, #204]	@ zero_extendqisi2
 1309 02b8 EA54     		strb	r2, [r5, r3]
 1310              		.loc 1 226 0
 1311 02ba 3146     		mov	r1, r6
ARM GAS  C:\Users\CFAR\AppData\Local\Temp\ccBnUWel.s 			page 24


 1312              		.loc 1 225 0
 1313 02bc 0133     		adds	r3, r3, #1
 1314              		.loc 1 226 0
 1315 02be 94ED340A 		vldr.32	s0, [r4, #208]
 1316              		.loc 1 225 0
 1317 02c2 0193     		str	r3, [sp, #4]
 1318              		.loc 1 226 0
 1319 02c4 2846     		mov	r0, r5
 1320 02c6 FFF7FEFF 		bl	buffer_append_float32_auto
 1321              	.LVL142:
 1322              		.loc 1 227 0
 1323 02ca 3146     		mov	r1, r6
 1324 02cc 94ED350A 		vldr.32	s0, [r4, #212]
 1325 02d0 2846     		mov	r0, r5
 1326 02d2 FFF7FEFF 		bl	buffer_append_float32_auto
 1327              	.LVL143:
 1328              		.loc 1 228 0
 1329 02d6 019A     		ldr	r2, [sp, #4]
 1330 02d8 94F8D830 		ldrb	r3, [r4, #216]	@ zero_extendqisi2
 1331 02dc AB54     		strb	r3, [r5, r2]
 1332              		.loc 1 229 0
 1333 02de AB18     		adds	r3, r5, r2
 1334 02e0 94F8D910 		ldrb	r1, [r4, #217]	@ zero_extendqisi2
 1335 02e4 5970     		strb	r1, [r3, #1]
 1336              		.loc 1 230 0
 1337 02e6 94F8DA10 		ldrb	r1, [r4, #218]	@ zero_extendqisi2
 1338 02ea 9970     		strb	r1, [r3, #2]
 1339              		.loc 1 231 0
 1340 02ec 94F8DB10 		ldrb	r1, [r4, #219]	@ zero_extendqisi2
 1341 02f0 D970     		strb	r1, [r3, #3]
 1342              		.loc 1 232 0
 1343 02f2 94F8DC10 		ldrb	r1, [r4, #220]	@ zero_extendqisi2
 1344 02f6 1971     		strb	r1, [r3, #4]
 1345              		.loc 1 233 0
 1346 02f8 94F8DD10 		ldrb	r1, [r4, #221]	@ zero_extendqisi2
 1347 02fc 5971     		strb	r1, [r3, #5]
 1348              		.loc 1 234 0
 1349 02fe 94F8DE10 		ldrb	r1, [r4, #222]	@ zero_extendqisi2
 1350 0302 9971     		strb	r1, [r3, #6]
 1351              		.loc 1 235 0
 1352 0304 94F8DF10 		ldrb	r1, [r4, #223]	@ zero_extendqisi2
 1353 0308 D971     		strb	r1, [r3, #7]
 1354              		.loc 1 236 0
 1355 030a 94F8E010 		ldrb	r1, [r4, #224]	@ zero_extendqisi2
 1356 030e 1972     		strb	r1, [r3, #8]
 1357              		.loc 1 237 0
 1358 0310 94F8E110 		ldrb	r1, [r4, #225]	@ zero_extendqisi2
 1359 0314 5972     		strb	r1, [r3, #9]
 1360 0316 0A32     		adds	r2, r2, #10
 1361              		.loc 1 238 0
 1362 0318 94ED390A 		vldr.32	s0, [r4, #228]
 1363              		.loc 1 237 0
 1364 031c 0192     		str	r2, [sp, #4]
 1365              		.loc 1 238 0
 1366 031e 3146     		mov	r1, r6
 1367 0320 2846     		mov	r0, r5
 1368 0322 FFF7FEFF 		bl	buffer_append_float32_auto
ARM GAS  C:\Users\CFAR\AppData\Local\Temp\ccBnUWel.s 			page 25


 1369              	.LVL144:
 1370              		.loc 1 239 0
 1371 0326 3146     		mov	r1, r6
 1372 0328 94ED3A0A 		vldr.32	s0, [r4, #232]
 1373 032c 2846     		mov	r0, r5
 1374 032e FFF7FEFF 		bl	buffer_append_float32_auto
 1375              	.LVL145:
 1376              		.loc 1 240 0
 1377 0332 94ED3B0A 		vldr.32	s0, [r4, #236]
 1378 0336 3146     		mov	r1, r6
 1379 0338 2846     		mov	r0, r5
 1380 033a FFF7FEFF 		bl	buffer_append_float32_auto
 1381              	.LVL146:
 1382              		.loc 1 241 0
 1383 033e 3246     		mov	r2, r6
 1384 0340 B4F8F010 		ldrh	r1, [r4, #240]
 1385 0344 2846     		mov	r0, r5
 1386 0346 FFF7FEFF 		bl	buffer_append_uint16
 1387              	.LVL147:
 1388              		.loc 1 242 0
 1389 034a 3146     		mov	r1, r6
 1390 034c 94ED3D0A 		vldr.32	s0, [r4, #244]
 1391 0350 2846     		mov	r0, r5
 1392 0352 FFF7FEFF 		bl	buffer_append_float32_auto
 1393              	.LVL148:
 1394              		.loc 1 243 0
 1395 0356 3146     		mov	r1, r6
 1396 0358 94ED3E0A 		vldr.32	s0, [r4, #248]
 1397 035c 2846     		mov	r0, r5
 1398 035e FFF7FEFF 		bl	buffer_append_float32_auto
 1399              	.LVL149:
 1400              		.loc 1 244 0
 1401 0362 3146     		mov	r1, r6
 1402 0364 94ED3F0A 		vldr.32	s0, [r4, #252]
 1403 0368 2846     		mov	r0, r5
 1404 036a FFF7FEFF 		bl	buffer_append_float32_auto
 1405              	.LVL150:
 1406              		.loc 1 245 0
 1407 036e 3146     		mov	r1, r6
 1408 0370 94ED400A 		vldr.32	s0, [r4, #256]
 1409 0374 2846     		mov	r0, r5
 1410 0376 FFF7FEFF 		bl	buffer_append_float32_auto
 1411              	.LVL151:
 1412              		.loc 1 246 0
 1413 037a 3146     		mov	r1, r6
 1414 037c 94ED410A 		vldr.32	s0, [r4, #260]
 1415 0380 2846     		mov	r0, r5
 1416 0382 FFF7FEFF 		bl	buffer_append_float32_auto
 1417              	.LVL152:
 1418              		.loc 1 247 0
 1419 0386 3146     		mov	r1, r6
 1420 0388 94ED420A 		vldr.32	s0, [r4, #264]
 1421 038c 2846     		mov	r0, r5
 1422 038e FFF7FEFF 		bl	buffer_append_float32_auto
 1423              	.LVL153:
 1424              		.loc 1 248 0
 1425 0392 3146     		mov	r1, r6
ARM GAS  C:\Users\CFAR\AppData\Local\Temp\ccBnUWel.s 			page 26


 1426 0394 94ED430A 		vldr.32	s0, [r4, #268]
 1427 0398 2846     		mov	r0, r5
 1428 039a FFF7FEFF 		bl	buffer_append_float32_auto
 1429              	.LVL154:
 1430              		.loc 1 249 0
 1431 039e 3146     		mov	r1, r6
 1432 03a0 94ED440A 		vldr.32	s0, [r4, #272]
 1433 03a4 2846     		mov	r0, r5
 1434 03a6 FFF7FEFF 		bl	buffer_append_float32_auto
 1435              	.LVL155:
 1436              		.loc 1 250 0
 1437 03aa 3146     		mov	r1, r6
 1438 03ac 94ED450A 		vldr.32	s0, [r4, #276]
 1439 03b0 2846     		mov	r0, r5
 1440 03b2 FFF7FEFF 		bl	buffer_append_float32_auto
 1441              	.LVL156:
 1442 03b6 01E0     		b	.L10
 1443              	.L11:
 1444              		.align	2
 1445              	.L9:
 1446 03b8 2EDEA292 		.word	-1834820050
 1447              	.L10:
 1448              		.loc 1 251 0
 1449 03bc 3146     		mov	r1, r6
 1450 03be 94ED460A 		vldr.32	s0, [r4, #280]
 1451 03c2 2846     		mov	r0, r5
 1452 03c4 FFF7FEFF 		bl	buffer_append_float32_auto
 1453              	.LVL157:
 1454              		.loc 1 252 0
 1455 03c8 3146     		mov	r1, r6
 1456 03ca 94ED470A 		vldr.32	s0, [r4, #284]
 1457 03ce 2846     		mov	r0, r5
 1458 03d0 FFF7FEFF 		bl	buffer_append_float32_auto
 1459              	.LVL158:
 1460              		.loc 1 253 0
 1461 03d4 3146     		mov	r1, r6
 1462 03d6 94ED480A 		vldr.32	s0, [r4, #288]
 1463 03da 2846     		mov	r0, r5
 1464 03dc FFF7FEFF 		bl	buffer_append_float32_auto
 1465              	.LVL159:
 1466              		.loc 1 254 0
 1467 03e0 3146     		mov	r1, r6
 1468 03e2 94ED490A 		vldr.32	s0, [r4, #292]
 1469 03e6 2846     		mov	r0, r5
 1470 03e8 FFF7FEFF 		bl	buffer_append_float32_auto
 1471              	.LVL160:
 1472              		.loc 1 255 0
 1473 03ec 3146     		mov	r1, r6
 1474 03ee 94ED4A0A 		vldr.32	s0, [r4, #296]
 1475 03f2 2846     		mov	r0, r5
 1476 03f4 FFF7FEFF 		bl	buffer_append_float32_auto
 1477              	.LVL161:
 1478              		.loc 1 256 0
 1479 03f8 3146     		mov	r1, r6
 1480 03fa 94ED4B0A 		vldr.32	s0, [r4, #300]
 1481 03fe 2846     		mov	r0, r5
 1482 0400 FFF7FEFF 		bl	buffer_append_float32_auto
ARM GAS  C:\Users\CFAR\AppData\Local\Temp\ccBnUWel.s 			page 27


 1483              	.LVL162:
 1484              		.loc 1 257 0
 1485 0404 019B     		ldr	r3, [sp, #4]
 1486 0406 94F83021 		ldrb	r2, [r4, #304]	@ zero_extendqisi2
 1487 040a EA54     		strb	r2, [r5, r3]
 1488              		.loc 1 258 0
 1489 040c 3146     		mov	r1, r6
 1490              		.loc 1 257 0
 1491 040e 0133     		adds	r3, r3, #1
 1492              		.loc 1 258 0
 1493 0410 94ED4D0A 		vldr.32	s0, [r4, #308]
 1494              		.loc 1 257 0
 1495 0414 0193     		str	r3, [sp, #4]
 1496              		.loc 1 258 0
 1497 0416 2846     		mov	r0, r5
 1498 0418 FFF7FEFF 		bl	buffer_append_float32_auto
 1499              	.LVL163:
 1500              		.loc 1 259 0
 1501 041c 3146     		mov	r1, r6
 1502 041e 94ED4E0A 		vldr.32	s0, [r4, #312]
 1503 0422 2846     		mov	r0, r5
 1504 0424 FFF7FEFF 		bl	buffer_append_float32_auto
 1505              	.LVL164:
 1506              		.loc 1 260 0
 1507 0428 3146     		mov	r1, r6
 1508 042a 94ED4F0A 		vldr.32	s0, [r4, #316]
 1509 042e 2846     		mov	r0, r5
 1510 0430 FFF7FEFF 		bl	buffer_append_float32_auto
 1511              	.LVL165:
 1512              		.loc 1 261 0
 1513 0434 3146     		mov	r1, r6
 1514 0436 94ED500A 		vldr.32	s0, [r4, #320]
 1515 043a 2846     		mov	r0, r5
 1516 043c FFF7FEFF 		bl	buffer_append_float32_auto
 1517              	.LVL166:
 1518              		.loc 1 262 0
 1519 0440 94ED510A 		vldr.32	s0, [r4, #324]
 1520 0444 3146     		mov	r1, r6
 1521 0446 2846     		mov	r0, r5
 1522 0448 FFF7FEFF 		bl	buffer_append_float32_auto
 1523              	.LVL167:
 1524              		.loc 1 263 0
 1525 044c 3246     		mov	r2, r6
 1526 044e B4F84811 		ldrh	r1, [r4, #328]
 1527 0452 2846     		mov	r0, r5
 1528 0454 FFF7FEFF 		bl	buffer_append_uint16
 1529              	.LVL168:
 1530              		.loc 1 264 0
 1531 0458 3246     		mov	r2, r6
 1532 045a B4F84A11 		ldrh	r1, [r4, #330]
 1533 045e 2846     		mov	r0, r5
 1534 0460 FFF7FEFF 		bl	buffer_append_uint16
 1535              	.LVL169:
 1536              		.loc 1 265 0
 1537 0464 3146     		mov	r1, r6
 1538 0466 94ED530A 		vldr.32	s0, [r4, #332]
 1539 046a 2846     		mov	r0, r5
ARM GAS  C:\Users\CFAR\AppData\Local\Temp\ccBnUWel.s 			page 28


 1540 046c FFF7FEFF 		bl	buffer_append_float32_auto
 1541              	.LVL170:
 1542              		.loc 1 266 0
 1543 0470 3146     		mov	r1, r6
 1544 0472 94ED540A 		vldr.32	s0, [r4, #336]
 1545 0476 2846     		mov	r0, r5
 1546 0478 FFF7FEFF 		bl	buffer_append_float32_auto
 1547              	.LVL171:
 1548              		.loc 1 267 0
 1549 047c 94ED550A 		vldr.32	s0, [r4, #340]
 1550 0480 3146     		mov	r1, r6
 1551 0482 2846     		mov	r0, r5
 1552 0484 FFF7FEFF 		bl	buffer_append_float32_auto
 1553              	.LVL172:
 1554              		.loc 1 268 0
 1555 0488 3246     		mov	r2, r6
 1556 048a B4F85811 		ldrh	r1, [r4, #344]
 1557 048e 2846     		mov	r0, r5
 1558 0490 FFF7FEFF 		bl	buffer_append_uint16
 1559              	.LVL173:
 1560              		.loc 1 269 0
 1561 0494 3146     		mov	r1, r6
 1562 0496 94ED570A 		vldr.32	s0, [r4, #348]
 1563 049a 2846     		mov	r0, r5
 1564 049c FFF7FEFF 		bl	buffer_append_float32_auto
 1565              	.LVL174:
 1566              		.loc 1 270 0
 1567 04a0 3146     		mov	r1, r6
 1568 04a2 94ED580A 		vldr.32	s0, [r4, #352]
 1569 04a6 2846     		mov	r0, r5
 1570 04a8 FFF7FEFF 		bl	buffer_append_float32_auto
 1571              	.LVL175:
 1572              		.loc 1 271 0
 1573 04ac 94ED590A 		vldr.32	s0, [r4, #356]
 1574 04b0 3146     		mov	r1, r6
 1575 04b2 2846     		mov	r0, r5
 1576 04b4 FFF7FEFF 		bl	buffer_append_float32_auto
 1577              	.LVL176:
 1578              		.loc 1 272 0
 1579 04b8 019B     		ldr	r3, [sp, #4]
 1580 04ba 94F86821 		ldrb	r2, [r4, #360]	@ zero_extendqisi2
 1581 04be EA54     		strb	r2, [r5, r3]
 1582              		.loc 1 273 0
 1583 04c0 EA18     		adds	r2, r5, r3
 1584 04c2 94F86911 		ldrb	r1, [r4, #361]	@ zero_extendqisi2
 1585 04c6 5170     		strb	r1, [r2, #1]
 1586 04c8 0233     		adds	r3, r3, #2
 1587              		.loc 1 274 0
 1588 04ca 3246     		mov	r2, r6
 1589 04cc B4F86C11 		ldrh	r1, [r4, #364]
 1590              		.loc 1 273 0
 1591 04d0 0193     		str	r3, [sp, #4]
 1592              		.loc 1 274 0
 1593 04d2 2846     		mov	r0, r5
 1594 04d4 FFF7FEFF 		bl	buffer_append_uint16
 1595              	.LVL177:
 1596              		.loc 1 275 0
ARM GAS  C:\Users\CFAR\AppData\Local\Temp\ccBnUWel.s 			page 29


 1597 04d8 3146     		mov	r1, r6
 1598 04da 94ED5C0A 		vldr.32	s0, [r4, #368]
 1599 04de 2846     		mov	r0, r5
 1600 04e0 FFF7FEFF 		bl	buffer_append_float32_auto
 1601              	.LVL178:
 1602              		.loc 1 276 0
 1603 04e4 3146     		mov	r1, r6
 1604 04e6 94ED5D0A 		vldr.32	s0, [r4, #372]
 1605 04ea 2846     		mov	r0, r5
 1606 04ec FFF7FEFF 		bl	buffer_append_float32_auto
 1607              	.LVL179:
 1608              		.loc 1 277 0
 1609 04f0 3146     		mov	r1, r6
 1610 04f2 94ED5E0A 		vldr.32	s0, [r4, #376]
 1611 04f6 2846     		mov	r0, r5
 1612 04f8 FFF7FEFF 		bl	buffer_append_float32_auto
 1613              	.LVL180:
 1614              		.loc 1 278 0
 1615 04fc 3146     		mov	r1, r6
 1616 04fe 94ED5F0A 		vldr.32	s0, [r4, #380]
 1617 0502 2846     		mov	r0, r5
 1618 0504 FFF7FEFF 		bl	buffer_append_float32_auto
 1619              	.LVL181:
 1620              		.loc 1 279 0
 1621 0508 3146     		mov	r1, r6
 1622 050a 94ED600A 		vldr.32	s0, [r4, #384]
 1623 050e 2846     		mov	r0, r5
 1624 0510 FFF7FEFF 		bl	buffer_append_float32_auto
 1625              	.LVL182:
 1626              		.loc 1 280 0
 1627 0514 3146     		mov	r1, r6
 1628 0516 94ED610A 		vldr.32	s0, [r4, #388]
 1629 051a 2846     		mov	r0, r5
 1630 051c FFF7FEFF 		bl	buffer_append_float32_auto
 1631              	.LVL183:
 1632              		.loc 1 281 0
 1633 0520 3146     		mov	r1, r6
 1634 0522 94ED620A 		vldr.32	s0, [r4, #392]
 1635 0526 2846     		mov	r0, r5
 1636 0528 FFF7FEFF 		bl	buffer_append_float32_auto
 1637              	.LVL184:
 1638              		.loc 1 282 0
 1639 052c 3146     		mov	r1, r6
 1640 052e 94ED630A 		vldr.32	s0, [r4, #396]
 1641 0532 2846     		mov	r0, r5
 1642 0534 FFF7FEFF 		bl	buffer_append_float32_auto
 1643              	.LVL185:
 1644              		.loc 1 283 0
 1645 0538 3146     		mov	r1, r6
 1646 053a 94ED640A 		vldr.32	s0, [r4, #400]
 1647 053e 2846     		mov	r0, r5
 1648 0540 FFF7FEFF 		bl	buffer_append_float32_auto
 1649              	.LVL186:
 1650              		.loc 1 284 0
 1651 0544 3146     		mov	r1, r6
 1652 0546 94ED650A 		vldr.32	s0, [r4, #404]
 1653 054a 2846     		mov	r0, r5
ARM GAS  C:\Users\CFAR\AppData\Local\Temp\ccBnUWel.s 			page 30


 1654 054c FFF7FEFF 		bl	buffer_append_float32_auto
 1655              	.LVL187:
 1656              		.loc 1 285 0
 1657 0550 3146     		mov	r1, r6
 1658 0552 94ED660A 		vldr.32	s0, [r4, #408]
 1659 0556 2846     		mov	r0, r5
 1660 0558 FFF7FEFF 		bl	buffer_append_float32_auto
 1661              	.LVL188:
 1662              		.loc 1 286 0
 1663 055c 3146     		mov	r1, r6
 1664 055e 94ED670A 		vldr.32	s0, [r4, #412]
 1665 0562 2846     		mov	r0, r5
 1666 0564 FFF7FEFF 		bl	buffer_append_float32_auto
 1667              	.LVL189:
 1668              		.loc 1 287 0
 1669 0568 3146     		mov	r1, r6
 1670 056a 94ED680A 		vldr.32	s0, [r4, #416]
 1671 056e 2846     		mov	r0, r5
 1672 0570 FFF7FEFF 		bl	buffer_append_float32_auto
 1673              	.LVL190:
 1674              		.loc 1 288 0
 1675 0574 3146     		mov	r1, r6
 1676 0576 94ED690A 		vldr.32	s0, [r4, #420]
 1677 057a 2846     		mov	r0, r5
 1678 057c FFF7FEFF 		bl	buffer_append_float32_auto
 1679              	.LVL191:
 1680              		.loc 1 289 0
 1681 0580 3146     		mov	r1, r6
 1682 0582 94ED6A0A 		vldr.32	s0, [r4, #424]
 1683 0586 2846     		mov	r0, r5
 1684 0588 FFF7FEFF 		bl	buffer_append_float32_auto
 1685              	.LVL192:
 1686              		.loc 1 290 0
 1687 058c 3146     		mov	r1, r6
 1688 058e 94ED6B0A 		vldr.32	s0, [r4, #428]
 1689 0592 2846     		mov	r0, r5
 1690 0594 FFF7FEFF 		bl	buffer_append_float32_auto
 1691              	.LVL193:
 1692              		.loc 1 291 0
 1693 0598 2846     		mov	r0, r5
 1694 059a 3146     		mov	r1, r6
 1695 059c 94ED6C0A 		vldr.32	s0, [r4, #432]
 1696 05a0 FFF7FEFF 		bl	buffer_append_float32_auto
 1697              	.LVL194:
 1698              		.loc 1 294 0
 1699 05a4 0198     		ldr	r0, [sp, #4]
 1700 05a6 02B0     		add	sp, sp, #8
 1701              		.cfi_def_cfa_offset 16
 1702              		@ sp needed
 1703 05a8 70BD     		pop	{r4, r5, r6, pc}
 1704              		.cfi_endproc
 1705              	.LFE220:
 1706              		.size	confgenerator_serialize_appconf, .-confgenerator_serialize_appconf
 1707 05aa 00BF     		.section	.text.confgenerator_deserialize_mcconf,"ax",%progbits
 1708              		.align	1
 1709              		.p2align 4,,15
 1710              		.global	confgenerator_deserialize_mcconf
ARM GAS  C:\Users\CFAR\AppData\Local\Temp\ccBnUWel.s 			page 31


 1711              		.syntax unified
 1712              		.thumb
 1713              		.thumb_func
 1714              		.fpu fpv4-sp-d16
 1715              		.type	confgenerator_deserialize_mcconf, %function
 1716              	confgenerator_deserialize_mcconf:
 1717              	.LFB221:
 1718              		.loc 1 296 0
 1719              		.cfi_startproc
 1720              		@ args = 0, pretend = 0, frame = 8
 1721              		@ frame_needed = 0, uses_anonymous_args = 0
 1722              	.LVL195:
 1723 0000 F0B5     		push	{r4, r5, r6, r7, lr}
 1724              		.cfi_def_cfa_offset 20
 1725              		.cfi_offset 4, -20
 1726              		.cfi_offset 5, -16
 1727              		.cfi_offset 6, -12
 1728              		.cfi_offset 7, -8
 1729              		.cfi_offset 14, -4
 1730 0002 83B0     		sub	sp, sp, #12
 1731              		.cfi_def_cfa_offset 32
 1732              		.loc 1 297 0
 1733 0004 02AE     		add	r6, sp, #8
 1734 0006 0027     		movs	r7, #0
 1735 0008 46F8047D 		str	r7, [r6, #-4]!
 1736              		.loc 1 296 0
 1737 000c 0C46     		mov	r4, r1
 1738              		.loc 1 299 0
 1739 000e 3146     		mov	r1, r6
 1740              	.LVL196:
 1741              		.loc 1 296 0
 1742 0010 0546     		mov	r5, r0
 1743              		.loc 1 299 0
 1744 0012 FFF7FEFF 		bl	buffer_get_uint32
 1745              	.LVL197:
 1746              		.loc 1 300 0
 1747 0016 034B     		ldr	r3, .L17
 1748 0018 9842     		cmp	r0, r3
 1749 001a 05D0     		beq	.L16
 1750              		.loc 1 301 0
 1751 001c 3846     		mov	r0, r7
 1752              	.LVL198:
 1753              		.loc 1 445 0
 1754 001e 03B0     		add	sp, sp, #12
 1755              		.cfi_remember_state
 1756              		.cfi_def_cfa_offset 20
 1757              		@ sp needed
 1758 0020 F0BD     		pop	{r4, r5, r6, r7, pc}
 1759              	.LVL199:
 1760              	.L18:
 1761 0022 00BF     		.align	2
 1762              	.L17:
 1763 0024 BD3E73DC 		.word	-596427075
 1764              	.LVL200:
 1765              	.L16:
 1766              		.cfi_restore_state
 1767              		.loc 1 304 0
ARM GAS  C:\Users\CFAR\AppData\Local\Temp\ccBnUWel.s 			page 32


 1768 0028 019B     		ldr	r3, [sp, #4]
 1769 002a EA5C     		ldrb	r2, [r5, r3]	@ zero_extendqisi2
 1770 002c 2270     		strb	r2, [r4]
 1771              		.loc 1 305 0
 1772 002e EA18     		adds	r2, r5, r3
 1773              		.loc 1 308 0
 1774 0030 2846     		mov	r0, r5
 1775              	.LVL201:
 1776              		.loc 1 305 0
 1777 0032 5178     		ldrb	r1, [r2, #1]	@ zero_extendqisi2
 1778 0034 6170     		strb	r1, [r4, #1]
 1779              		.loc 1 306 0
 1780 0036 9178     		ldrb	r1, [r2, #2]	@ zero_extendqisi2
 1781 0038 A170     		strb	r1, [r4, #2]
 1782              		.loc 1 307 0
 1783 003a D278     		ldrb	r2, [r2, #3]	@ zero_extendqisi2
 1784 003c E270     		strb	r2, [r4, #3]
 1785 003e 0433     		adds	r3, r3, #4
 1786              		.loc 1 308 0
 1787 0040 3146     		mov	r1, r6
 1788              		.loc 1 307 0
 1789 0042 0193     		str	r3, [sp, #4]
 1790              		.loc 1 308 0
 1791 0044 FFF7FEFF 		bl	buffer_get_float32_auto
 1792              	.LVL202:
 1793              		.loc 1 309 0
 1794 0048 3146     		mov	r1, r6
 1795 004a 2846     		mov	r0, r5
 1796              		.loc 1 308 0
 1797 004c 84ED010A 		vstr.32	s0, [r4, #4]
 1798              		.loc 1 309 0
 1799 0050 FFF7FEFF 		bl	buffer_get_float32_auto
 1800              	.LVL203:
 1801              		.loc 1 310 0
 1802 0054 3146     		mov	r1, r6
 1803 0056 2846     		mov	r0, r5
 1804              		.loc 1 309 0
 1805 0058 84ED020A 		vstr.32	s0, [r4, #8]
 1806              		.loc 1 310 0
 1807 005c FFF7FEFF 		bl	buffer_get_float32_auto
 1808              	.LVL204:
 1809              		.loc 1 311 0
 1810 0060 3146     		mov	r1, r6
 1811 0062 2846     		mov	r0, r5
 1812              		.loc 1 310 0
 1813 0064 84ED030A 		vstr.32	s0, [r4, #12]
 1814              		.loc 1 311 0
 1815 0068 FFF7FEFF 		bl	buffer_get_float32_auto
 1816              	.LVL205:
 1817              		.loc 1 312 0
 1818 006c 3146     		mov	r1, r6
 1819 006e 2846     		mov	r0, r5
 1820              		.loc 1 311 0
 1821 0070 84ED040A 		vstr.32	s0, [r4, #16]
 1822              		.loc 1 312 0
 1823 0074 FFF7FEFF 		bl	buffer_get_float32_auto
 1824              	.LVL206:
ARM GAS  C:\Users\CFAR\AppData\Local\Temp\ccBnUWel.s 			page 33


 1825              		.loc 1 313 0
 1826 0078 3146     		mov	r1, r6
 1827 007a 2846     		mov	r0, r5
 1828              		.loc 1 312 0
 1829 007c 84ED050A 		vstr.32	s0, [r4, #20]
 1830              		.loc 1 313 0
 1831 0080 FFF7FEFF 		bl	buffer_get_float32_auto
 1832              	.LVL207:
 1833              		.loc 1 314 0
 1834 0084 3146     		mov	r1, r6
 1835 0086 2846     		mov	r0, r5
 1836              		.loc 1 313 0
 1837 0088 84ED060A 		vstr.32	s0, [r4, #24]
 1838              		.loc 1 314 0
 1839 008c FFF7FEFF 		bl	buffer_get_float32_auto
 1840              	.LVL208:
 1841              		.loc 1 315 0
 1842 0090 3146     		mov	r1, r6
 1843 0092 2846     		mov	r0, r5
 1844              		.loc 1 314 0
 1845 0094 84ED070A 		vstr.32	s0, [r4, #28]
 1846              		.loc 1 315 0
 1847 0098 FFF7FEFF 		bl	buffer_get_float32_auto
 1848              	.LVL209:
 1849              		.loc 1 316 0
 1850 009c 3146     		mov	r1, r6
 1851 009e 2846     		mov	r0, r5
 1852              		.loc 1 315 0
 1853 00a0 84ED080A 		vstr.32	s0, [r4, #32]
 1854              		.loc 1 316 0
 1855 00a4 FFF7FEFF 		bl	buffer_get_float32_auto
 1856              	.LVL210:
 1857              		.loc 1 317 0
 1858 00a8 3146     		mov	r1, r6
 1859 00aa 2846     		mov	r0, r5
 1860              		.loc 1 316 0
 1861 00ac 84ED090A 		vstr.32	s0, [r4, #36]
 1862              		.loc 1 317 0
 1863 00b0 FFF7FEFF 		bl	buffer_get_float32_auto
 1864              	.LVL211:
 1865              		.loc 1 318 0
 1866 00b4 3146     		mov	r1, r6
 1867 00b6 2846     		mov	r0, r5
 1868              		.loc 1 317 0
 1869 00b8 84ED0A0A 		vstr.32	s0, [r4, #40]
 1870              		.loc 1 318 0
 1871 00bc FFF7FEFF 		bl	buffer_get_float32_auto
 1872              	.LVL212:
 1873              		.loc 1 319 0
 1874 00c0 3146     		mov	r1, r6
 1875 00c2 2846     		mov	r0, r5
 1876              		.loc 1 318 0
 1877 00c4 84ED0B0A 		vstr.32	s0, [r4, #44]
 1878              		.loc 1 319 0
 1879 00c8 FFF7FEFF 		bl	buffer_get_float32_auto
 1880              	.LVL213:
 1881              		.loc 1 320 0
ARM GAS  C:\Users\CFAR\AppData\Local\Temp\ccBnUWel.s 			page 34


 1882 00cc 3146     		mov	r1, r6
 1883 00ce 2846     		mov	r0, r5
 1884              		.loc 1 319 0
 1885 00d0 84ED0C0A 		vstr.32	s0, [r4, #48]
 1886              		.loc 1 320 0
 1887 00d4 FFF7FEFF 		bl	buffer_get_float32_auto
 1888              	.LVL214:
 1889              		.loc 1 321 0
 1890 00d8 3146     		mov	r1, r6
 1891 00da 2846     		mov	r0, r5
 1892              		.loc 1 320 0
 1893 00dc 84ED0D0A 		vstr.32	s0, [r4, #52]
 1894              		.loc 1 321 0
 1895 00e0 FFF7FEFF 		bl	buffer_get_float32_auto
 1896              	.LVL215:
 1897              		.loc 1 322 0
 1898 00e4 019B     		ldr	r3, [sp, #4]
 1899              		.loc 1 321 0
 1900 00e6 84ED0E0A 		vstr.32	s0, [r4, #56]
 1901              		.loc 1 322 0
 1902 00ea EA5C     		ldrb	r2, [r5, r3]	@ zero_extendqisi2
 1903 00ec D21B     		subs	r2, r2, r7
 1904 00ee 18BF     		it	ne
 1905 00f0 0122     		movne	r2, #1
 1906 00f2 84F83C20 		strb	r2, [r4, #60]
 1907 00f6 0133     		adds	r3, r3, #1
 1908              		.loc 1 323 0
 1909 00f8 3146     		mov	r1, r6
 1910 00fa 2846     		mov	r0, r5
 1911              		.loc 1 322 0
 1912 00fc 0193     		str	r3, [sp, #4]
 1913              		.loc 1 323 0
 1914 00fe FFF7FEFF 		bl	buffer_get_float32_auto
 1915              	.LVL216:
 1916              		.loc 1 324 0
 1917 0102 3146     		mov	r1, r6
 1918 0104 2846     		mov	r0, r5
 1919              		.loc 1 323 0
 1920 0106 84ED100A 		vstr.32	s0, [r4, #64]
 1921              		.loc 1 324 0
 1922 010a FFF7FEFF 		bl	buffer_get_float32_auto
 1923              	.LVL217:
 1924              		.loc 1 325 0
 1925 010e 3146     		mov	r1, r6
 1926 0110 2846     		mov	r0, r5
 1927              		.loc 1 324 0
 1928 0112 84ED110A 		vstr.32	s0, [r4, #68]
 1929              		.loc 1 325 0
 1930 0116 FFF7FEFF 		bl	buffer_get_float32_auto
 1931              	.LVL218:
 1932              		.loc 1 326 0
 1933 011a 3146     		mov	r1, r6
 1934 011c 2846     		mov	r0, r5
 1935              		.loc 1 325 0
 1936 011e 84ED120A 		vstr.32	s0, [r4, #72]
 1937              		.loc 1 326 0
 1938 0122 FFF7FEFF 		bl	buffer_get_float32_auto
ARM GAS  C:\Users\CFAR\AppData\Local\Temp\ccBnUWel.s 			page 35


 1939              	.LVL219:
 1940              		.loc 1 327 0
 1941 0126 3146     		mov	r1, r6
 1942 0128 2846     		mov	r0, r5
 1943              		.loc 1 326 0
 1944 012a 84ED130A 		vstr.32	s0, [r4, #76]
 1945              		.loc 1 327 0
 1946 012e FFF7FEFF 		bl	buffer_get_float32_auto
 1947              	.LVL220:
 1948              		.loc 1 328 0
 1949 0132 3146     		mov	r1, r6
 1950 0134 2846     		mov	r0, r5
 1951              		.loc 1 327 0
 1952 0136 84ED140A 		vstr.32	s0, [r4, #80]
 1953              		.loc 1 328 0
 1954 013a FFF7FEFF 		bl	buffer_get_float32_auto
 1955              	.LVL221:
 1956              		.loc 1 329 0
 1957 013e 3146     		mov	r1, r6
 1958 0140 2846     		mov	r0, r5
 1959              		.loc 1 328 0
 1960 0142 84ED150A 		vstr.32	s0, [r4, #84]
 1961              		.loc 1 329 0
 1962 0146 FFF7FEFF 		bl	buffer_get_float32_auto
 1963              	.LVL222:
 1964              		.loc 1 330 0
 1965 014a 3146     		mov	r1, r6
 1966 014c 2846     		mov	r0, r5
 1967              		.loc 1 329 0
 1968 014e 84ED160A 		vstr.32	s0, [r4, #88]
 1969              		.loc 1 330 0
 1970 0152 FFF7FEFF 		bl	buffer_get_float32_auto
 1971              	.LVL223:
 1972              		.loc 1 331 0
 1973 0156 3146     		mov	r1, r6
 1974 0158 2846     		mov	r0, r5
 1975              		.loc 1 330 0
 1976 015a 84ED170A 		vstr.32	s0, [r4, #92]
 1977              		.loc 1 331 0
 1978 015e FFF7FEFF 		bl	buffer_get_float32_auto
 1979              	.LVL224:
 1980              		.loc 1 332 0
 1981 0162 3146     		mov	r1, r6
 1982 0164 2846     		mov	r0, r5
 1983              		.loc 1 331 0
 1984 0166 84ED180A 		vstr.32	s0, [r4, #96]
 1985              		.loc 1 332 0
 1986 016a FFF7FEFF 		bl	buffer_get_float32_auto
 1987              	.LVL225:
 1988              		.loc 1 333 0
 1989 016e 3146     		mov	r1, r6
 1990 0170 2846     		mov	r0, r5
 1991              		.loc 1 332 0
 1992 0172 84ED190A 		vstr.32	s0, [r4, #100]
 1993              		.loc 1 333 0
 1994 0176 FFF7FEFF 		bl	buffer_get_float32_auto
 1995              	.LVL226:
ARM GAS  C:\Users\CFAR\AppData\Local\Temp\ccBnUWel.s 			page 36


 1996              		.loc 1 334 0
 1997 017a 3146     		mov	r1, r6
 1998 017c 2846     		mov	r0, r5
 1999              		.loc 1 333 0
 2000 017e 84ED1A0A 		vstr.32	s0, [r4, #104]
 2001              		.loc 1 334 0
 2002 0182 FFF7FEFF 		bl	buffer_get_float32_auto
 2003              	.LVL227:
 2004              		.loc 1 335 0
 2005 0186 3146     		mov	r1, r6
 2006 0188 2846     		mov	r0, r5
 2007              		.loc 1 334 0
 2008 018a 84ED1B0A 		vstr.32	s0, [r4, #108]
 2009              		.loc 1 335 0
 2010 018e FFF7FEFF 		bl	buffer_get_float32_auto
 2011              	.LVL228:
 2012              		.loc 1 336 0
 2013 0192 3146     		mov	r1, r6
 2014 0194 2846     		mov	r0, r5
 2015              		.loc 1 335 0
 2016 0196 84ED220A 		vstr.32	s0, [r4, #136]
 2017              		.loc 1 336 0
 2018 019a FFF7FEFF 		bl	buffer_get_float32_auto
 2019              	.LVL229:
 2020              		.loc 1 337 0
 2021 019e 3146     		mov	r1, r6
 2022 01a0 2846     		mov	r0, r5
 2023              		.loc 1 336 0
 2024 01a2 84ED230A 		vstr.32	s0, [r4, #140]
 2025              		.loc 1 337 0
 2026 01a6 FFF7FEFF 		bl	buffer_get_float32_auto
 2027              	.LVL230:
 2028              		.loc 1 338 0
 2029 01aa 3146     		mov	r1, r6
 2030 01ac 2846     		mov	r0, r5
 2031              		.loc 1 337 0
 2032 01ae 84ED240A 		vstr.32	s0, [r4, #144]
 2033              		.loc 1 338 0
 2034 01b2 FFF7FEFF 		bl	buffer_get_float32_auto
 2035              	.LVL231:
 2036              		.loc 1 339 0
 2037 01b6 3146     		mov	r1, r6
 2038 01b8 2846     		mov	r0, r5
 2039              		.loc 1 338 0
 2040 01ba 84ED250A 		vstr.32	s0, [r4, #148]
 2041              		.loc 1 339 0
 2042 01be FFF7FEFF 		bl	buffer_get_float32_auto
 2043              	.LVL232:
 2044              		.loc 1 340 0
 2045 01c2 3146     		mov	r1, r6
 2046 01c4 2846     		mov	r0, r5
 2047              		.loc 1 339 0
 2048 01c6 84ED260A 		vstr.32	s0, [r4, #152]
 2049              		.loc 1 340 0
 2050 01ca FFF7FEFF 		bl	buffer_get_float32_auto
 2051              	.LVL233:
 2052              		.loc 1 341 0
ARM GAS  C:\Users\CFAR\AppData\Local\Temp\ccBnUWel.s 			page 37


 2053 01ce 3146     		mov	r1, r6
 2054 01d0 2846     		mov	r0, r5
 2055              		.loc 1 340 0
 2056 01d2 84ED270A 		vstr.32	s0, [r4, #156]
 2057              		.loc 1 341 0
 2058 01d6 FFF7FEFF 		bl	buffer_get_float32_auto
 2059              	.LVL234:
 2060              		.loc 1 342 0
 2061 01da 019A     		ldr	r2, [sp, #4]
 2062              		.loc 1 341 0
 2063 01dc 84ED280A 		vstr.32	s0, [r4, #160]
 2064              		.loc 1 342 0
 2065 01e0 AB5C     		ldrb	r3, [r5, r2]	@ zero_extendqisi2
 2066 01e2 84F8A430 		strb	r3, [r4, #164]
 2067              		.loc 1 343 0
 2068 01e6 AB18     		adds	r3, r5, r2
 2069              		.loc 1 350 0
 2070 01e8 2846     		mov	r0, r5
 2071              		.loc 1 343 0
 2072 01ea 5978     		ldrb	r1, [r3, #1]	@ zero_extendqisi2
 2073 01ec 84F8A510 		strb	r1, [r4, #165]
 2074              		.loc 1 344 0
 2075 01f0 9978     		ldrb	r1, [r3, #2]	@ zero_extendqisi2
 2076 01f2 84F8A610 		strb	r1, [r4, #166]
 2077              		.loc 1 345 0
 2078 01f6 D978     		ldrb	r1, [r3, #3]	@ zero_extendqisi2
 2079 01f8 84F8A710 		strb	r1, [r4, #167]
 2080              		.loc 1 346 0
 2081 01fc 1979     		ldrb	r1, [r3, #4]	@ zero_extendqisi2
 2082 01fe 84F8A810 		strb	r1, [r4, #168]
 2083              		.loc 1 347 0
 2084 0202 5979     		ldrb	r1, [r3, #5]	@ zero_extendqisi2
 2085 0204 84F8A910 		strb	r1, [r4, #169]
 2086              		.loc 1 348 0
 2087 0208 9979     		ldrb	r1, [r3, #6]	@ zero_extendqisi2
 2088 020a 84F8AA10 		strb	r1, [r4, #170]
 2089              		.loc 1 349 0
 2090 020e DB79     		ldrb	r3, [r3, #7]	@ zero_extendqisi2
 2091 0210 84F8AB30 		strb	r3, [r4, #171]
 2092 0214 0832     		adds	r2, r2, #8
 2093              		.loc 1 350 0
 2094 0216 3146     		mov	r1, r6
 2095              		.loc 1 349 0
 2096 0218 0192     		str	r2, [sp, #4]
 2097              		.loc 1 350 0
 2098 021a FFF7FEFF 		bl	buffer_get_float32_auto
 2099              	.LVL235:
 2100              		.loc 1 351 0
 2101 021e 3146     		mov	r1, r6
 2102 0220 2846     		mov	r0, r5
 2103              		.loc 1 350 0
 2104 0222 84ED2B0A 		vstr.32	s0, [r4, #172]
 2105              		.loc 1 351 0
 2106 0226 FFF7FEFF 		bl	buffer_get_float32_auto
 2107              	.LVL236:
 2108              		.loc 1 352 0
 2109 022a 3146     		mov	r1, r6
ARM GAS  C:\Users\CFAR\AppData\Local\Temp\ccBnUWel.s 			page 38


 2110 022c 2846     		mov	r0, r5
 2111              		.loc 1 351 0
 2112 022e 84ED2C0A 		vstr.32	s0, [r4, #176]
 2113              		.loc 1 352 0
 2114 0232 FFF7FEFF 		bl	buffer_get_float32_auto
 2115              	.LVL237:
 2116              		.loc 1 353 0
 2117 0236 3146     		mov	r1, r6
 2118 0238 2846     		mov	r0, r5
 2119              		.loc 1 352 0
 2120 023a 84ED2D0A 		vstr.32	s0, [r4, #180]
 2121              		.loc 1 353 0
 2122 023e FFF7FEFF 		bl	buffer_get_float32_auto
 2123              	.LVL238:
 2124              		.loc 1 354 0
 2125 0242 3146     		mov	r1, r6
 2126 0244 2846     		mov	r0, r5
 2127              		.loc 1 353 0
 2128 0246 84ED2E0A 		vstr.32	s0, [r4, #184]
 2129              		.loc 1 354 0
 2130 024a FFF7FEFF 		bl	buffer_get_float32_auto
 2131              	.LVL239:
 2132              		.loc 1 355 0
 2133 024e 019B     		ldr	r3, [sp, #4]
 2134              		.loc 1 354 0
 2135 0250 84ED2F0A 		vstr.32	s0, [r4, #188]
 2136              		.loc 1 355 0
 2137 0254 EA5C     		ldrb	r2, [r5, r3]	@ zero_extendqisi2
 2138 0256 D21B     		subs	r2, r2, r7
 2139 0258 18BF     		it	ne
 2140 025a 0122     		movne	r2, #1
 2141 025c 84F8C420 		strb	r2, [r4, #196]
 2142 0260 0133     		adds	r3, r3, #1
 2143              		.loc 1 356 0
 2144 0262 3146     		mov	r1, r6
 2145 0264 2846     		mov	r0, r5
 2146              		.loc 1 355 0
 2147 0266 0193     		str	r3, [sp, #4]
 2148              		.loc 1 356 0
 2149 0268 FFF7FEFF 		bl	buffer_get_float32_auto
 2150              	.LVL240:
 2151              		.loc 1 357 0
 2152 026c 3146     		mov	r1, r6
 2153 026e 2846     		mov	r0, r5
 2154              		.loc 1 356 0
 2155 0270 84ED300A 		vstr.32	s0, [r4, #192]
 2156              		.loc 1 357 0
 2157 0274 FFF7FEFF 		bl	buffer_get_float32_auto
 2158              	.LVL241:
 2159              		.loc 1 358 0
 2160 0278 3146     		mov	r1, r6
 2161 027a 2846     		mov	r0, r5
 2162              		.loc 1 357 0
 2163 027c 84ED320A 		vstr.32	s0, [r4, #200]
 2164              		.loc 1 358 0
 2165 0280 FFF7FEFF 		bl	buffer_get_float32_auto
 2166              	.LVL242:
ARM GAS  C:\Users\CFAR\AppData\Local\Temp\ccBnUWel.s 			page 39


 2167              		.loc 1 359 0
 2168 0284 3146     		mov	r1, r6
 2169 0286 2846     		mov	r0, r5
 2170              		.loc 1 358 0
 2171 0288 84ED340A 		vstr.32	s0, [r4, #208]
 2172              		.loc 1 359 0
 2173 028c FFF7FEFF 		bl	buffer_get_float32_auto
 2174              	.LVL243:
 2175              		.loc 1 360 0
 2176 0290 3146     		mov	r1, r6
 2177 0292 2846     		mov	r0, r5
 2178              		.loc 1 359 0
 2179 0294 84ED360A 		vstr.32	s0, [r4, #216]
 2180              		.loc 1 360 0
 2181 0298 FFF7FEFF 		bl	buffer_get_float32_auto
 2182              	.LVL244:
 2183              		.loc 1 361 0
 2184 029c 3146     		mov	r1, r6
 2185 029e 2846     		mov	r0, r5
 2186              		.loc 1 360 0
 2187 02a0 84ED330A 		vstr.32	s0, [r4, #204]
 2188              		.loc 1 361 0
 2189 02a4 FFF7FEFF 		bl	buffer_get_float32_auto
 2190              	.LVL245:
 2191              		.loc 1 362 0
 2192 02a8 3146     		mov	r1, r6
 2193 02aa 2846     		mov	r0, r5
 2194              		.loc 1 361 0
 2195 02ac 84ED350A 		vstr.32	s0, [r4, #212]
 2196              		.loc 1 362 0
 2197 02b0 FFF7FEFF 		bl	buffer_get_float32_auto
 2198              	.LVL246:
 2199              		.loc 1 363 0
 2200 02b4 019B     		ldr	r3, [sp, #4]
 2201              		.loc 1 362 0
 2202 02b6 84ED370A 		vstr.32	s0, [r4, #220]
 2203              		.loc 1 363 0
 2204 02ba EA5C     		ldrb	r2, [r5, r3]	@ zero_extendqisi2
 2205 02bc 84F81821 		strb	r2, [r4, #280]
 2206 02c0 0133     		adds	r3, r3, #1
 2207              		.loc 1 364 0
 2208 02c2 3146     		mov	r1, r6
 2209 02c4 2846     		mov	r0, r5
 2210              		.loc 1 363 0
 2211 02c6 0193     		str	r3, [sp, #4]
 2212              		.loc 1 364 0
 2213 02c8 FFF7FEFF 		bl	buffer_get_float32_auto
 2214              	.LVL247:
 2215              		.loc 1 365 0
 2216 02cc 3146     		mov	r1, r6
 2217 02ce 2846     		mov	r0, r5
 2218              		.loc 1 364 0
 2219 02d0 84ED3D0A 		vstr.32	s0, [r4, #244]
 2220              		.loc 1 365 0
 2221 02d4 FFF7FEFF 		bl	buffer_get_float32_auto
 2222              	.LVL248:
 2223              		.loc 1 366 0
ARM GAS  C:\Users\CFAR\AppData\Local\Temp\ccBnUWel.s 			page 40


 2224 02d8 3146     		mov	r1, r6
 2225 02da 2846     		mov	r0, r5
 2226              		.loc 1 365 0
 2227 02dc 84ED3E0A 		vstr.32	s0, [r4, #248]
 2228              		.loc 1 366 0
 2229 02e0 FFF7FEFF 		bl	buffer_get_float32_auto
 2230              	.LVL249:
 2231              		.loc 1 367 0
 2232 02e4 3146     		mov	r1, r6
 2233 02e6 2846     		mov	r0, r5
 2234              		.loc 1 366 0
 2235 02e8 84ED380A 		vstr.32	s0, [r4, #224]
 2236              		.loc 1 367 0
 2237 02ec FFF7FEFF 		bl	buffer_get_float32_auto
 2238              	.LVL250:
 2239              		.loc 1 368 0
 2240 02f0 3146     		mov	r1, r6
 2241 02f2 2846     		mov	r0, r5
 2242              		.loc 1 367 0
 2243 02f4 84ED390A 		vstr.32	s0, [r4, #228]
 2244              		.loc 1 368 0
 2245 02f8 FFF7FEFF 		bl	buffer_get_float32_auto
 2246              	.LVL251:
 2247              		.loc 1 369 0
 2248 02fc 3146     		mov	r1, r6
 2249 02fe 2846     		mov	r0, r5
 2250              		.loc 1 368 0
 2251 0300 84ED3A0A 		vstr.32	s0, [r4, #232]
 2252              		.loc 1 369 0
 2253 0304 FFF7FEFF 		bl	buffer_get_float32_auto
 2254              	.LVL252:
 2255              		.loc 1 370 0
 2256 0308 3146     		mov	r1, r6
 2257 030a 2846     		mov	r0, r5
 2258              		.loc 1 369 0
 2259 030c 84ED3B0A 		vstr.32	s0, [r4, #236]
 2260              		.loc 1 370 0
 2261 0310 FFF7FEFF 		bl	buffer_get_float32_auto
 2262              	.LVL253:
 2263              		.loc 1 371 0
 2264 0314 3146     		mov	r1, r6
 2265 0316 2846     		mov	r0, r5
 2266              		.loc 1 370 0
 2267 0318 84ED3C0A 		vstr.32	s0, [r4, #240]
 2268              		.loc 1 371 0
 2269 031c FFF7FEFF 		bl	buffer_get_float32_auto
 2270              	.LVL254:
 2271              		.loc 1 372 0
 2272 0320 3146     		mov	r1, r6
 2273 0322 2846     		mov	r0, r5
 2274              		.loc 1 371 0
 2275 0324 84ED3F0A 		vstr.32	s0, [r4, #252]
 2276              		.loc 1 372 0
 2277 0328 FFF7FEFF 		bl	buffer_get_float32_auto
 2278              	.LVL255:
 2279              		.loc 1 373 0
 2280 032c 3146     		mov	r1, r6
ARM GAS  C:\Users\CFAR\AppData\Local\Temp\ccBnUWel.s 			page 41


 2281 032e 2846     		mov	r0, r5
 2282              		.loc 1 372 0
 2283 0330 84ED400A 		vstr.32	s0, [r4, #256]
 2284              		.loc 1 373 0
 2285 0334 FFF7FEFF 		bl	buffer_get_float32_auto
 2286              	.LVL256:
 2287              		.loc 1 374 0
 2288 0338 3146     		mov	r1, r6
 2289 033a 2846     		mov	r0, r5
 2290              		.loc 1 373 0
 2291 033c 84ED410A 		vstr.32	s0, [r4, #260]
 2292              		.loc 1 374 0
 2293 0340 FFF7FEFF 		bl	buffer_get_float32_auto
 2294              	.LVL257:
 2295              		.loc 1 375 0
 2296 0344 3146     		mov	r1, r6
 2297 0346 2846     		mov	r0, r5
 2298              		.loc 1 374 0
 2299 0348 84ED420A 		vstr.32	s0, [r4, #264]
 2300              		.loc 1 375 0
 2301 034c FFF7FEFF 		bl	buffer_get_float32_auto
 2302              	.LVL258:
 2303              		.loc 1 376 0
 2304 0350 3146     		mov	r1, r6
 2305 0352 2846     		mov	r0, r5
 2306              		.loc 1 375 0
 2307 0354 84ED430A 		vstr.32	s0, [r4, #268]
 2308              		.loc 1 376 0
 2309 0358 FFF7FEFF 		bl	buffer_get_float32_auto
 2310              	.LVL259:
 2311              		.loc 1 377 0
 2312 035c 3146     		mov	r1, r6
 2313 035e 2846     		mov	r0, r5
 2314              		.loc 1 376 0
 2315 0360 84ED440A 		vstr.32	s0, [r4, #272]
 2316              		.loc 1 377 0
 2317 0364 FFF7FEFF 		bl	buffer_get_float32_auto
 2318              	.LVL260:
 2319              		.loc 1 378 0
 2320 0368 019A     		ldr	r2, [sp, #4]
 2321              		.loc 1 377 0
 2322 036a 84ED450A 		vstr.32	s0, [r4, #276]
 2323              		.loc 1 378 0
 2324 036e AB5C     		ldrb	r3, [r5, r2]	@ zero_extendqisi2
 2325 0370 84F81931 		strb	r3, [r4, #281]
 2326              		.loc 1 379 0
 2327 0374 AB18     		adds	r3, r5, r2
 2328              		.loc 1 386 0
 2329 0376 2846     		mov	r0, r5
 2330              		.loc 1 379 0
 2331 0378 5978     		ldrb	r1, [r3, #1]	@ zero_extendqisi2
 2332 037a 84F81A11 		strb	r1, [r4, #282]
 2333              		.loc 1 380 0
 2334 037e 9978     		ldrb	r1, [r3, #2]	@ zero_extendqisi2
 2335 0380 84F81B11 		strb	r1, [r4, #283]
 2336              		.loc 1 381 0
 2337 0384 D978     		ldrb	r1, [r3, #3]	@ zero_extendqisi2
ARM GAS  C:\Users\CFAR\AppData\Local\Temp\ccBnUWel.s 			page 42


 2338 0386 84F81C11 		strb	r1, [r4, #284]
 2339              		.loc 1 382 0
 2340 038a 1979     		ldrb	r1, [r3, #4]	@ zero_extendqisi2
 2341 038c 84F81D11 		strb	r1, [r4, #285]
 2342              		.loc 1 383 0
 2343 0390 5979     		ldrb	r1, [r3, #5]	@ zero_extendqisi2
 2344 0392 84F81E11 		strb	r1, [r4, #286]
 2345              		.loc 1 384 0
 2346 0396 9979     		ldrb	r1, [r3, #6]	@ zero_extendqisi2
 2347 0398 84F81F11 		strb	r1, [r4, #287]
 2348              		.loc 1 385 0
 2349 039c DB79     		ldrb	r3, [r3, #7]	@ zero_extendqisi2
 2350 039e 84F82031 		strb	r3, [r4, #288]
 2351 03a2 0832     		adds	r2, r2, #8
 2352              		.loc 1 386 0
 2353 03a4 3146     		mov	r1, r6
 2354              		.loc 1 385 0
 2355 03a6 0192     		str	r2, [sp, #4]
 2356              		.loc 1 386 0
 2357 03a8 FFF7FEFF 		bl	buffer_get_float32_auto
 2358              	.LVL261:
 2359              		.loc 1 387 0
 2360 03ac 019B     		ldr	r3, [sp, #4]
 2361              		.loc 1 386 0
 2362 03ae 84ED490A 		vstr.32	s0, [r4, #292]
 2363              		.loc 1 387 0
 2364 03b2 EA5C     		ldrb	r2, [r5, r3]	@ zero_extendqisi2
 2365 03b4 D21B     		subs	r2, r2, r7
 2366              		.loc 1 388 0
 2367 03b6 05EB0301 		add	r1, r5, r3
 2368              		.loc 1 387 0
 2369 03ba 18BF     		it	ne
 2370 03bc 0122     		movne	r2, #1
 2371 03be 84F82821 		strb	r2, [r4, #296]
 2372              		.loc 1 388 0
 2373 03c2 4A78     		ldrb	r2, [r1, #1]	@ zero_extendqisi2
 2374 03c4 D21B     		subs	r2, r2, r7
 2375 03c6 18BF     		it	ne
 2376 03c8 0122     		movne	r2, #1
 2377 03ca 84F82921 		strb	r2, [r4, #297]
 2378 03ce 0233     		adds	r3, r3, #2
 2379              		.loc 1 389 0
 2380 03d0 3146     		mov	r1, r6
 2381 03d2 2846     		mov	r0, r5
 2382              		.loc 1 388 0
 2383 03d4 0193     		str	r3, [sp, #4]
 2384              		.loc 1 389 0
 2385 03d6 FFF7FEFF 		bl	buffer_get_float32_auto
 2386              	.LVL262:
 2387              		.loc 1 390 0
 2388 03da 019B     		ldr	r3, [sp, #4]
 2389              		.loc 1 389 0
 2390 03dc 84ED4B0A 		vstr.32	s0, [r4, #300]
 2391              		.loc 1 390 0
 2392 03e0 EA5C     		ldrb	r2, [r5, r3]	@ zero_extendqisi2
 2393 03e2 D21B     		subs	r2, r2, r7
 2394 03e4 18BF     		it	ne
ARM GAS  C:\Users\CFAR\AppData\Local\Temp\ccBnUWel.s 			page 43


 2395 03e6 0122     		movne	r2, #1
 2396 03e8 84F83021 		strb	r2, [r4, #304]
 2397 03ec 0133     		adds	r3, r3, #1
 2398              		.loc 1 391 0
 2399 03ee 3146     		mov	r1, r6
 2400 03f0 2846     		mov	r0, r5
 2401              		.loc 1 390 0
 2402 03f2 0193     		str	r3, [sp, #4]
 2403              		.loc 1 391 0
 2404 03f4 FFF7FEFF 		bl	buffer_get_float32_auto
 2405              	.LVL263:
 2406              		.loc 1 392 0
 2407 03f8 3146     		mov	r1, r6
 2408 03fa 2846     		mov	r0, r5
 2409              		.loc 1 391 0
 2410 03fc 84ED4D0A 		vstr.32	s0, [r4, #308]
 2411              		.loc 1 392 0
 2412 0400 FFF7FEFF 		bl	buffer_get_float32_auto
 2413              	.LVL264:
 2414              		.loc 1 393 0
 2415 0404 019B     		ldr	r3, [sp, #4]
 2416              		.loc 1 392 0
 2417 0406 84ED4E0A 		vstr.32	s0, [r4, #312]
 2418              		.loc 1 393 0
 2419 040a EA5C     		ldrb	r2, [r5, r3]	@ zero_extendqisi2
 2420 040c 84F83C21 		strb	r2, [r4, #316]
 2421              		.loc 1 394 0
 2422 0410 EA18     		adds	r2, r5, r3
 2423              		.loc 1 395 0
 2424 0412 3146     		mov	r1, r6
 2425              		.loc 1 394 0
 2426 0414 5278     		ldrb	r2, [r2, #1]	@ zero_extendqisi2
 2427 0416 84F83D21 		strb	r2, [r4, #317]
 2428 041a 0233     		adds	r3, r3, #2
 2429              		.loc 1 395 0
 2430 041c 2846     		mov	r0, r5
 2431              		.loc 1 394 0
 2432 041e 0193     		str	r3, [sp, #4]
 2433              		.loc 1 395 0
 2434 0420 FFF7FEFF 		bl	buffer_get_float32_auto
 2435              	.LVL265:
 2436              		.loc 1 396 0
 2437 0424 3146     		mov	r1, r6
 2438 0426 2846     		mov	r0, r5
 2439              		.loc 1 395 0
 2440 0428 84ED500A 		vstr.32	s0, [r4, #320]
 2441              		.loc 1 396 0
 2442 042c FFF7FEFF 		bl	buffer_get_float32_auto
 2443              	.LVL266:
 2444              		.loc 1 397 0
 2445 0430 3146     		mov	r1, r6
 2446 0432 2846     		mov	r0, r5
 2447              		.loc 1 396 0
 2448 0434 84ED510A 		vstr.32	s0, [r4, #324]
 2449              		.loc 1 397 0
 2450 0438 FFF7FEFF 		bl	buffer_get_float32_auto
 2451              	.LVL267:
ARM GAS  C:\Users\CFAR\AppData\Local\Temp\ccBnUWel.s 			page 44


 2452              		.loc 1 398 0
 2453 043c 3146     		mov	r1, r6
 2454 043e 2846     		mov	r0, r5
 2455              		.loc 1 397 0
 2456 0440 84ED520A 		vstr.32	s0, [r4, #328]
 2457              		.loc 1 398 0
 2458 0444 FFF7FEFF 		bl	buffer_get_float32_auto
 2459              	.LVL268:
 2460              		.loc 1 399 0
 2461 0448 3146     		mov	r1, r6
 2462              		.loc 1 398 0
 2463 044a 84ED530A 		vstr.32	s0, [r4, #332]
 2464              		.loc 1 399 0
 2465 044e 2846     		mov	r0, r5
 2466 0450 FFF7FEFF 		bl	buffer_get_uint16
 2467              	.LVL269:
 2468              		.loc 1 400 0
 2469 0454 3146     		mov	r1, r6
 2470              		.loc 1 399 0
 2471 0456 A4F85001 		strh	r0, [r4, #336]	@ movhi
 2472              		.loc 1 400 0
 2473 045a 2846     		mov	r0, r5
 2474 045c FFF7FEFF 		bl	buffer_get_float32_auto
 2475              	.LVL270:
 2476              		.loc 1 401 0
 2477 0460 019B     		ldr	r3, [sp, #4]
 2478              		.loc 1 400 0
 2479 0462 84ED550A 		vstr.32	s0, [r4, #340]
 2480              		.loc 1 401 0
 2481 0466 EA5C     		ldrb	r2, [r5, r3]	@ zero_extendqisi2
 2482 0468 84F85821 		strb	r2, [r4, #344]
 2483 046c 0133     		adds	r3, r3, #1
 2484              		.loc 1 402 0
 2485 046e 3146     		mov	r1, r6
 2486 0470 2846     		mov	r0, r5
 2487              		.loc 1 401 0
 2488 0472 0193     		str	r3, [sp, #4]
 2489              		.loc 1 402 0
 2490 0474 FFF7FEFF 		bl	buffer_get_int16
 2491              	.LVL271:
 2492              		.loc 1 403 0
 2493 0478 3146     		mov	r1, r6
 2494              		.loc 1 402 0
 2495 047a C4F85C01 		str	r0, [r4, #348]
 2496              		.loc 1 403 0
 2497 047e 2846     		mov	r0, r5
 2498 0480 FFF7FEFF 		bl	buffer_get_int16
 2499              	.LVL272:
 2500              		.loc 1 404 0
 2501 0484 3146     		mov	r1, r6
 2502              		.loc 1 403 0
 2503 0486 C4F86001 		str	r0, [r4, #352]
 2504              		.loc 1 404 0
 2505 048a 2846     		mov	r0, r5
 2506 048c FFF7FEFF 		bl	buffer_get_float32_auto
 2507              	.LVL273:
 2508              		.loc 1 405 0
ARM GAS  C:\Users\CFAR\AppData\Local\Temp\ccBnUWel.s 			page 45


 2509 0490 3146     		mov	r1, r6
 2510 0492 2846     		mov	r0, r5
 2511              		.loc 1 404 0
 2512 0494 84ED590A 		vstr.32	s0, [r4, #356]
 2513              		.loc 1 405 0
 2514 0498 FFF7FEFF 		bl	buffer_get_float32_auto
 2515              	.LVL274:
 2516              		.loc 1 406 0
 2517 049c 3146     		mov	r1, r6
 2518 049e 2846     		mov	r0, r5
 2519              		.loc 1 405 0
 2520 04a0 84ED5A0A 		vstr.32	s0, [r4, #360]
 2521              		.loc 1 406 0
 2522 04a4 FFF7FEFF 		bl	buffer_get_float32_auto
 2523              	.LVL275:
 2524              		.loc 1 407 0
 2525 04a8 3146     		mov	r1, r6
 2526 04aa 2846     		mov	r0, r5
 2527              		.loc 1 406 0
 2528 04ac 84ED5B0A 		vstr.32	s0, [r4, #364]
 2529              		.loc 1 407 0
 2530 04b0 FFF7FEFF 		bl	buffer_get_float32_auto
 2531              	.LVL276:
 2532              		.loc 1 408 0
 2533 04b4 3146     		mov	r1, r6
 2534 04b6 2846     		mov	r0, r5
 2535              		.loc 1 407 0
 2536 04b8 84ED5C0A 		vstr.32	s0, [r4, #368]
 2537              		.loc 1 408 0
 2538 04bc FFF7FEFF 		bl	buffer_get_float32_auto
 2539              	.LVL277:
 2540              		.loc 1 409 0
 2541 04c0 3146     		mov	r1, r6
 2542 04c2 2846     		mov	r0, r5
 2543              		.loc 1 408 0
 2544 04c4 84ED5D0A 		vstr.32	s0, [r4, #372]
 2545              		.loc 1 409 0
 2546 04c8 FFF7FEFF 		bl	buffer_get_float32_auto
 2547              	.LVL278:
 2548              		.loc 1 410 0
 2549 04cc 3146     		mov	r1, r6
 2550 04ce 2846     		mov	r0, r5
 2551              		.loc 1 409 0
 2552 04d0 84ED5E0A 		vstr.32	s0, [r4, #376]
 2553              		.loc 1 410 0
 2554 04d4 FFF7FEFF 		bl	buffer_get_float32_auto
 2555              	.LVL279:
 2556              		.loc 1 411 0
 2557 04d8 3146     		mov	r1, r6
 2558 04da 2846     		mov	r0, r5
 2559              		.loc 1 410 0
 2560 04dc 84ED5F0A 		vstr.32	s0, [r4, #380]
 2561              		.loc 1 411 0
 2562 04e0 FFF7FEFF 		bl	buffer_get_float32_auto
 2563              	.LVL280:
 2564              		.loc 1 412 0
 2565 04e4 019B     		ldr	r3, [sp, #4]
ARM GAS  C:\Users\CFAR\AppData\Local\Temp\ccBnUWel.s 			page 46


 2566              		.loc 1 411 0
 2567 04e6 84ED600A 		vstr.32	s0, [r4, #384]
 2568              		.loc 1 412 0
 2569 04ea EA5C     		ldrb	r2, [r5, r3]	@ zero_extendqisi2
 2570 04ec D21B     		subs	r2, r2, r7
 2571 04ee 18BF     		it	ne
 2572 04f0 0122     		movne	r2, #1
 2573 04f2 84F88421 		strb	r2, [r4, #388]
 2574 04f6 0133     		adds	r3, r3, #1
 2575              		.loc 1 413 0
 2576 04f8 3146     		mov	r1, r6
 2577 04fa 2846     		mov	r0, r5
 2578              		.loc 1 412 0
 2579 04fc 0193     		str	r3, [sp, #4]
 2580              		.loc 1 413 0
 2581 04fe FFF7FEFF 		bl	buffer_get_float32_auto
 2582              	.LVL281:
 2583              		.loc 1 414 0
 2584 0502 3146     		mov	r1, r6
 2585 0504 2846     		mov	r0, r5
 2586              		.loc 1 413 0
 2587 0506 84ED620A 		vstr.32	s0, [r4, #392]
 2588              		.loc 1 414 0
 2589 050a FFF7FEFF 		bl	buffer_get_float32_auto
 2590              	.LVL282:
 2591              		.loc 1 415 0
 2592 050e 3146     		mov	r1, r6
 2593 0510 2846     		mov	r0, r5
 2594              		.loc 1 414 0
 2595 0512 84ED630A 		vstr.32	s0, [r4, #396]
 2596              		.loc 1 415 0
 2597 0516 FFF7FEFF 		bl	buffer_get_float32_auto
 2598              	.LVL283:
 2599              		.loc 1 416 0
 2600 051a 3146     		mov	r1, r6
 2601 051c 2846     		mov	r0, r5
 2602              		.loc 1 415 0
 2603 051e 84ED640A 		vstr.32	s0, [r4, #400]
 2604              		.loc 1 416 0
 2605 0522 FFF7FEFF 		bl	buffer_get_float32_auto
 2606              	.LVL284:
 2607              		.loc 1 417 0
 2608 0526 3146     		mov	r1, r6
 2609 0528 2846     		mov	r0, r5
 2610              		.loc 1 416 0
 2611 052a 84ED650A 		vstr.32	s0, [r4, #404]
 2612              		.loc 1 417 0
 2613 052e FFF7FEFF 		bl	buffer_get_float32_auto
 2614              	.LVL285:
 2615              		.loc 1 418 0
 2616 0532 3146     		mov	r1, r6
 2617 0534 2846     		mov	r0, r5
 2618              		.loc 1 417 0
 2619 0536 84ED660A 		vstr.32	s0, [r4, #408]
 2620              		.loc 1 418 0
 2621 053a FFF7FEFF 		bl	buffer_get_float32_auto
 2622              	.LVL286:
ARM GAS  C:\Users\CFAR\AppData\Local\Temp\ccBnUWel.s 			page 47


 2623              		.loc 1 419 0
 2624 053e 3146     		mov	r1, r6
 2625 0540 2846     		mov	r0, r5
 2626              		.loc 1 418 0
 2627 0542 84ED670A 		vstr.32	s0, [r4, #412]
 2628              		.loc 1 419 0
 2629 0546 FFF7FEFF 		bl	buffer_get_float32_auto
 2630              	.LVL287:
 2631              		.loc 1 420 0
 2632 054a 3146     		mov	r1, r6
 2633 054c 2846     		mov	r0, r5
 2634              		.loc 1 419 0
 2635 054e 84ED680A 		vstr.32	s0, [r4, #416]
 2636              		.loc 1 420 0
 2637 0552 FFF7FEFF 		bl	buffer_get_float32_auto
 2638              	.LVL288:
 2639              		.loc 1 421 0
 2640 0556 3146     		mov	r1, r6
 2641 0558 2846     		mov	r0, r5
 2642              		.loc 1 420 0
 2643 055a 84ED690A 		vstr.32	s0, [r4, #420]
 2644              		.loc 1 421 0
 2645 055e FFF7FEFF 		bl	buffer_get_float32_auto
 2646              	.LVL289:
 2647              		.loc 1 422 0
 2648 0562 3146     		mov	r1, r6
 2649              		.loc 1 421 0
 2650 0564 84ED6A0A 		vstr.32	s0, [r4, #424]
 2651              		.loc 1 422 0
 2652 0568 2846     		mov	r0, r5
 2653 056a FFF7FEFF 		bl	buffer_get_int32
 2654              	.LVL290:
 2655              		.loc 1 423 0
 2656 056e 3146     		mov	r1, r6
 2657              		.loc 1 422 0
 2658 0570 C4F8AC01 		str	r0, [r4, #428]
 2659              		.loc 1 423 0
 2660 0574 2846     		mov	r0, r5
 2661 0576 FFF7FEFF 		bl	buffer_get_float32_auto
 2662              	.LVL291:
 2663              		.loc 1 424 0
 2664 057a 3146     		mov	r1, r6
 2665 057c 2846     		mov	r0, r5
 2666              		.loc 1 423 0
 2667 057e 84ED6C0A 		vstr.32	s0, [r4, #432]
 2668              		.loc 1 424 0
 2669 0582 FFF7FEFF 		bl	buffer_get_float32_auto
 2670              	.LVL292:
 2671              		.loc 1 425 0
 2672 0586 3146     		mov	r1, r6
 2673              		.loc 1 424 0
 2674 0588 84ED6D0A 		vstr.32	s0, [r4, #436]
 2675              		.loc 1 425 0
 2676 058c 2846     		mov	r0, r5
 2677 058e FFF7FEFF 		bl	buffer_get_uint32
 2678              	.LVL293:
 2679              		.loc 1 426 0
ARM GAS  C:\Users\CFAR\AppData\Local\Temp\ccBnUWel.s 			page 48


 2680 0592 019B     		ldr	r3, [sp, #4]
 2681              		.loc 1 425 0
 2682 0594 C4F8B801 		str	r0, [r4, #440]
 2683              		.loc 1 426 0
 2684 0598 EA5C     		ldrb	r2, [r5, r3]	@ zero_extendqisi2
 2685 059a 84F8BC21 		strb	r2, [r4, #444]
 2686              		.loc 1 427 0
 2687 059e EA18     		adds	r2, r5, r3
 2688              		.loc 1 429 0
 2689 05a0 0433     		adds	r3, r3, #4
 2690              		.loc 1 427 0
 2691 05a2 5178     		ldrb	r1, [r2, #1]	@ zero_extendqisi2
 2692              		.loc 1 429 0
 2693 05a4 0193     		str	r3, [sp, #4]
 2694              		.loc 1 427 0
 2695 05a6 CB1B     		subs	r3, r1, r7
 2696 05a8 18BF     		it	ne
 2697 05aa 0123     		movne	r3, #1
 2698 05ac 84F8BD31 		strb	r3, [r4, #445]
 2699              		.loc 1 428 0
 2700 05b0 9378     		ldrb	r3, [r2, #2]	@ zero_extendqisi2
 2701 05b2 84F8BE31 		strb	r3, [r4, #446]
 2702              		.loc 1 429 0
 2703 05b6 D378     		ldrb	r3, [r2, #3]	@ zero_extendqisi2
 2704 05b8 C4F8C031 		str	r3, [r4, #448]
 2705              		.loc 1 430 0
 2706 05bc 3146     		mov	r1, r6
 2707 05be 2846     		mov	r0, r5
 2708 05c0 FFF7FEFF 		bl	buffer_get_float32_auto
 2709              	.LVL294:
 2710              		.loc 1 431 0
 2711 05c4 3146     		mov	r1, r6
 2712 05c6 2846     		mov	r0, r5
 2713              		.loc 1 430 0
 2714 05c8 84ED710A 		vstr.32	s0, [r4, #452]
 2715              		.loc 1 431 0
 2716 05cc FFF7FEFF 		bl	buffer_get_float32_auto
 2717              	.LVL295:
 2718              		.loc 1 432 0
 2719 05d0 3146     		mov	r1, r6
 2720 05d2 2846     		mov	r0, r5
 2721              		.loc 1 431 0
 2722 05d4 84ED720A 		vstr.32	s0, [r4, #456]
 2723              		.loc 1 432 0
 2724 05d8 FFF7FEFF 		bl	buffer_get_float32_auto
 2725              	.LVL296:
 2726              		.loc 1 433 0
 2727 05dc 3146     		mov	r1, r6
 2728 05de 2846     		mov	r0, r5
 2729              		.loc 1 432 0
 2730 05e0 84ED730A 		vstr.32	s0, [r4, #460]
 2731              		.loc 1 433 0
 2732 05e4 FFF7FEFF 		bl	buffer_get_float32_auto
 2733              	.LVL297:
 2734              		.loc 1 434 0
 2735 05e8 019B     		ldr	r3, [sp, #4]
 2736              		.loc 1 433 0
ARM GAS  C:\Users\CFAR\AppData\Local\Temp\ccBnUWel.s 			page 49


 2737 05ea 84ED740A 		vstr.32	s0, [r4, #464]
 2738              		.loc 1 434 0
 2739 05ee EA5C     		ldrb	r2, [r5, r3]	@ zero_extendqisi2
 2740 05f0 84F8D421 		strb	r2, [r4, #468]
 2741              		.loc 1 435 0
 2742 05f4 EA18     		adds	r2, r5, r3
 2743              		.loc 1 436 0
 2744 05f6 3146     		mov	r1, r6
 2745              		.loc 1 435 0
 2746 05f8 5278     		ldrb	r2, [r2, #1]	@ zero_extendqisi2
 2747 05fa 84F8D521 		strb	r2, [r4, #469]
 2748 05fe 0233     		adds	r3, r3, #2
 2749              		.loc 1 436 0
 2750 0600 2846     		mov	r0, r5
 2751              		.loc 1 435 0
 2752 0602 0193     		str	r3, [sp, #4]
 2753              		.loc 1 436 0
 2754 0604 FFF7FEFF 		bl	buffer_get_float32_auto
 2755              	.LVL298:
 2756              		.loc 1 437 0
 2757 0608 019B     		ldr	r3, [sp, #4]
 2758              		.loc 1 436 0
 2759 060a 84ED760A 		vstr.32	s0, [r4, #472]
 2760              		.loc 1 437 0
 2761 060e EA5C     		ldrb	r2, [r5, r3]	@ zero_extendqisi2
 2762 0610 84F8DC21 		strb	r2, [r4, #476]
 2763 0614 0133     		adds	r3, r3, #1
 2764              		.loc 1 438 0
 2765 0616 3146     		mov	r1, r6
 2766 0618 2846     		mov	r0, r5
 2767              		.loc 1 437 0
 2768 061a 0193     		str	r3, [sp, #4]
 2769              		.loc 1 438 0
 2770 061c FFF7FEFF 		bl	buffer_get_float32_auto
 2771              	.LVL299:
 2772              		.loc 1 439 0
 2773 0620 3146     		mov	r1, r6
 2774 0622 2846     		mov	r0, r5
 2775              		.loc 1 438 0
 2776 0624 84ED780A 		vstr.32	s0, [r4, #480]
 2777              		.loc 1 439 0
 2778 0628 FFF7FEFF 		bl	buffer_get_float32_auto
 2779              	.LVL300:
 2780              		.loc 1 440 0
 2781 062c 019B     		ldr	r3, [sp, #4]
 2782              		.loc 1 439 0
 2783 062e 84ED790A 		vstr.32	s0, [r4, #484]
 2784              		.loc 1 440 0
 2785 0632 EA5C     		ldrb	r2, [r5, r3]	@ zero_extendqisi2
 2786 0634 84F8E821 		strb	r2, [r4, #488]
 2787              		.loc 1 441 0
 2788 0638 EA18     		adds	r2, r5, r3
 2789              		.loc 1 442 0
 2790 063a 2846     		mov	r0, r5
 2791              		.loc 1 441 0
 2792 063c 5278     		ldrb	r2, [r2, #1]	@ zero_extendqisi2
 2793 063e C4F8EC21 		str	r2, [r4, #492]
ARM GAS  C:\Users\CFAR\AppData\Local\Temp\ccBnUWel.s 			page 50


 2794 0642 0233     		adds	r3, r3, #2
 2795              		.loc 1 442 0
 2796 0644 3146     		mov	r1, r6
 2797              		.loc 1 441 0
 2798 0646 0193     		str	r3, [sp, #4]
 2799              		.loc 1 442 0
 2800 0648 FFF7FEFF 		bl	buffer_get_float32_auto
 2801              	.LVL301:
 2802              		.loc 1 444 0
 2803 064c 0120     		movs	r0, #1
 2804              		.loc 1 442 0
 2805 064e 84ED7C0A 		vstr.32	s0, [r4, #496]
 2806              		.loc 1 445 0
 2807 0652 03B0     		add	sp, sp, #12
 2808              		.cfi_def_cfa_offset 20
 2809              		@ sp needed
 2810 0654 F0BD     		pop	{r4, r5, r6, r7, pc}
 2811              		.cfi_endproc
 2812              	.LFE221:
 2813              		.size	confgenerator_deserialize_mcconf, .-confgenerator_deserialize_mcconf
 2814 0656 00BF     		.section	.text.confgenerator_deserialize_appconf,"ax",%progbits
 2815              		.align	1
 2816              		.p2align 4,,15
 2817              		.global	confgenerator_deserialize_appconf
 2818              		.syntax unified
 2819              		.thumb
 2820              		.thumb_func
 2821              		.fpu fpv4-sp-d16
 2822              		.type	confgenerator_deserialize_appconf, %function
 2823              	confgenerator_deserialize_appconf:
 2824              	.LFB222:
 2825              		.loc 1 447 0
 2826              		.cfi_startproc
 2827              		@ args = 0, pretend = 0, frame = 8
 2828              		@ frame_needed = 0, uses_anonymous_args = 0
 2829              	.LVL302:
 2830 0000 F0B5     		push	{r4, r5, r6, r7, lr}
 2831              		.cfi_def_cfa_offset 20
 2832              		.cfi_offset 4, -20
 2833              		.cfi_offset 5, -16
 2834              		.cfi_offset 6, -12
 2835              		.cfi_offset 7, -8
 2836              		.cfi_offset 14, -4
 2837 0002 83B0     		sub	sp, sp, #12
 2838              		.cfi_def_cfa_offset 32
 2839              		.loc 1 448 0
 2840 0004 02AE     		add	r6, sp, #8
 2841 0006 0027     		movs	r7, #0
 2842 0008 46F8047D 		str	r7, [r6, #-4]!
 2843              		.loc 1 447 0
 2844 000c 0C46     		mov	r4, r1
 2845              		.loc 1 450 0
 2846 000e 3146     		mov	r1, r6
 2847              	.LVL303:
 2848              		.loc 1 447 0
 2849 0010 0546     		mov	r5, r0
 2850              		.loc 1 450 0
ARM GAS  C:\Users\CFAR\AppData\Local\Temp\ccBnUWel.s 			page 51


 2851 0012 FFF7FEFF 		bl	buffer_get_uint32
 2852              	.LVL304:
 2853              		.loc 1 451 0
 2854 0016 034B     		ldr	r3, .L24
 2855 0018 9842     		cmp	r0, r3
 2856 001a 05D0     		beq	.L23
 2857              		.loc 1 452 0
 2858 001c 3846     		mov	r0, r7
 2859              	.LVL305:
 2860              		.loc 1 589 0
 2861 001e 03B0     		add	sp, sp, #12
 2862              		.cfi_remember_state
 2863              		.cfi_def_cfa_offset 20
 2864              		@ sp needed
 2865 0020 F0BD     		pop	{r4, r5, r6, r7, pc}
 2866              	.LVL306:
 2867              	.L25:
 2868 0022 00BF     		.align	2
 2869              	.L24:
 2870 0024 2EDEA292 		.word	-1834820050
 2871              	.LVL307:
 2872              	.L23:
 2873              		.cfi_restore_state
 2874              		.loc 1 455 0
 2875 0028 019B     		ldr	r3, [sp, #4]
 2876 002a EA5C     		ldrb	r2, [r5, r3]	@ zero_extendqisi2
 2877 002c 2270     		strb	r2, [r4]
 2878 002e 0133     		adds	r3, r3, #1
 2879              		.loc 1 456 0
 2880 0030 3146     		mov	r1, r6
 2881 0032 2846     		mov	r0, r5
 2882              	.LVL308:
 2883              		.loc 1 455 0
 2884 0034 0193     		str	r3, [sp, #4]
 2885              		.loc 1 456 0
 2886 0036 FFF7FEFF 		bl	buffer_get_uint32
 2887              	.LVL309:
 2888              		.loc 1 457 0
 2889 003a 3146     		mov	r1, r6
 2890              		.loc 1 456 0
 2891 003c 6060     		str	r0, [r4, #4]
 2892              		.loc 1 457 0
 2893 003e 2846     		mov	r0, r5
 2894 0040 FFF7FEFF 		bl	buffer_get_float32_auto
 2895              	.LVL310:
 2896              		.loc 1 458 0
 2897 0044 019B     		ldr	r3, [sp, #4]
 2898              		.loc 1 457 0
 2899 0046 84ED020A 		vstr.32	s0, [r4, #8]
 2900              		.loc 1 458 0
 2901 004a EA5C     		ldrb	r2, [r5, r3]	@ zero_extendqisi2
 2902 004c 2273     		strb	r2, [r4, #12]
 2903 004e 0133     		adds	r3, r3, #1
 2904              		.loc 1 459 0
 2905 0050 3146     		mov	r1, r6
 2906 0052 2846     		mov	r0, r5
 2907              		.loc 1 458 0
ARM GAS  C:\Users\CFAR\AppData\Local\Temp\ccBnUWel.s 			page 52


 2908 0054 0193     		str	r3, [sp, #4]
 2909              		.loc 1 459 0
 2910 0056 FFF7FEFF 		bl	buffer_get_uint16
 2911              	.LVL311:
 2912              		.loc 1 460 0
 2913 005a 019A     		ldr	r2, [sp, #4]
 2914              		.loc 1 459 0
 2915 005c 2061     		str	r0, [r4, #16]
 2916              		.loc 1 460 0
 2917 005e AB5C     		ldrb	r3, [r5, r2]	@ zero_extendqisi2
 2918 0060 2375     		strb	r3, [r4, #20]
 2919              		.loc 1 461 0
 2920 0062 AB18     		adds	r3, r5, r2
 2921              		.loc 1 467 0
 2922 0064 0832     		adds	r2, r2, #8
 2923              		.loc 1 461 0
 2924 0066 5978     		ldrb	r1, [r3, #1]	@ zero_extendqisi2
 2925              		.loc 1 467 0
 2926 0068 0192     		str	r2, [sp, #4]
 2927              		.loc 1 461 0
 2928 006a CA1B     		subs	r2, r1, r7
 2929 006c 18BF     		it	ne
 2930 006e 0122     		movne	r2, #1
 2931 0070 6275     		strb	r2, [r4, #21]
 2932              		.loc 1 462 0
 2933 0072 9A78     		ldrb	r2, [r3, #2]	@ zero_extendqisi2
 2934 0074 D21B     		subs	r2, r2, r7
 2935 0076 18BF     		it	ne
 2936 0078 0122     		movne	r2, #1
 2937 007a A275     		strb	r2, [r4, #22]
 2938              		.loc 1 463 0
 2939 007c DA78     		ldrb	r2, [r3, #3]	@ zero_extendqisi2
 2940 007e E275     		strb	r2, [r4, #23]
 2941              		.loc 1 464 0
 2942 0080 1A79     		ldrb	r2, [r3, #4]	@ zero_extendqisi2
 2943 0082 2276     		strb	r2, [r4, #24]
 2944              		.loc 1 465 0
 2945 0084 5A79     		ldrb	r2, [r3, #5]	@ zero_extendqisi2
 2946 0086 6276     		strb	r2, [r4, #25]
 2947              		.loc 1 466 0
 2948 0088 9A79     		ldrb	r2, [r3, #6]	@ zero_extendqisi2
 2949 008a A276     		strb	r2, [r4, #26]
 2950              		.loc 1 467 0
 2951 008c DB79     		ldrb	r3, [r3, #7]	@ zero_extendqisi2
 2952 008e 2377     		strb	r3, [r4, #28]
 2953              		.loc 1 468 0
 2954 0090 3146     		mov	r1, r6
 2955 0092 2846     		mov	r0, r5
 2956 0094 FFF7FEFF 		bl	buffer_get_float32_auto
 2957              	.LVL312:
 2958              		.loc 1 469 0
 2959 0098 3146     		mov	r1, r6
 2960 009a 2846     		mov	r0, r5
 2961              		.loc 1 468 0
 2962 009c 84ED080A 		vstr.32	s0, [r4, #32]
 2963              		.loc 1 469 0
 2964 00a0 FFF7FEFF 		bl	buffer_get_float32_auto
ARM GAS  C:\Users\CFAR\AppData\Local\Temp\ccBnUWel.s 			page 53


 2965              	.LVL313:
 2966              		.loc 1 470 0
 2967 00a4 3146     		mov	r1, r6
 2968 00a6 2846     		mov	r0, r5
 2969              		.loc 1 469 0
 2970 00a8 84ED090A 		vstr.32	s0, [r4, #36]
 2971              		.loc 1 470 0
 2972 00ac FFF7FEFF 		bl	buffer_get_float32_auto
 2973              	.LVL314:
 2974              		.loc 1 471 0
 2975 00b0 3146     		mov	r1, r6
 2976 00b2 2846     		mov	r0, r5
 2977              		.loc 1 470 0
 2978 00b4 84ED0A0A 		vstr.32	s0, [r4, #40]
 2979              		.loc 1 471 0
 2980 00b8 FFF7FEFF 		bl	buffer_get_float32_auto
 2981              	.LVL315:
 2982              		.loc 1 472 0
 2983 00bc 3146     		mov	r1, r6
 2984 00be 2846     		mov	r0, r5
 2985              		.loc 1 471 0
 2986 00c0 84ED0B0A 		vstr.32	s0, [r4, #44]
 2987              		.loc 1 472 0
 2988 00c4 FFF7FEFF 		bl	buffer_get_float32_auto
 2989              	.LVL316:
 2990              		.loc 1 473 0
 2991 00c8 019B     		ldr	r3, [sp, #4]
 2992              		.loc 1 472 0
 2993 00ca 84ED0C0A 		vstr.32	s0, [r4, #48]
 2994              		.loc 1 473 0
 2995 00ce EA5C     		ldrb	r2, [r5, r3]	@ zero_extendqisi2
 2996 00d0 D21B     		subs	r2, r2, r7
 2997              		.loc 1 474 0
 2998 00d2 05EB0301 		add	r1, r5, r3
 2999              		.loc 1 473 0
 3000 00d6 18BF     		it	ne
 3001 00d8 0122     		movne	r2, #1
 3002 00da 84F83420 		strb	r2, [r4, #52]
 3003              		.loc 1 474 0
 3004 00de 4A78     		ldrb	r2, [r1, #1]	@ zero_extendqisi2
 3005 00e0 D21B     		subs	r2, r2, r7
 3006 00e2 18BF     		it	ne
 3007 00e4 0122     		movne	r2, #1
 3008 00e6 84F83520 		strb	r2, [r4, #53]
 3009 00ea 0233     		adds	r3, r3, #2
 3010              		.loc 1 475 0
 3011 00ec 3146     		mov	r1, r6
 3012 00ee 2846     		mov	r0, r5
 3013              		.loc 1 474 0
 3014 00f0 0193     		str	r3, [sp, #4]
 3015              		.loc 1 475 0
 3016 00f2 FFF7FEFF 		bl	buffer_get_float32_auto
 3017              	.LVL317:
 3018              		.loc 1 476 0
 3019 00f6 3146     		mov	r1, r6
 3020 00f8 2846     		mov	r0, r5
 3021              		.loc 1 475 0
ARM GAS  C:\Users\CFAR\AppData\Local\Temp\ccBnUWel.s 			page 54


 3022 00fa 84ED0E0A 		vstr.32	s0, [r4, #56]
 3023              		.loc 1 476 0
 3024 00fe FFF7FEFF 		bl	buffer_get_float32_auto
 3025              	.LVL318:
 3026              		.loc 1 477 0
 3027 0102 019B     		ldr	r3, [sp, #4]
 3028              		.loc 1 476 0
 3029 0104 84ED0F0A 		vstr.32	s0, [r4, #60]
 3030              		.loc 1 477 0
 3031 0108 EA5C     		ldrb	r2, [r5, r3]	@ zero_extendqisi2
 3032 010a 84F84020 		strb	r2, [r4, #64]
 3033 010e 0133     		adds	r3, r3, #1
 3034              		.loc 1 478 0
 3035 0110 3146     		mov	r1, r6
 3036 0112 2846     		mov	r0, r5
 3037              		.loc 1 477 0
 3038 0114 0193     		str	r3, [sp, #4]
 3039              		.loc 1 478 0
 3040 0116 FFF7FEFF 		bl	buffer_get_float32_auto
 3041              	.LVL319:
 3042              		.loc 1 479 0
 3043 011a 3146     		mov	r1, r6
 3044 011c 2846     		mov	r0, r5
 3045              		.loc 1 478 0
 3046 011e 84ED110A 		vstr.32	s0, [r4, #68]
 3047              		.loc 1 479 0
 3048 0122 FFF7FEFF 		bl	buffer_get_float32_auto
 3049              	.LVL320:
 3050              		.loc 1 480 0
 3051 0126 019B     		ldr	r3, [sp, #4]
 3052              		.loc 1 479 0
 3053 0128 84ED120A 		vstr.32	s0, [r4, #72]
 3054              		.loc 1 480 0
 3055 012c EA5C     		ldrb	r2, [r5, r3]	@ zero_extendqisi2
 3056 012e D21B     		subs	r2, r2, r7
 3057              		.loc 1 481 0
 3058 0130 05EB0301 		add	r1, r5, r3
 3059              		.loc 1 480 0
 3060 0134 18BF     		it	ne
 3061 0136 0122     		movne	r2, #1
 3062 0138 84F84C20 		strb	r2, [r4, #76]
 3063              		.loc 1 481 0
 3064 013c 4A78     		ldrb	r2, [r1, #1]	@ zero_extendqisi2
 3065 013e D21B     		subs	r2, r2, r7
 3066 0140 18BF     		it	ne
 3067 0142 0122     		movne	r2, #1
 3068 0144 84F84D20 		strb	r2, [r4, #77]
 3069 0148 0233     		adds	r3, r3, #2
 3070              		.loc 1 482 0
 3071 014a 3146     		mov	r1, r6
 3072 014c 2846     		mov	r0, r5
 3073              		.loc 1 481 0
 3074 014e 0193     		str	r3, [sp, #4]
 3075              		.loc 1 482 0
 3076 0150 FFF7FEFF 		bl	buffer_get_float32_auto
 3077              	.LVL321:
 3078              		.loc 1 483 0
ARM GAS  C:\Users\CFAR\AppData\Local\Temp\ccBnUWel.s 			page 55


 3079 0154 3146     		mov	r1, r6
 3080 0156 2846     		mov	r0, r5
 3081              		.loc 1 482 0
 3082 0158 84ED140A 		vstr.32	s0, [r4, #80]
 3083              		.loc 1 483 0
 3084 015c FFF7FEFF 		bl	buffer_get_float32_auto
 3085              	.LVL322:
 3086              		.loc 1 484 0
 3087 0160 3146     		mov	r1, r6
 3088 0162 2846     		mov	r0, r5
 3089              		.loc 1 483 0
 3090 0164 84ED150A 		vstr.32	s0, [r4, #84]
 3091              		.loc 1 484 0
 3092 0168 FFF7FEFF 		bl	buffer_get_float32_auto
 3093              	.LVL323:
 3094              		.loc 1 485 0
 3095 016c 3146     		mov	r1, r6
 3096 016e 2846     		mov	r0, r5
 3097              		.loc 1 484 0
 3098 0170 84ED160A 		vstr.32	s0, [r4, #88]
 3099              		.loc 1 485 0
 3100 0174 FFF7FEFF 		bl	buffer_get_float32_auto
 3101              	.LVL324:
 3102              		.loc 1 486 0
 3103 0178 019B     		ldr	r3, [sp, #4]
 3104              		.loc 1 485 0
 3105 017a 84ED170A 		vstr.32	s0, [r4, #92]
 3106              		.loc 1 486 0
 3107 017e EA5C     		ldrb	r2, [r5, r3]	@ zero_extendqisi2
 3108 0180 84F86020 		strb	r2, [r4, #96]
 3109 0184 0133     		adds	r3, r3, #1
 3110              		.loc 1 487 0
 3111 0186 3146     		mov	r1, r6
 3112 0188 2846     		mov	r0, r5
 3113              		.loc 1 486 0
 3114 018a 0193     		str	r3, [sp, #4]
 3115              		.loc 1 487 0
 3116 018c FFF7FEFF 		bl	buffer_get_float32_auto
 3117              	.LVL325:
 3118              		.loc 1 488 0
 3119 0190 3146     		mov	r1, r6
 3120 0192 2846     		mov	r0, r5
 3121              		.loc 1 487 0
 3122 0194 84ED190A 		vstr.32	s0, [r4, #100]
 3123              		.loc 1 488 0
 3124 0198 FFF7FEFF 		bl	buffer_get_float32_auto
 3125              	.LVL326:
 3126              		.loc 1 489 0
 3127 019c 3146     		mov	r1, r6
 3128 019e 2846     		mov	r0, r5
 3129              		.loc 1 488 0
 3130 01a0 84ED1A0A 		vstr.32	s0, [r4, #104]
 3131              		.loc 1 489 0
 3132 01a4 FFF7FEFF 		bl	buffer_get_float32_auto
 3133              	.LVL327:
 3134              		.loc 1 490 0
 3135 01a8 3146     		mov	r1, r6
ARM GAS  C:\Users\CFAR\AppData\Local\Temp\ccBnUWel.s 			page 56


 3136 01aa 2846     		mov	r0, r5
 3137              		.loc 1 489 0
 3138 01ac 84ED1B0A 		vstr.32	s0, [r4, #108]
 3139              		.loc 1 490 0
 3140 01b0 FFF7FEFF 		bl	buffer_get_float32_auto
 3141              	.LVL328:
 3142              		.loc 1 491 0
 3143 01b4 3146     		mov	r1, r6
 3144 01b6 2846     		mov	r0, r5
 3145              		.loc 1 490 0
 3146 01b8 84ED1C0A 		vstr.32	s0, [r4, #112]
 3147              		.loc 1 491 0
 3148 01bc FFF7FEFF 		bl	buffer_get_float32_auto
 3149              	.LVL329:
 3150              		.loc 1 492 0
 3151 01c0 3146     		mov	r1, r6
 3152 01c2 2846     		mov	r0, r5
 3153              		.loc 1 491 0
 3154 01c4 84ED1D0A 		vstr.32	s0, [r4, #116]
 3155              		.loc 1 492 0
 3156 01c8 FFF7FEFF 		bl	buffer_get_float32_auto
 3157              	.LVL330:
 3158              		.loc 1 493 0
 3159 01cc 019B     		ldr	r3, [sp, #4]
 3160              		.loc 1 492 0
 3161 01ce 84ED1E0A 		vstr.32	s0, [r4, #120]
 3162              		.loc 1 493 0
 3163 01d2 E95C     		ldrb	r1, [r5, r3]	@ zero_extendqisi2
 3164 01d4 C91B     		subs	r1, r1, r7
 3165              		.loc 1 494 0
 3166 01d6 05EB0302 		add	r2, r5, r3
 3167              		.loc 1 493 0
 3168 01da 18BF     		it	ne
 3169 01dc 0121     		movne	r1, #1
 3170 01de 84F87C10 		strb	r1, [r4, #124]
 3171              		.loc 1 494 0
 3172 01e2 5178     		ldrb	r1, [r2, #1]	@ zero_extendqisi2
 3173 01e4 C91B     		subs	r1, r1, r7
 3174 01e6 18BF     		it	ne
 3175 01e8 0121     		movne	r1, #1
 3176 01ea 84F87D10 		strb	r1, [r4, #125]
 3177              		.loc 1 495 0
 3178 01ee 9178     		ldrb	r1, [r2, #2]	@ zero_extendqisi2
 3179 01f0 C91B     		subs	r1, r1, r7
 3180 01f2 18BF     		it	ne
 3181 01f4 0121     		movne	r1, #1
 3182 01f6 84F87E10 		strb	r1, [r4, #126]
 3183              		.loc 1 496 0
 3184 01fa D178     		ldrb	r1, [r2, #3]	@ zero_extendqisi2
 3185 01fc C91B     		subs	r1, r1, r7
 3186 01fe 18BF     		it	ne
 3187 0200 0121     		movne	r1, #1
 3188 0202 84F87F10 		strb	r1, [r4, #127]
 3189              		.loc 1 497 0
 3190 0206 1179     		ldrb	r1, [r2, #4]	@ zero_extendqisi2
 3191 0208 C91B     		subs	r1, r1, r7
 3192 020a 18BF     		it	ne
ARM GAS  C:\Users\CFAR\AppData\Local\Temp\ccBnUWel.s 			page 57


 3193 020c 0121     		movne	r1, #1
 3194 020e 84F88010 		strb	r1, [r4, #128]
 3195              		.loc 1 498 0
 3196 0212 5279     		ldrb	r2, [r2, #5]	@ zero_extendqisi2
 3197 0214 D21B     		subs	r2, r2, r7
 3198 0216 18BF     		it	ne
 3199 0218 0122     		movne	r2, #1
 3200 021a 0633     		adds	r3, r3, #6
 3201 021c 84F88120 		strb	r2, [r4, #129]
 3202              		.loc 1 499 0
 3203 0220 3146     		mov	r1, r6
 3204 0222 2846     		mov	r0, r5
 3205              		.loc 1 498 0
 3206 0224 0193     		str	r3, [sp, #4]
 3207              		.loc 1 499 0
 3208 0226 FFF7FEFF 		bl	buffer_get_float32_auto
 3209              	.LVL331:
 3210              		.loc 1 500 0
 3211 022a 3146     		mov	r1, r6
 3212 022c 2846     		mov	r0, r5
 3213              		.loc 1 499 0
 3214 022e 84ED210A 		vstr.32	s0, [r4, #132]
 3215              		.loc 1 500 0
 3216 0232 FFF7FEFF 		bl	buffer_get_float32_auto
 3217              	.LVL332:
 3218              		.loc 1 501 0
 3219 0236 019B     		ldr	r3, [sp, #4]
 3220              		.loc 1 500 0
 3221 0238 84ED220A 		vstr.32	s0, [r4, #136]
 3222              		.loc 1 501 0
 3223 023c EA5C     		ldrb	r2, [r5, r3]	@ zero_extendqisi2
 3224 023e 84F88C20 		strb	r2, [r4, #140]
 3225 0242 0133     		adds	r3, r3, #1
 3226              		.loc 1 502 0
 3227 0244 3146     		mov	r1, r6
 3228 0246 2846     		mov	r0, r5
 3229              		.loc 1 501 0
 3230 0248 0193     		str	r3, [sp, #4]
 3231              		.loc 1 502 0
 3232 024a FFF7FEFF 		bl	buffer_get_float32_auto
 3233              	.LVL333:
 3234              		.loc 1 503 0
 3235 024e 3146     		mov	r1, r6
 3236 0250 2846     		mov	r0, r5
 3237              		.loc 1 502 0
 3238 0252 84ED240A 		vstr.32	s0, [r4, #144]
 3239              		.loc 1 503 0
 3240 0256 FFF7FEFF 		bl	buffer_get_float32_auto
 3241              	.LVL334:
 3242              		.loc 1 504 0
 3243 025a 019B     		ldr	r3, [sp, #4]
 3244              		.loc 1 503 0
 3245 025c 84ED250A 		vstr.32	s0, [r4, #148]
 3246              		.loc 1 504 0
 3247 0260 EA5C     		ldrb	r2, [r5, r3]	@ zero_extendqisi2
 3248 0262 D21B     		subs	r2, r2, r7
 3249              		.loc 1 505 0
ARM GAS  C:\Users\CFAR\AppData\Local\Temp\ccBnUWel.s 			page 58


 3250 0264 05EB0301 		add	r1, r5, r3
 3251              		.loc 1 504 0
 3252 0268 18BF     		it	ne
 3253 026a 0122     		movne	r2, #1
 3254 026c 84F89820 		strb	r2, [r4, #152]
 3255              		.loc 1 505 0
 3256 0270 4A78     		ldrb	r2, [r1, #1]	@ zero_extendqisi2
 3257 0272 D21B     		subs	r2, r2, r7
 3258 0274 18BF     		it	ne
 3259 0276 0122     		movne	r2, #1
 3260 0278 84F89920 		strb	r2, [r4, #153]
 3261 027c 0233     		adds	r3, r3, #2
 3262              		.loc 1 506 0
 3263 027e 3146     		mov	r1, r6
 3264 0280 2846     		mov	r0, r5
 3265              		.loc 1 505 0
 3266 0282 0193     		str	r3, [sp, #4]
 3267              		.loc 1 506 0
 3268 0284 FFF7FEFF 		bl	buffer_get_float32_auto
 3269              	.LVL335:
 3270              		.loc 1 507 0
 3271 0288 3146     		mov	r1, r6
 3272              		.loc 1 506 0
 3273 028a 84ED270A 		vstr.32	s0, [r4, #156]
 3274              		.loc 1 507 0
 3275 028e 2846     		mov	r0, r5
 3276 0290 FFF7FEFF 		bl	buffer_get_uint16
 3277              	.LVL336:
 3278              		.loc 1 508 0
 3279 0294 3146     		mov	r1, r6
 3280              		.loc 1 507 0
 3281 0296 C4F8A000 		str	r0, [r4, #160]
 3282              		.loc 1 508 0
 3283 029a 2846     		mov	r0, r5
 3284 029c FFF7FEFF 		bl	buffer_get_uint32
 3285              	.LVL337:
 3286              		.loc 1 509 0
 3287 02a0 019B     		ldr	r3, [sp, #4]
 3288              		.loc 1 508 0
 3289 02a2 C4F8A400 		str	r0, [r4, #164]
 3290              		.loc 1 509 0
 3291 02a6 EA5C     		ldrb	r2, [r5, r3]	@ zero_extendqisi2
 3292 02a8 84F8A820 		strb	r2, [r4, #168]
 3293 02ac 0133     		adds	r3, r3, #1
 3294              		.loc 1 510 0
 3295 02ae 3146     		mov	r1, r6
 3296 02b0 2846     		mov	r0, r5
 3297              		.loc 1 509 0
 3298 02b2 0193     		str	r3, [sp, #4]
 3299              		.loc 1 510 0
 3300 02b4 FFF7FEFF 		bl	buffer_get_float32_auto
 3301              	.LVL338:
 3302              		.loc 1 511 0
 3303 02b8 3146     		mov	r1, r6
 3304 02ba 2846     		mov	r0, r5
 3305              		.loc 1 510 0
 3306 02bc 84ED2B0A 		vstr.32	s0, [r4, #172]
ARM GAS  C:\Users\CFAR\AppData\Local\Temp\ccBnUWel.s 			page 59


 3307              		.loc 1 511 0
 3308 02c0 FFF7FEFF 		bl	buffer_get_float32_auto
 3309              	.LVL339:
 3310              		.loc 1 512 0
 3311 02c4 3146     		mov	r1, r6
 3312 02c6 2846     		mov	r0, r5
 3313              		.loc 1 511 0
 3314 02c8 84ED2C0A 		vstr.32	s0, [r4, #176]
 3315              		.loc 1 512 0
 3316 02cc FFF7FEFF 		bl	buffer_get_float32_auto
 3317              	.LVL340:
 3318              		.loc 1 513 0
 3319 02d0 3146     		mov	r1, r6
 3320 02d2 2846     		mov	r0, r5
 3321              		.loc 1 512 0
 3322 02d4 84ED2D0A 		vstr.32	s0, [r4, #180]
 3323              		.loc 1 513 0
 3324 02d8 FFF7FEFF 		bl	buffer_get_float32_auto
 3325              	.LVL341:
 3326              		.loc 1 514 0
 3327 02dc 3146     		mov	r1, r6
 3328 02de 2846     		mov	r0, r5
 3329              		.loc 1 513 0
 3330 02e0 84ED2E0A 		vstr.32	s0, [r4, #184]
 3331              		.loc 1 514 0
 3332 02e4 FFF7FEFF 		bl	buffer_get_float32_auto
 3333              	.LVL342:
 3334              		.loc 1 515 0
 3335 02e8 3146     		mov	r1, r6
 3336 02ea 2846     		mov	r0, r5
 3337              		.loc 1 514 0
 3338 02ec 84ED2F0A 		vstr.32	s0, [r4, #188]
 3339              		.loc 1 515 0
 3340 02f0 FFF7FEFF 		bl	buffer_get_float32_auto
 3341              	.LVL343:
 3342              		.loc 1 516 0
 3343 02f4 019B     		ldr	r3, [sp, #4]
 3344              		.loc 1 515 0
 3345 02f6 84ED300A 		vstr.32	s0, [r4, #192]
 3346              		.loc 1 516 0
 3347 02fa EA5C     		ldrb	r2, [r5, r3]	@ zero_extendqisi2
 3348 02fc 84F8C420 		strb	r2, [r4, #196]
 3349              		.loc 1 517 0
 3350 0300 E918     		adds	r1, r5, r3
 3351              		.loc 1 518 0
 3352 0302 0333     		adds	r3, r3, #3
 3353              		.loc 1 517 0
 3354 0304 4A78     		ldrb	r2, [r1, #1]	@ zero_extendqisi2
 3355              		.loc 1 518 0
 3356 0306 0193     		str	r3, [sp, #4]
 3357              		.loc 1 517 0
 3358 0308 D31B     		subs	r3, r2, r7
 3359 030a 18BF     		it	ne
 3360 030c 0123     		movne	r3, #1
 3361 030e 84F8C530 		strb	r3, [r4, #197]
 3362              		.loc 1 518 0
 3363 0312 8B78     		ldrb	r3, [r1, #2]	@ zero_extendqisi2
ARM GAS  C:\Users\CFAR\AppData\Local\Temp\ccBnUWel.s 			page 60


 3364 0314 DB1B     		subs	r3, r3, r7
 3365 0316 18BF     		it	ne
 3366 0318 0123     		movne	r3, #1
 3367 031a 84F8C630 		strb	r3, [r4, #198]
 3368              		.loc 1 519 0
 3369 031e 3146     		mov	r1, r6
 3370 0320 2846     		mov	r0, r5
 3371 0322 FFF7FEFF 		bl	buffer_get_float32_auto
 3372              	.LVL344:
 3373              		.loc 1 520 0
 3374 0326 019B     		ldr	r3, [sp, #4]
 3375              		.loc 1 519 0
 3376 0328 84ED320A 		vstr.32	s0, [r4, #200]
 3377              		.loc 1 520 0
 3378 032c EA5C     		ldrb	r2, [r5, r3]	@ zero_extendqisi2
 3379 032e D21B     		subs	r2, r2, r7
 3380 0330 18BF     		it	ne
 3381 0332 0122     		movne	r2, #1
 3382 0334 84F8CC20 		strb	r2, [r4, #204]
 3383 0338 0133     		adds	r3, r3, #1
 3384              		.loc 1 521 0
 3385 033a 3146     		mov	r1, r6
 3386 033c 2846     		mov	r0, r5
 3387              		.loc 1 520 0
 3388 033e 0193     		str	r3, [sp, #4]
 3389              		.loc 1 521 0
 3390 0340 FFF7FEFF 		bl	buffer_get_float32_auto
 3391              	.LVL345:
 3392              		.loc 1 522 0
 3393 0344 3146     		mov	r1, r6
 3394 0346 2846     		mov	r0, r5
 3395              		.loc 1 521 0
 3396 0348 84ED340A 		vstr.32	s0, [r4, #208]
 3397              		.loc 1 522 0
 3398 034c FFF7FEFF 		bl	buffer_get_float32_auto
 3399              	.LVL346:
 3400              		.loc 1 523 0
 3401 0350 019A     		ldr	r2, [sp, #4]
 3402              		.loc 1 522 0
 3403 0352 84ED350A 		vstr.32	s0, [r4, #212]
 3404              		.loc 1 523 0
 3405 0356 AB5C     		ldrb	r3, [r5, r2]	@ zero_extendqisi2
 3406 0358 84F8D830 		strb	r3, [r4, #216]
 3407              		.loc 1 524 0
 3408 035c AB18     		adds	r3, r5, r2
 3409              		.loc 1 533 0
 3410 035e 2846     		mov	r0, r5
 3411              		.loc 1 524 0
 3412 0360 5978     		ldrb	r1, [r3, #1]	@ zero_extendqisi2
 3413 0362 84F8D910 		strb	r1, [r4, #217]
 3414              		.loc 1 525 0
 3415 0366 9978     		ldrb	r1, [r3, #2]	@ zero_extendqisi2
 3416 0368 84F8DA10 		strb	r1, [r4, #218]
 3417              		.loc 1 526 0
 3418 036c D978     		ldrb	r1, [r3, #3]	@ zero_extendqisi2
 3419 036e 84F8DB10 		strb	r1, [r4, #219]
 3420              		.loc 1 527 0
ARM GAS  C:\Users\CFAR\AppData\Local\Temp\ccBnUWel.s 			page 61


 3421 0372 1979     		ldrb	r1, [r3, #4]	@ zero_extendqisi2
 3422 0374 84F8DC10 		strb	r1, [r4, #220]
 3423              		.loc 1 528 0
 3424 0378 5979     		ldrb	r1, [r3, #5]	@ zero_extendqisi2
 3425 037a 84F8DD10 		strb	r1, [r4, #221]
 3426              		.loc 1 529 0
 3427 037e 9979     		ldrb	r1, [r3, #6]	@ zero_extendqisi2
 3428 0380 84F8DE10 		strb	r1, [r4, #222]
 3429              		.loc 1 530 0
 3430 0384 D979     		ldrb	r1, [r3, #7]	@ zero_extendqisi2
 3431 0386 84F8DF10 		strb	r1, [r4, #223]
 3432              		.loc 1 531 0
 3433 038a 197A     		ldrb	r1, [r3, #8]	@ zero_extendqisi2
 3434 038c 84F8E010 		strb	r1, [r4, #224]
 3435              		.loc 1 532 0
 3436 0390 5B7A     		ldrb	r3, [r3, #9]	@ zero_extendqisi2
 3437 0392 DB1B     		subs	r3, r3, r7
 3438 0394 18BF     		it	ne
 3439 0396 0123     		movne	r3, #1
 3440 0398 0A32     		adds	r2, r2, #10
 3441 039a 84F8E130 		strb	r3, [r4, #225]
 3442              		.loc 1 533 0
 3443 039e 3146     		mov	r1, r6
 3444              		.loc 1 532 0
 3445 03a0 0192     		str	r2, [sp, #4]
 3446              		.loc 1 533 0
 3447 03a2 FFF7FEFF 		bl	buffer_get_float32_auto
 3448              	.LVL347:
 3449              		.loc 1 534 0
 3450 03a6 3146     		mov	r1, r6
 3451 03a8 2846     		mov	r0, r5
 3452              		.loc 1 533 0
 3453 03aa 84ED390A 		vstr.32	s0, [r4, #228]
 3454              		.loc 1 534 0
 3455 03ae FFF7FEFF 		bl	buffer_get_float32_auto
 3456              	.LVL348:
 3457              		.loc 1 535 0
 3458 03b2 3146     		mov	r1, r6
 3459 03b4 2846     		mov	r0, r5
 3460              		.loc 1 534 0
 3461 03b6 84ED3A0A 		vstr.32	s0, [r4, #232]
 3462              		.loc 1 535 0
 3463 03ba FFF7FEFF 		bl	buffer_get_float32_auto
 3464              	.LVL349:
 3465              		.loc 1 536 0
 3466 03be 3146     		mov	r1, r6
 3467              		.loc 1 535 0
 3468 03c0 84ED3B0A 		vstr.32	s0, [r4, #236]
 3469              		.loc 1 536 0
 3470 03c4 2846     		mov	r0, r5
 3471 03c6 FFF7FEFF 		bl	buffer_get_uint16
 3472              	.LVL350:
 3473              		.loc 1 537 0
 3474 03ca 3146     		mov	r1, r6
 3475              		.loc 1 536 0
 3476 03cc A4F8F000 		strh	r0, [r4, #240]	@ movhi
 3477              		.loc 1 537 0
ARM GAS  C:\Users\CFAR\AppData\Local\Temp\ccBnUWel.s 			page 62


 3478 03d0 2846     		mov	r0, r5
 3479 03d2 FFF7FEFF 		bl	buffer_get_float32_auto
 3480              	.LVL351:
 3481              		.loc 1 538 0
 3482 03d6 3146     		mov	r1, r6
 3483 03d8 2846     		mov	r0, r5
 3484              		.loc 1 537 0
 3485 03da 84ED3D0A 		vstr.32	s0, [r4, #244]
 3486              		.loc 1 538 0
 3487 03de FFF7FEFF 		bl	buffer_get_float32_auto
 3488              	.LVL352:
 3489              		.loc 1 539 0
 3490 03e2 3146     		mov	r1, r6
 3491 03e4 2846     		mov	r0, r5
 3492              		.loc 1 538 0
 3493 03e6 84ED3E0A 		vstr.32	s0, [r4, #248]
 3494              		.loc 1 539 0
 3495 03ea FFF7FEFF 		bl	buffer_get_float32_auto
 3496              	.LVL353:
 3497              		.loc 1 540 0
 3498 03ee 3146     		mov	r1, r6
 3499 03f0 2846     		mov	r0, r5
 3500              		.loc 1 539 0
 3501 03f2 84ED3F0A 		vstr.32	s0, [r4, #252]
 3502              		.loc 1 540 0
 3503 03f6 FFF7FEFF 		bl	buffer_get_float32_auto
 3504              	.LVL354:
 3505              		.loc 1 541 0
 3506 03fa 3146     		mov	r1, r6
 3507 03fc 2846     		mov	r0, r5
 3508              		.loc 1 540 0
 3509 03fe 84ED400A 		vstr.32	s0, [r4, #256]
 3510              		.loc 1 541 0
 3511 0402 FFF7FEFF 		bl	buffer_get_float32_auto
 3512              	.LVL355:
 3513              		.loc 1 542 0
 3514 0406 3146     		mov	r1, r6
 3515 0408 2846     		mov	r0, r5
 3516              		.loc 1 541 0
 3517 040a 84ED410A 		vstr.32	s0, [r4, #260]
 3518              		.loc 1 542 0
 3519 040e FFF7FEFF 		bl	buffer_get_float32_auto
 3520              	.LVL356:
 3521              		.loc 1 543 0
 3522 0412 3146     		mov	r1, r6
 3523 0414 2846     		mov	r0, r5
 3524              		.loc 1 542 0
 3525 0416 84ED420A 		vstr.32	s0, [r4, #264]
 3526              		.loc 1 543 0
 3527 041a FFF7FEFF 		bl	buffer_get_float32_auto
 3528              	.LVL357:
 3529              		.loc 1 544 0
 3530 041e 3146     		mov	r1, r6
 3531 0420 2846     		mov	r0, r5
 3532              		.loc 1 543 0
 3533 0422 84ED430A 		vstr.32	s0, [r4, #268]
 3534              		.loc 1 544 0
ARM GAS  C:\Users\CFAR\AppData\Local\Temp\ccBnUWel.s 			page 63


 3535 0426 FFF7FEFF 		bl	buffer_get_float32_auto
 3536              	.LVL358:
 3537              		.loc 1 545 0
 3538 042a 3146     		mov	r1, r6
 3539 042c 2846     		mov	r0, r5
 3540              		.loc 1 544 0
 3541 042e 84ED440A 		vstr.32	s0, [r4, #272]
 3542              		.loc 1 545 0
 3543 0432 FFF7FEFF 		bl	buffer_get_float32_auto
 3544              	.LVL359:
 3545              		.loc 1 546 0
 3546 0436 3146     		mov	r1, r6
 3547 0438 2846     		mov	r0, r5
 3548              		.loc 1 545 0
 3549 043a 84ED450A 		vstr.32	s0, [r4, #276]
 3550              		.loc 1 546 0
 3551 043e FFF7FEFF 		bl	buffer_get_float32_auto
 3552              	.LVL360:
 3553              		.loc 1 547 0
 3554 0442 3146     		mov	r1, r6
 3555 0444 2846     		mov	r0, r5
 3556              		.loc 1 546 0
 3557 0446 84ED460A 		vstr.32	s0, [r4, #280]
 3558              		.loc 1 547 0
 3559 044a FFF7FEFF 		bl	buffer_get_float32_auto
 3560              	.LVL361:
 3561              		.loc 1 548 0
 3562 044e 3146     		mov	r1, r6
 3563 0450 2846     		mov	r0, r5
 3564              		.loc 1 547 0
 3565 0452 84ED470A 		vstr.32	s0, [r4, #284]
 3566              		.loc 1 548 0
 3567 0456 FFF7FEFF 		bl	buffer_get_float32_auto
 3568              	.LVL362:
 3569              		.loc 1 549 0
 3570 045a 3146     		mov	r1, r6
 3571 045c 2846     		mov	r0, r5
 3572              		.loc 1 548 0
 3573 045e 84ED480A 		vstr.32	s0, [r4, #288]
 3574              		.loc 1 549 0
 3575 0462 FFF7FEFF 		bl	buffer_get_float32_auto
 3576              	.LVL363:
 3577              		.loc 1 550 0
 3578 0466 3146     		mov	r1, r6
 3579 0468 2846     		mov	r0, r5
 3580              		.loc 1 549 0
 3581 046a 84ED490A 		vstr.32	s0, [r4, #292]
 3582              		.loc 1 550 0
 3583 046e FFF7FEFF 		bl	buffer_get_float32_auto
 3584              	.LVL364:
 3585              		.loc 1 551 0
 3586 0472 3146     		mov	r1, r6
 3587 0474 2846     		mov	r0, r5
 3588              		.loc 1 550 0
 3589 0476 84ED4A0A 		vstr.32	s0, [r4, #296]
 3590              		.loc 1 551 0
 3591 047a FFF7FEFF 		bl	buffer_get_float32_auto
ARM GAS  C:\Users\CFAR\AppData\Local\Temp\ccBnUWel.s 			page 64


 3592              	.LVL365:
 3593              		.loc 1 552 0
 3594 047e 019B     		ldr	r3, [sp, #4]
 3595              		.loc 1 551 0
 3596 0480 84ED4B0A 		vstr.32	s0, [r4, #300]
 3597              		.loc 1 552 0
 3598 0484 EA5C     		ldrb	r2, [r5, r3]	@ zero_extendqisi2
 3599 0486 D21B     		subs	r2, r2, r7
 3600 0488 18BF     		it	ne
 3601 048a 0122     		movne	r2, #1
 3602 048c 84F83021 		strb	r2, [r4, #304]
 3603 0490 0133     		adds	r3, r3, #1
 3604              		.loc 1 553 0
 3605 0492 3146     		mov	r1, r6
 3606 0494 2846     		mov	r0, r5
 3607              		.loc 1 552 0
 3608 0496 0193     		str	r3, [sp, #4]
 3609              		.loc 1 553 0
 3610 0498 FFF7FEFF 		bl	buffer_get_float32_auto
 3611              	.LVL366:
 3612              		.loc 1 554 0
 3613 049c 3146     		mov	r1, r6
 3614 049e 2846     		mov	r0, r5
 3615              		.loc 1 553 0
 3616 04a0 84ED4D0A 		vstr.32	s0, [r4, #308]
 3617              		.loc 1 554 0
 3618 04a4 FFF7FEFF 		bl	buffer_get_float32_auto
 3619              	.LVL367:
 3620              		.loc 1 555 0
 3621 04a8 3146     		mov	r1, r6
 3622 04aa 2846     		mov	r0, r5
 3623              		.loc 1 554 0
 3624 04ac 84ED4E0A 		vstr.32	s0, [r4, #312]
 3625              		.loc 1 555 0
 3626 04b0 FFF7FEFF 		bl	buffer_get_float32_auto
 3627              	.LVL368:
 3628              		.loc 1 556 0
 3629 04b4 3146     		mov	r1, r6
 3630 04b6 2846     		mov	r0, r5
 3631              		.loc 1 555 0
 3632 04b8 84ED4F0A 		vstr.32	s0, [r4, #316]
 3633              		.loc 1 556 0
 3634 04bc FFF7FEFF 		bl	buffer_get_float32_auto
 3635              	.LVL369:
 3636              		.loc 1 557 0
 3637 04c0 3146     		mov	r1, r6
 3638 04c2 2846     		mov	r0, r5
 3639              		.loc 1 556 0
 3640 04c4 84ED500A 		vstr.32	s0, [r4, #320]
 3641              		.loc 1 557 0
 3642 04c8 FFF7FEFF 		bl	buffer_get_float32_auto
 3643              	.LVL370:
 3644              		.loc 1 558 0
 3645 04cc 3146     		mov	r1, r6
 3646              		.loc 1 557 0
 3647 04ce 84ED510A 		vstr.32	s0, [r4, #324]
 3648              		.loc 1 558 0
ARM GAS  C:\Users\CFAR\AppData\Local\Temp\ccBnUWel.s 			page 65


 3649 04d2 2846     		mov	r0, r5
 3650 04d4 FFF7FEFF 		bl	buffer_get_uint16
 3651              	.LVL371:
 3652              		.loc 1 559 0
 3653 04d8 3146     		mov	r1, r6
 3654              		.loc 1 558 0
 3655 04da A4F84801 		strh	r0, [r4, #328]	@ movhi
 3656              		.loc 1 559 0
 3657 04de 2846     		mov	r0, r5
 3658 04e0 FFF7FEFF 		bl	buffer_get_uint16
 3659              	.LVL372:
 3660              		.loc 1 560 0
 3661 04e4 3146     		mov	r1, r6
 3662              		.loc 1 559 0
 3663 04e6 A4F84A01 		strh	r0, [r4, #330]	@ movhi
 3664              		.loc 1 560 0
 3665 04ea 2846     		mov	r0, r5
 3666 04ec FFF7FEFF 		bl	buffer_get_float32_auto
 3667              	.LVL373:
 3668              		.loc 1 561 0
 3669 04f0 3146     		mov	r1, r6
 3670 04f2 2846     		mov	r0, r5
 3671              		.loc 1 560 0
 3672 04f4 84ED530A 		vstr.32	s0, [r4, #332]
 3673              		.loc 1 561 0
 3674 04f8 FFF7FEFF 		bl	buffer_get_float32_auto
 3675              	.LVL374:
 3676              		.loc 1 562 0
 3677 04fc 3146     		mov	r1, r6
 3678 04fe 2846     		mov	r0, r5
 3679              		.loc 1 561 0
 3680 0500 84ED540A 		vstr.32	s0, [r4, #336]
 3681              		.loc 1 562 0
 3682 0504 FFF7FEFF 		bl	buffer_get_float32_auto
 3683              	.LVL375:
 3684              		.loc 1 563 0
 3685 0508 3146     		mov	r1, r6
 3686              		.loc 1 562 0
 3687 050a 84ED550A 		vstr.32	s0, [r4, #340]
 3688              		.loc 1 563 0
 3689 050e 2846     		mov	r0, r5
 3690 0510 FFF7FEFF 		bl	buffer_get_uint16
 3691              	.LVL376:
 3692              		.loc 1 564 0
 3693 0514 3146     		mov	r1, r6
 3694              		.loc 1 563 0
 3695 0516 A4F85801 		strh	r0, [r4, #344]	@ movhi
 3696              		.loc 1 564 0
 3697 051a 2846     		mov	r0, r5
 3698 051c FFF7FEFF 		bl	buffer_get_float32_auto
 3699              	.LVL377:
 3700              		.loc 1 565 0
 3701 0520 3146     		mov	r1, r6
 3702 0522 2846     		mov	r0, r5
 3703              		.loc 1 564 0
 3704 0524 84ED570A 		vstr.32	s0, [r4, #348]
 3705              		.loc 1 565 0
ARM GAS  C:\Users\CFAR\AppData\Local\Temp\ccBnUWel.s 			page 66


 3706 0528 FFF7FEFF 		bl	buffer_get_float32_auto
 3707              	.LVL378:
 3708              		.loc 1 566 0
 3709 052c 3146     		mov	r1, r6
 3710 052e 2846     		mov	r0, r5
 3711              		.loc 1 565 0
 3712 0530 84ED580A 		vstr.32	s0, [r4, #352]
 3713              		.loc 1 566 0
 3714 0534 FFF7FEFF 		bl	buffer_get_float32_auto
 3715              	.LVL379:
 3716              		.loc 1 567 0
 3717 0538 019B     		ldr	r3, [sp, #4]
 3718              		.loc 1 566 0
 3719 053a 84ED590A 		vstr.32	s0, [r4, #356]
 3720              		.loc 1 567 0
 3721 053e EA5C     		ldrb	r2, [r5, r3]	@ zero_extendqisi2
 3722 0540 84F86821 		strb	r2, [r4, #360]
 3723              		.loc 1 568 0
 3724 0544 EA18     		adds	r2, r5, r3
 3725              		.loc 1 569 0
 3726 0546 3146     		mov	r1, r6
 3727              		.loc 1 568 0
 3728 0548 5278     		ldrb	r2, [r2, #1]	@ zero_extendqisi2
 3729 054a 84F86921 		strb	r2, [r4, #361]
 3730 054e 0233     		adds	r3, r3, #2
 3731              		.loc 1 569 0
 3732 0550 2846     		mov	r0, r5
 3733              		.loc 1 568 0
 3734 0552 0193     		str	r3, [sp, #4]
 3735              		.loc 1 569 0
 3736 0554 FFF7FEFF 		bl	buffer_get_uint16
 3737              	.LVL380:
 3738              		.loc 1 570 0
 3739 0558 3146     		mov	r1, r6
 3740              		.loc 1 569 0
 3741 055a C4F86C01 		str	r0, [r4, #364]
 3742              		.loc 1 570 0
 3743 055e 2846     		mov	r0, r5
 3744 0560 FFF7FEFF 		bl	buffer_get_float32_auto
 3745              	.LVL381:
 3746              		.loc 1 571 0
 3747 0564 3146     		mov	r1, r6
 3748 0566 2846     		mov	r0, r5
 3749              		.loc 1 570 0
 3750 0568 84ED5C0A 		vstr.32	s0, [r4, #368]
 3751              		.loc 1 571 0
 3752 056c FFF7FEFF 		bl	buffer_get_float32_auto
 3753              	.LVL382:
 3754              		.loc 1 572 0
 3755 0570 3146     		mov	r1, r6
 3756 0572 2846     		mov	r0, r5
 3757              		.loc 1 571 0
 3758 0574 84ED5D0A 		vstr.32	s0, [r4, #372]
 3759              		.loc 1 572 0
 3760 0578 FFF7FEFF 		bl	buffer_get_float32_auto
 3761              	.LVL383:
 3762              		.loc 1 573 0
ARM GAS  C:\Users\CFAR\AppData\Local\Temp\ccBnUWel.s 			page 67


 3763 057c 3146     		mov	r1, r6
 3764 057e 2846     		mov	r0, r5
 3765              		.loc 1 572 0
 3766 0580 84ED5E0A 		vstr.32	s0, [r4, #376]
 3767              		.loc 1 573 0
 3768 0584 FFF7FEFF 		bl	buffer_get_float32_auto
 3769              	.LVL384:
 3770              		.loc 1 574 0
 3771 0588 3146     		mov	r1, r6
 3772 058a 2846     		mov	r0, r5
 3773              		.loc 1 573 0
 3774 058c 84ED5F0A 		vstr.32	s0, [r4, #380]
 3775              		.loc 1 574 0
 3776 0590 FFF7FEFF 		bl	buffer_get_float32_auto
 3777              	.LVL385:
 3778              		.loc 1 575 0
 3779 0594 3146     		mov	r1, r6
 3780 0596 2846     		mov	r0, r5
 3781              		.loc 1 574 0
 3782 0598 84ED600A 		vstr.32	s0, [r4, #384]
 3783              		.loc 1 575 0
 3784 059c FFF7FEFF 		bl	buffer_get_float32_auto
 3785              	.LVL386:
 3786              		.loc 1 576 0
 3787 05a0 3146     		mov	r1, r6
 3788 05a2 2846     		mov	r0, r5
 3789              		.loc 1 575 0
 3790 05a4 84ED610A 		vstr.32	s0, [r4, #388]
 3791              		.loc 1 576 0
 3792 05a8 FFF7FEFF 		bl	buffer_get_float32_auto
 3793              	.LVL387:
 3794              		.loc 1 577 0
 3795 05ac 3146     		mov	r1, r6
 3796 05ae 2846     		mov	r0, r5
 3797              		.loc 1 576 0
 3798 05b0 84ED620A 		vstr.32	s0, [r4, #392]
 3799              		.loc 1 577 0
 3800 05b4 FFF7FEFF 		bl	buffer_get_float32_auto
 3801              	.LVL388:
 3802              		.loc 1 578 0
 3803 05b8 3146     		mov	r1, r6
 3804 05ba 2846     		mov	r0, r5
 3805              		.loc 1 577 0
 3806 05bc 84ED630A 		vstr.32	s0, [r4, #396]
 3807              		.loc 1 578 0
 3808 05c0 FFF7FEFF 		bl	buffer_get_float32_auto
 3809              	.LVL389:
 3810              		.loc 1 579 0
 3811 05c4 3146     		mov	r1, r6
 3812 05c6 2846     		mov	r0, r5
 3813              		.loc 1 578 0
 3814 05c8 84ED640A 		vstr.32	s0, [r4, #400]
 3815              		.loc 1 579 0
 3816 05cc FFF7FEFF 		bl	buffer_get_float32_auto
 3817              	.LVL390:
 3818              		.loc 1 580 0
 3819 05d0 3146     		mov	r1, r6
ARM GAS  C:\Users\CFAR\AppData\Local\Temp\ccBnUWel.s 			page 68


 3820 05d2 2846     		mov	r0, r5
 3821              		.loc 1 579 0
 3822 05d4 84ED650A 		vstr.32	s0, [r4, #404]
 3823              		.loc 1 580 0
 3824 05d8 FFF7FEFF 		bl	buffer_get_float32_auto
 3825              	.LVL391:
 3826              		.loc 1 581 0
 3827 05dc 3146     		mov	r1, r6
 3828 05de 2846     		mov	r0, r5
 3829              		.loc 1 580 0
 3830 05e0 84ED660A 		vstr.32	s0, [r4, #408]
 3831              		.loc 1 581 0
 3832 05e4 FFF7FEFF 		bl	buffer_get_float32_auto
 3833              	.LVL392:
 3834              		.loc 1 582 0
 3835 05e8 3146     		mov	r1, r6
 3836 05ea 2846     		mov	r0, r5
 3837              		.loc 1 581 0
 3838 05ec 84ED670A 		vstr.32	s0, [r4, #412]
 3839              		.loc 1 582 0
 3840 05f0 FFF7FEFF 		bl	buffer_get_float32_auto
 3841              	.LVL393:
 3842              		.loc 1 583 0
 3843 05f4 3146     		mov	r1, r6
 3844 05f6 2846     		mov	r0, r5
 3845              		.loc 1 582 0
 3846 05f8 84ED680A 		vstr.32	s0, [r4, #416]
 3847              		.loc 1 583 0
 3848 05fc FFF7FEFF 		bl	buffer_get_float32_auto
 3849              	.LVL394:
 3850              		.loc 1 584 0
 3851 0600 3146     		mov	r1, r6
 3852 0602 2846     		mov	r0, r5
 3853              		.loc 1 583 0
 3854 0604 84ED690A 		vstr.32	s0, [r4, #420]
 3855              		.loc 1 584 0
 3856 0608 FFF7FEFF 		bl	buffer_get_float32_auto
 3857              	.LVL395:
 3858              		.loc 1 585 0
 3859 060c 3146     		mov	r1, r6
 3860 060e 2846     		mov	r0, r5
 3861              		.loc 1 584 0
 3862 0610 84ED6A0A 		vstr.32	s0, [r4, #424]
 3863              		.loc 1 585 0
 3864 0614 FFF7FEFF 		bl	buffer_get_float32_auto
 3865              	.LVL396:
 3866              		.loc 1 586 0
 3867 0618 2846     		mov	r0, r5
 3868 061a 3146     		mov	r1, r6
 3869              		.loc 1 585 0
 3870 061c 84ED6B0A 		vstr.32	s0, [r4, #428]
 3871              		.loc 1 586 0
 3872 0620 FFF7FEFF 		bl	buffer_get_float32_auto
 3873              	.LVL397:
 3874              		.loc 1 588 0
 3875 0624 0120     		movs	r0, #1
 3876              		.loc 1 586 0
ARM GAS  C:\Users\CFAR\AppData\Local\Temp\ccBnUWel.s 			page 69


 3877 0626 84ED6C0A 		vstr.32	s0, [r4, #432]
 3878              		.loc 1 589 0
 3879 062a 03B0     		add	sp, sp, #12
 3880              		.cfi_def_cfa_offset 20
 3881              		@ sp needed
 3882 062c F0BD     		pop	{r4, r5, r6, r7, pc}
 3883              		.cfi_endproc
 3884              	.LFE222:
 3885              		.size	confgenerator_deserialize_appconf, .-confgenerator_deserialize_appconf
 3886 062e 00BF     		.section	.text.confgenerator_set_defaults_mcconf,"ax",%progbits
 3887              		.align	1
 3888              		.p2align 4,,15
 3889              		.global	confgenerator_set_defaults_mcconf
 3890              		.syntax unified
 3891              		.thumb
 3892              		.thumb_func
 3893              		.fpu fpv4-sp-d16
 3894              		.type	confgenerator_set_defaults_mcconf, %function
 3895              	confgenerator_set_defaults_mcconf:
 3896              	.LFB223:
 3897              		.loc 1 591 0
 3898              		.cfi_startproc
 3899              		@ args = 0, pretend = 0, frame = 0
 3900              		@ frame_needed = 0, uses_anonymous_args = 0
 3901              	.LVL398:
 3902 0000 2DE9F04F 		push	{r4, r5, r6, r7, r8, r9, r10, fp, lr}
 3903              		.cfi_def_cfa_offset 36
 3904              		.cfi_offset 4, -36
 3905              		.cfi_offset 5, -32
 3906              		.cfi_offset 6, -28
 3907              		.cfi_offset 7, -24
 3908              		.cfi_offset 8, -20
 3909              		.cfi_offset 9, -16
 3910              		.cfi_offset 10, -12
 3911              		.cfi_offset 11, -8
 3912              		.cfi_offset 14, -4
 3913              		.loc 1 603 0
 3914 0004 AF4C     		ldr	r4, .L28
 3915              		.loc 1 601 0
 3916 0006 B04D     		ldr	r5, .L28+4
 3917              		.loc 1 602 0
 3918 0008 B04B     		ldr	r3, .L28+8
 3919              		.loc 1 604 0
 3920 000a B149     		ldr	r1, .L28+12
 3921              		.loc 1 605 0
 3922 000c B14A     		ldr	r2, .L28+16
 3923              		.loc 1 603 0
 3924 000e 0462     		str	r4, [r0, #32]	@ float
 3925              		.loc 1 597 0
 3926 0010 B14C     		ldr	r4, .L28+20
 3927              		.loc 1 596 0
 3928 0012 DFF854C3 		ldr	ip, .L28+164
 3929              		.loc 1 598 0
 3930 0016 B14E     		ldr	r6, .L28+24
 3931              		.loc 1 600 0
 3932 0018 B14F     		ldr	r7, .L28+28
 3933              		.loc 1 601 0
ARM GAS  C:\Users\CFAR\AppData\Local\Temp\ccBnUWel.s 			page 70


 3934 001a 8561     		str	r5, [r0, #24]	@ float
 3935              		.loc 1 602 0
 3936 001c C361     		str	r3, [r0, #28]	@ float
 3937              		.loc 1 618 0
 3938 001e B14D     		ldr	r5, .L28+32
 3939              		.loc 1 619 0
 3940 0020 B14B     		ldr	r3, .L28+36
 3941              		.loc 1 604 0
 3942 0022 4162     		str	r1, [r0, #36]	@ float
 3943              		.loc 1 605 0
 3944 0024 8262     		str	r2, [r0, #40]	@ float
 3945              		.loc 1 611 0
 3946 0026 B149     		ldr	r1, .L28+40
 3947              		.loc 1 612 0
 3948 0028 B14A     		ldr	r2, .L28+44
 3949              		.loc 1 597 0
 3950 002a 8460     		str	r4, [r0, #8]	@ float
 3951              		.loc 1 599 0
 3952 002c 0461     		str	r4, [r0, #16]	@ float
 3953              		.loc 1 606 0
 3954 002e 4FF08244 		mov	r4, #1090519040
 3955              		.loc 1 607 0
 3956 0032 DFF838E3 		ldr	lr, .L28+168
 3957              		.loc 1 596 0
 3958 0036 C0F804C0 		str	ip, [r0, #4]	@ float
 3959              		.loc 1 598 0
 3960 003a C660     		str	r6, [r0, #12]	@ float
 3961              		.loc 1 615 0
 3962 003c DFF830C3 		ldr	ip, .L28+172
 3963              		.loc 1 616 0
 3964 0040 AC4E     		ldr	r6, .L28+48
 3965              		.loc 1 600 0
 3966 0042 4761     		str	r7, [r0, #20]	@ float
 3967              		.loc 1 618 0
 3968 0044 C565     		str	r5, [r0, #92]	@ float
 3969              		.loc 1 617 0
 3970 0046 AC4F     		ldr	r7, .L28+52
 3971              		.loc 1 619 0
 3972 0048 0366     		str	r3, [r0, #96]	@ float
 3973              		.loc 1 592 0
 3974 004a 0125     		movs	r5, #1
 3975              		.loc 1 593 0
 3976 004c 0023     		movs	r3, #0
 3977              		.loc 1 606 0
 3978 004e C462     		str	r4, [r0, #44]	@ float
 3979              		.loc 1 609 0
 3980 0050 8463     		str	r4, [r0, #56]	@ float
 3981              		.loc 1 611 0
 3982 0052 0164     		str	r1, [r0, #64]	@ float
 3983              		.loc 1 608 0
 3984 0054 A94C     		ldr	r4, .L28+56
 3985              		.loc 1 613 0
 3986 0056 8164     		str	r1, [r0, #72]	@ float
 3987              		.loc 1 612 0
 3988 0058 4264     		str	r2, [r0, #68]	@ float
 3989              		.loc 1 620 0
 3990 005a 4FF07E51 		mov	r1, #1065353216
ARM GAS  C:\Users\CFAR\AppData\Local\Temp\ccBnUWel.s 			page 71


 3991              		.loc 1 614 0
 3992 005e C264     		str	r2, [r0, #76]	@ float
 3993              		.loc 1 623 0
 3994 0060 A74A     		ldr	r2, .L28+60
 3995              		.loc 1 607 0
 3996 0062 C0F830E0 		str	lr, [r0, #48]	@ float
 3997              		.loc 1 615 0
 3998 0066 C0F850C0 		str	ip, [r0, #80]	@ float
 3999              		.loc 1 616 0
 4000 006a 4665     		str	r6, [r0, #84]	@ float
 4001              		.loc 1 617 0
 4002 006c 8765     		str	r7, [r0, #88]	@ float
 4003              		.loc 1 592 0
 4004 006e 0570     		strb	r5, [r0]
 4005              		.loc 1 610 0
 4006 0070 80F83C50 		strb	r5, [r0, #60]
 4007              		.loc 1 593 0
 4008 0074 4370     		strb	r3, [r0, #1]
 4009              		.loc 1 594 0
 4010 0076 8370     		strb	r3, [r0, #2]
 4011              		.loc 1 595 0
 4012 0078 C370     		strb	r3, [r0, #3]
 4013              		.loc 1 643 0
 4014 007a 80F8C430 		strb	r3, [r0, #196]
 4015              		.loc 1 608 0
 4016 007e 4463     		str	r4, [r0, #52]	@ float
 4017              		.loc 1 620 0
 4018 0080 4166     		str	r1, [r0, #100]	@ float
 4019              		.loc 1 621 0
 4020 0082 8166     		str	r1, [r0, #104]	@ float
 4021              		.loc 1 622 0
 4022 0084 C166     		str	r1, [r0, #108]	@ float
 4023              		.loc 1 623 0
 4024 0086 C0F88820 		str	r2, [r0, #136]
 4025 008a 9E4A     		ldr	r2, .L28+64
 4026 008c C0F88C20 		str	r2, [r0, #140]
 4027              		.loc 1 624 0
 4028 0090 9A4A     		ldr	r2, .L28+56
 4029 0092 C0F89020 		str	r2, [r0, #144]
 4030              		.loc 1 625 0
 4031 0096 02F1AC72 		add	r2, r2, #22544384
 4032 009a C0F89420 		str	r2, [r0, #148]
 4033              		.loc 1 627 0
 4034 009e DFF82492 		ldr	r9, .L28
 4035 00a2 994A     		ldr	r2, .L28+68
 4036              		.loc 1 629 0
 4037 00a4 DFF8CCA2 		ldr	r10, .L28+176
 4038              		.loc 1 637 0
 4039 00a8 DFF8CCB2 		ldr	fp, .L28+180
 4040              		.loc 1 655 0
 4041 00ac 974E     		ldr	r6, .L28+72
 4042              		.loc 1 654 0
 4043 00ae DFF8CCE2 		ldr	lr, .L28+184
 4044              		.loc 1 656 0
 4045 00b2 DFF8CCC2 		ldr	ip, .L28+188
 4046              		.loc 1 657 0
 4047 00b6 964F     		ldr	r7, .L28+76
ARM GAS  C:\Users\CFAR\AppData\Local\Temp\ccBnUWel.s 			page 72


 4048              		.loc 1 655 0
 4049 00b8 C0F8E460 		str	r6, [r0, #228]	@ float
 4050              		.loc 1 627 0
 4051 00bc C0E92692 		strd	r9, r2, [r0, #152]
 4052              		.loc 1 629 0
 4053 00c0 944A     		ldr	r2, .L28+80
 4054              		.loc 1 639 0
 4055 00c2 DFF8C092 		ldr	r9, .L28+192
 4056              		.loc 1 648 0
 4057 00c6 944E     		ldr	r6, .L28+84
 4058              		.loc 1 653 0
 4059 00c8 DFF8BC82 		ldr	r8, .L28+196
 4060              		.loc 1 654 0
 4061 00cc C0F8E0E0 		str	lr, [r0, #224]	@ float
 4062              		.loc 1 629 0
 4063 00d0 C0E928A2 		strd	r10, r2, [r0, #160]
 4064              		.loc 1 637 0
 4065 00d4 914A     		ldr	r2, .L28+88
 4066              		.loc 1 642 0
 4067 00d6 DFF8B4A2 		ldr	r10, .L28+200
 4068              		.loc 1 661 0
 4069 00da DFF8B4E2 		ldr	lr, .L28+204
 4070              		.loc 1 656 0
 4071 00de C0F8E8C0 		str	ip, [r0, #232]	@ float
 4072              		.loc 1 637 0
 4073 00e2 C0E92AB2 		strd	fp, r2, [r0, #168]
 4074              		.loc 1 639 0
 4075 00e6 8E4A     		ldr	r2, .L28+92
 4076              		.loc 1 652 0
 4077 00e8 DFF830C2 		ldr	ip, .L28+88
 4078              		.loc 1 657 0
 4079 00ec C0F8EC70 		str	r7, [r0, #236]	@ float
 4080              		.loc 1 639 0
 4081 00f0 C0E92C92 		strd	r9, r2, [r0, #176]
 4082              		.loc 1 640 0
 4083 00f4 02F18F62 		add	r2, r2, #74973184
 4084 00f8 02F55432 		add	r2, r2, #217088
 4085 00fc C0F8B820 		str	r2, [r0, #184]
 4086              		.loc 1 642 0
 4087 0100 884A     		ldr	r2, .L28+96
 4088              		.loc 1 658 0
 4089 0102 894F     		ldr	r7, .L28+100
 4090              		.loc 1 648 0
 4091 0104 C0F8CC60 		str	r6, [r0, #204]	@ float
 4092              		.loc 1 642 0
 4093 0108 C0E92FA2 		strd	r10, r2, [r0, #188]
 4094              		.loc 1 645 0
 4095 010c 874A     		ldr	r2, .L28+104
 4096 010e C0F8C820 		str	r2, [r0, #200]	@ float
 4097              		.loc 1 660 0
 4098 0112 874A     		ldr	r2, .L28+108
 4099 0114 C0F80021 		str	r2, [r0, #256]	@ float
 4100              		.loc 1 649 0
 4101 0118 C0F8D460 		str	r6, [r0, #212]	@ float
 4102              		.loc 1 662 0
 4103 011c 854A     		ldr	r2, .L28+112
 4104              		.loc 1 646 0
ARM GAS  C:\Users\CFAR\AppData\Local\Temp\ccBnUWel.s 			page 73


 4105 011e C0F8D010 		str	r1, [r0, #208]	@ float
 4106              		.loc 1 650 0
 4107 0122 4FF07C56 		mov	r6, #1056964608
 4108              		.loc 1 647 0
 4109 0126 C0F8D810 		str	r1, [r0, #216]	@ float
 4110              		.loc 1 651 0
 4111 012a 80F81831 		strb	r3, [r0, #280]
 4112              		.loc 1 659 0
 4113 012e C0F8FC40 		str	r4, [r0, #252]	@ float
 4114              		.loc 1 653 0
 4115 0132 C0F8F880 		str	r8, [r0, #248]	@ float
 4116              		.loc 1 661 0
 4117 0136 C0F804E1 		str	lr, [r0, #260]	@ float
 4118              		.loc 1 650 0
 4119 013a C0F8DC60 		str	r6, [r0, #220]	@ float
 4120              		.loc 1 652 0
 4121 013e C0F8F4C0 		str	ip, [r0, #244]	@ float
 4122              		.loc 1 658 0
 4123 0142 C0F8F070 		str	r7, [r0, #240]	@ float
 4124              		.loc 1 662 0
 4125 0146 C0F80821 		str	r2, [r0, #264]	@ float
 4126              		.loc 1 663 0
 4127 014a C0F80C21 		str	r2, [r0, #268]	@ float
 4128              		.loc 1 680 0
 4129 014e C0F83821 		str	r2, [r0, #312]	@ float
 4130              		.loc 1 692 0
 4131 0152 C0F86421 		str	r2, [r0, #356]	@ float
 4132              		.loc 1 679 0
 4133 0156 784A     		ldr	r2, .L28+116
 4134 0158 C0F83421 		str	r2, [r0, #308]	@ float
 4135              		.loc 1 681 0
 4136 015c 0222     		movs	r2, #2
 4137 015e 80F83C21 		strb	r2, [r0, #316]
 4138              		.loc 1 683 0
 4139 0162 764A     		ldr	r2, .L28+120
 4140 0164 C0F84021 		str	r2, [r0, #320]	@ float
 4141              		.loc 1 684 0
 4142 0168 4FF08142 		mov	r2, #1082130432
 4143 016c C0F84421 		str	r2, [r0, #324]	@ float
 4144              		.loc 1 687 0
 4145 0170 4122     		movs	r2, #65
 4146              		.loc 1 688 0
 4147 0172 DFF820E2 		ldr	lr, .L28+208
 4148              		.loc 1 687 0
 4149 0176 A0F85021 		strh	r2, [r0, #336]	@ movhi
 4150              		.loc 1 690 0
 4151 017a C822     		movs	r2, #200
 4152              		.loc 1 674 0
 4153 017c DFF81892 		ldr	r9, .L28+212
 4154              		.loc 1 685 0
 4155 0180 C0F84841 		str	r4, [r0, #328]	@ float
 4156              		.loc 1 686 0
 4157 0184 C0F84CC1 		str	ip, [r0, #332]	@ float
 4158              		.loc 1 664 0
 4159 0188 0024     		movs	r4, #0
 4160              		.loc 1 693 0
 4161 018a DFF8F8C1 		ldr	ip, .L28+192
ARM GAS  C:\Users\CFAR\AppData\Local\Temp\ccBnUWel.s 			page 74


 4162              		.loc 1 694 0
 4163 018e DFF89081 		ldr	r8, .L28+92
 4164              		.loc 1 688 0
 4165 0192 C0F854E1 		str	lr, [r0, #340]	@ float
 4166              		.loc 1 690 0
 4167 0196 C0F85C21 		str	r2, [r0, #348]
 4168              		.loc 1 695 0
 4169 019a DFF800E2 		ldr	lr, .L28+216
 4170              		.loc 1 675 0
 4171 019e 80F82831 		strb	r3, [r0, #296]
 4172              		.loc 1 666 0
 4173 01a2 FF22     		movs	r2, #255
 4174              		.loc 1 676 0
 4175 01a4 80F82931 		strb	r3, [r0, #297]
 4176              		.loc 1 678 0
 4177 01a8 80F83031 		strb	r3, [r0, #304]
 4178              		.loc 1 682 0
 4179 01ac 80F83D31 		strb	r3, [r0, #317]
 4180              		.loc 1 689 0
 4181 01b0 80F85851 		strb	r5, [r0, #344]
 4182              		.loc 1 691 0
 4183 01b4 C0F86031 		str	r3, [r0, #352]
 4184              		.loc 1 674 0
 4185 01b8 C0F82491 		str	r9, [r0, #292]	@ float
 4186              		.loc 1 694 0
 4187 01bc C0F86C81 		str	r8, [r0, #364]	@ float
 4188              		.loc 1 664 0
 4189 01c0 C0F81041 		str	r4, [r0, #272]	@ float
 4190              		.loc 1 665 0
 4191 01c4 C0F81441 		str	r4, [r0, #276]	@ float
 4192              		.loc 1 677 0
 4193 01c8 C0F82C41 		str	r4, [r0, #300]	@ float
 4194              		.loc 1 666 0
 4195 01cc 80F81921 		strb	r2, [r0, #281]
 4196              		.loc 1 667 0
 4197 01d0 80F81A21 		strb	r2, [r0, #282]
 4198              		.loc 1 668 0
 4199 01d4 80F81B21 		strb	r2, [r0, #283]
 4200              		.loc 1 669 0
 4201 01d8 80F81C21 		strb	r2, [r0, #284]
 4202              		.loc 1 670 0
 4203 01dc 80F81D21 		strb	r2, [r0, #285]
 4204              		.loc 1 671 0
 4205 01e0 80F81E21 		strb	r2, [r0, #286]
 4206              		.loc 1 672 0
 4207 01e4 80F81F21 		strb	r2, [r0, #287]
 4208              		.loc 1 673 0
 4209 01e8 80F82021 		strb	r2, [r0, #288]
 4210              		.loc 1 693 0
 4211 01ec C0F868C1 		str	ip, [r0, #360]	@ float
 4212              		.loc 1 695 0
 4213 01f0 C0F870E1 		str	lr, [r0, #368]	@ float
 4214              		.loc 1 700 0
 4215 01f4 80F88451 		strb	r5, [r0, #388]
 4216              		.loc 1 712 0
 4217 01f8 C0F8B461 		str	r6, [r0, #436]	@ float
 4218              		.loc 1 711 0
ARM GAS  C:\Users\CFAR\AppData\Local\Temp\ccBnUWel.s 			page 75


 4219 01fc 504D     		ldr	r5, .L28+124
 4220              		.loc 1 705 0
 4221 01fe C0F89811 		str	r1, [r0, #408]	@ float
 4222              		.loc 1 710 0
 4223 0202 4FF4FA76 		mov	r6, #500
 4224              		.loc 1 718 0
 4225 0206 4F49     		ldr	r1, .L28+128
 4226              		.loc 1 719 0
 4227 0208 4F4A     		ldr	r2, .L28+132
 4228              		.loc 1 710 0
 4229 020a C0F8AC61 		str	r6, [r0, #428]
 4230              		.loc 1 711 0
 4231 020e C0F8B051 		str	r5, [r0, #432]	@ float
 4232              		.loc 1 713 0
 4233 0212 4FF40056 		mov	r6, #8192
 4234              		.loc 1 717 0
 4235 0216 1025     		movs	r5, #16
 4236              		.loc 1 697 0
 4237 0218 9FED4C7A 		vldr.32	s14, .L28+136
 4238              		.loc 1 699 0
 4239 021c DFED4C7A 		vldr.32	s15, .L28+140
 4240              		.loc 1 696 0
 4241 0220 C0F874E1 		str	lr, [r0, #372]	@ float
 4242              		.loc 1 701 0
 4243 0224 C0F888C1 		str	ip, [r0, #392]	@ float
 4244              		.loc 1 702 0
 4245 0228 C0F88C41 		str	r4, [r0, #396]	@ float
 4246              		.loc 1 707 0
 4247 022c C0F8A071 		str	r7, [r0, #416]	@ float
 4248              		.loc 1 714 0
 4249 0230 80F8BC31 		strb	r3, [r0, #444]
 4250              		.loc 1 715 0
 4251 0234 80F8BD31 		strb	r3, [r0, #445]
 4252              		.loc 1 716 0
 4253 0238 80F8BE31 		strb	r3, [r0, #446]
 4254              		.loc 1 722 0
 4255 023c 80F8D431 		strb	r3, [r0, #468]
 4256              		.loc 1 723 0
 4257 0240 80F8D531 		strb	r3, [r0, #469]
 4258              		.loc 1 728 0
 4259 0244 80F8E831 		strb	r3, [r0, #488]
 4260              		.loc 1 713 0
 4261 0248 C0F8B861 		str	r6, [r0, #440]
 4262              		.loc 1 698 0
 4263 024c 414B     		ldr	r3, .L28+144
 4264              		.loc 1 717 0
 4265 024e C0F8C051 		str	r5, [r0, #448]
 4266              		.loc 1 718 0
 4267 0252 C0F8C411 		str	r1, [r0, #452]	@ float
 4268              		.loc 1 719 0
 4269 0256 C0F8C821 		str	r2, [r0, #456]	@ float
 4270              		.loc 1 703 0
 4271 025a DFF844B1 		ldr	fp, .L28+220
 4272              		.loc 1 706 0
 4273 025e DFF844A1 		ldr	r10, .L28+224
 4274              		.loc 1 708 0
 4275 0262 DFF84491 		ldr	r9, .L28+228
ARM GAS  C:\Users\CFAR\AppData\Local\Temp\ccBnUWel.s 			page 76


 4276              		.loc 1 709 0
 4277 0266 DFF84481 		ldr	r8, .L28+232
 4278              		.loc 1 720 0
 4279 026a DFF844E1 		ldr	lr, .L28+236
 4280              		.loc 1 721 0
 4281 026e DFF844C1 		ldr	ip, .L28+240
 4282              		.loc 1 724 0
 4283 0272 394F     		ldr	r7, .L28+148
 4284              		.loc 1 727 0
 4285 0274 394C     		ldr	r4, .L28+152
 4286              		.loc 1 726 0
 4287 0276 3A4D     		ldr	r5, .L28+156
 4288              		.loc 1 730 0
 4289 0278 3A4A     		ldr	r2, .L28+160
 4290              		.loc 1 697 0
 4291 027a 80ED5E7A 		vstr.32	s14, [r0, #376]
 4292              		.loc 1 725 0
 4293 027e 0E26     		movs	r6, #14
 4294              		.loc 1 729 0
 4295 0280 0321     		movs	r1, #3
 4296              		.loc 1 699 0
 4297 0282 C0ED607A 		vstr.32	s15, [r0, #384]
 4298              		.loc 1 703 0
 4299 0286 C0F890B1 		str	fp, [r0, #400]	@ float
 4300              		.loc 1 706 0
 4301 028a C0F89CA1 		str	r10, [r0, #412]	@ float
 4302              		.loc 1 708 0
 4303 028e C0F8A491 		str	r9, [r0, #420]	@ float
 4304              		.loc 1 709 0
 4305 0292 C0F8A881 		str	r8, [r0, #424]	@ float
 4306              		.loc 1 720 0
 4307 0296 C0F8CCE1 		str	lr, [r0, #460]	@ float
 4308              		.loc 1 721 0
 4309 029a C0F8D0C1 		str	ip, [r0, #464]	@ float
 4310              		.loc 1 724 0
 4311 029e C0F8D871 		str	r7, [r0, #472]	@ float
 4312              		.loc 1 725 0
 4313 02a2 80F8DC61 		strb	r6, [r0, #476]
 4314              		.loc 1 726 0
 4315 02a6 C0F8E051 		str	r5, [r0, #480]	@ float
 4316              		.loc 1 727 0
 4317 02aa C0F8E441 		str	r4, [r0, #484]	@ float
 4318              		.loc 1 698 0
 4319 02ae C0F87C31 		str	r3, [r0, #380]	@ float
 4320              		.loc 1 704 0
 4321 02b2 C0F89431 		str	r3, [r0, #404]	@ float
 4322              		.loc 1 729 0
 4323 02b6 C0F8EC11 		str	r1, [r0, #492]
 4324              		.loc 1 730 0
 4325 02ba C0F8F021 		str	r2, [r0, #496]	@ float
 4326              		.loc 1 731 0
 4327 02be BDE8F08F 		pop	{r4, r5, r6, r7, r8, r9, r10, fp, pc}
 4328              	.L29:
 4329 02c2 00BF     		.align	2
 4330              	.L28:
 4331 02c4 CDCC4C3F 		.word	1061997773
 4332 02c8 0050C3C7 		.word	-943501312
ARM GAS  C:\Users\CFAR\AppData\Local\Temp\ccBnUWel.s 			page 77


 4333 02cc 0050C347 		.word	1203982336
 4334 02d0 00009643 		.word	1133903872
 4335 02d4 0080BB44 		.word	1153138688
 4336 02d8 000070C2 		.word	-1032847360
 4337 02dc 0000C642 		.word	1120272384
 4338 02e0 00000243 		.word	1124204544
 4339 02e4 001BB749 		.word	1236736768
 4340 02e8 001BB7C9 		.word	-910746880
 4341 02ec 0000AA42 		.word	1118437376
 4342 02f0 0000C842 		.word	1120403456
 4343 02f4 0AD7A33B 		.word	1000593162
 4344 02f8 3333733F 		.word	1064514355
 4345 02fc 00002041 		.word	1092616192
 4346 0300 00001643 		.word	1125515264
 4347 0304 00808944 		.word	1149861888
 4348 0308 00409C47 		.word	1201422336
 4349 030c 8FC2753C 		.word	1014350479
 4350 0310 50A9AB4C 		.word	1286318416
 4351 0314 FF010302 		.word	33751551
 4352 0318 3333D33F 		.word	1070805811
 4353 031c 0000FA44 		.word	1157234688
 4354 0320 00004842 		.word	1112014848
 4355 0324 00003443 		.word	1127481344
 4356 0328 CDCC4C3D 		.word	1028443341
 4357 032c 0000E040 		.word	1088421888
 4358 0330 00004843 		.word	1128792064
 4359 0334 CDCCCC3D 		.word	1036831949
 4360 0338 0000C841 		.word	1103626240
 4361 033c 0000A041 		.word	1101004800
 4362 0340 0AD7A33C 		.word	1017370378
 4363 0344 00803B45 		.word	1161527296
 4364 0348 00B80847 		.word	1191753728
 4365 034c 17B7D138 		.word	953267991
 4366 0350 00006144 		.word	1147207680
 4367 0354 CDCC4C3E 		.word	1045220557
 4368 0358 F6281C3F 		.word	1058810102
 4369 035c E7FBA93D 		.word	1034550247
 4370 0360 00004040 		.word	1077936128
 4371 0364 0000C040 		.word	1086324736
 4372 0368 00007042 		.word	1114636288
 4373 036c 00006442 		.word	1113849856
 4374 0370 9A99193E 		.word	1041865114
 4375 0374 00001644 		.word	1142292480
 4376 0378 050604FF 		.word	-16513531
 4377 037c 8BE1EA36 		.word	921362827
 4378 0380 2E90203B 		.word	991989806
 4379 0384 8FC2F53C 		.word	1022739087
 4380 0388 0060EA46 		.word	1189765120
 4381 038c 8FC2F53D 		.word	1039516303
 4382 0390 0000C843 		.word	1137180672
 4383 0394 6F12833A 		.word	981668463
 4384 0398 00401C45 		.word	1159479296
 4385 039c 6F12833B 		.word	998445679
 4386 03a0 17B7D139 		.word	970045207
 4387 03a4 0AD7233C 		.word	1008981770
 4388 03a8 99BB963B 		.word	999734169
 4389 03ac 0AD7233D 		.word	1025758986
ARM GAS  C:\Users\CFAR\AppData\Local\Temp\ccBnUWel.s 			page 78


 4390 03b0 0050C346 		.word	1187205120
 4391 03b4 00405345 		.word	1163083776
 4392              		.cfi_endproc
 4393              	.LFE223:
 4394              		.size	confgenerator_set_defaults_mcconf, .-confgenerator_set_defaults_mcconf
 4395              		.section	.text.confgenerator_set_defaults_appconf,"ax",%progbits
 4396              		.align	1
 4397              		.p2align 4,,15
 4398              		.global	confgenerator_set_defaults_appconf
 4399              		.syntax unified
 4400              		.thumb
 4401              		.thumb_func
 4402              		.fpu fpv4-sp-d16
 4403              		.type	confgenerator_set_defaults_appconf, %function
 4404              	confgenerator_set_defaults_appconf:
 4405              	.LFB224:
 4406              		.loc 1 733 0
 4407              		.cfi_startproc
 4408              		@ args = 0, pretend = 0, frame = 0
 4409              		@ frame_needed = 0, uses_anonymous_args = 0
 4410              	.LVL399:
 4411 0000 2DE9F84F 		push	{r3, r4, r5, r6, r7, r8, r9, r10, fp, lr}
 4412              		.cfi_def_cfa_offset 40
 4413              		.cfi_offset 3, -40
 4414              		.cfi_offset 4, -36
 4415              		.cfi_offset 5, -32
 4416              		.cfi_offset 6, -28
 4417              		.cfi_offset 7, -24
 4418              		.cfi_offset 8, -20
 4419              		.cfi_offset 9, -16
 4420              		.cfi_offset 10, -12
 4421              		.cfi_offset 11, -8
 4422              		.cfi_offset 14, -4
 4423              		.loc 1 733 0
 4424 0004 0446     		mov	r4, r0
 4425              		.loc 1 734 0
 4426 0006 FFF7FEFF 		bl	hw_id_from_uuid
 4427              	.LVL400:
 4428              		.loc 1 747 0
 4429 000a 934F     		ldr	r7, .L32
 4430              		.loc 1 757 0
 4431 000c 9FED937A 		vldr.32	s14, .L32+4
 4432              		.loc 1 758 0
 4433 0010 DFED937A 		vldr.32	s15, .L32+8
 4434              		.loc 1 734 0
 4435 0014 2070     		strb	r0, [r4]
 4436              		.loc 1 738 0
 4437 0016 3221     		movs	r1, #50
 4438              		.loc 1 742 0
 4439 0018 0720     		movs	r0, #7
 4440              		.loc 1 751 0
 4441 001a F7EE086A 		vmov.f32	s13, #1.5e+0
 4442              		.loc 1 762 0
 4443 001e 9FED916A 		vldr.32	s12, .L32+12
 4444              		.loc 1 761 0
 4445 0022 914D     		ldr	r5, .L32+16
 4446              		.loc 1 748 0
ARM GAS  C:\Users\CFAR\AppData\Local\Temp\ccBnUWel.s 			page 79


 4447 0024 DFF86082 		ldr	r8, .L32+48
 4448              		.loc 1 763 0
 4449 0028 DFF860B2 		ldr	fp, .L32+52
 4450              		.loc 1 738 0
 4451 002c 2161     		str	r1, [r4, #16]
 4452              		.loc 1 736 0
 4453 002e 0023     		movs	r3, #0
 4454              		.loc 1 737 0
 4455 0030 0022     		movs	r2, #0
 4456              		.loc 1 741 0
 4457 0032 0121     		movs	r1, #1
 4458              		.loc 1 739 0
 4459 0034 0226     		movs	r6, #2
 4460              		.loc 1 735 0
 4461 0036 4FF47A7C 		mov	ip, #1000
 4462              		.loc 1 745 0
 4463 003a 4FF0030A 		mov	r10, #3
 4464              		.loc 1 742 0
 4465 003e E075     		strb	r0, [r4, #23]
 4466              		.loc 1 747 0
 4467 0040 2762     		str	r7, [r4, #32]	@ float
 4468              		.loc 1 764 0
 4469 0042 8A48     		ldr	r0, .L32+20
 4470              		.loc 1 751 0
 4471 0044 C4ED0C6A 		vstr.32	s13, [r4, #48]
 4472              		.loc 1 749 0
 4473 0048 4FF07E57 		mov	r7, #1065353216
 4474              		.loc 1 750 0
 4475 004c F0EE006A 		vmov.f32	s13, #2.0e+0
 4476              		.loc 1 739 0
 4477 0050 2675     		strb	r6, [r4, #20]
 4478              		.loc 1 756 0
 4479 0052 84F84060 		strb	r6, [r4, #64]
 4480              		.loc 1 745 0
 4481 0056 84F81AA0 		strb	r10, [r4, #26]
 4482              		.loc 1 748 0
 4483 005a C4F82480 		str	r8, [r4, #36]	@ float
 4484              		.loc 1 750 0
 4485 005e C4ED0B6A 		vstr.32	s13, [r4, #44]
 4486              		.loc 1 757 0
 4487 0062 84ED117A 		vstr.32	s14, [r4, #68]
 4488              		.loc 1 758 0
 4489 0066 C4ED127A 		vstr.32	s15, [r4, #72]
 4490              		.loc 1 761 0
 4491 006a 2565     		str	r5, [r4, #80]	@ float
 4492              		.loc 1 763 0
 4493 006c C4F858B0 		str	fp, [r4, #88]	@ float
 4494              		.loc 1 764 0
 4495 0070 E065     		str	r0, [r4, #92]	@ float
 4496              		.loc 1 762 0
 4497 0072 84ED156A 		vstr.32	s12, [r4, #84]
 4498              		.loc 1 735 0
 4499 0076 C4F804C0 		str	ip, [r4, #4]
 4500              		.loc 1 736 0
 4501 007a A360     		str	r3, [r4, #8]	@ float
 4502              		.loc 1 754 0
 4503 007c A363     		str	r3, [r4, #56]	@ float
ARM GAS  C:\Users\CFAR\AppData\Local\Temp\ccBnUWel.s 			page 80


 4504              		.loc 1 755 0
 4505 007e E363     		str	r3, [r4, #60]	@ float
 4506              		.loc 1 737 0
 4507 0080 2273     		strb	r2, [r4, #12]
 4508              		.loc 1 740 0
 4509 0082 6275     		strb	r2, [r4, #21]
 4510              		.loc 1 743 0
 4511 0084 2276     		strb	r2, [r4, #24]
 4512              		.loc 1 744 0
 4513 0086 6276     		strb	r2, [r4, #25]
 4514              		.loc 1 746 0
 4515 0088 2277     		strb	r2, [r4, #28]
 4516              		.loc 1 760 0
 4517 008a 84F84D20 		strb	r2, [r4, #77]
 4518              		.loc 1 765 0
 4519 008e 84F86020 		strb	r2, [r4, #96]
 4520              		.loc 1 741 0
 4521 0092 A175     		strb	r1, [r4, #22]
 4522              		.loc 1 752 0
 4523 0094 84F83410 		strb	r1, [r4, #52]
 4524              		.loc 1 753 0
 4525 0098 84F83510 		strb	r1, [r4, #53]
 4526              		.loc 1 759 0
 4527 009c 84F84C10 		strb	r1, [r4, #76]
 4528              		.loc 1 749 0
 4529 00a0 A762     		str	r7, [r4, #40]	@ float
 4530              		.loc 1 766 0
 4531 00a2 C4F86480 		str	r8, [r4, #100]	@ float
 4532              		.loc 1 780 0
 4533 00a6 84F88C60 		strb	r6, [r4, #140]
 4534              		.loc 1 785 0
 4535 00aa C4F89C50 		str	r5, [r4, #156]	@ float
 4536              		.loc 1 792 0
 4537 00ae C4F8B850 		str	r5, [r4, #184]	@ float
 4538              		.loc 1 795 0
 4539 00b2 84F8C460 		strb	r6, [r4, #196]
 4540              		.loc 1 798 0
 4541 00b6 C4F8C850 		str	r5, [r4, #200]	@ float
 4542              		.loc 1 787 0
 4543 00ba 4FF4FA76 		mov	r6, #500
 4544 00be 4FF4E135 		mov	r5, #115200
 4545              		.loc 1 767 0
 4546 00c2 DFF8CCE1 		ldr	lr, .L32+56
 4547              		.loc 1 781 0
 4548 00c6 DFF8CC91 		ldr	r9, .L32+60
 4549              		.loc 1 769 0
 4550 00ca C4ED1C6A 		vstr.32	s13, [r4, #112]
 4551              		.loc 1 787 0
 4552 00ce C4E92865 		strd	r6, r5, [r4, #160]
 4553              		.loc 1 789 0
 4554 00d2 C4F8AC80 		str	r8, [r4, #172]	@ float
 4555              		.loc 1 790 0
 4556 00d6 84ED2C7A 		vstr.32	s14, [r4, #176]
 4557              		.loc 1 782 0
 4558 00da DFF8BC81 		ldr	r8, .L32+64
 4559              		.loc 1 806 0
 4560 00de 644D     		ldr	r5, .L32+24
ARM GAS  C:\Users\CFAR\AppData\Local\Temp\ccBnUWel.s 			page 81


 4561              		.loc 1 817 0
 4562 00e0 DFED646A 		vldr.32	s13, .L32+28
 4563              		.loc 1 824 0
 4564 00e4 9FED647A 		vldr.32	s14, .L32+32
 4565              		.loc 1 768 0
 4566 00e8 E066     		str	r0, [r4, #108]	@ float
 4567              		.loc 1 771 0
 4568 00ea A067     		str	r0, [r4, #120]	@ float
 4569              		.loc 1 791 0
 4570 00ec C4ED2D7A 		vstr.32	s15, [r4, #180]
 4571              		.loc 1 767 0
 4572 00f0 C4F868E0 		str	lr, [r4, #104]	@ float
 4573              		.loc 1 770 0
 4574 00f4 C4F874E0 		str	lr, [r4, #116]	@ float
 4575              		.loc 1 821 0
 4576 00f8 4FF07D56 		mov	r6, #1061158912
 4577              		.loc 1 772 0
 4578 00fc 84F87C10 		strb	r1, [r4, #124]
 4579              		.loc 1 773 0
 4580 0100 84F87D10 		strb	r1, [r4, #125]
 4581              		.loc 1 774 0
 4582 0104 84F87E20 		strb	r2, [r4, #126]
 4583              		.loc 1 775 0
 4584 0108 84F87F20 		strb	r2, [r4, #127]
 4585              		.loc 1 776 0
 4586 010c 84F88020 		strb	r2, [r4, #128]
 4587              		.loc 1 777 0
 4588 0110 84F88120 		strb	r2, [r4, #129]
 4589              		.loc 1 778 0
 4590 0114 C4F88430 		str	r3, [r4, #132]	@ float
 4591              		.loc 1 779 0
 4592 0118 C4F88830 		str	r3, [r4, #136]	@ float
 4593              		.loc 1 783 0
 4594 011c 84F89810 		strb	r1, [r4, #152]
 4595              		.loc 1 784 0
 4596 0120 84F89920 		strb	r2, [r4, #153]
 4597              		.loc 1 788 0
 4598 0124 84F8A810 		strb	r1, [r4, #168]
 4599              		.loc 1 793 0
 4600 0128 C4F8BC30 		str	r3, [r4, #188]	@ float
 4601              		.loc 1 794 0
 4602 012c C4F8C030 		str	r3, [r4, #192]	@ float
 4603              		.loc 1 845 0
 4604 0130 DFED527A 		vldr.32	s15, .L32+36
 4605              		.loc 1 796 0
 4606 0134 84F8C510 		strb	r1, [r4, #197]
 4607              		.loc 1 797 0
 4608 0138 84F8C620 		strb	r2, [r4, #198]
 4609              		.loc 1 781 0
 4610 013c C4F89090 		str	r9, [r4, #144]	@ float
 4611              		.loc 1 782 0
 4612 0140 C4F89480 		str	r8, [r4, #148]	@ float
 4613              		.loc 1 799 0
 4614 0144 84F8CC10 		strb	r1, [r4, #204]
 4615              		.loc 1 800 0
 4616 0148 C4F8D0B0 		str	fp, [r4, #208]	@ float
 4617              		.loc 1 801 0
ARM GAS  C:\Users\CFAR\AppData\Local\Temp\ccBnUWel.s 			page 82


 4618 014c C4F8D400 		str	r0, [r4, #212]	@ float
 4619              		.loc 1 803 0
 4620 0150 84F8D9A0 		strb	r10, [r4, #217]
 4621              		.loc 1 820 0
 4622 0154 C4F804E1 		str	lr, [r4, #260]	@ float
 4623              		.loc 1 806 0
 4624 0158 C4F8DC50 		str	r5, [r4, #220]
 4625              		.loc 1 823 0
 4626 015c 4848     		ldr	r0, .L32+40
 4627              		.loc 1 816 0
 4628 015e 494D     		ldr	r5, .L32+44
 4629              		.loc 1 822 0
 4630 0160 DFF838B1 		ldr	fp, .L32+68
 4631              		.loc 1 828 0
 4632 0164 DFF838E1 		ldr	lr, .L32+72
 4633              		.loc 1 821 0
 4634 0168 C4F80861 		str	r6, [r4, #264]	@ float
 4635              		.loc 1 827 0
 4636 016c 4FF0824A 		mov	r10, #1090519040
 4637              		.loc 1 802 0
 4638 0170 84F8D810 		strb	r1, [r4, #216]
 4639              		.loc 1 804 0
 4640 0174 84F8DA10 		strb	r1, [r4, #218]
 4641              		.loc 1 805 0
 4642 0178 84F8DB20 		strb	r2, [r4, #219]
 4643              		.loc 1 809 0
 4644 017c 84F8E020 		strb	r2, [r4, #224]
 4645              		.loc 1 811 0
 4646 0180 84F8E110 		strb	r1, [r4, #225]
 4647              		.loc 1 812 0
 4648 0184 C4F8E430 		str	r3, [r4, #228]	@ float
 4649              		.loc 1 813 0
 4650 0188 C4F8E830 		str	r3, [r4, #232]	@ float
 4651              		.loc 1 814 0
 4652 018c C4F8EC30 		str	r3, [r4, #236]	@ float
 4653              		.loc 1 815 0
 4654 0190 A4F8F0C0 		strh	ip, [r4, #240]	@ movhi
 4655              		.loc 1 818 0
 4656 0194 C4F8FC30 		str	r3, [r4, #252]	@ float
 4657              		.loc 1 819 0
 4658 0198 C4F80031 		str	r3, [r4, #256]	@ float
 4659              		.loc 1 825 0
 4660 019c C4F81831 		str	r3, [r4, #280]	@ float
 4661              		.loc 1 829 0
 4662 01a0 C4F82831 		str	r3, [r4, #296]	@ float
 4663              		.loc 1 830 0
 4664 01a4 C4F82C31 		str	r3, [r4, #300]	@ float
 4665              		.loc 1 831 0
 4666 01a8 84F83021 		strb	r2, [r4, #304]
 4667              		.loc 1 832 0
 4668 01ac C4F83431 		str	r3, [r4, #308]	@ float
 4669              		.loc 1 833 0
 4670 01b0 C4F83821 		str	r2, [r4, #312]
 4671 01b4 C4F83C21 		str	r2, [r4, #316]
 4672              		.loc 1 817 0
 4673 01b8 C4ED3E6A 		vstr.32	s13, [r4, #248]
 4674              		.loc 1 848 0
ARM GAS  C:\Users\CFAR\AppData\Local\Temp\ccBnUWel.s 			page 83


 4675 01bc C826     		movs	r6, #200
 4676              		.loc 1 822 0
 4677 01be C4F80CB1 		str	fp, [r4, #268]	@ float
 4678              		.loc 1 824 0
 4679 01c2 84ED457A 		vstr.32	s14, [r4, #276]
 4680              		.loc 1 827 0
 4681 01c6 C4F820A1 		str	r10, [r4, #288]	@ float
 4682              		.loc 1 828 0
 4683 01ca C4F824E1 		str	lr, [r4, #292]	@ float
 4684              		.loc 1 816 0
 4685 01ce C4F8F450 		str	r5, [r4, #244]	@ float
 4686              		.loc 1 826 0
 4687 01d2 C4F81C51 		str	r5, [r4, #284]	@ float
 4688              		.loc 1 823 0
 4689 01d6 C4F81001 		str	r0, [r4, #272]	@ float
 4690              		.loc 1 834 0
 4691 01da C4F84021 		str	r2, [r4, #320]
 4692              		.loc 1 841 0
 4693 01de A4F858C1 		strh	ip, [r4, #344]	@ movhi
 4694              		.loc 1 835 0
 4695 01e2 C4F84421 		str	r2, [r4, #324]
 4696              		.loc 1 836 0
 4697 01e6 C4F84821 		str	r2, [r4, #328]
 4698              		.loc 1 838 0
 4699 01ea C4F84C21 		str	r2, [r4, #332]
 4700              		.loc 1 840 0
 4701 01ee C4F85421 		str	r2, [r4, #340]
 4702              		.loc 1 839 0
 4703 01f2 C4F85021 		str	r2, [r4, #336]
 4704              		.loc 1 843 0
 4705 01f6 C4F85C31 		str	r3, [r4, #348]	@ float
 4706              		.loc 1 844 0
 4707 01fa C4F86071 		str	r7, [r4, #352]	@ float
 4708              		.loc 1 846 0
 4709 01fe 84F86811 		strb	r1, [r4, #360]
 4710              		.loc 1 847 0
 4711 0202 84F86921 		strb	r2, [r4, #361]
 4712              		.loc 1 849 0
 4713 0206 C4F87071 		str	r7, [r4, #368]	@ float
 4714              		.loc 1 850 0
 4715 020a C4F87491 		str	r9, [r4, #372]	@ float
 4716              		.loc 1 851 0
 4717 020e C4F87831 		str	r3, [r4, #376]	@ float
 4718              		.loc 1 852 0
 4719 0212 C4F87C81 		str	r8, [r4, #380]	@ float
 4720              		.loc 1 853 0
 4721 0216 C4F88031 		str	r3, [r4, #384]	@ float
 4722              		.loc 1 854 0
 4723 021a C4F88431 		str	r3, [r4, #388]	@ float
 4724              		.loc 1 855 0
 4725 021e C4F88831 		str	r3, [r4, #392]	@ float
 4726              		.loc 1 856 0
 4727 0222 C4F88C31 		str	r3, [r4, #396]	@ float
 4728              		.loc 1 857 0
 4729 0226 C4F89031 		str	r3, [r4, #400]	@ float
 4730              		.loc 1 858 0
 4731 022a C4F89431 		str	r3, [r4, #404]	@ float
ARM GAS  C:\Users\CFAR\AppData\Local\Temp\ccBnUWel.s 			page 84


 4732              		.loc 1 859 0
 4733 022e C4F89831 		str	r3, [r4, #408]	@ float
 4734              		.loc 1 860 0
 4735 0232 C4F89C31 		str	r3, [r4, #412]	@ float
 4736              		.loc 1 861 0
 4737 0236 C4F8A031 		str	r3, [r4, #416]	@ float
 4738              		.loc 1 862 0
 4739 023a C4F8A431 		str	r3, [r4, #420]	@ float
 4740              		.loc 1 863 0
 4741 023e C4F8A831 		str	r3, [r4, #424]	@ float
 4742              		.loc 1 864 0
 4743 0242 C4F8AC31 		str	r3, [r4, #428]	@ float
 4744              		.loc 1 865 0
 4745 0246 C4F8B001 		str	r0, [r4, #432]	@ float
 4746              		.loc 1 845 0
 4747 024a C4ED597A 		vstr.32	s15, [r4, #356]
 4748              		.loc 1 848 0
 4749 024e C4F86C61 		str	r6, [r4, #364]
 4750              		.loc 1 866 0
 4751 0252 BDE8F88F 		pop	{r3, r4, r5, r6, r7, r8, r9, r10, fp, pc}
 4752              	.LVL401:
 4753              	.L33:
 4754 0256 00BF     		.align	2
 4755              	.L32:
 4756 0258 00606A46 		.word	1181376512
 4757 025c CDCCCC3E 		.word	1053609165
 4758 0260 CDCC4C3E 		.word	1045220557
 4759 0264 00007A45 		.word	1165623296
 4760 0268 00803B45 		.word	1161527296
 4761 026c 00004040 		.word	1077936128
 4762 0270 034CC6C7 		.word	-943305725
 4763 0274 00003442 		.word	1110704128
 4764 0278 0000C842 		.word	1120403456
 4765 027c 0000A042 		.word	1117782016
 4766 0280 0000A040 		.word	1084227584
 4767 0284 0000A041 		.word	1101004800
 4768 0288 9A99193E 		.word	1041865114
 4769 028c 295C8F3D 		.word	1032805417
 4770 0290 6666663F 		.word	1063675494
 4771 0294 9A99993E 		.word	1050253722
 4772 0298 CDCCCC3D 		.word	1036831949
 4773 029c 00007041 		.word	1097859072
 4774 02a0 0000F041 		.word	1106247680
 4775              		.cfi_endproc
 4776              	.LFE224:
 4777              		.size	confgenerator_set_defaults_appconf, .-confgenerator_set_defaults_appconf
 4778              		.text
 4779              	.Letext0:
 4780              		.file 2 "c:\\st\\stm32cubeide_1.3.0\\stm32cubeide\\plugins\\com.st.stm32cube.ide.mcu.externaltools
 4781              		.file 3 "c:\\st\\stm32cubeide_1.3.0\\stm32cubeide\\plugins\\com.st.stm32cube.ide.mcu.externaltools
 4782              		.file 4 "ChibiOS_3.0.5/os/rt/ports/ARMCMx/compilers/GCC/chtypes.h"
 4783              		.file 5 "ChibiOS_3.0.5/os/rt/include/chsystypes.h"
 4784              		.file 6 "ChibiOS_3.0.5/os/rt/include/chschd.h"
 4785              		.file 7 "ChibiOS_3.0.5/os/ext/CMSIS/include/core_cm4.h"
 4786              		.file 8 "ChibiOS_3.0.5/os/ext/CMSIS/ST/system_stm32f4xx.h"
 4787              		.file 9 "ChibiOS_3.0.5/os/rt/ports/ARMCMx/chcore.h"
 4788              		.file 10 "ChibiOS_3.0.5/os/rt/ports/ARMCMx/chcore_v7m.h"
ARM GAS  C:\Users\CFAR\AppData\Local\Temp\ccBnUWel.s 			page 85


 4789              		.file 11 "ChibiOS_3.0.5/os/rt/include/chtm.h"
 4790              		.file 12 "ChibiOS_3.0.5/os/rt/include/chsem.h"
 4791              		.file 13 "ChibiOS_3.0.5/os/rt/include/chmtx.h"
 4792              		.file 14 "ChibiOS_3.0.5/os/rt/include/chregistry.h"
 4793              		.file 15 "datatypes.h"
 4794              		.file 16 "conf_general.h"
 4795              		.file 17 "hwconf/hw.h"
 4796              		.file 18 "buffer.h"
