ARM GAS  C:\Users\CFAR\AppData\Local\Temp\cc0Op7No.s 			page 1


   1              		.cpu cortex-m4
   2              		.eabi_attribute 27, 1
   3              		.eabi_attribute 28, 1
   4              		.eabi_attribute 20, 1
   5              		.eabi_attribute 21, 1
   6              		.eabi_attribute 23, 3
   7              		.eabi_attribute 24, 1
   8              		.eabi_attribute 25, 1
   9              		.eabi_attribute 26, 1
  10              		.eabi_attribute 30, 2
  11              		.eabi_attribute 34, 1
  12              		.eabi_attribute 18, 4
  13              		.file	"conf_general.c"
  14              		.text
  15              	.Ltext0:
  16              		.cfi_sections	.debug_frame
  17              		.section	.text.read_eeprom_var,"ax",%progbits
  18              		.align	1
  19              		.p2align 4,,15
  20              		.syntax unified
  21              		.thumb
  22              		.thumb_func
  23              		.fpu fpv4-sp-d16
  24              		.type	read_eeprom_var, %function
  25              	read_eeprom_var:
  26              	.LFB261:
  27              		.file 1 "conf_general.c"
  28              		.loc 1 147 0
  29              		.cfi_startproc
  30              		@ args = 0, pretend = 0, frame = 8
  31              		@ frame_needed = 0, uses_anonymous_args = 0
  32              	.LVL0:
  33 0000 30B5     		push	{r4, r5, lr}
  34              		.cfi_def_cfa_offset 12
  35              		.cfi_offset 4, -12
  36              		.cfi_offset 5, -8
  37              		.cfi_offset 14, -4
  38              		.loc 1 151 0
  39 0002 02EB4102 		add	r2, r2, r1, lsl #1
  40              	.LVL1:
  41              		.loc 1 147 0
  42 0006 83B0     		sub	sp, sp, #12
  43              		.cfi_def_cfa_offset 24
  44              		.loc 1 151 0
  45 0008 94B2     		uxth	r4, r2
  46              		.loc 1 147 0
  47 000a 0546     		mov	r5, r0
  48              		.loc 1 151 0
  49 000c 01A9     		add	r1, sp, #4
  50              	.LVL2:
  51 000e 2046     		mov	r0, r4
  52              	.LVL3:
  53 0010 FFF7FEFF 		bl	EE_ReadVariable
  54              	.LVL4:
  55 0014 10B1     		cbz	r0, .L2
  56              	.L4:
  57              		.loc 1 156 0
ARM GAS  C:\Users\CFAR\AppData\Local\Temp\cc0Op7No.s 			page 2


  58 0016 0020     		movs	r0, #0
  59              	.LVL5:
  60              		.loc 1 160 0
  61 0018 03B0     		add	sp, sp, #12
  62              		.cfi_remember_state
  63              		.cfi_def_cfa_offset 12
  64              		@ sp needed
  65 001a 30BD     		pop	{r4, r5, pc}
  66              	.LVL6:
  67              	.L2:
  68              		.cfi_restore_state
  69              		.loc 1 152 0 discriminator 1
  70 001c 601C     		adds	r0, r4, #1
  71 001e 80B2     		uxth	r0, r0
  72 0020 0DF10601 		add	r1, sp, #6
  73 0024 FFF7FEFF 		bl	EE_ReadVariable
  74              	.LVL7:
  75              		.loc 1 151 0 discriminator 1
  76 0028 0028     		cmp	r0, #0
  77 002a F4D1     		bne	.L4
  78              	.LVL8:
  79              	.LBB11:
  80              		.loc 1 153 0
  81 002c BDF80420 		ldrh	r2, [sp, #4]
  82 0030 BDF80630 		ldrh	r3, [sp, #6]
  83              	.LBE11:
  84              		.loc 1 148 0
  85 0034 0120     		movs	r0, #1
  86              	.LVL9:
  87              	.LBB12:
  88              		.loc 1 153 0
  89 0036 43EA0243 		orr	r3, r3, r2, lsl #16
  90              		.loc 1 154 0
  91 003a 2B60     		str	r3, [r5]
  92              	.LBE12:
  93              		.loc 1 160 0
  94 003c 03B0     		add	sp, sp, #12
  95              		.cfi_def_cfa_offset 12
  96              		@ sp needed
  97 003e 30BD     		pop	{r4, r5, pc}
  98              		.cfi_endproc
  99              	.LFE261:
 100              		.size	read_eeprom_var, .-read_eeprom_var
 101              		.section	.text.store_eeprom_var,"ax",%progbits
 102              		.align	1
 103              		.p2align 4,,15
 104              		.syntax unified
 105              		.thumb
 106              		.thumb_func
 107              		.fpu fpv4-sp-d16
 108              		.type	store_eeprom_var, %function
 109              	store_eeprom_var:
 110              	.LFB262:
 111              		.loc 1 162 0
 112              		.cfi_startproc
 113              		@ args = 0, pretend = 0, frame = 0
 114              		@ frame_needed = 0, uses_anonymous_args = 0
ARM GAS  C:\Users\CFAR\AppData\Local\Temp\cc0Op7No.s 			page 3


 115              	.LVL10:
 116 0000 70B5     		push	{r4, r5, r6, lr}
 117              		.cfi_def_cfa_offset 16
 118              		.cfi_offset 4, -16
 119              		.cfi_offset 5, -12
 120              		.cfi_offset 6, -8
 121              		.cfi_offset 14, -4
 122              		.loc 1 162 0
 123 0002 0E46     		mov	r6, r1
 124 0004 1446     		mov	r4, r2
 125              		.loc 1 166 0
 126 0006 0568     		ldr	r5, [r0]
 127              	.LVL11:
 128              		.loc 1 175 0
 129 0008 04EB4604 		add	r4, r4, r6, lsl #1
 130              		.loc 1 169 0
 131 000c FFF7FEFF 		bl	timeout_configure_IWDT_slowest
 132              	.LVL12:
 133              		.loc 1 175 0
 134 0010 A4B2     		uxth	r4, r4
 135              		.loc 1 171 0
 136 0012 FFF7FEFF 		bl	FLASH_Unlock
 137              	.LVL13:
 138              		.loc 1 172 0
 139 0016 F220     		movs	r0, #242
 140 0018 FFF7FEFF 		bl	FLASH_ClearFlag
 141              	.LVL14:
 142              		.loc 1 175 0
 143 001c 2046     		mov	r0, r4
 144 001e 290C     		lsrs	r1, r5, #16
 145 0020 FFF7FEFF 		bl	EE_WriteVariable
 146              	.LVL15:
 147 0024 0928     		cmp	r0, #9
 148 0026 06D0     		beq	.L11
 149              		.loc 1 176 0
 150 0028 0024     		movs	r4, #0
 151              	.LVL16:
 152              		.loc 1 185 0
 153 002a FFF7FEFF 		bl	FLASH_Lock
 154              	.LVL17:
 155              		.loc 1 187 0
 156 002e FFF7FEFF 		bl	timeout_configure_IWDT
 157              	.LVL18:
 158              		.loc 1 190 0
 159 0032 2046     		mov	r0, r4
 160 0034 70BD     		pop	{r4, r5, r6, pc}
 161              	.LVL19:
 162              	.L11:
 163              		.loc 1 180 0
 164 0036 601C     		adds	r0, r4, #1
 165 0038 A9B2     		uxth	r1, r5
 166 003a 80B2     		uxth	r0, r0
 167 003c FFF7FEFF 		bl	EE_WriteVariable
 168              	.LVL20:
 169 0040 A0F10904 		sub	r4, r0, #9
 170 0044 B4FA84F4 		clz	r4, r4
 171 0048 6409     		lsrs	r4, r4, #5
ARM GAS  C:\Users\CFAR\AppData\Local\Temp\cc0Op7No.s 			page 4


 172              	.LVL21:
 173              		.loc 1 185 0
 174 004a FFF7FEFF 		bl	FLASH_Lock
 175              	.LVL22:
 176              		.loc 1 187 0
 177 004e FFF7FEFF 		bl	timeout_configure_IWDT
 178              	.LVL23:
 179              		.loc 1 190 0
 180 0052 2046     		mov	r0, r4
 181 0054 70BD     		pop	{r4, r5, r6, pc}
 182              		.cfi_endproc
 183              	.LFE262:
 184              		.size	store_eeprom_var, .-store_eeprom_var
 185 0056 00BF     		.section	.text.conf_general_init,"ax",%progbits
 186              		.align	1
 187              		.p2align 4,,15
 188              		.global	conf_general_init
 189              		.syntax unified
 190              		.thumb
 191              		.thumb_func
 192              		.fpu fpv4-sp-d16
 193              		.type	conf_general_init, %function
 194              	conf_general_init:
 195              	.LFB256:
 196              		.loc 1 55 0
 197              		.cfi_startproc
 198              		@ args = 0, pretend = 0, frame = 0
 199              		@ frame_needed = 0, uses_anonymous_args = 0
 200 0000 08B5     		push	{r3, lr}
 201              		.cfi_def_cfa_offset 8
 202              		.cfi_offset 3, -8
 203              		.cfi_offset 14, -4
 204              		.loc 1 57 0
 205 0002 40F29C72 		movw	r2, #1948
 206 0006 0021     		movs	r1, #0
 207 0008 1C48     		ldr	r0, .L22
 208 000a FFF7FEFF 		bl	memset
 209              	.LVL24:
 210 000e 1C4A     		ldr	r2, .L22+4
 211 0010 4FF47A73 		mov	r3, #1000
 212 0014 02F5FA71 		add	r1, r2, #500
 213              	.LVL25:
 214              	.L13:
 215              	.LBB13:
 216              		.loc 1 61 0 discriminator 3
 217 0018 22F8023F 		strh	r3, [r2, #2]!	@ movhi
 218 001c 0133     		adds	r3, r3, #1
 219              		.loc 1 60 0 discriminator 3
 220 001e 8A42     		cmp	r2, r1
 221 0020 9BB2     		uxth	r3, r3
 222 0022 F9D1     		bne	.L13
 223 0024 174A     		ldr	r2, .L22+8
 224              		.loc 1 60 0 is_stmt 0
 225 0026 4FF4FA63 		mov	r3, #2000
 226 002a 02F5DA71 		add	r1, r2, #436
 227              	.L14:
 228              	.LBE13:
ARM GAS  C:\Users\CFAR\AppData\Local\Temp\cc0Op7No.s 			page 5


 229              	.LBB14:
 230              		.loc 1 65 0 is_stmt 1 discriminator 3
 231 002e 22F8023F 		strh	r3, [r2, #2]!	@ movhi
 232              	.LVL26:
 233 0032 0133     		adds	r3, r3, #1
 234              		.loc 1 64 0 discriminator 3
 235 0034 8A42     		cmp	r2, r1
 236 0036 9BB2     		uxth	r3, r3
 237 0038 F9D1     		bne	.L14
 238 003a 134A     		ldr	r2, .L22+12
 239              		.loc 1 64 0 is_stmt 0
 240 003c 40F6B833 		movw	r3, #3000
 241 0040 02F58071 		add	r1, r2, #256
 242              	.L15:
 243              	.LBE14:
 244              	.LBB15:
 245              		.loc 1 69 0 is_stmt 1 discriminator 3
 246 0044 22F8023F 		strh	r3, [r2, #2]!	@ movhi
 247              	.LVL27:
 248 0048 0133     		adds	r3, r3, #1
 249              		.loc 1 68 0 discriminator 3
 250 004a 9142     		cmp	r1, r2
 251 004c 9BB2     		uxth	r3, r3
 252 004e F9D1     		bne	.L15
 253 0050 0E4A     		ldr	r2, .L22+16
 254              		.loc 1 68 0 is_stmt 0
 255 0052 4FF47A63 		mov	r3, #4000
 256 0056 02F58071 		add	r1, r2, #256
 257              	.L16:
 258              	.LBE15:
 259              	.LBB16:
 260              		.loc 1 73 0 is_stmt 1 discriminator 3
 261 005a 22F8023F 		strh	r3, [r2, #2]!	@ movhi
 262              	.LVL28:
 263 005e 0133     		adds	r3, r3, #1
 264              		.loc 1 72 0 discriminator 3
 265 0060 8A42     		cmp	r2, r1
 266 0062 9BB2     		uxth	r3, r3
 267 0064 F9D1     		bne	.L16
 268              	.LBE16:
 269              		.loc 1 76 0
 270 0066 FFF7FEFF 		bl	FLASH_Unlock
 271              	.LVL29:
 272              		.loc 1 77 0
 273 006a F220     		movs	r0, #242
 274 006c FFF7FEFF 		bl	FLASH_ClearFlag
 275              	.LVL30:
 276              		.loc 1 79 0
 277 0070 FFF7FEFF 		bl	EE_Init
 278              	.LVL31:
 279              		.loc 1 81 0
 280 0074 BDE80840 		pop	{r3, lr}
 281              		.cfi_restore 14
 282              		.cfi_restore 3
 283              		.cfi_def_cfa_offset 0
 284              		.loc 1 80 0
 285 0078 FFF7FEBF 		b	FLASH_Lock
ARM GAS  C:\Users\CFAR\AppData\Local\Temp\cc0Op7No.s 			page 6


 286              	.LVL32:
 287              	.L23:
 288              		.align	2
 289              	.L22:
 290 007c 00000000 		.word	.LANCHOR0
 291 0080 FEFFFFFF 		.word	.LANCHOR0-2
 292 0084 F2010000 		.word	.LANCHOR0+498
 293 0088 A6030000 		.word	.LANCHOR0+934
 294 008c A6040000 		.word	.LANCHOR0+1190
 295              		.cfi_endproc
 296              	.LFE256:
 297              		.size	conf_general_init, .-conf_general_init
 298              		.section	.text.conf_general_read_eeprom_var_hw,"ax",%progbits
 299              		.align	1
 300              		.p2align 4,,15
 301              		.global	conf_general_read_eeprom_var_hw
 302              		.syntax unified
 303              		.thumb
 304              		.thumb_func
 305              		.fpu fpv4-sp-d16
 306              		.type	conf_general_read_eeprom_var_hw, %function
 307              	conf_general_read_eeprom_var_hw:
 308              	.LFB257:
 309              		.loc 1 95 0
 310              		.cfi_startproc
 311              		@ args = 0, pretend = 0, frame = 0
 312              		@ frame_needed = 0, uses_anonymous_args = 0
 313              		@ link register save eliminated.
 314              	.LVL33:
 315              		.loc 1 96 0
 316 0000 40F6B832 		movw	r2, #3000
 317 0004 FFF7FEBF 		b	read_eeprom_var
 318              	.LVL34:
 319              		.cfi_endproc
 320              	.LFE257:
 321              		.size	conf_general_read_eeprom_var_hw, .-conf_general_read_eeprom_var_hw
 322              		.section	.text.conf_general_read_eeprom_var_custom,"ax",%progbits
 323              		.align	1
 324              		.p2align 4,,15
 325              		.global	conf_general_read_eeprom_var_custom
 326              		.syntax unified
 327              		.thumb
 328              		.thumb_func
 329              		.fpu fpv4-sp-d16
 330              		.type	conf_general_read_eeprom_var_custom, %function
 331              	conf_general_read_eeprom_var_custom:
 332              	.LFB258:
 333              		.loc 1 111 0
 334              		.cfi_startproc
 335              		@ args = 0, pretend = 0, frame = 0
 336              		@ frame_needed = 0, uses_anonymous_args = 0
 337              		@ link register save eliminated.
 338              	.LVL35:
 339              		.loc 1 112 0
 340 0000 4FF47A62 		mov	r2, #4000
 341 0004 FFF7FEBF 		b	read_eeprom_var
 342              	.LVL36:
ARM GAS  C:\Users\CFAR\AppData\Local\Temp\cc0Op7No.s 			page 7


 343              		.cfi_endproc
 344              	.LFE258:
 345              		.size	conf_general_read_eeprom_var_custom, .-conf_general_read_eeprom_var_custom
 346              		.section	.text.conf_general_store_eeprom_var_hw,"ax",%progbits
 347              		.align	1
 348              		.p2align 4,,15
 349              		.global	conf_general_store_eeprom_var_hw
 350              		.syntax unified
 351              		.thumb
 352              		.thumb_func
 353              		.fpu fpv4-sp-d16
 354              		.type	conf_general_store_eeprom_var_hw, %function
 355              	conf_general_store_eeprom_var_hw:
 356              	.LFB259:
 357              		.loc 1 127 0
 358              		.cfi_startproc
 359              		@ args = 0, pretend = 0, frame = 0
 360              		@ frame_needed = 0, uses_anonymous_args = 0
 361              		@ link register save eliminated.
 362              	.LVL37:
 363              		.loc 1 128 0
 364 0000 40F6B832 		movw	r2, #3000
 365 0004 FFF7FEBF 		b	store_eeprom_var
 366              	.LVL38:
 367              		.cfi_endproc
 368              	.LFE259:
 369              		.size	conf_general_store_eeprom_var_hw, .-conf_general_store_eeprom_var_hw
 370              		.section	.text.conf_general_store_eeprom_var_custom,"ax",%progbits
 371              		.align	1
 372              		.p2align 4,,15
 373              		.global	conf_general_store_eeprom_var_custom
 374              		.syntax unified
 375              		.thumb
 376              		.thumb_func
 377              		.fpu fpv4-sp-d16
 378              		.type	conf_general_store_eeprom_var_custom, %function
 379              	conf_general_store_eeprom_var_custom:
 380              	.LFB260:
 381              		.loc 1 143 0
 382              		.cfi_startproc
 383              		@ args = 0, pretend = 0, frame = 0
 384              		@ frame_needed = 0, uses_anonymous_args = 0
 385              		@ link register save eliminated.
 386              	.LVL39:
 387              		.loc 1 144 0
 388 0000 4FF47A62 		mov	r2, #4000
 389 0004 FFF7FEBF 		b	store_eeprom_var
 390              	.LVL40:
 391              		.cfi_endproc
 392              	.LFE260:
 393              		.size	conf_general_store_eeprom_var_custom, .-conf_general_store_eeprom_var_custom
 394              		.section	.text.conf_general_read_app_configuration,"ax",%progbits
 395              		.align	1
 396              		.p2align 4,,15
 397              		.global	conf_general_read_app_configuration
 398              		.syntax unified
 399              		.thumb
ARM GAS  C:\Users\CFAR\AppData\Local\Temp\cc0Op7No.s 			page 8


 400              		.thumb_func
 401              		.fpu fpv4-sp-d16
 402              		.type	conf_general_read_app_configuration, %function
 403              	conf_general_read_app_configuration:
 404              	.LFB263:
 405              		.loc 1 198 0
 406              		.cfi_startproc
 407              		@ args = 0, pretend = 0, frame = 8
 408              		@ frame_needed = 0, uses_anonymous_args = 0
 409              	.LVL41:
 410 0000 F0B5     		push	{r4, r5, r6, r7, lr}
 411              		.cfi_def_cfa_offset 20
 412              		.cfi_offset 4, -20
 413              		.cfi_offset 5, -16
 414              		.cfi_offset 6, -12
 415              		.cfi_offset 7, -8
 416              		.cfi_offset 14, -4
 417 0002 0746     		mov	r7, r0
 418              	.LVL42:
 419 0004 83B0     		sub	sp, sp, #12
 420              		.cfi_def_cfa_offset 32
 421 0006 451C     		adds	r5, r0, #1
 422              		.loc 1 198 0
 423 0008 4FF4FA64 		mov	r4, #2000
 424              	.LBB17:
 425              		.loc 1 203 0
 426 000c 40F6AA06 		movw	r6, #2218
 427 0010 09E0     		b	.L30
 428              	.LVL43:
 429              	.L34:
 430              		.loc 1 205 0
 431 0012 BDF80630 		ldrh	r3, [sp, #6]
 432              		.loc 1 203 0
 433 0016 B442     		cmp	r4, r6
 434              		.loc 1 205 0
 435 0018 4FEA1322 		lsr	r2, r3, #8
 436 001c 05F8012C 		strb	r2, [r5, #-1]
 437              		.loc 1 206 0
 438 0020 05F8023B 		strb	r3, [r5], #2
 439              		.loc 1 203 0
 440 0024 0BD0     		beq	.L28
 441              	.L30:
 442              		.loc 1 204 0
 443 0026 2046     		mov	r0, r4
 444 0028 0DF10601 		add	r1, sp, #6
 445 002c FFF7FEFF 		bl	EE_ReadVariable
 446              	.LVL44:
 447 0030 0134     		adds	r4, r4, #1
 448 0032 A4B2     		uxth	r4, r4
 449 0034 0028     		cmp	r0, #0
 450 0036 ECD0     		beq	.L34
 451              	.LVL45:
 452              	.LBE17:
 453              		.loc 1 215 0
 454 0038 3846     		mov	r0, r7
 455 003a FFF7FEFF 		bl	confgenerator_set_defaults_appconf
 456              	.LVL46:
ARM GAS  C:\Users\CFAR\AppData\Local\Temp\cc0Op7No.s 			page 9


 457              	.L28:
 458              		.loc 1 217 0
 459 003e 03B0     		add	sp, sp, #12
 460              		.cfi_def_cfa_offset 20
 461              		@ sp needed
 462 0040 F0BD     		pop	{r4, r5, r6, r7, pc}
 463              		.cfi_endproc
 464              	.LFE263:
 465              		.size	conf_general_read_app_configuration, .-conf_general_read_app_configuration
 466 0042 00BF     		.section	.text.conf_general_store_app_configuration,"ax",%progbits
 467              		.align	1
 468              		.p2align 4,,15
 469              		.global	conf_general_store_app_configuration
 470              		.syntax unified
 471              		.thumb
 472              		.thumb_func
 473              		.fpu fpv4-sp-d16
 474              		.type	conf_general_store_app_configuration, %function
 475              	conf_general_store_app_configuration:
 476              	.LFB264:
 477              		.loc 1 225 0
 478              		.cfi_startproc
 479              		@ args = 0, pretend = 0, frame = 0
 480              		@ frame_needed = 0, uses_anonymous_args = 0
 481              	.LVL47:
 482 0000 F8B5     		push	{r3, r4, r5, r6, r7, lr}
 483              		.cfi_def_cfa_offset 24
 484              		.cfi_offset 3, -24
 485              		.cfi_offset 4, -20
 486              		.cfi_offset 5, -16
 487              		.cfi_offset 6, -12
 488              		.cfi_offset 7, -8
 489              		.cfi_offset 14, -4
 490              		.loc 1 225 0
 491 0002 0546     		mov	r5, r0
 492              		.loc 1 226 0
 493 0004 FFF7FEFF 		bl	mc_interface_get_motor_thread
 494              	.LVL48:
 495 0008 0746     		mov	r7, r0
 496              	.LVL49:
 497              		.loc 1 228 0
 498 000a 0120     		movs	r0, #1
 499              	.LVL50:
 500 000c FFF7FEFF 		bl	mc_interface_select_motor_thread
 501              	.LVL51:
 502              		.loc 1 229 0
 503 0010 FFF7FEFF 		bl	mc_interface_unlock
 504              	.LVL52:
 505              		.loc 1 230 0
 506 0014 FFF7FEFF 		bl	mc_interface_release_motor
 507              	.LVL53:
 508              		.loc 1 231 0
 509 0018 FFF7FEFF 		bl	mc_interface_lock
 510              	.LVL54:
 511              		.loc 1 233 0
 512 001c 0220     		movs	r0, #2
 513 001e FFF7FEFF 		bl	mc_interface_select_motor_thread
ARM GAS  C:\Users\CFAR\AppData\Local\Temp\cc0Op7No.s 			page 10


 514              	.LVL55:
 515              		.loc 1 234 0
 516 0022 FFF7FEFF 		bl	mc_interface_unlock
 517              	.LVL56:
 518              		.loc 1 235 0
 519 0026 FFF7FEFF 		bl	mc_interface_release_motor
 520              	.LVL57:
 521              		.loc 1 236 0
 522 002a FFF7FEFF 		bl	mc_interface_lock
 523              	.LVL58:
 524              		.loc 1 238 0
 525 002e FFF7FEFF 		bl	utils_sys_lock_cnt
 526              	.LVL59:
 527              		.loc 1 240 0
 528 0032 FFF7FEFF 		bl	timeout_configure_IWDT_slowest
 529              	.LVL60:
 530              		.loc 1 246 0
 531 0036 FFF7FEFF 		bl	FLASH_Unlock
 532              	.LVL61:
 533              		.loc 1 247 0
 534 003a F220     		movs	r0, #242
 535 003c FFF7FEFF 		bl	FLASH_ClearFlag
 536              	.LVL62:
 537 0040 0135     		adds	r5, r5, #1
 538              	.LVL63:
 539 0042 4FF4FA64 		mov	r4, #2000
 540              	.LBB18:
 541              		.loc 1 250 0
 542 0046 40F6AA06 		movw	r6, #2218
 543 004a 01E0     		b	.L37
 544              	.LVL64:
 545              	.L42:
 546              		.loc 1 250 0 is_stmt 0 discriminator 2
 547 004c B442     		cmp	r4, r6
 548 004e 27D0     		beq	.L41
 549              	.L37:
 550              		.loc 1 251 0 is_stmt 1
 551 0050 15F8011C 		ldrb	r1, [r5, #-1]	@ zero_extendqisi2
 552              	.LVL65:
 553              		.loc 1 252 0
 554 0054 2B78     		ldrb	r3, [r5]	@ zero_extendqisi2
 555              		.loc 1 254 0
 556 0056 2046     		mov	r0, r4
 557 0058 43EA0121 		orr	r1, r3, r1, lsl #8
 558              	.LVL66:
 559 005c FFF7FEFF 		bl	EE_WriteVariable
 560              	.LVL67:
 561 0060 0134     		adds	r4, r4, #1
 562 0062 0928     		cmp	r0, #9
 563 0064 A4B2     		uxth	r4, r4
 564 0066 05F10205 		add	r5, r5, #2
 565 006a EFD0     		beq	.L42
 566              		.loc 1 255 0
 567 006c 0024     		movs	r4, #0
 568              	.L36:
 569              	.LVL68:
 570              	.LBE18:
ARM GAS  C:\Users\CFAR\AppData\Local\Temp\cc0Op7No.s 			page 11


 571              		.loc 1 259 0
 572 006e FFF7FEFF 		bl	FLASH_Lock
 573              	.LVL69:
 574              		.loc 1 261 0
 575 0072 FFF7FEFF 		bl	timeout_configure_IWDT
 576              	.LVL70:
 577              		.loc 1 263 0
 578 0076 4FF47A70 		mov	r0, #1000
 579 007a FFF7FEFF 		bl	chThdSleep
 580              	.LVL71:
 581              		.loc 1 265 0
 582 007e 0120     		movs	r0, #1
 583 0080 FFF7FEFF 		bl	mc_interface_select_motor_thread
 584              	.LVL72:
 585              		.loc 1 266 0
 586 0084 FFF7FEFF 		bl	mc_interface_unlock
 587              	.LVL73:
 588              		.loc 1 267 0
 589 0088 0220     		movs	r0, #2
 590 008a FFF7FEFF 		bl	mc_interface_select_motor_thread
 591              	.LVL74:
 592              		.loc 1 268 0
 593 008e FFF7FEFF 		bl	mc_interface_unlock
 594              	.LVL75:
 595              		.loc 1 270 0
 596 0092 FFF7FEFF 		bl	utils_sys_unlock_cnt
 597              	.LVL76:
 598              		.loc 1 272 0
 599 0096 3846     		mov	r0, r7
 600 0098 FFF7FEFF 		bl	mc_interface_select_motor_thread
 601              	.LVL77:
 602              		.loc 1 275 0
 603 009c 2046     		mov	r0, r4
 604 009e F8BD     		pop	{r3, r4, r5, r6, r7, pc}
 605              	.LVL78:
 606              	.L41:
 607              		.loc 1 242 0
 608 00a0 0124     		movs	r4, #1
 609              	.LBB19:
 610 00a2 E4E7     		b	.L36
 611              	.LBE19:
 612              		.cfi_endproc
 613              	.LFE264:
 614              		.size	conf_general_store_app_configuration, .-conf_general_store_app_configuration
 615              		.section	.text.conf_general_read_mc_configuration,"ax",%progbits
 616              		.align	1
 617              		.p2align 4,,15
 618              		.global	conf_general_read_mc_configuration
 619              		.syntax unified
 620              		.thumb
 621              		.thumb_func
 622              		.fpu fpv4-sp-d16
 623              		.type	conf_general_read_mc_configuration, %function
 624              	conf_general_read_mc_configuration:
 625              	.LFB265:
 626              		.loc 1 283 0
 627              		.cfi_startproc
ARM GAS  C:\Users\CFAR\AppData\Local\Temp\cc0Op7No.s 			page 12


 628              		@ args = 0, pretend = 0, frame = 8
 629              		@ frame_needed = 0, uses_anonymous_args = 0
 630              	.LVL79:
 631 0000 F0B5     		push	{r4, r5, r6, r7, lr}
 632              		.cfi_def_cfa_offset 20
 633              		.cfi_offset 4, -20
 634              		.cfi_offset 5, -16
 635              		.cfi_offset 6, -12
 636              		.cfi_offset 7, -8
 637              		.cfi_offset 14, -4
 638              		.loc 1 287 0
 639 0002 0029     		cmp	r1, #0
 640 0004 41F28836 		movw	r6, #5000
 641              		.loc 1 283 0
 642 0008 83B0     		sub	sp, sp, #12
 643              		.cfi_def_cfa_offset 32
 644              		.loc 1 283 0
 645 000a 0746     		mov	r7, r0
 646              	.LVL80:
 647              		.loc 1 287 0
 648 000c 08BF     		it	eq
 649 000e 4FF47A76 		moveq	r6, #1000
 650              	.LVL81:
 651 0012 0546     		mov	r5, r0
 652              	.LBB20:
 653              		.loc 1 289 0
 654 0014 0024     		movs	r4, #0
 655 0016 0AE0     		b	.L46
 656              	.LVL82:
 657              	.L51:
 658              		.loc 1 291 0
 659 0018 BDF80630 		ldrh	r3, [sp, #6]
 660 001c 1A0A     		lsrs	r2, r3, #8
 661 001e 07F81420 		strb	r2, [r7, r4, lsl #1]
 662              		.loc 1 289 0
 663 0022 0134     		adds	r4, r4, #1
 664              	.LVL83:
 665 0024 FA2C     		cmp	r4, #250
 666              		.loc 1 292 0
 667 0026 6B70     		strb	r3, [r5, #1]
 668 0028 05F10205 		add	r5, r5, #2
 669              		.loc 1 289 0
 670 002c 0AD0     		beq	.L43
 671              	.LVL84:
 672              	.L46:
 673              		.loc 1 290 0
 674 002e 3019     		adds	r0, r6, r4
 675 0030 80B2     		uxth	r0, r0
 676 0032 0DF10601 		add	r1, sp, #6
 677 0036 FFF7FEFF 		bl	EE_ReadVariable
 678              	.LVL85:
 679 003a 0028     		cmp	r0, #0
 680 003c ECD0     		beq	.L51
 681              	.LVL86:
 682              	.LBE20:
 683              		.loc 1 300 0
 684 003e 3846     		mov	r0, r7
ARM GAS  C:\Users\CFAR\AppData\Local\Temp\cc0Op7No.s 			page 13


 685 0040 FFF7FEFF 		bl	confgenerator_set_defaults_mcconf
 686              	.LVL87:
 687              	.L43:
 688              		.loc 1 302 0
 689 0044 03B0     		add	sp, sp, #12
 690              		.cfi_def_cfa_offset 20
 691              		@ sp needed
 692 0046 F0BD     		pop	{r4, r5, r6, r7, pc}
 693              		.cfi_endproc
 694              	.LFE265:
 695              		.size	conf_general_read_mc_configuration, .-conf_general_read_mc_configuration
 696              		.section	.text.conf_general_store_mc_configuration,"ax",%progbits
 697              		.align	1
 698              		.p2align 4,,15
 699              		.global	conf_general_store_mc_configuration
 700              		.syntax unified
 701              		.thumb
 702              		.thumb_func
 703              		.fpu fpv4-sp-d16
 704              		.type	conf_general_store_mc_configuration, %function
 705              	conf_general_store_mc_configuration:
 706              	.LFB266:
 707              		.loc 1 310 0
 708              		.cfi_startproc
 709              		@ args = 0, pretend = 0, frame = 0
 710              		@ frame_needed = 0, uses_anonymous_args = 0
 711              	.LVL88:
 712 0000 2DE9F041 		push	{r4, r5, r6, r7, r8, lr}
 713              		.cfi_def_cfa_offset 24
 714              		.cfi_offset 4, -24
 715              		.cfi_offset 5, -20
 716              		.cfi_offset 6, -16
 717              		.cfi_offset 7, -12
 718              		.cfi_offset 8, -8
 719              		.cfi_offset 14, -4
 720              		.loc 1 310 0
 721 0004 0C46     		mov	r4, r1
 722 0006 0746     		mov	r7, r0
 723              		.loc 1 311 0
 724 0008 FFF7FEFF 		bl	mc_interface_get_motor_thread
 725              	.LVL89:
 726 000c 8046     		mov	r8, r0
 727              	.LVL90:
 728              		.loc 1 313 0
 729 000e 0120     		movs	r0, #1
 730              	.LVL91:
 731 0010 FFF7FEFF 		bl	mc_interface_select_motor_thread
 732              	.LVL92:
 733              		.loc 1 314 0
 734 0014 FFF7FEFF 		bl	mc_interface_unlock
 735              	.LVL93:
 736              		.loc 1 315 0
 737 0018 FFF7FEFF 		bl	mc_interface_release_motor
 738              	.LVL94:
 739              		.loc 1 316 0
 740 001c FFF7FEFF 		bl	mc_interface_lock
 741              	.LVL95:
ARM GAS  C:\Users\CFAR\AppData\Local\Temp\cc0Op7No.s 			page 14


 742              		.loc 1 318 0
 743 0020 0220     		movs	r0, #2
 744 0022 FFF7FEFF 		bl	mc_interface_select_motor_thread
 745              	.LVL96:
 746              		.loc 1 319 0
 747 0026 FFF7FEFF 		bl	mc_interface_unlock
 748              	.LVL97:
 749              		.loc 1 320 0
 750 002a FFF7FEFF 		bl	mc_interface_release_motor
 751              	.LVL98:
 752              		.loc 1 321 0
 753 002e FFF7FEFF 		bl	mc_interface_lock
 754              	.LVL99:
 755              		.loc 1 323 0
 756 0032 FFF7FEFF 		bl	utils_sys_lock_cnt
 757              	.LVL100:
 758              		.loc 1 325 0
 759 0036 FFF7FEFF 		bl	timeout_configure_IWDT_slowest
 760              	.LVL101:
 761              		.loc 1 329 0
 762 003a 002C     		cmp	r4, #0
 763 003c 41F28836 		movw	r6, #5000
 764 0040 08BF     		it	eq
 765 0042 4FF47A76 		moveq	r6, #1000
 766              		.loc 1 331 0
 767 0046 FFF7FEFF 		bl	FLASH_Unlock
 768              	.LVL102:
 769              		.loc 1 332 0
 770 004a F220     		movs	r0, #242
 771 004c FFF7FEFF 		bl	FLASH_ClearFlag
 772              	.LVL103:
 773 0050 3D46     		mov	r5, r7
 774              	.LBB21:
 775              		.loc 1 335 0
 776 0052 0024     		movs	r4, #0
 777 0054 01E0     		b	.L55
 778              	.LVL104:
 779              	.L61:
 780              		.loc 1 335 0 is_stmt 0 discriminator 2
 781 0056 FA2C     		cmp	r4, #250
 782 0058 29D0     		beq	.L60
 783              	.LVL105:
 784              	.L55:
 785              	.LBB22:
 786              		.loc 1 336 0 is_stmt 1
 787 005a 17F81410 		ldrb	r1, [r7, r4, lsl #1]	@ zero_extendqisi2
 788              	.LVL106:
 789              		.loc 1 337 0
 790 005e 6B78     		ldrb	r3, [r5, #1]	@ zero_extendqisi2
 791              		.loc 1 339 0
 792 0060 3019     		adds	r0, r6, r4
 793 0062 43EA0121 		orr	r1, r3, r1, lsl #8
 794              	.LVL107:
 795 0066 80B2     		uxth	r0, r0
 796 0068 FFF7FEFF 		bl	EE_WriteVariable
 797              	.LVL108:
 798 006c 0928     		cmp	r0, #9
ARM GAS  C:\Users\CFAR\AppData\Local\Temp\cc0Op7No.s 			page 15


 799              	.LBE22:
 800              		.loc 1 335 0
 801 006e 04F10104 		add	r4, r4, #1
 802              	.LVL109:
 803 0072 05F10205 		add	r5, r5, #2
 804              	.LBB23:
 805              		.loc 1 339 0
 806 0076 EED0     		beq	.L61
 807              		.loc 1 340 0
 808 0078 0024     		movs	r4, #0
 809              	.LVL110:
 810              	.L54:
 811              	.LBE23:
 812              	.LBE21:
 813              		.loc 1 344 0
 814 007a FFF7FEFF 		bl	FLASH_Lock
 815              	.LVL111:
 816              		.loc 1 346 0
 817 007e FFF7FEFF 		bl	timeout_configure_IWDT
 818              	.LVL112:
 819              		.loc 1 348 0
 820 0082 4FF47A70 		mov	r0, #1000
 821 0086 FFF7FEFF 		bl	chThdSleep
 822              	.LVL113:
 823              		.loc 1 350 0
 824 008a 0120     		movs	r0, #1
 825 008c FFF7FEFF 		bl	mc_interface_select_motor_thread
 826              	.LVL114:
 827              		.loc 1 351 0
 828 0090 FFF7FEFF 		bl	mc_interface_unlock
 829              	.LVL115:
 830              		.loc 1 352 0
 831 0094 0220     		movs	r0, #2
 832 0096 FFF7FEFF 		bl	mc_interface_select_motor_thread
 833              	.LVL116:
 834              		.loc 1 353 0
 835 009a FFF7FEFF 		bl	mc_interface_unlock
 836              	.LVL117:
 837              		.loc 1 355 0
 838 009e FFF7FEFF 		bl	utils_sys_unlock_cnt
 839              	.LVL118:
 840              		.loc 1 357 0
 841 00a2 4046     		mov	r0, r8
 842 00a4 FFF7FEFF 		bl	mc_interface_select_motor_thread
 843              	.LVL119:
 844              		.loc 1 360 0
 845 00a8 2046     		mov	r0, r4
 846 00aa BDE8F081 		pop	{r4, r5, r6, r7, r8, pc}
 847              	.LVL120:
 848              	.L60:
 849              		.loc 1 327 0
 850 00ae 0124     		movs	r4, #1
 851              	.LVL121:
 852              	.LBB24:
 853 00b0 E3E7     		b	.L54
 854              	.LBE24:
 855              		.cfi_endproc
ARM GAS  C:\Users\CFAR\AppData\Local\Temp\cc0Op7No.s 			page 16


 856              	.LFE266:
 857              		.size	conf_general_store_mc_configuration, .-conf_general_store_mc_configuration
 858 00b2 00BF     		.section	.text.conf_general_detect_motor_param,"ax",%progbits
 859              		.align	1
 860              		.p2align 4,,15
 861              		.global	conf_general_detect_motor_param
 862              		.syntax unified
 863              		.thumb
 864              		.thumb_func
 865              		.fpu fpv4-sp-d16
 866              		.type	conf_general_detect_motor_param, %function
 867              	conf_general_detect_motor_param:
 868              	.LFB267:
 869              		.loc 1 363 0
 870              		.cfi_startproc
 871              		@ args = 0, pretend = 0, frame = 8
 872              		@ frame_needed = 0, uses_anonymous_args = 0
 873              	.LVL122:
 874 0000 2DE9F04F 		push	{r4, r5, r6, r7, r8, r9, r10, fp, lr}
 875              		.cfi_def_cfa_offset 36
 876              		.cfi_offset 4, -36
 877              		.cfi_offset 5, -32
 878              		.cfi_offset 6, -28
 879              		.cfi_offset 7, -24
 880              		.cfi_offset 8, -20
 881              		.cfi_offset 9, -16
 882              		.cfi_offset 10, -12
 883              		.cfi_offset 11, -8
 884              		.cfi_offset 14, -4
 885 0004 2DED088B 		vpush.64	{d8, d9, d10, d11}
 886              		.cfi_def_cfa_offset 68
 887              		.cfi_offset 80, -68
 888              		.cfi_offset 81, -64
 889              		.cfi_offset 82, -60
 890              		.cfi_offset 83, -56
 891              		.cfi_offset 84, -52
 892              		.cfi_offset 85, -48
 893              		.cfi_offset 86, -44
 894              		.cfi_offset 87, -40
 895 0008 83B0     		sub	sp, sp, #12
 896              		.cfi_def_cfa_offset 80
 897              		.loc 1 363 0
 898 000a F0EE609A 		vmov.f32	s19, s1
 899 000e B0EE40AA 		vmov.f32	s20, s0
 900 0012 B0EE419A 		vmov.f32	s18, s2
 901 0016 0193     		str	r3, [sp, #4]
 902 0018 0091     		str	r1, [sp]
 903 001a 9246     		mov	r10, r2
 904 001c 8046     		mov	r8, r0
 905              		.loc 1 368 0
 906 001e FFF7FEFF 		bl	mempools_alloc_mcconf
 907              	.LVL123:
 908 0022 0646     		mov	r6, r0
 909              	.LVL124:
 910              		.loc 1 369 0
 911 0024 FFF7FEFF 		bl	mempools_alloc_mcconf
 912              	.LVL125:
ARM GAS  C:\Users\CFAR\AppData\Local\Temp\cc0Op7No.s 			page 17


 913 0028 0746     		mov	r7, r0
 914              	.LVL126:
 915              		.loc 1 371 0
 916 002a FFF7FEFF 		bl	mc_interface_get_configuration
 917              	.LVL127:
 918 002e 4FF4FA72 		mov	r2, #500
 919 0032 0146     		mov	r1, r0
 920 0034 3046     		mov	r0, r6
 921 0036 FFF7FEFF 		bl	memcpy
 922              	.LVL128:
 923              		.loc 1 372 0
 924 003a 3146     		mov	r1, r6
 925 003c 4FF4FA72 		mov	r2, #500
 926 0040 3846     		mov	r0, r7
 927 0042 FFF7FEFF 		bl	memcpy
 928              	.LVL129:
 929              		.loc 1 377 0
 930 0046 4FF07E53 		mov	r3, #1065353216
 931              		.loc 1 379 0
 932 004a C648     		ldr	r0, .L123
 933              		.loc 1 380 0
 934 004c C649     		ldr	r1, .L123+4
 935              		.loc 1 381 0
 936 004e C74A     		ldr	r2, .L123+8
 937              		.loc 1 377 0
 938 0050 C6F89830 		str	r3, [r6, #152]	@ float
 939              		.loc 1 374 0
 940 0054 0023     		movs	r3, #0
 941              		.loc 1 379 0
 942 0056 C6F8A000 		str	r0, [r6, #160]	@ float
 943              		.loc 1 378 0
 944 005a C6ED229A 		vstr.32	s19, [r6, #136]
 945              		.loc 1 380 0
 946 005e C6F89410 		str	r1, [r6, #148]	@ float
 947              		.loc 1 381 0
 948 0062 C6F88C20 		str	r2, [r6, #140]	@ float
 949              		.loc 1 374 0
 950 0066 B370     		strb	r3, [r6, #2]
 951              		.loc 1 375 0
 952 0068 F370     		strb	r3, [r6, #3]
 953              		.loc 1 376 0
 954 006a 7370     		strb	r3, [r6, #1]
 955              		.loc 1 382 0
 956 006c 86F8BD31 		strb	r3, [r6, #445]
 957              		.loc 1 383 0
 958 0070 3046     		mov	r0, r6
 959 0072 FFF7FEFF 		bl	mc_interface_set_configuration
 960              	.LVL130:
 961 0076 4FF4FA74 		mov	r4, #500
 962 007a 04E0     		b	.L64
 963              	.LVL131:
 964              	.L112:
 965              	.LBB25:
 966              		.loc 1 390 0 discriminator 2
 967 007c 6420     		movs	r0, #100
 968 007e FFF7FEFF 		bl	chThdSleep
 969              	.LVL132:
ARM GAS  C:\Users\CFAR\AppData\Local\Temp\cc0Op7No.s 			page 18


 970              		.loc 1 386 0 discriminator 2
 971 0082 013C     		subs	r4, r4, #1
 972              	.LVL133:
 973 0084 03D0     		beq	.L63
 974              	.LVL134:
 975              	.L64:
 976              		.loc 1 387 0
 977 0086 FFF7FEFF 		bl	mc_interface_get_fault
 978              	.LVL135:
 979 008a 0028     		cmp	r0, #0
 980 008c F6D1     		bne	.L112
 981              	.LVL136:
 982              	.L63:
 983              	.LBE25:
 984              		.loc 1 395 0
 985 008e 42F21070 		movw	r0, #10000
 986 0092 FFF7FEFF 		bl	chThdSleep
 987              	.LVL137:
 988              		.loc 1 398 0
 989 0096 FFF7FEFF 		bl	timeout_get_timeout_msec
 990              	.LVL138:
 991 009a 8146     		mov	r9, r0
 992              	.LVL139:
 993              		.loc 1 399 0
 994 009c FFF7FEFF 		bl	timeout_get_brake_current
 995              	.LVL140:
 996 00a0 F0EE40AA 		vmov.f32	s21, s0
 997              	.LVL141:
 998              		.loc 1 400 0
 999 00a4 FFF7FEFF 		bl	timeout_reset
 1000              	.LVL142:
 1001              		.loc 1 401 0
 1002 00a8 9FEDB10A 		vldr.32	s0, .L123+12
 1003 00ac 4EF66020 		movw	r0, #60000
 1004 00b0 FFF7FEFF 		bl	timeout_configure
 1005              	.LVL143:
 1006              		.loc 1 403 0
 1007 00b4 FFF7FEFF 		bl	mc_interface_lock
 1008              	.LVL144:
 1009              		.loc 1 405 0
 1010 00b8 FFF7FEFF 		bl	mc_interface_lock_override_once
 1011              	.LVL145:
 1012              		.loc 1 406 0
 1013 00bc B0EE4A0A 		vmov.f32	s0, s20
 1014 00c0 FFF7FEFF 		bl	mc_interface_set_current
 1015              	.LVL146:
 1016              	.LBB26:
 1017              		.loc 1 410 0
 1018 00c4 4FF0000B 		mov	fp, #0
 1019              	.LBB27:
 1020              		.loc 1 424 0
 1021 00c8 B1EE00BA 		vmov.f32	s22, #4.0e+0
 1022              		.loc 1 441 0
 1023 00cc F5EE008A 		vmov.f32	s17, #2.5e-1
 1024              	.LVL147:
 1025              	.L77:
 1026              		.loc 1 411 0
ARM GAS  C:\Users\CFAR\AppData\Local\Temp\cc0Op7No.s 			page 19


 1027 00d0 BBF1010F 		cmp	fp, #1
 1028 00d4 00F01F81 		beq	.L113
 1029              		.loc 1 421 0
 1030 00d8 BBF1020F 		cmp	fp, #2
 1031 00dc 00F03681 		beq	.L114
 1032              	.L66:
 1033              	.LBE27:
 1034              		.loc 1 410 0
 1035 00e0 0025     		movs	r5, #0
 1036 00e2 2C46     		mov	r4, r5
 1037              	.LBB28:
 1038              		.loc 1 437 0
 1039 00e4 B6EE008A 		vmov.f32	s16, #5.0e-1
 1040              	.L67:
 1041              	.LVL148:
 1042 00e8 FFF7FEFF 		bl	mc_interface_get_duty_cycle_now
 1043              	.LVL149:
 1044 00ec B4EEC80A 		vcmpe.f32	s0, s16
 1045 00f0 F1EE10FA 		vmrs	APSR_nzcv, FPSCR
 1046              		.loc 1 438 0
 1047 00f4 4FF00A00 		mov	r0, #10
 1048              		.loc 1 439 0
 1049 00f8 04F10104 		add	r4, r4, #1
 1050              	.LVL150:
 1051              		.loc 1 437 0
 1052 00fc 40F1FC80 		bpl	.L115
 1053              		.loc 1 438 0
 1054 0100 FFF7FEFF 		bl	chThdSleep
 1055              	.LVL151:
 1056              		.loc 1 441 0
 1057 0104 FFF7FEFF 		bl	mc_interface_get_duty_cycle_now
 1058              	.LVL152:
 1059 0108 B4EEE80A 		vcmpe.f32	s0, s17
 1060 010c F1EE10FA 		vmrs	APSR_nzcv, FPSCR
 1061 0110 0CDB     		blt	.L107
 1062              	.LVL153:
 1063              		.loc 1 441 0 is_stmt 0 discriminator 1
 1064 0112 002D     		cmp	r5, #0
 1065 0114 00F0CE80 		beq	.L116
 1066              		.loc 1 446 0 is_stmt 1
 1067 0118 B4F5FA6F 		cmp	r4, #2000
 1068 011c 04DD     		ble	.L91
 1069              	.LVL154:
 1070              	.L71:
 1071              		.loc 1 451 0
 1072 011e 41F28833 		movw	r3, #5000
 1073 0122 9C42     		cmp	r4, r3
 1074 0124 00F0CE80 		beq	.L74
 1075              	.L91:
 1076              	.LBE28:
 1077              		.loc 1 410 0
 1078 0128 0125     		movs	r5, #1
 1079 012a DDE7     		b	.L67
 1080              	.LVL155:
 1081              	.L107:
 1082              	.LBB29:
 1083              		.loc 1 446 0
ARM GAS  C:\Users\CFAR\AppData\Local\Temp\cc0Op7No.s 			page 20


 1084 012c B4F5FA6F 		cmp	r4, #2000
 1085 0130 DADD     		ble	.L67
 1086              		.loc 1 446 0 is_stmt 0 discriminator 1
 1087 0132 002D     		cmp	r5, #0
 1088 0134 F3D1     		bne	.L71
 1089              	.LVL156:
 1090              	.LBE29:
 1091              		.loc 1 410 0 is_stmt 1 discriminator 2
 1092 0136 0BF1010B 		add	fp, fp, #1
 1093              	.LVL157:
 1094 013a BBF1030F 		cmp	fp, #3
 1095 013e C7D1     		bne	.L77
 1096              	.LVL158:
 1097              	.L122:
 1098              	.LBE26:
 1099              		.loc 1 462 0
 1100 0140 002D     		cmp	r5, #0
 1101 0142 00F0BF80 		beq	.L74
 1102              	.LVL159:
 1103              	.L76:
 1104              		.loc 1 475 0
 1105 0146 FFF7FEFF 		bl	mcpwm_reset_hall_detect_table
 1106              	.LVL160:
 1107              		.loc 1 478 0
 1108 014a FFF7FEFF 		bl	mc_interface_lock_override_once
 1109              	.LVL161:
 1110              		.loc 1 479 0
 1111 014e B6EE000A 		vmov.f32	s0, #5.0e-1
 1112 0152 FFF7FEFF 		bl	mc_interface_set_duty
 1113              	.LVL162:
 1114              		.loc 1 480 0
 1115 0156 4FF47A60 		mov	r0, #4000
 1116 015a FFF7FEFF 		bl	chThdSleep
 1117              	.LVL163:
 1118              		.loc 1 483 0
 1119 015e FFF7FEFF 		bl	mc_interface_lock_override_once
 1120              	.LVL164:
 1121              		.loc 1 484 0
 1122 0162 9FED830A 		vldr.32	s0, .L123+12
 1123 0166 FFF7FEFF 		bl	mc_interface_set_current
 1124              	.LVL165:
 1125              		.loc 1 485 0
 1126 016a 0020     		movs	r0, #0
 1127 016c FFF7FEFF 		bl	mc_interface_get_tachometer_value
 1128              	.LVL166:
 1129 0170 4FF4FA64 		mov	r4, #2000
 1130 0174 0546     		mov	r5, r0
 1131              	.LVL167:
 1132 0176 04E0     		b	.L80
 1133              	.LVL168:
 1134              	.L118:
 1135              	.LBB34:
 1136              		.loc 1 488 0
 1137 0178 FFF7FEFF 		bl	chThdSleep
 1138              	.LVL169:
 1139              		.loc 1 486 0
 1140 017c 013C     		subs	r4, r4, #1
ARM GAS  C:\Users\CFAR\AppData\Local\Temp\cc0Op7No.s 			page 21


 1141              	.LVL170:
 1142 017e 00F0C780 		beq	.L117
 1143              	.LVL171:
 1144              	.L80:
 1145              		.loc 1 487 0
 1146 0182 0020     		movs	r0, #0
 1147 0184 FFF7FEFF 		bl	mc_interface_get_tachometer_value
 1148              	.LVL172:
 1149 0188 431B     		subs	r3, r0, r5
 1150 018a 022B     		cmp	r3, #2
 1151              		.loc 1 488 0
 1152 018c 4FF00A00 		mov	r0, #10
 1153              		.loc 1 487 0
 1154 0190 F2DD     		ble	.L118
 1155              		.loc 1 490 0
 1156 0192 4FF0020B 		mov	fp, #2
 1157              	.LVL173:
 1158              	.L79:
 1159              	.LBE34:
 1160              		.loc 1 496 0
 1161 0196 FFF7FEFF 		bl	mcpwm_read_reset_avg_cycle_integrator
 1162              	.LVL174:
 1163              		.loc 1 497 0
 1164 019a 0020     		movs	r0, #0
 1165 019c FFF7FEFF 		bl	mc_interface_get_tachometer_value
 1166              	.LVL175:
 1167 01a0 40F6B834 		movw	r4, #3000
 1168 01a4 0546     		mov	r5, r0
 1169              	.LVL176:
 1170 01a6 03E0     		b	.L82
 1171              	.LVL177:
 1172              	.L119:
 1173              	.LBB35:
 1174              		.loc 1 500 0
 1175 01a8 FFF7FEFF 		bl	chThdSleep
 1176              	.LVL178:
 1177              		.loc 1 498 0
 1178 01ac 013C     		subs	r4, r4, #1
 1179              	.LVL179:
 1180 01ae 09D0     		beq	.L83
 1181              	.LVL180:
 1182              	.L82:
 1183              		.loc 1 499 0
 1184 01b0 0020     		movs	r0, #0
 1185 01b2 FFF7FEFF 		bl	mc_interface_get_tachometer_value
 1186              	.LVL181:
 1187 01b6 431B     		subs	r3, r0, r5
 1188 01b8 312B     		cmp	r3, #49
 1189              		.loc 1 500 0
 1190 01ba 4FF00A00 		mov	r0, #10
 1191              		.loc 1 499 0
 1192 01be F3DD     		ble	.L119
 1193              		.loc 1 502 0
 1194 01c0 0BF1010B 		add	fp, fp, #1
 1195              	.LVL182:
 1196              	.L83:
 1197              	.LBE35:
ARM GAS  C:\Users\CFAR\AppData\Local\Temp\cc0Op7No.s 			page 22


 1198              		.loc 1 508 0
 1199 01c4 5046     		mov	r0, r10
 1200 01c6 FFF7FEFF 		bl	mcpwm_get_hall_detect_result
 1201              	.LVL183:
 1202 01ca 019B     		ldr	r3, [sp, #4]
 1203 01cc 1860     		str	r0, [r3]
 1204              		.loc 1 510 0
 1205 01ce FFF7FEFF 		bl	mcpwm_read_reset_avg_cycle_integrator
 1206              	.LVL184:
 1207 01d2 41F28834 		movw	r4, #5000
 1208 01d6 88ED000A 		vstr.32	s0, [r8]
 1209              	.LVL185:
 1210 01da 03E0     		b	.L86
 1211              	.LVL186:
 1212              	.L120:
 1213              	.LBB36:
 1214              		.loc 1 515 0
 1215 01dc FFF7FEFF 		bl	chThdSleep
 1216              	.LVL187:
 1217              		.loc 1 513 0
 1218 01e0 013C     		subs	r4, r4, #1
 1219              	.LVL188:
 1220 01e2 0AD0     		beq	.L87
 1221              	.LVL189:
 1222              	.L86:
 1223              		.loc 1 514 0
 1224 01e4 FFF7FEFF 		bl	mc_interface_get_duty_cycle_now
 1225              	.LVL190:
 1226 01e8 B4EEC90A 		vcmpe.f32	s0, s18
 1227 01ec F1EE10FA 		vmrs	APSR_nzcv, FPSCR
 1228              		.loc 1 515 0
 1229 01f0 4FF00A00 		mov	r0, #10
 1230              		.loc 1 514 0
 1231 01f4 F2DC     		bgt	.L120
 1232              		.loc 1 517 0
 1233 01f6 0BF1010B 		add	fp, fp, #1
 1234              	.LVL191:
 1235              	.L87:
 1236              	.LBE36:
 1237              		.loc 1 522 0
 1238 01fa FFF7FEFF 		bl	mc_interface_lock_override_once
 1239              	.LVL192:
 1240              		.loc 1 523 0
 1241 01fe B0EE490A 		vmov.f32	s0, s18
 1242 0202 FFF7FEFF 		bl	mc_interface_set_duty
 1243              	.LVL193:
 1244              		.loc 1 526 0
 1245 0206 FFF7FEFF 		bl	mcpwm_read_reset_avg_cycle_integrator
 1246              	.LVL194:
 1247              		.loc 1 527 0
 1248 020a 0020     		movs	r0, #0
 1249 020c FFF7FEFF 		bl	mc_interface_get_tachometer_value
 1250              	.LVL195:
 1251              		.loc 1 529 0
 1252 0210 9FED578A 		vldr.32	s16, .L123+12
 1253              		.loc 1 527 0
 1254 0214 0546     		mov	r5, r0
ARM GAS  C:\Users\CFAR\AppData\Local\Temp\cc0Op7No.s 			page 23


 1255              	.LVL196:
 1256              		.loc 1 528 0
 1257 0216 F0EE488A 		vmov.f32	s17, s16
 1258              		.loc 1 527 0
 1259 021a 40F6B834 		movw	r4, #3000
 1260              	.LBB37:
 1261              		.loc 1 533 0
 1262 021e B7EE009A 		vmov.f32	s18, #1.0e+0
 1263              	.LVL197:
 1264 0222 0AE0     		b	.L89
 1265              	.LVL198:
 1266              	.L121:
 1267              		.loc 1 532 0
 1268 0224 FFF7FEFF 		bl	mc_interface_get_rpm
 1269              	.LVL199:
 1270              		.loc 1 534 0
 1271 0228 0A20     		movs	r0, #10
 1272              		.loc 1 532 0
 1273 022a 78EE808A 		vadd.f32	s17, s17, s0
 1274              	.LVL200:
 1275              		.loc 1 534 0
 1276 022e FFF7FEFF 		bl	chThdSleep
 1277              	.LVL201:
 1278              		.loc 1 530 0
 1279 0232 013C     		subs	r4, r4, #1
 1280              	.LVL202:
 1281              		.loc 1 533 0
 1282 0234 38EE098A 		vadd.f32	s16, s16, s18
 1283              	.LVL203:
 1284              		.loc 1 530 0
 1285 0238 07D0     		beq	.L90
 1286              	.LVL204:
 1287              	.L89:
 1288              		.loc 1 531 0
 1289 023a 0020     		movs	r0, #0
 1290 023c FFF7FEFF 		bl	mc_interface_get_tachometer_value
 1291              	.LVL205:
 1292 0240 401B     		subs	r0, r0, r5
 1293 0242 6328     		cmp	r0, #99
 1294 0244 EEDD     		ble	.L121
 1295              		.loc 1 536 0
 1296 0246 0BF1010B 		add	fp, fp, #1
 1297              	.LVL206:
 1298              	.L90:
 1299              	.LBE37:
 1300              		.loc 1 541 0
 1301 024a FFF7FEFF 		bl	mcpwm_read_reset_avg_cycle_integrator
 1302              	.LVL207:
 1303 024e B0EE409A 		vmov.f32	s18, s0
 1304              	.LVL208:
 1305              		.loc 1 544 0
 1306 0252 FFF7FEFF 		bl	mc_interface_lock_override_once
 1307              	.LVL209:
 1308              		.loc 1 545 0
 1309 0256 FFF7FEFF 		bl	mc_interface_release_motor
 1310              	.LVL210:
 1311              		.loc 1 549 0
ARM GAS  C:\Users\CFAR\AppData\Local\Temp\cc0Op7No.s 			page 24


 1312 025a 464B     		ldr	r3, .L123+16
 1313              		.loc 1 548 0
 1314 025c 98ED000A 		vldr.32	s0, [r8]
 1315              		.loc 1 549 0
 1316 0260 1B8A     		ldrh	r3, [r3, #16]
 1317 0262 07EE103A 		vmov	s14, r3	@ int
 1318              		.loc 1 548 0
 1319 0266 39EE400A 		vsub.f32	s0, s18, s0
 1320              		.loc 1 549 0
 1321 026a B8EE477A 		vcvt.f32.u32	s14, s14
 1322              		.loc 1 542 0
 1323 026e C8EE887A 		vdiv.f32	s15, s17, s16
 1324              	.LVL211:
 1325              		.loc 1 551 0
 1326 0272 009B     		ldr	r3, [sp]
 1327              		.loc 1 554 0
 1328 0274 3846     		mov	r0, r7
 1329              		.loc 1 549 0
 1330 0276 C0EE076A 		vdiv.f32	s13, s0, s14
 1331              	.LVL212:
 1332              		.loc 1 550 0
 1333 027a 67EEA67A 		vmul.f32	s15, s15, s13
 1334              	.LVL213:
 1335              		.loc 1 551 0
 1336 027e C3ED007A 		vstr.32	s15, [r3]
 1337              		.loc 1 554 0
 1338 0282 FFF7FEFF 		bl	mc_interface_set_configuration
 1339              	.LVL214:
 1340              		.loc 1 555 0
 1341 0286 B0EE6A0A 		vmov.f32	s0, s21
 1342 028a 4846     		mov	r0, r9
 1343 028c FFF7FEFF 		bl	timeout_configure
 1344              	.LVL215:
 1345              		.loc 1 557 0
 1346 0290 FFF7FEFF 		bl	mc_interface_unlock
 1347              	.LVL216:
 1348              		.loc 1 559 0
 1349 0294 3046     		mov	r0, r6
 1350 0296 FFF7FEFF 		bl	mempools_free_mcconf
 1351              	.LVL217:
 1352              		.loc 1 560 0
 1353 029a 3846     		mov	r0, r7
 1354 029c FFF7FEFF 		bl	mempools_free_mcconf
 1355              	.LVL218:
 1356              		.loc 1 562 0
 1357 02a0 ABF10500 		sub	r0, fp, #5
 1358 02a4 B0FA80F0 		clz	r0, r0
 1359 02a8 4009     		lsrs	r0, r0, #5
 1360              		.loc 1 563 0
 1361 02aa 03B0     		add	sp, sp, #12
 1362              		.cfi_remember_state
 1363              		.cfi_def_cfa_offset 68
 1364              	.LVL219:
 1365              		@ sp needed
 1366 02ac BDEC088B 		vldm	sp!, {d8-d11}
 1367              		.cfi_restore 86
 1368              		.cfi_restore 87
ARM GAS  C:\Users\CFAR\AppData\Local\Temp\cc0Op7No.s 			page 25


 1369              		.cfi_restore 84
 1370              		.cfi_restore 85
 1371              		.cfi_restore 82
 1372              		.cfi_restore 83
 1373              		.cfi_restore 80
 1374              		.cfi_restore 81
 1375              		.cfi_def_cfa_offset 36
 1376              	.LVL220:
 1377 02b0 BDE8F08F 		pop	{r4, r5, r6, r7, r8, r9, r10, fp, pc}
 1378              	.LVL221:
 1379              	.L116:
 1380              		.cfi_restore_state
 1381              	.LBB38:
 1382              	.LBB30:
 1383              		.loc 1 442 0
 1384 02b4 0120     		movs	r0, #1
 1385 02b6 FFF7FEFF 		bl	mcpwm_switch_comm_mode
 1386              	.LVL222:
 1387              		.loc 1 451 0
 1388 02ba 41F28833 		movw	r3, #5000
 1389 02be 9C42     		cmp	r4, r3
 1390 02c0 7FF432AF 		bne	.L91
 1391              	.LVL223:
 1392              	.L74:
 1393              	.LBE30:
 1394              	.LBE38:
 1395              		.loc 1 463 0
 1396 02c4 9FED2A0A 		vldr.32	s0, .L123+12
 1397 02c8 FFF7FEFF 		bl	mc_interface_set_current
 1398              	.LVL224:
 1399              		.loc 1 464 0
 1400 02cc B0EE6A0A 		vmov.f32	s0, s21
 1401 02d0 4846     		mov	r0, r9
 1402 02d2 FFF7FEFF 		bl	timeout_configure
 1403              	.LVL225:
 1404              		.loc 1 465 0
 1405 02d6 3846     		mov	r0, r7
 1406 02d8 FFF7FEFF 		bl	mc_interface_set_configuration
 1407              	.LVL226:
 1408              		.loc 1 466 0
 1409 02dc FFF7FEFF 		bl	mc_interface_unlock
 1410              	.LVL227:
 1411              		.loc 1 467 0
 1412 02e0 3046     		mov	r0, r6
 1413 02e2 FFF7FEFF 		bl	mempools_free_mcconf
 1414              	.LVL228:
 1415              		.loc 1 468 0
 1416 02e6 3846     		mov	r0, r7
 1417 02e8 FFF7FEFF 		bl	mempools_free_mcconf
 1418              	.LVL229:
 1419              		.loc 1 469 0
 1420 02ec 0020     		movs	r0, #0
 1421              		.loc 1 563 0
 1422 02ee 03B0     		add	sp, sp, #12
 1423              		.cfi_remember_state
 1424              		.cfi_def_cfa_offset 68
 1425              	.LVL230:
ARM GAS  C:\Users\CFAR\AppData\Local\Temp\cc0Op7No.s 			page 26


 1426              		@ sp needed
 1427 02f0 BDEC088B 		vldm	sp!, {d8-d11}
 1428              		.cfi_restore 86
 1429              		.cfi_restore 87
 1430              		.cfi_restore 84
 1431              		.cfi_restore 85
 1432              		.cfi_restore 82
 1433              		.cfi_restore 83
 1434              		.cfi_restore 80
 1435              		.cfi_restore 81
 1436              		.cfi_def_cfa_offset 36
 1437              	.LVL231:
 1438 02f4 BDE8F08F 		pop	{r4, r5, r6, r7, r8, r9, r10, fp, pc}
 1439              	.LVL232:
 1440              	.L115:
 1441              		.cfi_restore_state
 1442              	.LBB39:
 1443              	.LBB31:
 1444              		.loc 1 457 0
 1445 02f8 002D     		cmp	r5, #0
 1446 02fa 7FF424AF 		bne	.L76
 1447              	.LBE31:
 1448              		.loc 1 410 0
 1449 02fe 0BF1010B 		add	fp, fp, #1
 1450              	.LVL233:
 1451 0302 BBF1030F 		cmp	fp, #3
 1452              	.LBB32:
 1453              		.loc 1 435 0
 1454 0306 4FF00105 		mov	r5, #1
 1455              	.LVL234:
 1456              	.LBE32:
 1457              		.loc 1 410 0
 1458 030a 7FF4E1AE 		bne	.L77
 1459 030e 17E7     		b	.L122
 1460              	.LVL235:
 1461              	.L117:
 1462              	.LBE39:
 1463              		.loc 1 472 0
 1464 0310 4FF0010B 		mov	fp, #1
 1465              	.LVL236:
 1466              	.LBB40:
 1467 0314 3FE7     		b	.L79
 1468              	.LVL237:
 1469              	.L113:
 1470              	.LBE40:
 1471              	.LBB41:
 1472              	.LBB33:
 1473              		.loc 1 412 0
 1474 0316 FFF7FEFF 		bl	mc_interface_lock_override_once
 1475              	.LVL238:
 1476              		.loc 1 413 0
 1477 031a FFF7FEFF 		bl	mc_interface_release_motor
 1478              	.LVL239:
 1479              		.loc 1 414 0
 1480 031e 79EEA97A 		vadd.f32	s15, s19, s19
 1481              		.loc 1 415 0
 1482 0322 154B     		ldr	r3, .L123+20
ARM GAS  C:\Users\CFAR\AppData\Local\Temp\cc0Op7No.s 			page 27


 1483              		.loc 1 414 0
 1484 0324 C6ED227A 		vstr.32	s15, [r6, #136]
 1485              		.loc 1 415 0
 1486 0328 C6F89430 		str	r3, [r6, #148]	@ float
 1487              	.L111:
 1488              		.loc 1 426 0
 1489 032c FFF7FEFF 		bl	mc_interface_lock_override_once
 1490              	.LVL240:
 1491              		.loc 1 427 0
 1492 0330 3046     		mov	r0, r6
 1493 0332 FFF7FEFF 		bl	mc_interface_set_configuration
 1494              	.LVL241:
 1495              		.loc 1 428 0
 1496 0336 42F21070 		movw	r0, #10000
 1497 033a FFF7FEFF 		bl	chThdSleep
 1498              	.LVL242:
 1499              		.loc 1 429 0
 1500 033e FFF7FEFF 		bl	mc_interface_lock_override_once
 1501              	.LVL243:
 1502              		.loc 1 430 0
 1503 0342 B0EE4A0A 		vmov.f32	s0, s20
 1504 0346 FFF7FEFF 		bl	mc_interface_set_current
 1505              	.LVL244:
 1506 034a C9E6     		b	.L66
 1507              	.L114:
 1508              		.loc 1 422 0
 1509 034c FFF7FEFF 		bl	mc_interface_lock_override_once
 1510              	.LVL245:
 1511              		.loc 1 423 0
 1512 0350 FFF7FEFF 		bl	mc_interface_release_motor
 1513              	.LVL246:
 1514              		.loc 1 424 0
 1515 0354 69EE8B7A 		vmul.f32	s15, s19, s22
 1516              		.loc 1 425 0
 1517 0358 0123     		movs	r3, #1
 1518              		.loc 1 424 0
 1519 035a C6ED227A 		vstr.32	s15, [r6, #136]
 1520              		.loc 1 425 0
 1521 035e 7370     		strb	r3, [r6, #1]
 1522 0360 E4E7     		b	.L111
 1523              	.L124:
 1524 0362 00BF     		.align	2
 1525              	.L123:
 1526 0364 00009643 		.word	1133903872
 1527 0368 00004842 		.word	1112014848
 1528 036c 00808944 		.word	1149861888
 1529 0370 00000000 		.word	0
 1530 0374 00000000 		.word	ADC_Value
 1531 0378 0000A041 		.word	1101004800
 1532              	.LBE33:
 1533              	.LBE41:
 1534              		.cfi_endproc
 1535              	.LFE267:
 1536              		.size	conf_general_detect_motor_param, .-conf_general_detect_motor_param
 1537              		.section	.text.conf_general_measure_flux_linkage,"ax",%progbits
 1538              		.align	1
 1539              		.p2align 4,,15
ARM GAS  C:\Users\CFAR\AppData\Local\Temp\cc0Op7No.s 			page 28


 1540              		.global	conf_general_measure_flux_linkage
 1541              		.syntax unified
 1542              		.thumb
 1543              		.thumb_func
 1544              		.fpu fpv4-sp-d16
 1545              		.type	conf_general_measure_flux_linkage, %function
 1546              	conf_general_measure_flux_linkage:
 1547              	.LFB268:
 1548              		.loc 1 587 0
 1549              		.cfi_startproc
 1550              		@ args = 0, pretend = 0, frame = 0
 1551              		@ frame_needed = 0, uses_anonymous_args = 0
 1552              	.LVL247:
 1553 0000 2DE9F84F 		push	{r3, r4, r5, r6, r7, r8, r9, r10, fp, lr}
 1554              		.cfi_def_cfa_offset 40
 1555              		.cfi_offset 3, -40
 1556              		.cfi_offset 4, -36
 1557              		.cfi_offset 5, -32
 1558              		.cfi_offset 6, -28
 1559              		.cfi_offset 7, -24
 1560              		.cfi_offset 8, -20
 1561              		.cfi_offset 9, -16
 1562              		.cfi_offset 10, -12
 1563              		.cfi_offset 11, -8
 1564              		.cfi_offset 14, -4
 1565 0004 2DED0A8B 		vpush.64	{d8, d9, d10, d11, d12}
 1566              		.cfi_def_cfa_offset 80
 1567              		.cfi_offset 80, -80
 1568              		.cfi_offset 81, -76
 1569              		.cfi_offset 82, -72
 1570              		.cfi_offset 83, -68
 1571              		.cfi_offset 84, -64
 1572              		.cfi_offset 85, -60
 1573              		.cfi_offset 86, -56
 1574              		.cfi_offset 87, -52
 1575              		.cfi_offset 88, -48
 1576              		.cfi_offset 89, -44
 1577              		.loc 1 587 0
 1578 0008 8046     		mov	r8, r0
 1579 000a B0EE419A 		vmov.f32	s18, s2
 1580 000e F0EE409A 		vmov.f32	s19, s0
 1581 0012 B0EE608A 		vmov.f32	s16, s1
 1582 0016 F0EE61BA 		vmov.f32	s23, s3
 1583              		.loc 1 589 0
 1584 001a FFF7FEFF 		bl	mempools_alloc_mcconf
 1585              	.LVL248:
 1586 001e 0646     		mov	r6, r0
 1587              	.LVL249:
 1588              		.loc 1 590 0
 1589 0020 FFF7FEFF 		bl	mempools_alloc_mcconf
 1590              	.LVL250:
 1591 0024 0746     		mov	r7, r0
 1592              	.LVL251:
 1593              		.loc 1 592 0
 1594 0026 FFF7FEFF 		bl	mc_interface_get_configuration
 1595              	.LVL252:
 1596 002a 4FF4FA72 		mov	r2, #500
ARM GAS  C:\Users\CFAR\AppData\Local\Temp\cc0Op7No.s 			page 29


 1597 002e 0146     		mov	r1, r0
 1598 0030 3046     		mov	r0, r6
 1599 0032 FFF7FEFF 		bl	memcpy
 1600              	.LVL253:
 1601              		.loc 1 593 0
 1602 0036 3146     		mov	r1, r6
 1603 0038 4FF4FA72 		mov	r2, #500
 1604 003c 3846     		mov	r0, r7
 1605 003e FFF7FEFF 		bl	memcpy
 1606              	.LVL254:
 1607              		.loc 1 600 0
 1608 0042 A64B     		ldr	r3, .L169
 1609              		.loc 1 601 0
 1610 0044 A648     		ldr	r0, .L169+4
 1611              		.loc 1 602 0
 1612 0046 A749     		ldr	r1, .L169+8
 1613              		.loc 1 603 0
 1614 0048 A74A     		ldr	r2, .L169+12
 1615              		.loc 1 600 0
 1616 004a C6F8C431 		str	r3, [r6, #452]	@ float
 1617              		.loc 1 598 0
 1618 004e 4FF07E54 		mov	r4, #1065353216
 1619              		.loc 1 595 0
 1620 0052 0023     		movs	r3, #0
 1621              		.loc 1 598 0
 1622 0054 C6F89840 		str	r4, [r6, #152]	@ float
 1623              		.loc 1 601 0
 1624 0058 C6F8A000 		str	r0, [r6, #160]	@ float
 1625              		.loc 1 599 0
 1626 005c 86ED229A 		vstr.32	s18, [r6, #136]
 1627              		.loc 1 602 0
 1628 0060 C6F89410 		str	r1, [r6, #148]	@ float
 1629              		.loc 1 603 0
 1630 0064 C6F88C20 		str	r2, [r6, #140]	@ float
 1631              		.loc 1 595 0
 1632 0068 B370     		strb	r3, [r6, #2]
 1633              		.loc 1 596 0
 1634 006a F370     		strb	r3, [r6, #3]
 1635              		.loc 1 597 0
 1636 006c 7370     		strb	r3, [r6, #1]
 1637              		.loc 1 604 0
 1638 006e 3046     		mov	r0, r6
 1639 0070 FFF7FEFF 		bl	mc_interface_set_configuration
 1640              	.LVL255:
 1641 0074 4FF4FA74 		mov	r4, #500
 1642 0078 04E0     		b	.L127
 1643              	.LVL256:
 1644              	.L161:
 1645              	.LBB42:
 1646              		.loc 1 611 0 discriminator 2
 1647 007a 6420     		movs	r0, #100
 1648 007c FFF7FEFF 		bl	chThdSleep
 1649              	.LVL257:
 1650              		.loc 1 607 0 discriminator 2
 1651 0080 013C     		subs	r4, r4, #1
 1652              	.LVL258:
 1653 0082 03D0     		beq	.L126
ARM GAS  C:\Users\CFAR\AppData\Local\Temp\cc0Op7No.s 			page 30


 1654              	.LVL259:
 1655              	.L127:
 1656              		.loc 1 608 0
 1657 0084 FFF7FEFF 		bl	mc_interface_get_fault
 1658              	.LVL260:
 1659 0088 0028     		cmp	r0, #0
 1660 008a F6D1     		bne	.L161
 1661              	.LVL261:
 1662              	.L126:
 1663              	.LBE42:
 1664              		.loc 1 614 0
 1665 008c FFF7FEFF 		bl	mc_interface_get_fault
 1666              	.LVL262:
 1667 0090 8246     		mov	r10, r0
 1668 0092 0028     		cmp	r0, #0
 1669 0094 40F0E580 		bne	.L162
 1670              		.loc 1 623 0
 1671 0098 42F21070 		movw	r0, #10000
 1672 009c FFF7FEFF 		bl	chThdSleep
 1673              	.LVL263:
 1674              		.loc 1 626 0
 1675 00a0 FFF7FEFF 		bl	timeout_get_timeout_msec
 1676              	.LVL264:
 1677 00a4 8146     		mov	r9, r0
 1678              	.LVL265:
 1679              		.loc 1 627 0
 1680 00a6 FFF7FEFF 		bl	timeout_get_brake_current
 1681              	.LVL266:
 1682 00aa B0EE40CA 		vmov.f32	s24, s0
 1683              	.LVL267:
 1684              		.loc 1 628 0
 1685 00ae FFF7FEFF 		bl	timeout_reset
 1686              	.LVL268:
 1687              		.loc 1 629 0
 1688 00b2 9FED8E0A 		vldr.32	s0, .L169+16
 1689              	.LBB43:
 1690              	.LBB44:
 1691              		.loc 1 642 0
 1692 00b6 9FED8EAA 		vldr.32	s20, .L169+20
 1693              	.LBE44:
 1694              	.LBE43:
 1695              		.loc 1 629 0
 1696 00ba 4EF66020 		movw	r0, #60000
 1697 00be FFF7FEFF 		bl	timeout_configure
 1698              	.LVL269:
 1699              		.loc 1 631 0
 1700 00c2 FFF7FEFF 		bl	mc_interface_lock
 1701              	.LVL270:
 1702              		.loc 1 633 0
 1703 00c6 FFF7FEFF 		bl	mc_interface_lock_override_once
 1704              	.LVL271:
 1705              		.loc 1 634 0
 1706 00ca B0EE690A 		vmov.f32	s0, s19
 1707 00ce FFF7FEFF 		bl	mc_interface_set_current
 1708              	.LVL272:
 1709              	.LBB52:
 1710              	.LBB45:
ARM GAS  C:\Users\CFAR\AppData\Local\Temp\cc0Op7No.s 			page 31


 1711              		.loc 1 662 0
 1712 00d2 4FF0010B 		mov	fp, #1
 1713              	.LVL273:
 1714              	.L143:
 1715              		.loc 1 639 0
 1716 00d6 BAF1010F 		cmp	r10, #1
 1717 00da 00F0F880 		beq	.L163
 1718              		.loc 1 648 0
 1719 00de BAF1020F 		cmp	r10, #2
 1720 00e2 00F0E880 		beq	.L164
 1721              		.loc 1 658 0
 1722 00e6 BAF1030F 		cmp	r10, #3
 1723 00ea 00F0C880 		beq	.L165
 1724              	.L131:
 1725              	.LBE45:
 1726              		.loc 1 638 0
 1727 00ee 0025     		movs	r5, #0
 1728 00f0 2C46     		mov	r4, r5
 1729              	.LBB46:
 1730              		.loc 1 678 0
 1731 00f2 F6EE008A 		vmov.f32	s17, #5.0e-1
 1732              	.L133:
 1733              	.LVL274:
 1734              		.loc 1 674 0
 1735 00f6 FFF7FEFF 		bl	mc_interface_get_duty_cycle_now
 1736              	.LVL275:
 1737 00fa B4EEC80A 		vcmpe.f32	s0, s16
 1738 00fe F1EE10FA 		vmrs	APSR_nzcv, FPSCR
 1739              		.loc 1 675 0
 1740 0102 4FF00A00 		mov	r0, #10
 1741              		.loc 1 676 0
 1742 0106 04F10104 		add	r4, r4, #1
 1743              	.LVL276:
 1744              		.loc 1 674 0
 1745 010a 40F19F80 		bpl	.L166
 1746              		.loc 1 675 0
 1747 010e FFF7FEFF 		bl	chThdSleep
 1748              	.LVL277:
 1749              		.loc 1 678 0
 1750 0112 FFF7FEFF 		bl	mc_interface_get_duty_cycle_now
 1751              	.LVL278:
 1752 0116 68EE287A 		vmul.f32	s15, s16, s17
 1753 011a B4EEE70A 		vcmpe.f32	s0, s15
 1754 011e F1EE10FA 		vmrs	APSR_nzcv, FPSCR
 1755 0122 0ADB     		blt	.L157
 1756              	.LVL279:
 1757              		.loc 1 678 0 is_stmt 0 discriminator 1
 1758 0124 002D     		cmp	r5, #0
 1759 0126 7BD0     		beq	.L167
 1760              		.loc 1 683 0 is_stmt 1
 1761 0128 B4F5FA6F 		cmp	r4, #2000
 1762 012c 03DD     		ble	.L145
 1763              	.LVL280:
 1764              	.L137:
 1765              		.loc 1 688 0
 1766 012e 41F28833 		movw	r3, #5000
 1767 0132 9C42     		cmp	r4, r3
ARM GAS  C:\Users\CFAR\AppData\Local\Temp\cc0Op7No.s 			page 32


 1768 0134 7BD0     		beq	.L140
 1769              	.L145:
 1770              	.LBE46:
 1771              		.loc 1 638 0
 1772 0136 0125     		movs	r5, #1
 1773 0138 DDE7     		b	.L133
 1774              	.LVL281:
 1775              	.L157:
 1776              	.LBB47:
 1777              		.loc 1 683 0
 1778 013a B4F5FA6F 		cmp	r4, #2000
 1779 013e DADD     		ble	.L133
 1780              		.loc 1 683 0 is_stmt 0 discriminator 1
 1781 0140 002D     		cmp	r5, #0
 1782 0142 F4D1     		bne	.L137
 1783              	.LVL282:
 1784              	.LBE47:
 1785              		.loc 1 638 0 is_stmt 1 discriminator 2
 1786 0144 0AF1010A 		add	r10, r10, #1
 1787              	.LVL283:
 1788 0148 BAF1040F 		cmp	r10, #4
 1789 014c C3D1     		bne	.L143
 1790              	.LVL284:
 1791              	.L168:
 1792              	.LBE52:
 1793              		.loc 1 699 0
 1794 014e 002D     		cmp	r5, #0
 1795 0150 6DD0     		beq	.L140
 1796              	.LVL285:
 1797              	.L142:
 1798              		.loc 1 709 0
 1799 0152 FFF7FEFF 		bl	mc_interface_lock_override_once
 1800              	.LVL286:
 1801              		.loc 1 710 0
 1802 0156 B0EE480A 		vmov.f32	s0, s16
 1803 015a FFF7FEFF 		bl	mc_interface_set_duty
 1804              	.LVL287:
 1805              		.loc 1 715 0
 1806 015e 9FED638A 		vldr.32	s16, .L169+16
 1807              	.LVL288:
 1808 0162 DFF8A4A1 		ldr	r10, .L169+44
 1809              	.LVL289:
 1810              	.LBB53:
 1811              		.loc 1 717 0
 1812 0166 9FED63BA 		vldr.32	s22, .L169+24
 1813 016a DFED63AA 		vldr.32	s21, .L169+28
 1814              	.LBE53:
 1815              		.loc 1 714 0
 1816 016e F0EE489A 		vmov.f32	s19, s16
 1817              	.LVL290:
 1818              		.loc 1 713 0
 1819 0172 F0EE488A 		vmov.f32	s17, s16
 1820              		.loc 1 712 0
 1821 0176 B0EE489A 		vmov.f32	s18, s16
 1822              	.LVL291:
 1823              		.loc 1 710 0
 1824 017a 4FF4FA65 		mov	r5, #2000
ARM GAS  C:\Users\CFAR\AppData\Local\Temp\cc0Op7No.s 			page 33


 1825              	.LBB54:
 1826              		.loc 1 720 0
 1827 017e B7EE00AA 		vmov.f32	s20, #1.0e+0
 1828              	.LVL292:
 1829              	.L144:
 1830              		.loc 1 717 0 discriminator 3
 1831 0182 BAF81030 		ldrh	r3, [r10, #16]
 1832 0186 9CB2     		uxth	r4, r3
 1833 0188 FFF7FEFF 		bl	mc_interface_get_duty_cycle_now
 1834              	.LVL293:
 1835 018c 07EE904A 		vmov	s15, r4	@ int
 1836 0190 F8EE677A 		vcvt.f32.u32	s15, s15
 1837 0194 67EE8B7A 		vmul.f32	s15, s15, s22
 1838 0198 67EEAA7A 		vmul.f32	s15, s15, s21
 1839 019c A7EE809A 		vfma.f32	s18, s15, s0
 1840              	.LVL294:
 1841              		.loc 1 718 0 discriminator 3
 1842 01a0 FFF7FEFF 		bl	mc_interface_get_rpm
 1843              	.LVL295:
 1844 01a4 78EE808A 		vadd.f32	s17, s17, s0
 1845              	.LVL296:
 1846              		.loc 1 719 0 discriminator 3
 1847 01a8 FFF7FEFF 		bl	mc_interface_get_tot_current
 1848              	.LVL297:
 1849              		.loc 1 721 0 discriminator 3
 1850 01ac 0A20     		movs	r0, #10
 1851              		.loc 1 719 0 discriminator 3
 1852 01ae 79EE809A 		vadd.f32	s19, s19, s0
 1853              	.LVL298:
 1854              		.loc 1 721 0 discriminator 3
 1855 01b2 FFF7FEFF 		bl	chThdSleep
 1856              	.LVL299:
 1857              		.loc 1 716 0 discriminator 3
 1858 01b6 013D     		subs	r5, r5, #1
 1859              	.LVL300:
 1860              		.loc 1 720 0 discriminator 3
 1861 01b8 38EE0A8A 		vadd.f32	s16, s16, s20
 1862              	.LVL301:
 1863              		.loc 1 716 0 discriminator 3
 1864 01bc E1D1     		bne	.L144
 1865              	.LBE54:
 1866              		.loc 1 724 0
 1867 01be B0EE4C0A 		vmov.f32	s0, s24
 1868 01c2 4846     		mov	r0, r9
 1869 01c4 FFF7FEFF 		bl	timeout_configure
 1870              	.LVL302:
 1871              		.loc 1 725 0
 1872 01c8 3846     		mov	r0, r7
 1873 01ca FFF7FEFF 		bl	mc_interface_set_configuration
 1874              	.LVL303:
 1875              		.loc 1 726 0
 1876 01ce FFF7FEFF 		bl	mc_interface_unlock
 1877              	.LVL304:
 1878              		.loc 1 727 0
 1879 01d2 9FED460A 		vldr.32	s0, .L169+16
 1880 01d6 FFF7FEFF 		bl	mc_interface_set_current
 1881              	.LVL305:
ARM GAS  C:\Users\CFAR\AppData\Local\Temp\cc0Op7No.s 			page 34


 1882              		.loc 1 731 0
 1883 01da C9EE886A 		vdiv.f32	s13, s19, s16
 1884              		.loc 1 736 0
 1885 01de 3046     		mov	r0, r6
 1886              		.loc 1 729 0
 1887 01e0 C9EE087A 		vdiv.f32	s15, s18, s16
 1888              	.LVL306:
 1889              		.loc 1 730 0
 1890 01e4 88EE887A 		vdiv.f32	s14, s17, s16
 1891              	.LVL307:
 1892              		.loc 1 732 0
 1893 01e8 6BEEE6BA 		vnmul.f32	s23, s23, s13
 1894              	.LVL308:
 1895 01ec F0EE006A 		vmov.f32	s13, #2.0e+0
 1896 01f0 EBEEA67A 		vfma.f32	s15, s23, s13
 1897              	.LVL309:
 1898              		.loc 1 734 0
 1899 01f4 9FED416A 		vldr.32	s12, .L169+32
 1900 01f8 DFED416A 		vldr.32	s13, .L169+36
 1901 01fc 67EE867A 		vmul.f32	s15, s15, s12
 1902 0200 27EE267A 		vmul.f32	s14, s14, s13
 1903              	.LVL310:
 1904 0204 C7EE876A 		vdiv.f32	s13, s15, s14
 1905 0208 C8ED006A 		vstr.32	s13, [r8]
 1906              		.loc 1 736 0
 1907 020c FFF7FEFF 		bl	mempools_free_mcconf
 1908              	.LVL311:
 1909              		.loc 1 737 0
 1910 0210 3846     		mov	r0, r7
 1911 0212 FFF7FEFF 		bl	mempools_free_mcconf
 1912              	.LVL312:
 1913              		.loc 1 740 0
 1914 0216 BDEC0A8B 		vldm	sp!, {d8-d12}
 1915              		.cfi_remember_state
 1916              		.cfi_restore 88
 1917              		.cfi_restore 89
 1918              		.cfi_restore 86
 1919              		.cfi_restore 87
 1920              		.cfi_restore 84
 1921              		.cfi_restore 85
 1922              		.cfi_restore 82
 1923              		.cfi_restore 83
 1924              		.cfi_restore 80
 1925              		.cfi_restore 81
 1926              		.cfi_def_cfa_offset 40
 1927              	.LVL313:
 1928              		.loc 1 739 0
 1929 021a 0120     		movs	r0, #1
 1930              		.loc 1 740 0
 1931 021c BDE8F88F 		pop	{r3, r4, r5, r6, r7, r8, r9, r10, fp, pc}
 1932              	.LVL314:
 1933              	.L167:
 1934              		.cfi_restore_state
 1935              	.LBB55:
 1936              	.LBB48:
 1937              		.loc 1 679 0
 1938 0220 0120     		movs	r0, #1
ARM GAS  C:\Users\CFAR\AppData\Local\Temp\cc0Op7No.s 			page 35


 1939 0222 FFF7FEFF 		bl	mcpwm_switch_comm_mode
 1940              	.LVL315:
 1941              		.loc 1 688 0
 1942 0226 41F28833 		movw	r3, #5000
 1943 022a 9C42     		cmp	r4, r3
 1944 022c 83D1     		bne	.L145
 1945              	.LVL316:
 1946              	.L140:
 1947              	.LBE48:
 1948              	.LBE55:
 1949              		.loc 1 700 0
 1950 022e 9FED2F0A 		vldr.32	s0, .L169+16
 1951 0232 FFF7FEFF 		bl	mc_interface_set_current
 1952              	.LVL317:
 1953              		.loc 1 701 0
 1954 0236 B0EE4C0A 		vmov.f32	s0, s24
 1955 023a 4846     		mov	r0, r9
 1956 023c FFF7FEFF 		bl	timeout_configure
 1957              	.LVL318:
 1958              		.loc 1 702 0
 1959 0240 3046     		mov	r0, r6
 1960 0242 FFF7FEFF 		bl	mc_interface_set_configuration
 1961              	.LVL319:
 1962              		.loc 1 703 0
 1963 0246 FFF7FEFF 		bl	mc_interface_unlock
 1964              	.LVL320:
 1965 024a 0DE0     		b	.L160
 1966              	.LVL321:
 1967              	.L166:
 1968              	.LBB56:
 1969              	.LBB49:
 1970              		.loc 1 694 0
 1971 024c 002D     		cmp	r5, #0
 1972 024e 80D1     		bne	.L142
 1973              	.LBE49:
 1974              		.loc 1 638 0
 1975 0250 0AF1010A 		add	r10, r10, #1
 1976              	.LVL322:
 1977 0254 BAF1040F 		cmp	r10, #4
 1978              	.LBB50:
 1979              		.loc 1 672 0
 1980 0258 4FF00105 		mov	r5, #1
 1981              	.LVL323:
 1982              	.LBE50:
 1983              		.loc 1 638 0
 1984 025c 7FF43BAF 		bne	.L143
 1985 0260 75E7     		b	.L168
 1986              	.LVL324:
 1987              	.L162:
 1988              	.LBE56:
 1989              		.loc 1 615 0
 1990 0262 3846     		mov	r0, r7
 1991 0264 FFF7FEFF 		bl	mc_interface_set_configuration
 1992              	.LVL325:
 1993              	.L160:
 1994              		.loc 1 704 0
 1995 0268 3046     		mov	r0, r6
ARM GAS  C:\Users\CFAR\AppData\Local\Temp\cc0Op7No.s 			page 36


 1996 026a FFF7FEFF 		bl	mempools_free_mcconf
 1997              	.LVL326:
 1998              		.loc 1 705 0
 1999 026e 3846     		mov	r0, r7
 2000 0270 FFF7FEFF 		bl	mempools_free_mcconf
 2001              	.LVL327:
 2002              		.loc 1 740 0
 2003 0274 BDEC0A8B 		vldm	sp!, {d8-d12}
 2004              		.cfi_remember_state
 2005              		.cfi_restore 88
 2006              		.cfi_restore 89
 2007              		.cfi_restore 86
 2008              		.cfi_restore 87
 2009              		.cfi_restore 84
 2010              		.cfi_restore 85
 2011              		.cfi_restore 82
 2012              		.cfi_restore 83
 2013              		.cfi_restore 80
 2014              		.cfi_restore 81
 2015              		.cfi_def_cfa_offset 40
 2016              	.LVL328:
 2017              		.loc 1 706 0
 2018 0278 0020     		movs	r0, #0
 2019              		.loc 1 740 0
 2020 027a BDE8F88F 		pop	{r3, r4, r5, r6, r7, r8, r9, r10, fp, pc}
 2021              	.LVL329:
 2022              	.L165:
 2023              		.cfi_restore_state
 2024              	.LBB57:
 2025              	.LBB51:
 2026              		.loc 1 659 0
 2027 027e FFF7FEFF 		bl	mc_interface_lock_override_once
 2028              	.LVL330:
 2029              		.loc 1 660 0
 2030 0282 FFF7FEFF 		bl	mc_interface_release_motor
 2031              	.LVL331:
 2032              		.loc 1 661 0
 2033 0286 F1EE007A 		vmov.f32	s15, #4.0e+0
 2034 028a 69EE277A 		vmul.f32	s15, s18, s15
 2035              		.loc 1 662 0
 2036 028e 86F801B0 		strb	fp, [r6, #1]
 2037              		.loc 1 661 0
 2038 0292 C6ED227A 		vstr.32	s15, [r6, #136]
 2039              	.L159:
 2040              		.loc 1 663 0
 2041 0296 FFF7FEFF 		bl	mc_interface_lock_override_once
 2042              	.LVL332:
 2043              		.loc 1 664 0
 2044 029a 3046     		mov	r0, r6
 2045 029c FFF7FEFF 		bl	mc_interface_set_configuration
 2046              	.LVL333:
 2047              		.loc 1 665 0
 2048 02a0 42F21070 		movw	r0, #10000
 2049 02a4 FFF7FEFF 		bl	chThdSleep
 2050              	.LVL334:
 2051              		.loc 1 666 0
 2052 02a8 FFF7FEFF 		bl	mc_interface_lock_override_once
ARM GAS  C:\Users\CFAR\AppData\Local\Temp\cc0Op7No.s 			page 37


 2053              	.LVL335:
 2054              		.loc 1 667 0
 2055 02ac B0EE690A 		vmov.f32	s0, s19
 2056 02b0 FFF7FEFF 		bl	mc_interface_set_current
 2057              	.LVL336:
 2058 02b4 1BE7     		b	.L131
 2059              	.L164:
 2060              		.loc 1 649 0
 2061 02b6 FFF7FEFF 		bl	mc_interface_lock_override_once
 2062              	.LVL337:
 2063              		.loc 1 650 0
 2064 02ba FFF7FEFF 		bl	mc_interface_release_motor
 2065              	.LVL338:
 2066              		.loc 1 651 0
 2067 02be 79EE097A 		vadd.f32	s15, s18, s18
 2068              		.loc 1 652 0
 2069 02c2 104B     		ldr	r3, .L169+40
 2070              		.loc 1 651 0
 2071 02c4 C6ED227A 		vstr.32	s15, [r6, #136]
 2072              		.loc 1 652 0
 2073 02c8 C6F89430 		str	r3, [r6, #148]	@ float
 2074 02cc E3E7     		b	.L159
 2075              	.L163:
 2076              		.loc 1 640 0
 2077 02ce FFF7FEFF 		bl	mc_interface_lock_override_once
 2078              	.LVL339:
 2079              		.loc 1 641 0
 2080 02d2 FFF7FEFF 		bl	mc_interface_release_motor
 2081              	.LVL340:
 2082              		.loc 1 642 0
 2083 02d6 86ED25AA 		vstr.32	s20, [r6, #148]
 2084 02da DCE7     		b	.L159
 2085              	.L170:
 2086              		.align	2
 2087              	.L169:
 2088 02dc 00401C46 		.word	1176256512
 2089 02e0 00009643 		.word	1133903872
 2090 02e4 00004842 		.word	1112014848
 2091 02e8 00808944 		.word	1149861888
 2092 02ec 00000000 		.word	0
 2093 02f0 00007A43 		.word	1132068864
 2094 02f4 6740533A 		.word	978534503
 2095 02f8 74D19541 		.word	1100337524
 2096 02fc 00007042 		.word	1114636288
 2097 0300 EF1F2E41 		.word	1093541871
 2098 0304 0000A041 		.word	1101004800
 2099 0308 00000000 		.word	ADC_Value
 2100              	.LBE51:
 2101              	.LBE57:
 2102              		.cfi_endproc
 2103              	.LFE268:
 2104              		.size	conf_general_measure_flux_linkage, .-conf_general_measure_flux_linkage
 2105              		.section	.text.conf_general_calculate_deadtime,"ax",%progbits
 2106              		.align	1
 2107              		.p2align 4,,15
 2108              		.global	conf_general_calculate_deadtime
 2109              		.syntax unified
ARM GAS  C:\Users\CFAR\AppData\Local\Temp\cc0Op7No.s 			page 38


 2110              		.thumb
 2111              		.thumb_func
 2112              		.fpu fpv4-sp-d16
 2113              		.type	conf_general_calculate_deadtime, %function
 2114              	conf_general_calculate_deadtime:
 2115              	.LFB269:
 2116              		.loc 1 743 0
 2117              		.cfi_startproc
 2118              		@ args = 0, pretend = 0, frame = 8
 2119              		@ frame_needed = 0, uses_anonymous_args = 0
 2120              		@ link register save eliminated.
 2121              	.LVL341:
 2122              		.loc 1 745 0
 2123 0000 DFED387A 		vldr.32	s15, .L196
 2124 0004 DFED386A 		vldr.32	s13, .L196+4
 2125              		.loc 1 747 0
 2126 0008 9FED387A 		vldr.32	s14, .L196+8
 2127              		.loc 1 745 0
 2128 000c C0EEA70A 		vdiv.f32	s1, s1, s15
 2129              	.LVL342:
 2130 0010 B7EE006A 		vmov.f32	s12, #1.0e+0
 2131 0014 C6EE207A 		vdiv.f32	s15, s12, s1
 2132 0018 67EEA67A 		vmul.f32	s15, s15, s13
 2133              	.LVL343:
 2134              		.loc 1 747 0
 2135 001c 27EE877A 		vmul.f32	s14, s15, s14
 2136 0020 B4EEC07A 		vcmpe.f32	s14, s0
 2137 0024 F1EE10FA 		vmrs	APSR_nzcv, FPSCR
 2138 0028 3CDA     		bge	.L193
 2139              		.loc 1 750 0
 2140 002a 9FED317A 		vldr.32	s14, .L196+12
 2141 002e 27EE877A 		vmul.f32	s14, s15, s14
 2142 0032 B4EEC07A 		vcmpe.f32	s14, s0
 2143 0036 F1EE10FA 		vmrs	APSR_nzcv, FPSCR
 2144 003a 23DA     		bge	.L194
 2145              		.loc 1 754 0
 2146 003c 9FED2D7A 		vldr.32	s14, .L196+16
 2147 0040 27EE877A 		vmul.f32	s14, s15, s14
 2148 0044 B4EEC07A 		vcmpe.f32	s14, s0
 2149 0048 F1EE10FA 		vmrs	APSR_nzcv, FPSCR
 2150 004c 35DA     		bge	.L195
 2151              		.loc 1 758 0
 2152 004e 9FED2A7A 		vldr.32	s14, .L196+20
 2153 0052 27EE877A 		vmul.f32	s14, s15, s14
 2154 0056 B4EEC07A 		vcmpe.f32	s14, s0
 2155 005a F1EE10FA 		vmrs	APSR_nzcv, FPSCR
 2156 005e 3EDB     		blt	.L188
 2157              		.loc 1 759 0
 2158 0060 B3EE007A 		vmov.f32	s14, #1.6e+1
 2159 0064 67EE877A 		vmul.f32	s15, s15, s14
 2160              	.LVL344:
 2161 0068 DFED246A 		vldr.32	s13, .L196+24
 2162              	.LVL345:
 2163 006c 80EE277A 		vdiv.f32	s14, s0, s15
 2164 0070 77EE667A 		vsub.f32	s15, s14, s13
 2165 0074 FCEEE77A 		vcvt.u32.f32	s15, s15
 2166 0078 17EE900A 		vmov	r0, s15	@ int
ARM GAS  C:\Users\CFAR\AppData\Local\Temp\cc0Op7No.s 			page 39


 2167              	.LVL346:
 2168              		.loc 1 760 0
 2169 007c 60F01F00 		orn	r0, r0, #31
 2170              	.LVL347:
 2171 0080 C0B2     		uxtb	r0, r0
 2172              	.LVL348:
 2173 0082 7047     		bx	lr
 2174              	.LVL349:
 2175              	.L194:
 2176              		.loc 1 751 0
 2177 0084 77EEA77A 		vadd.f32	s15, s15, s15
 2178              	.LVL350:
 2179 0088 DFED1D6A 		vldr.32	s13, .L196+28
 2180              	.LVL351:
 2181 008c 80EE277A 		vdiv.f32	s14, s0, s15
 2182 0090 77EE667A 		vsub.f32	s15, s14, s13
 2183 0094 FCEEE77A 		vcvt.u32.f32	s15, s15
 2184 0098 17EE900A 		vmov	r0, s15	@ int
 2185              	.LVL352:
 2186              		.loc 1 752 0
 2187 009c 60F07F00 		orn	r0, r0, #127
 2188              	.LVL353:
 2189 00a0 C0B2     		uxtb	r0, r0
 2190              	.LVL354:
 2191 00a2 7047     		bx	lr
 2192              	.LVL355:
 2193              	.L193:
 2194              		.loc 1 748 0
 2195 00a4 80EE277A 		vdiv.f32	s14, s0, s15
 2196              		.loc 1 743 0
 2197 00a8 82B0     		sub	sp, sp, #8
 2198              		.cfi_def_cfa_offset 8
 2199              		.loc 1 748 0
 2200 00aa FCEEC77A 		vcvt.u32.f32	s15, s14
 2201              	.LVL356:
 2202 00ae CDED017A 		vstr.32	s15, [sp, #4]	@ int
 2203 00b2 9DF80400 		ldrb	r0, [sp, #4]	@ zero_extendqisi2
 2204              	.LVL357:
 2205              		.loc 1 772 0
 2206 00b6 02B0     		add	sp, sp, #8
 2207              		.cfi_def_cfa_offset 0
 2208              		@ sp needed
 2209 00b8 7047     		bx	lr
 2210              	.LVL358:
 2211              	.L195:
 2212              		.loc 1 755 0
 2213 00ba B2EE007A 		vmov.f32	s14, #8.0e+0
 2214 00be 67EE877A 		vmul.f32	s15, s15, s14
 2215              	.LVL359:
 2216 00c2 DFED0E6A 		vldr.32	s13, .L196+24
 2217              	.LVL360:
 2218 00c6 80EE277A 		vdiv.f32	s14, s0, s15
 2219 00ca 77EE667A 		vsub.f32	s15, s14, s13
 2220 00ce FCEEE77A 		vcvt.u32.f32	s15, s15
 2221 00d2 17EE900A 		vmov	r0, s15	@ int
 2222              	.LVL361:
 2223              		.loc 1 756 0
ARM GAS  C:\Users\CFAR\AppData\Local\Temp\cc0Op7No.s 			page 40


 2224 00d6 60F03F00 		orn	r0, r0, #63
 2225              	.LVL362:
 2226 00da C0B2     		uxtb	r0, r0
 2227              	.LVL363:
 2228 00dc 7047     		bx	lr
 2229              	.LVL364:
 2230              	.L188:
 2231              		.loc 1 764 0
 2232 00de FF20     		movs	r0, #255
 2233              	.LVL365:
 2234              		.loc 1 772 0
 2235 00e0 7047     		bx	lr
 2236              	.L197:
 2237 00e2 00BF     		.align	2
 2238              	.L196:
 2239 00e4 00247449 		.word	1232348160
 2240 00e8 00007A44 		.word	1148846080
 2241 00ec 0000FE42 		.word	1123942400
 2242 00f0 00007E43 		.word	1132331008
 2243 00f4 0000FC43 		.word	1140588544
 2244 00f8 00007C44 		.word	1148977152
 2245 00fc 00000042 		.word	1107296256
 2246 0100 00008042 		.word	1115684864
 2247              		.cfi_endproc
 2248              	.LFE269:
 2249              		.size	conf_general_calculate_deadtime, .-conf_general_calculate_deadtime
 2250              		.section	.text.conf_general_measure_flux_linkage_openloop,"ax",%progbits
 2251              		.align	1
 2252              		.p2align 4,,15
 2253              		.global	conf_general_measure_flux_linkage_openloop
 2254              		.syntax unified
 2255              		.thumb
 2256              		.thumb_func
 2257              		.fpu fpv4-sp-d16
 2258              		.type	conf_general_measure_flux_linkage_openloop, %function
 2259              	conf_general_measure_flux_linkage_openloop:
 2260              	.LFB270:
 2261              		.loc 1 803 0
 2262              		.cfi_startproc
 2263              		@ args = 0, pretend = 0, frame = 0
 2264              		@ frame_needed = 0, uses_anonymous_args = 0
 2265              	.LVL366:
 2266 0000 2DE9F84F 		push	{r3, r4, r5, r6, r7, r8, r9, r10, fp, lr}
 2267              		.cfi_def_cfa_offset 40
 2268              		.cfi_offset 3, -40
 2269              		.cfi_offset 4, -36
 2270              		.cfi_offset 5, -32
 2271              		.cfi_offset 6, -28
 2272              		.cfi_offset 7, -24
 2273              		.cfi_offset 8, -20
 2274              		.cfi_offset 9, -16
 2275              		.cfi_offset 10, -12
 2276              		.cfi_offset 11, -8
 2277              		.cfi_offset 14, -4
 2278 0004 2DED108B 		vpush.64	{d8, d9, d10, d11, d12, d13, d14, d15}
 2279              		.cfi_def_cfa_offset 104
 2280              		.cfi_offset 80, -104
ARM GAS  C:\Users\CFAR\AppData\Local\Temp\cc0Op7No.s 			page 41


 2281              		.cfi_offset 81, -100
 2282              		.cfi_offset 82, -96
 2283              		.cfi_offset 83, -92
 2284              		.cfi_offset 84, -88
 2285              		.cfi_offset 85, -84
 2286              		.cfi_offset 86, -80
 2287              		.cfi_offset 87, -76
 2288              		.cfi_offset 88, -72
 2289              		.cfi_offset 89, -68
 2290              		.cfi_offset 90, -64
 2291              		.cfi_offset 91, -60
 2292              		.cfi_offset 92, -56
 2293              		.cfi_offset 93, -52
 2294              		.cfi_offset 94, -48
 2295              		.cfi_offset 95, -44
 2296              		.loc 1 803 0
 2297 0008 8946     		mov	r9, r1
 2298 000a B0EE409A 		vmov.f32	s18, s0
 2299 000e B0EE60AA 		vmov.f32	s20, s1
 2300 0012 B0EE41CA 		vmov.f32	s24, s2
 2301 0016 F0EE61AA 		vmov.f32	s21, s3
 2302 001a B0EE42BA 		vmov.f32	s22, s4
 2303 001e 9046     		mov	r8, r2
 2304 0020 0746     		mov	r7, r0
 2305              		.loc 1 806 0
 2306 0022 FFF7FEFF 		bl	mempools_alloc_mcconf
 2307              	.LVL367:
 2308 0026 0546     		mov	r5, r0
 2309              	.LVL368:
 2310              		.loc 1 807 0
 2311 0028 FFF7FEFF 		bl	mempools_alloc_mcconf
 2312              	.LVL369:
 2313 002c 0646     		mov	r6, r0
 2314              	.LVL370:
 2315              		.loc 1 809 0
 2316 002e FFF7FEFF 		bl	mc_interface_get_configuration
 2317              	.LVL371:
 2318 0032 4FF4FA72 		mov	r2, #500
 2319 0036 0146     		mov	r1, r0
 2320 0038 2846     		mov	r0, r5
 2321 003a FFF7FEFF 		bl	memcpy
 2322              	.LVL372:
 2323              		.loc 1 810 0
 2324 003e 2946     		mov	r1, r5
 2325 0040 4FF4FA72 		mov	r2, #500
 2326 0044 3046     		mov	r0, r6
 2327 0046 FFF7FEFF 		bl	memcpy
 2328              	.LVL373:
 2329              		.loc 1 813 0
 2330 004a 0023     		movs	r3, #0
 2331              		.loc 1 814 0
 2332 004c D749     		ldr	r1, .L250
 2333 004e C5F8B010 		str	r1, [r5, #176]	@ float
 2334              		.loc 1 812 0
 2335 0052 0220     		movs	r0, #2
 2336              		.loc 1 815 0
 2337 0054 4FF07E52 		mov	r2, #1065353216
ARM GAS  C:\Users\CFAR\AppData\Local\Temp\cc0Op7No.s 			page 42


 2338              		.loc 1 812 0
 2339 0058 A870     		strb	r0, [r5, #2]
 2340              		.loc 1 815 0
 2341 005a C5F8B420 		str	r2, [r5, #180]	@ float
 2342              		.loc 1 813 0
 2343 005e 85F81831 		strb	r3, [r5, #280]
 2344              		.loc 1 816 0
 2345 0062 85F83C31 		strb	r3, [r5, #316]
 2346              		.loc 1 817 0
 2347 0066 2846     		mov	r0, r5
 2348 0068 FFF7FEFF 		bl	mc_interface_set_configuration
 2349              	.LVL374:
 2350 006c 4FF4FA74 		mov	r4, #500
 2351 0070 04E0     		b	.L200
 2352              	.LVL375:
 2353              	.L241:
 2354              	.LBB58:
 2355              		.loc 1 824 0 discriminator 2
 2356 0072 6420     		movs	r0, #100
 2357 0074 FFF7FEFF 		bl	chThdSleep
 2358              	.LVL376:
 2359              		.loc 1 820 0 discriminator 2
 2360 0078 013C     		subs	r4, r4, #1
 2361              	.LVL377:
 2362 007a 03D0     		beq	.L199
 2363              	.LVL378:
 2364              	.L200:
 2365              		.loc 1 821 0
 2366 007c FFF7FEFF 		bl	mc_interface_get_fault
 2367              	.LVL379:
 2368 0080 0028     		cmp	r0, #0
 2369 0082 F6D1     		bne	.L241
 2370              	.LVL380:
 2371              	.L199:
 2372              	.LBE58:
 2373              		.loc 1 827 0
 2374 0084 FFF7FEFF 		bl	mc_interface_get_fault
 2375              	.LVL381:
 2376 0088 0446     		mov	r4, r0
 2377 008a 0028     		cmp	r0, #0
 2378 008c 40F09680 		bne	.L242
 2379              		.loc 1 836 0
 2380 0090 42F21070 		movw	r0, #10000
 2381 0094 FFF7FEFF 		bl	chThdSleep
 2382              	.LVL382:
 2383              		.loc 1 839 0
 2384 0098 FFF7FEFF 		bl	timeout_get_timeout_msec
 2385              	.LVL383:
 2386 009c 8246     		mov	r10, r0
 2387              	.LVL384:
 2388              		.loc 1 840 0
 2389 009e FFF7FEFF 		bl	timeout_get_brake_current
 2390              	.LVL385:
 2391 00a2 F0EE40BA 		vmov.f32	s23, s0
 2392              	.LVL386:
 2393              		.loc 1 841 0
 2394 00a6 FFF7FEFF 		bl	timeout_reset
ARM GAS  C:\Users\CFAR\AppData\Local\Temp\cc0Op7No.s 			page 43


 2395              	.LVL387:
 2396              		.loc 1 842 0
 2397 00aa 9FEDC10A 		vldr.32	s0, .L250+4
 2398              	.LBB59:
 2399              		.loc 1 851 0
 2400 00ae DFEDC18A 		vldr.32	s17, .L250+8
 2401              	.LBE59:
 2402              		.loc 1 842 0
 2403 00b2 4EF66020 		movw	r0, #60000
 2404              	.LBB60:
 2405              		.loc 1 851 0
 2406 00b6 B0EE408A 		vmov.f32	s16, s0
 2407              	.LBE60:
 2408              		.loc 1 842 0
 2409 00ba FFF7FEFF 		bl	timeout_configure
 2410              	.LVL388:
 2411              		.loc 1 844 0
 2412 00be FFF7FEFF 		bl	mc_interface_lock
 2413              	.LVL389:
 2414              	.L203:
 2415              	.LBB61:
 2416              		.loc 1 851 0 discriminator 3
 2417 00c2 07EE904A 		vmov	s15, r4	@ int
 2418 00c6 B8EEE70A 		vcvt.f32.s32	s0, s15
 2419 00ca F0EE480A 		vmov.f32	s1, s16
 2420 00ce 20EE090A 		vmul.f32	s0, s0, s18
 2421              		.loc 1 850 0 discriminator 3
 2422 00d2 0134     		adds	r4, r4, #1
 2423              	.LVL390:
 2424              		.loc 1 851 0 discriminator 3
 2425 00d4 80EE280A 		vdiv.f32	s0, s0, s17
 2426 00d8 FFF7FEFF 		bl	mcpwm_foc_set_openloop
 2427              	.LVL391:
 2428              		.loc 1 852 0 discriminator 3
 2429 00dc 0A20     		movs	r0, #10
 2430 00de FFF7FEFF 		bl	chThdSleep
 2431              	.LVL392:
 2432              		.loc 1 850 0 discriminator 3
 2433 00e2 C82C     		cmp	r4, #200
 2434 00e4 EDD1     		bne	.L203
 2435              	.LBE61:
 2436              		.loc 1 856 0
 2437 00e6 9FEDB28A 		vldr.32	s16, .L250+4
 2438              	.LBB62:
 2439 00ea 4FF47A74 		mov	r4, #1000
 2440              	.LVL393:
 2441              	.LBE62:
 2442              		.loc 1 855 0
 2443 00ee F0EE488A 		vmov.f32	s17, s16
 2444              	.LBB63:
 2445              		.loc 1 859 0
 2446 00f2 F7EE009A 		vmov.f32	s19, #1.0e+0
 2447              	.L204:
 2448              	.LVL394:
 2449              		.loc 1 858 0 discriminator 3
 2450 00f6 FFF7FEFF 		bl	mc_interface_get_duty_cycle_now
 2451              	.LVL395:
ARM GAS  C:\Users\CFAR\AppData\Local\Temp\cc0Op7No.s 			page 44


 2452              		.loc 1 860 0 discriminator 3
 2453 00fa 0A20     		movs	r0, #10
 2454              		.loc 1 858 0 discriminator 3
 2455 00fc B0EEC00A 		vabs.f32	s0, s0
 2456 0100 78EE808A 		vadd.f32	s17, s17, s0
 2457              	.LVL396:
 2458              		.loc 1 860 0 discriminator 3
 2459 0104 FFF7FEFF 		bl	chThdSleep
 2460              	.LVL397:
 2461              		.loc 1 857 0 discriminator 3
 2462 0108 013C     		subs	r4, r4, #1
 2463              	.LVL398:
 2464              		.loc 1 859 0 discriminator 3
 2465 010a 38EE298A 		vadd.f32	s16, s16, s19
 2466              	.LVL399:
 2467              		.loc 1 857 0 discriminator 3
 2468 010e F2D1     		bne	.L204
 2469              	.LBE63:
 2470              		.loc 1 864 0
 2471 0110 DFEDA79A 		vldr.32	s19, .L250+4
 2472              	.LBB64:
 2473              		.loc 1 868 0
 2474 0114 9FEDA8DA 		vldr.32	s26, .L250+12
 2475              		.loc 1 885 0
 2476 0118 9FEDA8FA 		vldr.32	s30, .L250+16
 2477              		.loc 1 891 0
 2478 011c DFEDA8EA 		vldr.32	s29, .L250+20
 2479              		.loc 1 897 0
 2480 0120 DFEDA8DA 		vldr.32	s27, .L250+24
 2481              	.LBE64:
 2482              		.loc 1 863 0
 2483 0124 88EE88EA 		vdiv.f32	s28, s17, s16
 2484              	.LVL400:
 2485              	.LBB65:
 2486              		.loc 1 880 0
 2487 0128 43F6982B 		movw	fp, #15000
 2488              	.LBE65:
 2489              		.loc 1 847 0
 2490 012c F0EE69CA 		vmov.f32	s25, s19
 2491              		.loc 1 867 0
 2492 0130 30E0     		b	.L205
 2493              	.LVL401:
 2494              	.L246:
 2495              	.LBB66:
 2496              		.loc 1 869 0 discriminator 1
 2497 0132 F1EE6C0A 		vneg.f32	s1, s25
 2498              	.L206:
 2499              		.loc 1 869 0 is_stmt 0 discriminator 4
 2500 0136 B0EE490A 		vmov.f32	s0, s18
 2501 013a FFF7FEFF 		bl	mcpwm_foc_set_openloop
 2502              	.LVL402:
 2503              		.loc 1 871 0 is_stmt 1 discriminator 4
 2504 013e 0A20     		movs	r0, #10
 2505 0140 FFF7FEFF 		bl	chThdSleep
 2506              	.LVL403:
 2507              		.loc 1 874 0 discriminator 4
 2508 0144 FFF7FEFF 		bl	mc_interface_get_duty_cycle_now
ARM GAS  C:\Users\CFAR\AppData\Local\Temp\cc0Op7No.s 			page 45


 2509              	.LVL404:
 2510 0148 B0EEC00A 		vabs.f32	s0, s0
 2511              		.loc 1 877 0 discriminator 4
 2512 014c F4EE409A 		vcmp.f32	s19, s0
 2513 0150 F1EE10FA 		vmrs	APSR_nzcv, FPSCR
 2514              		.loc 1 872 0 discriminator 4
 2515 0154 04F10104 		add	r4, r4, #1
 2516              	.LVL405:
 2517              		.loc 1 877 0 discriminator 4
 2518 0158 48BF     		it	mi
 2519 015a F0EE409A 		vmovmi.f32	s19, s0
 2520              	.LVL406:
 2521              		.loc 1 880 0 discriminator 4
 2522 015e 5C45     		cmp	r4, fp
 2523 0160 00F01681 		beq	.L243
 2524              		.loc 1 885 0
 2525 0164 B4F57A6F 		cmp	r4, #4000
 2526 0168 0FDD     		ble	.L211
 2527              		.loc 1 885 0 is_stmt 0 discriminator 1
 2528 016a 69EE8F7A 		vmul.f32	s15, s19, s30
 2529 016e F4EEC07A 		vcmpe.f32	s15, s0
 2530 0172 F1EE10FA 		vmrs	APSR_nzcv, FPSCR
 2531 0176 00F30281 		bgt	.L244
 2532              		.loc 1 891 0 is_stmt 1 discriminator 1
 2533 017a 6EEE2E7A 		vmul.f32	s15, s28, s29
 2534 017e F4EECA7A 		vcmpe.f32	s15, s20
 2535 0182 F1EE10FA 		vmrs	APSR_nzcv, FPSCR
 2536 0186 00F3F280 		bgt	.L245
 2537              	.L211:
 2538              		.loc 1 897 0
 2539 018a F4EEEDCA 		vcmpe.f32	s25, s27
 2540 018e F1EE10FA 		vmrs	APSR_nzcv, FPSCR
 2541 0192 22DA     		bge	.L215
 2542              	.LVL407:
 2543              	.L205:
 2544              	.LBE66:
 2545              		.loc 1 867 0
 2546 0194 FFF7FEFF 		bl	mc_interface_get_duty_cycle_now
 2547              	.LVL408:
 2548 0198 B0EEC00A 		vabs.f32	s0, s0
 2549 019c B4EECA0A 		vcmpe.f32	s0, s20
 2550 01a0 F1EE10FA 		vmrs	APSR_nzcv, FPSCR
 2551 01a4 19D5     		bpl	.L215
 2552              	.LBB67:
 2553              		.loc 1 868 0
 2554 01a6 CCEE0D7A 		vdiv.f32	s15, s24, s26
 2555              		.loc 1 869 0
 2556 01aa 95F8BD31 		ldrb	r3, [r5, #445]	@ zero_extendqisi2
 2557              		.loc 1 868 0
 2558 01ae 7CEEA7CA 		vadd.f32	s25, s25, s15
 2559              		.loc 1 869 0
 2560 01b2 002B     		cmp	r3, #0
 2561 01b4 BDD1     		bne	.L246
 2562              		.loc 1 868 0
 2563 01b6 F0EE6C0A 		vmov.f32	s1, s25
 2564 01ba BCE7     		b	.L206
 2565              	.LVL409:
ARM GAS  C:\Users\CFAR\AppData\Local\Temp\cc0Op7No.s 			page 46


 2566              	.L242:
 2567              	.LBE67:
 2568              		.loc 1 828 0
 2569 01bc 3046     		mov	r0, r6
 2570 01be FFF7FEFF 		bl	mc_interface_set_configuration
 2571              	.LVL410:
 2572              		.loc 1 829 0
 2573 01c2 2846     		mov	r0, r5
 2574 01c4 FFF7FEFF 		bl	mempools_free_mcconf
 2575              	.LVL411:
 2576              		.loc 1 830 0
 2577 01c8 3046     		mov	r0, r6
 2578 01ca FFF7FEFF 		bl	mempools_free_mcconf
 2579              	.LVL412:
 2580              		.loc 1 970 0
 2581 01ce BDEC108B 		vldm	sp!, {d8-d15}
 2582              		.cfi_remember_state
 2583              		.cfi_restore 94
 2584              		.cfi_restore 95
 2585              		.cfi_restore 92
 2586              		.cfi_restore 93
 2587              		.cfi_restore 90
 2588              		.cfi_restore 91
 2589              		.cfi_restore 88
 2590              		.cfi_restore 89
 2591              		.cfi_restore 86
 2592              		.cfi_restore 87
 2593              		.cfi_restore 84
 2594              		.cfi_restore 85
 2595              		.cfi_restore 82
 2596              		.cfi_restore 83
 2597              		.cfi_restore 80
 2598              		.cfi_restore 81
 2599              		.cfi_def_cfa_offset 40
 2600              	.LVL413:
 2601              		.loc 1 831 0
 2602 01d2 0024     		movs	r4, #0
 2603              		.loc 1 970 0
 2604 01d4 2046     		mov	r0, r4
 2605 01d6 BDE8F88F 		pop	{r3, r4, r5, r6, r7, r8, r9, r10, fp, pc}
 2606              	.LVL414:
 2607              	.L215:
 2608              		.cfi_restore_state
 2609              		.loc 1 902 0
 2610 01da 42F21070 		movw	r0, #10000
 2611              	.LBB68:
 2612              		.loc 1 909 0
 2613 01de 9FED748A 		vldr.32	s16, .L250+4
 2614              	.LVL415:
 2615              	.LBE68:
 2616              		.loc 1 902 0
 2617 01e2 FFF7FEFF 		bl	chThdSleep
 2618              	.LVL416:
 2619              	.LBB77:
 2620              		.loc 1 908 0
 2621 01e6 B0EE48AA 		vmov.f32	s20, s16
 2622              	.LVL417:
ARM GAS  C:\Users\CFAR\AppData\Local\Temp\cc0Op7No.s 			page 47


 2623              		.loc 1 907 0
 2624 01ea F0EE489A 		vmov.f32	s19, s16
 2625              	.LVL418:
 2626              		.loc 1 906 0
 2627 01ee B0EE489A 		vmov.f32	s18, s16
 2628              	.LVL419:
 2629              		.loc 1 905 0
 2630 01f2 F0EE488A 		vmov.f32	s17, s16
 2631              	.LBE77:
 2632              		.loc 1 902 0
 2633 01f6 42F21074 		movw	r4, #10000
 2634              	.LBB78:
 2635              	.LBB69:
 2636              		.loc 1 916 0
 2637 01fa B7EE00CA 		vmov.f32	s24, #1.0e+0
 2638              	.LVL420:
 2639              	.L217:
 2640              		.loc 1 912 0 discriminator 3
 2641 01fe FFF7FEFF 		bl	mcpwm_foc_get_vq
 2642              	.LVL421:
 2643 0202 78EE808A 		vadd.f32	s17, s17, s0
 2644              	.LVL422:
 2645              		.loc 1 913 0 discriminator 3
 2646 0206 FFF7FEFF 		bl	mcpwm_foc_get_vd
 2647              	.LVL423:
 2648 020a 39EE009A 		vadd.f32	s18, s18, s0
 2649              	.LVL424:
 2650              		.loc 1 914 0 discriminator 3
 2651 020e FFF7FEFF 		bl	mcpwm_foc_get_iq
 2652              	.LVL425:
 2653 0212 79EE809A 		vadd.f32	s19, s19, s0
 2654              	.LVL426:
 2655              		.loc 1 915 0 discriminator 3
 2656 0216 FFF7FEFF 		bl	mcpwm_foc_get_id
 2657              	.LVL427:
 2658              		.loc 1 917 0 discriminator 3
 2659 021a 0120     		movs	r0, #1
 2660              		.loc 1 915 0 discriminator 3
 2661 021c 3AEE00AA 		vadd.f32	s20, s20, s0
 2662              	.LVL428:
 2663              		.loc 1 917 0 discriminator 3
 2664 0220 FFF7FEFF 		bl	chThdSleep
 2665              	.LVL429:
 2666              		.loc 1 911 0 discriminator 3
 2667 0224 013C     		subs	r4, r4, #1
 2668              	.LVL430:
 2669              		.loc 1 916 0 discriminator 3
 2670 0226 38EE0C8A 		vadd.f32	s16, s16, s24
 2671              	.LVL431:
 2672              		.loc 1 911 0 discriminator 3
 2673 022a E8D1     		bne	.L217
 2674              	.LBE69:
 2675              		.loc 1 921 0
 2676 022c 89EE080A 		vdiv.f32	s0, s18, s16
 2677              		.loc 1 920 0
 2678 0230 88EE887A 		vdiv.f32	s14, s17, s16
 2679              	.LVL432:
ARM GAS  C:\Users\CFAR\AppData\Local\Temp\cc0Op7No.s 			page 48


 2680              		.loc 1 926 0
 2681 0234 20EE000A 		vmul.f32	s0, s0, s0
 2682              	.LVL433:
 2683              		.loc 1 925 0
 2684 0238 DFED637A 		vldr.32	s15, .L250+28
 2685              		.loc 1 926 0
 2686 023c A7EE070A 		vfma.f32	s0, s14, s14
 2687              		.loc 1 922 0
 2688 0240 89EE88CA 		vdiv.f32	s24, s19, s16
 2689              	.LVL434:
 2690 0244 B5EE400A 		vcmp.f32	s0, #0
 2691 0248 F1EE10FA 		vmrs	APSR_nzcv, FPSCR
 2692              		.loc 1 923 0
 2693 024c CAEE088A 		vdiv.f32	s17, s20, s16
 2694              	.LVL435:
 2695              		.loc 1 926 0
 2696 0250 B1EEC09A 		vsqrt.f32	s18, s0
 2697              	.LVL436:
 2698              		.loc 1 925 0
 2699 0254 6CEEA7CA 		vmul.f32	s25, s25, s15
 2700              	.LVL437:
 2701 0258 00F1A580 		bmi	.L247
 2702              	.LVL438:
 2703              	.L218:
 2704              		.loc 1 927 0
 2705 025c 28EEA80A 		vmul.f32	s0, s17, s17
 2706 0260 ACEE0C0A 		vfma.f32	s0, s24, s24
 2707 0264 B5EE400A 		vcmp.f32	s0, #0
 2708 0268 F1EE10FA 		vmrs	APSR_nzcv, FPSCR
 2709 026c F1EEC08A 		vsqrt.f32	s17, s0
 2710              	.LVL439:
 2711 0270 00F19680 		bmi	.L248
 2712              	.L219:
 2713              	.LVL440:
 2714              		.loc 1 934 0
 2715 0274 2846     		mov	r0, r5
 2716              		.loc 1 937 0
 2717 0276 44F62064 		movw	r4, #20000
 2718              		.loc 1 928 0
 2719 027a DFED547A 		vldr.32	s15, .L250+32
 2720              		.loc 1 933 0
 2721 027e DFED546A 		vldr.32	s13, .L250+36
 2722              		.loc 1 940 0
 2723 0282 9FED4B8A 		vldr.32	s16, .L250+4
 2724              	.LVL441:
 2725              	.LBB70:
 2726              	.LBB71:
 2727              		.loc 1 942 0
 2728 0286 9FED50AA 		vldr.32	s20, .L250+28
 2729              		.loc 1 943 0
 2730 028a DFED529A 		vldr.32	s19, .L250+40
 2731              	.LBE71:
 2732              	.LBE70:
 2733              		.loc 1 928 0
 2734 028e 27EEEA7A 		vnmul.f32	s14, s15, s21
 2735 0292 67EEE87A 		vnmul.f32	s15, s15, s17
 2736 0296 A7EE289A 		vfma.f32	s18, s14, s17
ARM GAS  C:\Users\CFAR\AppData\Local\Temp\cc0Op7No.s 			page 49


 2737              	.LVL442:
 2738              	.LBB75:
 2739              	.LBB72:
 2740              		.loc 1 948 0
 2741 029a B7EE00CA 		vmov.f32	s24, #1.0e+0
 2742              	.LVL443:
 2743              	.LBE72:
 2744              	.LBE75:
 2745              		.loc 1 928 0
 2746 029e 89EE2C7A 		vdiv.f32	s14, s18, s25
 2747              		.loc 1 939 0
 2748 02a2 F0EE488A 		vmov.f32	s17, s16
 2749              	.LVL444:
 2750              		.loc 1 928 0
 2751 02a6 A7EE8B7A 		vfma.f32	s14, s15, s22
 2752 02aa 87ED007A 		vstr.32	s14, [r7]
 2753              		.loc 1 930 0
 2754 02ae C5ED39AA 		vstr.32	s21, [r5, #228]
 2755              		.loc 1 931 0
 2756 02b2 85ED38BA 		vstr.32	s22, [r5, #224]
 2757              		.loc 1 932 0
 2758 02b6 3B68     		ldr	r3, [r7]	@ float
 2759 02b8 C5F8E830 		str	r3, [r5, #232]	@ float
 2760              		.loc 1 933 0
 2761 02bc D7ED007A 		vldr.32	s15, [r7]
 2762 02c0 67EEA77A 		vmul.f32	s15, s15, s15
 2763 02c4 86EEA77A 		vdiv.f32	s14, s13, s15
 2764 02c8 85ED3B7A 		vstr.32	s14, [r5, #236]
 2765              		.loc 1 934 0
 2766 02cc FFF7FEFF 		bl	mc_interface_set_configuration
 2767              	.LVL445:
 2768              		.loc 1 935 0
 2769 02d0 41F28830 		movw	r0, #5000
 2770 02d4 FFF7FEFF 		bl	chThdSleep
 2771              	.LVL446:
 2772              		.loc 1 936 0
 2773 02d8 B0EE480A 		vmov.f32	s0, s16
 2774 02dc FFF7FEFF 		bl	mcpwm_foc_set_current
 2775              	.LVL447:
 2776              		.loc 1 937 0
 2777 02e0 3220     		movs	r0, #50
 2778 02e2 FFF7FEFF 		bl	chThdSleep
 2779              	.LVL448:
 2780 02e6 0CE0     		b	.L221
 2781              	.LVL449:
 2782              	.L249:
 2783              	.LBB76:
 2784              	.LBB73:
 2785              		.loc 1 947 0 discriminator 2
 2786 02e8 FFF7FEFF 		bl	mcpwm_foc_get_vq
 2787              	.LVL450:
 2788 02ec 80EE090A 		vdiv.f32	s0, s0, s18
 2789              		.loc 1 949 0 discriminator 2
 2790 02f0 0120     		movs	r0, #1
 2791              		.loc 1 948 0 discriminator 2
 2792 02f2 38EE0C8A 		vadd.f32	s16, s16, s24
 2793              	.LVL451:
ARM GAS  C:\Users\CFAR\AppData\Local\Temp\cc0Op7No.s 			page 50


 2794              		.loc 1 947 0 discriminator 2
 2795 02f6 78EE808A 		vadd.f32	s17, s17, s0
 2796              	.LVL452:
 2797              		.loc 1 949 0 discriminator 2
 2798 02fa FFF7FEFF 		bl	chThdSleep
 2799              	.LVL453:
 2800              	.LBE73:
 2801              		.loc 1 941 0 discriminator 2
 2802 02fe 013C     		subs	r4, r4, #1
 2803              	.LVL454:
 2804 0300 0CD0     		beq	.L220
 2805              	.LVL455:
 2806              	.L221:
 2807              	.LBB74:
 2808              		.loc 1 942 0
 2809 0302 FFF7FEFF 		bl	mcpwm_foc_get_rpm_faster
 2810              	.LVL456:
 2811 0306 20EE0A9A 		vmul.f32	s18, s0, s20
 2812              	.LVL457:
 2813              		.loc 1 943 0
 2814 030a FFF7FEFF 		bl	mcpwm_foc_get_duty_cycle_now
 2815              	.LVL458:
 2816 030e B0EEC00A 		vabs.f32	s0, s0
 2817 0312 B4EEE90A 		vcmpe.f32	s0, s19
 2818 0316 F1EE10FA 		vmrs	APSR_nzcv, FPSCR
 2819 031a E5D5     		bpl	.L249
 2820              	.LVL459:
 2821              	.L220:
 2822              	.LBE74:
 2823              	.LBE76:
 2824              		.loc 1 954 0
 2825 031c B5EEC08A 		vcmpe.f32	s16, #0
 2826 0320 F1EE10FA 		vmrs	APSR_nzcv, FPSCR
 2827              		.loc 1 952 0
 2828 0324 88ED008A 		vstr.32	s16, [r8]
 2829              		.loc 1 954 0
 2830 0328 4FF00003 		mov	r3, #0
 2831 032c 1BDD     		ble	.L239
 2832              		.loc 1 955 0
 2833 032e C8EE887A 		vdiv.f32	s15, s17, s16
 2834              		.loc 1 960 0
 2835 0332 0124     		movs	r4, #1
 2836              		.loc 1 955 0
 2837 0334 C9ED007A 		vstr.32	s15, [r9]
 2838              	.LVL460:
 2839              	.L210:
 2840              	.LBE78:
 2841              		.loc 1 963 0
 2842 0338 B0EE6B0A 		vmov.f32	s0, s23
 2843 033c 5046     		mov	r0, r10
 2844 033e FFF7FEFF 		bl	timeout_configure
 2845              	.LVL461:
 2846              		.loc 1 964 0
 2847 0342 FFF7FEFF 		bl	mc_interface_unlock
 2848              	.LVL462:
 2849              		.loc 1 965 0
 2850 0346 FFF7FEFF 		bl	mc_interface_release_motor
ARM GAS  C:\Users\CFAR\AppData\Local\Temp\cc0Op7No.s 			page 51


 2851              	.LVL463:
 2852              		.loc 1 966 0
 2853 034a 3046     		mov	r0, r6
 2854 034c FFF7FEFF 		bl	mc_interface_set_configuration
 2855              	.LVL464:
 2856              		.loc 1 967 0
 2857 0350 2846     		mov	r0, r5
 2858 0352 FFF7FEFF 		bl	mempools_free_mcconf
 2859              	.LVL465:
 2860              		.loc 1 968 0
 2861 0356 3046     		mov	r0, r6
 2862 0358 FFF7FEFF 		bl	mempools_free_mcconf
 2863              	.LVL466:
 2864              		.loc 1 970 0
 2865 035c BDEC108B 		vldm	sp!, {d8-d15}
 2866              		.cfi_remember_state
 2867              		.cfi_restore 94
 2868              		.cfi_restore 95
 2869              		.cfi_restore 92
 2870              		.cfi_restore 93
 2871              		.cfi_restore 90
 2872              		.cfi_restore 91
 2873              		.cfi_restore 88
 2874              		.cfi_restore 89
 2875              		.cfi_restore 86
 2876              		.cfi_restore 87
 2877              		.cfi_restore 84
 2878              		.cfi_restore 85
 2879              		.cfi_restore 82
 2880              		.cfi_restore 83
 2881              		.cfi_restore 80
 2882              		.cfi_restore 81
 2883              		.cfi_def_cfa_offset 40
 2884              	.LVL467:
 2885 0360 2046     		mov	r0, r4
 2886 0362 BDE8F88F 		pop	{r3, r4, r5, r6, r7, r8, r9, r10, fp, pc}
 2887              	.LVL468:
 2888              	.L239:
 2889              		.cfi_restore_state
 2890              	.LBB79:
 2891              		.loc 1 957 0
 2892 0366 C9F80030 		str	r3, [r9]	@ float
 2893              		.loc 1 960 0
 2894 036a 0124     		movs	r4, #1
 2895 036c E4E7     		b	.L210
 2896              	.LVL469:
 2897              	.L245:
 2898              	.LBE79:
 2899              	.LBB80:
 2900              		.loc 1 893 0
 2901 036e 1A4B     		ldr	r3, .L250+44
 2902 0370 3B60     		str	r3, [r7]	@ float
 2903              	.LBE80:
 2904              		.loc 1 902 0
 2905 0372 42F21070 		movw	r0, #10000
 2906 0376 FFF7FEFF 		bl	chThdSleep
 2907              	.LVL470:
ARM GAS  C:\Users\CFAR\AppData\Local\Temp\cc0Op7No.s 			page 52


 2908              		.loc 1 804 0
 2909 037a 0024     		movs	r4, #0
 2910 037c DCE7     		b	.L210
 2911              	.LVL471:
 2912              	.L244:
 2913              	.LBB81:
 2914              		.loc 1 887 0
 2915 037e 4FF04043 		mov	r3, #-1073741824
 2916 0382 3B60     		str	r3, [r7]	@ float
 2917              	.LBE81:
 2918              		.loc 1 902 0
 2919 0384 42F21070 		movw	r0, #10000
 2920 0388 FFF7FEFF 		bl	chThdSleep
 2921              	.LVL472:
 2922              		.loc 1 804 0
 2923 038c 0024     		movs	r4, #0
 2924 038e D3E7     		b	.L210
 2925              	.LVL473:
 2926              	.L243:
 2927              	.LBB82:
 2928              		.loc 1 881 0
 2929 0390 124B     		ldr	r3, .L250+48
 2930 0392 3B60     		str	r3, [r7]	@ float
 2931              	.LVL474:
 2932              	.LBE82:
 2933              		.loc 1 902 0
 2934 0394 42F21070 		movw	r0, #10000
 2935 0398 FFF7FEFF 		bl	chThdSleep
 2936              	.LVL475:
 2937              		.loc 1 804 0
 2938 039c 0024     		movs	r4, #0
 2939 039e CBE7     		b	.L210
 2940              	.LVL476:
 2941              	.L248:
 2942              	.LBB83:
 2943              		.loc 1 927 0
 2944 03a0 FFF7FEFF 		bl	sqrtf
 2945              	.LVL477:
 2946 03a4 66E7     		b	.L219
 2947              	.LVL478:
 2948              	.L247:
 2949              		.loc 1 926 0
 2950 03a6 FFF7FEFF 		bl	sqrtf
 2951              	.LVL479:
 2952 03aa 57E7     		b	.L218
 2953              	.L251:
 2954              		.align	2
 2955              	.L250:
 2956 03ac 6F12033A 		.word	973279855
 2957 03b0 00000000 		.word	0
 2958 03b4 00004843 		.word	1128792064
 2959 03b8 00007A44 		.word	1148846080
 2960 03bc 3333333F 		.word	1060320051
 2961 03c0 CDCC8C3F 		.word	1066192077
 2962 03c4 00803B46 		.word	1178304512
 2963 03c8 5077D63D 		.word	1037465424
 2964 03cc ABAA2A3F 		.word	1059760811
ARM GAS  C:\Users\CFAR\AppData\Local\Temp\cc0Op7No.s 			page 53


 2965 03d0 0000FA43 		.word	1140457472
 2966 03d4 0AD7233C 		.word	1008981770
 2967 03d8 000040C0 		.word	-1069547520
 2968 03dc 000080BF 		.word	-1082130432
 2969              	.LBE83:
 2970              		.cfi_endproc
 2971              	.LFE270:
 2972              		.size	conf_general_measure_flux_linkage_openloop, .-conf_general_measure_flux_linkage_openloop
 2973              		.section	.text.conf_general_autodetect_apply_sensors_foc,"ax",%progbits
 2974              		.align	1
 2975              		.p2align 4,,15
 2976              		.global	conf_general_autodetect_apply_sensors_foc
 2977              		.syntax unified
 2978              		.thumb
 2979              		.thumb_func
 2980              		.fpu fpv4-sp-d16
 2981              		.type	conf_general_autodetect_apply_sensors_foc, %function
 2982              	conf_general_autodetect_apply_sensors_foc:
 2983              	.LFB271:
 2984              		.loc 1 991 0
 2985              		.cfi_startproc
 2986              		@ args = 0, pretend = 0, frame = 24
 2987              		@ frame_needed = 0, uses_anonymous_args = 0
 2988              	.LVL480:
 2989 0000 2DE9F047 		push	{r4, r5, r6, r7, r8, r9, r10, lr}
 2990              		.cfi_def_cfa_offset 32
 2991              		.cfi_offset 4, -32
 2992              		.cfi_offset 5, -28
 2993              		.cfi_offset 6, -24
 2994              		.cfi_offset 7, -20
 2995              		.cfi_offset 8, -16
 2996              		.cfi_offset 9, -12
 2997              		.cfi_offset 10, -8
 2998              		.cfi_offset 14, -4
 2999 0004 2DED068B 		vpush.64	{d8, d9, d10}
 3000              		.cfi_def_cfa_offset 56
 3001              		.cfi_offset 80, -56
 3002              		.cfi_offset 81, -52
 3003              		.cfi_offset 82, -48
 3004              		.cfi_offset 83, -44
 3005              		.cfi_offset 84, -40
 3006              		.cfi_offset 85, -36
 3007 0008 86B0     		sub	sp, sp, #24
 3008              		.cfi_def_cfa_offset 80
 3009              		.loc 1 991 0
 3010 000a B0EE408A 		vmov.f32	s16, s0
 3011 000e 8846     		mov	r8, r1
 3012 0010 0746     		mov	r7, r0
 3013              		.loc 1 994 0
 3014 0012 FFF7FEFF 		bl	mempools_alloc_mcconf
 3015              	.LVL481:
 3016 0016 0546     		mov	r5, r0
 3017              	.LVL482:
 3018              		.loc 1 995 0
 3019 0018 FFF7FEFF 		bl	mempools_alloc_mcconf
 3020              	.LVL483:
 3021 001c 0646     		mov	r6, r0
ARM GAS  C:\Users\CFAR\AppData\Local\Temp\cc0Op7No.s 			page 54


 3022              	.LVL484:
 3023              		.loc 1 997 0
 3024 001e FFF7FEFF 		bl	mc_interface_get_configuration
 3025              	.LVL485:
 3026 0022 4FF4FA72 		mov	r2, #500
 3027 0026 0146     		mov	r1, r0
 3028 0028 2846     		mov	r0, r5
 3029 002a FFF7FEFF 		bl	memcpy
 3030              	.LVL486:
 3031              		.loc 1 998 0
 3032 002e 2946     		mov	r1, r5
 3033 0030 4FF4FA72 		mov	r2, #500
 3034 0034 3046     		mov	r0, r6
 3035 0036 FFF7FEFF 		bl	memcpy
 3036              	.LVL487:
 3037              		.loc 1 1002 0
 3038 003a 8E4A     		ldr	r2, .L287
 3039 003c C5F8B020 		str	r2, [r5, #176]	@ float
 3040              		.loc 1 1000 0
 3041 0040 0220     		movs	r0, #2
 3042              		.loc 1 1001 0
 3043 0042 0021     		movs	r1, #0
 3044              		.loc 1 1003 0
 3045 0044 4FF07E53 		mov	r3, #1065353216
 3046              		.loc 1 1000 0
 3047 0048 A870     		strb	r0, [r5, #2]
 3048              		.loc 1 1001 0
 3049 004a 85F81811 		strb	r1, [r5, #280]
 3050              		.loc 1 1003 0
 3051 004e C5F8B430 		str	r3, [r5, #180]	@ float
 3052              		.loc 1 1004 0
 3053 0052 2846     		mov	r0, r5
 3054 0054 FFF7FEFF 		bl	mc_interface_set_configuration
 3055              	.LVL488:
 3056 0058 4FF4FA74 		mov	r4, #500
 3057 005c 04E0     		b	.L254
 3058              	.LVL489:
 3059              	.L282:
 3060              	.LBB84:
 3061              		.loc 1 1011 0 discriminator 2
 3062 005e 6420     		movs	r0, #100
 3063 0060 FFF7FEFF 		bl	chThdSleep
 3064              	.LVL490:
 3065              		.loc 1 1007 0 discriminator 2
 3066 0064 013C     		subs	r4, r4, #1
 3067              	.LVL491:
 3068 0066 03D0     		beq	.L253
 3069              	.LVL492:
 3070              	.L254:
 3071              		.loc 1 1008 0
 3072 0068 FFF7FEFF 		bl	mc_interface_get_fault
 3073              	.LVL493:
 3074 006c 0028     		cmp	r0, #0
 3075 006e F6D1     		bne	.L282
 3076              	.LVL494:
 3077              	.L253:
 3078              	.LBE84:
ARM GAS  C:\Users\CFAR\AppData\Local\Temp\cc0Op7No.s 			page 55


 3079              		.loc 1 1014 0
 3080 0070 FFF7FEFF 		bl	mc_interface_get_fault
 3081              	.LVL495:
 3082 0074 8246     		mov	r10, r0
 3083 0076 0028     		cmp	r0, #0
 3084 0078 40F0F080 		bne	.L283
 3085              		.loc 1 1023 0
 3086 007c 42F21070 		movw	r0, #10000
 3087 0080 FFF7FEFF 		bl	chThdSleep
 3088              	.LVL496:
 3089              		.loc 1 1026 0
 3090 0084 FFF7FEFF 		bl	timeout_get_timeout_msec
 3091              	.LVL497:
 3092 0088 8146     		mov	r9, r0
 3093              	.LVL498:
 3094              		.loc 1 1027 0
 3095 008a FFF7FEFF 		bl	timeout_get_brake_current
 3096              	.LVL499:
 3097 008e B0EE40AA 		vmov.f32	s20, s0
 3098              	.LVL500:
 3099              		.loc 1 1028 0
 3100 0092 FFF7FEFF 		bl	timeout_reset
 3101              	.LVL501:
 3102              		.loc 1 1029 0
 3103 0096 9FED780A 		vldr.32	s0, .L287+4
 3104 009a 4EF66020 		movw	r0, #60000
 3105 009e FFF7FEFF 		bl	timeout_configure
 3106              	.LVL502:
 3107              		.loc 1 1031 0
 3108 00a2 FFF7FEFF 		bl	mc_interface_lock
 3109              	.LVL503:
 3110              		.loc 1 1035 0
 3111 00a6 2846     		mov	r0, r5
 3112              		.loc 1 1034 0
 3113 00a8 85F8BCA1 		strb	r10, [r5, #444]
 3114              		.loc 1 1035 0
 3115 00ac FFF7FEFF 		bl	mc_interface_set_configuration
 3116              	.LVL504:
 3117              		.loc 1 1038 0
 3118 00b0 B0EE480A 		vmov.f32	s0, s16
 3119 00b4 04A8     		add	r0, sp, #16
 3120 00b6 FFF7FEFF 		bl	mcpwm_foc_hall_detect
 3121              	.LVL505:
 3122 00ba 0446     		mov	r4, r0
 3123              	.LVL506:
 3124              		.loc 1 1041 0
 3125 00bc FFF7FEFF 		bl	mc_interface_lock
 3126              	.LVL507:
 3127              		.loc 1 1045 0
 3128 00c0 0223     		movs	r3, #2
 3129              		.loc 1 1043 0
 3130 00c2 7CB3     		cbz	r4, .L257
 3131              		.loc 1 1045 0
 3132 00c4 86F81831 		strb	r3, [r6, #280]
 3133              	.LVL508:
 3134              		.loc 1 1044 0
 3135 00c8 86F8BCA1 		strb	r10, [r6, #444]
ARM GAS  C:\Users\CFAR\AppData\Local\Temp\cc0Op7No.s 			page 56


 3136 00cc 0DF10F02 		add	r2, sp, #15
 3137 00d0 06F21913 		addw	r3, r6, #281
 3138 00d4 06F22110 		addw	r0, r6, #289
 3139              	.LVL509:
 3140              	.L258:
 3141              	.LBB85:
 3142              		.loc 1 1047 0 discriminator 3
 3143 00d8 12F8011F 		ldrb	r1, [r2, #1]!	@ zero_extendqisi2
 3144              	.LVL510:
 3145 00dc 03F8011B 		strb	r1, [r3], #1
 3146              	.LVL511:
 3147              		.loc 1 1046 0 discriminator 3
 3148 00e0 9842     		cmp	r0, r3
 3149 00e2 F9D1     		bne	.L258
 3150              	.LBE85:
 3151              		.loc 1 1050 0
 3152 00e4 0124     		movs	r4, #1
 3153              	.LVL512:
 3154              	.L259:
 3155              		.loc 1 1104 0
 3156 00e6 4846     		mov	r0, r9
 3157 00e8 B0EE4A0A 		vmov.f32	s0, s20
 3158 00ec FFF7FEFF 		bl	timeout_configure
 3159              	.LVL513:
 3160              		.loc 1 1105 0
 3161 00f0 FFF7FEFF 		bl	mc_interface_unlock
 3162              	.LVL514:
 3163              		.loc 1 1106 0
 3164 00f4 FFF7FEFF 		bl	mc_interface_release_motor
 3165              	.LVL515:
 3166              		.loc 1 1107 0
 3167 00f8 3046     		mov	r0, r6
 3168 00fa FFF7FEFF 		bl	mc_interface_set_configuration
 3169              	.LVL516:
 3170              		.loc 1 1111 0
 3171 00fe 002F     		cmp	r7, #0
 3172 0100 40F09980 		bne	.L284
 3173              		.loc 1 1116 0
 3174 0104 B8F1000F 		cmp	r8, #0
 3175 0108 40F0A380 		bne	.L285
 3176              	.L267:
 3177              		.loc 1 1121 0
 3178 010c 2846     		mov	r0, r5
 3179 010e FFF7FEFF 		bl	mempools_free_mcconf
 3180              	.LVL517:
 3181              		.loc 1 1122 0
 3182 0112 3046     		mov	r0, r6
 3183 0114 FFF7FEFF 		bl	mempools_free_mcconf
 3184              	.LVL518:
 3185              	.L252:
 3186              		.loc 1 1125 0
 3187 0118 2046     		mov	r0, r4
 3188 011a 06B0     		add	sp, sp, #24
 3189              		.cfi_remember_state
 3190              		.cfi_def_cfa_offset 56
 3191              		@ sp needed
 3192 011c BDEC068B 		vldm	sp!, {d8-d10}
ARM GAS  C:\Users\CFAR\AppData\Local\Temp\cc0Op7No.s 			page 57


 3193              		.cfi_restore 84
 3194              		.cfi_restore 85
 3195              		.cfi_restore 82
 3196              		.cfi_restore 83
 3197              		.cfi_restore 80
 3198              		.cfi_restore 81
 3199              		.cfi_def_cfa_offset 32
 3200              	.LVL519:
 3201 0120 BDE8F087 		pop	{r4, r5, r6, r7, r8, r9, r10, pc}
 3202              	.LVL520:
 3203              	.L257:
 3204              		.cfi_restore_state
 3205              	.LBB86:
 3206              		.loc 1 1056 0
 3207 0124 85F8BC31 		strb	r3, [r5, #444]
 3208              		.loc 1 1057 0
 3209 0128 2846     		mov	r0, r5
 3210 012a FFF7FEFF 		bl	mc_interface_set_configuration
 3211              	.LVL521:
 3212              	.LBB87:
 3213              		.loc 1 1060 0
 3214 012e 9FED539A 		vldr.32	s18, .L287+8
 3215 0132 DFED518A 		vldr.32	s17, .L287+4
 3216              	.LVL522:
 3217              	.L260:
 3218              		.loc 1 1060 0 is_stmt 0 discriminator 3
 3219 0136 07EE904A 		vmov	s15, r4	@ int
 3220 013a B8EEE70A 		vcvt.f32.s32	s0, s15
 3221 013e F0EE680A 		vmov.f32	s1, s17
 3222 0142 20EE080A 		vmul.f32	s0, s0, s16
 3223              		.loc 1 1059 0 is_stmt 1 discriminator 3
 3224 0146 0134     		adds	r4, r4, #1
 3225              	.LVL523:
 3226              		.loc 1 1060 0 discriminator 3
 3227 0148 80EE090A 		vdiv.f32	s0, s0, s18
 3228 014c FFF7FEFF 		bl	mcpwm_foc_set_openloop_phase
 3229              	.LVL524:
 3230              		.loc 1 1061 0 discriminator 3
 3231 0150 0A20     		movs	r0, #10
 3232 0152 FFF7FEFF 		bl	chThdSleep
 3233              	.LVL525:
 3234              		.loc 1 1059 0 discriminator 3
 3235 0156 B4F57A7F 		cmp	r4, #1000
 3236 015a ECD1     		bne	.L260
 3237              	.LBE87:
 3238              		.loc 1 1064 0
 3239 015c FFF7FEFF 		bl	encoder_read_deg
 3240              	.LVL526:
 3241              		.loc 1 1065 0
 3242 0160 9FED459A 		vldr.32	s18, .L287+4
 3243              	.LBB88:
 3244              		.loc 1 1068 0
 3245 0164 DFED468A 		vldr.32	s17, .L287+12
 3246 0168 DFED469A 		vldr.32	s19, .L287+16
 3247              	.LBE88:
 3248              		.loc 1 1064 0
 3249 016c F0EE40AA 		vmov.f32	s21, s0
ARM GAS  C:\Users\CFAR\AppData\Local\Temp\cc0Op7No.s 			page 58


 3250              	.LVL527:
 3251              	.LBB89:
 3252              		.loc 1 1068 0
 3253 0170 F0EE490A 		vmov.f32	s1, s18
 3254 0174 0024     		movs	r4, #0
 3255              	.LVL528:
 3256              	.L261:
 3257              		.loc 1 1069 0
 3258 0176 B0EE480A 		vmov.f32	s0, s16
 3259 017a FFF7FEFF 		bl	mcpwm_foc_set_openloop_phase
 3260              	.LVL529:
 3261 017e 0134     		adds	r4, r4, #1
 3262              	.LVL530:
 3263              		.loc 1 1070 0
 3264 0180 3220     		movs	r0, #50
 3265 0182 FFF7FEFF 		bl	chThdSleep
 3266              	.LVL531:
 3267              		.loc 1 1072 0
 3268 0186 5B2C     		cmp	r4, #91
 3269 0188 4ED0     		beq	.L286
 3270              		.loc 1 1068 0 discriminator 2
 3271 018a 07EE904A 		vmov	s15, r4	@ int
 3272 018e F8EEE70A 		vcvt.f32.s32	s1, s15
 3273 0192 F4EEE80A 		vcmpe.f32	s1, s17
 3274 0196 F1EE10FA 		vmrs	APSR_nzcv, FPSCR
 3275 019a ECD4     		bmi	.L261
 3276              	.LBE89:
 3277              		.loc 1 1077 0
 3278 019c FFF7FEFF 		bl	encoder_read_deg
 3279              	.LVL532:
 3280 01a0 F0EE408A 		vmov.f32	s17, s0
 3281              	.LVL533:
 3282              		.loc 1 1078 0
 3283 01a4 F0EE400A 		vmov.f32	s1, s0
 3284 01a8 B0EE6A0A 		vmov.f32	s0, s21
 3285              	.LVL534:
 3286 01ac FFF7FEFF 		bl	utils_angle_difference
 3287              	.LVL535:
 3288              		.loc 1 1079 0
 3289 01b0 F0EE680A 		vmov.f32	s1, s17
 3290              		.loc 1 1078 0
 3291 01b4 F0EEC08A 		vabs.f32	s17, s0
 3292              	.LVL536:
 3293              		.loc 1 1079 0
 3294 01b8 B0EE490A 		vmov.f32	s0, s18
 3295 01bc FFF7FEFF 		bl	utils_angle_difference
 3296              	.LVL537:
 3297              		.loc 1 1081 0
 3298 01c0 F0EE007A 		vmov.f32	s15, #2.0e+0
 3299 01c4 F4EEE78A 		vcmpe.f32	s17, s15
 3300 01c8 F1EE10FA 		vmrs	APSR_nzcv, FPSCR
 3301 01cc 28DD     		ble	.L264
 3302              		.loc 1 1081 0 is_stmt 0 discriminator 1
 3303 01ce F6EE007A 		vmov.f32	s15, #5.0e-1
 3304              		.loc 1 1079 0 is_stmt 1 discriminator 1
 3305 01d2 B0EEC00A 		vabs.f32	s0, s0
 3306              	.LVL538:
ARM GAS  C:\Users\CFAR\AppData\Local\Temp\cc0Op7No.s 			page 59


 3307              		.loc 1 1081 0 discriminator 1
 3308 01d6 A8EEE70A 		vfms.f32	s0, s17, s15
 3309              	.LVL539:
 3310 01da F5EE007A 		vmov.f32	s15, #2.5e-1
 3311 01de 68EEA78A 		vmul.f32	s17, s17, s15
 3312              	.LVL540:
 3313 01e2 B4EEE80A 		vcmpe.f32	s0, s17
 3314 01e6 F1EE10FA 		vmrs	APSR_nzcv, FPSCR
 3315 01ea 19D5     		bpl	.L264
 3316              	.LBB90:
 3317              		.loc 1 1084 0
 3318 01ec 0DF10703 		add	r3, sp, #7
 3319 01f0 03AA     		add	r2, sp, #12
 3320 01f2 02A9     		add	r1, sp, #8
 3321 01f4 B0EE480A 		vmov.f32	s0, s16
 3322 01f8 0020     		movs	r0, #0
 3323 01fa FFF7FEFF 		bl	mcpwm_foc_encoder_detect
 3324              	.LVL541:
 3325              		.loc 1 1087 0
 3326 01fe 029A     		ldr	r2, [sp, #8]	@ float
 3327              		.loc 1 1088 0
 3328 0200 0399     		ldr	r1, [sp, #12]	@ float
 3329              		.loc 1 1089 0
 3330 0202 9DF80730 		ldrb	r3, [sp, #7]	@ zero_extendqisi2
 3331              		.loc 1 1087 0
 3332 0206 C6F8C020 		str	r2, [r6, #192]	@ float
 3333              		.loc 1 1085 0
 3334 020a 0224     		movs	r4, #2
 3335              	.LVL542:
 3336              		.loc 1 1086 0
 3337 020c 0122     		movs	r2, #1
 3338              		.loc 1 1088 0
 3339 020e C6F8C810 		str	r1, [r6, #200]	@ float
 3340              		.loc 1 1085 0
 3341 0212 86F8BC41 		strb	r4, [r6, #444]
 3342              		.loc 1 1086 0
 3343 0216 86F81821 		strb	r2, [r6, #280]
 3344              		.loc 1 1089 0
 3345 021a 86F8C430 		strb	r3, [r6, #196]
 3346              	.LVL543:
 3347 021e 62E7     		b	.L259
 3348              	.LVL544:
 3349              	.L264:
 3350              	.LBE90:
 3351              	.LBE86:
 3352              		.loc 1 1099 0
 3353 0220 0024     		movs	r4, #0
 3354              	.LVL545:
 3355 0222 86F81841 		strb	r4, [r6, #280]
 3356              	.LVL546:
 3357 0226 5EE7     		b	.L259
 3358              	.LVL547:
 3359              	.L286:
 3360              	.LBB92:
 3361              	.LBB91:
 3362              		.loc 1 1073 0
 3363 0228 FFF7FEFF 		bl	encoder_read_deg
ARM GAS  C:\Users\CFAR\AppData\Local\Temp\cc0Op7No.s 			page 60


 3364              	.LVL548:
 3365              		.loc 1 1068 0
 3366 022c F0EE690A 		vmov.f32	s1, s19
 3367              		.loc 1 1073 0
 3368 0230 B0EE409A 		vmov.f32	s18, s0
 3369              	.LVL549:
 3370 0234 9FE7     		b	.L261
 3371              	.LVL550:
 3372              	.L284:
 3373              	.LBE91:
 3374              	.LBE92:
 3375              		.loc 1 1113 0
 3376 0236 FFF7FEFF 		bl	mc_interface_get_motor_thread
 3377              	.LVL551:
 3378              		.loc 1 1112 0
 3379 023a A0F10201 		sub	r1, r0, #2
 3380 023e B1FA81F1 		clz	r1, r1
 3381 0242 4909     		lsrs	r1, r1, #5
 3382 0244 3046     		mov	r0, r6
 3383 0246 FFF7FEFF 		bl	conf_general_store_mc_configuration
 3384              	.LVL552:
 3385              		.loc 1 1116 0
 3386 024a B8F1000F 		cmp	r8, #0
 3387 024e 3FF45DAF 		beq	.L267
 3388              	.L285:
 3389              		.loc 1 1117 0
 3390 0252 3146     		mov	r1, r6
 3391 0254 0E20     		movs	r0, #14
 3392 0256 FFF7FEFF 		bl	commands_send_mcconf
 3393              	.LVL553:
 3394 025a 57E7     		b	.L267
 3395              	.LVL554:
 3396              	.L283:
 3397              		.loc 1 1015 0
 3398 025c 3046     		mov	r0, r6
 3399 025e FFF7FEFF 		bl	mc_interface_set_configuration
 3400              	.LVL555:
 3401              		.loc 1 1016 0
 3402 0262 2846     		mov	r0, r5
 3403 0264 FFF7FEFF 		bl	mempools_free_mcconf
 3404              	.LVL556:
 3405              		.loc 1 1017 0
 3406 0268 3046     		mov	r0, r6
 3407 026a FFF7FEFF 		bl	mempools_free_mcconf
 3408              	.LVL557:
 3409              		.loc 1 1018 0
 3410 026e 4FF0FF34 		mov	r4, #-1
 3411 0272 51E7     		b	.L252
 3412              	.L288:
 3413              		.align	2
 3414              	.L287:
 3415 0274 6F12033A 		.word	973279855
 3416 0278 00000000 		.word	0
 3417 027c 00007A44 		.word	1148846080
 3418 0280 00003443 		.word	1127481344
 3419 0284 0000B642 		.word	1119223808
 3420              		.cfi_endproc
ARM GAS  C:\Users\CFAR\AppData\Local\Temp\cc0Op7No.s 			page 61


 3421              	.LFE271:
 3422              		.size	conf_general_autodetect_apply_sensors_foc, .-conf_general_autodetect_apply_sensors_foc
 3423              		.section	.text.conf_general_calc_apply_foc_cc_kp_ki_gain,"ax",%progbits
 3424              		.align	1
 3425              		.p2align 4,,15
 3426              		.global	conf_general_calc_apply_foc_cc_kp_ki_gain
 3427              		.syntax unified
 3428              		.thumb
 3429              		.thumb_func
 3430              		.fpu fpv4-sp-d16
 3431              		.type	conf_general_calc_apply_foc_cc_kp_ki_gain, %function
 3432              	conf_general_calc_apply_foc_cc_kp_ki_gain:
 3433              	.LFB272:
 3434              		.loc 1 1127 0
 3435              		.cfi_startproc
 3436              		@ args = 0, pretend = 0, frame = 0
 3437              		@ frame_needed = 0, uses_anonymous_args = 0
 3438              		@ link register save eliminated.
 3439              	.LVL558:
 3440              		.loc 1 1132 0
 3441 0000 DFED116A 		vldr.32	s13, .L290
 3442              		.loc 1 1130 0
 3443 0004 90ED3A7A 		vldr.32	s14, [r0, #232]
 3444              	.LVL559:
 3445              		.loc 1 1135 0
 3446 0008 DFED104A 		vldr.32	s9, .L290+4
 3447              		.loc 1 1133 0
 3448 000c 90ED386A 		vldr.32	s12, [r0, #224]
 3449              		.loc 1 1134 0
 3450 0010 90ED395A 		vldr.32	s10, [r0, #228]
 3451              		.loc 1 1140 0
 3452 0014 DFED0E5A 		vldr.32	s11, .L290+8
 3453              		.loc 1 1132 0
 3454 0018 20EE260A 		vmul.f32	s0, s0, s13
 3455              	.LVL560:
 3456              		.loc 1 1135 0
 3457 001c 27EE077A 		vmul.f32	s14, s14, s14
 3458              	.LVL561:
 3459              		.loc 1 1132 0
 3460 0020 F7EE006A 		vmov.f32	s13, #1.0e+0
 3461 0024 C6EE807A 		vdiv.f32	s15, s13, s0
 3462              	.LVL562:
 3463              		.loc 1 1135 0
 3464 0028 C4EE876A 		vdiv.f32	s13, s9, s14
 3465              		.loc 1 1133 0
 3466 002c 26EE276A 		vmul.f32	s12, s12, s15
 3467              	.LVL563:
 3468              		.loc 1 1140 0
 3469 0030 26EEA57A 		vmul.f32	s14, s13, s11
 3470              		.loc 1 1134 0
 3471 0034 67EE857A 		vmul.f32	s15, s15, s10
 3472              	.LVL564:
 3473              		.loc 1 1138 0
 3474 0038 80ED2C6A 		vstr.32	s12, [r0, #176]
 3475              		.loc 1 1139 0
 3476 003c C0ED2D7A 		vstr.32	s15, [r0, #180]
 3477              		.loc 1 1140 0
ARM GAS  C:\Users\CFAR\AppData\Local\Temp\cc0Op7No.s 			page 62


 3478 0040 80ED3B7A 		vstr.32	s14, [r0, #236]
 3479              		.loc 1 1141 0
 3480 0044 7047     		bx	lr
 3481              	.L291:
 3482 0046 00BF     		.align	2
 3483              	.L290:
 3484 0048 BD378635 		.word	897988541
 3485 004c 6F12833A 		.word	981668463
 3486 0050 00247449 		.word	1232348160
 3487              		.cfi_endproc
 3488              	.LFE272:
 3489              		.size	conf_general_calc_apply_foc_cc_kp_ki_gain, .-conf_general_calc_apply_foc_cc_kp_ki_gain
 3490              		.section	.text.conf_general_detect_apply_all_foc,"ax",%progbits
 3491              		.align	1
 3492              		.p2align 4,,15
 3493              		.global	conf_general_detect_apply_all_foc
 3494              		.syntax unified
 3495              		.thumb
 3496              		.thumb_func
 3497              		.fpu fpv4-sp-d16
 3498              		.type	conf_general_detect_apply_all_foc, %function
 3499              	conf_general_detect_apply_all_foc:
 3500              	.LFB276:
 3501              		.loc 1 1330 0
 3502              		.cfi_startproc
 3503              		@ args = 0, pretend = 0, frame = 16
 3504              		@ frame_needed = 0, uses_anonymous_args = 0
 3505              	.LVL565:
 3506 0000 2DE9F04F 		push	{r4, r5, r6, r7, r8, r9, r10, fp, lr}
 3507              		.cfi_def_cfa_offset 36
 3508              		.cfi_offset 4, -36
 3509              		.cfi_offset 5, -32
 3510              		.cfi_offset 6, -28
 3511              		.cfi_offset 7, -24
 3512              		.cfi_offset 8, -20
 3513              		.cfi_offset 9, -16
 3514              		.cfi_offset 10, -12
 3515              		.cfi_offset 11, -8
 3516              		.cfi_offset 14, -4
 3517 0004 2DED068B 		vpush.64	{d8, d9, d10}
 3518              		.cfi_def_cfa_offset 60
 3519              		.cfi_offset 80, -60
 3520              		.cfi_offset 81, -56
 3521              		.cfi_offset 82, -52
 3522              		.cfi_offset 83, -48
 3523              		.cfi_offset 84, -44
 3524              		.cfi_offset 85, -40
 3525 0008 85B0     		sub	sp, sp, #20
 3526              		.cfi_def_cfa_offset 80
 3527              		.loc 1 1330 0
 3528 000a F0EE409A 		vmov.f32	s19, s0
 3529 000e 8B46     		mov	fp, r1
 3530 0010 8246     		mov	r10, r0
 3531              		.loc 1 1333 0
 3532 0012 FFF7FEFF 		bl	mc_interface_get_motor_thread
 3533              	.LVL566:
 3534 0016 8046     		mov	r8, r0
ARM GAS  C:\Users\CFAR\AppData\Local\Temp\cc0Op7No.s 			page 63


 3535              	.LVL567:
 3536              		.loc 1 1334 0
 3537 0018 0120     		movs	r0, #1
 3538              	.LVL568:
 3539 001a FFF7FEFF 		bl	mc_interface_select_motor_thread
 3540              	.LVL569:
 3541              		.loc 1 1336 0
 3542 001e FFF7FEFF 		bl	mempools_alloc_mcconf
 3543              	.LVL570:
 3544 0022 0446     		mov	r4, r0
 3545              	.LVL571:
 3546              		.loc 1 1337 0
 3547 0024 FFF7FEFF 		bl	mempools_alloc_mcconf
 3548              	.LVL572:
 3549 0028 0746     		mov	r7, r0
 3550              	.LVL573:
 3551              		.loc 1 1339 0
 3552 002a FFF7FEFF 		bl	mc_interface_get_configuration
 3553              	.LVL574:
 3554 002e 4FF4FA72 		mov	r2, #500
 3555 0032 0146     		mov	r1, r0
 3556 0034 2046     		mov	r0, r4
 3557 0036 FFF7FEFF 		bl	memcpy
 3558              	.LVL575:
 3559              		.loc 1 1340 0
 3560 003a 2146     		mov	r1, r4
 3561 003c 4FF4FA72 		mov	r2, #500
 3562 0040 3846     		mov	r0, r7
 3563 0042 FFF7FEFF 		bl	memcpy
 3564              	.LVL576:
 3565              		.loc 1 1351 0
 3566 0046 B04B     		ldr	r3, .L330
 3567 0048 C4F8B830 		str	r3, [r4, #184]	@ float
 3568              		.loc 1 1349 0
 3569 004c 0223     		movs	r3, #2
 3570 004e A370     		strb	r3, [r4, #2]
 3571              		.loc 1 1350 0
 3572 0050 0023     		movs	r3, #0
 3573              		.loc 1 1352 0
 3574 0052 AE48     		ldr	r0, .L330+4
 3575              		.loc 1 1354 0
 3576 0054 AE49     		ldr	r1, .L330+8
 3577              		.loc 1 1355 0
 3578 0056 AF4A     		ldr	r2, .L330+12
 3579              		.loc 1 1350 0
 3580 0058 84F81831 		strb	r3, [r4, #280]
 3581              		.loc 1 1358 0
 3582 005c AE4B     		ldr	r3, .L330+16
 3583              		.loc 1 1352 0
 3584 005e C4F8B000 		str	r0, [r4, #176]	@ float
 3585              		.loc 1 1354 0
 3586 0062 6160     		str	r1, [r4, #4]	@ float
 3587              		.loc 1 1359 0
 3588 0064 AD48     		ldr	r0, .L330+20
 3589              		.loc 1 1360 0
 3590 0066 AE49     		ldr	r1, .L330+24
 3591              		.loc 1 1355 0
ARM GAS  C:\Users\CFAR\AppData\Local\Temp\cc0Op7No.s 			page 64


 3592 0068 A260     		str	r2, [r4, #8]	@ float
 3593              		.loc 1 1358 0
 3594 006a E365     		str	r3, [r4, #92]	@ float
 3595              		.loc 1 1361 0
 3596 006c AD4A     		ldr	r2, .L330+28
 3597              		.loc 1 1359 0
 3598 006e 2066     		str	r0, [r4, #96]	@ float
 3599              		.loc 1 1353 0
 3600 0070 4FF07E53 		mov	r3, #1065353216
 3601              		.loc 1 1360 0
 3602 0074 E161     		str	r1, [r4, #28]	@ float
 3603              		.loc 1 1361 0
 3604 0076 A261     		str	r2, [r4, #24]	@ float
 3605              		.loc 1 1353 0
 3606 0078 C4F8B430 		str	r3, [r4, #180]	@ float
 3607              		.loc 1 1356 0
 3608 007c 6366     		str	r3, [r4, #100]	@ float
 3609              		.loc 1 1357 0
 3610 007e A366     		str	r3, [r4, #104]	@ float
 3611              		.loc 1 1362 0
 3612 0080 2046     		mov	r0, r4
 3613 0082 FFF7FEFF 		bl	mc_interface_set_configuration
 3614              	.LVL577:
 3615              	.LBB108:
 3616              	.LBB109:
 3617              		.loc 1 1187 0
 3618 0086 FFF7FEFF 		bl	mc_interface_get_motor_thread
 3619              	.LVL578:
 3620 008a 4FF4FA75 		mov	r5, #500
 3621 008e 8146     		mov	r9, r0
 3622              	.LVL579:
 3623              	.L295:
 3624              	.LBB110:
 3625              	.LBB111:
 3626              		.loc 1 1190 0
 3627 0090 0120     		movs	r0, #1
 3628 0092 FFF7FEFF 		bl	mc_interface_select_motor_thread
 3629              	.LVL580:
 3630              		.loc 1 1191 0
 3631 0096 FFF7FEFF 		bl	mc_interface_get_fault
 3632              	.LVL581:
 3633 009a 0646     		mov	r6, r0
 3634              	.LVL582:
 3635              		.loc 1 1192 0
 3636 009c 0220     		movs	r0, #2
 3637 009e FFF7FEFF 		bl	mc_interface_select_motor_thread
 3638              	.LVL583:
 3639              		.loc 1 1193 0
 3640 00a2 FFF7FEFF 		bl	mc_interface_get_fault
 3641              	.LVL584:
 3642 00a6 0346     		mov	r3, r0
 3643              	.LVL585:
 3644              		.loc 1 1199 0
 3645 00a8 6420     		movs	r0, #100
 3646              		.loc 1 1195 0
 3647 00aa 06B9     		cbnz	r6, .L293
 3648 00ac 1BB1     		cbz	r3, .L294
ARM GAS  C:\Users\CFAR\AppData\Local\Temp\cc0Op7No.s 			page 65


 3649              	.L293:
 3650              		.loc 1 1199 0
 3651 00ae FFF7FEFF 		bl	chThdSleep
 3652              	.LVL586:
 3653              	.LBE111:
 3654              		.loc 1 1189 0
 3655 00b2 013D     		subs	r5, r5, #1
 3656              	.LVL587:
 3657 00b4 ECD1     		bne	.L295
 3658              	.LVL588:
 3659              	.L294:
 3660              	.LBE110:
 3661              		.loc 1 1202 0
 3662 00b6 0120     		movs	r0, #1
 3663 00b8 FFF7FEFF 		bl	mc_interface_select_motor_thread
 3664              	.LVL589:
 3665              		.loc 1 1203 0
 3666 00bc FFF7FEFF 		bl	mc_interface_get_fault
 3667              	.LVL590:
 3668 00c0 0546     		mov	r5, r0
 3669              	.LVL591:
 3670              		.loc 1 1204 0
 3671 00c2 0220     		movs	r0, #2
 3672 00c4 FFF7FEFF 		bl	mc_interface_select_motor_thread
 3673              	.LVL592:
 3674              		.loc 1 1205 0
 3675 00c8 FFF7FEFF 		bl	mc_interface_get_fault
 3676              	.LVL593:
 3677 00cc 0646     		mov	r6, r0
 3678              	.LVL594:
 3679              		.loc 1 1207 0
 3680 00ce 4846     		mov	r0, r9
 3681 00d0 FFF7FEFF 		bl	mc_interface_select_motor_thread
 3682              	.LVL595:
 3683              		.loc 1 1209 0
 3684 00d4 05B9     		cbnz	r5, .L296
 3685 00d6 9EB1     		cbz	r6, .L327
 3686              	.L296:
 3687              	.LVL596:
 3688              	.LBE109:
 3689              	.LBE108:
 3690              		.loc 1 1372 0
 3691 00d8 3846     		mov	r0, r7
 3692 00da FFF7FEFF 		bl	mc_interface_set_configuration
 3693              	.LVL597:
 3694              		.loc 1 1373 0
 3695 00de 2046     		mov	r0, r4
 3696 00e0 FFF7FEFF 		bl	mempools_free_mcconf
 3697              	.LVL598:
 3698              		.loc 1 1374 0
 3699 00e4 3846     		mov	r0, r7
 3700 00e6 FFF7FEFF 		bl	mempools_free_mcconf
 3701              	.LVL599:
 3702              		.loc 1 1381 0
 3703 00ea 4046     		mov	r0, r8
 3704 00ec FFF7FEFF 		bl	mc_interface_select_motor_thread
 3705              	.LVL600:
ARM GAS  C:\Users\CFAR\AppData\Local\Temp\cc0Op7No.s 			page 66


 3706              		.loc 1 1382 0
 3707 00f0 4FF0FF35 		mov	r5, #-1
 3708              		.loc 1 1561 0
 3709 00f4 2846     		mov	r0, r5
 3710 00f6 05B0     		add	sp, sp, #20
 3711              		.cfi_remember_state
 3712              		.cfi_def_cfa_offset 60
 3713              		@ sp needed
 3714 00f8 BDEC068B 		vldm	sp!, {d8-d10}
 3715              		.cfi_restore 84
 3716              		.cfi_restore 85
 3717              		.cfi_restore 82
 3718              		.cfi_restore 83
 3719              		.cfi_restore 80
 3720              		.cfi_restore 81
 3721              		.cfi_def_cfa_offset 36
 3722 00fc BDE8F08F 		pop	{r4, r5, r6, r7, r8, r9, r10, fp, pc}
 3723              	.LVL601:
 3724              	.L327:
 3725              		.cfi_restore_state
 3726              		.loc 1 1387 0
 3727 0100 42F21070 		movw	r0, #10000
 3728 0104 FFF7FEFF 		bl	chThdSleep
 3729              	.LVL602:
 3730              		.loc 1 1390 0
 3731 0108 FFF7FEFF 		bl	timeout_get_timeout_msec
 3732              	.LVL603:
 3733 010c 0646     		mov	r6, r0
 3734              	.LVL604:
 3735              		.loc 1 1391 0
 3736 010e FFF7FEFF 		bl	timeout_get_brake_current
 3737              	.LVL605:
 3738              		.loc 1 1393 0
 3739 0112 DFED858A 		vldr.32	s17, .L330+32
 3740              		.loc 1 1391 0
 3741 0116 F0EE40AA 		vmov.f32	s21, s0
 3742              	.LVL606:
 3743              		.loc 1 1392 0
 3744 011a FFF7FEFF 		bl	timeout_reset
 3745              	.LVL607:
 3746              		.loc 1 1393 0
 3747 011e B0EE680A 		vmov.f32	s0, s17
 3748 0122 4EF66020 		movw	r0, #60000
 3749 0126 FFF7FEFF 		bl	timeout_configure
 3750              	.LVL608:
 3751              		.loc 1 1395 0
 3752 012a FFF7FEFF 		bl	mc_interface_lock
 3753              	.LVL609:
 3754              	.LBB112:
 3755              	.LBB113:
 3756              		.loc 1 1145 0
 3757 012e DFED7F6A 		vldr.32	s13, .L330+36
 3758              	.LBE113:
 3759              	.LBE112:
 3760              		.loc 1 1415 0
 3761 0132 94ED019A 		vldr.32	s18, [r4, #4]
 3762              	.LVL610:
ARM GAS  C:\Users\CFAR\AppData\Local\Temp\cc0Op7No.s 			page 67


 3763              	.LBB124:
 3764              	.LBB120:
 3765              		.loc 1 1146 0
 3766 0136 9FED7E7A 		vldr.32	s14, .L330+40
 3767 013a D4ED687A 		vldr.32	s15, [r4, #416]
 3768              	.LBE120:
 3769              	.LBE124:
 3770              		.loc 1 1414 0
 3771 013e CDED008A 		vstr.32	s17, [sp]
 3772              	.LBB125:
 3773              	.LBB121:
 3774              		.loc 1 1145 0
 3775 0142 89EE268A 		vdiv.f32	s16, s18, s13
 3776              	.LVL611:
 3777              		.loc 1 1146 0
 3778 0146 67EE877A 		vmul.f32	s15, s15, s14
 3779              		.loc 1 1147 0
 3780 014a B4EE678A 		vcmp.f32	s16, s15
 3781 014e F1EE10FA 		vmrs	APSR_nzcv, FPSCR
 3782 0152 48BF     		it	mi
 3783 0154 B0EE678A 		vmovmi.f32	s16, s15
 3784              	.LVL612:
 3785              		.loc 1 1150 0
 3786 0158 FFF7FEFF 		bl	mempools_alloc_mcconf
 3787              	.LVL613:
 3788 015c 0546     		mov	r5, r0
 3789              	.LVL614:
 3790              		.loc 1 1151 0
 3791 015e FFF7FEFF 		bl	mc_interface_get_configuration
 3792              	.LVL615:
 3793 0162 4FF4FA72 		mov	r2, #500
 3794 0166 0146     		mov	r1, r0
 3795 0168 2846     		mov	r0, r5
 3796 016a FFF7FEFF 		bl	memcpy
 3797              	.LVL616:
 3798              	.LBB114:
 3799              		.loc 1 1156 0
 3800 016e B4EEC89A 		vcmpe.f32	s18, s16
 3801 0172 F1EE10FA 		vmrs	APSR_nzcv, FPSCR
 3802              	.LBE114:
 3803              		.loc 1 1153 0
 3804 0176 D5F8E490 		ldr	r9, [r5, #228]	@ float
 3805              	.LVL617:
 3806              	.LBB119:
 3807              	.LBB115:
 3808              		.loc 1 1165 0
 3809 017a C8BF     		it	gt
 3810 017c B0EE08AA 		vmovgt.f32	s20, #3.0e+0
 3811              	.LBE115:
 3812              		.loc 1 1156 0
 3813 0180 14DC     		bgt	.L302
 3814 0182 41E0     		b	.L328
 3815              	.LVL618:
 3816              	.L300:
 3817              	.LBB116:
 3818              		.loc 1 1165 0
 3819 0184 89EE8A7A 		vdiv.f32	s14, s19, s20
ARM GAS  C:\Users\CFAR\AppData\Local\Temp\cc0Op7No.s 			page 68


 3820 0188 68EE086A 		vmul.f32	s13, s16, s16
 3821 018c 26EEA80A 		vmul.f32	s0, s13, s17
 3822 0190 B4EEC70A 		vcmpe.f32	s0, s14
 3823 0194 F1EE10FA 		vmrs	APSR_nzcv, FPSCR
 3824 0198 38DA     		bge	.L298
 3825              	.LBE116:
 3826              		.loc 1 1156 0
 3827 019a 68EE277A 		vmul.f32	s15, s16, s15
 3828              	.LVL619:
 3829 019e B4EEE79A 		vcmpe.f32	s18, s15
 3830 01a2 F1EE10FA 		vmrs	APSR_nzcv, FPSCR
 3831 01a6 31DD     		ble	.L298
 3832 01a8 B0EE678A 		vmov.f32	s16, s15
 3833              	.LVL620:
 3834              	.L302:
 3835              	.LBB117:
 3836              		.loc 1 1157 0
 3837 01ac 0021     		movs	r1, #0
 3838 01ae 0520     		movs	r0, #5
 3839 01b0 B0EE480A 		vmov.f32	s0, s16
 3840 01b4 FFF7FEFF 		bl	mcpwm_foc_measure_resistance
 3841              	.LVL621:
 3842 01b8 F0EE408A 		vmov.f32	s17, s0
 3843              	.LVL622:
 3844              		.loc 1 1160 0
 3845 01bc FFF7FEFF 		bl	mc_interface_get_fault
 3846              	.LVL623:
 3847              	.LBE117:
 3848              		.loc 1 1156 0
 3849 01c0 F7EE087A 		vmov.f32	s15, #1.5e+0
 3850              	.LBB118:
 3851              		.loc 1 1160 0
 3852 01c4 0028     		cmp	r0, #0
 3853 01c6 DDD0     		beq	.L300
 3854              		.loc 1 1161 0
 3855 01c8 2846     		mov	r0, r5
 3856 01ca FFF7FEFF 		bl	mempools_free_mcconf
 3857              	.LVL624:
 3858              	.LBE118:
 3859              	.LBE119:
 3860              	.LBE121:
 3861              	.LBE125:
 3862              		.loc 1 1426 0
 3863 01ce B0EE6A0A 		vmov.f32	s0, s21
 3864 01d2 3046     		mov	r0, r6
 3865 01d4 FFF7FEFF 		bl	timeout_configure
 3866              	.LVL625:
 3867              		.loc 1 1427 0
 3868 01d8 FFF7FEFF 		bl	mc_interface_unlock
 3869              	.LVL626:
 3870              		.loc 1 1428 0
 3871 01dc FFF7FEFF 		bl	mc_interface_release_motor
 3872              	.LVL627:
 3873              		.loc 1 1429 0
 3874 01e0 3846     		mov	r0, r7
 3875 01e2 FFF7FEFF 		bl	mc_interface_set_configuration
 3876              	.LVL628:
ARM GAS  C:\Users\CFAR\AppData\Local\Temp\cc0Op7No.s 			page 69


 3877              		.loc 1 1430 0
 3878 01e6 2046     		mov	r0, r4
 3879 01e8 FFF7FEFF 		bl	mempools_free_mcconf
 3880              	.LVL629:
 3881              		.loc 1 1431 0
 3882 01ec 3846     		mov	r0, r7
 3883 01ee FFF7FEFF 		bl	mempools_free_mcconf
 3884              	.LVL630:
 3885              		.loc 1 1438 0
 3886 01f2 4046     		mov	r0, r8
 3887 01f4 FFF7FEFF 		bl	mc_interface_select_motor_thread
 3888              	.LVL631:
 3889              		.loc 1 1439 0
 3890 01f8 6FF00A05 		mvn	r5, #10
 3891              		.loc 1 1561 0
 3892 01fc 2846     		mov	r0, r5
 3893 01fe 05B0     		add	sp, sp, #20
 3894              		.cfi_remember_state
 3895              		.cfi_def_cfa_offset 60
 3896              		@ sp needed
 3897 0200 BDEC068B 		vldm	sp!, {d8-d10}
 3898              		.cfi_restore 84
 3899              		.cfi_restore 85
 3900              		.cfi_restore 82
 3901              		.cfi_restore 83
 3902              		.cfi_restore 80
 3903              		.cfi_restore 81
 3904              		.cfi_def_cfa_offset 36
 3905 0204 BDE8F08F 		pop	{r4, r5, r6, r7, r8, r9, r10, fp, pc}
 3906              	.LVL632:
 3907              	.L328:
 3908              		.cfi_restore_state
 3909              	.LBB126:
 3910              	.LBB122:
 3911              		.loc 1 1155 0
 3912 0208 B0EE688A 		vmov.f32	s16, s17
 3913              	.LVL633:
 3914              	.L298:
 3915              		.loc 1 1170 0
 3916 020c 0121     		movs	r1, #1
 3917 020e 6420     		movs	r0, #100
 3918 0210 B0EE480A 		vmov.f32	s0, s16
 3919 0214 FFF7FEFF 		bl	mcpwm_foc_measure_resistance
 3920              	.LVL634:
 3921              		.loc 1 1173 0
 3922 0218 2846     		mov	r0, r5
 3923              		.loc 1 1172 0
 3924 021a 85ED390A 		vstr.32	s0, [r5, #228]
 3925              		.loc 1 1170 0
 3926 021e F0EE408A 		vmov.f32	s17, s0
 3927              	.LVL635:
 3928              		.loc 1 1173 0
 3929 0222 FFF7FEFF 		bl	mc_interface_set_configuration
 3930              	.LVL636:
 3931              		.loc 1 1175 0
 3932 0226 0022     		movs	r2, #0
 3933 0228 B0EE480A 		vmov.f32	s0, s16
ARM GAS  C:\Users\CFAR\AppData\Local\Temp\cc0Op7No.s 			page 70


 3934 022c 1146     		mov	r1, r2
 3935 022e 6420     		movs	r0, #100
 3936 0230 FFF7FEFF 		bl	mcpwm_foc_measure_inductance_current
 3937              	.LVL637:
 3938              		.loc 1 1176 0
 3939 0234 C9EEA87A 		vdiv.f32	s15, s19, s17
 3940              		.loc 1 1175 0
 3941 0238 9FED3E8A 		vldr.32	s16, .L330+44
 3942              	.LVL638:
 3943 023c F5EE407A 		vcmp.f32	s15, #0
 3944 0240 F1EE10FA 		vmrs	APSR_nzcv, FPSCR
 3945              		.loc 1 1176 0
 3946 0244 B1EEE79A 		vsqrt.f32	s18, s15
 3947              	.LVL639:
 3948              		.loc 1 1175 0
 3949 0248 20EE088A 		vmul.f32	s16, s0, s16
 3950              	.LVL640:
 3951 024c 00F1FD80 		bmi	.L329
 3952              	.L303:
 3953              		.loc 1 1176 0
 3954 0250 19EE103A 		vmov	r3, s18
 3955 0254 04A8     		add	r0, sp, #16
 3956              		.loc 1 1177 0
 3957 0256 DFED400A 		vldr.32	s1, .L330+80
 3958 025a 9FED370A 		vldr.32	s0, .L330+48
 3959              		.loc 1 1176 0
 3960 025e 40F8103D 		str	r3, [r0, #-16]!	@ float
 3961              		.loc 1 1177 0
 3962 0262 FFF7FEFF 		bl	utils_truncate_number
 3963              	.LVL641:
 3964              		.loc 1 1180 0
 3965 0266 2846     		mov	r0, r5
 3966              		.loc 1 1179 0
 3967 0268 C5F8E490 		str	r9, [r5, #228]	@ float
 3968              		.loc 1 1180 0
 3969 026c FFF7FEFF 		bl	mc_interface_set_configuration
 3970              	.LVL642:
 3971              		.loc 1 1181 0
 3972 0270 2846     		mov	r0, r5
 3973 0272 FFF7FEFF 		bl	mempools_free_mcconf
 3974              	.LVL643:
 3975              	.LBE122:
 3976              	.LBE126:
 3977              		.loc 1 1445 0
 3978 0276 314B     		ldr	r3, .L330+52
 3979 0278 C4F8B830 		str	r3, [r4, #184]	@ float
 3980              		.loc 1 1446 0
 3981 027c 2046     		mov	r0, r4
 3982 027e FFF7FEFF 		bl	mc_interface_set_configuration
 3983              	.LVL644:
 3984              		.loc 1 1468 0
 3985 0282 9DED000A 		vldr.32	s0, [sp]
 3986 0286 9FED2E1A 		vldr.32	s2, .L330+56
 3987 028a DFED2E0A 		vldr.32	s1, .L330+60
 3988              		.loc 1 1467 0
 3989 028e 04AA     		add	r2, sp, #16
 3990              		.loc 1 1465 0
ARM GAS  C:\Users\CFAR\AppData\Local\Temp\cc0Op7No.s 			page 71


 3991 0290 0023     		movs	r3, #0
 3992              		.loc 1 1468 0
 3993 0292 F0EE047A 		vmov.f32	s15, #2.5e+0
 3994              		.loc 1 1467 0
 3995 0296 42F8043D 		str	r3, [r2, #-4]!	@ float
 3996              		.loc 1 1468 0
 3997 029a 80EE270A 		vdiv.f32	s0, s0, s15
 3998 029e 02A9     		add	r1, sp, #8
 3999 02a0 01A8     		add	r0, sp, #4
 4000              		.loc 1 1465 0
 4001 02a2 0193     		str	r3, [sp, #4]	@ float
 4002              		.loc 1 1466 0
 4003 02a4 0293     		str	r3, [sp, #8]	@ float
 4004              		.loc 1 1468 0
 4005 02a6 B0EE482A 		vmov.f32	s4, s16
 4006 02aa F0EE681A 		vmov.f32	s3, s17
 4007 02ae FFF7FEFF 		bl	conf_general_measure_flux_linkage_openloop
 4008              	.LVL645:
 4009              		.loc 1 1471 0
 4010 02b2 DFED257A 		vldr.32	s15, .L330+64
 4011 02b6 9DED037A 		vldr.32	s14, [sp, #12]
 4012 02ba B4EEE77A 		vcmpe.f32	s14, s15
 4013 02be F1EE10FA 		vmrs	APSR_nzcv, FPSCR
 4014              		.loc 1 1472 0
 4015 02c2 C4BF     		itt	gt
 4016 02c4 029B     		ldrgt	r3, [sp, #8]	@ float
 4017 02c6 0193     		strgt	r3, [sp, #4]	@ float
 4018              		.loc 1 1482 0
 4019 02c8 0028     		cmp	r0, #0
 4020 02ca 47D1     		bne	.L306
 4021              	.LVL646:
 4022              		.loc 1 1536 0
 4023 02cc B0EE6A0A 		vmov.f32	s0, s21
 4024 02d0 3046     		mov	r0, r6
 4025              	.LVL647:
 4026 02d2 FFF7FEFF 		bl	timeout_configure
 4027              	.LVL648:
 4028              		.loc 1 1533 0
 4029 02d6 6FF00905 		mvn	r5, #9
 4030              		.loc 1 1537 0
 4031 02da FFF7FEFF 		bl	mc_interface_unlock
 4032              	.LVL649:
 4033              		.loc 1 1538 0
 4034 02de FFF7FEFF 		bl	mc_interface_release_motor
 4035              	.LVL650:
 4036              	.L307:
 4037              		.loc 1 1541 0
 4038 02e2 3846     		mov	r0, r7
 4039 02e4 FFF7FEFF 		bl	mc_interface_set_configuration
 4040              	.LVL651:
 4041              	.L312:
 4042              		.loc 1 1552 0
 4043 02e8 2046     		mov	r0, r4
 4044 02ea FFF7FEFF 		bl	mempools_free_mcconf
 4045              	.LVL652:
 4046              		.loc 1 1553 0
 4047 02ee 3846     		mov	r0, r7
ARM GAS  C:\Users\CFAR\AppData\Local\Temp\cc0Op7No.s 			page 72


 4048 02f0 FFF7FEFF 		bl	mempools_free_mcconf
 4049              	.LVL653:
 4050              		.loc 1 1558 0
 4051 02f4 4046     		mov	r0, r8
 4052 02f6 FFF7FEFF 		bl	mc_interface_select_motor_thread
 4053              	.LVL654:
 4054              		.loc 1 1561 0
 4055 02fa 2846     		mov	r0, r5
 4056 02fc 05B0     		add	sp, sp, #20
 4057              		.cfi_remember_state
 4058              		.cfi_def_cfa_offset 60
 4059              		@ sp needed
 4060 02fe BDEC068B 		vldm	sp!, {d8-d10}
 4061              		.cfi_restore 84
 4062              		.cfi_restore 85
 4063              		.cfi_restore 82
 4064              		.cfi_restore 83
 4065              		.cfi_restore 80
 4066              		.cfi_restore 81
 4067              		.cfi_def_cfa_offset 36
 4068 0302 BDE8F08F 		pop	{r4, r5, r6, r7, r8, r9, r10, fp, pc}
 4069              	.LVL655:
 4070              	.L331:
 4071 0306 00BF     		.align	2
 4072              	.L330:
 4073 0308 00401C46 		.word	1176256512
 4074 030c 6F12033A 		.word	973279855
 4075 0310 00007042 		.word	1114636288
 4076 0314 000070C2 		.word	-1032847360
 4077 0318 001BB749 		.word	1236736768
 4078 031c 001BB7C9 		.word	-910746880
 4079 0320 0050C347 		.word	1203982336
 4080 0324 0050C3C7 		.word	-943501312
 4081 0328 00000000 		.word	0
 4082 032c 00004842 		.word	1112014848
 4083 0330 CDCC8C3F 		.word	1066192077
 4084 0334 BD378635 		.word	897988541
 4085 0338 0000C8C2 		.word	-1027080192
 4086 033c 00409C46 		.word	1184645120
 4087 0340 0000E144 		.word	1155596288
 4088 0344 9A99993E 		.word	1050253722
 4089 0348 00007042 		.word	1114636288
 4090 034c 6F12833A 		.word	981668463
 4091 0350 00247449 		.word	1232348160
 4092 0354 FFFF7944 		.word	1148846079
 4093 0358 0000C842 		.word	1120403456
 4094              	.LVL656:
 4095              	.L306:
 4096              		.cfi_restore_state
 4097              	.LBB127:
 4098              		.loc 1 1488 0
 4099 035c 9DED017A 		vldr.32	s14, [sp, #4]
 4100              	.LBB128:
 4101              	.LBB129:
 4102              		.loc 1 1135 0
 4103 0360 1FED064A 		vldr.32	s8, .L330+68
 4104              		.loc 1 1140 0
ARM GAS  C:\Users\CFAR\AppData\Local\Temp\cc0Op7No.s 			page 73


 4105 0364 1FED065A 		vldr.32	s10, .L330+72
 4106              		.loc 1 1133 0
 4107 0368 1FED066A 		vldr.32	s12, .L330+76
 4108              	.LBE129:
 4109              	.LBE128:
 4110              		.loc 1 1483 0
 4111 036c DDED006A 		vldr.32	s13, [sp]
 4112              		.loc 1 1486 0
 4113 0370 C7ED398A 		vstr.32	s17, [r7, #228]
 4114              	.LBB133:
 4115              	.LBB130:
 4116              		.loc 1 1135 0
 4117 0374 67EE074A 		vmul.f32	s9, s14, s14
 4118              		.loc 1 1133 0
 4119 0378 68EE065A 		vmul.f32	s11, s16, s12
 4120              		.loc 1 1135 0
 4121 037c C4EE247A 		vdiv.f32	s15, s8, s9
 4122              	.LBE130:
 4123              	.LBE133:
 4124              		.loc 1 1485 0
 4125 0380 0223     		movs	r3, #2
 4126 0382 BB70     		strb	r3, [r7, #2]
 4127              		.loc 1 1490 0
 4128 0384 3846     		mov	r0, r7
 4129              	.LVL657:
 4130              	.LBB134:
 4131              	.LBB135:
 4132              		.loc 1 1213 0
 4133 0386 4FF47A75 		mov	r5, #1000
 4134              	.LBE135:
 4135              	.LBE134:
 4136              	.LBB141:
 4137              	.LBB131:
 4138              		.loc 1 1134 0
 4139 038a 68EE868A 		vmul.f32	s17, s17, s12
 4140              	.LVL658:
 4141              		.loc 1 1140 0
 4142 038e 67EE857A 		vmul.f32	s15, s15, s10
 4143              	.LBE131:
 4144              	.LBE141:
 4145              		.loc 1 1484 0
 4146 0392 B1EE666A 		vneg.f32	s12, s13
 4147              		.loc 1 1488 0
 4148 0396 87ED3A7A 		vstr.32	s14, [r7, #232]
 4149              	.LBB142:
 4150              	.LBB132:
 4151              		.loc 1 1140 0
 4152 039a C7ED3B7A 		vstr.32	s15, [r7, #236]
 4153              		.loc 1 1138 0
 4154 039e C7ED2C5A 		vstr.32	s11, [r7, #176]
 4155              		.loc 1 1139 0
 4156 03a2 C7ED2D8A 		vstr.32	s17, [r7, #180]
 4157              	.LBE132:
 4158              	.LBE142:
 4159              		.loc 1 1483 0
 4160 03a6 C7ED016A 		vstr.32	s13, [r7, #4]
 4161              		.loc 1 1484 0
ARM GAS  C:\Users\CFAR\AppData\Local\Temp\cc0Op7No.s 			page 74


 4162 03aa 87ED026A 		vstr.32	s12, [r7, #8]
 4163              		.loc 1 1487 0
 4164 03ae 87ED388A 		vstr.32	s16, [r7, #224]
 4165              	.LVL659:
 4166              		.loc 1 1490 0
 4167 03b2 FFF7FEFF 		bl	mc_interface_set_configuration
 4168              	.LVL660:
 4169              	.LBB143:
 4170              	.LBB140:
 4171              		.loc 1 1213 0
 4172 03b6 FFF7FEFF 		bl	mc_interface_get_motor_thread
 4173              	.LVL661:
 4174              	.LBB136:
 4175              	.LBB137:
 4176              		.loc 1 1221 0
 4177 03ba 5FED198A 		vldr.32	s17, .L330+80
 4178              	.LBE137:
 4179              	.LBE136:
 4180              		.loc 1 1213 0
 4181 03be 8146     		mov	r9, r0
 4182              	.LVL662:
 4183              	.L311:
 4184              	.LBB139:
 4185              	.LBB138:
 4186              		.loc 1 1216 0
 4187 03c0 0120     		movs	r0, #1
 4188 03c2 FFF7FEFF 		bl	mc_interface_select_motor_thread
 4189              	.LVL663:
 4190              		.loc 1 1217 0
 4191 03c6 FFF7FEFF 		bl	mc_interface_get_rpm
 4192              	.LVL664:
 4193              		.loc 1 1218 0
 4194 03ca 0220     		movs	r0, #2
 4195              		.loc 1 1217 0
 4196 03cc B0EE408A 		vmov.f32	s16, s0
 4197              	.LVL665:
 4198              		.loc 1 1221 0
 4199 03d0 B0EEC88A 		vabs.f32	s16, s16
 4200              		.loc 1 1218 0
 4201 03d4 FFF7FEFF 		bl	mc_interface_select_motor_thread
 4202              	.LVL666:
 4203              		.loc 1 1219 0
 4204 03d8 FFF7FEFF 		bl	mc_interface_get_rpm
 4205              	.LVL667:
 4206              		.loc 1 1221 0
 4207 03dc B4EEE88A 		vcmpe.f32	s16, s17
 4208 03e0 F1EE10FA 		vmrs	APSR_nzcv, FPSCR
 4209 03e4 B0EEC00A 		vabs.f32	s0, s0
 4210              	.LVL668:
 4211              		.loc 1 1224 0
 4212 03e8 4FF06400 		mov	r0, #100
 4213              		.loc 1 1221 0
 4214 03ec 04D5     		bpl	.L308
 4215 03ee B4EEE80A 		vcmpe.f32	s0, s17
 4216 03f2 F1EE10FA 		vmrs	APSR_nzcv, FPSCR
 4217 03f6 03D4     		bmi	.L310
 4218              	.L308:
ARM GAS  C:\Users\CFAR\AppData\Local\Temp\cc0Op7No.s 			page 75


 4219              		.loc 1 1224 0
 4220 03f8 FFF7FEFF 		bl	chThdSleep
 4221              	.LVL669:
 4222              	.LBE138:
 4223              		.loc 1 1215 0
 4224 03fc 013D     		subs	r5, r5, #1
 4225              	.LVL670:
 4226 03fe DFD1     		bne	.L311
 4227              	.LVL671:
 4228              	.L310:
 4229              	.LBE139:
 4230              		.loc 1 1227 0
 4231 0400 0120     		movs	r0, #1
 4232 0402 FFF7FEFF 		bl	mc_interface_select_motor_thread
 4233              	.LVL672:
 4234              		.loc 1 1228 0
 4235 0406 FFF7FEFF 		bl	mc_interface_get_rpm
 4236              	.LVL673:
 4237              		.loc 1 1229 0
 4238 040a 0220     		movs	r0, #2
 4239 040c FFF7FEFF 		bl	mc_interface_select_motor_thread
 4240              	.LVL674:
 4241              		.loc 1 1230 0
 4242 0410 FFF7FEFF 		bl	mc_interface_get_rpm
 4243              	.LVL675:
 4244              		.loc 1 1232 0
 4245 0414 4846     		mov	r0, r9
 4246 0416 FFF7FEFF 		bl	mc_interface_select_motor_thread
 4247              	.LVL676:
 4248              	.LBE140:
 4249              	.LBE143:
 4250              		.loc 1 1519 0
 4251 041a 9DED000A 		vldr.32	s0, [sp]
 4252 041e F0EE087A 		vmov.f32	s15, #3.0e+0
 4253 0422 80EE270A 		vdiv.f32	s0, s0, s15
 4254 0426 5946     		mov	r1, fp
 4255 0428 5046     		mov	r0, r10
 4256 042a FFF7FEFF 		bl	conf_general_autodetect_apply_sensors_foc
 4257              	.LVL677:
 4258 042e 0546     		mov	r5, r0
 4259              	.LVL678:
 4260              	.LBE127:
 4261              		.loc 1 1536 0
 4262 0430 3046     		mov	r0, r6
 4263              	.LVL679:
 4264 0432 B0EE6A0A 		vmov.f32	s0, s21
 4265 0436 FFF7FEFF 		bl	timeout_configure
 4266              	.LVL680:
 4267              		.loc 1 1537 0
 4268 043a FFF7FEFF 		bl	mc_interface_unlock
 4269              	.LVL681:
 4270              		.loc 1 1538 0
 4271 043e FFF7FEFF 		bl	mc_interface_release_motor
 4272              	.LVL682:
 4273              		.loc 1 1540 0
 4274 0442 002D     		cmp	r5, #0
 4275 0444 BFF650AF 		bge	.L312
ARM GAS  C:\Users\CFAR\AppData\Local\Temp\cc0Op7No.s 			page 76


 4276 0448 4BE7     		b	.L307
 4277              	.LVL683:
 4278              	.L329:
 4279              	.LBB144:
 4280              	.LBB123:
 4281              		.loc 1 1176 0
 4282 044a B0EE670A 		vmov.f32	s0, s15
 4283 044e FFF7FEFF 		bl	sqrtf
 4284              	.LVL684:
 4285 0452 FDE6     		b	.L303
 4286              	.LBE123:
 4287              	.LBE144:
 4288              		.cfi_endproc
 4289              	.LFE276:
 4290              		.size	conf_general_detect_apply_all_foc, .-conf_general_detect_apply_all_foc
 4291              		.section	.text.conf_general_detect_apply_all_foc_can,"ax",%progbits
 4292              		.align	1
 4293              		.p2align 4,,15
 4294              		.global	conf_general_detect_apply_all_foc_can
 4295              		.syntax unified
 4296              		.thumb
 4297              		.thumb_func
 4298              		.fpu fpv4-sp-d16
 4299              		.type	conf_general_detect_apply_all_foc_can, %function
 4300              	conf_general_detect_apply_all_foc_can:
 4301              	.LFB277:
 4302              		.loc 1 1592 0
 4303              		.cfi_startproc
 4304              		@ args = 0, pretend = 0, frame = 0
 4305              		@ frame_needed = 0, uses_anonymous_args = 0
 4306              	.LVL685:
 4307 0000 2DE9F047 		push	{r4, r5, r6, r7, r8, r9, r10, lr}
 4308              		.cfi_def_cfa_offset 32
 4309              		.cfi_offset 4, -32
 4310              		.cfi_offset 5, -28
 4311              		.cfi_offset 6, -24
 4312              		.cfi_offset 7, -20
 4313              		.cfi_offset 8, -16
 4314              		.cfi_offset 9, -12
 4315              		.cfi_offset 10, -8
 4316              		.cfi_offset 14, -4
 4317 0004 2DED068B 		vpush.64	{d8, d9, d10}
 4318              		.cfi_def_cfa_offset 56
 4319              		.cfi_offset 80, -56
 4320              		.cfi_offset 81, -52
 4321              		.cfi_offset 82, -48
 4322              		.cfi_offset 83, -44
 4323              		.cfi_offset 84, -40
 4324              		.cfi_offset 85, -36
 4325              		.loc 1 1592 0
 4326 0008 0746     		mov	r7, r0
 4327 000a B0EE60AA 		vmov.f32	s20, s1
 4328 000e F0EE419A 		vmov.f32	s19, s2
 4329 0012 B0EE619A 		vmov.f32	s18, s3
 4330 0016 F0EE428A 		vmov.f32	s17, s4
 4331 001a B0EE408A 		vmov.f32	s16, s0
 4332              		.loc 1 1594 0
ARM GAS  C:\Users\CFAR\AppData\Local\Temp\cc0Op7No.s 			page 77


 4333 001e FFF7FEFF 		bl	mc_interface_get_motor_thread
 4334              	.LVL686:
 4335 0022 8246     		mov	r10, r0
 4336              	.LVL687:
 4337              		.loc 1 1595 0
 4338 0024 0120     		movs	r0, #1
 4339              	.LVL688:
 4340 0026 FFF7FEFF 		bl	mc_interface_select_motor_thread
 4341              	.LVL689:
 4342              		.loc 1 1597 0
 4343 002a FFF7FEFF 		bl	mempools_alloc_appconf
 4344              	.LVL690:
 4345 002e 8146     		mov	r9, r0
 4346              	.LVL691:
 4347              		.loc 1 1598 0
 4348 0030 FFF7FEFF 		bl	app_get_configuration
 4349              	.LVL692:
 4350 0034 4FF4DA72 		mov	r2, #436
 4351 0038 0146     		mov	r1, r0
 4352 003a 4846     		mov	r0, r9
 4353 003c FFF7FEFF 		bl	memcpy
 4354              	.LVL693:
 4355              		.loc 1 1599 0
 4356 0040 FFF7FEFF 		bl	mempools_alloc_mcconf
 4357              	.LVL694:
 4358 0044 0646     		mov	r6, r0
 4359              	.LVL695:
 4360              		.loc 1 1600 0
 4361 0046 FFF7FEFF 		bl	mc_interface_get_configuration
 4362              	.LVL696:
 4363 004a 4FF4FA72 		mov	r2, #500
 4364 004e 0146     		mov	r1, r0
 4365 0050 3046     		mov	r0, r6
 4366 0052 FFF7FEFF 		bl	memcpy
 4367              	.LVL697:
 4368              		.loc 1 1604 0
 4369 0056 DFED717A 		vldr.32	s15, .L378
 4370              		.loc 1 1602 0
 4371 005a 99F80080 		ldrb	r8, [r9]	@ zero_extendqisi2
 4372              	.LVL698:
 4373              		.loc 1 1604 0
 4374 005e B0EECA7A 		vabs.f32	s14, s20
 4375 0062 B4EEE77A 		vcmpe.f32	s14, s15
 4376              		.loc 1 1610 0
 4377 0066 DFED6D7A 		vldr.32	s15, .L378
 4378              		.loc 1 1604 0
 4379 006a F1EE10FA 		vmrs	APSR_nzcv, FPSCR
 4380              		.loc 1 1610 0
 4381 006e B0EEE97A 		vabs.f32	s14, s19
 4382              		.loc 1 1607 0
 4383 0072 DCBF     		itt	le
 4384 0074 6A4B     		ldrle	r3, .L378+4
 4385 0076 3361     		strle	r3, [r6, #16]	@ float
 4386              		.loc 1 1610 0
 4387 0078 B4EEE77A 		vcmpe.f32	s14, s15
 4388              		.loc 1 1616 0
 4389 007c DFED677A 		vldr.32	s15, .L378
ARM GAS  C:\Users\CFAR\AppData\Local\Temp\cc0Op7No.s 			page 78


 4390              		.loc 1 1605 0
 4391 0080 C8BF     		it	gt
 4392 0082 86ED04AA 		vstrgt.32	s20, [r6, #16]
 4393              		.loc 1 1616 0
 4394 0086 B0EEC97A 		vabs.f32	s14, s18
 4395              		.loc 1 1610 0
 4396 008a F1EE10FA 		vmrs	APSR_nzcv, FPSCR
 4397              		.loc 1 1613 0
 4398 008e DCBF     		itt	le
 4399 0090 644B     		ldrle	r3, .L378+8
 4400 0092 F360     		strle	r3, [r6, #12]	@ float
 4401              		.loc 1 1616 0
 4402 0094 B4EEE77A 		vcmpe.f32	s14, s15
 4403              		.loc 1 1622 0
 4404 0098 DFED607A 		vldr.32	s15, .L378
 4405              		.loc 1 1611 0
 4406 009c C8BF     		it	gt
 4407 009e C6ED039A 		vstrgt.32	s19, [r6, #12]
 4408              		.loc 1 1622 0
 4409 00a2 B0EEE87A 		vabs.f32	s14, s17
 4410              		.loc 1 1616 0
 4411 00a6 F1EE10FA 		vmrs	APSR_nzcv, FPSCR
 4412              		.loc 1 1619 0
 4413 00aa DCBF     		itt	le
 4414 00ac 5E4B     		ldrle	r3, .L378+12
 4415 00ae C6F80431 		strle	r3, [r6, #260]	@ float
 4416              		.loc 1 1622 0
 4417 00b2 B4EEE77A 		vcmpe.f32	s14, s15
 4418              		.loc 1 1617 0
 4419 00b6 C8BF     		it	gt
 4420 00b8 86ED419A 		vstrgt.32	s18, [r6, #260]
 4421              		.loc 1 1622 0
 4422 00bc F1EE10FA 		vmrs	APSR_nzcv, FPSCR
 4423              		.loc 1 1625 0
 4424 00c0 D6BF     		itet	le
 4425 00c2 5A4B     		ldrle	r3, .L378+16
 4426              		.loc 1 1623 0
 4427 00c4 C6ED498A 		vstrgt.32	s17, [r6, #292]
 4428              		.loc 1 1625 0
 4429 00c8 C6F82431 		strle	r3, [r6, #292]	@ float
 4430              		.loc 1 1628 0
 4431 00cc 3046     		mov	r0, r6
 4432 00ce FFF7FEFF 		bl	mc_interface_set_configuration
 4433              	.LVL699:
 4434              		.loc 1 1636 0
 4435 00d2 FFF7FEFF 		bl	comm_can_detect_all_foc_res_clear
 4436              	.LVL700:
 4437              		.loc 1 1638 0
 4438 00d6 A7B3     		cbz	r7, .L345
 4439              	.LBB145:
 4440              		.loc 1 1639 0
 4441 00d8 0024     		movs	r4, #0
 4442              	.LBE145:
 4443              		.loc 1 1635 0
 4444 00da 2746     		mov	r7, r4
 4445 00dc 02E0     		b	.L347
 4446              	.LVL701:
ARM GAS  C:\Users\CFAR\AppData\Local\Temp\cc0Op7No.s 			page 79


 4447              	.L346:
 4448              	.LBB146:
 4449              		.loc 1 1639 0 discriminator 2
 4450 00de 0134     		adds	r4, r4, #1
 4451              	.LVL702:
 4452 00e0 FF2C     		cmp	r4, #255
 4453 00e2 2ED0     		beq	.L345
 4454              	.LVL703:
 4455              	.L347:
 4456              		.loc 1 1646 0
 4457 00e4 E5B2     		uxtb	r5, r4
 4458 00e6 2846     		mov	r0, r5
 4459 00e8 FFF7FEFF 		bl	comm_can_ping
 4460              	.LVL704:
 4461 00ec 0028     		cmp	r0, #0
 4462 00ee F6D0     		beq	.L346
 4463              		.loc 1 1647 0
 4464 00f0 D6ED030A 		vldr.32	s1, [r6, #12]
 4465 00f4 96ED040A 		vldr.32	s0, [r6, #16]
 4466 00f8 0021     		movs	r1, #0
 4467 00fa 2846     		mov	r0, r5
 4468 00fc FFF7FEFF 		bl	comm_can_conf_current_limits_in
 4469              	.LVL705:
 4470              		.loc 1 1648 0
 4471 0100 D6ED490A 		vldr.32	s1, [r6, #292]
 4472 0104 96ED410A 		vldr.32	s0, [r6, #260]
 4473 0108 0021     		movs	r1, #0
 4474 010a 2846     		mov	r0, r5
 4475 010c FFF7FEFF 		bl	comm_can_conf_foc_erpms
 4476              	.LVL706:
 4477              		.loc 1 1649 0
 4478 0110 0121     		movs	r1, #1
 4479 0112 B0EE480A 		vmov.f32	s0, s16
 4480 0116 2846     		mov	r0, r5
 4481              		.loc 1 1650 0
 4482 0118 0F44     		add	r7, r7, r1
 4483              	.LVL707:
 4484              		.loc 1 1649 0
 4485 011a FFF7FEFF 		bl	comm_can_detect_apply_all_foc
 4486              	.LVL708:
 4487              		.loc 1 1652 0
 4488 011e A045     		cmp	r8, r4
 4489 0120 DDD1     		bne	.L346
 4490              	.LVL709:
 4491              		.loc 1 1658 0
 4492 0122 08F10203 		add	r3, r8, #2
 4493              		.loc 1 1655 0
 4494 0126 B8F1FE0F 		cmp	r8, #254
 4495              		.loc 1 1658 0
 4496 012a 5FFA83F8 		uxtb	r8, r3
 4497              	.LVL710:
 4498              		.loc 1 1655 0
 4499 012e 6ED0     		beq	.L357
 4500              		.loc 1 1660 0
 4501 0130 B8F1FF0F 		cmp	r8, #255
 4502              		.loc 1 1639 0
 4503 0134 04F10104 		add	r4, r4, #1
ARM GAS  C:\Users\CFAR\AppData\Local\Temp\cc0Op7No.s 			page 80


 4504              	.LVL711:
 4505              		.loc 1 1660 0
 4506 0138 08BF     		it	eq
 4507 013a 4FF00008 		moveq	r8, #0
 4508              	.LVL712:
 4509              		.loc 1 1639 0
 4510 013e FF2C     		cmp	r4, #255
 4511 0140 D0D1     		bne	.L347
 4512              	.LVL713:
 4513              	.L345:
 4514              	.LBE146:
 4515              		.loc 1 1667 0
 4516 0142 0021     		movs	r1, #0
 4517 0144 B0EE480A 		vmov.f32	s0, s16
 4518 0148 0846     		mov	r0, r1
 4519 014a FFF7FEFF 		bl	conf_general_detect_apply_all_foc
 4520              	.LVL714:
 4521 014e 4FF47A64 		mov	r4, #4000
 4522 0152 0546     		mov	r5, r0
 4523              	.LVL715:
 4524 0154 03E0     		b	.L351
 4525              	.LVL716:
 4526              	.L348:
 4527              	.LBB147:
 4528              		.loc 1 1676 0 discriminator 2
 4529 0156 FFF7FEFF 		bl	chThdSleep
 4530              	.LVL717:
 4531              		.loc 1 1671 0 discriminator 2
 4532 015a 013C     		subs	r4, r4, #1
 4533              	.LVL718:
 4534 015c 5AD0     		beq	.L377
 4535              	.LVL719:
 4536              	.L351:
 4537              		.loc 1 1672 0
 4538 015e FFF7FEFF 		bl	comm_can_detect_all_foc_res_size
 4539              	.LVL720:
 4540 0162 B842     		cmp	r0, r7
 4541              		.loc 1 1676 0
 4542 0164 4FF06400 		mov	r0, #100
 4543              		.loc 1 1672 0
 4544 0168 F5DB     		blt	.L348
 4545              	.LVL721:
 4546              	.LBE147:
 4547              	.LBB148:
 4548              		.loc 1 1682 0
 4549 016a 002F     		cmp	r7, #0
 4550 016c 0ADD     		ble	.L350
 4551 016e 0024     		movs	r4, #0
 4552              	.LVL722:
 4553              	.L349:
 4554              		.loc 1 1683 0
 4555 0170 2046     		mov	r0, r4
 4556 0172 FFF7FEFF 		bl	comm_can_detect_all_foc_res
 4557              	.LVL723:
 4558              		.loc 1 1682 0
 4559 0176 0134     		adds	r4, r4, #1
 4560              	.LVL724:
ARM GAS  C:\Users\CFAR\AppData\Local\Temp\cc0Op7No.s 			page 81


 4561              		.loc 1 1684 0
 4562 0178 0028     		cmp	r0, #0
 4563 017a B8BF     		it	lt
 4564 017c 6FF03205 		mvnlt	r5, #50
 4565              	.LVL725:
 4566              		.loc 1 1682 0
 4567 0180 A742     		cmp	r7, r4
 4568 0182 F5D1     		bne	.L349
 4569              	.LVL726:
 4570              	.L350:
 4571              	.LBE148:
 4572              		.loc 1 1690 0
 4573 0184 002D     		cmp	r5, #0
 4574 0186 34DB     		blt	.L352
 4575              		.loc 1 1691 0
 4576 0188 99F80030 		ldrb	r3, [r9]	@ zero_extendqisi2
 4577 018c 4345     		cmp	r3, r8
 4578 018e 03D1     		bne	.L354
 4579              		.loc 1 1691 0 is_stmt 0 discriminator 1
 4580 0190 99F80C30 		ldrb	r3, [r9, #12]	@ zero_extendqisi2
 4581 0194 042B     		cmp	r3, #4
 4582 0196 12D0     		beq	.L355
 4583              	.L354:
 4584              		.loc 1 1693 0 is_stmt 1
 4585 0198 0423     		movs	r3, #4
 4586 019a 89F80C30 		strb	r3, [r9, #12]
 4587              		.loc 1 1692 0
 4588 019e 89F80080 		strb	r8, [r9]
 4589              		.loc 1 1694 0
 4590 01a2 4846     		mov	r0, r9
 4591 01a4 FFF7FEFF 		bl	conf_general_store_app_configuration
 4592              	.LVL727:
 4593              		.loc 1 1695 0
 4594 01a8 4846     		mov	r0, r9
 4595 01aa FFF7FEFF 		bl	app_set_configuration
 4596              	.LVL728:
 4597              		.loc 1 1696 0
 4598 01ae 1120     		movs	r0, #17
 4599 01b0 4946     		mov	r1, r9
 4600 01b2 FFF7FEFF 		bl	commands_send_appconf
 4601              	.LVL729:
 4602              		.loc 1 1697 0
 4603 01b6 42F21070 		movw	r0, #10000
 4604 01ba FFF7FEFF 		bl	chThdSleep
 4605              	.LVL730:
 4606              	.L355:
 4607              		.loc 1 1700 0
 4608 01be FFF7FEFF 		bl	mc_interface_get_configuration
 4609              	.LVL731:
 4610 01c2 4FF4FA72 		mov	r2, #500
 4611 01c6 0146     		mov	r1, r0
 4612 01c8 3046     		mov	r0, r6
 4613 01ca FFF7FEFF 		bl	memcpy
 4614              	.LVL732:
 4615              		.loc 1 1701 0
 4616 01ce FFF7FEFF 		bl	mc_interface_get_motor_thread
 4617              	.LVL733:
ARM GAS  C:\Users\CFAR\AppData\Local\Temp\cc0Op7No.s 			page 82


 4618 01d2 A0F10201 		sub	r1, r0, #2
 4619 01d6 B1FA81F1 		clz	r1, r1
 4620 01da 4909     		lsrs	r1, r1, #5
 4621 01dc 3046     		mov	r0, r6
 4622 01de FFF7FEFF 		bl	conf_general_store_mc_configuration
 4623              	.LVL734:
 4624              		.loc 1 1709 0
 4625 01e2 0E20     		movs	r0, #14
 4626 01e4 3146     		mov	r1, r6
 4627 01e6 FFF7FEFF 		bl	commands_send_mcconf
 4628              	.LVL735:
 4629              		.loc 1 1710 0
 4630 01ea 42F21070 		movw	r0, #10000
 4631 01ee FFF7FEFF 		bl	chThdSleep
 4632              	.LVL736:
 4633              	.L352:
 4634              		.loc 1 1713 0
 4635 01f2 3046     		mov	r0, r6
 4636 01f4 FFF7FEFF 		bl	mempools_free_mcconf
 4637              	.LVL737:
 4638              		.loc 1 1714 0
 4639 01f8 4846     		mov	r0, r9
 4640 01fa FFF7FEFF 		bl	mempools_free_appconf
 4641              	.LVL738:
 4642              		.loc 1 1716 0
 4643 01fe 5046     		mov	r0, r10
 4644 0200 FFF7FEFF 		bl	mc_interface_select_motor_thread
 4645              	.LVL739:
 4646              		.loc 1 1719 0
 4647 0204 BDEC068B 		vldm	sp!, {d8-d10}
 4648              		.cfi_remember_state
 4649              		.cfi_restore 84
 4650              		.cfi_restore 85
 4651              		.cfi_restore 82
 4652              		.cfi_restore 83
 4653              		.cfi_restore 80
 4654              		.cfi_restore 81
 4655              		.cfi_def_cfa_offset 32
 4656              	.LVL740:
 4657 0208 2846     		mov	r0, r5
 4658 020a BDE8F087 		pop	{r4, r5, r6, r7, r8, r9, r10, pc}
 4659              	.LVL741:
 4660              	.L357:
 4661              		.cfi_restore_state
 4662              	.LBB149:
 4663              		.loc 1 1658 0
 4664 020e 4FF00108 		mov	r8, #1
 4665              	.LVL742:
 4666 0212 64E7     		b	.L346
 4667              	.LVL743:
 4668              	.L377:
 4669              	.LBE149:
 4670              		.loc 1 1680 0
 4671 0214 6FF03105 		mvn	r5, #49
 4672              	.LVL744:
 4673 0218 EBE7     		b	.L352
 4674              	.L379:
ARM GAS  C:\Users\CFAR\AppData\Local\Temp\cc0Op7No.s 			page 83


 4675 021a 00BF     		.align	2
 4676              	.L378:
 4677 021c 6F12833A 		.word	981668463
 4678 0220 000070C2 		.word	-1032847360
 4679 0224 0000C642 		.word	1120272384
 4680 0228 0000C843 		.word	1137180672
 4681 022c 00401C45 		.word	1159479296
 4682              		.cfi_endproc
 4683              	.LFE277:
 4684              		.size	conf_general_detect_apply_all_foc_can, .-conf_general_detect_apply_all_foc_can
 4685              		.global	conf_general_permanent_nrf_found
 4686              		.global	VirtAddVarTab
 4687              		.section	.bss.VirtAddVarTab,"aw",%nobits
 4688              		.align	2
 4689              		.set	.LANCHOR0,. + 0
 4690              		.type	VirtAddVarTab, %object
 4691              		.size	VirtAddVarTab, 1948
 4692              	VirtAddVarTab:
 4693 0000 00000000 		.space	1948
 4693      00000000 
 4693      00000000 
 4693      00000000 
 4693      00000000 
 4694              		.section	.bss.conf_general_permanent_nrf_found,"aw",%nobits
 4695              		.type	conf_general_permanent_nrf_found, %object
 4696              		.size	conf_general_permanent_nrf_found, 1
 4697              	conf_general_permanent_nrf_found:
 4698 0000 00       		.space	1
 4699              		.text
 4700              	.Letext0:
 4701              		.file 2 "c:\\st\\stm32cubeide_1.3.0\\stm32cubeide\\plugins\\com.st.stm32cube.ide.mcu.externaltools
 4702              		.file 3 "c:\\st\\stm32cubeide_1.3.0\\stm32cubeide\\plugins\\com.st.stm32cube.ide.mcu.externaltools
 4703              		.file 4 "c:\\st\\stm32cubeide_1.3.0\\stm32cubeide\\plugins\\com.st.stm32cube.ide.mcu.externaltools
 4704              		.file 5 "ChibiOS_3.0.5/os/rt/ports/ARMCMx/compilers/GCC/chtypes.h"
 4705              		.file 6 "ChibiOS_3.0.5/os/rt/include/chsystypes.h"
 4706              		.file 7 "ChibiOS_3.0.5/os/rt/include/chschd.h"
 4707              		.file 8 "ChibiOS_3.0.5/os/ext/CMSIS/include/core_cm4.h"
 4708              		.file 9 "ChibiOS_3.0.5/os/ext/CMSIS/ST/system_stm32f4xx.h"
 4709              		.file 10 "ChibiOS_3.0.5/os/ext/CMSIS/ST/stm32f407xx.h"
 4710              		.file 11 "ChibiOS_3.0.5/os/rt/ports/ARMCMx/chcore.h"
 4711              		.file 12 "ChibiOS_3.0.5/os/rt/ports/ARMCMx/chcore_v7m.h"
 4712              		.file 13 "ChibiOS_3.0.5/os/rt/include/chtm.h"
 4713              		.file 14 "ChibiOS_3.0.5/os/rt/include/chsem.h"
 4714              		.file 15 "ChibiOS_3.0.5/os/rt/include/chmtx.h"
 4715              		.file 16 "ChibiOS_3.0.5/os/rt/include/chregistry.h"
 4716              		.file 17 "ChibiOS_3.0.5/os/rt/include/chevents.h"
 4717              		.file 18 "ChibiOS_3.0.5/os/rt/include/chqueues.h"
 4718              		.file 19 "datatypes.h"
 4719              		.file 20 "ChibiOS_3.0.5/ext/stdperiph_stm32f4/inc/stm32f4xx_flash.h"
 4720              		.file 21 "conf_general.h"
 4721              		.file 22 "mcpwm.h"
 4722              		.file 23 "mc_interface.h"
 4723              		.file 24 "utils.h"
 4724              		.file 25 "ChibiOS_3.0.5/os/hal/ports/STM32/STM32F4xx/stm32_dma.h"
 4725              		.file 26 "ChibiOS_3.0.5/os/hal/ports/STM32/LLD/GPIOv2/pal_lld.h"
 4726              		.file 27 "ChibiOS_3.0.5/os/hal/include/can.h"
 4727              		.file 28 "ChibiOS_3.0.5/os/hal/ports/STM32/LLD/can_lld.h"
ARM GAS  C:\Users\CFAR\AppData\Local\Temp\cc0Op7No.s 			page 84


 4728              		.file 29 "ChibiOS_3.0.5/os/hal/include/i2c.h"
 4729              		.file 30 "ChibiOS_3.0.5/os/hal/ports/STM32/LLD/I2Cv1/i2c_lld.h"
 4730              		.file 31 "ChibiOS_3.0.5/os/hal/include/icu.h"
 4731              		.file 32 "ChibiOS_3.0.5/os/hal/ports/STM32/LLD/TIMv1/icu_lld.h"
 4732              		.file 33 "ChibiOS_3.0.5/os/hal/ports/STM32/LLD/TIMv1/stm32_tim.h"
 4733              		.file 34 "ChibiOS_3.0.5/os/hal/include/serial.h"
 4734              		.file 35 "ChibiOS_3.0.5/os/hal/ports/STM32/LLD/USARTv1/serial_lld.h"
 4735              		.file 36 "ChibiOS_3.0.5/os/hal/include/spi.h"
 4736              		.file 37 "ChibiOS_3.0.5/os/hal/ports/STM32/LLD/SPIv1/spi_lld.h"
 4737              		.file 38 "ChibiOS_3.0.5/os/hal/include/usb.h"
 4738              		.file 39 "ChibiOS_3.0.5/os/hal/ports/STM32/LLD/OTGv1/usb_lld.h"
 4739              		.file 40 "ChibiOS_3.0.5/os/hal/ports/STM32/LLD/OTGv1/stm32_otg.h"
 4740              		.file 41 "c:\\st\\stm32cubeide_1.3.0\\stm32cubeide\\plugins\\com.st.stm32cube.ide.mcu.externaltool
 4741              		.file 42 "c:\\st\\stm32cubeide_1.3.0\\stm32cubeide\\plugins\\com.st.stm32cube.ide.mcu.externaltool
 4742              		.file 43 "c:\\st\\stm32cubeide_1.3.0\\stm32cubeide\\plugins\\com.st.stm32cube.ide.mcu.externaltool
 4743              		.file 44 "c:\\st\\stm32cubeide_1.3.0\\stm32cubeide\\plugins\\com.st.stm32cube.ide.mcu.externaltool
 4744              		.file 45 "comm_can.h"
 4745              		.file 46 "ChibiOS_3.0.5/os/rt/include/chthreads.h"
 4746              		.file 47 "mempools.h"
 4747              		.file 48 "applications/app.h"
 4748              		.file 49 "commands.h"
 4749              		.file 50 "mcpwm_foc.h"
 4750              		.file 51 "timeout.h"
 4751              		.file 52 "encoder.h"
 4752              		.file 53 "eeprom.h"
 4753              		.file 54 "confgenerator.h"
 4754              		.file 55 "<built-in>"
