ARM GAS  C:\Users\CFAR\AppData\Local\Temp\ccmZZS6U.s 			page 1


   1              		.cpu cortex-m4
   2              		.eabi_attribute 27, 1
   3              		.eabi_attribute 28, 1
   4              		.eabi_attribute 20, 1
   5              		.eabi_attribute 21, 1
   6              		.eabi_attribute 23, 3
   7              		.eabi_attribute 24, 1
   8              		.eabi_attribute 25, 1
   9              		.eabi_attribute 26, 1
  10              		.eabi_attribute 30, 2
  11              		.eabi_attribute 34, 1
  12              		.eabi_attribute 18, 4
  13              		.file	"i2c_bb.c"
  14              		.text
  15              	.Ltext0:
  16              		.cfi_sections	.debug_frame
  17              		.section	.text.clock_stretch_timeout,"ax",%progbits
  18              		.align	1
  19              		.p2align 4,,15
  20              		.syntax unified
  21              		.thumb
  22              		.thumb_func
  23              		.fpu fpv4-sp-d16
  24              		.type	clock_stretch_timeout, %function
  25              	clock_stretch_timeout:
  26              	.LFB265:
  27              		.file 1 "i2c_bb.c"
  28              		.loc 1 252 0
  29              		.cfi_startproc
  30              		@ args = 0, pretend = 0, frame = 0
  31              		@ frame_needed = 0, uses_anonymous_args = 0
  32              	.LVL0:
  33 0000 70B5     		push	{r4, r5, r6, lr}
  34              		.cfi_def_cfa_offset 16
  35              		.cfi_offset 4, -16
  36              		.cfi_offset 5, -12
  37              		.cfi_offset 6, -8
  38              		.cfi_offset 14, -4
  39 0002 2DED028B 		vpush.64	{d8}
  40              		.cfi_def_cfa_offset 24
  41              		.cfi_offset 80, -24
  42              		.cfi_offset 81, -20
  43              		.loc 1 252 0
  44 0006 0546     		mov	r5, r0
  45              		.loc 1 253 0
  46 0008 FFF7FEFF 		bl	timer_time_now
  47              	.LVL1:
  48              		.loc 1 256 0
  49 000c 9FED0E8A 		vldr.32	s16, .L10
  50              		.loc 1 253 0
  51 0010 0646     		mov	r6, r0
  52              	.LVL2:
  53              		.loc 1 255 0
  54 0012 06E0     		b	.L2
  55              	.L5:
  56              		.loc 1 256 0
  57 0014 FFF7FEFF 		bl	timer_seconds_elapsed_since
ARM GAS  C:\Users\CFAR\AppData\Local\Temp\ccmZZS6U.s 			page 2


  58              	.LVL3:
  59 0018 B4EEC80A 		vcmpe.f32	s0, s16
  60 001c F1EE10FA 		vmrs	APSR_nzcv, FPSCR
  61 0020 0BDC     		bgt	.L9
  62              	.L2:
  63              		.loc 1 255 0
  64 0022 D5E90232 		ldrd	r3, r2, [r5, #8]
  65 0026 1B69     		ldr	r3, [r3, #16]
  66 0028 D340     		lsrs	r3, r3, r2
  67 002a 13F00104 		ands	r4, r3, #1
  68              		.loc 1 256 0
  69 002e 3046     		mov	r0, r6
  70              		.loc 1 255 0
  71 0030 F0D0     		beq	.L5
  72              	.LVL4:
  73              		.loc 1 263 0
  74 0032 BDEC028B 		vldm	sp!, {d8}
  75              		.cfi_remember_state
  76              		.cfi_restore 80
  77              		.cfi_restore 81
  78              		.cfi_def_cfa_offset 16
  79              		.loc 1 262 0
  80 0036 0120     		movs	r0, #1
  81              	.LVL5:
  82              		.loc 1 263 0
  83 0038 70BD     		pop	{r4, r5, r6, pc}
  84              	.LVL6:
  85              	.L9:
  86              		.cfi_restore_state
  87 003a BDEC028B 		vldm	sp!, {d8}
  88              		.cfi_restore 80
  89              		.cfi_restore 81
  90              		.cfi_def_cfa_offset 16
  91              		.loc 1 257 0
  92 003e 0123     		movs	r3, #1
  93              		.loc 1 258 0
  94 0040 2046     		mov	r0, r4
  95              		.loc 1 257 0
  96 0042 6B74     		strb	r3, [r5, #17]
  97              		.loc 1 263 0
  98 0044 70BD     		pop	{r4, r5, r6, pc}
  99              	.LVL7:
 100              	.L11:
 101 0046 00BF     		.align	2
 102              	.L10:
 103 0048 0AD7233C 		.word	1008981770
 104              		.cfi_endproc
 105              	.LFE265:
 106              		.size	clock_stretch_timeout, .-clock_stretch_timeout
 107              		.section	.text.i2c_start_cond,"ax",%progbits
 108              		.align	1
 109              		.p2align 4,,15
 110              		.syntax unified
 111              		.thumb
 112              		.thumb_func
 113              		.fpu fpv4-sp-d16
 114              		.type	i2c_start_cond, %function
ARM GAS  C:\Users\CFAR\AppData\Local\Temp\ccmZZS6U.s 			page 3


 115              	i2c_start_cond:
 116              	.LFB259:
 117              		.loc 1 100 0
 118              		.cfi_startproc
 119              		@ args = 0, pretend = 0, frame = 0
 120              		@ frame_needed = 0, uses_anonymous_args = 0
 121              	.LVL8:
 122 0000 38B5     		push	{r3, r4, r5, lr}
 123              		.cfi_def_cfa_offset 16
 124              		.cfi_offset 3, -16
 125              		.cfi_offset 4, -12
 126              		.cfi_offset 5, -8
 127              		.cfi_offset 14, -4
 128              		.loc 1 100 0
 129 0002 0446     		mov	r4, r0
 130 0004 4068     		ldr	r0, [r0, #4]
 131              	.LVL9:
 132              		.loc 1 101 0
 133 0006 227C     		ldrb	r2, [r4, #16]	@ zero_extendqisi2
 134 0008 2168     		ldr	r1, [r4]
 135 000a 0125     		movs	r5, #1
 136 000c 05FA00F3 		lsl	r3, r5, r0
 137 0010 9BB2     		uxth	r3, r3
 138 0012 9AB9     		cbnz	r2, .L23
 139              	.L13:
 140              		.loc 1 115 0
 141 0014 0A69     		ldr	r2, [r1, #16]
 142              	.LBB36:
 143              	.LBB37:
 144              		.loc 1 266 0
 145 0016 9FED160A 		vldr.32	s0, .L24
 146              	.LBE37:
 147              	.LBE36:
 148              		.loc 1 115 0
 149 001a C240     		lsrs	r2, r2, r0
 150 001c D207     		lsls	r2, r2, #31
 151              		.loc 1 117 0
 152 001e 5CBF     		itt	pl
 153 0020 0122     		movpl	r2, #1
 154 0022 6274     		strbpl	r2, [r4, #17]
 155              		.loc 1 121 0
 156 0024 4B83     		strh	r3, [r1, #26]	@ movhi
 157              	.LBB39:
 158              	.LBB38:
 159              		.loc 1 266 0
 160 0026 FFF7FEFF 		bl	timer_sleep
 161              	.LVL10:
 162              	.LBE38:
 163              	.LBE39:
 164              		.loc 1 123 0
 165 002a D4E90213 		ldrd	r1, r3, [r4, #8]
 166 002e 0122     		movs	r2, #1
 167 0030 02FA03F3 		lsl	r3, r2, r3
 168 0034 9BB2     		uxth	r3, r3
 169 0036 4B83     		strh	r3, [r1, #26]	@ movhi
 170              		.loc 1 124 0
 171 0038 2274     		strb	r2, [r4, #16]
ARM GAS  C:\Users\CFAR\AppData\Local\Temp\ccmZZS6U.s 			page 4


 172              	.L12:
 173              		.loc 1 125 0
 174 003a 38BD     		pop	{r3, r4, r5, pc}
 175              	.LVL11:
 176              	.L23:
 177              		.loc 1 103 0
 178 003c 0B83     		strh	r3, [r1, #24]	@ movhi
 179              	.LBB40:
 180              	.LBB41:
 181              		.loc 1 266 0
 182 003e 9FED0C0A 		vldr.32	s0, .L24
 183 0042 FFF7FEFF 		bl	timer_sleep
 184              	.LVL12:
 185              	.LBE41:
 186              	.LBE40:
 187              		.loc 1 105 0
 188 0046 D4E90223 		ldrd	r2, r3, [r4, #8]
 189 004a 05FA03F3 		lsl	r3, r5, r3
 190 004e 9BB2     		uxth	r3, r3
 191 0050 1383     		strh	r3, [r2, #24]	@ movhi
 192              		.loc 1 107 0
 193 0052 2046     		mov	r0, r4
 194 0054 FFF7FEFF 		bl	clock_stretch_timeout
 195              	.LVL13:
 196 0058 0028     		cmp	r0, #0
 197 005a EED0     		beq	.L12
 198              	.LBB42:
 199              	.LBB43:
 200              		.loc 1 266 0
 201 005c 9FED040A 		vldr.32	s0, .L24
 202 0060 FFF7FEFF 		bl	timer_sleep
 203              	.LVL14:
 204 0064 D4E90010 		ldrd	r1, r0, [r4]
 205 0068 05FA00F3 		lsl	r3, r5, r0
 206 006c 9BB2     		uxth	r3, r3
 207 006e D1E7     		b	.L13
 208              	.L25:
 209              		.align	2
 210              	.L24:
 211 0070 BD378635 		.word	897988541
 212              	.LBE43:
 213              	.LBE42:
 214              		.cfi_endproc
 215              	.LFE259:
 216              		.size	i2c_start_cond, .-i2c_start_cond
 217              		.section	.text.i2c_stop_cond,"ax",%progbits
 218              		.align	1
 219              		.p2align 4,,15
 220              		.syntax unified
 221              		.thumb
 222              		.thumb_func
 223              		.fpu fpv4-sp-d16
 224              		.type	i2c_stop_cond, %function
 225              	i2c_stop_cond:
 226              	.LFB260:
 227              		.loc 1 127 0
 228              		.cfi_startproc
ARM GAS  C:\Users\CFAR\AppData\Local\Temp\ccmZZS6U.s 			page 5


 229              		@ args = 0, pretend = 0, frame = 0
 230              		@ frame_needed = 0, uses_anonymous_args = 0
 231              	.LVL15:
 232 0000 38B5     		push	{r3, r4, r5, lr}
 233              		.cfi_def_cfa_offset 16
 234              		.cfi_offset 3, -16
 235              		.cfi_offset 4, -12
 236              		.cfi_offset 5, -8
 237              		.cfi_offset 14, -4
 238              		.loc 1 128 0
 239 0002 D0E90023 		ldrd	r2, r3, [r0]
 240 0006 0125     		movs	r5, #1
 241 0008 05FA03F3 		lsl	r3, r5, r3
 242 000c 9BB2     		uxth	r3, r3
 243              		.loc 1 127 0
 244 000e 0446     		mov	r4, r0
 245              		.loc 1 128 0
 246 0010 5383     		strh	r3, [r2, #26]	@ movhi
 247              	.LBB54:
 248              	.LBB55:
 249              		.loc 1 266 0
 250 0012 9FED140A 		vldr.32	s0, .L34
 251 0016 FFF7FEFF 		bl	timer_sleep
 252              	.LVL16:
 253              	.LBE55:
 254              	.LBE54:
 255              		.loc 1 131 0
 256 001a D4E90223 		ldrd	r2, r3, [r4, #8]
 257 001e 05FA03F3 		lsl	r3, r5, r3
 258 0022 9BB2     		uxth	r3, r3
 259 0024 1383     		strh	r3, [r2, #24]	@ movhi
 260              		.loc 1 133 0
 261 0026 2046     		mov	r0, r4
 262 0028 FFF7FEFF 		bl	clock_stretch_timeout
 263              	.LVL17:
 264 002c 00B9     		cbnz	r0, .L33
 265              		.loc 1 151 0
 266 002e 38BD     		pop	{r3, r4, r5, pc}
 267              	.LVL18:
 268              	.L33:
 269              	.LBB56:
 270              	.LBB57:
 271              	.LBB58:
 272              	.LBB59:
 273              		.loc 1 266 0
 274 0030 9FED0C0A 		vldr.32	s0, .L34
 275 0034 FFF7FEFF 		bl	timer_sleep
 276              	.LVL19:
 277              	.LBE59:
 278              	.LBE58:
 279              		.loc 1 141 0
 280 0038 D4E90023 		ldrd	r2, r3, [r4]
 281 003c 05FA03F3 		lsl	r3, r5, r3
 282 0040 9BB2     		uxth	r3, r3
 283 0042 1383     		strh	r3, [r2, #24]	@ movhi
 284              	.LBB60:
 285              	.LBB61:
ARM GAS  C:\Users\CFAR\AppData\Local\Temp\ccmZZS6U.s 			page 6


 286              		.loc 1 266 0
 287 0044 9FED070A 		vldr.32	s0, .L34
 288 0048 FFF7FEFF 		bl	timer_sleep
 289              	.LVL20:
 290              	.LBE61:
 291              	.LBE60:
 292              		.loc 1 145 0
 293 004c D4E90032 		ldrd	r3, r2, [r4]
 294 0050 1B69     		ldr	r3, [r3, #16]
 295 0052 D340     		lsrs	r3, r3, r2
 296 0054 DB07     		lsls	r3, r3, #31
 297              		.loc 1 150 0
 298 0056 4FF00003 		mov	r3, #0
 299              		.loc 1 147 0
 300 005a 58BF     		it	pl
 301 005c 6574     		strbpl	r5, [r4, #17]
 302              		.loc 1 150 0
 303 005e 2374     		strb	r3, [r4, #16]
 304              	.LBE57:
 305              	.LBE56:
 306              		.loc 1 151 0
 307 0060 38BD     		pop	{r3, r4, r5, pc}
 308              	.LVL21:
 309              	.L35:
 310 0062 00BF     		.align	2
 311              	.L34:
 312 0064 BD378635 		.word	897988541
 313              		.cfi_endproc
 314              	.LFE260:
 315              		.size	i2c_stop_cond, .-i2c_stop_cond
 316              		.section	.text.i2c_write_bit,"ax",%progbits
 317              		.align	1
 318              		.p2align 4,,15
 319              		.syntax unified
 320              		.thumb
 321              		.thumb_func
 322              		.fpu fpv4-sp-d16
 323              		.type	i2c_write_bit, %function
 324              	i2c_write_bit:
 325              	.LFB261:
 326              		.loc 1 153 0
 327              		.cfi_startproc
 328              		@ args = 0, pretend = 0, frame = 0
 329              		@ frame_needed = 0, uses_anonymous_args = 0
 330              	.LVL22:
 331 0000 38B5     		push	{r3, r4, r5, lr}
 332              		.cfi_def_cfa_offset 16
 333              		.cfi_offset 3, -16
 334              		.cfi_offset 4, -12
 335              		.cfi_offset 5, -8
 336              		.cfi_offset 14, -4
 337 0002 D0E90023 		ldrd	r2, r3, [r0]
 338 0006 0125     		movs	r5, #1
 339 0008 05FA03F3 		lsl	r3, r5, r3
 340              		.loc 1 153 0
 341 000c 0446     		mov	r4, r0
 342 000e 9BB2     		uxth	r3, r3
ARM GAS  C:\Users\CFAR\AppData\Local\Temp\ccmZZS6U.s 			page 7


 343              		.loc 1 154 0
 344 0010 01B3     		cbz	r1, .L37
 345              		.loc 1 155 0
 346 0012 1383     		strh	r3, [r2, #24]	@ movhi
 347              	.LBB72:
 348              	.LBB73:
 349              		.loc 1 266 0
 350 0014 9FED190A 		vldr.32	s0, .L47
 351 0018 FFF7FEFF 		bl	timer_sleep
 352              	.LVL23:
 353              	.LBE73:
 354              	.LBE72:
 355              		.loc 1 164 0
 356 001c D4E90223 		ldrd	r2, r3, [r4, #8]
 357 0020 05FA03F3 		lsl	r3, r5, r3
 358 0024 9BB2     		uxth	r3, r3
 359              	.LBB75:
 360              	.LBB76:
 361              		.loc 1 266 0
 362 0026 9FED150A 		vldr.32	s0, .L47
 363              	.LBE76:
 364              	.LBE75:
 365              		.loc 1 164 0
 366 002a 1383     		strh	r3, [r2, #24]	@ movhi
 367              	.LBB80:
 368              	.LBB77:
 369              		.loc 1 266 0
 370 002c FFF7FEFF 		bl	timer_sleep
 371              	.LVL24:
 372              	.LBE77:
 373              	.LBE80:
 374              		.loc 1 169 0
 375 0030 2046     		mov	r0, r4
 376 0032 FFF7FEFF 		bl	clock_stretch_timeout
 377              	.LVL25:
 378 0036 60B1     		cbz	r0, .L36
 379              	.LVL26:
 380              	.LBB81:
 381              	.LBB82:
 382              		.loc 1 176 0
 383 0038 D4E90032 		ldrd	r3, r2, [r4]
 384 003c 1B69     		ldr	r3, [r3, #16]
 385 003e D340     		lsrs	r3, r3, r2
 386 0040 DB07     		lsls	r3, r3, #31
 387              		.loc 1 178 0
 388 0042 58BF     		it	pl
 389 0044 6574     		strbpl	r5, [r4, #17]
 390              	.LVL27:
 391              	.L41:
 392              		.loc 1 182 0
 393 0046 D4E90221 		ldrd	r2, r1, [r4, #8]
 394 004a 0123     		movs	r3, #1
 395 004c 8B40     		lsls	r3, r3, r1
 396 004e 9BB2     		uxth	r3, r3
 397 0050 5383     		strh	r3, [r2, #26]	@ movhi
 398              	.L36:
 399              	.LBE82:
ARM GAS  C:\Users\CFAR\AppData\Local\Temp\ccmZZS6U.s 			page 8


 400              	.LBE81:
 401              		.loc 1 183 0
 402 0052 38BD     		pop	{r3, r4, r5, pc}
 403              	.LVL28:
 404              	.L37:
 405              		.loc 1 157 0
 406 0054 5383     		strh	r3, [r2, #26]	@ movhi
 407              	.LBB83:
 408              	.LBB74:
 409              		.loc 1 266 0
 410 0056 9FED090A 		vldr.32	s0, .L47
 411 005a FFF7FEFF 		bl	timer_sleep
 412              	.LVL29:
 413              	.LBE74:
 414              	.LBE83:
 415              		.loc 1 164 0
 416 005e D4E90223 		ldrd	r2, r3, [r4, #8]
 417 0062 9D40     		lsls	r5, r5, r3
 418 0064 ADB2     		uxth	r5, r5
 419              	.LBB84:
 420              	.LBB78:
 421              		.loc 1 266 0
 422 0066 9FED050A 		vldr.32	s0, .L47
 423              	.LBE78:
 424              	.LBE84:
 425              		.loc 1 164 0
 426 006a 1583     		strh	r5, [r2, #24]	@ movhi
 427              	.LBB85:
 428              	.LBB79:
 429              		.loc 1 266 0
 430 006c FFF7FEFF 		bl	timer_sleep
 431              	.LVL30:
 432              	.LBE79:
 433              	.LBE85:
 434              		.loc 1 169 0
 435 0070 2046     		mov	r0, r4
 436 0072 FFF7FEFF 		bl	clock_stretch_timeout
 437              	.LVL31:
 438 0076 0028     		cmp	r0, #0
 439 0078 E5D1     		bne	.L41
 440 007a EAE7     		b	.L36
 441              	.L48:
 442              		.align	2
 443              	.L47:
 444 007c BD378635 		.word	897988541
 445              		.cfi_endproc
 446              	.LFE261:
 447              		.size	i2c_write_bit, .-i2c_write_bit
 448              		.section	.text.i2c_read_bit,"ax",%progbits
 449              		.align	1
 450              		.p2align 4,,15
 451              		.syntax unified
 452              		.thumb
 453              		.thumb_func
 454              		.fpu fpv4-sp-d16
 455              		.type	i2c_read_bit, %function
 456              	i2c_read_bit:
ARM GAS  C:\Users\CFAR\AppData\Local\Temp\ccmZZS6U.s 			page 9


 457              	.LFB262:
 458              		.loc 1 185 0
 459              		.cfi_startproc
 460              		@ args = 0, pretend = 0, frame = 0
 461              		@ frame_needed = 0, uses_anonymous_args = 0
 462              	.LVL32:
 463 0000 38B5     		push	{r3, r4, r5, lr}
 464              		.cfi_def_cfa_offset 16
 465              		.cfi_offset 3, -16
 466              		.cfi_offset 4, -12
 467              		.cfi_offset 5, -8
 468              		.cfi_offset 14, -4
 469              		.loc 1 189 0
 470 0002 D0E90023 		ldrd	r2, r3, [r0]
 471 0006 0125     		movs	r5, #1
 472 0008 05FA03F3 		lsl	r3, r5, r3
 473 000c 9BB2     		uxth	r3, r3
 474              		.loc 1 185 0
 475 000e 0446     		mov	r4, r0
 476              		.loc 1 189 0
 477 0010 1383     		strh	r3, [r2, #24]	@ movhi
 478              	.LBB94:
 479              	.LBB95:
 480              		.loc 1 266 0
 481 0012 9FED0F0A 		vldr.32	s0, .L56
 482 0016 FFF7FEFF 		bl	timer_sleep
 483              	.LVL33:
 484              	.LBE95:
 485              	.LBE94:
 486              		.loc 1 195 0
 487 001a D4E90223 		ldrd	r2, r3, [r4, #8]
 488 001e 05FA03F3 		lsl	r3, r5, r3
 489 0022 9BB2     		uxth	r3, r3
 490 0024 1383     		strh	r3, [r2, #24]	@ movhi
 491              		.loc 1 197 0
 492 0026 2046     		mov	r0, r4
 493 0028 FFF7FEFF 		bl	clock_stretch_timeout
 494              	.LVL34:
 495 002c 00B9     		cbnz	r0, .L55
 496              		.loc 1 211 0
 497 002e 38BD     		pop	{r3, r4, r5, pc}
 498              	.LVL35:
 499              	.L55:
 500              	.LBB96:
 501              	.LBB97:
 502              	.LBB98:
 503              	.LBB99:
 504              		.loc 1 266 0
 505 0030 9FED070A 		vldr.32	s0, .L56
 506 0034 FFF7FEFF 		bl	timer_sleep
 507              	.LVL36:
 508              	.LBE99:
 509              	.LBE98:
 510              		.loc 1 205 0
 511 0038 2368     		ldr	r3, [r4]
 512              		.loc 1 208 0
 513 003a E168     		ldr	r1, [r4, #12]
ARM GAS  C:\Users\CFAR\AppData\Local\Temp\ccmZZS6U.s 			page 10


 514              		.loc 1 205 0
 515 003c 1869     		ldr	r0, [r3, #16]
 516              		.loc 1 208 0
 517 003e D4E90123 		ldrd	r2, r3, [r4, #4]
 518 0042 8D40     		lsls	r5, r5, r1
 519              		.loc 1 205 0
 520 0044 D040     		lsrs	r0, r0, r2
 521              		.loc 1 208 0
 522 0046 ADB2     		uxth	r5, r5
 523              		.loc 1 205 0
 524 0048 00F00100 		and	r0, r0, #1
 525              	.LVL37:
 526              		.loc 1 208 0
 527 004c 5D83     		strh	r5, [r3, #26]	@ movhi
 528              	.LVL38:
 529              	.LBE97:
 530              	.LBE96:
 531              		.loc 1 211 0
 532 004e 38BD     		pop	{r3, r4, r5, pc}
 533              	.LVL39:
 534              	.L57:
 535              		.align	2
 536              	.L56:
 537 0050 BD378635 		.word	897988541
 538              		.cfi_endproc
 539              	.LFE262:
 540              		.size	i2c_read_bit, .-i2c_read_bit
 541              		.section	.text.i2c_write_byte.constprop.3,"ax",%progbits
 542              		.align	1
 543              		.p2align 4,,15
 544              		.syntax unified
 545              		.thumb
 546              		.thumb_func
 547              		.fpu fpv4-sp-d16
 548              		.type	i2c_write_byte.constprop.3, %function
 549              	i2c_write_byte.constprop.3:
 550              	.LFB271:
 551              		.loc 1 213 0
 552              		.cfi_startproc
 553              		@ args = 0, pretend = 0, frame = 0
 554              		@ frame_needed = 0, uses_anonymous_args = 0
 555              	.LVL40:
 556 0000 70B5     		push	{r4, r5, r6, lr}
 557              		.cfi_def_cfa_offset 16
 558              		.cfi_offset 4, -16
 559              		.cfi_offset 5, -12
 560              		.cfi_offset 6, -8
 561              		.cfi_offset 14, -4
 562              		.loc 1 213 0
 563 0002 1446     		mov	r4, r2
 564 0004 0646     		mov	r6, r0
 565              		.loc 1 217 0
 566 0006 69B9     		cbnz	r1, .L66
 567              	.LVL41:
 568              	.L59:
 569              		.loc 1 213 0
 570 0008 0825     		movs	r5, #8
ARM GAS  C:\Users\CFAR\AppData\Local\Temp\ccmZZS6U.s 			page 11


 571              	.LVL42:
 572              	.L60:
 573              		.loc 1 222 0
 574 000a E109     		lsrs	r1, r4, #7
 575 000c 3046     		mov	r0, r6
 576 000e FFF7FEFF 		bl	i2c_write_bit
 577              	.LVL43:
 578              		.loc 1 223 0
 579 0012 6400     		lsls	r4, r4, #1
 580              	.LVL44:
 581              		.loc 1 221 0
 582 0014 013D     		subs	r5, r5, #1
 583              	.LVL45:
 584              		.loc 1 223 0
 585 0016 E4B2     		uxtb	r4, r4
 586              	.LVL46:
 587              		.loc 1 221 0
 588 0018 F7D1     		bne	.L60
 589              		.loc 1 226 0
 590 001a 3046     		mov	r0, r6
 591              		.loc 1 233 0
 592 001c BDE87040 		pop	{r4, r5, r6, lr}
 593              		.cfi_remember_state
 594              		.cfi_restore 14
 595              		.cfi_restore 6
 596              		.cfi_restore 5
 597              		.cfi_restore 4
 598              		.cfi_def_cfa_offset 0
 599              	.LVL47:
 600              		.loc 1 226 0
 601 0020 FFF7FEBF 		b	i2c_read_bit
 602              	.LVL48:
 603              	.L66:
 604              		.cfi_restore_state
 605              		.loc 1 218 0
 606 0024 FFF7FEFF 		bl	i2c_start_cond
 607              	.LVL49:
 608 0028 EEE7     		b	.L59
 609              		.cfi_endproc
 610              	.LFE271:
 611              		.size	i2c_write_byte.constprop.3, .-i2c_write_byte.constprop.3
 612 002a 00BF     		.section	.text.i2c_bb_init,"ax",%progbits
 613              		.align	1
 614              		.p2align 4,,15
 615              		.global	i2c_bb_init
 616              		.syntax unified
 617              		.thumb
 618              		.thumb_func
 619              		.fpu fpv4-sp-d16
 620              		.type	i2c_bb_init, %function
 621              	i2c_bb_init:
 622              	.LFB256:
 623              		.loc 1 43 0
 624              		.cfi_startproc
 625              		@ args = 0, pretend = 0, frame = 0
 626              		@ frame_needed = 0, uses_anonymous_args = 0
 627              	.LVL50:
ARM GAS  C:\Users\CFAR\AppData\Local\Temp\ccmZZS6U.s 			page 12


 628 0000 38B5     		push	{r3, r4, r5, lr}
 629              		.cfi_def_cfa_offset 16
 630              		.cfi_offset 3, -16
 631              		.cfi_offset 4, -12
 632              		.cfi_offset 5, -8
 633              		.cfi_offset 14, -4
 634              		.loc 1 43 0
 635 0002 0446     		mov	r4, r0
 636              		.loc 1 44 0
 637 0004 1430     		adds	r0, r0, #20
 638              	.LVL51:
 639 0006 FFF7FEFF 		bl	chMtxObjectInit
 640              	.LVL52:
 641              		.loc 1 45 0
 642 000a D4E90001 		ldrd	r0, r1, [r4]
 643 000e 0125     		movs	r5, #1
 644 0010 05FA01F1 		lsl	r1, r5, r1
 645 0014 0522     		movs	r2, #5
 646 0016 FFF7FEFF 		bl	_pal_lld_setgroupmode
 647              	.LVL53:
 648              		.loc 1 46 0
 649 001a D4E90201 		ldrd	r0, r1, [r4, #8]
 650 001e 0522     		movs	r2, #5
 651 0020 05FA01F1 		lsl	r1, r5, r1
 652 0024 FFF7FEFF 		bl	_pal_lld_setgroupmode
 653              	.LVL54:
 654              		.loc 1 47 0
 655 0028 0023     		movs	r3, #0
 656 002a 2374     		strb	r3, [r4, #16]
 657              		.loc 1 48 0
 658 002c 6374     		strb	r3, [r4, #17]
 659              		.loc 1 49 0
 660 002e 38BD     		pop	{r3, r4, r5, pc}
 661              		.cfi_endproc
 662              	.LFE256:
 663              		.size	i2c_bb_init, .-i2c_bb_init
 664              		.section	.text.i2c_bb_restore_bus,"ax",%progbits
 665              		.align	1
 666              		.p2align 4,,15
 667              		.global	i2c_bb_restore_bus
 668              		.syntax unified
 669              		.thumb
 670              		.thumb_func
 671              		.fpu fpv4-sp-d16
 672              		.type	i2c_bb_restore_bus, %function
 673              	i2c_bb_restore_bus:
 674              	.LFB257:
 675              		.loc 1 51 0
 676              		.cfi_startproc
 677              		@ args = 0, pretend = 0, frame = 0
 678              		@ frame_needed = 0, uses_anonymous_args = 0
 679              	.LVL55:
 680 0000 F8B5     		push	{r3, r4, r5, r6, r7, lr}
 681              		.cfi_def_cfa_offset 24
 682              		.cfi_offset 3, -24
 683              		.cfi_offset 4, -20
 684              		.cfi_offset 5, -16
ARM GAS  C:\Users\CFAR\AppData\Local\Temp\ccmZZS6U.s 			page 13


 685              		.cfi_offset 6, -12
 686              		.cfi_offset 7, -8
 687              		.cfi_offset 14, -4
 688              		.loc 1 51 0
 689 0002 0646     		mov	r6, r0
 690              		.loc 1 52 0
 691 0004 00F11405 		add	r5, r0, #20
 692 0008 2846     		mov	r0, r5
 693              	.LVL56:
 694 000a FFF7FEFF 		bl	chMtxLock
 695              	.LVL57:
 696              		.loc 1 54 0
 697 000e F268     		ldr	r2, [r6, #12]
 698 0010 D6E90131 		ldrd	r3, r1, [r6, #4]
 699 0014 0124     		movs	r4, #1
 700 0016 04FA02F2 		lsl	r2, r4, r2
 701 001a 92B2     		uxth	r2, r2
 702 001c 0A83     		strh	r2, [r1, #24]	@ movhi
 703              		.loc 1 55 0
 704 001e 04FA03F3 		lsl	r3, r4, r3
 705 0022 3268     		ldr	r2, [r6]
 706 0024 9BB2     		uxth	r3, r3
 707 0026 1383     		strh	r3, [r2, #24]	@ movhi
 708              		.loc 1 57 0
 709 0028 2046     		mov	r0, r4
 710 002a FFF7FEFF 		bl	chThdSleep
 711              	.LVL58:
 712 002e 1027     		movs	r7, #16
 713              	.LVL59:
 714              	.L70:
 715              	.LBB100:
 716              		.loc 1 60 0 discriminator 3
 717 0030 D6E90223 		ldrd	r2, r3, [r6, #8]
 718 0034 04FA03F3 		lsl	r3, r4, r3
 719 0038 9BB2     		uxth	r3, r3
 720 003a 5383     		strh	r3, [r2, #26]	@ movhi
 721              		.loc 1 61 0 discriminator 3
 722 003c 0120     		movs	r0, #1
 723 003e FFF7FEFF 		bl	chThdSleep
 724              	.LVL60:
 725              		.loc 1 62 0 discriminator 3
 726 0042 D6E90223 		ldrd	r2, r3, [r6, #8]
 727 0046 04FA03F3 		lsl	r3, r4, r3
 728 004a 9BB2     		uxth	r3, r3
 729 004c 1383     		strh	r3, [r2, #24]	@ movhi
 730              		.loc 1 63 0 discriminator 3
 731 004e 0120     		movs	r0, #1
 732 0050 FFF7FEFF 		bl	chThdSleep
 733              	.LVL61:
 734              		.loc 1 59 0 discriminator 3
 735 0054 013F     		subs	r7, r7, #1
 736              	.LVL62:
 737 0056 EBD1     		bne	.L70
 738              	.LBE100:
 739              		.loc 1 68 0
 740 0058 3046     		mov	r0, r6
 741              		.loc 1 66 0
ARM GAS  C:\Users\CFAR\AppData\Local\Temp\ccmZZS6U.s 			page 14


 742 005a 3774     		strb	r7, [r6, #16]
 743              		.loc 1 68 0
 744 005c FFF7FEFF 		bl	i2c_start_cond
 745              	.LVL63:
 746              		.loc 1 69 0
 747 0060 3046     		mov	r0, r6
 748 0062 FFF7FEFF 		bl	i2c_stop_cond
 749              	.LVL64:
 750              		.loc 1 71 0
 751 0066 7774     		strb	r7, [r6, #17]
 752              		.loc 1 73 0
 753 0068 2846     		mov	r0, r5
 754              		.loc 1 74 0
 755 006a BDE8F840 		pop	{r3, r4, r5, r6, r7, lr}
 756              		.cfi_restore 14
 757              		.cfi_restore 7
 758              		.cfi_restore 6
 759              		.cfi_restore 5
 760              		.cfi_restore 4
 761              		.cfi_restore 3
 762              		.cfi_def_cfa_offset 0
 763              	.LVL65:
 764              		.loc 1 73 0
 765 006e FFF7FEBF 		b	chMtxUnlock
 766              	.LVL66:
 767              		.cfi_endproc
 768              	.LFE257:
 769              		.size	i2c_bb_restore_bus, .-i2c_bb_restore_bus
 770 0072 00BF     		.section	.text.i2c_bb_tx_rx,"ax",%progbits
 771              		.align	1
 772              		.p2align 4,,15
 773              		.global	i2c_bb_tx_rx
 774              		.syntax unified
 775              		.thumb
 776              		.thumb_func
 777              		.fpu fpv4-sp-d16
 778              		.type	i2c_bb_tx_rx, %function
 779              	i2c_bb_tx_rx:
 780              	.LFB258:
 781              		.loc 1 76 0
 782              		.cfi_startproc
 783              		@ args = 8, pretend = 0, frame = 0
 784              		@ frame_needed = 0, uses_anonymous_args = 0
 785              	.LVL67:
 786 0000 2DE9F84F 		push	{r3, r4, r5, r6, r7, r8, r9, r10, fp, lr}
 787              		.cfi_def_cfa_offset 40
 788              		.cfi_offset 3, -40
 789              		.cfi_offset 4, -36
 790              		.cfi_offset 5, -32
 791              		.cfi_offset 6, -28
 792              		.cfi_offset 7, -24
 793              		.cfi_offset 8, -20
 794              		.cfi_offset 9, -16
 795              		.cfi_offset 10, -12
 796              		.cfi_offset 11, -8
 797              		.cfi_offset 14, -4
 798              		.loc 1 77 0
ARM GAS  C:\Users\CFAR\AppData\Local\Temp\ccmZZS6U.s 			page 15


 799 0004 00F11409 		add	r9, r0, #20
 800              		.loc 1 79 0
 801 0008 4FEA4108 		lsl	r8, r1, #1
 802              		.loc 1 76 0
 803 000c 0446     		mov	r4, r0
 804              		.loc 1 77 0
 805 000e 4846     		mov	r0, r9
 806              	.LVL68:
 807              		.loc 1 76 0
 808 0010 1546     		mov	r5, r2
 809 0012 1E46     		mov	r6, r3
 810              		.loc 1 77 0
 811 0014 FFF7FEFF 		bl	chMtxLock
 812              	.LVL69:
 813              		.loc 1 79 0
 814 0018 08F0FE02 		and	r2, r8, #254
 815 001c 2046     		mov	r0, r4
 816 001e 0121     		movs	r1, #1
 817 0020 FFF7FEFF 		bl	i2c_write_byte.constprop.3
 818              	.LVL70:
 819              	.LBB105:
 820              		.loc 1 81 0
 821 0024 4EB1     		cbz	r6, .L74
 822 0026 013D     		subs	r5, r5, #1
 823              	.LVL71:
 824 0028 2E44     		add	r6, r6, r5
 825              	.LVL72:
 826              	.L75:
 827              		.loc 1 82 0 discriminator 3
 828 002a 15F8012F 		ldrb	r2, [r5, #1]!	@ zero_extendqisi2
 829              	.LVL73:
 830 002e 0021     		movs	r1, #0
 831 0030 2046     		mov	r0, r4
 832 0032 FFF7FEFF 		bl	i2c_write_byte.constprop.3
 833              	.LVL74:
 834              		.loc 1 81 0 discriminator 3
 835 0036 B542     		cmp	r5, r6
 836 0038 F7D1     		bne	.L75
 837              	.LVL75:
 838              	.L74:
 839              	.LBE105:
 840              		.loc 1 85 0
 841 003a 0B9B     		ldr	r3, [sp, #44]
 842 003c 53B9     		cbnz	r3, .L89
 843              	.L76:
 844              		.loc 1 93 0
 845 003e 2046     		mov	r0, r4
 846 0040 FFF7FEFF 		bl	i2c_stop_cond
 847              	.LVL76:
 848              		.loc 1 95 0
 849 0044 4846     		mov	r0, r9
 850 0046 FFF7FEFF 		bl	chMtxUnlock
 851              	.LVL77:
 852              		.loc 1 97 0
 853 004a 607C     		ldrb	r0, [r4, #17]	@ zero_extendqisi2
 854              		.loc 1 98 0
 855 004c 80F00100 		eor	r0, r0, #1
ARM GAS  C:\Users\CFAR\AppData\Local\Temp\ccmZZS6U.s 			page 16


 856 0050 BDE8F88F 		pop	{r3, r4, r5, r6, r7, r8, r9, r10, fp, pc}
 857              	.LVL78:
 858              	.L89:
 859              		.loc 1 86 0
 860 0054 48F00102 		orr	r2, r8, #1
 861 0058 D2B2     		uxtb	r2, r2
 862 005a 0121     		movs	r1, #1
 863 005c 2046     		mov	r0, r4
 864 005e FFF7FEFF 		bl	i2c_write_byte.constprop.3
 865              	.LVL79:
 866 0062 0B9B     		ldr	r3, [sp, #44]
 867 0064 03F1FF3A 		add	r10, r3, #-1
 868 0068 0A9B     		ldr	r3, [sp, #40]
 869              	.LBB106:
 870              		.loc 1 88 0
 871 006a 0025     		movs	r5, #0
 872 006c 5E1E     		subs	r6, r3, #1
 873              	.LVL80:
 874              	.L78:
 875              		.loc 1 89 0 discriminator 3
 876 006e AAEB0508 		sub	r8, r10, r5
 877 0072 B8FA88F8 		clz	r8, r8
 878 0076 4FEA5818 		lsr	r8, r8, #5
 879              	.LVL81:
 880 007a 4FF0080B 		mov	fp, #8
 881              	.LBB107:
 882              	.LBB108:
 883              		.loc 1 236 0 discriminator 3
 884 007e 0027     		movs	r7, #0
 885              	.LVL82:
 886              	.L77:
 887              		.loc 1 240 0
 888 0080 2046     		mov	r0, r4
 889 0082 FFF7FEFF 		bl	i2c_read_bit
 890              	.LVL83:
 891 0086 0BF1FF33 		add	r3, fp, #-1
 892 008a 40EA4707 		orr	r7, r0, r7, lsl #1
 893              	.LVL84:
 894              		.loc 1 239 0
 895 008e 13F0FF0B 		ands	fp, r3, #255
 896              	.LVL85:
 897              		.loc 1 240 0
 898 0092 FFB2     		uxtb	r7, r7
 899              	.LVL86:
 900              		.loc 1 239 0
 901 0094 F4D1     		bne	.L77
 902              		.loc 1 243 0
 903 0096 4146     		mov	r1, r8
 904 0098 2046     		mov	r0, r4
 905 009a FFF7FEFF 		bl	i2c_write_bit
 906              	.LVL87:
 907              	.LBE108:
 908              	.LBE107:
 909              		.loc 1 88 0
 910 009e 0B9B     		ldr	r3, [sp, #44]
 911              		.loc 1 89 0
 912 00a0 06F8017F 		strb	r7, [r6, #1]!
ARM GAS  C:\Users\CFAR\AppData\Local\Temp\ccmZZS6U.s 			page 17


 913              		.loc 1 88 0
 914 00a4 0135     		adds	r5, r5, #1
 915              	.LVL88:
 916 00a6 AB42     		cmp	r3, r5
 917 00a8 E1D1     		bne	.L78
 918 00aa C8E7     		b	.L76
 919              	.LBE106:
 920              		.cfi_endproc
 921              	.LFE258:
 922              		.size	i2c_bb_tx_rx, .-i2c_bb_tx_rx
 923              		.text
 924              	.Letext0:
 925              		.file 2 "c:\\st\\stm32cubeide_1.3.0\\stm32cubeide\\plugins\\com.st.stm32cube.ide.mcu.externaltools
 926              		.file 3 "c:\\st\\stm32cubeide_1.3.0\\stm32cubeide\\plugins\\com.st.stm32cube.ide.mcu.externaltools
 927              		.file 4 "c:\\st\\stm32cubeide_1.3.0\\stm32cubeide\\plugins\\com.st.stm32cube.ide.mcu.externaltools
 928              		.file 5 "ChibiOS_3.0.5/os/rt/ports/ARMCMx/compilers/GCC/chtypes.h"
 929              		.file 6 "ChibiOS_3.0.5/os/rt/include/chsystypes.h"
 930              		.file 7 "ChibiOS_3.0.5/os/rt/include/chschd.h"
 931              		.file 8 "ChibiOS_3.0.5/os/ext/CMSIS/include/core_cm4.h"
 932              		.file 9 "ChibiOS_3.0.5/os/ext/CMSIS/ST/system_stm32f4xx.h"
 933              		.file 10 "ChibiOS_3.0.5/os/ext/CMSIS/ST/stm32f407xx.h"
 934              		.file 11 "ChibiOS_3.0.5/os/rt/ports/ARMCMx/chcore.h"
 935              		.file 12 "ChibiOS_3.0.5/os/rt/ports/ARMCMx/chcore_v7m.h"
 936              		.file 13 "ChibiOS_3.0.5/os/rt/include/chtm.h"
 937              		.file 14 "ChibiOS_3.0.5/os/rt/include/chsem.h"
 938              		.file 15 "ChibiOS_3.0.5/os/rt/include/chmtx.h"
 939              		.file 16 "ChibiOS_3.0.5/os/rt/include/chregistry.h"
 940              		.file 17 "ChibiOS_3.0.5/os/rt/include/chevents.h"
 941              		.file 18 "ChibiOS_3.0.5/os/rt/include/chqueues.h"
 942              		.file 19 "./conf_general.h"
 943              		.file 20 "ChibiOS_3.0.5/os/hal/ports/STM32/STM32F4xx/stm32_dma.h"
 944              		.file 21 "ChibiOS_3.0.5/os/hal/ports/STM32/LLD/GPIOv2/pal_lld.h"
 945              		.file 22 "ChibiOS_3.0.5/os/hal/include/can.h"
 946              		.file 23 "ChibiOS_3.0.5/os/hal/ports/STM32/LLD/can_lld.h"
 947              		.file 24 "ChibiOS_3.0.5/os/hal/include/i2c.h"
 948              		.file 25 "ChibiOS_3.0.5/os/hal/ports/STM32/LLD/I2Cv1/i2c_lld.h"
 949              		.file 26 "ChibiOS_3.0.5/os/hal/include/icu.h"
 950              		.file 27 "ChibiOS_3.0.5/os/hal/ports/STM32/LLD/TIMv1/icu_lld.h"
 951              		.file 28 "ChibiOS_3.0.5/os/hal/ports/STM32/LLD/TIMv1/stm32_tim.h"
 952              		.file 29 "ChibiOS_3.0.5/os/hal/include/serial.h"
 953              		.file 30 "ChibiOS_3.0.5/os/hal/ports/STM32/LLD/USARTv1/serial_lld.h"
 954              		.file 31 "ChibiOS_3.0.5/os/hal/include/spi.h"
 955              		.file 32 "ChibiOS_3.0.5/os/hal/ports/STM32/LLD/SPIv1/spi_lld.h"
 956              		.file 33 "ChibiOS_3.0.5/os/hal/include/usb.h"
 957              		.file 34 "ChibiOS_3.0.5/os/hal/ports/STM32/LLD/OTGv1/usb_lld.h"
 958              		.file 35 "ChibiOS_3.0.5/os/hal/ports/STM32/LLD/OTGv1/stm32_otg.h"
 959              		.file 36 "i2c_bb.h"
 960              		.file 37 "timer.h"
 961              		.file 38 "ChibiOS_3.0.5/os/rt/include/chthreads.h"
