ARM GAS  C:\Users\CFAR\AppData\Local\Temp\ccjYdTaZ.s 			page 1


   1              		.cpu cortex-m4
   2              		.eabi_attribute 27, 1
   3              		.eabi_attribute 28, 1
   4              		.eabi_attribute 20, 1
   5              		.eabi_attribute 21, 1
   6              		.eabi_attribute 23, 3
   7              		.eabi_attribute 24, 1
   8              		.eabi_attribute 25, 1
   9              		.eabi_attribute 26, 1
  10              		.eabi_attribute 30, 2
  11              		.eabi_attribute 34, 1
  12              		.eabi_attribute 18, 4
  13              		.file	"i2c_lld.c"
  14              		.text
  15              	.Ltext0:
  16              		.cfi_sections	.debug_frame
  17              		.section	.text.i2c_lld_serve_tx_end_irq,"ax",%progbits
  18              		.align	1
  19              		.p2align 4,,15
  20              		.syntax unified
  21              		.thumb
  22              		.thumb_func
  23              		.fpu fpv4-sp-d16
  24              		.type	i2c_lld_serve_tx_end_irq, %function
  25              	i2c_lld_serve_tx_end_irq:
  26              	.LFB261:
  27              		.file 1 "ChibiOS_3.0.5/os/hal/ports/STM32/LLD/I2Cv1/i2c_lld.c"
  28              		.loc 1 332 0
  29              		.cfi_startproc
  30              		@ args = 0, pretend = 0, frame = 0
  31              		@ frame_needed = 0, uses_anonymous_args = 0
  32              	.LVL0:
  33              		.loc 1 337 0
  34 0000 11F00C0F 		tst	r1, #12
  35              		.loc 1 332 0
  36 0004 38B5     		push	{r3, r4, r5, lr}
  37              		.cfi_def_cfa_offset 16
  38              		.cfi_offset 3, -16
  39              		.cfi_offset 4, -12
  40              		.cfi_offset 5, -8
  41              		.cfi_offset 14, -4
  42              		.loc 1 332 0
  43 0006 0546     		mov	r5, r0
  44              		.loc 1 333 0
  45 0008 446B     		ldr	r4, [r0, #52]
  46              	.LVL1:
  47              		.loc 1 337 0
  48 000a 12D1     		bne	.L10
  49              	.LVL2:
  50              	.L2:
  51              		.loc 1 344 0
  52 000c 296B     		ldr	r1, [r5, #48]
  53 000e 0A68     		ldr	r2, [r1]
  54 0010 1368     		ldr	r3, [r2]
  55 0012 23F01F03 		bic	r3, r3, #31
  56 0016 1360     		str	r3, [r2]
  57              	.L3:
ARM GAS  C:\Users\CFAR\AppData\Local\Temp\ccjYdTaZ.s 			page 2


  58              		.loc 1 344 0 is_stmt 0 discriminator 2
  59 0018 1368     		ldr	r3, [r2]
  60 001a DB07     		lsls	r3, r3, #31
  61 001c FCD4     		bmi	.L3
  62              		.loc 1 344 0 discriminator 3
  63 001e 087A     		ldrb	r0, [r1, #8]	@ zero_extendqisi2
  64 0020 4A68     		ldr	r2, [r1, #4]
  65 0022 3D23     		movs	r3, #61
  66 0024 8340     		lsls	r3, r3, r0
  67 0026 1360     		str	r3, [r2]
  68              		.loc 1 348 0 is_stmt 1 discriminator 3
  69 0028 6368     		ldr	r3, [r4, #4]
  70 002a 43F40073 		orr	r3, r3, #512
  71 002e 6360     		str	r3, [r4, #4]
  72              		.loc 1 349 0 discriminator 3
  73 0030 38BD     		pop	{r3, r4, r5, pc}
  74              	.LVL3:
  75              	.L10:
  76              	.LBB209:
  77              	.LBB210:
  78              		.file 2 "ChibiOS_3.0.5/os/hal/osal/rt/osal.h"
  79              		.loc 2 462 0
  80 0032 0248     		ldr	r0, .L11
  81              	.LVL4:
  82 0034 FFF7FEFF 		bl	chSysHalt
  83              	.LVL5:
  84 0038 E8E7     		b	.L2
  85              	.L12:
  86 003a 00BF     		.align	2
  87              	.L11:
  88 003c 00000000 		.word	.LC0
  89              	.LBE210:
  90              	.LBE209:
  91              		.cfi_endproc
  92              	.LFE261:
  93              		.size	i2c_lld_serve_tx_end_irq, .-i2c_lld_serve_tx_end_irq
  94              		.section	.text.i2c_lld_serve_rx_end_irq,"ax",%progbits
  95              		.align	1
  96              		.p2align 4,,15
  97              		.syntax unified
  98              		.thumb
  99              		.thumb_func
 100              		.fpu fpv4-sp-d16
 101              		.type	i2c_lld_serve_rx_end_irq, %function
 102              	i2c_lld_serve_rx_end_irq:
 103              	.LFB260:
 104              		.loc 1 305 0
 105              		.cfi_startproc
 106              		@ args = 0, pretend = 0, frame = 0
 107              		@ frame_needed = 0, uses_anonymous_args = 0
 108              	.LVL6:
 109              		.loc 1 310 0
 110 0000 11F00C0F 		tst	r1, #12
 111              		.loc 1 305 0
 112 0004 38B5     		push	{r3, r4, r5, lr}
 113              		.cfi_def_cfa_offset 16
 114              		.cfi_offset 3, -16
ARM GAS  C:\Users\CFAR\AppData\Local\Temp\ccjYdTaZ.s 			page 3


 115              		.cfi_offset 4, -12
 116              		.cfi_offset 5, -8
 117              		.cfi_offset 14, -4
 118              		.loc 1 305 0
 119 0006 0546     		mov	r5, r0
 120              		.loc 1 306 0
 121 0008 446B     		ldr	r4, [r0, #52]
 122              	.LVL7:
 123              		.loc 1 310 0
 124 000a 21D1     		bne	.L21
 125              	.LVL8:
 126              	.L14:
 127              		.loc 1 317 0
 128 000c EA6A     		ldr	r2, [r5, #44]
 129 000e 1368     		ldr	r3, [r2]
 130 0010 1968     		ldr	r1, [r3]
 131 0012 21F01F01 		bic	r1, r1, #31
 132 0016 1960     		str	r1, [r3]
 133              	.L15:
 134              		.loc 1 317 0 is_stmt 0 discriminator 2
 135 0018 1968     		ldr	r1, [r3]
 136 001a 11F00101 		ands	r1, r1, #1
 137 001e FBD1     		bne	.L15
 138              		.loc 1 317 0 discriminator 3
 139 0020 107A     		ldrb	r0, [r2, #8]	@ zero_extendqisi2
 140 0022 5268     		ldr	r2, [r2, #4]
 141 0024 3D23     		movs	r3, #61
 142 0026 8340     		lsls	r3, r3, r0
 143 0028 1360     		str	r3, [r2]
 144              		.loc 1 319 0 is_stmt 1 discriminator 3
 145 002a 6368     		ldr	r3, [r4, #4]
 146 002c 23F48053 		bic	r3, r3, #4096
 147 0030 6360     		str	r3, [r4, #4]
 148              		.loc 1 320 0 discriminator 3
 149 0032 2368     		ldr	r3, [r4]
 150 0034 23F48063 		bic	r3, r3, #1024
 151 0038 2360     		str	r3, [r4]
 152              		.loc 1 321 0 discriminator 3
 153 003a 2368     		ldr	r3, [r4]
 154 003c 43F40073 		orr	r3, r3, #512
 155 0040 2360     		str	r3, [r4]
 156              	.LBB211:
 157              	.LBB212:
 158              	.LBB213:
 159              	.LBB214:
 160              	.LBB215:
 161              	.LBB216:
 162              		.file 3 "ChibiOS_3.0.5/os/ext/CMSIS/include/core_cmFunc.h"
 163              		.loc 3 342 0 discriminator 3
 164              		.syntax unified
 165              	@ 342 "ChibiOS_3.0.5/os/ext/CMSIS/include/core_cmFunc.h" 1
 166 0042 72B6     		cpsid i
 167              	@ 0 "" 2
 168              	.LVL9:
 169              		.thumb
 170              		.syntax unified
 171              	.LBE216:
ARM GAS  C:\Users\CFAR\AppData\Local\Temp\ccjYdTaZ.s 			page 4


 172              	.LBE215:
 173              	.LBE214:
 174              	.LBE213:
 175              	.LBE212:
 176              	.LBE211:
 177              	.LBB217:
 178              	.LBB218:
 179              		.loc 2 728 0 discriminator 3
 180 0044 05F11C00 		add	r0, r5, #28
 181              	.LVL10:
 182 0048 FFF7FEFF 		bl	chThdResumeI
 183              	.LVL11:
 184              	.LBE218:
 185              	.LBE217:
 186              	.LBB219:
 187              	.LBB220:
 188              	.LBB221:
 189              	.LBB222:
 190              	.LBB223:
 191              	.LBB224:
 192              		.loc 3 331 0 discriminator 3
 193              		.syntax unified
 194              	@ 331 "ChibiOS_3.0.5/os/ext/CMSIS/include/core_cmFunc.h" 1
 195 004c 62B6     		cpsie i
 196              	@ 0 "" 2
 197              		.thumb
 198              		.syntax unified
 199              	.LBE224:
 200              	.LBE223:
 201              	.LBE222:
 202              	.LBE221:
 203              	.LBE220:
 204              	.LBE219:
 205              		.loc 1 323 0 discriminator 3
 206 004e 38BD     		pop	{r3, r4, r5, pc}
 207              	.LVL12:
 208              	.L21:
 209              	.LBB225:
 210              	.LBB226:
 211              		.loc 2 462 0
 212 0050 0148     		ldr	r0, .L22
 213              	.LVL13:
 214 0052 FFF7FEFF 		bl	chSysHalt
 215              	.LVL14:
 216 0056 D9E7     		b	.L14
 217              	.L23:
 218              		.align	2
 219              	.L22:
 220 0058 00000000 		.word	.LC0
 221              	.LBE226:
 222              	.LBE225:
 223              		.cfi_endproc
 224              	.LFE260:
 225              		.size	i2c_lld_serve_rx_end_irq, .-i2c_lld_serve_rx_end_irq
 226              		.section	.text.VectorC4,"ax",%progbits
 227              		.align	1
 228              		.p2align 4,,15
ARM GAS  C:\Users\CFAR\AppData\Local\Temp\ccjYdTaZ.s 			page 5


 229              		.global	VectorC4
 230              		.syntax unified
 231              		.thumb
 232              		.thumb_func
 233              		.fpu fpv4-sp-d16
 234              		.type	VectorC4, %function
 235              	VectorC4:
 236              	.LFB263:
 237              		.loc 1 436 0
 238              		.cfi_startproc
 239              		@ args = 0, pretend = 0, frame = 0
 240              		@ frame_needed = 0, uses_anonymous_args = 0
 241              	.LVL15:
 242              	.LBB243:
 243              	.LBB244:
 244              		.loc 1 246 0
 245 0000 3748     		ldr	r0, .L40
 246              		.loc 1 253 0
 247 0002 384A     		ldr	r2, .L40+4
 248              	.LBE244:
 249              	.LBE243:
 250              		.loc 1 436 0
 251 0004 38B5     		push	{r3, r4, r5, lr}
 252              		.cfi_def_cfa_offset 16
 253              		.cfi_offset 3, -16
 254              		.cfi_offset 4, -12
 255              		.cfi_offset 5, -8
 256              		.cfi_offset 14, -4
 257              	.LBB262:
 258              	.LBB259:
 259              		.loc 1 246 0
 260 0006 446B     		ldr	r4, [r0, #52]
 261              	.LVL16:
 262              		.loc 1 247 0
 263 0008 A369     		ldr	r3, [r4, #24]
 264              	.LVL17:
 265              		.loc 1 248 0
 266 000a 6569     		ldr	r5, [r4, #20]
 267              	.LVL18:
 268              		.loc 1 253 0
 269 000c 45EA0343 		orr	r3, r5, r3, lsl #16
 270              	.LVL19:
 271 0010 23F07F43 		bic	r3, r3, #-16777216
 272 0014 9342     		cmp	r3, r2
 273 0016 50D0     		beq	.L26
 274 0018 22D8     		bhi	.L27
 275 001a 073A     		subs	r2, r2, #7
 276 001c 9342     		cmp	r3, r2
 277 001e 40D0     		beq	.L28
 278 0020 0132     		adds	r2, r2, #1
 279 0022 9342     		cmp	r3, r2
 280 0024 14D1     		bne	.L25
 281              		.loc 1 267 0
 282 0026 6268     		ldr	r2, [r4, #4]
 283              		.loc 1 268 0
 284 0028 C36A     		ldr	r3, [r0, #44]
 285              		.loc 1 267 0
ARM GAS  C:\Users\CFAR\AppData\Local\Temp\ccjYdTaZ.s 			page 6


 286 002a 22F40072 		bic	r2, r2, #512
 287              		.loc 1 268 0
 288 002e 1B68     		ldr	r3, [r3]
 289              		.loc 1 267 0
 290 0030 6260     		str	r2, [r4, #4]
 291              		.loc 1 268 0
 292 0032 1A68     		ldr	r2, [r3]
 293 0034 42F00102 		orr	r2, r2, #1
 294 0038 1A60     		str	r2, [r3]
 295              		.loc 1 269 0
 296 003a 6268     		ldr	r2, [r4, #4]
 297 003c 42F48052 		orr	r2, r2, #4096
 298 0040 6260     		str	r2, [r4, #4]
 299              		.loc 1 270 0
 300 0042 5B68     		ldr	r3, [r3, #4]
 301 0044 012B     		cmp	r3, #1
 302 0046 03D8     		bhi	.L25
 303              		.loc 1 271 0
 304 0048 2368     		ldr	r3, [r4]
 305 004a 23F48063 		bic	r3, r3, #1024
 306 004e 2360     		str	r3, [r4]
 307              	.L25:
 308              		.loc 1 293 0
 309 0050 15F00A0F 		tst	r5, #10
 310              		.loc 1 294 0
 311 0054 18BF     		it	ne
 312 0056 A369     		ldrne	r3, [r4, #24]
 313              	.LVL20:
 314              	.LBE259:
 315              	.LBE262:
 316              		.loc 1 443 0
 317 0058 BDE83840 		pop	{r3, r4, r5, lr}
 318              		.cfi_remember_state
 319              		.cfi_restore 14
 320              		.cfi_restore 5
 321              		.cfi_restore 4
 322              		.cfi_restore 3
 323              		.cfi_def_cfa_offset 0
 324              		.loc 1 442 0
 325 005c FFF7FEBF 		b	_port_irq_epilogue
 326              	.LVL21:
 327              	.L27:
 328              		.cfi_restore_state
 329              	.LBB263:
 330              	.LBB260:
 331              		.loc 1 253 0
 332 0060 214A     		ldr	r2, .L40+8
 333 0062 9342     		cmp	r3, r2
 334 0064 12D0     		beq	.L30
 335 0066 0232     		adds	r2, r2, #2
 336 0068 9342     		cmp	r3, r2
 337 006a F1D1     		bne	.L25
 338              		.loc 1 279 0
 339 006c C36A     		ldr	r3, [r0, #44]
 340 006e 1B68     		ldr	r3, [r3]
 341 0070 5968     		ldr	r1, [r3, #4]
 342 0072 39B3     		cbz	r1, .L33
ARM GAS  C:\Users\CFAR\AppData\Local\Temp\ccjYdTaZ.s 			page 7


 343              		.loc 1 282 0
 344 0074 2368     		ldr	r3, [r4]
 345              		.loc 1 281 0
 346 0076 028C     		ldrh	r2, [r0, #32]
 347              		.loc 1 282 0
 348 0078 43F4A063 		orr	r3, r3, #1280
 349              		.loc 1 281 0
 350 007c 42F00102 		orr	r2, r2, #1
 351 0080 0284     		strh	r2, [r0, #32]	@ movhi
 352              		.loc 1 282 0
 353 0082 2360     		str	r3, [r4]
 354              	.LVL22:
 355              	.LBE260:
 356              	.LBE263:
 357              		.loc 1 443 0
 358 0084 BDE83840 		pop	{r3, r4, r5, lr}
 359              		.cfi_remember_state
 360              		.cfi_restore 14
 361              		.cfi_restore 5
 362              		.cfi_restore 4
 363              		.cfi_restore 3
 364              		.cfi_def_cfa_offset 0
 365              		.loc 1 442 0
 366 0088 FFF7FEBF 		b	_port_irq_epilogue
 367              	.LVL23:
 368              	.L30:
 369              		.cfi_restore_state
 370              	.LBB264:
 371              	.LBB261:
 372              		.loc 1 274 0
 373 008c 6368     		ldr	r3, [r4, #4]
 374              		.loc 1 275 0
 375 008e 026B     		ldr	r2, [r0, #48]
 376              		.loc 1 274 0
 377 0090 23F40073 		bic	r3, r3, #512
 378              		.loc 1 275 0
 379 0094 1268     		ldr	r2, [r2]
 380              		.loc 1 274 0
 381 0096 6360     		str	r3, [r4, #4]
 382              		.loc 1 275 0
 383 0098 1368     		ldr	r3, [r2]
 384 009a 43F00103 		orr	r3, r3, #1
 385 009e 1360     		str	r3, [r2]
 386 00a0 D6E7     		b	.L25
 387              	.L28:
 388              		.loc 1 255 0
 389 00a2 038C     		ldrh	r3, [r0, #32]
 390 00a4 1A0A     		lsrs	r2, r3, #8
 391 00a6 0BD0     		beq	.L39
 392              		.loc 1 257 0
 393 00a8 03F00103 		and	r3, r3, #1
 394 00ac 43F0F003 		orr	r3, r3, #240
 395 00b0 02F00602 		and	r2, r2, #6
 396 00b4 1343     		orrs	r3, r3, r2
 397 00b6 2361     		str	r3, [r4, #16]
 398 00b8 CAE7     		b	.L25
 399              	.L26:
ARM GAS  C:\Users\CFAR\AppData\Local\Temp\ccjYdTaZ.s 			page 8


 400              		.loc 1 264 0
 401 00ba 038C     		ldrh	r3, [r0, #32]
 402 00bc C3F34703 		ubfx	r3, r3, #1, #8
 403              	.L39:
 404 00c0 2361     		str	r3, [r4, #16]
 405 00c2 C5E7     		b	.L25
 406              	.L33:
 407              		.loc 1 285 0
 408 00c4 6368     		ldr	r3, [r4, #4]
 409 00c6 23F40073 		bic	r3, r3, #512
 410 00ca 6360     		str	r3, [r4, #4]
 411              		.loc 1 286 0
 412 00cc 2368     		ldr	r3, [r4]
 413 00ce 43F40073 		orr	r3, r3, #512
 414 00d2 2360     		str	r3, [r4]
 415              	.LBB245:
 416              	.LBB246:
 417              	.LBB247:
 418              	.LBB248:
 419              	.LBB249:
 420              	.LBB250:
 421              		.loc 3 342 0
 422              		.syntax unified
 423              	@ 342 "ChibiOS_3.0.5/os/ext/CMSIS/include/core_cmFunc.h" 1
 424 00d4 72B6     		cpsid i
 425              	@ 0 "" 2
 426              	.LVL24:
 427              		.thumb
 428              		.syntax unified
 429              	.LBE250:
 430              	.LBE249:
 431              	.LBE248:
 432              	.LBE247:
 433              	.LBE246:
 434              	.LBE245:
 435              	.LBB251:
 436              	.LBB252:
 437              		.loc 2 728 0
 438 00d6 1C30     		adds	r0, r0, #28
 439 00d8 FFF7FEFF 		bl	chThdResumeI
 440              	.LVL25:
 441              	.LBE252:
 442              	.LBE251:
 443              	.LBB253:
 444              	.LBB254:
 445              	.LBB255:
 446              	.LBB256:
 447              	.LBB257:
 448              	.LBB258:
 449              		.loc 3 331 0
 450              		.syntax unified
 451              	@ 331 "ChibiOS_3.0.5/os/ext/CMSIS/include/core_cmFunc.h" 1
 452 00dc 62B6     		cpsie i
 453              	@ 0 "" 2
 454              		.thumb
 455              		.syntax unified
 456 00de B7E7     		b	.L25
ARM GAS  C:\Users\CFAR\AppData\Local\Temp\ccjYdTaZ.s 			page 9


 457              	.L41:
 458              		.align	2
 459              	.L40:
 460 00e0 00000000 		.word	.LANCHOR0
 461 00e4 08000300 		.word	196616
 462 00e8 82000700 		.word	458882
 463              	.LBE258:
 464              	.LBE257:
 465              	.LBE256:
 466              	.LBE255:
 467              	.LBE254:
 468              	.LBE253:
 469              	.LBE261:
 470              	.LBE264:
 471              		.cfi_endproc
 472              	.LFE263:
 473              		.size	VectorC4, .-VectorC4
 474              		.section	.text.VectorC8,"ax",%progbits
 475              		.align	1
 476              		.p2align 4,,15
 477              		.global	VectorC8
 478              		.syntax unified
 479              		.thumb
 480              		.thumb_func
 481              		.fpu fpv4-sp-d16
 482              		.type	VectorC8, %function
 483              	VectorC8:
 484              	.LFB264:
 485              		.loc 1 450 0
 486              		.cfi_startproc
 487              		@ args = 0, pretend = 0, frame = 0
 488              		@ frame_needed = 0, uses_anonymous_args = 0
 489              		.loc 1 451 0
 490 0000 3248     		ldr	r0, .L74
 491              		.loc 1 450 0
 492 0002 F8B5     		push	{r3, r4, r5, r6, r7, lr}
 493              		.cfi_def_cfa_offset 24
 494              		.cfi_offset 3, -24
 495              		.cfi_offset 4, -20
 496              		.cfi_offset 5, -16
 497              		.cfi_offset 6, -12
 498              		.cfi_offset 7, -8
 499              		.cfi_offset 14, -4
 500              	.LBB281:
 501              	.LBB282:
 502              		.loc 1 362 0
 503 0004 D0E90C75 		ldrd	r7, r5, [r0, #48]
 504              	.LBE282:
 505              	.LBE281:
 506              		.loc 1 451 0
 507 0008 6C69     		ldr	r4, [r5, #20]
 508              	.LBB302:
 509              	.LBB297:
 510              		.loc 1 362 0
 511 000a 3A68     		ldr	r2, [r7]
 512              	.LBE297:
 513              	.LBE302:
ARM GAS  C:\Users\CFAR\AppData\Local\Temp\ccjYdTaZ.s 			page 10


 514              		.loc 1 455 0
 515 000c 04F45F43 		and	r3, r4, #57088
 516 0010 DB43     		mvns	r3, r3
 517 0012 6B61     		str	r3, [r5, #20]
 518              	.LBB303:
 519              	.LBB298:
 520              		.loc 1 362 0
 521 0014 1368     		ldr	r3, [r2]
 522 0016 23F01F03 		bic	r3, r3, #31
 523 001a 1360     		str	r3, [r2]
 524              	.LBE298:
 525              	.LBE303:
 526              		.loc 1 451 0
 527 001c A1B2     		uxth	r1, r4
 528              	.LVL26:
 529              	.L43:
 530              	.LBB304:
 531              	.LBB299:
 532              		.loc 1 362 0
 533 001e 1368     		ldr	r3, [r2]
 534 0020 DB07     		lsls	r3, r3, #31
 535 0022 FCD4     		bmi	.L43
 536 0024 3A7A     		ldrb	r2, [r7, #8]	@ zero_extendqisi2
 537              		.loc 1 363 0
 538 0026 C66A     		ldr	r6, [r0, #44]
 539              		.loc 1 362 0
 540 0028 7F68     		ldr	r7, [r7, #4]
 541 002a 3D23     		movs	r3, #61
 542 002c 9340     		lsls	r3, r3, r2
 543              		.loc 1 363 0
 544 002e 3268     		ldr	r2, [r6]
 545              		.loc 1 362 0
 546 0030 3B60     		str	r3, [r7]
 547              		.loc 1 363 0
 548 0032 1368     		ldr	r3, [r2]
 549 0034 23F01F03 		bic	r3, r3, #31
 550 0038 1360     		str	r3, [r2]
 551              	.L44:
 552 003a 1368     		ldr	r3, [r2]
 553 003c DF07     		lsls	r7, r3, #31
 554 003e FCD4     		bmi	.L44
 555 0040 377A     		ldrb	r7, [r6, #8]	@ zero_extendqisi2
 556 0042 7268     		ldr	r2, [r6, #4]
 557 0044 3D23     		movs	r3, #61
 558 0046 BB40     		lsls	r3, r3, r7
 559 0048 1360     		str	r3, [r2]
 560              		.loc 1 367 0
 561 004a 11F48073 		ands	r3, r1, #256
 562              		.loc 1 368 0
 563 004e 18BF     		it	ne
 564 0050 0123     		movne	r3, #1
 565              		.loc 1 370 0
 566 0052 8A05     		lsls	r2, r1, #22
 567              		.loc 1 368 0
 568 0054 8360     		str	r3, [r0, #8]
 569              		.loc 1 371 0
 570 0056 44BF     		itt	mi
ARM GAS  C:\Users\CFAR\AppData\Local\Temp\ccjYdTaZ.s 			page 11


 571 0058 43F00203 		orrmi	r3, r3, #2
 572 005c 8360     		strmi	r3, [r0, #8]
 573              		.loc 1 373 0
 574 005e 4F05     		lsls	r7, r1, #21
 575 0060 0AD5     		bpl	.L48
 576              		.loc 1 374 0
 577 0062 6A68     		ldr	r2, [r5, #4]
 578 0064 22F40072 		bic	r2, r2, #512
 579 0068 6A60     		str	r2, [r5, #4]
 580              		.loc 1 375 0
 581 006a 2A68     		ldr	r2, [r5]
 582              		.loc 1 376 0
 583 006c 43F00403 		orr	r3, r3, #4
 584              		.loc 1 375 0
 585 0070 42F40072 		orr	r2, r2, #512
 586 0074 2A60     		str	r2, [r5]
 587              		.loc 1 376 0
 588 0076 8360     		str	r3, [r0, #8]
 589              	.L48:
 590              		.loc 1 379 0
 591 0078 0E05     		lsls	r6, r1, #20
 592              		.loc 1 380 0
 593 007a 44BF     		itt	mi
 594 007c 43F00803 		orrmi	r3, r3, #8
 595 0080 8360     		strmi	r3, [r0, #8]
 596              		.loc 1 382 0
 597 0082 4D04     		lsls	r5, r1, #17
 598              		.loc 1 383 0
 599 0084 44BF     		itt	mi
 600 0086 43F02003 		orrmi	r3, r3, #32
 601 008a 8360     		strmi	r3, [r0, #8]
 602              		.loc 1 385 0
 603 008c CA04     		lsls	r2, r1, #19
 604 008e 24B2     		sxth	r4, r4
 605 0090 0FD5     		bpl	.L51
 606              		.loc 1 386 0
 607 0092 43F01003 		orr	r3, r3, #16
 608              		.loc 1 388 0
 609 0096 002C     		cmp	r4, #0
 610              		.loc 1 386 0
 611 0098 8360     		str	r3, [r0, #8]
 612              		.loc 1 388 0
 613 009a 12DB     		blt	.L52
 614              	.L53:
 615              	.LBB283:
 616              	.LBB284:
 617              	.LBB285:
 618              	.LBB286:
 619              	.LBB287:
 620              	.LBB288:
 621              		.loc 3 342 0
 622              		.syntax unified
 623              	@ 342 "ChibiOS_3.0.5/os/ext/CMSIS/include/core_cmFunc.h" 1
 624 009c 72B6     		cpsid i
 625              	@ 0 "" 2
 626              	.LVL27:
 627              		.thumb
ARM GAS  C:\Users\CFAR\AppData\Local\Temp\ccjYdTaZ.s 			page 12


 628              		.syntax unified
 629              	.LBE288:
 630              	.LBE287:
 631              	.LBE286:
 632              	.LBE285:
 633              	.LBE284:
 634              	.LBE283:
 635              	.LBB289:
 636              	.LBB290:
 637              		.loc 2 728 0
 638 009e 6FF00101 		mvn	r1, #1
 639              	.LVL28:
 640 00a2 0B48     		ldr	r0, .L74+4
 641 00a4 FFF7FEFF 		bl	chThdResumeI
 642              	.LVL29:
 643              	.LBE290:
 644              	.LBE289:
 645              	.LBB291:
 646              	.LBB292:
 647              	.LBB293:
 648              	.LBB294:
 649              	.LBB295:
 650              	.LBB296:
 651              		.loc 3 331 0
 652              		.syntax unified
 653              	@ 331 "ChibiOS_3.0.5/os/ext/CMSIS/include/core_cmFunc.h" 1
 654 00a8 62B6     		cpsie i
 655              	@ 0 "" 2
 656              	.LVL30:
 657              		.thumb
 658              		.syntax unified
 659              	.LBE296:
 660              	.LBE295:
 661              	.LBE294:
 662              	.LBE293:
 663              	.LBE292:
 664              	.LBE291:
 665              	.LBE299:
 666              	.LBE304:
 667              		.loc 1 459 0
 668 00aa BDE8F840 		pop	{r3, r4, r5, r6, r7, lr}
 669              		.cfi_remember_state
 670              		.cfi_restore 14
 671              		.cfi_restore 7
 672              		.cfi_restore 6
 673              		.cfi_restore 5
 674              		.cfi_restore 4
 675              		.cfi_restore 3
 676              		.cfi_def_cfa_offset 0
 677              	.LVL31:
 678              		.loc 1 458 0
 679 00ae FFF7FEBF 		b	_port_irq_epilogue
 680              	.LVL32:
 681              	.L51:
 682              		.cfi_restore_state
 683              	.LBB305:
 684              	.LBB300:
ARM GAS  C:\Users\CFAR\AppData\Local\Temp\ccjYdTaZ.s 			page 13


 685              		.loc 1 388 0
 686 00b2 002C     		cmp	r4, #0
 687 00b4 05DB     		blt	.L52
 688              		.loc 1 392 0
 689 00b6 002B     		cmp	r3, #0
 690 00b8 F0D1     		bne	.L53
 691              	.LVL33:
 692              	.LBE300:
 693              	.LBE305:
 694              		.loc 1 459 0
 695 00ba BDE8F840 		pop	{r3, r4, r5, r6, r7, lr}
 696              		.cfi_remember_state
 697              		.cfi_restore 14
 698              		.cfi_restore 7
 699              		.cfi_restore 6
 700              		.cfi_restore 5
 701              		.cfi_restore 4
 702              		.cfi_restore 3
 703              		.cfi_def_cfa_offset 0
 704              		.loc 1 458 0
 705 00be FFF7FEBF 		b	_port_irq_epilogue
 706              	.LVL34:
 707              	.L52:
 708              		.cfi_restore_state
 709              	.LBB306:
 710              	.LBB301:
 711              		.loc 1 389 0
 712 00c2 43F04003 		orr	r3, r3, #64
 713 00c6 8360     		str	r3, [r0, #8]
 714 00c8 E8E7     		b	.L53
 715              	.L75:
 716 00ca 00BF     		.align	2
 717              	.L74:
 718 00cc 00000000 		.word	.LANCHOR0
 719 00d0 1C000000 		.word	.LANCHOR0+28
 720              	.LBE301:
 721              	.LBE306:
 722              		.cfi_endproc
 723              	.LFE264:
 724              		.size	VectorC8, .-VectorC8
 725              		.section	.text.i2c_lld_init,"ax",%progbits
 726              		.align	1
 727              		.p2align 4,,15
 728              		.global	i2c_lld_init
 729              		.syntax unified
 730              		.thumb
 731              		.thumb_func
 732              		.fpu fpv4-sp-d16
 733              		.type	i2c_lld_init, %function
 734              	i2c_lld_init:
 735              	.LFB265:
 736              		.loc 1 503 0
 737              		.cfi_startproc
 738              		@ args = 0, pretend = 0, frame = 0
 739              		@ frame_needed = 0, uses_anonymous_args = 0
 740 0000 10B5     		push	{r4, lr}
 741              		.cfi_def_cfa_offset 8
ARM GAS  C:\Users\CFAR\AppData\Local\Temp\ccjYdTaZ.s 			page 14


 742              		.cfi_offset 4, -8
 743              		.cfi_offset 14, -4
 744              		.loc 1 514 0
 745 0002 074C     		ldr	r4, .L78
 746 0004 2046     		mov	r0, r4
 747 0006 FFF7FEFF 		bl	i2cObjectInit
 748              	.LVL35:
 749              		.loc 1 517 0
 750 000a 064B     		ldr	r3, .L78+4
 751              		.loc 1 516 0
 752 000c 064A     		ldr	r2, .L78+8
 753 000e 6263     		str	r2, [r4, #52]
 754              		.loc 1 515 0
 755 0010 0021     		movs	r1, #0
 756              		.loc 1 518 0
 757 0012 03F13C02 		add	r2, r3, #60
 758              		.loc 1 515 0
 759 0016 E161     		str	r1, [r4, #28]
 760              		.loc 1 518 0
 761 0018 C4E90B32 		strd	r3, r2, [r4, #44]
 762              		.loc 1 528 0
 763 001c 10BD     		pop	{r4, pc}
 764              	.L79:
 765 001e 00BF     		.align	2
 766              	.L78:
 767 0020 00000000 		.word	.LANCHOR0
 768 0024 18000000 		.word	_stm32_dma_streams+24
 769 0028 00580040 		.word	1073764352
 770              		.cfi_endproc
 771              	.LFE265:
 772              		.size	i2c_lld_init, .-i2c_lld_init
 773              		.section	.text.i2c_lld_start,"ax",%progbits
 774              		.align	1
 775              		.p2align 4,,15
 776              		.global	i2c_lld_start
 777              		.syntax unified
 778              		.thumb
 779              		.thumb_func
 780              		.fpu fpv4-sp-d16
 781              		.type	i2c_lld_start, %function
 782              	i2c_lld_start:
 783              	.LFB266:
 784              		.loc 1 537 0
 785              		.cfi_startproc
 786              		@ args = 0, pretend = 0, frame = 0
 787              		@ frame_needed = 0, uses_anonymous_args = 0
 788              	.LVL36:
 789 0000 F8B5     		push	{r3, r4, r5, r6, r7, lr}
 790              		.cfi_def_cfa_offset 24
 791              		.cfi_offset 3, -24
 792              		.cfi_offset 4, -20
 793              		.cfi_offset 5, -16
 794              		.cfi_offset 6, -12
 795              		.cfi_offset 7, -8
 796              		.cfi_offset 14, -4
 797              		.loc 1 550 0
 798 0002 0378     		ldrb	r3, [r0]	@ zero_extendqisi2
ARM GAS  C:\Users\CFAR\AppData\Local\Temp\ccjYdTaZ.s 			page 15


 799              		.loc 1 538 0
 800 0004 456B     		ldr	r5, [r0, #52]
 801              	.LVL37:
 802              		.loc 1 540 0
 803 0006 40F25642 		movw	r2, #1110
 804 000a 8262     		str	r2, [r0, #40]
 805              		.loc 1 550 0
 806 000c 012B     		cmp	r3, #1
 807              		.loc 1 544 0
 808 000e 40F21642 		movw	r2, #1046
 809              		.loc 1 537 0
 810 0012 0446     		mov	r4, r0
 811              		.loc 1 544 0
 812 0014 4262     		str	r2, [r0, #36]
 813              		.loc 1 550 0
 814 0016 3CD0     		beq	.L95
 815              	.L91:
 816              		.loc 1 538 0
 817 0018 2B46     		mov	r3, r5
 818              	.LVL38:
 819              	.L81:
 820              		.loc 1 633 0
 821 001a D4E90B12 		ldrd	r1, r2, [r4, #44]
 822              		.loc 1 641 0
 823 001e 6068     		ldr	r0, [r4, #4]
 824              	.LVL39:
 825              		.loc 1 632 0
 826 0020 0F68     		ldr	r7, [r1]
 827              		.loc 1 633 0
 828 0022 D2F800C0 		ldr	ip, [r2]
 829              	.LBB312:
 830              	.LBB313:
 831              		.loc 1 146 0
 832 0026 4168     		ldr	r1, [r0, #4]
 833              	.LVL40:
 834              		.loc 1 161 0
 835 0028 464E     		ldr	r6, .L100
 836              	.LBE313:
 837              	.LBE312:
 838              		.loc 1 632 0
 839 002a 05F11002 		add	r2, r5, #16
 840 002e BA60     		str	r2, [r7, #8]
 841              		.loc 1 638 0
 842 0030 4FF41064 		mov	r4, #2304
 843              	.LVL41:
 844              		.loc 1 633 0
 845 0034 CCF80820 		str	r2, [ip, #8]
 846              		.loc 1 636 0
 847 0038 4FF40047 		mov	r7, #32768
 848              		.loc 1 637 0
 849 003c 0022     		movs	r2, #0
 850              		.loc 1 636 0
 851 003e 2F60     		str	r7, [r5]
 852              		.loc 1 637 0
 853 0040 2A60     		str	r2, [r5]
 854              		.loc 1 638 0
 855 0042 6C60     		str	r4, [r5, #4]
ARM GAS  C:\Users\CFAR\AppData\Local\Temp\ccjYdTaZ.s 			page 16


 856              	.LBB317:
 857              	.LBB314:
 858              		.loc 1 154 0
 859 0044 5C68     		ldr	r4, [r3, #4]
 860 0046 4FF6C077 		movw	r7, #65472
 861 004a 3C40     		ands	r4, r4, r7
 862              		.loc 1 147 0
 863 004c 077A     		ldrb	r7, [r0, #8]	@ zero_extendqisi2
 864              	.LVL42:
 865              		.loc 1 154 0
 866 004e 5C60     		str	r4, [r3, #4]
 867              		.loc 1 155 0
 868 0050 5C68     		ldr	r4, [r3, #4]
 869              		.loc 1 161 0
 870 0052 B142     		cmp	r1, r6
 871              		.loc 1 155 0
 872 0054 44F02A04 		orr	r4, r4, #42
 873 0058 5C60     		str	r4, [r3, #4]
 874              	.LVL43:
 875              		.loc 1 161 0
 876 005a 49DD     		ble	.L96
 877              		.loc 1 177 0
 878 005c 3A4C     		ldr	r4, .L100+4
 879 005e A142     		cmp	r1, r4
 880 0060 07DC     		bgt	.L83
 881              		.loc 1 183 0
 882 0062 022F     		cmp	r7, #2
 883 0064 56D0     		beq	.L97
 884              		.loc 1 189 0
 885 0066 032F     		cmp	r7, #3
 886 0068 5FD0     		beq	.L98
 887 006a 48F6FF72 		movw	r2, #36863
 888              	.LVL44:
 889              	.L85:
 890              		.loc 1 202 0
 891 006e 0D21     		movs	r1, #13
 892 0070 1962     		str	r1, [r3, #32]
 893              	.L83:
 894              		.loc 1 207 0
 895 0072 DA61     		str	r2, [r3, #28]
 896              	.LVL45:
 897              	.LBE314:
 898              	.LBE317:
 899              	.LBB318:
 900              	.LBB319:
 901              		.loc 1 223 0
 902 0074 0178     		ldrb	r1, [r0]	@ zero_extendqisi2
 903              		.loc 1 222 0
 904 0076 1A68     		ldr	r2, [r3]
 905              		.loc 1 223 0
 906 0078 0229     		cmp	r1, #2
 907              		.loc 1 222 0
 908 007a 92B2     		uxth	r2, r2
 909              	.LVL46:
 910              		.loc 1 223 0
 911 007c 44D0     		beq	.L87
 912 007e 0329     		cmp	r1, #3
ARM GAS  C:\Users\CFAR\AppData\Local\Temp\ccjYdTaZ.s 			page 17


 913 0080 3FD0     		beq	.L88
 914 0082 0129     		cmp	r1, #1
 915 0084 30D0     		beq	.L99
 916              	.L86:
 917              		.loc 1 235 0
 918 0086 1A60     		str	r2, [r3]
 919              	.LVL47:
 920              	.LBE319:
 921              	.LBE318:
 922              		.loc 1 645 0
 923 0088 2B68     		ldr	r3, [r5]
 924 008a 43F00103 		orr	r3, r3, #1
 925 008e 2B60     		str	r3, [r5]
 926              		.loc 1 646 0
 927 0090 F8BD     		pop	{r3, r4, r5, r6, r7, pc}
 928              	.LVL48:
 929              	.L95:
 930              		.loc 1 579 0
 931 0092 2E4B     		ldr	r3, .L100+8
 932 0094 9842     		cmp	r0, r3
 933 0096 BFD1     		bne	.L91
 934              	.LBB322:
 935              		.loc 1 582 0
 936 0098 2D4E     		ldr	r6, .L100+12
 937              		.loc 1 583 0
 938 009a C06A     		ldr	r0, [r0, #44]
 939              	.LVL49:
 940              		.loc 1 582 0
 941 009c 336A     		ldr	r3, [r6, #32]
 942              		.loc 1 583 0
 943 009e 2D4A     		ldr	r2, .L100+16
 944              		.loc 1 582 0
 945 00a0 43F48003 		orr	r3, r3, #4194304
 946 00a4 0021     		movs	r1, #0
 947 00a6 3362     		str	r3, [r6, #32]
 948              		.loc 1 583 0
 949 00a8 2346     		mov	r3, r4
 950              		.loc 1 582 0
 951 00aa 3162     		str	r1, [r6, #32]
 952              		.loc 1 583 0
 953 00ac 0521     		movs	r1, #5
 954 00ae FFF7FEFF 		bl	dmaStreamAllocate
 955              	.LVL50:
 956              		.loc 1 588 0
 957 00b2 294A     		ldr	r2, .L100+20
 958 00b4 206B     		ldr	r0, [r4, #48]
 959 00b6 2346     		mov	r3, r4
 960 00b8 0521     		movs	r1, #5
 961 00ba FFF7FEFF 		bl	dmaStreamAllocate
 962              	.LVL51:
 963              		.loc 1 593 0
 964 00be 336C     		ldr	r3, [r6, #64]
 965 00c0 43F48003 		orr	r3, r3, #4194304
 966 00c4 3364     		str	r3, [r6, #64]
 967              		.loc 1 594 0
 968 00c6 0521     		movs	r1, #5
 969 00c8 2120     		movs	r0, #33
ARM GAS  C:\Users\CFAR\AppData\Local\Temp\ccjYdTaZ.s 			page 18


 970 00ca FFF7FEFF 		bl	nvicEnableVector
 971              	.LVL52:
 972              		.loc 1 595 0
 973 00ce 0521     		movs	r1, #5
 974 00d0 2220     		movs	r0, #34
 975 00d2 FFF7FEFF 		bl	nvicEnableVector
 976              	.LVL53:
 977              		.loc 1 597 0
 978 00d6 616A     		ldr	r1, [r4, #36]
 979 00d8 2048     		ldr	r0, .L100+24
 980              		.loc 1 599 0
 981 00da A26A     		ldr	r2, [r4, #40]
 982 00dc 636B     		ldr	r3, [r4, #52]
 983              		.loc 1 597 0
 984 00de 0143     		orrs	r1, r1, r0
 985              		.loc 1 599 0
 986 00e0 0243     		orrs	r2, r2, r0
 987 00e2 C4E90912 		strd	r1, r2, [r4, #36]
 988 00e6 98E7     		b	.L81
 989              	.LVL54:
 990              	.L99:
 991              	.LBE322:
 992              	.LBB323:
 993              	.LBB320:
 994              		.loc 1 225 0
 995 00e8 22F00A02 		bic	r2, r2, #10
 996              	.LVL55:
 997 00ec 92B2     		uxth	r2, r2
 998              	.LVL56:
 999 00ee CAE7     		b	.L86
 1000              	.LVL57:
 1001              	.L96:
 1002              	.LBE320:
 1003              	.LBE323:
 1004              	.LBB324:
 1005              	.LBB315:
 1006              		.loc 1 175 0
 1007 00f0 2B24     		movs	r4, #43
 1008              		.loc 1 168 0
 1009 00f2 4900     		lsls	r1, r1, #1
 1010              	.LVL58:
 1011 00f4 1A4A     		ldr	r2, .L100+28
 1012              		.loc 1 175 0
 1013 00f6 1C62     		str	r4, [r3, #32]
 1014              		.loc 1 168 0
 1015 00f8 B2FBF1F2 		udiv	r2, r2, r1
 1016 00fc C2F30B02 		ubfx	r2, r2, #0, #12
 1017 0100 B7E7     		b	.L83
 1018              	.LVL59:
 1019              	.L88:
 1020              	.LBE315:
 1021              	.LBE324:
 1022              	.LBB325:
 1023              	.LBB321:
 1024              		.loc 1 232 0
 1025 0102 42F00A02 		orr	r2, r2, #10
 1026              	.LVL60:
ARM GAS  C:\Users\CFAR\AppData\Local\Temp\ccjYdTaZ.s 			page 19


 1027 0106 BEE7     		b	.L86
 1028              	.L87:
 1029              	.LVL61:
 1030 0108 22F00802 		bic	r2, r2, #8
 1031              	.LVL62:
 1032 010c 92B2     		uxth	r2, r2
 1033              		.loc 1 229 0
 1034 010e 42F00202 		orr	r2, r2, #2
 1035              	.LVL63:
 1036 0112 B8E7     		b	.L86
 1037              	.LVL64:
 1038              	.L97:
 1039              	.LBE321:
 1040              	.LBE325:
 1041              	.LBB326:
 1042              	.LBB316:
 1043              		.loc 1 187 0
 1044 0114 01EB4101 		add	r1, r1, r1, lsl #1
 1045              	.LVL65:
 1046 0118 114A     		ldr	r2, .L100+28
 1047 011a B2FBF1F2 		udiv	r2, r2, r1
 1048 011e 6FEA4242 		mvn	r2, r2, lsl #17
 1049 0122 6FEA5242 		mvn	r2, r2, lsr #17
 1050 0126 92B2     		uxth	r2, r2
 1051 0128 A1E7     		b	.L85
 1052              	.LVL66:
 1053              	.L98:
 1054              		.loc 1 193 0
 1055 012a 01EB8102 		add	r2, r1, r1, lsl #2
 1056 012e 02EB8201 		add	r1, r2, r2, lsl #2
 1057              	.LVL67:
 1058 0132 0B4A     		ldr	r2, .L100+28
 1059 0134 B2FBF1F2 		udiv	r2, r2, r1
 1060 0138 6FEA8242 		mvn	r2, r2, lsl #18
 1061 013c 6FEA9242 		mvn	r2, r2, lsr #18
 1062 0140 92B2     		uxth	r2, r2
 1063 0142 94E7     		b	.L85
 1064              	.L101:
 1065              		.align	2
 1066              	.L100:
 1067 0144 A0860100 		.word	100000
 1068 0148 801A0600 		.word	400000
 1069 014c 00000000 		.word	.LANCHOR0
 1070 0150 00380240 		.word	1073887232
 1071 0154 00000000 		.word	i2c_lld_serve_rx_end_irq
 1072 0158 00000000 		.word	i2c_lld_serve_tx_end_irq
 1073 015c 0000030E 		.word	235077632
 1074 0160 80DE8002 		.word	42000000
 1075              	.LBE316:
 1076              	.LBE326:
 1077              		.cfi_endproc
 1078              	.LFE266:
 1079              		.size	i2c_lld_start, .-i2c_lld_start
 1080              		.section	.text.i2c_lld_stop,"ax",%progbits
 1081              		.align	1
 1082              		.p2align 4,,15
 1083              		.global	i2c_lld_stop
ARM GAS  C:\Users\CFAR\AppData\Local\Temp\ccjYdTaZ.s 			page 20


 1084              		.syntax unified
 1085              		.thumb
 1086              		.thumb_func
 1087              		.fpu fpv4-sp-d16
 1088              		.type	i2c_lld_stop, %function
 1089              	i2c_lld_stop:
 1090              	.LFB267:
 1091              		.loc 1 655 0
 1092              		.cfi_startproc
 1093              		@ args = 0, pretend = 0, frame = 0
 1094              		@ frame_needed = 0, uses_anonymous_args = 0
 1095              	.LVL68:
 1096 0000 38B5     		push	{r3, r4, r5, lr}
 1097              		.cfi_def_cfa_offset 16
 1098              		.cfi_offset 3, -16
 1099              		.cfi_offset 4, -12
 1100              		.cfi_offset 5, -8
 1101              		.cfi_offset 14, -4
 1102              		.loc 1 658 0
 1103 0002 0378     		ldrb	r3, [r0]	@ zero_extendqisi2
 1104 0004 012B     		cmp	r3, #1
 1105 0006 2DD0     		beq	.L102
 1106              	.LVL69:
 1107              	.LBB329:
 1108              	.LBB330:
 1109              		.loc 1 123 0
 1110 0008 D0E90C13 		ldrd	r1, r3, [r0, #48]
 1111              	.LVL70:
 1112              		.loc 1 127 0
 1113 000c 0024     		movs	r4, #0
 1114              		.loc 1 132 0
 1115 000e 0A68     		ldr	r2, [r1]
 1116              		.loc 1 126 0
 1117 0010 4FF40045 		mov	r5, #32768
 1118 0014 1D60     		str	r5, [r3]
 1119              		.loc 1 127 0
 1120 0016 1C60     		str	r4, [r3]
 1121              		.loc 1 128 0
 1122 0018 5C60     		str	r4, [r3, #4]
 1123              		.loc 1 129 0
 1124 001a 5C61     		str	r4, [r3, #20]
 1125              		.loc 1 132 0
 1126 001c 1368     		ldr	r3, [r2]
 1127              	.LVL71:
 1128 001e 23F01F03 		bic	r3, r3, #31
 1129 0022 1360     		str	r3, [r2]
 1130              	.L105:
 1131 0024 1368     		ldr	r3, [r2]
 1132 0026 DC07     		lsls	r4, r3, #31
 1133 0028 FCD4     		bmi	.L105
 1134 002a 0A7A     		ldrb	r2, [r1, #8]	@ zero_extendqisi2
 1135              		.loc 1 133 0
 1136 002c C56A     		ldr	r5, [r0, #44]
 1137              		.loc 1 132 0
 1138 002e 4C68     		ldr	r4, [r1, #4]
 1139 0030 3D23     		movs	r3, #61
 1140 0032 9340     		lsls	r3, r3, r2
ARM GAS  C:\Users\CFAR\AppData\Local\Temp\ccjYdTaZ.s 			page 21


 1141              		.loc 1 133 0
 1142 0034 2A68     		ldr	r2, [r5]
 1143              		.loc 1 132 0
 1144 0036 2360     		str	r3, [r4]
 1145              		.loc 1 133 0
 1146 0038 1368     		ldr	r3, [r2]
 1147 003a 23F01F03 		bic	r3, r3, #31
 1148 003e 1360     		str	r3, [r2]
 1149              	.L106:
 1150 0040 1368     		ldr	r3, [r2]
 1151 0042 DB07     		lsls	r3, r3, #31
 1152 0044 FCD4     		bmi	.L106
 1153 0046 0446     		mov	r4, r0
 1154 0048 287A     		ldrb	r0, [r5, #8]	@ zero_extendqisi2
 1155              	.LVL72:
 1156 004a 6A68     		ldr	r2, [r5, #4]
 1157 004c 3D23     		movs	r3, #61
 1158 004e 8340     		lsls	r3, r3, r0
 1159 0050 1360     		str	r3, [r2]
 1160              	.LVL73:
 1161              	.LBE330:
 1162              	.LBE329:
 1163              		.loc 1 662 0
 1164 0052 0846     		mov	r0, r1
 1165 0054 FFF7FEFF 		bl	dmaStreamRelease
 1166              	.LVL74:
 1167              		.loc 1 663 0
 1168 0058 E06A     		ldr	r0, [r4, #44]
 1169 005a FFF7FEFF 		bl	dmaStreamRelease
 1170              	.LVL75:
 1171              		.loc 1 674 0
 1172 005e 084B     		ldr	r3, .L112
 1173 0060 9C42     		cmp	r4, r3
 1174 0062 00D0     		beq	.L111
 1175              	.LVL76:
 1176              	.L102:
 1177              		.loc 1 689 0
 1178 0064 38BD     		pop	{r3, r4, r5, pc}
 1179              	.LVL77:
 1180              	.L111:
 1181              		.loc 1 675 0
 1182 0066 2120     		movs	r0, #33
 1183 0068 FFF7FEFF 		bl	nvicDisableVector
 1184              	.LVL78:
 1185              		.loc 1 676 0
 1186 006c 2220     		movs	r0, #34
 1187 006e FFF7FEFF 		bl	nvicDisableVector
 1188              	.LVL79:
 1189              		.loc 1 677 0
 1190 0072 044A     		ldr	r2, .L112+4
 1191 0074 136C     		ldr	r3, [r2, #64]
 1192 0076 23F48003 		bic	r3, r3, #4194304
 1193 007a 1364     		str	r3, [r2, #64]
 1194              		.loc 1 689 0
 1195 007c 38BD     		pop	{r3, r4, r5, pc}
 1196              	.LVL80:
 1197              	.L113:
ARM GAS  C:\Users\CFAR\AppData\Local\Temp\ccjYdTaZ.s 			page 22


 1198 007e 00BF     		.align	2
 1199              	.L112:
 1200 0080 00000000 		.word	.LANCHOR0
 1201 0084 00380240 		.word	1073887232
 1202              		.cfi_endproc
 1203              	.LFE267:
 1204              		.size	i2c_lld_stop, .-i2c_lld_stop
 1205              		.section	.text.i2c_lld_master_receive_timeout,"ax",%progbits
 1206              		.align	1
 1207              		.p2align 4,,15
 1208              		.global	i2c_lld_master_receive_timeout
 1209              		.syntax unified
 1210              		.thumb
 1211              		.thumb_func
 1212              		.fpu fpv4-sp-d16
 1213              		.type	i2c_lld_master_receive_timeout, %function
 1214              	i2c_lld_master_receive_timeout:
 1215              	.LFB268:
 1216              		.loc 1 716 0
 1217              		.cfi_startproc
 1218              		@ args = 4, pretend = 0, frame = 0
 1219              		@ frame_needed = 0, uses_anonymous_args = 0
 1220              		@ link register save eliminated.
 1221              	.LVL81:
 1222              		.loc 1 728 0
 1223 0000 4900     		lsls	r1, r1, #1
 1224              	.LVL82:
 1225              		.loc 1 716 0
 1226 0002 F0B4     		push	{r4, r5, r6, r7}
 1227              		.cfi_def_cfa_offset 16
 1228              		.cfi_offset 4, -16
 1229              		.cfi_offset 5, -12
 1230              		.cfi_offset 6, -8
 1231              		.cfi_offset 7, -4
 1232              		.loc 1 728 0
 1233 0004 41F00101 		orr	r1, r1, #1
 1234              		.loc 1 725 0
 1235 0008 0024     		movs	r4, #0
 1236              		.loc 1 728 0
 1237 000a 0184     		strh	r1, [r0, #32]	@ movhi
 1238              		.loc 1 725 0
 1239 000c 8460     		str	r4, [r0, #8]
 1240              		.loc 1 716 0
 1241 000e 0499     		ldr	r1, [sp, #16]
 1242              		.loc 1 717 0
 1243 0010 446B     		ldr	r4, [r0, #52]
 1244              	.LVL83:
 1245              	.LBB331:
 1246              	.LBB332:
 1247              	.LBB333:
 1248              	.LBB334:
 1249              	.LBB335:
 1250              	.LBB336:
 1251              		.loc 3 331 0
 1252              		.syntax unified
 1253              	@ 331 "ChibiOS_3.0.5/os/ext/CMSIS/include/core_cmFunc.h" 1
 1254 0012 62B6     		cpsie i
ARM GAS  C:\Users\CFAR\AppData\Local\Temp\ccjYdTaZ.s 			page 23


 1255              	@ 0 "" 2
 1256              		.thumb
 1257              		.syntax unified
 1258              	.LBE336:
 1259              	.LBE335:
 1260              	.LBE334:
 1261              	.LBE333:
 1262              	.LBE332:
 1263              	.LBE331:
 1264              		.loc 1 734 0
 1265 0014 C56A     		ldr	r5, [r0, #44]
 1266 0016 476A     		ldr	r7, [r0, #36]
 1267 0018 2E68     		ldr	r6, [r5]
 1268              	.LBB337:
 1269              	.LBB338:
 1270              	.LBB339:
 1271              		.file 4 "ChibiOS_3.0.5/os/rt/include/chvt.h"
 1272              		.loc 4 231 0
 1273 001a 114D     		ldr	r5, .L121
 1274              	.LBE339:
 1275              	.LBE338:
 1276              	.LBE337:
 1277              		.loc 1 734 0
 1278 001c 3760     		str	r7, [r6]
 1279              		.loc 1 735 0
 1280 001e F260     		str	r2, [r6, #12]
 1281              		.loc 1 736 0
 1282 0020 7360     		str	r3, [r6, #4]
 1283              	.LBB342:
 1284              	.LBB341:
 1285              	.LBB340:
 1286              		.loc 4 231 0
 1287 0022 AA6A     		ldr	r2, [r5, #40]
 1288              	.LVL84:
 1289 0024 00E0     		b	.L118
 1290              	.LVL85:
 1291              	.L120:
 1292              	.LBE340:
 1293              	.LBE341:
 1294              	.LBE342:
 1295              	.LBB343:
 1296              	.LBB344:
 1297              	.LBB345:
 1298              	.LBB346:
 1299              	.LBB347:
 1300              	.LBB348:
 1301              		.loc 3 331 0
 1302              		.syntax unified
 1303              	@ 331 "ChibiOS_3.0.5/os/ext/CMSIS/include/core_cmFunc.h" 1
 1304 0026 62B6     		cpsie i
 1305              	@ 0 "" 2
 1306              		.thumb
 1307              		.syntax unified
 1308              	.L118:
 1309              	.LBE348:
 1310              	.LBE347:
 1311              	.LBE346:
ARM GAS  C:\Users\CFAR\AppData\Local\Temp\ccjYdTaZ.s 			page 24


 1312              	.LBE345:
 1313              	.LBE344:
 1314              	.LBE343:
 1315              	.LBB349:
 1316              	.LBB350:
 1317              	.LBB351:
 1318              	.LBB352:
 1319              	.LBB353:
 1320              		.loc 3 342 0
 1321              		.syntax unified
 1322              	@ 342 "ChibiOS_3.0.5/os/ext/CMSIS/include/core_cmFunc.h" 1
 1323 0028 72B6     		cpsid i
 1324              	@ 0 "" 2
 1325              		.thumb
 1326              		.syntax unified
 1327              	.LBE353:
 1328              	.LBE352:
 1329              	.LBE351:
 1330              	.LBE350:
 1331              	.LBE349:
 1332              		.loc 1 749 0
 1333 002a A369     		ldr	r3, [r4, #24]
 1334 002c 9E07     		lsls	r6, r3, #30
 1335 002e 02D4     		bmi	.L115
 1336              		.loc 1 749 0 is_stmt 0 discriminator 1
 1337 0030 2368     		ldr	r3, [r4]
 1338 0032 9B05     		lsls	r3, r3, #22
 1339 0034 08D5     		bpl	.L116
 1340              	.L115:
 1341              	.LBB354:
 1342              	.LBB355:
 1343              	.LBB356:
 1344              		.loc 4 231 0 is_stmt 1
 1345 0036 AB6A     		ldr	r3, [r5, #40]
 1346              	.LBE356:
 1347              	.LBE355:
 1348              	.LBE354:
 1349              	.LBB357:
 1350              	.LBB358:
 1351              	.LBB359:
 1352              		.loc 4 288 0
 1353 0038 9B1A     		subs	r3, r3, r2
 1354              	.LBE359:
 1355              	.LBE358:
 1356              	.LBE357:
 1357              		.loc 1 754 0
 1358 003a B3F5FA7F 		cmp	r3, #500
 1359 003e F2D3     		bcc	.L120
 1360              		.loc 1 766 0
 1361 0040 4FF0FF30 		mov	r0, #-1
 1362              	.LVL86:
 1363 0044 F0BC     		pop	{r4, r5, r6, r7}
 1364              		.cfi_remember_state
 1365              		.cfi_restore 7
 1366              		.cfi_restore 6
 1367              		.cfi_restore 5
 1368              		.cfi_restore 4
ARM GAS  C:\Users\CFAR\AppData\Local\Temp\ccjYdTaZ.s 			page 25


 1369              		.cfi_def_cfa_offset 0
 1370              	.LVL87:
 1371 0046 7047     		bx	lr
 1372              	.LVL88:
 1373              	.L116:
 1374              		.cfi_restore_state
 1375              		.loc 1 761 0
 1376 0048 6368     		ldr	r3, [r4, #4]
 1377 004a 43F40073 		orr	r3, r3, #512
 1378 004e 6360     		str	r3, [r4, #4]
 1379              	.LVL89:
 1380              		.loc 1 762 0
 1381 0050 2368     		ldr	r3, [r4]
 1382 0052 43F4A063 		orr	r3, r3, #1280
 1383 0056 2360     		str	r3, [r4]
 1384              	.LVL90:
 1385              	.LBB360:
 1386              	.LBB361:
 1387              		.loc 2 713 0
 1388 0058 1C30     		adds	r0, r0, #28
 1389              	.LVL91:
 1390              	.LBE361:
 1391              	.LBE360:
 1392              		.loc 1 766 0
 1393 005a F0BC     		pop	{r4, r5, r6, r7}
 1394              		.cfi_restore 7
 1395              		.cfi_restore 6
 1396              		.cfi_restore 5
 1397              		.cfi_restore 4
 1398              		.cfi_def_cfa_offset 0
 1399              	.LVL92:
 1400              	.LBB363:
 1401              	.LBB362:
 1402              		.loc 2 713 0
 1403 005c FFF7FEBF 		b	chThdSuspendTimeoutS
 1404              	.LVL93:
 1405              	.L122:
 1406              		.align	2
 1407              	.L121:
 1408 0060 00000000 		.word	ch
 1409              	.LBE362:
 1410              	.LBE363:
 1411              		.cfi_endproc
 1412              	.LFE268:
 1413              		.size	i2c_lld_master_receive_timeout, .-i2c_lld_master_receive_timeout
 1414              		.section	.text.i2c_lld_master_transmit_timeout,"ax",%progbits
 1415              		.align	1
 1416              		.p2align 4,,15
 1417              		.global	i2c_lld_master_transmit_timeout
 1418              		.syntax unified
 1419              		.thumb
 1420              		.thumb_func
 1421              		.fpu fpv4-sp-d16
 1422              		.type	i2c_lld_master_transmit_timeout, %function
 1423              	i2c_lld_master_transmit_timeout:
 1424              	.LFB269:
 1425              		.loc 1 796 0
ARM GAS  C:\Users\CFAR\AppData\Local\Temp\ccjYdTaZ.s 			page 26


 1426              		.cfi_startproc
 1427              		@ args = 12, pretend = 0, frame = 0
 1428              		@ frame_needed = 0, uses_anonymous_args = 0
 1429              	.LVL94:
 1430 0000 F0B5     		push	{r4, r5, r6, r7, lr}
 1431              		.cfi_def_cfa_offset 20
 1432              		.cfi_offset 4, -20
 1433              		.cfi_offset 5, -16
 1434              		.cfi_offset 6, -12
 1435              		.cfi_offset 7, -8
 1436              		.cfi_offset 14, -4
 1437              		.loc 1 808 0
 1438 0002 4900     		lsls	r1, r1, #1
 1439              	.LVL95:
 1440              		.loc 1 805 0
 1441 0004 0024     		movs	r4, #0
 1442              		.loc 1 808 0
 1443 0006 0184     		strh	r1, [r0, #32]	@ movhi
 1444              		.loc 1 805 0
 1445 0008 8460     		str	r4, [r0, #8]
 1446              		.loc 1 796 0
 1447 000a 9E46     		mov	lr, r3
 1448              		.loc 1 797 0
 1449 000c 446B     		ldr	r4, [r0, #52]
 1450              	.LVL96:
 1451              		.loc 1 796 0
 1452 000e DDF81CC0 		ldr	ip, [sp, #28]
 1453 0012 DDE90517 		ldrd	r1, r7, [sp, #20]
 1454              	.LBB364:
 1455              	.LBB365:
 1456              	.LBB366:
 1457              	.LBB367:
 1458              	.LBB368:
 1459              	.LBB369:
 1460              		.loc 3 331 0
 1461              		.syntax unified
 1462              	@ 331 "ChibiOS_3.0.5/os/ext/CMSIS/include/core_cmFunc.h" 1
 1463 0016 62B6     		cpsie i
 1464              	@ 0 "" 2
 1465              		.thumb
 1466              		.syntax unified
 1467              	.LBE369:
 1468              	.LBE368:
 1469              	.LBE367:
 1470              	.LBE366:
 1471              	.LBE365:
 1472              	.LBE364:
 1473              		.loc 1 819 0
 1474 0018 D0E90B35 		ldrd	r3, r5, [r0, #44]
 1475              	.LVL97:
 1476              		.loc 1 814 0
 1477 001c 2E68     		ldr	r6, [r5]
 1478              		.loc 1 819 0
 1479 001e 1D68     		ldr	r5, [r3]
 1480              		.loc 1 814 0
 1481 0020 836A     		ldr	r3, [r0, #40]
 1482 0022 3360     		str	r3, [r6]
ARM GAS  C:\Users\CFAR\AppData\Local\Temp\ccjYdTaZ.s 			page 27


 1483              		.loc 1 819 0
 1484 0024 436A     		ldr	r3, [r0, #36]
 1485              		.loc 1 815 0
 1486 0026 F260     		str	r2, [r6, #12]
 1487              	.LBB370:
 1488              	.LBB371:
 1489              	.LBB372:
 1490              		.loc 4 231 0
 1491 0028 124A     		ldr	r2, .L130
 1492              	.LVL98:
 1493              	.LBE372:
 1494              	.LBE371:
 1495              	.LBE370:
 1496              		.loc 1 816 0
 1497 002a C6F804E0 		str	lr, [r6, #4]
 1498              	.LVL99:
 1499              		.loc 1 819 0
 1500 002e 2B60     		str	r3, [r5]
 1501              		.loc 1 820 0
 1502 0030 E960     		str	r1, [r5, #12]
 1503              		.loc 1 821 0
 1504 0032 6F60     		str	r7, [r5, #4]
 1505              	.LBB375:
 1506              	.LBB374:
 1507              	.LBB373:
 1508              		.loc 4 231 0
 1509 0034 956A     		ldr	r5, [r2, #40]
 1510              	.LVL100:
 1511 0036 00E0     		b	.L127
 1512              	.L129:
 1513              	.LBE373:
 1514              	.LBE374:
 1515              	.LBE375:
 1516              	.LBB376:
 1517              	.LBB377:
 1518              	.LBB378:
 1519              	.LBB379:
 1520              	.LBB380:
 1521              	.LBB381:
 1522              		.loc 3 331 0
 1523              		.syntax unified
 1524              	@ 331 "ChibiOS_3.0.5/os/ext/CMSIS/include/core_cmFunc.h" 1
 1525 0038 62B6     		cpsie i
 1526              	@ 0 "" 2
 1527              		.thumb
 1528              		.syntax unified
 1529              	.L127:
 1530              	.LBE381:
 1531              	.LBE380:
 1532              	.LBE379:
 1533              	.LBE378:
 1534              	.LBE377:
 1535              	.LBE376:
 1536              	.LBB382:
 1537              	.LBB383:
 1538              	.LBB384:
 1539              	.LBB385:
ARM GAS  C:\Users\CFAR\AppData\Local\Temp\ccjYdTaZ.s 			page 28


 1540              	.LBB386:
 1541              		.loc 3 342 0
 1542              		.syntax unified
 1543              	@ 342 "ChibiOS_3.0.5/os/ext/CMSIS/include/core_cmFunc.h" 1
 1544 003a 72B6     		cpsid i
 1545              	@ 0 "" 2
 1546              		.thumb
 1547              		.syntax unified
 1548              	.LBE386:
 1549              	.LBE385:
 1550              	.LBE384:
 1551              	.LBE383:
 1552              	.LBE382:
 1553              		.loc 1 834 0
 1554 003c A369     		ldr	r3, [r4, #24]
 1555 003e 9907     		lsls	r1, r3, #30
 1556 0040 02D4     		bmi	.L124
 1557              		.loc 1 834 0 is_stmt 0 discriminator 1
 1558 0042 2368     		ldr	r3, [r4]
 1559 0044 9B05     		lsls	r3, r3, #22
 1560 0046 07D5     		bpl	.L125
 1561              	.L124:
 1562              	.LBB387:
 1563              	.LBB388:
 1564              	.LBB389:
 1565              		.loc 4 231 0 is_stmt 1
 1566 0048 936A     		ldr	r3, [r2, #40]
 1567              	.LBE389:
 1568              	.LBE388:
 1569              	.LBE387:
 1570              	.LBB390:
 1571              	.LBB391:
 1572              	.LBB392:
 1573              		.loc 4 288 0
 1574 004a 5B1B     		subs	r3, r3, r5
 1575              	.LBE392:
 1576              	.LBE391:
 1577              	.LBE390:
 1578              		.loc 1 839 0
 1579 004c B3F5FA7F 		cmp	r3, #500
 1580 0050 F2D3     		bcc	.L129
 1581              		.loc 1 851 0
 1582 0052 4FF0FF30 		mov	r0, #-1
 1583              	.LVL101:
 1584 0056 F0BD     		pop	{r4, r5, r6, r7, pc}
 1585              	.LVL102:
 1586              	.L125:
 1587              		.loc 1 846 0
 1588 0058 6368     		ldr	r3, [r4, #4]
 1589 005a 43F40073 		orr	r3, r3, #512
 1590 005e 6360     		str	r3, [r4, #4]
 1591              		.loc 1 847 0
 1592 0060 2368     		ldr	r3, [r4]
 1593 0062 43F48073 		orr	r3, r3, #256
 1594 0066 2360     		str	r3, [r4]
 1595              	.LBB393:
 1596              	.LBB394:
ARM GAS  C:\Users\CFAR\AppData\Local\Temp\ccjYdTaZ.s 			page 29


 1597              		.loc 2 713 0
 1598 0068 6146     		mov	r1, ip
 1599              	.LVL103:
 1600 006a 1C30     		adds	r0, r0, #28
 1601              	.LVL104:
 1602              	.LBE394:
 1603              	.LBE393:
 1604              		.loc 1 851 0
 1605 006c BDE8F040 		pop	{r4, r5, r6, r7, lr}
 1606              		.cfi_restore 14
 1607              		.cfi_restore 7
 1608              		.cfi_restore 6
 1609              		.cfi_restore 5
 1610              		.cfi_restore 4
 1611              		.cfi_def_cfa_offset 0
 1612              	.LVL105:
 1613              	.LBB396:
 1614              	.LBB395:
 1615              		.loc 2 713 0
 1616 0070 FFF7FEBF 		b	chThdSuspendTimeoutS
 1617              	.LVL106:
 1618              	.L131:
 1619              		.align	2
 1620              	.L130:
 1621 0074 00000000 		.word	ch
 1622              	.LBE395:
 1623              	.LBE396:
 1624              		.cfi_endproc
 1625              	.LFE269:
 1626              		.size	i2c_lld_master_transmit_timeout, .-i2c_lld_master_transmit_timeout
 1627              		.global	I2CD2
 1628              		.section	.bss.I2CD2,"aw",%nobits
 1629              		.align	2
 1630              		.set	.LANCHOR0,. + 0
 1631              		.type	I2CD2, %object
 1632              		.size	I2CD2, 56
 1633              	I2CD2:
 1634 0000 00000000 		.space	56
 1634      00000000 
 1634      00000000 
 1634      00000000 
 1634      00000000 
 1635              		.section	.rodata.i2c_lld_serve_tx_end_irq.str1.4,"aMS",%progbits,1
 1636              		.align	2
 1637              	.LC0:
 1638 0000 444D4120 		.ascii	"DMA failure\000"
 1638      6661696C 
 1638      75726500 
 1639              		.text
 1640              	.Letext0:
 1641              		.file 5 "c:\\st\\stm32cubeide_1.3.0\\stm32cubeide\\plugins\\com.st.stm32cube.ide.mcu.externaltools
 1642              		.file 6 "c:\\st\\stm32cubeide_1.3.0\\stm32cubeide\\plugins\\com.st.stm32cube.ide.mcu.externaltools
 1643              		.file 7 "c:\\st\\stm32cubeide_1.3.0\\stm32cubeide\\plugins\\com.st.stm32cube.ide.mcu.externaltools
 1644              		.file 8 "ChibiOS_3.0.5/os/rt/ports/ARMCMx/compilers/GCC/chtypes.h"
 1645              		.file 9 "ChibiOS_3.0.5/os/rt/include/chsystypes.h"
 1646              		.file 10 "ChibiOS_3.0.5/os/rt/include/chschd.h"
 1647              		.file 11 "ChibiOS_3.0.5/os/ext/CMSIS/include/core_cm4.h"
ARM GAS  C:\Users\CFAR\AppData\Local\Temp\ccjYdTaZ.s 			page 30


 1648              		.file 12 "ChibiOS_3.0.5/os/ext/CMSIS/ST/system_stm32f4xx.h"
 1649              		.file 13 "ChibiOS_3.0.5/os/ext/CMSIS/ST/stm32f407xx.h"
 1650              		.file 14 "ChibiOS_3.0.5/os/rt/ports/ARMCMx/chcore.h"
 1651              		.file 15 "ChibiOS_3.0.5/os/rt/ports/ARMCMx/chcore_v7m.h"
 1652              		.file 16 "ChibiOS_3.0.5/os/rt/include/chtm.h"
 1653              		.file 17 "ChibiOS_3.0.5/os/rt/include/chsem.h"
 1654              		.file 18 "ChibiOS_3.0.5/os/rt/include/chmtx.h"
 1655              		.file 19 "ChibiOS_3.0.5/os/rt/include/chregistry.h"
 1656              		.file 20 "ChibiOS_3.0.5/os/rt/include/chevents.h"
 1657              		.file 21 "ChibiOS_3.0.5/os/rt/include/chqueues.h"
 1658              		.file 22 "./conf_general.h"
 1659              		.file 23 "ChibiOS_3.0.5/os/hal/ports/STM32/STM32F4xx/stm32_dma.h"
 1660              		.file 24 "ChibiOS_3.0.5/os/hal/ports/STM32/LLD/GPIOv2/pal_lld.h"
 1661              		.file 25 "ChibiOS_3.0.5/os/hal/include/can.h"
 1662              		.file 26 "ChibiOS_3.0.5/os/hal/ports/STM32/LLD/can_lld.h"
 1663              		.file 27 "ChibiOS_3.0.5/os/hal/include/i2c.h"
 1664              		.file 28 "ChibiOS_3.0.5/os/hal/ports/STM32/LLD/I2Cv1/i2c_lld.h"
 1665              		.file 29 "ChibiOS_3.0.5/os/hal/include/icu.h"
 1666              		.file 30 "ChibiOS_3.0.5/os/hal/ports/STM32/LLD/TIMv1/icu_lld.h"
 1667              		.file 31 "ChibiOS_3.0.5/os/hal/ports/STM32/LLD/TIMv1/stm32_tim.h"
 1668              		.file 32 "ChibiOS_3.0.5/os/hal/include/serial.h"
 1669              		.file 33 "ChibiOS_3.0.5/os/hal/ports/STM32/LLD/USARTv1/serial_lld.h"
 1670              		.file 34 "ChibiOS_3.0.5/os/hal/include/spi.h"
 1671              		.file 35 "ChibiOS_3.0.5/os/hal/ports/STM32/LLD/SPIv1/spi_lld.h"
 1672              		.file 36 "ChibiOS_3.0.5/os/hal/include/usb.h"
 1673              		.file 37 "ChibiOS_3.0.5/os/hal/ports/STM32/LLD/OTGv1/usb_lld.h"
 1674              		.file 38 "ChibiOS_3.0.5/os/hal/ports/STM32/LLD/OTGv1/stm32_otg.h"
 1675              		.file 39 "ChibiOS_3.0.5/os/rt/include/chsys.h"
 1676              		.file 40 "ChibiOS_3.0.5/os/rt/include/chthreads.h"
 1677              		.file 41 "ChibiOS_3.0.5/os/hal/ports/common/ARMCMx/nvic.h"
