ARM GAS  C:\Users\CFAR\AppData\Local\Temp\cchb0CKf.s 			page 1


   1              		.cpu cortex-m4
   2              		.eabi_attribute 27, 1
   3              		.eabi_attribute 28, 1
   4              		.eabi_attribute 20, 1
   5              		.eabi_attribute 21, 1
   6              		.eabi_attribute 23, 3
   7              		.eabi_attribute 24, 1
   8              		.eabi_attribute 25, 1
   9              		.eabi_attribute 26, 1
  10              		.eabi_attribute 30, 2
  11              		.eabi_attribute 34, 1
  12              		.eabi_attribute 18, 4
  13              		.file	"icm20948.c"
  14              		.text
  15              	.Ltext0:
  16              		.cfi_sections	.debug_frame
  17              		.section	.text.reset_init_icm,"ax",%progbits
  18              		.align	1
  19              		.p2align 4,,15
  20              		.syntax unified
  21              		.thumb
  22              		.thumb_func
  23              		.fpu fpv4-sp-d16
  24              		.type	reset_init_icm, %function
  25              	reset_init_icm:
  26              	.LFB265:
  27              		.file 1 "imu/icm20948.c"
  28              		.loc 1 128 0
  29              		.cfi_startproc
  30              		@ args = 0, pretend = 0, frame = 8
  31              		@ frame_needed = 0, uses_anonymous_args = 0
  32              	.LVL0:
  33 0000 2DE9F041 		push	{r4, r5, r6, r7, r8, lr}
  34              		.cfi_def_cfa_offset 24
  35              		.cfi_offset 4, -24
  36              		.cfi_offset 5, -20
  37              		.cfi_offset 6, -16
  38              		.cfi_offset 7, -12
  39              		.cfi_offset 8, -8
  40              		.cfi_offset 14, -4
  41 0004 84B0     		sub	sp, sp, #16
  42              		.cfi_def_cfa_offset 40
  43              		.loc 1 128 0
  44 0006 0446     		mov	r4, r0
  45              	.LBB32:
  46              	.LBB33:
  47              		.loc 1 107 0
  48 0008 04AE     		add	r6, sp, #16
  49              	.LBE33:
  50              	.LBE32:
  51              		.loc 1 129 0
  52 000a 0068     		ldr	r0, [r0]
  53              	.LVL1:
  54 000c FFF7FEFF 		bl	i2c_bb_restore_bus
  55              	.LVL2:
  56              	.LBB36:
  57              	.LBB34:
ARM GAS  C:\Users\CFAR\AppData\Local\Temp\cchb0CKf.s 			page 2


  58              		.loc 1 107 0
  59 0010 7F27     		movs	r7, #127
  60              	.LBE34:
  61              	.LBE36:
  62              		.loc 1 131 0
  63 0012 0120     		movs	r0, #1
  64 0014 FFF7FEFF 		bl	chThdSleep
  65              	.LVL3:
  66              	.LBB37:
  67              	.LBB35:
  68              		.loc 1 107 0
  69 0018 26F8047D 		strh	r7, [r6, #-4]!	@ movhi
  70              		.loc 1 110 0
  71 001c 0025     		movs	r5, #0
  72 001e 2179     		ldrb	r1, [r4, #4]	@ zero_extendqisi2
  73 0020 2068     		ldr	r0, [r4]
  74 0022 3246     		mov	r2, r6
  75 0024 CDE90055 		strd	r5, r5, [sp]
  76 0028 0223     		movs	r3, #2
  77 002a FFF7FEFF 		bl	i2c_bb_tx_rx
  78              	.LVL4:
  79              	.LBE35:
  80              	.LBE37:
  81              	.LBB38:
  82              	.LBB39:
  83 002e 2179     		ldrb	r1, [r4, #4]	@ zero_extendqisi2
  84 0030 2068     		ldr	r0, [r4]
  85              		.loc 1 107 0
  86 0032 4FF4837C 		mov	ip, #262
  87              		.loc 1 110 0
  88 0036 3246     		mov	r2, r6
  89 0038 CDE90055 		strd	r5, r5, [sp]
  90 003c 0223     		movs	r3, #2
  91              		.loc 1 107 0
  92 003e ADF80CC0 		strh	ip, [sp, #12]	@ movhi
  93              	.LBE39:
  94              	.LBE38:
  95              	.LBB41:
  96              	.LBB42:
  97 0042 42F27F08 		movw	r8, #8319
  98              	.LBE42:
  99              	.LBE41:
 100              	.LBB44:
 101              	.LBB40:
 102              		.loc 1 110 0
 103 0046 FFF7FEFF 		bl	i2c_bb_tx_rx
 104              	.LVL5:
 105              	.LBE40:
 106              	.LBE44:
 107              	.LBB45:
 108              	.LBB43:
 109 004a 2179     		ldrb	r1, [r4, #4]	@ zero_extendqisi2
 110 004c 2068     		ldr	r0, [r4]
 111              		.loc 1 107 0
 112 004e ADF80C80 		strh	r8, [sp, #12]	@ movhi
 113              		.loc 1 110 0
 114 0052 3246     		mov	r2, r6
ARM GAS  C:\Users\CFAR\AppData\Local\Temp\cchb0CKf.s 			page 3


 115 0054 CDE90055 		strd	r5, r5, [sp]
 116 0058 0223     		movs	r3, #2
 117 005a FFF7FEFF 		bl	i2c_bb_tx_rx
 118              	.LVL6:
 119              	.LBE43:
 120              	.LBE45:
 121              	.LBB46:
 122              	.LBB47:
 123 005e 2179     		ldrb	r1, [r4, #4]	@ zero_extendqisi2
 124 0060 2068     		ldr	r0, [r4]
 125              		.loc 1 107 0
 126 0062 40F2146C 		movw	ip, #1556
 127              		.loc 1 110 0
 128 0066 3246     		mov	r2, r6
 129 0068 CDE90055 		strd	r5, r5, [sp]
 130 006c 0223     		movs	r3, #2
 131              		.loc 1 107 0
 132 006e ADF80CC0 		strh	ip, [sp, #12]	@ movhi
 133              		.loc 1 110 0
 134 0072 FFF7FEFF 		bl	i2c_bb_tx_rx
 135              	.LVL7:
 136              	.LBE47:
 137              	.LBE46:
 138              	.LBB48:
 139              	.LBB49:
 140 0076 2179     		ldrb	r1, [r4, #4]	@ zero_extendqisi2
 141 0078 2068     		ldr	r0, [r4]
 142              		.loc 1 107 0
 143 007a ADF80C80 		strh	r8, [sp, #12]	@ movhi
 144              		.loc 1 110 0
 145 007e 3246     		mov	r2, r6
 146 0080 CDE90055 		strd	r5, r5, [sp]
 147 0084 0223     		movs	r3, #2
 148 0086 FFF7FEFF 		bl	i2c_bb_tx_rx
 149              	.LVL8:
 150              	.LBE49:
 151              	.LBE48:
 152              	.LBB50:
 153              	.LBB51:
 154 008a 2179     		ldrb	r1, [r4, #4]	@ zero_extendqisi2
 155 008c 2068     		ldr	r0, [r4]
 156              		.loc 1 107 0
 157 008e 40F2016C 		movw	ip, #1537
 158              		.loc 1 110 0
 159 0092 3246     		mov	r2, r6
 160 0094 CDE90055 		strd	r5, r5, [sp]
 161 0098 0223     		movs	r3, #2
 162              		.loc 1 107 0
 163 009a ADF80CC0 		strh	ip, [sp, #12]	@ movhi
 164              		.loc 1 110 0
 165 009e FFF7FEFF 		bl	i2c_bb_tx_rx
 166              	.LVL9:
 167              	.LBE51:
 168              	.LBE50:
 169              	.LBB52:
 170              	.LBB53:
 171 00a2 2179     		ldrb	r1, [r4, #4]	@ zero_extendqisi2
ARM GAS  C:\Users\CFAR\AppData\Local\Temp\cchb0CKf.s 			page 4


 172 00a4 2068     		ldr	r0, [r4]
 173 00a6 0195     		str	r5, [sp, #4]
 174 00a8 3246     		mov	r2, r6
 175 00aa 0095     		str	r5, [sp]
 176 00ac 0223     		movs	r3, #2
 177              		.loc 1 107 0
 178 00ae ADF80C70 		strh	r7, [sp, #12]	@ movhi
 179              		.loc 1 110 0
 180 00b2 FFF7FEFF 		bl	i2c_bb_tx_rx
 181              	.LVL10:
 182              	.LBE53:
 183              	.LBE52:
 184              		.loc 1 155 0
 185 00b6 0120     		movs	r0, #1
 186 00b8 04B0     		add	sp, sp, #16
 187              		.cfi_def_cfa_offset 24
 188              		@ sp needed
 189 00ba BDE8F081 		pop	{r4, r5, r6, r7, r8, pc}
 190              		.cfi_endproc
 191              	.LFE265:
 192              		.size	reset_init_icm, .-reset_init_icm
 193 00be 00BF     		.section	.text.icm_thread,"ax",%progbits
 194              		.align	1
 195              		.p2align 4,,15
 196              		.syntax unified
 197              		.thumb
 198              		.thumb_func
 199              		.fpu fpv4-sp-d16
 200              		.type	icm_thread, %function
 201              	icm_thread:
 202              	.LFB266:
 203              		.loc 1 157 0
 204              		.cfi_startproc
 205              		@ args = 0, pretend = 0, frame = 56
 206              		@ frame_needed = 0, uses_anonymous_args = 0
 207              	.LVL11:
 208 0000 2DE9F047 		push	{r4, r5, r6, r7, r8, r9, r10, lr}
 209              		.cfi_def_cfa_offset 32
 210              		.cfi_offset 4, -32
 211              		.cfi_offset 5, -28
 212              		.cfi_offset 6, -24
 213              		.cfi_offset 7, -20
 214              		.cfi_offset 8, -16
 215              		.cfi_offset 9, -12
 216              		.cfi_offset 10, -8
 217              		.cfi_offset 14, -4
 218              	.LBB54:
 219              	.LBB55:
 220              		.file 2 "ChibiOS_3.0.5/os/rt/include/chregistry.h"
 221              		.loc 2 135 0
 222 0004 5D4B     		ldr	r3, .L17
 223 0006 5E4A     		ldr	r2, .L17+4
 224 0008 9B69     		ldr	r3, [r3, #24]
 225              	.LBE55:
 226              	.LBE54:
 227              	.LBB57:
 228              		.loc 1 198 0
ARM GAS  C:\Users\CFAR\AppData\Local\Temp\cchb0CKf.s 			page 5


 229 000a 5E4E     		ldr	r6, .L17+8
 230              	.LBE57:
 231              		.loc 1 157 0
 232 000c 2DED028B 		vpush.64	{d8}
 233              		.cfi_def_cfa_offset 40
 234              		.cfi_offset 80, -40
 235              		.cfi_offset 81, -36
 236              	.LBB61:
 237              	.LBB56:
 238              		.loc 2 135 0
 239 0010 9A61     		str	r2, [r3, #24]
 240              	.LBE56:
 241              	.LBE61:
 242              		.loc 1 157 0
 243 0012 90B0     		sub	sp, sp, #64
 244              		.cfi_def_cfa_offset 104
 245              		.loc 1 162 0
 246 0014 0123     		movs	r3, #1
 247              	.LBB62:
 248              	.LBB58:
 249              		.loc 1 174 0
 250 0016 9FED5C8A 		vldr.32	s16, .L17+12
 251              		.loc 1 178 0
 252 001a DFED5C8A 		vldr.32	s17, .L17+16
 253              	.LBE58:
 254              	.LBE62:
 255              		.loc 1 162 0
 256 001e 0373     		strb	r3, [r0, #12]
 257              		.loc 1 157 0
 258 0020 0446     		mov	r4, r0
 259              	.LVL12:
 260 0022 04AD     		add	r5, sp, #16
 261 0024 82E0     		b	.L9
 262              	.LVL13:
 263              	.L16:
 264              	.LBB63:
 265              	.LBB59:
 266              		.loc 1 174 0
 267 0026 9DF81080 		ldrb	r8, [sp, #16]	@ zero_extendqisi2
 268 002a 9DF811E0 		ldrb	lr, [sp, #17]	@ zero_extendqisi2
 269              		.loc 1 176 0
 270 002e 9DF81400 		ldrb	r0, [sp, #20]	@ zero_extendqisi2
 271              	.LVL14:
 272              		.loc 1 175 0
 273 0032 9DF81270 		ldrb	r7, [sp, #18]	@ zero_extendqisi2
 274 0036 9DF813C0 		ldrb	ip, [sp, #19]	@ zero_extendqisi2
 275              		.loc 1 183 0
 276 003a 0D93     		str	r3, [sp, #52]
 277              		.loc 1 174 0
 278 003c 4EEA082E 		orr	lr, lr, r8, lsl #8
 279              		.loc 1 176 0
 280 0040 9DF81580 		ldrb	r8, [sp, #21]	@ zero_extendqisi2
 281              		.loc 1 183 0
 282 0044 0E93     		str	r3, [sp, #56]
 283              		.loc 1 176 0
 284 0046 48EA0028 		orr	r8, r8, r0, lsl #8
 285              		.loc 1 183 0
ARM GAS  C:\Users\CFAR\AppData\Local\Temp\cchb0CKf.s 			page 6


 286 004a 0F93     		str	r3, [sp, #60]
 287              		.loc 1 179 0
 288 004c 9DF81900 		ldrb	r0, [sp, #25]	@ zero_extendqisi2
 289 0050 9DF81830 		ldrb	r3, [sp, #24]	@ zero_extendqisi2
 290              		.loc 1 178 0
 291 0054 9DF816A0 		ldrb	r10, [sp, #22]	@ zero_extendqisi2
 292              		.loc 1 180 0
 293 0058 9DF81A90 		ldrb	r9, [sp, #26]	@ zero_extendqisi2
 294              		.loc 1 175 0
 295 005c 4CEA072C 		orr	ip, ip, r7, lsl #8
 296              		.loc 1 179 0
 297 0060 40EA0320 		orr	r0, r0, r3, lsl #8
 298              		.loc 1 178 0
 299 0064 9DF81770 		ldrb	r7, [sp, #23]	@ zero_extendqisi2
 300              		.loc 1 180 0
 301 0068 9DF81B30 		ldrb	r3, [sp, #27]	@ zero_extendqisi2
 302              		.loc 1 175 0
 303 006c 0FFA8CFC 		sxth	ip, ip
 304              		.loc 1 178 0
 305 0070 47EA0A27 		orr	r7, r7, r10, lsl #8
 306              		.loc 1 180 0
 307 0074 43EA0923 		orr	r3, r3, r9, lsl #8
 308              		.loc 1 175 0
 309 0078 05EE90CA 		vmov	s11, ip	@ int
 310              		.loc 1 179 0
 311 007c 00B2     		sxth	r0, r0
 312              		.loc 1 180 0
 313 007e 1BB2     		sxth	r3, r3
 314              		.loc 1 174 0
 315 0080 0FFA8EFE 		sxth	lr, lr
 316              		.loc 1 176 0
 317 0084 0FFA88FC 		sxth	ip, r8
 318              		.loc 1 178 0
 319 0088 3FB2     		sxth	r7, r7
 320              		.loc 1 179 0
 321 008a 07EE100A 		vmov	s14, r0	@ int
 322              		.loc 1 180 0
 323 008e 07EE903A 		vmov	s15, r3	@ int
 324              		.loc 1 174 0
 325 0092 05EE10EA 		vmov	s10, lr	@ int
 326              		.loc 1 176 0
 327 0096 06EE10CA 		vmov	s12, ip	@ int
 328              		.loc 1 178 0
 329 009a 06EE907A 		vmov	s13, r7	@ int
 330              		.loc 1 174 0
 331 009e B8EEC55A 		vcvt.f32.s32	s10, s10
 332              		.loc 1 175 0
 333 00a2 F8EEE55A 		vcvt.f32.s32	s11, s11
 334              		.loc 1 176 0
 335 00a6 B8EEC66A 		vcvt.f32.s32	s12, s12
 336              		.loc 1 178 0
 337 00aa F8EEE66A 		vcvt.f32.s32	s13, s13
 338              		.loc 1 179 0
 339 00ae B8EEC77A 		vcvt.f32.s32	s14, s14
 340              		.loc 1 180 0
 341 00b2 F8EEE77A 		vcvt.f32.s32	s15, s15
 342              		.loc 1 174 0
ARM GAS  C:\Users\CFAR\AppData\Local\Temp\cchb0CKf.s 			page 7


 343 00b6 25EE245A 		vmul.f32	s10, s10, s9
 344              		.loc 1 175 0
 345 00ba 65EEA45A 		vmul.f32	s11, s11, s9
 346              		.loc 1 176 0
 347 00be 26EE246A 		vmul.f32	s12, s12, s9
 348              		.loc 1 178 0
 349 00c2 66EEA86A 		vmul.f32	s13, s13, s17
 350              		.loc 1 179 0
 351 00c6 27EE287A 		vmul.f32	s14, s14, s17
 352              		.loc 1 180 0
 353 00ca 67EEA87A 		vmul.f32	s15, s15, s17
 354              		.loc 1 174 0
 355 00ce 25EE085A 		vmul.f32	s10, s10, s16
 356              		.loc 1 175 0
 357 00d2 65EE885A 		vmul.f32	s11, s11, s16
 358              		.loc 1 176 0
 359 00d6 26EE086A 		vmul.f32	s12, s12, s16
 360              		.loc 1 178 0
 361 00da 66EE886A 		vmul.f32	s13, s13, s16
 362              		.loc 1 179 0
 363 00de 27EE087A 		vmul.f32	s14, s14, s16
 364              		.loc 1 180 0
 365 00e2 67EE887A 		vmul.f32	s15, s15, s16
 366              		.loc 1 185 0
 367 00e6 A368     		ldr	r3, [r4, #8]
 368              		.loc 1 174 0
 369 00e8 8DED075A 		vstr.32	s10, [sp, #28]
 370              		.loc 1 186 0
 371 00ec 07A8     		add	r0, sp, #28
 372              		.loc 1 175 0
 373 00ee CDED085A 		vstr.32	s11, [sp, #32]
 374              		.loc 1 176 0
 375 00f2 8DED096A 		vstr.32	s12, [sp, #36]
 376              		.loc 1 178 0
 377 00f6 CDED0A6A 		vstr.32	s13, [sp, #40]
 378              		.loc 1 179 0
 379 00fa 8DED0B7A 		vstr.32	s14, [sp, #44]
 380              		.loc 1 180 0
 381 00fe CDED0C7A 		vstr.32	s15, [sp, #48]
 382              		.loc 1 185 0
 383 0102 03B1     		cbz	r3, .L7
 384              		.loc 1 186 0
 385 0104 9847     		blx	r3
 386              	.LVL15:
 387              	.L7:
 388              	.LBE59:
 389              		.loc 1 193 0
 390 0106 627B     		ldrb	r2, [r4, #13]	@ zero_extendqisi2
 391              		.loc 1 198 0
 392 0108 214B     		ldr	r3, .L17+20
 393 010a 42F21070 		movw	r0, #10000
 394              		.loc 1 193 0
 395 010e 6ABB     		cbnz	r2, .L15
 396              	.L8:
 397              		.loc 1 198 0
 398 0110 2269     		ldr	r2, [r4, #16]
 399 0112 93FBF2F3 		sdiv	r3, r3, r2
ARM GAS  C:\Users\CFAR\AppData\Local\Temp\cchb0CKf.s 			page 8


 400 0116 00FB03F0 		mul	r0, r0, r3
 401 011a 00F57420 		add	r0, r0, #999424
 402 011e 00F23F20 		addw	r0, r0, #575
 403 0122 A6FB0030 		umull	r3, r0, r6, r0
 404 0126 800C     		lsrs	r0, r0, #18
 405 0128 FFF7FEFF 		bl	chThdSleep
 406              	.LVL16:
 407              	.L9:
 408              		.loc 1 169 0
 409 012c 0C23     		movs	r3, #12
 410 012e 2179     		ldrb	r1, [r4, #4]	@ zero_extendqisi2
 411 0130 2068     		ldr	r0, [r4]
 412 0132 0193     		str	r3, [sp, #4]
 413 0134 03AA     		add	r2, sp, #12
 414 0136 0123     		movs	r3, #1
 415 0138 0095     		str	r5, [sp]
 416              		.loc 1 167 0
 417 013a 2D27     		movs	r7, #45
 418 013c 8DF80C70 		strb	r7, [sp, #12]
 419              		.loc 1 169 0
 420 0140 FFF7FEFF 		bl	i2c_bb_tx_rx
 421              	.LVL17:
 422              	.LBB60:
 423              		.loc 1 174 0
 424 0144 F3EE004A 		vmov.f32	s9, #1.6e+1
 425              		.loc 1 183 0
 426 0148 0023     		movs	r3, #0
 427              		.loc 1 186 0
 428 014a 0DAA     		add	r2, sp, #52
 429 014c 0AA9     		add	r1, sp, #40
 430              	.LBE60:
 431              		.loc 1 171 0
 432 014e 0028     		cmp	r0, #0
 433 0150 7FF469AF 		bne	.L16
 434              		.loc 1 189 0
 435 0154 2046     		mov	r0, r4
 436              	.LVL18:
 437 0156 FFF7FEFF 		bl	reset_init_icm
 438              	.LVL19:
 439              		.loc 1 190 0
 440 015a 6420     		movs	r0, #100
 441 015c FFF7FEFF 		bl	chThdSleep
 442              	.LVL20:
 443              		.loc 1 193 0
 444 0160 627B     		ldrb	r2, [r4, #13]	@ zero_extendqisi2
 445              		.loc 1 198 0
 446 0162 0B4B     		ldr	r3, .L17+20
 447 0164 42F21070 		movw	r0, #10000
 448              		.loc 1 193 0
 449 0168 002A     		cmp	r2, #0
 450 016a D1D0     		beq	.L8
 451              	.L15:
 452              		.loc 1 194 0
 453 016c 0023     		movs	r3, #0
 454 016e 2373     		strb	r3, [r4, #12]
 455              	.LBE63:
 456              		.loc 1 200 0
ARM GAS  C:\Users\CFAR\AppData\Local\Temp\cchb0CKf.s 			page 9


 457 0170 10B0     		add	sp, sp, #64
 458              		.cfi_def_cfa_offset 40
 459              		@ sp needed
 460 0172 BDEC028B 		vldm	sp!, {d8}
 461              		.cfi_restore 80
 462              		.cfi_restore 81
 463              		.cfi_def_cfa_offset 32
 464 0176 BDE8F087 		pop	{r4, r5, r6, r7, r8, r9, r10, pc}
 465              	.LVL21:
 466              	.L18:
 467 017a 00BF     		.align	2
 468              	.L17:
 469 017c 00000000 		.word	ch
 470 0180 00000000 		.word	.LC0
 471 0184 83DE1B43 		.word	1125899907
 472 0188 00000038 		.word	939524096
 473 018c 0000FA44 		.word	1157234688
 474 0190 40420F00 		.word	1000000
 475              		.cfi_endproc
 476              	.LFE266:
 477              		.size	icm_thread, .-icm_thread
 478              		.section	.text.terminal_read_reg,"ax",%progbits
 479              		.align	1
 480              		.p2align 4,,15
 481              		.syntax unified
 482              		.thumb
 483              		.thumb_func
 484              		.fpu fpv4-sp-d16
 485              		.type	terminal_read_reg, %function
 486              	terminal_read_reg:
 487              	.LFB262:
 488              		.loc 1 79 0
 489              		.cfi_startproc
 490              		@ args = 0, pretend = 0, frame = 24
 491              		@ frame_needed = 0, uses_anonymous_args = 0
 492              	.LVL22:
 493 0000 70B5     		push	{r4, r5, r6, lr}
 494              		.cfi_def_cfa_offset 16
 495              		.cfi_offset 4, -16
 496              		.cfi_offset 5, -12
 497              		.cfi_offset 6, -8
 498              		.cfi_offset 14, -4
 499              		.loc 1 80 0
 500 0002 0328     		cmp	r0, #3
 501              		.loc 1 79 0
 502 0004 88B0     		sub	sp, sp, #32
 503              		.cfi_def_cfa_offset 48
 504              		.loc 1 80 0
 505 0006 04D0     		beq	.L27
 506              		.loc 1 100 0
 507 0008 2D48     		ldr	r0, .L29
 508              	.LVL23:
 509 000a FFF7FEFF 		bl	commands_printf
 510              	.LVL24:
 511              	.L19:
 512              		.loc 1 102 0
 513 000e 08B0     		add	sp, sp, #32
ARM GAS  C:\Users\CFAR\AppData\Local\Temp\cchb0CKf.s 			page 10


 514              		.cfi_remember_state
 515              		.cfi_def_cfa_offset 16
 516              		@ sp needed
 517 0010 70BD     		pop	{r4, r5, r6, pc}
 518              	.LVL25:
 519              	.L27:
 520              		.cfi_restore_state
 521 0012 0C46     		mov	r4, r1
 522              	.LVL26:
 523              	.LBB74:
 524              	.LBB75:
 525              		.loc 1 81 0
 526 0014 4FF0FF33 		mov	r3, #-1
 527              		.loc 1 83 0
 528 0018 03AA     		add	r2, sp, #12
 529 001a 2A49     		ldr	r1, .L29+4
 530              	.LVL27:
 531 001c 6068     		ldr	r0, [r4, #4]
 532              	.LVL28:
 533              		.loc 1 82 0
 534 001e CDE90333 		strd	r3, r3, [sp, #12]
 535              		.loc 1 83 0
 536 0022 FFF7FEFF 		bl	sscanf
 537              	.LVL29:
 538              		.loc 1 84 0
 539 0026 A068     		ldr	r0, [r4, #8]
 540 0028 2649     		ldr	r1, .L29+4
 541 002a 04AA     		add	r2, sp, #16
 542 002c FFF7FEFF 		bl	sscanf
 543              	.LVL30:
 544              		.loc 1 86 0
 545 0030 049B     		ldr	r3, [sp, #16]
 546 0032 002B     		cmp	r3, #0
 547 0034 02DB     		blt	.L21
 548 0036 039B     		ldr	r3, [sp, #12]
 549 0038 022B     		cmp	r3, #2
 550 003a 04D9     		bls	.L28
 551              	.L21:
 552              		.loc 1 97 0
 553 003c 2248     		ldr	r0, .L29+8
 554 003e FFF7FEFF 		bl	commands_printf
 555              	.LVL31:
 556              	.LBE75:
 557              	.LBE74:
 558              		.loc 1 102 0
 559 0042 08B0     		add	sp, sp, #32
 560              		.cfi_remember_state
 561              		.cfi_def_cfa_offset 16
 562              		@ sp needed
 563 0044 70BD     		pop	{r4, r5, r6, pc}
 564              	.LVL32:
 565              	.L28:
 566              		.cfi_restore_state
 567              	.LBB86:
 568              	.LBB85:
 569              	.LBB76:
 570              		.loc 1 87 0
ARM GAS  C:\Users\CFAR\AppData\Local\Temp\cchb0CKf.s 			page 11


 571 0046 214D     		ldr	r5, .L29+12
 572 0048 1B01     		lsls	r3, r3, #4
 573 004a 2A68     		ldr	r2, [r5]
 574              	.LVL33:
 575              	.LBB77:
 576              	.LBB78:
 577              		.loc 1 108 0
 578 004c 8DF81530 		strb	r3, [sp, #21]
 579              		.loc 1 107 0
 580 0050 7F23     		movs	r3, #127
 581 0052 8DF81430 		strb	r3, [sp, #20]
 582              		.loc 1 110 0
 583 0056 0023     		movs	r3, #0
 584 0058 1179     		ldrb	r1, [r2, #4]	@ zero_extendqisi2
 585 005a 1068     		ldr	r0, [r2]
 586 005c 05AA     		add	r2, sp, #20
 587              	.LVL34:
 588 005e CDE90033 		strd	r3, r3, [sp]
 589 0062 0223     		movs	r3, #2
 590 0064 FFF7FEFF 		bl	i2c_bb_tx_rx
 591              	.LVL35:
 592              	.LBE78:
 593              	.LBE77:
 594              		.loc 1 88 0
 595 0068 2B68     		ldr	r3, [r5]
 596              	.LVL36:
 597 006a 049A     		ldr	r2, [sp, #16]
 598 006c 8DF81420 		strb	r2, [sp, #20]
 599              	.LBB79:
 600              	.LBB80:
 601              		.loc 1 119 0
 602 0070 1979     		ldrb	r1, [r3, #4]	@ zero_extendqisi2
 603 0072 1868     		ldr	r0, [r3]
 604 0074 02AC     		add	r4, sp, #8
 605              	.LVL37:
 606 0076 0123     		movs	r3, #1
 607              	.LVL38:
 608 0078 05AA     		add	r2, sp, #20
 609 007a CDE90043 		strd	r4, r3, [sp]
 610 007e FFF7FEFF 		bl	i2c_bb_tx_rx
 611              	.LVL39:
 612              		.loc 1 121 0
 613 0082 D0B1     		cbz	r0, .L25
 614              		.loc 1 122 0
 615 0084 9DF80860 		ldrb	r6, [sp, #8]	@ zero_extendqisi2
 616 0088 3446     		mov	r4, r6
 617              	.L22:
 618              	.LVL40:
 619              	.LBE80:
 620              	.LBE79:
 621              		.loc 1 91 0
 622 008a 2B68     		ldr	r3, [r5]
 623              	.LVL41:
 624              	.LBB82:
 625              	.LBB83:
 626              		.loc 1 107 0
 627 008c 7F22     		movs	r2, #127
ARM GAS  C:\Users\CFAR\AppData\Local\Temp\cchb0CKf.s 			page 12


 628 008e ADF81420 		strh	r2, [sp, #20]	@ movhi
 629              		.loc 1 110 0
 630 0092 1979     		ldrb	r1, [r3, #4]	@ zero_extendqisi2
 631 0094 1868     		ldr	r0, [r3]
 632 0096 0023     		movs	r3, #0
 633              	.LVL42:
 634 0098 05AA     		add	r2, sp, #20
 635 009a CDE90033 		strd	r3, r3, [sp]
 636 009e 0223     		movs	r3, #2
 637 00a0 FFF7FEFF 		bl	i2c_bb_tx_rx
 638              	.LVL43:
 639              	.LBE83:
 640              	.LBE82:
 641              		.loc 1 93 0
 642 00a4 05A9     		add	r1, sp, #20
 643 00a6 2046     		mov	r0, r4
 644 00a8 FFF7FEFF 		bl	utils_byte_to_binary
 645              	.LVL44:
 646              		.loc 1 95 0
 647 00ac 3346     		mov	r3, r6
 648 00ae 05AA     		add	r2, sp, #20
 649 00b0 0499     		ldr	r1, [sp, #16]
 650 00b2 0748     		ldr	r0, .L29+16
 651 00b4 FFF7FEFF 		bl	commands_printf
 652              	.LVL45:
 653 00b8 A9E7     		b	.L19
 654              	.LVL46:
 655              	.L25:
 656              	.LBB84:
 657              	.LBB81:
 658              		.loc 1 121 0
 659 00ba 0446     		mov	r4, r0
 660 00bc 0646     		mov	r6, r0
 661 00be E4E7     		b	.L22
 662              	.L30:
 663              		.align	2
 664              	.L29:
 665 00c0 38000000 		.word	.LC4
 666 00c4 00000000 		.word	.LC1
 667 00c8 20000000 		.word	.LC3
 668 00cc 00000000 		.word	.LANCHOR0
 669 00d0 04000000 		.word	.LC2
 670              	.LBE81:
 671              	.LBE84:
 672              	.LBE76:
 673              	.LBE85:
 674              	.LBE86:
 675              		.cfi_endproc
 676              	.LFE262:
 677              		.size	terminal_read_reg, .-terminal_read_reg
 678              		.section	.text.icm20948_init,"ax",%progbits
 679              		.align	1
 680              		.p2align 4,,15
 681              		.global	icm20948_init
 682              		.syntax unified
 683              		.thumb
 684              		.thumb_func
ARM GAS  C:\Users\CFAR\AppData\Local\Temp\cchb0CKf.s 			page 13


 685              		.fpu fpv4-sp-d16
 686              		.type	icm20948_init, %function
 687              	icm20948_init:
 688              	.LFB259:
 689              		.loc 1 41 0
 690              		.cfi_startproc
 691              		@ args = 4, pretend = 0, frame = 0
 692              		@ frame_needed = 0, uses_anonymous_args = 0
 693              	.LVL47:
 694 0000 F0B5     		push	{r4, r5, r6, r7, lr}
 695              		.cfi_def_cfa_offset 20
 696              		.cfi_offset 4, -20
 697              		.cfi_offset 5, -16
 698              		.cfi_offset 6, -12
 699              		.cfi_offset 7, -8
 700              		.cfi_offset 14, -4
 701              		.loc 1 44 0
 702 0002 002A     		cmp	r2, #0
 703              		.loc 1 41 0
 704 0004 83B0     		sub	sp, sp, #12
 705              		.cfi_def_cfa_offset 32
 706              		.loc 1 44 0
 707 0006 14BF     		ite	ne
 708 0008 6922     		movne	r2, #105
 709              	.LVL48:
 710 000a 6822     		moveq	r2, #104
 711              		.loc 1 45 0
 712 000c 0025     		movs	r5, #0
 713              		.loc 1 44 0
 714 000e 0271     		strb	r2, [r0, #4]
 715              		.loc 1 43 0
 716 0010 0160     		str	r1, [r0]
 717              		.loc 1 45 0
 718 0012 8560     		str	r5, [r0, #8]
 719              		.loc 1 41 0
 720 0014 0446     		mov	r4, r0
 721 0016 1E46     		mov	r6, r3
 722 0018 089F     		ldr	r7, [sp, #32]
 723              		.loc 1 47 0
 724 001a FFF7FEFF 		bl	reset_init_icm
 725              	.LVL49:
 726 001e 20B9     		cbnz	r0, .L40
 727              		.loc 1 53 0
 728 0020 0D4D     		ldr	r5, .L42
 729 0022 2B68     		ldr	r3, [r5]
 730 0024 6BB1     		cbz	r3, .L41
 731              	.L31:
 732              		.loc 1 61 0
 733 0026 03B0     		add	sp, sp, #12
 734              		.cfi_remember_state
 735              		.cfi_def_cfa_offset 20
 736              		@ sp needed
 737 0028 F0BD     		pop	{r4, r5, r6, r7, pc}
 738              	.LVL50:
 739              	.L40:
 740              		.cfi_restore_state
 741              		.loc 1 48 0
ARM GAS  C:\Users\CFAR\AppData\Local\Temp\cchb0CKf.s 			page 14


 742 002a 6573     		strb	r5, [r4, #13]
 743              		.loc 1 53 0
 744 002c 0A4D     		ldr	r5, .L42
 745              		.loc 1 49 0
 746 002e 0B4B     		ldr	r3, .L42+4
 747 0030 0094     		str	r4, [sp]
 748 0032 3946     		mov	r1, r7
 749 0034 3046     		mov	r0, r6
 750 0036 4022     		movs	r2, #64
 751 0038 FFF7FEFF 		bl	chThdCreateStatic
 752              	.LVL51:
 753              		.loc 1 53 0
 754 003c 2B68     		ldr	r3, [r5]
 755 003e 002B     		cmp	r3, #0
 756 0040 F1D1     		bne	.L31
 757              	.L41:
 758              		.loc 1 55 0
 759 0042 074B     		ldr	r3, .L42+8
 760 0044 074A     		ldr	r2, .L42+12
 761 0046 0849     		ldr	r1, .L42+16
 762 0048 0848     		ldr	r0, .L42+20
 763              		.loc 1 54 0
 764 004a 2C60     		str	r4, [r5]
 765              		.loc 1 61 0
 766 004c 03B0     		add	sp, sp, #12
 767              		.cfi_def_cfa_offset 20
 768              		@ sp needed
 769 004e BDE8F040 		pop	{r4, r5, r6, r7, lr}
 770              		.cfi_restore 14
 771              		.cfi_restore 7
 772              		.cfi_restore 6
 773              		.cfi_restore 5
 774              		.cfi_restore 4
 775              		.cfi_def_cfa_offset 0
 776              	.LVL52:
 777              		.loc 1 55 0
 778 0052 FFF7FEBF 		b	terminal_register_command_callback
 779              	.LVL53:
 780              	.L43:
 781 0056 00BF     		.align	2
 782              	.L42:
 783 0058 00000000 		.word	.LANCHOR0
 784 005c 00000000 		.word	icm_thread
 785 0060 00000000 		.word	terminal_read_reg
 786 0064 00000000 		.word	.LC5
 787 0068 10000000 		.word	.LC6
 788 006c 30000000 		.word	.LC7
 789              		.cfi_endproc
 790              	.LFE259:
 791              		.size	icm20948_init, .-icm20948_init
 792              		.section	.text.icm20948_set_read_callback,"ax",%progbits
 793              		.align	1
 794              		.p2align 4,,15
 795              		.global	icm20948_set_read_callback
 796              		.syntax unified
 797              		.thumb
 798              		.thumb_func
ARM GAS  C:\Users\CFAR\AppData\Local\Temp\cchb0CKf.s 			page 15


 799              		.fpu fpv4-sp-d16
 800              		.type	icm20948_set_read_callback, %function
 801              	icm20948_set_read_callback:
 802              	.LFB260:
 803              		.loc 1 63 0
 804              		.cfi_startproc
 805              		@ args = 0, pretend = 0, frame = 0
 806              		@ frame_needed = 0, uses_anonymous_args = 0
 807              		@ link register save eliminated.
 808              	.LVL54:
 809              		.loc 1 64 0
 810 0000 8160     		str	r1, [r0, #8]
 811              		.loc 1 65 0
 812 0002 7047     		bx	lr
 813              		.cfi_endproc
 814              	.LFE260:
 815              		.size	icm20948_set_read_callback, .-icm20948_set_read_callback
 816              		.section	.text.icm20948_stop,"ax",%progbits
 817              		.align	1
 818              		.p2align 4,,15
 819              		.global	icm20948_stop
 820              		.syntax unified
 821              		.thumb
 822              		.thumb_func
 823              		.fpu fpv4-sp-d16
 824              		.type	icm20948_stop, %function
 825              	icm20948_stop:
 826              	.LFB261:
 827              		.loc 1 67 0
 828              		.cfi_startproc
 829              		@ args = 0, pretend = 0, frame = 0
 830              		@ frame_needed = 0, uses_anonymous_args = 0
 831              	.LVL55:
 832 0000 38B5     		push	{r3, r4, r5, lr}
 833              		.cfi_def_cfa_offset 16
 834              		.cfi_offset 3, -16
 835              		.cfi_offset 4, -12
 836              		.cfi_offset 5, -8
 837              		.cfi_offset 14, -4
 838              		.loc 1 68 0
 839 0002 0123     		movs	r3, #1
 840 0004 4373     		strb	r3, [r0, #13]
 841              		.loc 1 69 0
 842 0006 037B     		ldrb	r3, [r0, #12]	@ zero_extendqisi2
 843              		.loc 1 67 0
 844 0008 0446     		mov	r4, r0
 845              		.loc 1 69 0
 846 000a 2BB1     		cbz	r3, .L46
 847              	.LVL56:
 848              	.L47:
 849              		.loc 1 70 0
 850 000c 0120     		movs	r0, #1
 851 000e FFF7FEFF 		bl	chThdSleep
 852              	.LVL57:
 853              		.loc 1 69 0
 854 0012 237B     		ldrb	r3, [r4, #12]	@ zero_extendqisi2
 855 0014 002B     		cmp	r3, #0
ARM GAS  C:\Users\CFAR\AppData\Local\Temp\cchb0CKf.s 			page 16


 856 0016 F9D1     		bne	.L47
 857              	.L46:
 858              		.loc 1 73 0
 859 0018 054D     		ldr	r5, .L55
 860 001a 2B68     		ldr	r3, [r5]
 861 001c A342     		cmp	r3, r4
 862 001e 00D0     		beq	.L54
 863              		.loc 1 77 0
 864 0020 38BD     		pop	{r3, r4, r5, pc}
 865              	.LVL58:
 866              	.L54:
 867              		.loc 1 74 0
 868 0022 0448     		ldr	r0, .L55+4
 869 0024 FFF7FEFF 		bl	terminal_unregister_callback
 870              	.LVL59:
 871              		.loc 1 75 0
 872 0028 0023     		movs	r3, #0
 873 002a 2B60     		str	r3, [r5]
 874              		.loc 1 77 0
 875 002c 38BD     		pop	{r3, r4, r5, pc}
 876              	.LVL60:
 877              	.L56:
 878 002e 00BF     		.align	2
 879              	.L55:
 880 0030 00000000 		.word	.LANCHOR0
 881 0034 00000000 		.word	terminal_read_reg
 882              		.cfi_endproc
 883              	.LFE261:
 884              		.size	icm20948_stop, .-icm20948_stop
 885              		.section	.bss.m_terminal_state,"aw",%nobits
 886              		.align	2
 887              		.set	.LANCHOR0,. + 0
 888              		.type	m_terminal_state, %object
 889              		.size	m_terminal_state, 4
 890              	m_terminal_state:
 891 0000 00000000 		.space	4
 892              		.section	.rodata.icm20948_init.str1.4,"aMS",%progbits,1
 893              		.align	2
 894              	.LC5:
 895 0000 5B62616E 		.ascii	"[bank] [reg]\000"
 895      6B5D205B 
 895      7265675D 
 895      00
 896 000d 000000   		.space	3
 897              	.LC6:
 898 0010 52656164 		.ascii	"Read register of the ICM-20948\000"
 898      20726567 
 898      69737465 
 898      72206F66 
 898      20746865 
 899 002f 00       		.space	1
 900              	.LC7:
 901 0030 69636D5F 		.ascii	"icm_read_reg\000"
 901      72656164 
 901      5F726567 
 901      00
 902              		.section	.rodata.icm_thread.str1.4,"aMS",%progbits,1
ARM GAS  C:\Users\CFAR\AppData\Local\Temp\cchb0CKf.s 			page 17


 903              		.align	2
 904              	.LC0:
 905 0000 49434D20 		.ascii	"ICM Sampling\000"
 905      53616D70 
 905      6C696E67 
 905      00
 906              		.section	.rodata.terminal_read_reg.str1.4,"aMS",%progbits,1
 907              		.align	2
 908              	.LC1:
 909 0000 256400   		.ascii	"%d\000"
 910 0003 00       		.space	1
 911              	.LC2:
 912 0004 52656720 		.ascii	"Reg 0x%02x: %s (0x%02x)\012\000"
 912      30782530 
 912      32783A20 
 912      25732028 
 912      30782530 
 913 001d 000000   		.space	3
 914              	.LC3:
 915 0020 496E7661 		.ascii	"Invalid argument(s).\012\000"
 915      6C696420 
 915      61726775 
 915      6D656E74 
 915      2873292E 
 916 0036 0000     		.space	2
 917              	.LC4:
 918 0038 54686973 		.ascii	"This command requires one argument.\012\000"
 918      20636F6D 
 918      6D616E64 
 918      20726571 
 918      75697265 
 919              		.text
 920              	.Letext0:
 921              		.file 3 "c:\\st\\stm32cubeide_1.3.0\\stm32cubeide\\plugins\\com.st.stm32cube.ide.mcu.externaltools
 922              		.file 4 "c:\\st\\stm32cubeide_1.3.0\\stm32cubeide\\plugins\\com.st.stm32cube.ide.mcu.externaltools
 923              		.file 5 "c:\\st\\stm32cubeide_1.3.0\\stm32cubeide\\plugins\\com.st.stm32cube.ide.mcu.externaltools
 924              		.file 6 "ChibiOS_3.0.5/os/rt/ports/ARMCMx/compilers/GCC/chtypes.h"
 925              		.file 7 "ChibiOS_3.0.5/os/rt/include/chsystypes.h"
 926              		.file 8 "ChibiOS_3.0.5/os/rt/include/chschd.h"
 927              		.file 9 "ChibiOS_3.0.5/os/ext/CMSIS/include/core_cm4.h"
 928              		.file 10 "ChibiOS_3.0.5/os/ext/CMSIS/ST/system_stm32f4xx.h"
 929              		.file 11 "ChibiOS_3.0.5/os/ext/CMSIS/ST/stm32f407xx.h"
 930              		.file 12 "ChibiOS_3.0.5/os/rt/ports/ARMCMx/chcore.h"
 931              		.file 13 "ChibiOS_3.0.5/os/rt/ports/ARMCMx/chcore_v7m.h"
 932              		.file 14 "ChibiOS_3.0.5/os/rt/include/chtm.h"
 933              		.file 15 "ChibiOS_3.0.5/os/rt/include/chsem.h"
 934              		.file 16 "ChibiOS_3.0.5/os/rt/include/chmtx.h"
 935              		.file 17 "ChibiOS_3.0.5/os/rt/include/chevents.h"
 936              		.file 18 "ChibiOS_3.0.5/os/rt/include/chqueues.h"
 937              		.file 19 "./conf_general.h"
 938              		.file 20 "ChibiOS_3.0.5/os/hal/ports/STM32/STM32F4xx/stm32_dma.h"
 939              		.file 21 "ChibiOS_3.0.5/os/hal/ports/STM32/LLD/GPIOv2/pal_lld.h"
 940              		.file 22 "ChibiOS_3.0.5/os/hal/include/can.h"
 941              		.file 23 "ChibiOS_3.0.5/os/hal/ports/STM32/LLD/can_lld.h"
 942              		.file 24 "ChibiOS_3.0.5/os/hal/include/i2c.h"
 943              		.file 25 "ChibiOS_3.0.5/os/hal/ports/STM32/LLD/I2Cv1/i2c_lld.h"
 944              		.file 26 "ChibiOS_3.0.5/os/hal/include/icu.h"
ARM GAS  C:\Users\CFAR\AppData\Local\Temp\cchb0CKf.s 			page 18


 945              		.file 27 "ChibiOS_3.0.5/os/hal/ports/STM32/LLD/TIMv1/icu_lld.h"
 946              		.file 28 "ChibiOS_3.0.5/os/hal/ports/STM32/LLD/TIMv1/stm32_tim.h"
 947              		.file 29 "ChibiOS_3.0.5/os/hal/include/serial.h"
 948              		.file 30 "ChibiOS_3.0.5/os/hal/ports/STM32/LLD/USARTv1/serial_lld.h"
 949              		.file 31 "ChibiOS_3.0.5/os/hal/include/spi.h"
 950              		.file 32 "ChibiOS_3.0.5/os/hal/ports/STM32/LLD/SPIv1/spi_lld.h"
 951              		.file 33 "ChibiOS_3.0.5/os/hal/include/usb.h"
 952              		.file 34 "ChibiOS_3.0.5/os/hal/ports/STM32/LLD/OTGv1/usb_lld.h"
 953              		.file 35 "ChibiOS_3.0.5/os/hal/ports/STM32/LLD/OTGv1/stm32_otg.h"
 954              		.file 36 "./i2c_bb.h"
 955              		.file 37 "imu/icm20948.h"
 956              		.file 38 "./utils.h"
 957              		.file 39 "c:\\st\\stm32cubeide_1.3.0\\stm32cubeide\\plugins\\com.st.stm32cube.ide.mcu.externaltool
 958              		.file 40 "c:\\st\\stm32cubeide_1.3.0\\stm32cubeide\\plugins\\com.st.stm32cube.ide.mcu.externaltool
 959              		.file 41 "c:\\st\\stm32cubeide_1.3.0\\stm32cubeide\\plugins\\com.st.stm32cube.ide.mcu.externaltool
 960              		.file 42 "ChibiOS_3.0.5/os/rt/include/chthreads.h"
 961              		.file 43 "./terminal.h"
 962              		.file 44 "./commands.h"
 963              		.file 45 "c:\\st\\stm32cubeide_1.3.0\\stm32cubeide\\plugins\\com.st.stm32cube.ide.mcu.externaltool
