ARM GAS  C:\Users\CFAR\AppData\Local\Temp\cc7s8z6R.s 			page 1


   1              		.cpu cortex-m4
   2              		.eabi_attribute 27, 1
   3              		.eabi_attribute 28, 1
   4              		.eabi_attribute 20, 1
   5              		.eabi_attribute 21, 1
   6              		.eabi_attribute 23, 3
   7              		.eabi_attribute 24, 1
   8              		.eabi_attribute 25, 1
   9              		.eabi_attribute 26, 1
  10              		.eabi_attribute 30, 2
  11              		.eabi_attribute 34, 1
  12              		.eabi_attribute 18, 4
  13              		.file	"imu.c"
  14              		.text
  15              	.Ltext0:
  16              		.cfi_sections	.debug_frame
  17              		.global	__aeabi_f2d
  18              		.section	.text.terminal_gyro_info,"ax",%progbits
  19              		.align	1
  20              		.p2align 4,,15
  21              		.syntax unified
  22              		.thumb
  23              		.thumb_func
  24              		.fpu fpv4-sp-d16
  25              		.type	terminal_gyro_info, %function
  26              	terminal_gyro_info:
  27              	.LFB274:
  28              		.file 1 "imu/imu.c"
  29              		.loc 1 446 0
  30              		.cfi_startproc
  31              		@ args = 0, pretend = 0, frame = 0
  32              		@ frame_needed = 0, uses_anonymous_args = 0
  33              	.LVL0:
  34 0000 F0B5     		push	{r4, r5, r6, r7, lr}
  35              		.cfi_def_cfa_offset 20
  36              		.cfi_offset 4, -20
  37              		.cfi_offset 5, -16
  38              		.cfi_offset 6, -12
  39              		.cfi_offset 7, -8
  40              		.cfi_offset 14, -4
  41              		.loc 1 451 0
  42 0002 174D     		ldr	r5, .L4
  43 0004 174C     		ldr	r4, .L4+4
  44 0006 95ED0C7A 		vldr.32	s14, [r5, #48]
  45 000a D4ED007A 		vldr.32	s15, [r4]
  46              		.loc 1 450 0
  47 000e 77EE277A 		vadd.f32	s15, s14, s15
  48              		.loc 1 446 0
  49 0012 85B0     		sub	sp, sp, #20
  50              		.cfi_def_cfa_offset 40
  51              		.loc 1 450 0
  52 0014 17EE900A 		vmov	r0, s15
  53              	.LVL1:
  54 0018 FFF7FEFF 		bl	__aeabi_f2d
  55              	.LVL2:
  56              		.loc 1 453 0
  57 001c 95ED0E7A 		vldr.32	s14, [r5, #56]
ARM GAS  C:\Users\CFAR\AppData\Local\Temp\cc7s8z6R.s 			page 2


  58 0020 D4ED027A 		vldr.32	s15, [r4, #8]
  59              		.loc 1 450 0
  60 0024 77EE277A 		vadd.f32	s15, s14, s15
  61 0028 0646     		mov	r6, r0
  62 002a 17EE900A 		vmov	r0, s15
  63 002e 0F46     		mov	r7, r1
  64 0030 FFF7FEFF 		bl	__aeabi_f2d
  65              	.LVL3:
  66              		.loc 1 452 0
  67 0034 95ED0D7A 		vldr.32	s14, [r5, #52]
  68 0038 D4ED017A 		vldr.32	s15, [r4, #4]
  69              		.loc 1 450 0
  70 003c 77EE277A 		vadd.f32	s15, s14, s15
  71 0040 CDE90201 		strd	r0, [sp, #8]
  72 0044 17EE900A 		vmov	r0, s15
  73 0048 FFF7FEFF 		bl	__aeabi_f2d
  74              	.LVL4:
  75 004c 3246     		mov	r2, r6
  76 004e CDE90001 		strd	r0, [sp]
  77 0052 3B46     		mov	r3, r7
  78 0054 0448     		ldr	r0, .L4+8
  79 0056 FFF7FEFF 		bl	commands_printf
  80              	.LVL5:
  81              		.loc 1 454 0
  82 005a 05B0     		add	sp, sp, #20
  83              		.cfi_def_cfa_offset 20
  84              		@ sp needed
  85 005c F0BD     		pop	{r4, r5, r6, r7, pc}
  86              	.L5:
  87 005e 00BF     		.align	2
  88              	.L4:
  89 0060 00000000 		.word	.LANCHOR0
  90 0064 00000000 		.word	.LANCHOR1
  91 0068 00000000 		.word	.LC0
  92              		.cfi_endproc
  93              	.LFE274:
  94              		.size	terminal_gyro_info, .-terminal_gyro_info
  95              		.section	.text.imu_read_callback,"ax",%progbits
  96              		.align	1
  97              		.p2align 4,,15
  98              		.syntax unified
  99              		.thumb
 100              		.thumb_func
 101              		.fpu fpv4-sp-d16
 102              		.type	imu_read_callback, %function
 103              	imu_read_callback:
 104              	.LFB273:
 105              		.loc 1 359 0
 106              		.cfi_startproc
 107              		@ args = 0, pretend = 0, frame = 16
 108              		@ frame_needed = 0, uses_anonymous_args = 0
 109              	.LVL6:
 110 0000 2DE9F04F 		push	{r4, r5, r6, r7, r8, r9, r10, fp, lr}
 111              		.cfi_def_cfa_offset 36
 112              		.cfi_offset 4, -36
 113              		.cfi_offset 5, -32
 114              		.cfi_offset 6, -28
ARM GAS  C:\Users\CFAR\AppData\Local\Temp\cc7s8z6R.s 			page 3


 115              		.cfi_offset 7, -24
 116              		.cfi_offset 8, -20
 117              		.cfi_offset 9, -16
 118              		.cfi_offset 10, -12
 119              		.cfi_offset 11, -8
 120              		.cfi_offset 14, -4
 121 0004 2DED088B 		vpush.64	{d8, d9, d10, d11}
 122              		.cfi_def_cfa_offset 68
 123              		.cfi_offset 80, -68
 124              		.cfi_offset 81, -64
 125              		.cfi_offset 82, -60
 126              		.cfi_offset 83, -56
 127              		.cfi_offset 84, -52
 128              		.cfi_offset 85, -48
 129              		.cfi_offset 86, -44
 130              		.cfi_offset 87, -40
 131              		.loc 1 361 0
 132 0008 BD4D     		ldr	r5, .L25
 133              		.loc 1 364 0
 134 000a BE4C     		ldr	r4, .L25+4
 135              		.loc 1 359 0
 136 000c 85B0     		sub	sp, sp, #20
 137              		.cfi_def_cfa_offset 88
 138              		.loc 1 359 0
 139 000e 8346     		mov	fp, r0
 140              		.loc 1 361 0
 141 0010 2868     		ldr	r0, [r5]
 142              	.LVL7:
 143              		.loc 1 359 0
 144 0012 0F46     		mov	r7, r1
 145 0014 9146     		mov	r9, r2
 146              		.loc 1 361 0
 147 0016 FFF7FEFF 		bl	timer_seconds_elapsed_since
 148              	.LVL8:
 149 001a F0EE408A 		vmov.f32	s17, s0
 150              	.LVL9:
 151              		.loc 1 362 0
 152 001e FFF7FEFF 		bl	timer_time_now
 153              	.LVL10:
 154              		.loc 1 364 0
 155 0022 2378     		ldrb	r3, [r4]	@ zero_extendqisi2
 156              		.loc 1 362 0
 157 0024 2860     		str	r0, [r5]
 158              		.loc 1 364 0
 159 0026 002B     		cmp	r3, #0
 160 0028 00F04081 		beq	.L19
 161 002c DFF80883 		ldr	r8, .L25+56
 162              	.L7:
 163              		.loc 1 393 0
 164 0030 DFEDB5BA 		vldr.32	s23, .L25+8
 165 0034 D8ED087A 		vldr.32	s15, [r8, #32]
 166 0038 9FEDB4AA 		vldr.32	s20, .L25+12
 167              		.loc 1 404 0
 168 003c B44E     		ldr	r6, .L25+16
 169 003e B54C     		ldr	r4, .L25+20
 170 0040 B54D     		ldr	r5, .L25+24
 171              	.LBB16:
ARM GAS  C:\Users\CFAR\AppData\Local\Temp\cc7s8z6R.s 			page 4


 172              		.loc 1 421 0
 173 0042 9FEDB68A 		vldr.32	s16, .L25+28
 174              	.LBE16:
 175              		.loc 1 393 0
 176 0046 67EEAB7A 		vmul.f32	s15, s15, s23
 177 004a 04F10C0A 		add	r10, r4, #12
 178 004e 87EE8A9A 		vdiv.f32	s18, s15, s20
 179 0052 B0EE490A 		vmov.f32	s0, s18
 180 0056 FFF7FEFF 		bl	sinf
 181              	.LVL11:
 182 005a B0EE40BA 		vmov.f32	s22, s0
 183              	.LVL12:
 184              		.loc 1 394 0
 185 005e B0EE490A 		vmov.f32	s0, s18
 186              	.LVL13:
 187 0062 FFF7FEFF 		bl	cosf
 188              	.LVL14:
 189              		.loc 1 395 0
 190 0066 D8ED077A 		vldr.32	s15, [r8, #28]
 191 006a 67EEAB7A 		vmul.f32	s15, s15, s23
 192              		.loc 1 394 0
 193 006e B0EE409A 		vmov.f32	s18, s0
 194              	.LVL15:
 195              		.loc 1 395 0
 196 0072 C7EE8AAA 		vdiv.f32	s21, s15, s20
 197 0076 B0EE6A0A 		vmov.f32	s0, s21
 198              	.LVL16:
 199 007a FFF7FEFF 		bl	sinf
 200              	.LVL17:
 201 007e F0EE409A 		vmov.f32	s19, s0
 202              	.LVL18:
 203              		.loc 1 396 0
 204 0082 B0EE6A0A 		vmov.f32	s0, s21
 205              	.LVL19:
 206 0086 FFF7FEFF 		bl	cosf
 207              	.LVL20:
 208              		.loc 1 397 0
 209 008a D8ED067A 		vldr.32	s15, [r8, #24]
 210 008e 67EEAB7A 		vmul.f32	s15, s15, s23
 211              		.loc 1 396 0
 212 0092 F0EE40AA 		vmov.f32	s21, s0
 213              	.LVL21:
 214              		.loc 1 397 0
 215 0096 C7EE8ABA 		vdiv.f32	s23, s15, s20
 216 009a B0EE6B0A 		vmov.f32	s0, s23
 217              	.LVL22:
 218 009e FFF7FEFF 		bl	sinf
 219              	.LVL23:
 220 00a2 B0EE40AA 		vmov.f32	s20, s0
 221              	.LVL24:
 222              		.loc 1 398 0
 223 00a6 B0EE6B0A 		vmov.f32	s0, s23
 224              	.LVL25:
 225 00aa FFF7FEFF 		bl	cosf
 226              	.LVL26:
 227              		.loc 1 400 0
 228 00ae 2BEE005A 		vmul.f32	s10, s22, s0
ARM GAS  C:\Users\CFAR\AppData\Local\Temp\cc7s8z6R.s 			page 5


 229 00b2 69EE297A 		vmul.f32	s15, s18, s19
 230 00b6 F0EE454A 		vmov.f32	s9, s10
 231 00ba D7EE8A4A 		vfnms.f32	s9, s15, s20
 232              		.loc 1 408 0
 233 00be 984B     		ldr	r3, .L25+32
 234              		.loc 1 412 0
 235 00c0 984A     		ldr	r2, .L25+36
 236              		.loc 1 404 0
 237 00c2 DBED016A 		vldr.32	s13, [fp, #4]
 238 00c6 9BED006A 		vldr.32	s12, [fp]
 239 00ca DBED023A 		vldr.32	s7, [fp, #8]
 240              		.loc 1 400 0
 241 00ce 69EE007A 		vmul.f32	s15, s18, s0
 242              		.loc 1 404 0
 243 00d2 26EEA47A 		vmul.f32	s14, s13, s9
 244              		.loc 1 400 0
 245 00d6 29EE2A2A 		vmul.f32	s4, s18, s21
 246              	.LVL27:
 247 00da 67EEA92A 		vmul.f32	s5, s15, s19
 248              		.loc 1 404 0
 249 00de A6EE027A 		vfma.f32	s14, s12, s4
 250              		.loc 1 400 0
 251 00e2 EBEE0A2A 		vfma.f32	s5, s22, s20
 252              	.LVL28:
 253              		.loc 1 401 0
 254 00e6 2BEE296A 		vmul.f32	s12, s22, s19
 255              		.loc 1 404 0
 256 00ea A3EEA27A 		vfma.f32	s14, s7, s5
 257              		.loc 1 401 0
 258 00ee E6EE0A7A 		vfma.f32	s15, s12, s20
 259              		.loc 1 404 0
 260 00f2 86ED007A 		vstr.32	s14, [r6]
 261              		.loc 1 401 0
 262 00f6 B0EE673A 		vmov.f32	s6, s15
 263 00fa 2BEE2A4A 		vmul.f32	s8, s22, s21
 264              	.LVL29:
 265              		.loc 1 405 0
 266 00fe 66EEA76A 		vmul.f32	s13, s13, s15
 267              		.loc 1 401 0
 268 0102 2AEE496A 		vnmul.f32	s12, s20, s18
 269              		.loc 1 405 0
 270 0106 DBED007A 		vldr.32	s15, [fp]
 271              		.loc 1 401 0
 272 010a A5EE296A 		vfma.f32	s12, s10, s19
 273              	.LVL30:
 274              		.loc 1 405 0
 275 010e E7EE846A 		vfma.f32	s13, s15, s8
 276              		.loc 1 404 0
 277 0112 F0EE475A 		vmov.f32	s11, s14
 278              		.loc 1 405 0
 279 0116 E3EE866A 		vfma.f32	s13, s7, s12
 280              		.loc 1 402 0
 281 011a 2AEE8A7A 		vmul.f32	s14, s21, s20
 282              		.loc 1 405 0
 283 011e C6ED016A 		vstr.32	s13, [r6, #4]
 284              		.loc 1 406 0
 285 0122 DBED016A 		vldr.32	s13, [fp, #4]
ARM GAS  C:\Users\CFAR\AppData\Local\Temp\cc7s8z6R.s 			page 6


 286 0126 DBED007A 		vldr.32	s15, [fp]
 287 012a 67EE266A 		vmul.f32	s13, s14, s13
 288              		.loc 1 402 0
 289 012e B1EE695A 		vneg.f32	s10, s19
 290              	.LVL31:
 291              		.loc 1 406 0
 292 0132 E7EE856A 		vfma.f32	s13, s15, s10
 293 0136 9B46     		mov	fp, r3
 294              	.LVL32:
 295              		.loc 1 402 0
 296 0138 2AEE800A 		vmul.f32	s0, s21, s0
 297              	.LVL33:
 298              		.loc 1 406 0
 299 013c E3EE806A 		vfma.f32	s13, s7, s0
 300 0140 C6ED026A 		vstr.32	s13, [r6, #8]
 301              		.loc 1 408 0
 302 0144 D7ED013A 		vldr.32	s7, [r7, #4]
 303 0148 D7ED006A 		vldr.32	s13, [r7]
 304 014c D7ED021A 		vldr.32	s3, [r7, #8]
 305 0150 63EEA47A 		vmul.f32	s15, s7, s9
 306              		.loc 1 409 0
 307 0154 63EE833A 		vmul.f32	s7, s7, s6
 308              		.loc 1 408 0
 309 0158 E6EE827A 		vfma.f32	s15, s13, s4
 310 015c E1EEA27A 		vfma.f32	s15, s3, s5
 311 0160 C3ED007A 		vstr.32	s15, [r3]
 312 0164 F0EE676A 		vmov.f32	s13, s15
 313              		.loc 1 409 0
 314 0168 D7ED007A 		vldr.32	s15, [r7]
 315 016c E7EE843A 		vfma.f32	s7, s15, s8
 316 0170 E1EE863A 		vfma.f32	s7, s3, s12
 317 0174 C3ED013A 		vstr.32	s7, [r3, #4]
 318              		.loc 1 410 0
 319 0178 D7ED013A 		vldr.32	s7, [r7, #4]
 320 017c D7ED007A 		vldr.32	s15, [r7]
 321 0180 67EE233A 		vmul.f32	s7, s14, s7
 322 0184 1F46     		mov	r7, r3
 323              	.LVL34:
 324 0186 E7EE853A 		vfma.f32	s7, s15, s10
 325 018a E1EE803A 		vfma.f32	s7, s3, s0
 326 018e C3ED023A 		vstr.32	s7, [r3, #8]
 327              		.loc 1 412 0
 328 0192 D9ED017A 		vldr.32	s15, [r9, #4]
 329 0196 D9ED001A 		vldr.32	s3, [r9]
 330 019a D9ED023A 		vldr.32	s7, [r9, #8]
 331 019e 67EEA44A 		vmul.f32	s9, s15, s9
 332              	.LVL35:
 333              		.loc 1 413 0
 334 01a2 67EE837A 		vmul.f32	s15, s15, s6
 335              		.loc 1 412 0
 336 01a6 E1EE824A 		vfma.f32	s9, s3, s4
 337 01aa E3EEA24A 		vfma.f32	s9, s7, s5
 338 01ae C2ED004A 		vstr.32	s9, [r2]
 339              		.loc 1 413 0
 340 01b2 D9ED004A 		vldr.32	s9, [r9]
 341 01b6 E4EE847A 		vfma.f32	s15, s9, s8
 342 01ba E3EE867A 		vfma.f32	s15, s7, s12
ARM GAS  C:\Users\CFAR\AppData\Local\Temp\cc7s8z6R.s 			page 7


 343 01be C2ED017A 		vstr.32	s15, [r2, #4]
 344              		.loc 1 414 0
 345 01c2 D9ED017A 		vldr.32	s15, [r9, #4]
 346 01c6 99ED006A 		vldr.32	s12, [r9]
 347              	.LVL36:
 348 01ca 67EE277A 		vmul.f32	s15, s14, s15
 349 01ce E6EE057A 		vfma.f32	s15, s12, s10
 350 01d2 E3EE807A 		vfma.f32	s15, s7, s0
 351 01d6 C2ED027A 		vstr.32	s15, [r2, #8]
 352              	.LVL37:
 353              	.L12:
 354              	.LBB17:
 355              		.loc 1 418 0
 356 01da B4EC017A 		vldmia.32	r4!, {s14}
 357              		.loc 1 419 0
 358 01de D4ED027A 		vldr.32	s15, [r4, #8]
 359              		.loc 1 421 0
 360 01e2 D4ED050A 		vldr.32	s1, [r4, #20]
 361              		.loc 1 419 0
 362 01e6 76EEE77A 		vsub.f32	s15, s13, s15
 363              		.loc 1 418 0
 364 01ea 35EEC77A 		vsub.f32	s14, s11, s14
 365              		.loc 1 421 0
 366 01ee F5EEC00A 		vcmpe.f32	s1, #0
 367 01f2 F1EE10FA 		vmrs	APSR_nzcv, FPSCR
 368              		.loc 1 418 0
 369 01f6 A6EC017A 		vstmia.32	r6!, {s14}
 370              		.loc 1 419 0
 371 01fa C7ED007A 		vstr.32	s15, [r7]
 372              		.loc 1 422 0
 373 01fe B0EE670A 		vmov.f32	s0, s15
 374 0202 2846     		mov	r0, r5
 375              		.loc 1 421 0
 376 0204 10DC     		bgt	.L23
 377              		.loc 1 425 0
 378 0206 B0EE487A 		vmov.f32	s14, s16
 379              		.loc 1 428 0
 380 020a 77EEC77A 		vsub.f32	s15, s15, s14
 381              		.loc 1 417 0
 382 020e A245     		cmp	r10, r4
 383              		.loc 1 425 0
 384 0210 85ED008A 		vstr.32	s16, [r5]
 385              		.loc 1 428 0
 386 0214 E7EC017A 		vstmia.32	r7!, {s15}
 387 0218 05F10405 		add	r5, r5, #4
 388              		.loc 1 417 0
 389 021c 19D0     		beq	.L11
 390              	.L24:
 391 021e D6ED005A 		vldr.32	s11, [r6]
 392 0222 D7ED006A 		vldr.32	s13, [r7]
 393 0226 D8E7     		b	.L12
 394              	.L23:
 395              		.loc 1 422 0
 396 0228 60EEA80A 		vmul.f32	s1, s1, s17
 397 022c FFF7FEFF 		bl	utils_step_towards
 398              	.LVL38:
 399              		.loc 1 423 0
ARM GAS  C:\Users\CFAR\AppData\Local\Temp\cc7s8z6R.s 			page 8


 400 0230 2846     		mov	r0, r5
 401 0232 98ED120A 		vldr.32	s0, [r8, #72]
 402 0236 FFF7FEFF 		bl	utils_truncate_number_abs
 403              	.LVL39:
 404 023a D7ED007A 		vldr.32	s15, [r7]
 405 023e 95ED007A 		vldr.32	s14, [r5]
 406              		.loc 1 428 0
 407 0242 77EEC77A 		vsub.f32	s15, s15, s14
 408              		.loc 1 417 0
 409 0246 A245     		cmp	r10, r4
 410 0248 05F10405 		add	r5, r5, #4
 411              		.loc 1 428 0
 412 024c E7EC017A 		vstmia.32	r7!, {s15}
 413              		.loc 1 417 0
 414 0250 E5D1     		bne	.L24
 415              	.L11:
 416              	.LBE17:
 417              		.loc 1 432 0
 418 0252 DFED2D5A 		vldr.32	s11, .L25+8
 419 0256 9BED006A 		vldr.32	s12, [fp]
 420              		.loc 1 433 0
 421 025a DBED016A 		vldr.32	s13, [fp, #4]
 422              		.loc 1 434 0
 423 025e 9BED027A 		vldr.32	s14, [fp, #8]
 424              		.loc 1 432 0
 425 0262 DFED2A7A 		vldr.32	s15, .L25+12
 426              		.loc 1 436 0
 427 0266 98F80130 		ldrb	r3, [r8, #1]	@ zero_extendqisi2
 428              		.loc 1 433 0
 429 026a 66EEA56A 		vmul.f32	s13, s13, s11
 430              		.loc 1 432 0
 431 026e 26EE256A 		vmul.f32	s12, s12, s11
 432              		.loc 1 434 0
 433 0272 27EE257A 		vmul.f32	s14, s14, s11
 434              		.loc 1 432 0
 435 0276 C6EE275A 		vdiv.f32	s11, s12, s15
 436              		.loc 1 433 0
 437 027a 86EEA76A 		vdiv.f32	s12, s13, s15
 438              		.loc 1 434 0
 439 027e C7EE276A 		vdiv.f32	s13, s14, s15
 440              		.loc 1 432 0
 441 0282 CDED015A 		vstr.32	s11, [sp, #4]
 442              		.loc 1 433 0
 443 0286 8DED026A 		vstr.32	s12, [sp, #8]
 444              		.loc 1 434 0
 445 028a CDED036A 		vstr.32	s13, [sp, #12]
 446              		.loc 1 436 0
 447 028e 5BB3     		cbz	r3, .L14
 448 0290 012B     		cmp	r3, #1
 449 0292 06D1     		bne	.L6
 450              		.loc 1 441 0
 451 0294 B0EE680A 		vmov.f32	s0, s17
 452 0298 234A     		ldr	r2, .L25+40
 453 029a 1D49     		ldr	r1, .L25+16
 454 029c 01A8     		add	r0, sp, #4
 455 029e FFF7FEFF 		bl	ahrs_update_mahony_imu
 456              	.LVL40:
ARM GAS  C:\Users\CFAR\AppData\Local\Temp\cc7s8z6R.s 			page 9


 457              	.L6:
 458              		.loc 1 444 0
 459 02a2 05B0     		add	sp, sp, #20
 460              		.cfi_remember_state
 461              		.cfi_def_cfa_offset 68
 462              		@ sp needed
 463 02a4 BDEC088B 		vldm	sp!, {d8-d11}
 464              		.cfi_restore 86
 465              		.cfi_restore 87
 466              		.cfi_restore 84
 467              		.cfi_restore 85
 468              		.cfi_restore 82
 469              		.cfi_restore 83
 470              		.cfi_restore 80
 471              		.cfi_restore 81
 472              		.cfi_def_cfa_offset 36
 473              	.LVL41:
 474 02a8 BDE8F08F 		pop	{r4, r5, r6, r7, r8, r9, r10, fp, pc}
 475              	.LVL42:
 476              	.L19:
 477              		.cfi_restore_state
 478              		.loc 1 364 0
 479 02ac 1F4A     		ldr	r2, .L25+44
 480              	.LBB18:
 481              	.LBB19:
 482              		.file 2 "ChibiOS_3.0.5/os/rt/include/chvt.h"
 483              		.loc 2 231 0
 484 02ae 204B     		ldr	r3, .L25+48
 485              	.LBE19:
 486              	.LBE18:
 487              		.loc 1 364 0
 488 02b0 1168     		ldr	r1, [r2]
 489              	.LBB21:
 490              	.LBB20:
 491              		.loc 2 231 0
 492 02b2 9B6A     		ldr	r3, [r3, #40]
 493              	.LBE20:
 494              	.LBE21:
 495              		.loc 1 364 0
 496 02b4 1F4A     		ldr	r2, .L25+52
 497              		.loc 1 365 0
 498 02b6 DFF88080 		ldr	r8, .L25+56
 499              		.loc 1 364 0
 500 02ba 5B1A     		subs	r3, r3, r1
 501 02bc 4FF47A70 		mov	r0, #1000
 502 02c0 42F20F71 		movw	r1, #9999
 503 02c4 00FB0313 		mla	r3, r0, r3, r1
 504 02c8 9342     		cmp	r3, r2
 505 02ca 7FF6B1AE 		bls	.L7
 506              		.loc 1 365 0
 507 02ce D8ED051A 		vldr.32	s3, [r8, #20]
 508 02d2 98ED041A 		vldr.32	s2, [r8, #16]
 509 02d6 D8ED030A 		vldr.32	s1, [r8, #12]
 510 02da 98ED020A 		vldr.32	s0, [r8, #8]
 511 02de FFF7FEFF 		bl	ahrs_update_all_parameters
 512              	.LVL43:
 513              		.loc 1 370 0
ARM GAS  C:\Users\CFAR\AppData\Local\Temp\cc7s8z6R.s 			page 10


 514 02e2 0123     		movs	r3, #1
 515 02e4 2370     		strb	r3, [r4]
 516 02e6 A3E6     		b	.L7
 517              	.LVL44:
 518              	.L14:
 519              		.loc 1 438 0
 520 02e8 B0EE680A 		vmov.f32	s0, s17
 521 02ec 0E4A     		ldr	r2, .L25+40
 522 02ee 0849     		ldr	r1, .L25+16
 523 02f0 01A8     		add	r0, sp, #4
 524 02f2 FFF7FEFF 		bl	ahrs_update_madgwick_imu
 525              	.LVL45:
 526              		.loc 1 444 0
 527 02f6 05B0     		add	sp, sp, #20
 528              		.cfi_def_cfa_offset 68
 529              		@ sp needed
 530 02f8 BDEC088B 		vldm	sp!, {d8-d11}
 531              		.cfi_restore 86
 532              		.cfi_restore 87
 533              		.cfi_restore 84
 534              		.cfi_restore 85
 535              		.cfi_restore 82
 536              		.cfi_restore 83
 537              		.cfi_restore 80
 538              		.cfi_restore 81
 539              		.cfi_def_cfa_offset 36
 540              	.LVL46:
 541 02fc BDE8F08F 		pop	{r4, r5, r6, r7, r8, r9, r10, fp, pc}
 542              	.LVL47:
 543              	.L26:
 544              		.align	2
 545              	.L25:
 546 0300 00000000 		.word	.LANCHOR2
 547 0304 00000000 		.word	.LANCHOR3
 548 0308 DB0F4940 		.word	1078530011
 549 030c 00003443 		.word	1127481344
 550 0310 00000000 		.word	.LANCHOR5
 551 0314 24000000 		.word	.LANCHOR0+36
 552 0318 00000000 		.word	.LANCHOR1
 553 031c 00000000 		.word	0
 554 0320 00000000 		.word	.LANCHOR6
 555 0324 00000000 		.word	.LANCHOR7
 556 0328 00000000 		.word	.LANCHOR8
 557 032c 00000000 		.word	.LANCHOR4
 558 0330 00000000 		.word	ch
 559 0334 8FBD9800 		.word	10009999
 560 0338 00000000 		.word	.LANCHOR0
 561              		.cfi_endproc
 562              	.LFE273:
 563              		.size	imu_read_callback, .-imu_read_callback
 564              		.section	.text.user_i2c_read,"ax",%progbits
 565              		.align	1
 566              		.p2align 4,,15
 567              		.global	user_i2c_read
 568              		.syntax unified
 569              		.thumb
 570              		.thumb_func
ARM GAS  C:\Users\CFAR\AppData\Local\Temp\cc7s8z6R.s 			page 11


 571              		.fpu fpv4-sp-d16
 572              		.type	user_i2c_read, %function
 573              	user_i2c_read:
 574              	.LFB276:
 575              		.loc 1 474 0
 576              		.cfi_startproc
 577              		@ args = 0, pretend = 0, frame = 8
 578              		@ frame_needed = 0, uses_anonymous_args = 0
 579              	.LVL48:
 580 0000 30B5     		push	{r4, r5, lr}
 581              		.cfi_def_cfa_offset 12
 582              		.cfi_offset 4, -12
 583              		.cfi_offset 5, -8
 584              		.cfi_offset 14, -4
 585 0002 85B0     		sub	sp, sp, #20
 586              		.cfi_def_cfa_offset 32
 587              		.loc 1 478 0
 588 0004 04AC     		add	r4, sp, #16
 589              		.loc 1 475 0
 590 0006 0A4D     		ldr	r5, .L31
 591              		.loc 1 478 0
 592 0008 04F8041D 		strb	r1, [r4, #-4]!
 593              		.loc 1 479 0
 594 000c CDE90023 		strd	r2, r3, [sp]
 595 0010 0146     		mov	r1, r0
 596              	.LVL49:
 597 0012 2246     		mov	r2, r4
 598              	.LVL50:
 599 0014 2846     		mov	r0, r5
 600              	.LVL51:
 601              		.loc 1 475 0
 602 0016 0024     		movs	r4, #0
 603              	.LVL52:
 604              		.loc 1 479 0
 605 0018 0123     		movs	r3, #1
 606              	.LVL53:
 607              		.loc 1 475 0
 608 001a 6C74     		strb	r4, [r5, #17]
 609              		.loc 1 479 0
 610 001c FFF7FEFF 		bl	i2c_bb_tx_rx
 611              	.LVL54:
 612 0020 A042     		cmp	r0, r4
 613              		.loc 1 480 0
 614 0022 0CBF     		ite	eq
 615 0024 6FF00100 		mvneq	r0, #1
 616 0028 2046     		movne	r0, r4
 617 002a 05B0     		add	sp, sp, #20
 618              		.cfi_def_cfa_offset 12
 619              		@ sp needed
 620 002c 30BD     		pop	{r4, r5, pc}
 621              	.L32:
 622 002e 00BF     		.align	2
 623              	.L31:
 624 0030 00000000 		.word	.LANCHOR9
 625              		.cfi_endproc
 626              	.LFE276:
 627              		.size	user_i2c_read, .-user_i2c_read
ARM GAS  C:\Users\CFAR\AppData\Local\Temp\cc7s8z6R.s 			page 12


 628              		.section	.text.user_i2c_write,"ax",%progbits
 629              		.align	1
 630              		.p2align 4,,15
 631              		.global	user_i2c_write
 632              		.syntax unified
 633              		.thumb
 634              		.thumb_func
 635              		.fpu fpv4-sp-d16
 636              		.type	user_i2c_write, %function
 637              	user_i2c_write:
 638              	.LFB277:
 639              		.loc 1 482 0
 640              		.cfi_startproc
 641              		@ args = 0, pretend = 0, frame = 0
 642              		@ frame_needed = 1, uses_anonymous_args = 0
 643              	.LVL55:
 644 0000 2DE9F043 		push	{r4, r5, r6, r7, r8, r9, lr}
 645              		.cfi_def_cfa_offset 28
 646              		.cfi_offset 4, -28
 647              		.cfi_offset 5, -24
 648              		.cfi_offset 6, -20
 649              		.cfi_offset 7, -16
 650              		.cfi_offset 8, -12
 651              		.cfi_offset 9, -8
 652              		.cfi_offset 14, -4
 653              		.loc 1 485 0
 654 0004 03F10804 		add	r4, r3, #8
 655              		.loc 1 482 0
 656 0008 83B0     		sub	sp, sp, #12
 657              		.cfi_def_cfa_offset 40
 658              		.loc 1 485 0
 659 000a 6D46     		mov	r5, sp
 660 000c E408     		lsrs	r4, r4, #3
 661 000e A5EBC404 		sub	r4, r5, r4, lsl #3
 662              		.loc 1 482 0
 663 0012 02AF     		add	r7, sp, #8
 664              		.cfi_def_cfa 7, 32
 665              		.loc 1 485 0
 666 0014 A546     		mov	sp, r4
 667              		.loc 1 483 0
 668 0016 104D     		ldr	r5, .L37
 669              		.loc 1 486 0
 670 0018 8DF80810 		strb	r1, [sp, #8]
 671              		.loc 1 483 0
 672 001c 0024     		movs	r4, #0
 673              		.loc 1 482 0
 674 001e 8046     		mov	r8, r0
 675              		.loc 1 487 0
 676 0020 1146     		mov	r1, r2
 677              	.LVL56:
 678              		.loc 1 485 0
 679 0022 03F10109 		add	r9, r3, #1
 680              		.loc 1 487 0
 681 0026 1A46     		mov	r2, r3
 682              	.LVL57:
 683 0028 0DF10900 		add	r0, sp, #9
 684              	.LVL58:
ARM GAS  C:\Users\CFAR\AppData\Local\Temp\cc7s8z6R.s 			page 13


 685              		.loc 1 485 0
 686 002c 02AE     		add	r6, sp, #8
 687              	.LVL59:
 688              		.loc 1 483 0
 689 002e 6C74     		strb	r4, [r5, #17]
 690              	.LVL60:
 691              		.loc 1 487 0
 692 0030 FFF7FEFF 		bl	memcpy
 693              	.LVL61:
 694              		.loc 1 488 0
 695 0034 CDE90044 		strd	r4, r4, [sp]
 696 0038 4B46     		mov	r3, r9
 697 003a 4146     		mov	r1, r8
 698 003c 2846     		mov	r0, r5
 699 003e 3246     		mov	r2, r6
 700 0040 FFF7FEFF 		bl	i2c_bb_tx_rx
 701              	.LVL62:
 702 0044 A042     		cmp	r0, r4
 703              		.loc 1 489 0
 704 0046 0CBF     		ite	eq
 705 0048 6FF00100 		mvneq	r0, #1
 706 004c 2046     		movne	r0, r4
 707 004e 0437     		adds	r7, r7, #4
 708              		.cfi_def_cfa_offset 28
 709 0050 BD46     		mov	sp, r7
 710              		.cfi_def_cfa_register 13
 711              		@ sp needed
 712 0052 BDE8F083 		pop	{r4, r5, r6, r7, r8, r9, pc}
 713              	.LVL63:
 714              	.L38:
 715 0056 00BF     		.align	2
 716              	.L37:
 717 0058 00000000 		.word	.LANCHOR9
 718              		.cfi_endproc
 719              	.LFE277:
 720              		.size	user_i2c_write, .-user_i2c_write
 721              		.section	.text.rotate.constprop.0,"ax",%progbits
 722              		.align	1
 723              		.p2align 4,,15
 724              		.syntax unified
 725              		.thumb
 726              		.thumb_func
 727              		.fpu fpv4-sp-d16
 728              		.type	rotate.constprop.0, %function
 729              	rotate.constprop.0:
 730              	.LFB278:
 731              		.loc 1 456 0
 732              		.cfi_startproc
 733              		@ args = 0, pretend = 0, frame = 0
 734              		@ frame_needed = 0, uses_anonymous_args = 0
 735              	.LVL64:
 736 0000 38B5     		push	{r3, r4, r5, lr}
 737              		.cfi_def_cfa_offset 16
 738              		.cfi_offset 3, -16
 739              		.cfi_offset 4, -12
 740              		.cfi_offset 5, -8
 741              		.cfi_offset 14, -4
ARM GAS  C:\Users\CFAR\AppData\Local\Temp\cc7s8z6R.s 			page 14


 742              		.loc 1 458 0
 743 0002 D1ED027A 		vldr.32	s15, [r1, #8]
 744              		.loc 1 456 0
 745 0006 2DED068B 		vpush.64	{d8, d9, d10}
 746              		.cfi_def_cfa_offset 40
 747              		.cfi_offset 80, -40
 748              		.cfi_offset 81, -36
 749              		.cfi_offset 82, -32
 750              		.cfi_offset 83, -28
 751              		.cfi_offset 84, -24
 752              		.cfi_offset 85, -20
 753              		.loc 1 458 0
 754 000a DFED42AA 		vldr.32	s21, .L41
 755 000e 9FED428A 		vldr.32	s16, .L41+4
 756 0012 67EEAA7A 		vmul.f32	s15, s15, s21
 757              		.loc 1 456 0
 758 0016 0446     		mov	r4, r0
 759              		.loc 1 458 0
 760 0018 C7EE888A 		vdiv.f32	s17, s15, s16
 761              		.loc 1 456 0
 762 001c 0D46     		mov	r5, r1
 763              		.loc 1 458 0
 764 001e B0EE680A 		vmov.f32	s0, s17
 765 0022 FFF7FEFF 		bl	sinf
 766              	.LVL65:
 767 0026 F0EE409A 		vmov.f32	s19, s0
 768              	.LVL66:
 769              		.loc 1 459 0
 770 002a B0EE680A 		vmov.f32	s0, s17
 771              	.LVL67:
 772 002e FFF7FEFF 		bl	cosf
 773              	.LVL68:
 774              		.loc 1 460 0
 775 0032 D5ED017A 		vldr.32	s15, [r5, #4]
 776 0036 67EEAA7A 		vmul.f32	s15, s15, s21
 777              		.loc 1 459 0
 778 003a F0EE408A 		vmov.f32	s17, s0
 779              	.LVL69:
 780              		.loc 1 460 0
 781 003e 87EE889A 		vdiv.f32	s18, s15, s16
 782 0042 B0EE490A 		vmov.f32	s0, s18
 783              	.LVL70:
 784 0046 FFF7FEFF 		bl	sinf
 785              	.LVL71:
 786 004a B0EE40AA 		vmov.f32	s20, s0
 787              	.LVL72:
 788              		.loc 1 461 0
 789 004e B0EE490A 		vmov.f32	s0, s18
 790              	.LVL73:
 791 0052 FFF7FEFF 		bl	cosf
 792              	.LVL74:
 793              		.loc 1 462 0
 794 0056 D5ED007A 		vldr.32	s15, [r5]
 795 005a 67EEAA7A 		vmul.f32	s15, s15, s21
 796              		.loc 1 461 0
 797 005e B0EE409A 		vmov.f32	s18, s0
 798              	.LVL75:
ARM GAS  C:\Users\CFAR\AppData\Local\Temp\cc7s8z6R.s 			page 15


 799              		.loc 1 462 0
 800 0062 C7EE88AA 		vdiv.f32	s21, s15, s16
 801 0066 B0EE6A0A 		vmov.f32	s0, s21
 802              	.LVL76:
 803 006a FFF7FEFF 		bl	sinf
 804              	.LVL77:
 805 006e B0EE408A 		vmov.f32	s16, s0
 806              	.LVL78:
 807              		.loc 1 463 0
 808 0072 B0EE6A0A 		vmov.f32	s0, s21
 809              	.LVL79:
 810 0076 FFF7FEFF 		bl	cosf
 811              	.LVL80:
 812              		.loc 1 465 0
 813 007a 29EE806A 		vmul.f32	s12, s19, s0
 814              	.LVL81:
 815 007e 68EE8A7A 		vmul.f32	s15, s17, s20
 816 0082 B0EE467A 		vmov.f32	s14, s12
 817 0086 98EE277A 		vfnms.f32	s14, s16, s15
 818              		.loc 1 469 0
 819 008a 244B     		ldr	r3, .L41+8
 820 008c D4ED016A 		vldr.32	s13, [r4, #4]
 821 0090 D4ED005A 		vldr.32	s11, [r4]
 822 0094 94ED025A 		vldr.32	s10, [r4, #8]
 823              		.loc 1 465 0
 824 0098 68EE807A 		vmul.f32	s15, s17, s0
 825              	.LVL82:
 826 009c 68EE894A 		vmul.f32	s9, s17, s18
 827              	.LVL83:
 828              		.loc 1 469 0
 829 00a0 27EE267A 		vmul.f32	s14, s14, s13
 830              		.loc 1 465 0
 831 00a4 6AEE276A 		vmul.f32	s13, s20, s15
 832              		.loc 1 469 0
 833 00a8 A4EEA57A 		vfma.f32	s14, s9, s11
 834              		.loc 1 465 0
 835 00ac E9EE886A 		vfma.f32	s13, s19, s16
 836              	.LVL84:
 837              		.loc 1 466 0
 838 00b0 69EE8A5A 		vmul.f32	s11, s19, s20
 839              		.loc 1 469 0
 840 00b4 A6EE857A 		vfma.f32	s14, s13, s10
 841              		.loc 1 466 0
 842 00b8 E8EE257A 		vfma.f32	s15, s16, s11
 843              	.LVL85:
 844              		.loc 1 469 0
 845 00bc 83ED0C7A 		vstr.32	s14, [r3, #48]
 846              		.loc 1 470 0
 847 00c0 D4ED015A 		vldr.32	s11, [r4, #4]
 848 00c4 D4ED006A 		vldr.32	s13, [r4]
 849              	.LVL86:
 850 00c8 94ED027A 		vldr.32	s14, [r4, #8]
 851              		.loc 1 466 0
 852 00cc 69EE899A 		vmul.f32	s19, s19, s18
 853              	.LVL87:
 854 00d0 68EE688A 		vnmul.f32	s17, s16, s17
 855              	.LVL88:
ARM GAS  C:\Users\CFAR\AppData\Local\Temp\cc7s8z6R.s 			page 16


 856              		.loc 1 470 0
 857 00d4 67EEA57A 		vmul.f32	s15, s15, s11
 858              		.loc 1 466 0
 859 00d8 EAEE068A 		vfma.f32	s17, s20, s12
 860              	.LVL89:
 861              		.loc 1 470 0
 862 00dc E9EEA67A 		vfma.f32	s15, s19, s13
 863              		.loc 1 467 0
 864 00e0 29EE088A 		vmul.f32	s16, s18, s16
 865              	.LVL90:
 866              		.loc 1 470 0
 867 00e4 E8EE877A 		vfma.f32	s15, s17, s14
 868              		.loc 1 467 0
 869 00e8 29EE009A 		vmul.f32	s18, s18, s0
 870              	.LVL91:
 871              		.loc 1 470 0
 872 00ec C3ED0D7A 		vstr.32	s15, [r3, #52]
 873              		.loc 1 471 0
 874 00f0 D4ED016A 		vldr.32	s13, [r4, #4]
 875 00f4 94ED007A 		vldr.32	s14, [r4]
 876 00f8 D4ED027A 		vldr.32	s15, [r4, #8]
 877 00fc 28EE268A 		vmul.f32	s16, s16, s13
 878              	.LVL92:
 879 0100 AAEE478A 		vfms.f32	s16, s20, s14
 880 0104 A9EE278A 		vfma.f32	s16, s18, s15
 881 0108 83ED0E8A 		vstr.32	s16, [r3, #56]
 882              		.loc 1 472 0
 883 010c BDEC068B 		vldm	sp!, {d8-d10}
 884              		.cfi_restore 84
 885              		.cfi_restore 85
 886              		.cfi_restore 82
 887              		.cfi_restore 83
 888              		.cfi_restore 80
 889              		.cfi_restore 81
 890              		.cfi_def_cfa_offset 16
 891              	.LVL93:
 892 0110 38BD     		pop	{r3, r4, r5, pc}
 893              	.LVL94:
 894              	.L42:
 895 0112 00BF     		.align	2
 896              	.L41:
 897 0114 DB0F4940 		.word	1078530011
 898 0118 00003443 		.word	1127481344
 899 011c 00000000 		.word	.LANCHOR0
 900              		.cfi_endproc
 901              	.LFE278:
 902              		.size	rotate.constprop.0, .-rotate.constprop.0
 903              		.section	.text.imu_get_i2c,"ax",%progbits
 904              		.align	1
 905              		.p2align 4,,15
 906              		.global	imu_get_i2c
 907              		.syntax unified
 908              		.thumb
 909              		.thumb_func
 910              		.fpu fpv4-sp-d16
 911              		.type	imu_get_i2c, %function
 912              	imu_get_i2c:
ARM GAS  C:\Users\CFAR\AppData\Local\Temp\cc7s8z6R.s 			page 17


 913              	.LFB257:
 914              		.loc 1 102 0
 915              		.cfi_startproc
 916              		@ args = 0, pretend = 0, frame = 0
 917              		@ frame_needed = 0, uses_anonymous_args = 0
 918              		@ link register save eliminated.
 919              		.loc 1 104 0
 920 0000 0048     		ldr	r0, .L44
 921 0002 7047     		bx	lr
 922              	.L45:
 923              		.align	2
 924              	.L44:
 925 0004 00000000 		.word	.LANCHOR9
 926              		.cfi_endproc
 927              	.LFE257:
 928              		.size	imu_get_i2c, .-imu_get_i2c
 929              		.section	.text.imu_stop,"ax",%progbits
 930              		.align	1
 931              		.p2align 4,,15
 932              		.global	imu_stop
 933              		.syntax unified
 934              		.thumb
 935              		.thumb_func
 936              		.fpu fpv4-sp-d16
 937              		.type	imu_stop, %function
 938              	imu_stop:
 939              	.LFB261:
 940              		.loc 1 151 0
 941              		.cfi_startproc
 942              		@ args = 0, pretend = 0, frame = 0
 943              		@ frame_needed = 0, uses_anonymous_args = 0
 944 0000 08B5     		push	{r3, lr}
 945              		.cfi_def_cfa_offset 8
 946              		.cfi_offset 3, -8
 947              		.cfi_offset 14, -4
 948              		.loc 1 152 0
 949 0002 FFF7FEFF 		bl	mpu9150_stop
 950              	.LVL95:
 951              		.loc 1 153 0
 952 0006 0448     		ldr	r0, .L48
 953 0008 FFF7FEFF 		bl	icm20948_stop
 954              	.LVL96:
 955              		.loc 1 154 0
 956 000c 0348     		ldr	r0, .L48+4
 957              		.loc 1 155 0
 958 000e BDE80840 		pop	{r3, lr}
 959              		.cfi_restore 14
 960              		.cfi_restore 3
 961              		.cfi_def_cfa_offset 0
 962              		.loc 1 154 0
 963 0012 FFF7FEBF 		b	bmi160_wrapper_stop
 964              	.LVL97:
 965              	.L49:
 966 0016 00BF     		.align	2
 967              	.L48:
 968 0018 00000000 		.word	.LANCHOR10
 969 001c 00000000 		.word	.LANCHOR11
ARM GAS  C:\Users\CFAR\AppData\Local\Temp\cc7s8z6R.s 			page 18


 970              		.cfi_endproc
 971              	.LFE261:
 972              		.size	imu_stop, .-imu_stop
 973              		.section	.text.imu_init_mpu9x50,"ax",%progbits
 974              		.align	1
 975              		.p2align 4,,15
 976              		.global	imu_init_mpu9x50
 977              		.syntax unified
 978              		.thumb
 979              		.thumb_func
 980              		.fpu fpv4-sp-d16
 981              		.type	imu_init_mpu9x50, %function
 982              	imu_init_mpu9x50:
 983              	.LFB258:
 984              		.loc 1 107 0
 985              		.cfi_startproc
 986              		@ args = 0, pretend = 0, frame = 0
 987              		@ frame_needed = 0, uses_anonymous_args = 0
 988              	.LVL98:
 989 0000 2DE9F041 		push	{r4, r5, r6, r7, r8, lr}
 990              		.cfi_def_cfa_offset 24
 991              		.cfi_offset 4, -24
 992              		.cfi_offset 5, -20
 993              		.cfi_offset 6, -16
 994              		.cfi_offset 7, -12
 995              		.cfi_offset 8, -8
 996              		.cfi_offset 14, -4
 997 0004 82B0     		sub	sp, sp, #8
 998              		.cfi_def_cfa_offset 32
 999              		.loc 1 107 0
 1000 0006 9846     		mov	r8, r3
 1001 0008 0546     		mov	r5, r0
 1002 000a 0E46     		mov	r6, r1
 1003 000c 1746     		mov	r7, r2
 1004              		.loc 1 110 0
 1005 000e 094C     		ldr	r4, .L52
 1006              		.loc 1 108 0
 1007 0010 FFF7FEFF 		bl	imu_stop
 1008              	.LVL99:
 1009              		.loc 1 110 0
 1010 0014 40F69813 		movw	r3, #2456
 1011 0018 0193     		str	r3, [sp, #4]
 1012 001a 2846     		mov	r0, r5
 1013 001c 4346     		mov	r3, r8
 1014 001e 3A46     		mov	r2, r7
 1015 0020 3146     		mov	r1, r6
 1016 0022 0094     		str	r4, [sp]
 1017 0024 FFF7FEFF 		bl	mpu9150_init
 1018              	.LVL100:
 1019              		.loc 1 113 0
 1020 0028 0348     		ldr	r0, .L52+4
 1021              		.loc 1 114 0
 1022 002a 02B0     		add	sp, sp, #8
 1023              		.cfi_def_cfa_offset 24
 1024              		@ sp needed
 1025 002c BDE8F041 		pop	{r4, r5, r6, r7, r8, lr}
 1026              		.cfi_restore 14
ARM GAS  C:\Users\CFAR\AppData\Local\Temp\cc7s8z6R.s 			page 19


 1027              		.cfi_restore 8
 1028              		.cfi_restore 7
 1029              		.cfi_restore 6
 1030              		.cfi_restore 5
 1031              		.cfi_restore 4
 1032              		.cfi_def_cfa_offset 0
 1033              	.LVL101:
 1034              		.loc 1 113 0
 1035 0030 FFF7FEBF 		b	mpu9150_set_read_callback
 1036              	.LVL102:
 1037              	.L53:
 1038              		.align	2
 1039              	.L52:
 1040 0034 00000000 		.word	.LANCHOR12
 1041 0038 00000000 		.word	imu_read_callback
 1042              		.cfi_endproc
 1043              	.LFE258:
 1044              		.size	imu_init_mpu9x50, .-imu_init_mpu9x50
 1045              		.section	.text.imu_init_icm20948,"ax",%progbits
 1046              		.align	1
 1047              		.p2align 4,,15
 1048              		.global	imu_init_icm20948
 1049              		.syntax unified
 1050              		.thumb
 1051              		.thumb_func
 1052              		.fpu fpv4-sp-d16
 1053              		.type	imu_init_icm20948, %function
 1054              	imu_init_icm20948:
 1055              	.LFB259:
 1056              		.loc 1 117 0
 1057              		.cfi_startproc
 1058              		@ args = 4, pretend = 0, frame = 0
 1059              		@ frame_needed = 0, uses_anonymous_args = 0
 1060              	.LVL103:
 1061 0000 2DE9F047 		push	{r4, r5, r6, r7, r8, r9, r10, lr}
 1062              		.cfi_def_cfa_offset 32
 1063              		.cfi_offset 4, -32
 1064              		.cfi_offset 5, -28
 1065              		.cfi_offset 6, -24
 1066              		.cfi_offset 7, -20
 1067              		.cfi_offset 8, -16
 1068              		.cfi_offset 9, -12
 1069              		.cfi_offset 10, -8
 1070              		.cfi_offset 14, -4
 1071              		.loc 1 120 0
 1072 0004 104C     		ldr	r4, .L56
 1073              		.loc 1 126 0
 1074 0006 114D     		ldr	r5, .L56+4
 1075              		.loc 1 117 0
 1076 0008 82B0     		sub	sp, sp, #8
 1077              		.cfi_def_cfa_offset 40
 1078              		.loc 1 117 0
 1079 000a 8946     		mov	r9, r1
 1080 000c 9046     		mov	r8, r2
 1081 000e 1F46     		mov	r7, r3
 1082 0010 8246     		mov	r10, r0
 1083 0012 0A9E     		ldr	r6, [sp, #40]
ARM GAS  C:\Users\CFAR\AppData\Local\Temp\cc7s8z6R.s 			page 20


 1084              		.loc 1 118 0
 1085 0014 FFF7FEFF 		bl	imu_stop
 1086              	.LVL104:
 1087              		.loc 1 124 0
 1088 0018 2046     		mov	r0, r4
 1089              		.loc 1 120 0
 1090 001a C4F800A0 		str	r10, [r4]
 1091              		.loc 1 122 0
 1092 001e C4E90198 		strd	r9, r8, [r4, #4]
 1093              		.loc 1 123 0
 1094 0022 E760     		str	r7, [r4, #12]
 1095              		.loc 1 124 0
 1096 0024 FFF7FEFF 		bl	i2c_bb_init
 1097              	.LVL105:
 1098              		.loc 1 126 0
 1099 0028 40F69813 		movw	r3, #2456
 1100 002c 2146     		mov	r1, r4
 1101 002e 2846     		mov	r0, r5
 1102 0030 0093     		str	r3, [sp]
 1103 0032 3246     		mov	r2, r6
 1104 0034 064B     		ldr	r3, .L56+8
 1105 0036 FFF7FEFF 		bl	icm20948_init
 1106              	.LVL106:
 1107              		.loc 1 129 0
 1108 003a 0649     		ldr	r1, .L56+12
 1109 003c 2846     		mov	r0, r5
 1110              		.loc 1 130 0
 1111 003e 02B0     		add	sp, sp, #8
 1112              		.cfi_def_cfa_offset 32
 1113              		@ sp needed
 1114 0040 BDE8F047 		pop	{r4, r5, r6, r7, r8, r9, r10, lr}
 1115              		.cfi_restore 14
 1116              		.cfi_restore 10
 1117              		.cfi_restore 9
 1118              		.cfi_restore 8
 1119              		.cfi_restore 7
 1120              		.cfi_restore 6
 1121              		.cfi_restore 5
 1122              		.cfi_restore 4
 1123              		.cfi_def_cfa_offset 0
 1124              	.LVL107:
 1125              		.loc 1 129 0
 1126 0044 FFF7FEBF 		b	icm20948_set_read_callback
 1127              	.LVL108:
 1128              	.L57:
 1129              		.align	2
 1130              	.L56:
 1131 0048 00000000 		.word	.LANCHOR9
 1132 004c 00000000 		.word	.LANCHOR10
 1133 0050 00000000 		.word	.LANCHOR12
 1134 0054 00000000 		.word	imu_read_callback
 1135              		.cfi_endproc
 1136              	.LFE259:
 1137              		.size	imu_init_icm20948, .-imu_init_icm20948
 1138              		.section	.text.imu_init_bmi160,"ax",%progbits
 1139              		.align	1
 1140              		.p2align 4,,15
ARM GAS  C:\Users\CFAR\AppData\Local\Temp\cc7s8z6R.s 			page 21


 1141              		.global	imu_init_bmi160
 1142              		.syntax unified
 1143              		.thumb
 1144              		.thumb_func
 1145              		.fpu fpv4-sp-d16
 1146              		.type	imu_init_bmi160, %function
 1147              	imu_init_bmi160:
 1148              	.LFB260:
 1149              		.loc 1 133 0
 1150              		.cfi_startproc
 1151              		@ args = 0, pretend = 0, frame = 0
 1152              		@ frame_needed = 0, uses_anonymous_args = 0
 1153              	.LVL109:
 1154 0000 2DE9F843 		push	{r3, r4, r5, r6, r7, r8, r9, lr}
 1155              		.cfi_def_cfa_offset 32
 1156              		.cfi_offset 3, -32
 1157              		.cfi_offset 4, -28
 1158              		.cfi_offset 5, -24
 1159              		.cfi_offset 6, -20
 1160              		.cfi_offset 7, -16
 1161              		.cfi_offset 8, -12
 1162              		.cfi_offset 9, -8
 1163              		.cfi_offset 14, -4
 1164              		.loc 1 136 0
 1165 0004 114D     		ldr	r5, .L60
 1166              		.loc 1 142 0
 1167 0006 124C     		ldr	r4, .L60+4
 1168              		.loc 1 133 0
 1169 0008 8846     		mov	r8, r1
 1170 000a 1746     		mov	r7, r2
 1171 000c 1E46     		mov	r6, r3
 1172 000e 8146     		mov	r9, r0
 1173              		.loc 1 134 0
 1174 0010 FFF7FEFF 		bl	imu_stop
 1175              	.LVL110:
 1176              		.loc 1 140 0
 1177 0014 2846     		mov	r0, r5
 1178              		.loc 1 136 0
 1179 0016 C5F80090 		str	r9, [r5]
 1180              		.loc 1 138 0
 1181 001a C5E90187 		strd	r8, r7, [r5, #4]
 1182              		.loc 1 139 0
 1183 001e EE60     		str	r6, [r5, #12]
 1184              		.loc 1 140 0
 1185 0020 FFF7FEFF 		bl	i2c_bb_init
 1186              	.LVL111:
 1187              		.loc 1 144 0
 1188 0024 0B4D     		ldr	r5, .L60+8
 1189              		.loc 1 145 0
 1190 0026 0C4B     		ldr	r3, .L60+12
 1191              		.loc 1 147 0
 1192 0028 0C49     		ldr	r1, .L60+16
 1193              		.loc 1 142 0
 1194 002a 6820     		movs	r0, #104
 1195              		.loc 1 143 0
 1196 002c 0022     		movs	r2, #0
 1197              		.loc 1 142 0
ARM GAS  C:\Users\CFAR\AppData\Local\Temp\cc7s8z6R.s 			page 22


 1198 002e 6071     		strb	r0, [r4, #5]
 1199              		.loc 1 143 0
 1200 0030 A271     		strb	r2, [r4, #6]
 1201              		.loc 1 147 0
 1202 0032 2046     		mov	r0, r4
 1203 0034 40F69812 		movw	r2, #2456
 1204              		.loc 1 145 0
 1205 0038 C4E90853 		strd	r5, r3, [r4, #32]
 1206              		.loc 1 147 0
 1207 003c FFF7FEFF 		bl	bmi160_wrapper_init
 1208              	.LVL112:
 1209              		.loc 1 148 0
 1210 0040 2046     		mov	r0, r4
 1211 0042 0749     		ldr	r1, .L60+20
 1212              		.loc 1 149 0
 1213 0044 BDE8F843 		pop	{r3, r4, r5, r6, r7, r8, r9, lr}
 1214              		.cfi_restore 14
 1215              		.cfi_restore 9
 1216              		.cfi_restore 8
 1217              		.cfi_restore 7
 1218              		.cfi_restore 6
 1219              		.cfi_restore 5
 1220              		.cfi_restore 4
 1221              		.cfi_restore 3
 1222              		.cfi_def_cfa_offset 0
 1223              	.LVL113:
 1224              		.loc 1 148 0
 1225 0048 FFF7FEBF 		b	bmi160_wrapper_set_read_callback
 1226              	.LVL114:
 1227              	.L61:
 1228              		.align	2
 1229              	.L60:
 1230 004c 00000000 		.word	.LANCHOR9
 1231 0050 00000000 		.word	.LANCHOR11
 1232 0054 00000000 		.word	user_i2c_read
 1233 0058 00000000 		.word	user_i2c_write
 1234 005c 00000000 		.word	.LANCHOR12
 1235 0060 00000000 		.word	imu_read_callback
 1236              		.cfi_endproc
 1237              	.LFE260:
 1238              		.size	imu_init_bmi160, .-imu_init_bmi160
 1239              		.section	.text.imu_init,"ax",%progbits
 1240              		.align	1
 1241              		.p2align 4,,15
 1242              		.global	imu_init
 1243              		.syntax unified
 1244              		.thumb
 1245              		.thumb_func
 1246              		.fpu fpv4-sp-d16
 1247              		.type	imu_init, %function
 1248              	imu_init:
 1249              	.LFB256:
 1250              		.loc 1 53 0
 1251              		.cfi_startproc
 1252              		@ args = 0, pretend = 0, frame = 0
 1253              		@ frame_needed = 0, uses_anonymous_args = 0
 1254              	.LVL115:
ARM GAS  C:\Users\CFAR\AppData\Local\Temp\cc7s8z6R.s 			page 23


 1255 0000 30B5     		push	{r4, r5, lr}
 1256              		.cfi_def_cfa_offset 12
 1257              		.cfi_offset 4, -12
 1258              		.cfi_offset 5, -8
 1259              		.cfi_offset 14, -4
 1260              		.loc 1 54 0
 1261 0002 0146     		mov	r1, r0
 1262              		.loc 1 53 0
 1263 0004 83B0     		sub	sp, sp, #12
 1264              		.cfi_def_cfa_offset 24
 1265              		.loc 1 53 0
 1266 0006 0546     		mov	r5, r0
 1267              		.loc 1 54 0
 1268 0008 4C22     		movs	r2, #76
 1269 000a 2648     		ldr	r0, .L73
 1270              	.LVL116:
 1271 000c FFF7FEFF 		bl	memcpy
 1272              	.LVL117:
 1273              		.loc 1 55 0
 1274 0010 254B     		ldr	r3, .L73+4
 1275 0012 0024     		movs	r4, #0
 1276 0014 C3E90044 		strd	r4, r4, [r3]
 1277 0018 9C60     		str	r4, [r3, #8]
 1278              		.loc 1 57 0
 1279 001a FFF7FEFF 		bl	imu_stop
 1280              	.LVL118:
 1281              	.LBB22:
 1282              	.LBB23:
 1283              		.loc 2 231 0
 1284 001e 234A     		ldr	r2, .L73+8
 1285              	.LBE23:
 1286              	.LBE22:
 1287              		.loc 1 59 0
 1288 0020 2349     		ldr	r1, .L73+12
 1289              		.loc 1 60 0
 1290 0022 244B     		ldr	r3, .L73+16
 1291              	.LBB25:
 1292              	.LBB24:
 1293              		.loc 2 231 0
 1294 0024 926A     		ldr	r2, [r2, #40]
 1295              	.LBE24:
 1296              	.LBE25:
 1297              		.loc 1 61 0
 1298 0026 9FED241A 		vldr.32	s2, .L73+20
 1299              		.loc 1 60 0
 1300 002a 1A60     		str	r2, [r3]
 1301              		.loc 1 61 0
 1302 002c F0EE001A 		vmov.f32	s3, #2.0e+0
 1303 0030 F2EE040A 		vmov.f32	s1, #1.0e+1
 1304 0034 B7EE000A 		vmov.f32	s0, #1.0e+0
 1305              		.loc 1 59 0
 1306 0038 0C70     		strb	r4, [r1]
 1307              		.loc 1 61 0
 1308 003a FFF7FEFF 		bl	ahrs_update_all_parameters
 1309              	.LVL119:
 1310              		.loc 1 63 0
 1311 003e 1F48     		ldr	r0, .L73+24
ARM GAS  C:\Users\CFAR\AppData\Local\Temp\cc7s8z6R.s 			page 24


 1312 0040 FFF7FEFF 		bl	ahrs_init_attitude_info
 1313              	.LVL120:
 1314              		.loc 1 65 0
 1315 0044 6868     		ldr	r0, [r5, #4]
 1316 0046 FFF7FEFF 		bl	mpu9150_set_rate_hz
 1317              	.LVL121:
 1318              		.loc 1 69 0
 1319 004a 2B78     		ldrb	r3, [r5]	@ zero_extendqisi2
 1320              		.loc 1 66 0
 1321 004c 1C48     		ldr	r0, .L73+28
 1322              		.loc 1 67 0
 1323 004e 1D49     		ldr	r1, .L73+32
 1324              		.loc 1 66 0
 1325 0050 6A68     		ldr	r2, [r5, #4]
 1326 0052 0261     		str	r2, [r0, #16]
 1327              		.loc 1 69 0
 1328 0054 012B     		cmp	r3, #1
 1329              		.loc 1 67 0
 1330 0056 0A63     		str	r2, [r1, #48]
 1331              		.loc 1 69 0
 1332 0058 05D0     		beq	.L63
 1333              		.loc 1 84 0
 1334 005a 022B     		cmp	r3, #2
 1335 005c 1BD0     		beq	.L70
 1336              		.loc 1 87 0
 1337 005e 032B     		cmp	r3, #3
 1338 0060 11D0     		beq	.L71
 1339              		.loc 1 90 0
 1340 0062 042B     		cmp	r3, #4
 1341 0064 08D0     		beq	.L72
 1342              	.L63:
 1343              		.loc 1 95 0
 1344 0066 184B     		ldr	r3, .L73+36
 1345 0068 1849     		ldr	r1, .L73+40
 1346 006a 1948     		ldr	r0, .L73+44
 1347 006c 0022     		movs	r2, #0
 1348              		.loc 1 100 0
 1349 006e 03B0     		add	sp, sp, #12
 1350              		.cfi_remember_state
 1351              		.cfi_def_cfa_offset 12
 1352              		@ sp needed
 1353 0070 BDE83040 		pop	{r4, r5, lr}
 1354              		.cfi_restore 14
 1355              		.cfi_restore 5
 1356              		.cfi_restore 4
 1357              		.cfi_def_cfa_offset 0
 1358              	.LVL122:
 1359              		.loc 1 95 0
 1360 0074 FFF7FEBF 		b	terminal_register_command_callback
 1361              	.LVL123:
 1362              	.L72:
 1363              		.cfi_restore_state
 1364              		.loc 1 91 0
 1365 0078 164A     		ldr	r2, .L73+48
 1366 007a 0A23     		movs	r3, #10
 1367 007c 1046     		mov	r0, r2
 1368 007e 0B21     		movs	r1, #11
ARM GAS  C:\Users\CFAR\AppData\Local\Temp\cc7s8z6R.s 			page 25


 1369 0080 FFF7FEFF 		bl	imu_init_bmi160
 1370              	.LVL124:
 1371 0084 EFE7     		b	.L63
 1372              	.L71:
 1373              		.loc 1 88 0
 1374 0086 134A     		ldr	r2, .L73+48
 1375 0088 0094     		str	r4, [sp]
 1376 008a 1046     		mov	r0, r2
 1377 008c 0A23     		movs	r3, #10
 1378 008e 0B21     		movs	r1, #11
 1379 0090 FFF7FEFF 		bl	imu_init_icm20948
 1380              	.LVL125:
 1381 0094 E7E7     		b	.L63
 1382              	.L70:
 1383              		.loc 1 85 0
 1384 0096 0F4A     		ldr	r2, .L73+48
 1385 0098 0A23     		movs	r3, #10
 1386 009a 1046     		mov	r0, r2
 1387 009c 0B21     		movs	r1, #11
 1388 009e FFF7FEFF 		bl	imu_init_mpu9x50
 1389              	.LVL126:
 1390 00a2 E0E7     		b	.L63
 1391              	.L74:
 1392              		.align	2
 1393              	.L73:
 1394 00a4 00000000 		.word	.LANCHOR0
 1395 00a8 00000000 		.word	.LANCHOR1
 1396 00ac 00000000 		.word	ch
 1397 00b0 00000000 		.word	.LANCHOR3
 1398 00b4 00000000 		.word	.LANCHOR4
 1399 00b8 00000000 		.word	0
 1400 00bc 00000000 		.word	.LANCHOR8
 1401 00c0 00000000 		.word	.LANCHOR10
 1402 00c4 00000000 		.word	.LANCHOR11
 1403 00c8 00000000 		.word	terminal_gyro_info
 1404 00cc 00000000 		.word	.LC1
 1405 00d0 14000000 		.word	.LC2
 1406 00d4 00040240 		.word	1073873920
 1407              		.cfi_endproc
 1408              	.LFE256:
 1409              		.size	imu_init, .-imu_init
 1410              		.section	.text.imu_startup_done,"ax",%progbits
 1411              		.align	1
 1412              		.p2align 4,,15
 1413              		.global	imu_startup_done
 1414              		.syntax unified
 1415              		.thumb
 1416              		.thumb_func
 1417              		.fpu fpv4-sp-d16
 1418              		.type	imu_startup_done, %function
 1419              	imu_startup_done:
 1420              	.LFB262:
 1421              		.loc 1 157 0
 1422              		.cfi_startproc
 1423              		@ args = 0, pretend = 0, frame = 0
 1424              		@ frame_needed = 0, uses_anonymous_args = 0
 1425              		@ link register save eliminated.
ARM GAS  C:\Users\CFAR\AppData\Local\Temp\cc7s8z6R.s 			page 26


 1426              		.loc 1 158 0
 1427 0000 014B     		ldr	r3, .L76
 1428              		.loc 1 159 0
 1429 0002 1878     		ldrb	r0, [r3]	@ zero_extendqisi2
 1430 0004 7047     		bx	lr
 1431              	.L77:
 1432 0006 00BF     		.align	2
 1433              	.L76:
 1434 0008 00000000 		.word	.LANCHOR3
 1435              		.cfi_endproc
 1436              	.LFE262:
 1437              		.size	imu_startup_done, .-imu_startup_done
 1438              		.section	.text.imu_get_roll,"ax",%progbits
 1439              		.align	1
 1440              		.p2align 4,,15
 1441              		.global	imu_get_roll
 1442              		.syntax unified
 1443              		.thumb
 1444              		.thumb_func
 1445              		.fpu fpv4-sp-d16
 1446              		.type	imu_get_roll, %function
 1447              	imu_get_roll:
 1448              	.LFB263:
 1449              		.loc 1 161 0
 1450              		.cfi_startproc
 1451              		@ args = 0, pretend = 0, frame = 0
 1452              		@ frame_needed = 0, uses_anonymous_args = 0
 1453              		@ link register save eliminated.
 1454              		.loc 1 162 0
 1455 0000 0148     		ldr	r0, .L79
 1456 0002 FFF7FEBF 		b	ahrs_get_roll
 1457              	.LVL127:
 1458              	.L80:
 1459 0006 00BF     		.align	2
 1460              	.L79:
 1461 0008 00000000 		.word	.LANCHOR8
 1462              		.cfi_endproc
 1463              	.LFE263:
 1464              		.size	imu_get_roll, .-imu_get_roll
 1465              		.section	.text.imu_get_pitch,"ax",%progbits
 1466              		.align	1
 1467              		.p2align 4,,15
 1468              		.global	imu_get_pitch
 1469              		.syntax unified
 1470              		.thumb
 1471              		.thumb_func
 1472              		.fpu fpv4-sp-d16
 1473              		.type	imu_get_pitch, %function
 1474              	imu_get_pitch:
 1475              	.LFB264:
 1476              		.loc 1 165 0
 1477              		.cfi_startproc
 1478              		@ args = 0, pretend = 0, frame = 0
 1479              		@ frame_needed = 0, uses_anonymous_args = 0
 1480              		@ link register save eliminated.
 1481              		.loc 1 166 0
 1482 0000 0148     		ldr	r0, .L82
ARM GAS  C:\Users\CFAR\AppData\Local\Temp\cc7s8z6R.s 			page 27


 1483 0002 FFF7FEBF 		b	ahrs_get_pitch
 1484              	.LVL128:
 1485              	.L83:
 1486 0006 00BF     		.align	2
 1487              	.L82:
 1488 0008 00000000 		.word	.LANCHOR8
 1489              		.cfi_endproc
 1490              	.LFE264:
 1491              		.size	imu_get_pitch, .-imu_get_pitch
 1492              		.section	.text.imu_get_yaw,"ax",%progbits
 1493              		.align	1
 1494              		.p2align 4,,15
 1495              		.global	imu_get_yaw
 1496              		.syntax unified
 1497              		.thumb
 1498              		.thumb_func
 1499              		.fpu fpv4-sp-d16
 1500              		.type	imu_get_yaw, %function
 1501              	imu_get_yaw:
 1502              	.LFB265:
 1503              		.loc 1 169 0
 1504              		.cfi_startproc
 1505              		@ args = 0, pretend = 0, frame = 0
 1506              		@ frame_needed = 0, uses_anonymous_args = 0
 1507              		@ link register save eliminated.
 1508              		.loc 1 170 0
 1509 0000 0148     		ldr	r0, .L85
 1510 0002 FFF7FEBF 		b	ahrs_get_yaw
 1511              	.LVL129:
 1512              	.L86:
 1513 0006 00BF     		.align	2
 1514              	.L85:
 1515 0008 00000000 		.word	.LANCHOR8
 1516              		.cfi_endproc
 1517              	.LFE265:
 1518              		.size	imu_get_yaw, .-imu_get_yaw
 1519              		.section	.text.imu_get_rpy,"ax",%progbits
 1520              		.align	1
 1521              		.p2align 4,,15
 1522              		.global	imu_get_rpy
 1523              		.syntax unified
 1524              		.thumb
 1525              		.thumb_func
 1526              		.fpu fpv4-sp-d16
 1527              		.type	imu_get_rpy, %function
 1528              	imu_get_rpy:
 1529              	.LFB266:
 1530              		.loc 1 173 0
 1531              		.cfi_startproc
 1532              		@ args = 0, pretend = 0, frame = 0
 1533              		@ frame_needed = 0, uses_anonymous_args = 0
 1534              		@ link register save eliminated.
 1535              	.LVL130:
 1536              		.loc 1 174 0
 1537 0000 0149     		ldr	r1, .L88
 1538 0002 FFF7FEBF 		b	ahrs_get_roll_pitch_yaw
 1539              	.LVL131:
ARM GAS  C:\Users\CFAR\AppData\Local\Temp\cc7s8z6R.s 			page 28


 1540              	.L89:
 1541 0006 00BF     		.align	2
 1542              	.L88:
 1543 0008 00000000 		.word	.LANCHOR8
 1544              		.cfi_endproc
 1545              	.LFE266:
 1546              		.size	imu_get_rpy, .-imu_get_rpy
 1547              		.section	.text.imu_get_accel,"ax",%progbits
 1548              		.align	1
 1549              		.p2align 4,,15
 1550              		.global	imu_get_accel
 1551              		.syntax unified
 1552              		.thumb
 1553              		.thumb_func
 1554              		.fpu fpv4-sp-d16
 1555              		.type	imu_get_accel, %function
 1556              	imu_get_accel:
 1557              	.LFB267:
 1558              		.loc 1 177 0
 1559              		.cfi_startproc
 1560              		@ args = 0, pretend = 0, frame = 0
 1561              		@ frame_needed = 0, uses_anonymous_args = 0
 1562              		@ link register save eliminated.
 1563              	.LVL132:
 1564 0000 10B4     		push	{r4}
 1565              		.cfi_def_cfa_offset 4
 1566              		.cfi_offset 4, -4
 1567              		.loc 1 178 0
 1568 0002 044B     		ldr	r3, .L92
 1569              		.loc 1 177 0
 1570 0004 0446     		mov	r4, r0
 1571              		.loc 1 178 0
 1572 0006 07CB     		ldmia	r3!, {r0, r1, r2}
 1573              	.LVL133:
 1574 0008 2060     		str	r0, [r4]	@ unaligned
 1575 000a 6160     		str	r1, [r4, #4]	@ unaligned
 1576 000c A260     		str	r2, [r4, #8]	@ unaligned
 1577              		.loc 1 179 0
 1578 000e 5DF8044B 		ldr	r4, [sp], #4
 1579              		.cfi_restore 4
 1580              		.cfi_def_cfa_offset 0
 1581              	.LVL134:
 1582 0012 7047     		bx	lr
 1583              	.L93:
 1584              		.align	2
 1585              	.L92:
 1586 0014 00000000 		.word	.LANCHOR5
 1587              		.cfi_endproc
 1588              	.LFE267:
 1589              		.size	imu_get_accel, .-imu_get_accel
 1590              		.section	.text.imu_get_gyro,"ax",%progbits
 1591              		.align	1
 1592              		.p2align 4,,15
 1593              		.global	imu_get_gyro
 1594              		.syntax unified
 1595              		.thumb
 1596              		.thumb_func
ARM GAS  C:\Users\CFAR\AppData\Local\Temp\cc7s8z6R.s 			page 29


 1597              		.fpu fpv4-sp-d16
 1598              		.type	imu_get_gyro, %function
 1599              	imu_get_gyro:
 1600              	.LFB268:
 1601              		.loc 1 181 0
 1602              		.cfi_startproc
 1603              		@ args = 0, pretend = 0, frame = 0
 1604              		@ frame_needed = 0, uses_anonymous_args = 0
 1605              		@ link register save eliminated.
 1606              	.LVL135:
 1607 0000 10B4     		push	{r4}
 1608              		.cfi_def_cfa_offset 4
 1609              		.cfi_offset 4, -4
 1610              		.loc 1 182 0
 1611 0002 044B     		ldr	r3, .L96
 1612              		.loc 1 181 0
 1613 0004 0446     		mov	r4, r0
 1614              		.loc 1 182 0
 1615 0006 07CB     		ldmia	r3!, {r0, r1, r2}
 1616              	.LVL136:
 1617 0008 2060     		str	r0, [r4]	@ unaligned
 1618 000a 6160     		str	r1, [r4, #4]	@ unaligned
 1619 000c A260     		str	r2, [r4, #8]	@ unaligned
 1620              		.loc 1 183 0
 1621 000e 5DF8044B 		ldr	r4, [sp], #4
 1622              		.cfi_restore 4
 1623              		.cfi_def_cfa_offset 0
 1624              	.LVL137:
 1625 0012 7047     		bx	lr
 1626              	.L97:
 1627              		.align	2
 1628              	.L96:
 1629 0014 00000000 		.word	.LANCHOR6
 1630              		.cfi_endproc
 1631              	.LFE268:
 1632              		.size	imu_get_gyro, .-imu_get_gyro
 1633              		.section	.text.imu_get_mag,"ax",%progbits
 1634              		.align	1
 1635              		.p2align 4,,15
 1636              		.global	imu_get_mag
 1637              		.syntax unified
 1638              		.thumb
 1639              		.thumb_func
 1640              		.fpu fpv4-sp-d16
 1641              		.type	imu_get_mag, %function
 1642              	imu_get_mag:
 1643              	.LFB269:
 1644              		.loc 1 185 0
 1645              		.cfi_startproc
 1646              		@ args = 0, pretend = 0, frame = 0
 1647              		@ frame_needed = 0, uses_anonymous_args = 0
 1648              		@ link register save eliminated.
 1649              	.LVL138:
 1650 0000 10B4     		push	{r4}
 1651              		.cfi_def_cfa_offset 4
 1652              		.cfi_offset 4, -4
 1653              		.loc 1 186 0
ARM GAS  C:\Users\CFAR\AppData\Local\Temp\cc7s8z6R.s 			page 30


 1654 0002 044B     		ldr	r3, .L100
 1655              		.loc 1 185 0
 1656 0004 0446     		mov	r4, r0
 1657              		.loc 1 186 0
 1658 0006 07CB     		ldmia	r3!, {r0, r1, r2}
 1659              	.LVL139:
 1660 0008 2060     		str	r0, [r4]	@ unaligned
 1661 000a 6160     		str	r1, [r4, #4]	@ unaligned
 1662 000c A260     		str	r2, [r4, #8]	@ unaligned
 1663              		.loc 1 187 0
 1664 000e 5DF8044B 		ldr	r4, [sp], #4
 1665              		.cfi_restore 4
 1666              		.cfi_def_cfa_offset 0
 1667              	.LVL140:
 1668 0012 7047     		bx	lr
 1669              	.L101:
 1670              		.align	2
 1671              	.L100:
 1672 0014 00000000 		.word	.LANCHOR7
 1673              		.cfi_endproc
 1674              	.LFE269:
 1675              		.size	imu_get_mag, .-imu_get_mag
 1676              		.section	.text.imu_get_accel_derotated,"ax",%progbits
 1677              		.align	1
 1678              		.p2align 4,,15
 1679              		.global	imu_get_accel_derotated
 1680              		.syntax unified
 1681              		.thumb
 1682              		.thumb_func
 1683              		.fpu fpv4-sp-d16
 1684              		.type	imu_get_accel_derotated, %function
 1685              	imu_get_accel_derotated:
 1686              	.LFB270:
 1687              		.loc 1 189 0
 1688              		.cfi_startproc
 1689              		@ args = 0, pretend = 0, frame = 16
 1690              		@ frame_needed = 0, uses_anonymous_args = 0
 1691              	.LVL141:
 1692 0000 10B5     		push	{r4, lr}
 1693              		.cfi_def_cfa_offset 8
 1694              		.cfi_offset 4, -8
 1695              		.cfi_offset 14, -4
 1696 0002 2DED0A8B 		vpush.64	{d8, d9, d10, d11, d12}
 1697              		.cfi_def_cfa_offset 48
 1698              		.cfi_offset 80, -48
 1699              		.cfi_offset 81, -44
 1700              		.cfi_offset 82, -40
 1701              		.cfi_offset 83, -36
 1702              		.cfi_offset 84, -32
 1703              		.cfi_offset 85, -28
 1704              		.cfi_offset 86, -24
 1705              		.cfi_offset 87, -20
 1706              		.cfi_offset 88, -16
 1707              		.cfi_offset 89, -12
 1708 0006 84B0     		sub	sp, sp, #16
 1709              		.cfi_def_cfa_offset 64
 1710              	.LVL142:
ARM GAS  C:\Users\CFAR\AppData\Local\Temp\cc7s8z6R.s 			page 31


 1711              	.LBB26:
 1712              	.LBB27:
 1713              		.loc 1 174 0
 1714 0008 2E49     		ldr	r1, .L104
 1715              	.LBE27:
 1716              	.LBE26:
 1717              		.loc 1 189 0
 1718 000a 0446     		mov	r4, r0
 1719              	.LBB29:
 1720              	.LBB28:
 1721              		.loc 1 174 0
 1722 000c 01A8     		add	r0, sp, #4
 1723              	.LVL143:
 1724 000e FFF7FEFF 		bl	ahrs_get_roll_pitch_yaw
 1725              	.LVL144:
 1726              	.LBE28:
 1727              	.LBE29:
 1728              		.loc 1 197 0
 1729 0012 DDED018A 		vldr.32	s17, [sp, #4]
 1730              		.loc 1 193 0
 1731 0016 2C4B     		ldr	r3, .L104+4
 1732              		.loc 1 197 0
 1733 0018 B0EE680A 		vmov.f32	s0, s17
 1734              		.loc 1 194 0
 1735 001c D3ED01AA 		vldr.32	s21, [r3, #4]
 1736              		.loc 1 195 0
 1737 0020 93ED028A 		vldr.32	s16, [r3, #8]
 1738              		.loc 1 193 0
 1739 0024 D3ED00BA 		vldr.32	s23, [r3]
 1740              	.LVL145:
 1741              		.loc 1 197 0
 1742 0028 FFF7FEFF 		bl	sinf
 1743              	.LVL146:
 1744 002c B0EE40AA 		vmov.f32	s20, s0
 1745              	.LVL147:
 1746              		.loc 1 198 0
 1747 0030 B0EE680A 		vmov.f32	s0, s17
 1748              	.LVL148:
 1749 0034 FFF7FEFF 		bl	cosf
 1750              	.LVL149:
 1751              		.loc 1 199 0
 1752 0038 9DED029A 		vldr.32	s18, [sp, #8]
 1753              		.loc 1 198 0
 1754 003c F1EE408A 		vneg.f32	s17, s0
 1755              	.LVL150:
 1756              		.loc 1 199 0
 1757 0040 B0EE490A 		vmov.f32	s0, s18
 1758 0044 FFF7FEFF 		bl	sinf
 1759              	.LVL151:
 1760 0048 F0EE409A 		vmov.f32	s19, s0
 1761              	.LVL152:
 1762              		.loc 1 200 0
 1763 004c B0EE490A 		vmov.f32	s0, s18
 1764              	.LVL153:
 1765 0050 FFF7FEFF 		bl	cosf
 1766              	.LVL154:
 1767              		.loc 1 201 0
ARM GAS  C:\Users\CFAR\AppData\Local\Temp\cc7s8z6R.s 			page 32


 1768 0054 9DED03CA 		vldr.32	s24, [sp, #12]
 1769              		.loc 1 200 0
 1770 0058 B1EE409A 		vneg.f32	s18, s0
 1771              	.LVL155:
 1772              		.loc 1 201 0
 1773 005c B0EE4C0A 		vmov.f32	s0, s24
 1774 0060 FFF7FEFF 		bl	sinf
 1775              	.LVL156:
 1776 0064 B0EE40BA 		vmov.f32	s22, s0
 1777              	.LVL157:
 1778              		.loc 1 202 0
 1779 0068 B0EE4C0A 		vmov.f32	s0, s24
 1780              	.LVL158:
 1781 006c FFF7FEFF 		bl	cosf
 1782              	.LVL159:
 1783              		.loc 1 204 0
 1784 0070 2AEEA97A 		vmul.f32	s14, s21, s19
 1785              		.loc 1 205 0
 1786 0074 6AEE487A 		vnmul.f32	s15, s20, s16
 1787              		.loc 1 204 0
 1788 0078 27EE0A7A 		vmul.f32	s14, s14, s20
 1789              		.loc 1 206 0
 1790 007c 6AEE896A 		vmul.f32	s13, s21, s18
 1791              		.loc 1 204 0
 1792 0080 ABEE897A 		vfma.f32	s14, s23, s18
 1793 0084 28EE296A 		vmul.f32	s12, s16, s19
 1794              		.loc 1 205 0
 1795 0088 EAEEA87A 		vfma.f32	s15, s21, s17
 1796              		.loc 1 206 0
 1797 008c 66EE8A6A 		vmul.f32	s13, s13, s20
 1798              		.loc 1 204 0
 1799 0090 A6EE287A 		vfma.f32	s14, s12, s17
 1800              	.LVL160:
 1801              		.loc 1 206 0
 1802 0094 EBEEE96A 		vfms.f32	s13, s23, s19
 1803              		.loc 1 207 0
 1804 0098 2BEE276A 		vmul.f32	s12, s22, s15
 1805              		.loc 1 206 0
 1806 009c 28EE098A 		vmul.f32	s16, s16, s18
 1807              	.LVL161:
 1808              		.loc 1 208 0
 1809 00a0 67EEC07A 		vnmul.f32	s15, s15, s0
 1810              	.LVL162:
 1811              		.loc 1 206 0
 1812 00a4 E8EE286A 		vfma.f32	s13, s16, s17
 1813              		.loc 1 207 0
 1814 00a8 A0EE076A 		vfma.f32	s12, s0, s14
 1815              	.LVL163:
 1816              		.loc 1 208 0
 1817 00ac EBEE077A 		vfma.f32	s15, s22, s14
 1818              	.LVL164:
 1819              		.loc 1 212 0
 1820 00b0 C4ED026A 		vstr.32	s13, [r4, #8]
 1821              		.loc 1 210 0
 1822 00b4 84ED006A 		vstr.32	s12, [r4]
 1823              		.loc 1 211 0
 1824 00b8 C4ED017A 		vstr.32	s15, [r4, #4]
ARM GAS  C:\Users\CFAR\AppData\Local\Temp\cc7s8z6R.s 			page 33


 1825              		.loc 1 213 0
 1826 00bc 04B0     		add	sp, sp, #16
 1827              		.cfi_def_cfa_offset 48
 1828              		@ sp needed
 1829 00be BDEC0A8B 		vldm	sp!, {d8-d12}
 1830              		.cfi_restore 88
 1831              		.cfi_restore 89
 1832              		.cfi_restore 86
 1833              		.cfi_restore 87
 1834              		.cfi_restore 84
 1835              		.cfi_restore 85
 1836              		.cfi_restore 82
 1837              		.cfi_restore 83
 1838              		.cfi_restore 80
 1839              		.cfi_restore 81
 1840              		.cfi_def_cfa_offset 8
 1841              	.LVL165:
 1842 00c2 10BD     		pop	{r4, pc}
 1843              	.LVL166:
 1844              	.L105:
 1845              		.align	2
 1846              	.L104:
 1847 00c4 00000000 		.word	.LANCHOR8
 1848 00c8 00000000 		.word	.LANCHOR5
 1849              		.cfi_endproc
 1850              	.LFE270:
 1851              		.size	imu_get_accel_derotated, .-imu_get_accel_derotated
 1852              		.section	.text.imu_get_quaternions,"ax",%progbits
 1853              		.align	1
 1854              		.p2align 4,,15
 1855              		.global	imu_get_quaternions
 1856              		.syntax unified
 1857              		.thumb
 1858              		.thumb_func
 1859              		.fpu fpv4-sp-d16
 1860              		.type	imu_get_quaternions, %function
 1861              	imu_get_quaternions:
 1862              	.LFB271:
 1863              		.loc 1 215 0
 1864              		.cfi_startproc
 1865              		@ args = 0, pretend = 0, frame = 0
 1866              		@ frame_needed = 0, uses_anonymous_args = 0
 1867              		@ link register save eliminated.
 1868              	.LVL167:
 1869              		.loc 1 216 0
 1870 0000 044B     		ldr	r3, .L107
 1871 0002 1A68     		ldr	r2, [r3]	@ float
 1872 0004 0260     		str	r2, [r0]	@ float
 1873              		.loc 1 217 0
 1874 0006 5A68     		ldr	r2, [r3, #4]	@ float
 1875 0008 4260     		str	r2, [r0, #4]	@ float
 1876              		.loc 1 218 0
 1877 000a 9A68     		ldr	r2, [r3, #8]	@ float
 1878 000c 8260     		str	r2, [r0, #8]	@ float
 1879              		.loc 1 219 0
 1880 000e DB68     		ldr	r3, [r3, #12]	@ float
 1881 0010 C360     		str	r3, [r0, #12]	@ float
ARM GAS  C:\Users\CFAR\AppData\Local\Temp\cc7s8z6R.s 			page 34


 1882              		.loc 1 220 0
 1883 0012 7047     		bx	lr
 1884              	.L108:
 1885              		.align	2
 1886              	.L107:
 1887 0014 00000000 		.word	.LANCHOR8
 1888              		.cfi_endproc
 1889              	.LFE271:
 1890              		.size	imu_get_quaternions, .-imu_get_quaternions
 1891              		.section	.text.imu_get_calibration,"ax",%progbits
 1892              		.align	1
 1893              		.p2align 4,,15
 1894              		.global	imu_get_calibration
 1895              		.syntax unified
 1896              		.thumb
 1897              		.thumb_func
 1898              		.fpu fpv4-sp-d16
 1899              		.type	imu_get_calibration, %function
 1900              	imu_get_calibration:
 1901              	.LFB272:
 1902              		.loc 1 222 0
 1903              		.cfi_startproc
 1904              		@ args = 0, pretend = 0, frame = 48
 1905              		@ frame_needed = 0, uses_anonymous_args = 0
 1906              	.LVL168:
 1907 0000 2DE9F04F 		push	{r4, r5, r6, r7, r8, r9, r10, fp, lr}
 1908              		.cfi_def_cfa_offset 36
 1909              		.cfi_offset 4, -36
 1910              		.cfi_offset 5, -32
 1911              		.cfi_offset 6, -28
 1912              		.cfi_offset 7, -24
 1913              		.cfi_offset 8, -20
 1914              		.cfi_offset 9, -16
 1915              		.cfi_offset 10, -12
 1916              		.cfi_offset 11, -8
 1917              		.cfi_offset 14, -4
 1918              		.loc 1 224 0
 1919 0004 944D     		ldr	r5, .L118
 1920 0006 DFF86882 		ldr	r8, .L118+24
 1921 000a D5ED017A 		vldr.32	s15, [r5, #4]	@ int
 1922              		.loc 1 225 0
 1923 000e 6F78     		ldrb	r7, [r5, #1]	@ zero_extendqisi2
 1924              		.loc 1 235 0
 1925 0010 D5F83CB0 		ldr	fp, [r5, #60]	@ float
 1926              		.loc 1 236 0
 1927 0014 D5F840A0 		ldr	r10, [r5, #64]	@ float
 1928              		.loc 1 237 0
 1929 0018 D5F84490 		ldr	r9, [r5, #68]	@ float
 1930              		.loc 1 222 0
 1931 001c 2DED0C8B 		vpush.64	{d8, d9, d10, d11, d12, d13}
 1932              		.cfi_def_cfa_offset 84
 1933              		.cfi_offset 80, -84
 1934              		.cfi_offset 81, -80
 1935              		.cfi_offset 82, -76
 1936              		.cfi_offset 83, -72
 1937              		.cfi_offset 84, -68
 1938              		.cfi_offset 85, -64
ARM GAS  C:\Users\CFAR\AppData\Local\Temp\cc7s8z6R.s 			page 35


 1939              		.cfi_offset 86, -60
 1940              		.cfi_offset 87, -56
 1941              		.cfi_offset 88, -52
 1942              		.cfi_offset 89, -48
 1943              		.cfi_offset 90, -44
 1944              		.cfi_offset 91, -40
 1945              		.loc 1 242 0
 1946 0020 DFED8EDA 		vldr.32	s27, .L118+4
 1947              		.loc 1 226 0
 1948 0024 95ED06DA 		vldr.32	s26, [r5, #24]
 1949              		.loc 1 227 0
 1950 0028 D5ED07CA 		vldr.32	s25, [r5, #28]
 1951              		.loc 1 228 0
 1952 002c 95ED08CA 		vldr.32	s24, [r5, #32]
 1953              		.loc 1 229 0
 1954 0030 D5ED09BA 		vldr.32	s23, [r5, #36]
 1955              		.loc 1 230 0
 1956 0034 95ED0ABA 		vldr.32	s22, [r5, #40]
 1957              		.loc 1 231 0
 1958 0038 D5ED0BAA 		vldr.32	s21, [r5, #44]
 1959              		.loc 1 232 0
 1960 003c 95ED0CAA 		vldr.32	s20, [r5, #48]
 1961              		.loc 1 233 0
 1962 0040 D5ED0D9A 		vldr.32	s19, [r5, #52]
 1963              		.loc 1 234 0
 1964 0044 95ED0E9A 		vldr.32	s18, [r5, #56]
 1965              		.loc 1 241 0
 1966 0048 0023     		movs	r3, #0
 1967              		.loc 1 222 0
 1968 004a 8DB0     		sub	sp, sp, #52
 1969              		.cfi_def_cfa_offset 136
 1970              		.loc 1 222 0
 1971 004c F0EE408A 		vmov.f32	s17, s0
 1972              		.loc 1 242 0
 1973 0050 B0EE6D1A 		vmov.f32	s2, s27
 1974 0054 F0EE001A 		vmov.f32	s3, #2.0e+0
 1975 0058 F2EE040A 		vmov.f32	s1, #1.0e+1
 1976 005c B7EE000A 		vmov.f32	s0, #1.0e+0
 1977              	.LVL169:
 1978              		.loc 1 240 0
 1979 0060 4FF47A74 		mov	r4, #1000
 1980              		.loc 1 241 0
 1981 0064 6B70     		strb	r3, [r5, #1]
 1982              		.loc 1 224 0
 1983 0066 B8EEE78A 		vcvt.f32.s32	s16, s15
 1984              	.LVL170:
 1985              		.loc 1 222 0
 1986 006a 0646     		mov	r6, r0
 1987              		.loc 1 240 0
 1988 006c 6C60     		str	r4, [r5, #4]
 1989              		.loc 1 242 0
 1990 006e FFF7FEFF 		bl	ahrs_update_all_parameters
 1991              	.LVL171:
 1992              		.loc 1 257 0
 1993 0072 7B4B     		ldr	r3, .L118+8
 1994              		.loc 1 243 0
 1995 0074 C5ED06DA 		vstr.32	s27, [r5, #24]
ARM GAS  C:\Users\CFAR\AppData\Local\Temp\cc7s8z6R.s 			page 36


 1996              		.loc 1 259 0
 1997 0078 F0EE6D7A 		vmov.f32	s15, s27
 1998 007c F0EE6D5A 		vmov.f32	s11, s27
 1999 0080 F0EE6D6A 		vmov.f32	s13, s27
 2000              		.loc 1 244 0
 2001 0084 C5ED07DA 		vstr.32	s27, [r5, #28]
 2002              		.loc 1 245 0
 2003 0088 C5ED08DA 		vstr.32	s27, [r5, #32]
 2004              		.loc 1 246 0
 2005 008c C5ED09DA 		vstr.32	s27, [r5, #36]
 2006              		.loc 1 247 0
 2007 0090 C5ED0ADA 		vstr.32	s27, [r5, #40]
 2008              		.loc 1 248 0
 2009 0094 C5ED0BDA 		vstr.32	s27, [r5, #44]
 2010              		.loc 1 249 0
 2011 0098 C5ED0CDA 		vstr.32	s27, [r5, #48]
 2012              		.loc 1 250 0
 2013 009c C5ED0DDA 		vstr.32	s27, [r5, #52]
 2014              		.loc 1 251 0
 2015 00a0 C5ED0EDA 		vstr.32	s27, [r5, #56]
 2016              		.loc 1 252 0
 2017 00a4 C5ED0FDA 		vstr.32	s27, [r5, #60]
 2018              		.loc 1 253 0
 2019 00a8 C5ED10DA 		vstr.32	s27, [r5, #64]
 2020              		.loc 1 254 0
 2021 00ac C5ED11DA 		vstr.32	s27, [r5, #68]
 2022              		.loc 1 257 0
 2023 00b0 C3ED00DA 		vstr.32	s27, [r3]
 2024              		.loc 1 258 0
 2025 00b4 C3ED01DA 		vstr.32	s27, [r3, #4]
 2026              		.loc 1 259 0
 2027 00b8 C3ED02DA 		vstr.32	s27, [r3, #8]
 2028              	.LVL172:
 2029 00bc 03E0     		b	.L111
 2030              	.LVL173:
 2031              	.L117:
 2032 00be DDED015A 		vldr.32	s11, [sp, #4]
 2033 00c2 DDED027A 		vldr.32	s15, [sp, #8]
 2034              	.LVL174:
 2035              	.L111:
 2036              	.LBB30:
 2037              		.loc 1 264 0 discriminator 3
 2038 00c6 98ED006A 		vldr.32	s12, [r8]
 2039              		.loc 1 265 0 discriminator 3
 2040 00ca 98ED015A 		vldr.32	s10, [r8, #4]
 2041              		.loc 1 266 0 discriminator 3
 2042 00ce 98ED027A 		vldr.32	s14, [r8, #8]
 2043              		.loc 1 264 0 discriminator 3
 2044 00d2 76EE266A 		vadd.f32	s13, s12, s13
 2045              		.loc 1 265 0 discriminator 3
 2046 00d6 75EE255A 		vadd.f32	s11, s10, s11
 2047              		.loc 1 266 0 discriminator 3
 2048 00da 77EE277A 		vadd.f32	s15, s14, s15
 2049              		.loc 1 267 0 discriminator 3
 2050 00de 0A20     		movs	r0, #10
 2051              		.loc 1 264 0 discriminator 3
 2052 00e0 CDED006A 		vstr.32	s13, [sp]
ARM GAS  C:\Users\CFAR\AppData\Local\Temp\cc7s8z6R.s 			page 37


 2053              		.loc 1 265 0 discriminator 3
 2054 00e4 CDED015A 		vstr.32	s11, [sp, #4]
 2055              		.loc 1 266 0 discriminator 3
 2056 00e8 CDED027A 		vstr.32	s15, [sp, #8]
 2057              		.loc 1 267 0 discriminator 3
 2058 00ec FFF7FEFF 		bl	chThdSleep
 2059              	.LVL175:
 2060              		.loc 1 263 0 discriminator 3
 2061 00f0 013C     		subs	r4, r4, #1
 2062              	.LVL176:
 2063 00f2 DDED006A 		vldr.32	s13, [sp]
 2064 00f6 E2D1     		bne	.L117
 2065              	.LBE30:
 2066              		.loc 1 269 0
 2067 00f8 DFED5A7A 		vldr.32	s15, .L118+12
 2068              		.loc 1 270 0
 2069 00fc 9DED017A 		vldr.32	s14, [sp, #4]
 2070              		.loc 1 271 0
 2071 0100 DDED025A 		vldr.32	s11, [sp, #8]
 2072              		.loc 1 282 0
 2073 0104 DFED55DA 		vldr.32	s27, .L118+4
 2074              	.LBB31:
 2075              	.LBB32:
 2076              	.LBB33:
 2077              		.loc 1 162 0
 2078 0108 DFF86881 		ldr	r8, .L118+28
 2079              	.LBE33:
 2080              	.LBE32:
 2081              	.LBE31:
 2082              		.loc 1 269 0
 2083 010c 86EEA76A 		vdiv.f32	s12, s13, s15
 2084              		.loc 1 279 0
 2085 0110 42F21070 		movw	r0, #10000
 2086 0114 FA24     		movs	r4, #250
 2087              	.LVL177:
 2088              		.loc 1 270 0
 2089 0116 C7EE276A 		vdiv.f32	s13, s14, s15
 2090              		.loc 1 271 0
 2091 011a 85EEA77A 		vdiv.f32	s14, s11, s15
 2092              		.loc 1 269 0
 2093 011e 8DED006A 		vstr.32	s12, [sp]
 2094              		.loc 1 270 0
 2095 0122 CDED016A 		vstr.32	s13, [sp, #4]
 2096              		.loc 1 274 0
 2097 0126 85ED0C6A 		vstr.32	s12, [r5, #48]
 2098              		.loc 1 275 0
 2099 012a C5ED0D6A 		vstr.32	s13, [r5, #52]
 2100              		.loc 1 271 0
 2101 012e 8DED027A 		vstr.32	s14, [sp, #8]
 2102              		.loc 1 276 0
 2103 0132 85ED0E7A 		vstr.32	s14, [r5, #56]
 2104              		.loc 1 279 0
 2105 0136 FFF7FEFF 		bl	chThdSleep
 2106              	.LVL178:
 2107              	.L112:
 2108              	.LBB36:
 2109              	.LBB35:
ARM GAS  C:\Users\CFAR\AppData\Local\Temp\cc7s8z6R.s 			page 38


 2110              	.LBB34:
 2111              		.loc 1 162 0
 2112 013a 4046     		mov	r0, r8
 2113 013c FFF7FEFF 		bl	ahrs_get_roll
 2114              	.LVL179:
 2115              	.LBE34:
 2116              	.LBE35:
 2117              		.loc 1 285 0
 2118 0140 0A20     		movs	r0, #10
 2119              		.loc 1 284 0
 2120 0142 7DEE80DA 		vadd.f32	s27, s27, s0
 2121              	.LVL180:
 2122              		.loc 1 285 0
 2123 0146 FFF7FEFF 		bl	chThdSleep
 2124              	.LVL181:
 2125              		.loc 1 283 0
 2126 014a 013C     		subs	r4, r4, #1
 2127              	.LVL182:
 2128 014c F5D1     		bne	.L112
 2129              	.LVL183:
 2130              	.LBE36:
 2131              		.loc 1 287 0
 2132 014e DFED466A 		vldr.32	s13, .L118+16
 2133              		.loc 1 290 0
 2134 0152 9FED467A 		vldr.32	s14, .L118+20
 2135              		.loc 1 293 0
 2136 0156 EA69     		ldr	r2, [r5, #28]	@ float
 2137 0158 2B6A     		ldr	r3, [r5, #32]	@ float
 2138 015a 0492     		str	r2, [sp, #16]	@ float
 2139              		.loc 1 287 0
 2140 015c CDEEA67A 		vdiv.f32	s15, s27, s13
 2141              	.LVL184:
 2142              		.loc 1 294 0
 2143 0160 6846     		mov	r0, sp
 2144 0162 03A9     		add	r1, sp, #12
 2145              		.loc 1 293 0
 2146 0164 0593     		str	r3, [sp, #20]	@ float
 2147              	.LBB37:
 2148              	.LBB38:
 2149              	.LBB39:
 2150              		.loc 1 166 0
 2151 0166 DFF80C81 		ldr	r8, .L118+28
 2152              	.LBE39:
 2153              	.LBE38:
 2154              	.LBE37:
 2155              		.loc 1 297 0
 2156 016a FA24     		movs	r4, #250
 2157              	.LVL185:
 2158              		.loc 1 300 0
 2159 016c DFED3BDA 		vldr.32	s27, .L118+4
 2160              		.loc 1 290 0
 2161 0170 67EEC77A 		vnmul.f32	s15, s15, s14
 2162              	.LVL186:
 2163 0174 C5ED067A 		vstr.32	s15, [r5, #24]
 2164              		.loc 1 293 0
 2165 0178 CDED037A 		vstr.32	s15, [sp, #12]
 2166              		.loc 1 294 0
ARM GAS  C:\Users\CFAR\AppData\Local\Temp\cc7s8z6R.s 			page 39


 2167 017c FFF7FEFF 		bl	rotate.constprop.0
 2168              	.LVL187:
 2169              		.loc 1 297 0
 2170 0180 42F21070 		movw	r0, #10000
 2171 0184 FFF7FEFF 		bl	chThdSleep
 2172              	.LVL188:
 2173              	.L113:
 2174              	.LBB42:
 2175              	.LBB41:
 2176              	.LBB40:
 2177              		.loc 1 166 0
 2178 0188 4046     		mov	r0, r8
 2179 018a FFF7FEFF 		bl	ahrs_get_pitch
 2180              	.LVL189:
 2181              	.LBE40:
 2182              	.LBE41:
 2183              		.loc 1 303 0
 2184 018e 0A20     		movs	r0, #10
 2185              		.loc 1 302 0
 2186 0190 7DEE80DA 		vadd.f32	s27, s27, s0
 2187              	.LVL190:
 2188              		.loc 1 303 0
 2189 0194 FFF7FEFF 		bl	chThdSleep
 2190              	.LVL191:
 2191              		.loc 1 301 0
 2192 0198 013C     		subs	r4, r4, #1
 2193              	.LVL192:
 2194 019a F5D1     		bne	.L113
 2195              	.LVL193:
 2196              	.LBE42:
 2197              		.loc 1 305 0
 2198 019c DFED326A 		vldr.32	s13, .L118+16
 2199              		.loc 1 308 0
 2200 01a0 9FED327A 		vldr.32	s14, .L118+20
 2201              		.loc 1 311 0
 2202 01a4 AA69     		ldr	r2, [r5, #24]	@ float
 2203 01a6 2B6A     		ldr	r3, [r5, #32]	@ float
 2204 01a8 0692     		str	r2, [sp, #24]	@ float
 2205              		.loc 1 305 0
 2206 01aa CDEEA67A 		vdiv.f32	s15, s27, s13
 2207              	.LVL194:
 2208              		.loc 1 312 0
 2209 01ae 06A9     		add	r1, sp, #24
 2210 01b0 6846     		mov	r0, sp
 2211              		.loc 1 311 0
 2212 01b2 0893     		str	r3, [sp, #32]	@ float
 2213              		.loc 1 308 0
 2214 01b4 67EE877A 		vmul.f32	s15, s15, s14
 2215              	.LVL195:
 2216 01b8 C5ED077A 		vstr.32	s15, [r5, #28]
 2217              		.loc 1 311 0
 2218 01bc CDED077A 		vstr.32	s15, [sp, #28]
 2219              		.loc 1 312 0
 2220 01c0 FFF7FEFF 		bl	rotate.constprop.0
 2221              	.LVL196:
 2222              		.loc 1 318 0
 2223 01c4 AA69     		ldr	r2, [r5, #24]	@ float
ARM GAS  C:\Users\CFAR\AppData\Local\Temp\cc7s8z6R.s 			page 40


 2224 01c6 EB69     		ldr	r3, [r5, #28]	@ float
 2225 01c8 0992     		str	r2, [sp, #36]	@ float
 2226              		.loc 1 319 0
 2227 01ca 6846     		mov	r0, sp
 2228 01cc 09A9     		add	r1, sp, #36
 2229              		.loc 1 318 0
 2230 01ce 0A93     		str	r3, [sp, #40]	@ float
 2231              		.loc 1 315 0
 2232 01d0 C5ED088A 		vstr.32	s17, [r5, #32]
 2233              		.loc 1 318 0
 2234 01d4 CDED0B8A 		vstr.32	s17, [sp, #44]
 2235              		.loc 1 319 0
 2236 01d8 FFF7FEFF 		bl	rotate.constprop.0
 2237              	.LVL197:
 2238              		.loc 1 327 0
 2239 01dc AB69     		ldr	r3, [r5, #24]	@ float
 2240 01de 3360     		str	r3, [r6]	@ float
 2241              		.loc 1 328 0
 2242 01e0 EB69     		ldr	r3, [r5, #28]	@ float
 2243 01e2 7360     		str	r3, [r6, #4]	@ float
 2244              		.loc 1 329 0
 2245 01e4 2B6A     		ldr	r3, [r5, #32]	@ float
 2246 01e6 B360     		str	r3, [r6, #8]	@ float
 2247              		.loc 1 330 0
 2248 01e8 6B6A     		ldr	r3, [r5, #36]	@ float
 2249 01ea F360     		str	r3, [r6, #12]	@ float
 2250              		.loc 1 331 0
 2251 01ec AB6A     		ldr	r3, [r5, #40]	@ float
 2252 01ee 3361     		str	r3, [r6, #16]	@ float
 2253              		.loc 1 332 0
 2254 01f0 EB6A     		ldr	r3, [r5, #44]	@ float
 2255 01f2 7361     		str	r3, [r6, #20]	@ float
 2256              		.loc 1 333 0
 2257 01f4 2B6B     		ldr	r3, [r5, #48]	@ float
 2258 01f6 B361     		str	r3, [r6, #24]	@ float
 2259              		.loc 1 334 0
 2260 01f8 6B6B     		ldr	r3, [r5, #52]	@ float
 2261 01fa F361     		str	r3, [r6, #28]	@ float
 2262              		.loc 1 335 0
 2263 01fc AB6B     		ldr	r3, [r5, #56]	@ float
 2264              		.loc 1 340 0
 2265 01fe 95ED020A 		vldr.32	s0, [r5, #8]
 2266 0202 D5ED030A 		vldr.32	s1, [r5, #12]
 2267 0206 95ED041A 		vldr.32	s2, [r5, #16]
 2268 020a D5ED051A 		vldr.32	s3, [r5, #20]
 2269              		.loc 1 335 0
 2270 020e 3362     		str	r3, [r6, #32]	@ float
 2271              		.loc 1 338 0
 2272 0210 BDEEC88A 		vcvt.s32.f32	s16, s16
 2273              	.LVL198:
 2274              		.loc 1 339 0
 2275 0214 6F70     		strb	r7, [r5, #1]
 2276              		.loc 1 338 0
 2277 0216 85ED018A 		vstr.32	s16, [r5, #4]	@ int
 2278              		.loc 1 340 0
 2279 021a FFF7FEFF 		bl	ahrs_update_all_parameters
 2280              	.LVL199:
ARM GAS  C:\Users\CFAR\AppData\Local\Temp\cc7s8z6R.s 			page 41


 2281              		.loc 1 345 0
 2282 021e 85ED06DA 		vstr.32	s26, [r5, #24]
 2283              		.loc 1 346 0
 2284 0222 C5ED07CA 		vstr.32	s25, [r5, #28]
 2285              		.loc 1 347 0
 2286 0226 85ED08CA 		vstr.32	s24, [r5, #32]
 2287              		.loc 1 348 0
 2288 022a C5ED09BA 		vstr.32	s23, [r5, #36]
 2289              		.loc 1 349 0
 2290 022e 85ED0ABA 		vstr.32	s22, [r5, #40]
 2291              		.loc 1 350 0
 2292 0232 C5ED0BAA 		vstr.32	s21, [r5, #44]
 2293              		.loc 1 351 0
 2294 0236 85ED0CAA 		vstr.32	s20, [r5, #48]
 2295              		.loc 1 352 0
 2296 023a C5ED0D9A 		vstr.32	s19, [r5, #52]
 2297              		.loc 1 353 0
 2298 023e 85ED0E9A 		vstr.32	s18, [r5, #56]
 2299              		.loc 1 354 0
 2300 0242 C5F83CB0 		str	fp, [r5, #60]	@ float
 2301              		.loc 1 355 0
 2302 0246 C5F840A0 		str	r10, [r5, #64]	@ float
 2303              		.loc 1 356 0
 2304 024a C5F84490 		str	r9, [r5, #68]	@ float
 2305              		.loc 1 357 0
 2306 024e 0DB0     		add	sp, sp, #52
 2307              		.cfi_def_cfa_offset 84
 2308              		@ sp needed
 2309 0250 BDEC0C8B 		vldm	sp!, {d8-d13}
 2310              		.cfi_restore 90
 2311              		.cfi_restore 91
 2312              		.cfi_restore 88
 2313              		.cfi_restore 89
 2314              		.cfi_restore 86
 2315              		.cfi_restore 87
 2316              		.cfi_restore 84
 2317              		.cfi_restore 85
 2318              		.cfi_restore 82
 2319              		.cfi_restore 83
 2320              		.cfi_restore 80
 2321              		.cfi_restore 81
 2322              		.cfi_def_cfa_offset 36
 2323              	.LVL200:
 2324 0254 BDE8F08F 		pop	{r4, r5, r6, r7, r8, r9, r10, fp, pc}
 2325              	.LVL201:
 2326              	.L119:
 2327              		.align	2
 2328              	.L118:
 2329 0258 00000000 		.word	.LANCHOR0
 2330 025c 00000000 		.word	0
 2331 0260 00000000 		.word	.LANCHOR1
 2332 0264 00007A44 		.word	1148846080
 2333 0268 00007A43 		.word	1132068864
 2334 026c E02E6542 		.word	1113927392
 2335 0270 00000000 		.word	.LANCHOR6
 2336 0274 00000000 		.word	.LANCHOR8
 2337              		.cfi_endproc
ARM GAS  C:\Users\CFAR\AppData\Local\Temp\cc7s8z6R.s 			page 42


 2338              	.LFE272:
 2339              		.size	imu_get_calibration, .-imu_get_calibration
 2340              		.section	.bss.imu_ready,"aw",%nobits
 2341              		.set	.LANCHOR3,. + 0
 2342              		.type	imu_ready, %object
 2343              		.size	imu_ready, 1
 2344              	imu_ready:
 2345 0000 00       		.space	1
 2346              		.section	.bss.init_time,"aw",%nobits
 2347              		.align	2
 2348              		.set	.LANCHOR4,. + 0
 2349              		.type	init_time, %object
 2350              		.size	init_time, 4
 2351              	init_time:
 2352 0000 00000000 		.space	4
 2353              		.section	.bss.last_time.13154,"aw",%nobits
 2354              		.align	2
 2355              		.set	.LANCHOR2,. + 0
 2356              		.type	last_time.13154, %object
 2357              		.size	last_time.13154, 4
 2358              	last_time.13154:
 2359 0000 00000000 		.space	4
 2360              		.section	.bss.m_accel,"aw",%nobits
 2361              		.align	2
 2362              		.set	.LANCHOR5,. + 0
 2363              		.type	m_accel, %object
 2364              		.size	m_accel, 12
 2365              	m_accel:
 2366 0000 00000000 		.space	12
 2366      00000000 
 2366      00000000 
 2367              		.section	.bss.m_att,"aw",%nobits
 2368              		.align	2
 2369              		.set	.LANCHOR8,. + 0
 2370              		.type	m_att, %object
 2371              		.size	m_att, 36
 2372              	m_att:
 2373 0000 00000000 		.space	36
 2373      00000000 
 2373      00000000 
 2373      00000000 
 2373      00000000 
 2374              		.section	.bss.m_bmi_state,"aw",%nobits
 2375              		.align	2
 2376              		.set	.LANCHOR11,. + 0
 2377              		.type	m_bmi_state, %object
 2378              		.size	m_bmi_state, 52
 2379              	m_bmi_state:
 2380 0000 00000000 		.space	52
 2380      00000000 
 2380      00000000 
 2380      00000000 
 2380      00000000 
 2381              		.section	.bss.m_gyro,"aw",%nobits
 2382              		.align	2
 2383              		.set	.LANCHOR6,. + 0
 2384              		.type	m_gyro, %object
ARM GAS  C:\Users\CFAR\AppData\Local\Temp\cc7s8z6R.s 			page 43


 2385              		.size	m_gyro, 12
 2386              	m_gyro:
 2387 0000 00000000 		.space	12
 2387      00000000 
 2387      00000000 
 2388              		.section	.bss.m_gyro_offset,"aw",%nobits
 2389              		.align	2
 2390              		.set	.LANCHOR1,. + 0
 2391              		.type	m_gyro_offset, %object
 2392              		.size	m_gyro_offset, 12
 2393              	m_gyro_offset:
 2394 0000 00000000 		.space	12
 2394      00000000 
 2394      00000000 
 2395              		.section	.bss.m_i2c_bb,"aw",%nobits
 2396              		.align	2
 2397              		.set	.LANCHOR9,. + 0
 2398              		.type	m_i2c_bb, %object
 2399              		.size	m_i2c_bb, 36
 2400              	m_i2c_bb:
 2401 0000 00000000 		.space	36
 2401      00000000 
 2401      00000000 
 2401      00000000 
 2401      00000000 
 2402              		.section	.bss.m_icm20948_state,"aw",%nobits
 2403              		.align	2
 2404              		.set	.LANCHOR10,. + 0
 2405              		.type	m_icm20948_state, %object
 2406              		.size	m_icm20948_state, 20
 2407              	m_icm20948_state:
 2408 0000 00000000 		.space	20
 2408      00000000 
 2408      00000000 
 2408      00000000 
 2408      00000000 
 2409              		.section	.bss.m_mag,"aw",%nobits
 2410              		.align	2
 2411              		.set	.LANCHOR7,. + 0
 2412              		.type	m_mag, %object
 2413              		.size	m_mag, 12
 2414              	m_mag:
 2415 0000 00000000 		.space	12
 2415      00000000 
 2415      00000000 
 2416              		.section	.bss.m_settings,"aw",%nobits
 2417              		.align	2
 2418              		.set	.LANCHOR0,. + 0
 2419              		.type	m_settings, %object
 2420              		.size	m_settings, 76
 2421              	m_settings:
 2422 0000 00000000 		.space	76
 2422      00000000 
 2422      00000000 
 2422      00000000 
 2422      00000000 
 2423              		.section	.bss.m_thd_work_area,"aw",%nobits
ARM GAS  C:\Users\CFAR\AppData\Local\Temp\cc7s8z6R.s 			page 44


 2424              		.align	3
 2425              		.set	.LANCHOR12,. + 0
 2426              		.type	m_thd_work_area, %object
 2427              		.size	m_thd_work_area, 2456
 2428              	m_thd_work_area:
 2429 0000 00000000 		.space	2456
 2429      00000000 
 2429      00000000 
 2429      00000000 
 2429      00000000 
 2430              		.section	.rodata.imu_init.str1.4,"aMS",%progbits,1
 2431              		.align	2
 2432              	.LC1:
 2433 0000 5072696E 		.ascii	"Print gyro offsets\000"
 2433      74206779 
 2433      726F206F 
 2433      66667365 
 2433      747300
 2434 0013 00       		.space	1
 2435              	.LC2:
 2436 0014 696D755F 		.ascii	"imu_gyro_info\000"
 2436      6779726F 
 2436      5F696E66 
 2436      6F00
 2437              		.section	.rodata.terminal_gyro_info.str1.4,"aMS",%progbits,1
 2438              		.align	2
 2439              	.LC0:
 2440 0000 4779726F 		.ascii	"Gyro offsets: [%.3f %.3f %.3f]\012\000"
 2440      206F6666 
 2440      73657473 
 2440      3A205B25 
 2440      2E336620 
 2441              		.text
 2442              	.Letext0:
 2443              		.file 3 "c:\\st\\stm32cubeide_1.3.0\\stm32cubeide\\plugins\\com.st.stm32cube.ide.mcu.externaltools
 2444              		.file 4 "c:\\st\\stm32cubeide_1.3.0\\stm32cubeide\\plugins\\com.st.stm32cube.ide.mcu.externaltools
 2445              		.file 5 "c:\\st\\stm32cubeide_1.3.0\\stm32cubeide\\plugins\\com.st.stm32cube.ide.mcu.externaltools
 2446              		.file 6 "ChibiOS_3.0.5/os/rt/ports/ARMCMx/compilers/GCC/chtypes.h"
 2447              		.file 7 "ChibiOS_3.0.5/os/rt/include/chsystypes.h"
 2448              		.file 8 "ChibiOS_3.0.5/os/rt/include/chschd.h"
 2449              		.file 9 "ChibiOS_3.0.5/os/ext/CMSIS/include/core_cm4.h"
 2450              		.file 10 "ChibiOS_3.0.5/os/ext/CMSIS/ST/system_stm32f4xx.h"
 2451              		.file 11 "ChibiOS_3.0.5/os/ext/CMSIS/ST/stm32f407xx.h"
 2452              		.file 12 "ChibiOS_3.0.5/os/rt/ports/ARMCMx/chcore.h"
 2453              		.file 13 "ChibiOS_3.0.5/os/rt/ports/ARMCMx/chcore_v7m.h"
 2454              		.file 14 "ChibiOS_3.0.5/os/rt/include/chtm.h"
 2455              		.file 15 "ChibiOS_3.0.5/os/rt/include/chsem.h"
 2456              		.file 16 "ChibiOS_3.0.5/os/rt/include/chmtx.h"
 2457              		.file 17 "ChibiOS_3.0.5/os/rt/include/chregistry.h"
 2458              		.file 18 "ChibiOS_3.0.5/os/rt/include/chevents.h"
 2459              		.file 19 "ChibiOS_3.0.5/os/rt/include/chqueues.h"
 2460              		.file 20 "./datatypes.h"
 2461              		.file 21 "./conf_general.h"
 2462              		.file 22 "ChibiOS_3.0.5/os/hal/ports/STM32/STM32F4xx/stm32_dma.h"
 2463              		.file 23 "ChibiOS_3.0.5/os/hal/ports/STM32/LLD/GPIOv2/pal_lld.h"
 2464              		.file 24 "ChibiOS_3.0.5/os/hal/include/can.h"
 2465              		.file 25 "ChibiOS_3.0.5/os/hal/ports/STM32/LLD/can_lld.h"
ARM GAS  C:\Users\CFAR\AppData\Local\Temp\cc7s8z6R.s 			page 45


 2466              		.file 26 "ChibiOS_3.0.5/os/hal/include/i2c.h"
 2467              		.file 27 "ChibiOS_3.0.5/os/hal/ports/STM32/LLD/I2Cv1/i2c_lld.h"
 2468              		.file 28 "ChibiOS_3.0.5/os/hal/include/icu.h"
 2469              		.file 29 "ChibiOS_3.0.5/os/hal/ports/STM32/LLD/TIMv1/icu_lld.h"
 2470              		.file 30 "ChibiOS_3.0.5/os/hal/ports/STM32/LLD/TIMv1/stm32_tim.h"
 2471              		.file 31 "ChibiOS_3.0.5/os/hal/include/serial.h"
 2472              		.file 32 "ChibiOS_3.0.5/os/hal/ports/STM32/LLD/USARTv1/serial_lld.h"
 2473              		.file 33 "ChibiOS_3.0.5/os/hal/include/spi.h"
 2474              		.file 34 "ChibiOS_3.0.5/os/hal/ports/STM32/LLD/SPIv1/spi_lld.h"
 2475              		.file 35 "ChibiOS_3.0.5/os/hal/include/usb.h"
 2476              		.file 36 "ChibiOS_3.0.5/os/hal/ports/STM32/LLD/OTGv1/usb_lld.h"
 2477              		.file 37 "ChibiOS_3.0.5/os/hal/ports/STM32/LLD/OTGv1/stm32_otg.h"
 2478              		.file 38 "./i2c_bb.h"
 2479              		.file 39 "imu/icm20948.h"
 2480              		.file 40 "imu/BMI160_driver/bmi160_defs.h"
 2481              		.file 41 "c:\\st\\stm32cubeide_1.3.0\\stm32cubeide\\plugins\\com.st.stm32cube.ide.mcu.externaltool
 2482              		.file 42 "c:\\st\\stm32cubeide_1.3.0\\stm32cubeide\\plugins\\com.st.stm32cube.ide.mcu.externaltool
 2483              		.file 43 "c:\\st\\stm32cubeide_1.3.0\\stm32cubeide\\plugins\\com.st.stm32cube.ide.mcu.externaltool
 2484              		.file 44 "c:\\st\\stm32cubeide_1.3.0\\stm32cubeide\\plugins\\com.st.stm32cube.ide.mcu.externaltool
 2485              		.file 45 "c:\\st\\stm32cubeide_1.3.0\\stm32cubeide\\plugins\\com.st.stm32cube.ide.mcu.externaltool
 2486              		.file 46 "imu/bmi160_wrapper.h"
 2487              		.file 47 "./utils.h"
 2488              		.file 48 "./commands.h"
 2489              		.file 49 "./timer.h"
 2490              		.file 50 "imu/ahrs.h"
 2491              		.file 51 "ChibiOS_3.0.5/os/rt/include/chthreads.h"
 2492              		.file 52 "imu/mpu9150.h"
 2493              		.file 53 "./terminal.h"
 2494              		.file 54 "<built-in>"
