ARM GAS  C:\Users\CFAR\AppData\Local\Temp\ccOMEhOc.s 			page 1


   1              		.cpu cortex-m4
   2              		.eabi_attribute 27, 1
   3              		.eabi_attribute 28, 1
   4              		.eabi_attribute 20, 1
   5              		.eabi_attribute 21, 1
   6              		.eabi_attribute 23, 3
   7              		.eabi_attribute 24, 1
   8              		.eabi_attribute 25, 1
   9              		.eabi_attribute 26, 1
  10              		.eabi_attribute 30, 2
  11              		.eabi_attribute 34, 1
  12              		.eabi_attribute 18, 4
  13              		.file	"mc_interface.c"
  14              		.text
  15              	.Ltext0:
  16              		.cfi_sections	.debug_frame
  17              		.section	.text.sample_send_thread,"ax",%progbits
  18              		.align	1
  19              		.p2align 4,,15
  20              		.syntax unified
  21              		.thumb
  22              		.thumb_func
  23              		.fpu fpv4-sp-d16
  24              		.type	sample_send_thread, %function
  25              	sample_send_thread:
  26              	.LFB326:
  27              		.file 1 "mc_interface.c"
  28              		.loc 1 2214 0
  29              		.cfi_startproc
  30              		@ args = 0, pretend = 0, frame = 48
  31              		@ frame_needed = 0, uses_anonymous_args = 0
  32              	.LVL0:
  33 0000 2DE9F04F 		push	{r4, r5, r6, r7, r8, r9, r10, fp, lr}
  34              		.cfi_def_cfa_offset 36
  35              		.cfi_offset 4, -36
  36              		.cfi_offset 5, -32
  37              		.cfi_offset 6, -28
  38              		.cfi_offset 7, -24
  39              		.cfi_offset 8, -20
  40              		.cfi_offset 9, -16
  41              		.cfi_offset 10, -12
  42              		.cfi_offset 11, -8
  43              		.cfi_offset 14, -4
  44              	.LBB473:
  45              	.LBB474:
  46              		.file 2 "ChibiOS_3.0.5/os/rt/include/chregistry.h"
  47              		.loc 2 135 0
  48 0004 7B4B     		ldr	r3, .L21
  49              	.LBE474:
  50              	.LBE473:
  51              		.loc 1 2218 0
  52 0006 7C4A     		ldr	r2, .L21+4
  53              	.LBB477:
  54              	.LBB475:
  55              		.loc 2 135 0
  56 0008 9B69     		ldr	r3, [r3, #24]
  57 000a 7C49     		ldr	r1, .L21+8
ARM GAS  C:\Users\CFAR\AppData\Local\Temp\ccOMEhOc.s 			page 2


  58 000c 7C4E     		ldr	r6, .L21+12
  59 000e DFF828B2 		ldr	fp, .L21+68
  60 0012 DFF828A2 		ldr	r10, .L21+72
  61              	.LBE475:
  62              	.LBE477:
  63              		.loc 1 2214 0
  64 0016 2DED068B 		vpush.64	{d8, d9, d10}
  65              		.cfi_def_cfa_offset 60
  66              		.cfi_offset 80, -60
  67              		.cfi_offset 81, -56
  68              		.cfi_offset 82, -52
  69              		.cfi_offset 83, -48
  70              		.cfi_offset 84, -44
  71              		.cfi_offset 85, -40
  72              	.LBB478:
  73              	.LBB479:
  74              	.LBB480:
  75              		.loc 1 2258 0
  76 001a DFED7A9A 		vldr.32	s19, .L21+16
  77              		.loc 1 2260 0
  78 001e 9FED7A9A 		vldr.32	s18, .L21+20
  79 0022 DFED7A8A 		vldr.32	s17, .L21+24
  80 0026 9FED7A8A 		vldr.32	s16, .L21+28
  81              		.loc 1 2264 0
  82 002a 9FED7AAA 		vldr.32	s20, .L21+32
  83              	.LBE480:
  84              	.LBE479:
  85              	.LBE478:
  86              	.LBB488:
  87              	.LBB476:
  88              		.loc 2 135 0
  89 002e 9961     		str	r1, [r3, #24]
  90              	.LVL1:
  91              	.LBE476:
  92              	.LBE488:
  93              		.loc 1 2214 0
  94 0030 8DB0     		sub	sp, sp, #52
  95              		.cfi_def_cfa_offset 112
  96              		.loc 1 2218 0
  97 0032 1360     		str	r3, [r2]
  98              	.LVL2:
  99              	.L13:
 100              	.LBB489:
 101              		.loc 1 2221 0
 102 0034 0120     		movs	r0, #1
 103 0036 FFF7FEFF 		bl	chEvtWaitAny
 104              	.LVL3:
 105              		.loc 1 2226 0
 106 003a 774B     		ldr	r3, .L21+36
 107 003c 1B78     		ldrb	r3, [r3]	@ zero_extendqisi2
 108 003e 013B     		subs	r3, r3, #1
 109 0040 052B     		cmp	r3, #5
 110 0042 F7D8     		bhi	.L13
 111 0044 DFE803F0 		tbb	[pc, r3]
 112              	.L4:
 113 0048 03       		.byte	(.L3-.L4)/2
 114 0049 03       		.byte	(.L3-.L4)/2
ARM GAS  C:\Users\CFAR\AppData\Local\Temp\ccOMEhOc.s 			page 3


 115 004a CC       		.byte	(.L5-.L4)/2
 116 004b CC       		.byte	(.L5-.L4)/2
 117 004c CC       		.byte	(.L5-.L4)/2
 118 004d CC       		.byte	(.L5-.L4)/2
 119              		.p2align 1
 120              	.L3:
 121              		.loc 1 2229 0
 122 004e 734B     		ldr	r3, .L21+40
 123 0050 D3F80080 		ldr	r8, [r3]
 124              	.LVL4:
 125              	.LBB485:
 126              		.loc 1 2244 0
 127 0054 B8F1000F 		cmp	r8, #0
 128              	.LBE485:
 129              		.loc 1 2224 0
 130 0058 C8BF     		it	gt
 131 005a 4FF00009 		movgt	r9, #0
 132              	.LBB486:
 133              		.loc 1 2244 0
 134 005e E9DD     		ble	.L13
 135              	.LVL5:
 136              	.L6:
 137              	.LBB481:
 138              		.loc 1 2249 0
 139 0060 B9F5FA6F 		cmp	r9, #2000
 140              	.LBE481:
 141              	.LBE486:
 142              		.loc 1 2236 0
 143 0064 4FF00007 		mov	r7, #0
 144              	.LVL6:
 145              	.LBB487:
 146              	.LBB482:
 147              		.loc 1 2247 0
 148 0068 4C46     		mov	r4, r9
 149              	.LVL7:
 150              		.loc 1 2249 0
 151 006a C0F2B180 		blt	.L7
 152              	.L8:
 153              		.loc 1 2250 0
 154 006e A4F5FA64 		sub	r4, r4, #2000
 155              	.LVL8:
 156              		.loc 1 2249 0
 157 0072 B4F5FA6F 		cmp	r4, #2000
 158 0076 FADA     		bge	.L8
 159              	.L9:
 160              		.loc 1 2258 0 discriminator 2
 161 0078 36F81430 		ldrh	r3, [r6, r4, lsl #1]
 162 007c 1BB2     		sxth	r3, r3
 163 007e 07EE903A 		vmov	s15, r3	@ int
 164 0082 B8EEE70A 		vcvt.f32.s32	s0, s15
 165              		.loc 1 2257 0 discriminator 2
 166 0086 0122     		movs	r2, #1
 167              		.loc 1 2259 0 discriminator 2
 168 0088 04FA02F5 		lsl	r5, r4, r2
 169              		.loc 1 2257 0 discriminator 2
 170 008c 1323     		movs	r3, #19
 171              		.loc 1 2258 0 discriminator 2
ARM GAS  C:\Users\CFAR\AppData\Local\Temp\ccOMEhOc.s 			page 4


 172 008e 20EE290A 		vmul.f32	s0, s0, s19
 173 0092 01A9     		add	r1, sp, #4
 174 0094 02A8     		add	r0, sp, #8
 175              		.loc 1 2257 0 discriminator 2
 176 0096 0192     		str	r2, [sp, #4]
 177 0098 8DF80830 		strb	r3, [sp, #8]
 178              		.loc 1 2258 0 discriminator 2
 179 009c FFF7FEFF 		bl	buffer_append_float32_auto
 180              	.LVL9:
 181              		.loc 1 2259 0 discriminator 2
 182 00a0 7319     		adds	r3, r6, r5
 183 00a2 01A9     		add	r1, sp, #4
 184 00a4 B3F8A03F 		ldrh	r3, [r3, #4000]
 185 00a8 1BB2     		sxth	r3, r3
 186 00aa 07EE903A 		vmov	s15, r3	@ int
 187 00ae B8EEE70A 		vcvt.f32.s32	s0, s15
 188 00b2 02A8     		add	r0, sp, #8
 189 00b4 20EE290A 		vmul.f32	s0, s0, s19
 190 00b8 FFF7FEFF 		bl	buffer_append_float32_auto
 191              	.LVL10:
 192              		.loc 1 2260 0 discriminator 2
 193 00bc 0BEB0503 		add	r3, fp, r5
 194 00c0 01A9     		add	r1, sp, #4
 195 00c2 B3F8483E 		ldrh	r3, [r3, #3656]
 196 00c6 1BB2     		sxth	r3, r3
 197 00c8 00EE103A 		vmov	s0, r3	@ int
 198 00cc B8EEC00A 		vcvt.f32.s32	s0, s0
 199 00d0 02A8     		add	r0, sp, #8
 200 00d2 20EE090A 		vmul.f32	s0, s0, s18
 201              	.LBE482:
 202              		.loc 1 2244 0 discriminator 2
 203 00d6 0137     		adds	r7, r7, #1
 204              	.LVL11:
 205              	.LBB483:
 206              		.loc 1 2260 0 discriminator 2
 207 00d8 20EE280A 		vmul.f32	s0, s0, s17
 208 00dc 09F10109 		add	r9, r9, #1
 209 00e0 20EE080A 		vmul.f32	s0, s0, s16
 210 00e4 FFF7FEFF 		bl	buffer_append_float32_auto
 211              	.LVL12:
 212              		.loc 1 2261 0 discriminator 2
 213 00e8 0AEB0503 		add	r3, r10, r5
 214 00ec 01A9     		add	r1, sp, #4
 215 00ee B3F8F03C 		ldrh	r3, [r3, #3312]
 216 00f2 1BB2     		sxth	r3, r3
 217 00f4 00EE103A 		vmov	s0, r3	@ int
 218 00f8 B8EEC00A 		vcvt.f32.s32	s0, s0
 219 00fc 02A8     		add	r0, sp, #8
 220 00fe 20EE090A 		vmul.f32	s0, s0, s18
 221 0102 20EE280A 		vmul.f32	s0, s0, s17
 222 0106 20EE080A 		vmul.f32	s0, s0, s16
 223 010a FFF7FEFF 		bl	buffer_append_float32_auto
 224              	.LVL13:
 225              		.loc 1 2262 0 discriminator 2
 226 010e 444B     		ldr	r3, .L21+44
 227 0110 2B44     		add	r3, r3, r5
 228 0112 01A9     		add	r1, sp, #4
ARM GAS  C:\Users\CFAR\AppData\Local\Temp\ccOMEhOc.s 			page 5


 229 0114 B3F8983B 		ldrh	r3, [r3, #2968]
 230 0118 1BB2     		sxth	r3, r3
 231 011a 00EE103A 		vmov	s0, r3	@ int
 232 011e B8EEC00A 		vcvt.f32.s32	s0, s0
 233 0122 02A8     		add	r0, sp, #8
 234 0124 20EE090A 		vmul.f32	s0, s0, s18
 235 0128 20EE280A 		vmul.f32	s0, s0, s17
 236 012c 20EE080A 		vmul.f32	s0, s0, s16
 237 0130 FFF7FEFF 		bl	buffer_append_float32_auto
 238              	.LVL14:
 239              		.loc 1 2263 0 discriminator 2
 240 0134 3B4B     		ldr	r3, .L21+48
 241 0136 2B44     		add	r3, r3, r5
 242 0138 01A9     		add	r1, sp, #4
 243 013a B3F8403A 		ldrh	r3, [r3, #2624]
 244 013e 1BB2     		sxth	r3, r3
 245 0140 00EE103A 		vmov	s0, r3	@ int
 246 0144 B8EEC00A 		vcvt.f32.s32	s0, s0
 247 0148 02A8     		add	r0, sp, #8
 248 014a 20EE090A 		vmul.f32	s0, s0, s18
 249 014e 20EE280A 		vmul.f32	s0, s0, s17
 250 0152 20EE080A 		vmul.f32	s0, s0, s16
 251 0156 FFF7FEFF 		bl	buffer_append_float32_auto
 252              	.LVL15:
 253              		.loc 1 2264 0 discriminator 2
 254 015a 334B     		ldr	r3, .L21+52
 255 015c 2B44     		add	r3, r3, r5
 256 015e 01A9     		add	r1, sp, #4
 257 0160 B3F8E838 		ldrh	r3, [r3, #2280]
 258 0164 1BB2     		sxth	r3, r3
 259 0166 07EE903A 		vmov	s15, r3	@ int
 260 016a B8EEE70A 		vcvt.f32.s32	s0, s15
 261 016e 02A8     		add	r0, sp, #8
 262 0170 80EE0A0A 		vdiv.f32	s0, s0, s20
 263 0174 FFF7FEFF 		bl	buffer_append_float32_auto
 264              	.LVL16:
 265              		.loc 1 2265 0 discriminator 2
 266 0178 2C4B     		ldr	r3, .L21+56
 267 017a 1D44     		add	r5, r5, r3
 268 017c 01A9     		add	r1, sp, #4
 269 017e B5F89037 		ldrh	r3, [r5, #1936]
 270 0182 1BB2     		sxth	r3, r3
 271 0184 02A8     		add	r0, sp, #8
 272 0186 07EE903A 		vmov	s15, r3	@ int
 273 018a F8EEE77A 		vcvt.f32.s32	s15, s15
 274 018e B2EE040A 		vmov.f32	s0, #1.0e+1
 275 0192 27EE800A 		vmul.f32	s0, s15, s0
 276 0196 FFF7FEFF 		bl	buffer_append_float32_auto
 277              	.LVL17:
 278              		.loc 1 2266 0 discriminator 2
 279 019a 254A     		ldr	r2, .L21+60
 280 019c 019B     		ldr	r3, [sp, #4]
 281 019e 1444     		add	r4, r4, r2
 282              	.LVL18:
 283 01a0 0CAA     		add	r2, sp, #48
 284 01a2 1A44     		add	r2, r2, r3
 285 01a4 94F83816 		ldrb	r1, [r4, #1592]	@ zero_extendqisi2
ARM GAS  C:\Users\CFAR\AppData\Local\Temp\ccOMEhOc.s 			page 6


 286 01a8 02F8281C 		strb	r1, [r2, #-40]
 287              		.loc 1 2267 0 discriminator 2
 288 01ac 0233     		adds	r3, r3, #2
 289 01ae 94F8084E 		ldrb	r4, [r4, #3592]	@ zero_extendqisi2
 290              	.LVL19:
 291 01b2 02F8274C 		strb	r4, [r2, #-39]
 292              		.loc 1 2269 0 discriminator 2
 293 01b6 1946     		mov	r1, r3
 294 01b8 02A8     		add	r0, sp, #8
 295              		.loc 1 2267 0 discriminator 2
 296 01ba 0193     		str	r3, [sp, #4]
 297              		.loc 1 2269 0 discriminator 2
 298 01bc FFF7FEFF 		bl	commands_send_packet
 299              	.LVL20:
 300              	.LBE483:
 301              		.loc 1 2244 0 discriminator 2
 302 01c0 4745     		cmp	r7, r8
 303 01c2 BFF637AF 		bge	.L13
 304              	.LBB484:
 305              		.loc 1 2249 0
 306 01c6 B9F5FA6F 		cmp	r9, #2000
 307              		.loc 1 2247 0
 308 01ca 4C46     		mov	r4, r9
 309              	.LVL21:
 310              		.loc 1 2249 0
 311 01cc BFF64FAF 		bge	.L8
 312              	.L7:
 313              		.loc 1 2253 0
 314 01d0 B9F1000F 		cmp	r9, #0
 315 01d4 BFF650AF 		bge	.L9
 316              	.L10:
 317              	.LVL22:
 318 01d8 14F5FA64 		adds	r4, r4, #2000
 319              	.LVL23:
 320 01dc FCD4     		bmi	.L10
 321 01de 4BE7     		b	.L9
 322              	.LVL24:
 323              	.L5:
 324              	.LBE484:
 325              	.LBE487:
 326              		.loc 1 2237 0
 327 01e0 144B     		ldr	r3, .L21+64
 328 01e2 0E4A     		ldr	r2, .L21+40
 329 01e4 1B68     		ldr	r3, [r3]
 330 01e6 1268     		ldr	r2, [r2]
 331              		.loc 1 2236 0
 332 01e8 4FF4FA68 		mov	r8, #2000
 333              		.loc 1 2237 0
 334 01ec A3EB0209 		sub	r9, r3, r2
 335              	.LVL25:
 336 01f0 36E7     		b	.L6
 337              	.L22:
 338 01f2 00BF     		.align	2
 339              	.L21:
 340 01f4 00000000 		.word	ch
 341 01f8 00000000 		.word	.LANCHOR0
 342 01fc 00000000 		.word	.LC0
ARM GAS  C:\Users\CFAR\AppData\Local\Temp\ccOMEhOc.s 			page 7


 343 0200 00000000 		.word	.LANCHOR4
 344 0204 500AA53D 		.word	1034226256
 345 0208 00008039 		.word	964689920
 346 020c 33335340 		.word	1079194419
 347 0210 74D19541 		.word	1100337524
 348 0214 A48BC642 		.word	1120308132
 349 0218 00000000 		.word	.LANCHOR1
 350 021c 00000000 		.word	.LANCHOR2
 351 0220 E8320000 		.word	.LANCHOR7
 352 0224 E0430000 		.word	.LANCHOR8
 353 0228 D8540000 		.word	.LANCHOR9
 354 022c D0650000 		.word	.LANCHOR10
 355 0230 C8760000 		.word	.LANCHOR11
 356 0234 00000000 		.word	.LANCHOR3
 357 0238 F8100000 		.word	.LANCHOR5
 358 023c F0210000 		.word	.LANCHOR6
 359              	.LBE489:
 360              		.cfi_endproc
 361              	.LFE326:
 362              		.size	sample_send_thread, .-sample_send_thread
 363              		.section	.text.mc_interface_set_handbrake.part.3,"ax",%progbits
 364              		.align	1
 365              		.p2align 4,,15
 366              		.syntax unified
 367              		.thumb
 368              		.thumb_func
 369              		.fpu fpv4-sp-d16
 370              		.type	mc_interface_set_handbrake.part.3, %function
 371              	mc_interface_set_handbrake.part.3:
 372              	.LFB331:
 373              		.loc 1 744 0
 374              		.cfi_startproc
 375              		@ args = 0, pretend = 0, frame = 0
 376              		@ frame_needed = 0, uses_anonymous_args = 0
 377              		@ link register save eliminated.
 378              	.LVL26:
 379              		.loc 1 753 0
 380 0000 054B     		ldr	r3, .L29
 381 0002 9B78     		ldrb	r3, [r3, #2]	@ zero_extendqisi2
 382 0004 DBB2     		uxtb	r3, r3
 383 0006 012B     		cmp	r3, #1
 384 0008 04D9     		bls	.L25
 385 000a 022B     		cmp	r3, #2
 386 000c 01D1     		bne	.L28
 387              		.loc 1 761 0
 388 000e FFF7FEBF 		b	mcpwm_foc_set_handbrake
 389              	.LVL27:
 390              	.L28:
 391 0012 7047     		bx	lr
 392              	.L25:
 393              		.loc 1 757 0
 394 0014 FFF7FEBF 		b	mcpwm_set_brake_current
 395              	.LVL28:
 396              	.L30:
 397              		.align	2
 398              	.L29:
 399 0018 00000000 		.word	.LANCHOR12
ARM GAS  C:\Users\CFAR\AppData\Local\Temp\ccOMEhOc.s 			page 8


 400              		.cfi_endproc
 401              	.LFE331:
 402              		.size	mc_interface_set_handbrake.part.3, .-mc_interface_set_handbrake.part.3
 403              		.section	.text.mc_interface_fault_stop.part.4,"ax",%progbits
 404              		.align	1
 405              		.p2align 4,,15
 406              		.syntax unified
 407              		.thumb
 408              		.thumb_func
 409              		.fpu fpv4-sp-d16
 410              		.type	mc_interface_fault_stop.part.4, %function
 411              	mc_interface_fault_stop.part.4:
 412              	.LFB332:
 413              		.loc 1 1509 0
 414              		.cfi_startproc
 415              		@ args = 0, pretend = 0, frame = 0
 416              		@ frame_needed = 0, uses_anonymous_args = 0
 417              	.LVL29:
 418 0000 08B5     		push	{r3, lr}
 419              		.cfi_def_cfa_offset 8
 420              		.cfi_offset 3, -8
 421              		.cfi_offset 14, -4
 422              	.LBB490:
 423              	.LBB491:
 424              	.LBB492:
 425              	.LBB493:
 426              	.LBB494:
 427              		.file 3 "ChibiOS_3.0.5/os/ext/CMSIS/include/core_cmFunc.h"
 428              		.loc 3 342 0
 429              		.syntax unified
 430              	@ 342 "ChibiOS_3.0.5/os/ext/CMSIS/include/core_cmFunc.h" 1
 431 0002 72B6     		cpsid i
 432              	@ 0 "" 2
 433              		.thumb
 434              		.syntax unified
 435              	.LBE494:
 436              	.LBE493:
 437              	.LBE492:
 438              	.LBE491:
 439              	.LBE490:
 440              		.loc 1 1515 0
 441 0004 034B     		ldr	r3, .L33
 442 0006 0121     		movs	r1, #1
 443 0008 1868     		ldr	r0, [r3]
 444 000a FFF7FEFF 		bl	chEvtSignalI
 445              	.LVL30:
 446              	.LBB495:
 447              	.LBB496:
 448              	.LBB497:
 449              	.LBB498:
 450              	.LBB499:
 451              		.loc 3 331 0
 452              		.syntax unified
 453              	@ 331 "ChibiOS_3.0.5/os/ext/CMSIS/include/core_cmFunc.h" 1
 454 000e 62B6     		cpsie i
 455              	@ 0 "" 2
 456              		.thumb
ARM GAS  C:\Users\CFAR\AppData\Local\Temp\ccOMEhOc.s 			page 9


 457              		.syntax unified
 458              	.LBE499:
 459              	.LBE498:
 460              	.LBE497:
 461              	.LBE496:
 462              	.LBE495:
 463              		.loc 1 1520 0
 464 0010 08BD     		pop	{r3, pc}
 465              	.L34:
 466 0012 00BF     		.align	2
 467              	.L33:
 468 0014 00000000 		.word	.LANCHOR13
 469              		.cfi_endproc
 470              	.LFE332:
 471              		.size	mc_interface_fault_stop.part.4, .-mc_interface_fault_stop.part.4
 472              		.section	.text.mc_interface_init,"ax",%progbits
 473              		.align	1
 474              		.p2align 4,,15
 475              		.global	mc_interface_init
 476              		.syntax unified
 477              		.thumb
 478              		.thumb_func
 479              		.fpu fpv4-sp-d16
 480              		.type	mc_interface_init, %function
 481              	mc_interface_init:
 482              	.LFB256:
 483              		.loc 1 134 0
 484              		.cfi_startproc
 485              		@ args = 0, pretend = 0, frame = 0
 486              		@ frame_needed = 0, uses_anonymous_args = 0
 487 0000 F0B5     		push	{r4, r5, r6, r7, lr}
 488              		.cfi_def_cfa_offset 20
 489              		.cfi_offset 4, -20
 490              		.cfi_offset 5, -16
 491              		.cfi_offset 6, -12
 492              		.cfi_offset 7, -8
 493              		.cfi_offset 14, -4
 494              		.loc 1 135 0
 495 0002 464D     		ldr	r5, .L51
 496              		.loc 1 151 0
 497 0004 464F     		ldr	r7, .L51+4
 498              		.loc 1 152 0
 499 0006 474E     		ldr	r6, .L51+8
 500              		.loc 1 134 0
 501 0008 83B0     		sub	sp, sp, #12
 502              		.cfi_def_cfa_offset 32
 503              		.loc 1 135 0
 504 000a 4FF41872 		mov	r2, #608
 505 000e 0021     		movs	r1, #0
 506 0010 2846     		mov	r0, r5
 507 0012 FFF7FEFF 		bl	memset
 508              	.LVL31:
 509              		.loc 1 140 0
 510 0016 2846     		mov	r0, r5
 511 0018 0021     		movs	r1, #0
 512 001a FFF7FEFF 		bl	conf_general_read_mc_configuration
 513              	.LVL32:
ARM GAS  C:\Users\CFAR\AppData\Local\Temp\ccOMEhOc.s 			page 10


 514              		.loc 1 150 0
 515 001e 424A     		ldr	r2, .L51+12
 516              		.loc 1 153 0
 517 0020 424B     		ldr	r3, .L51+16
 518              		.loc 1 156 0
 519 0022 4348     		ldr	r0, .L51+20
 520              		.loc 1 153 0
 521 0024 0024     		movs	r4, #0
 522              		.loc 1 151 0
 523 0026 4FF47A7C 		mov	ip, #1000
 524              		.loc 1 150 0
 525 002a 0021     		movs	r1, #0
 526              		.loc 1 160 0
 527 002c 0094     		str	r4, [sp]
 528              		.loc 1 150 0
 529 002e 1160     		str	r1, [r2]	@ float
 530              		.loc 1 151 0
 531 0030 C7F800C0 		str	ip, [r7]
 532              		.loc 1 152 0
 533 0034 0127     		movs	r7, #1
 534 0036 3760     		str	r7, [r6]
 535              		.loc 1 154 0
 536 0038 3E4A     		ldr	r2, .L51+24
 537              		.loc 1 155 0
 538 003a 3F49     		ldr	r1, .L51+28
 539              		.loc 1 157 0
 540 003c 3F4E     		ldr	r6, .L51+32
 541              		.loc 1 153 0
 542 003e 1C60     		str	r4, [r3]
 543              		.loc 1 154 0
 544 0040 1460     		str	r4, [r2]
 545              		.loc 1 160 0
 546 0042 3F4B     		ldr	r3, .L51+36
 547              		.loc 1 155 0
 548 0044 0C70     		strb	r4, [r1]
 549              		.loc 1 160 0
 550 0046 4022     		movs	r2, #64
 551              		.loc 1 156 0
 552 0048 0470     		strb	r4, [r0]
 553              		.loc 1 160 0
 554 004a 4FF4B361 		mov	r1, #1432
 555 004e 3D48     		ldr	r0, .L51+40
 556              		.loc 1 157 0
 557 0050 3470     		strb	r4, [r6]
 558              		.loc 1 160 0
 559 0052 FFF7FEFF 		bl	chThdCreateStatic
 560              	.LVL33:
 561              		.loc 1 161 0
 562 0056 3C4B     		ldr	r3, .L51+44
 563 0058 0094     		str	r4, [sp]
 564 005a 3F22     		movs	r2, #63
 565 005c 4FF46671 		mov	r1, #920
 566 0060 3A48     		ldr	r0, .L51+48
 567 0062 FFF7FEFF 		bl	chThdCreateStatic
 568              	.LVL34:
 569              		.loc 1 162 0
 570 0066 3A4B     		ldr	r3, .L51+52
ARM GAS  C:\Users\CFAR\AppData\Local\Temp\ccOMEhOc.s 			page 11


 571 0068 0094     		str	r4, [sp]
 572 006a 3A48     		ldr	r0, .L51+56
 573 006c 7C22     		movs	r2, #124
 574 006e 4FF46671 		mov	r1, #920
 575 0072 FFF7FEFF 		bl	chThdCreateStatic
 576              	.LVL35:
 577              		.loc 1 196 0
 578 0076 95F8BC31 		ldrb	r3, [r5, #444]	@ zero_extendqisi2
 579 007a 013B     		subs	r3, r3, #1
 580 007c 052B     		cmp	r3, #5
 581 007e 12D8     		bhi	.L36
 582 0080 DFE803F0 		tbb	[pc, r3]
 583              	.L38:
 584 0084 2D       		.byte	(.L37-.L38)/2
 585 0085 42       		.byte	(.L39-.L38)/2
 586 0086 32       		.byte	(.L40-.L38)/2
 587 0087 35       		.byte	(.L41-.L38)/2
 588 0088 03       		.byte	(.L42-.L38)/2
 589 0089 03       		.byte	(.L42-.L38)/2
 590              		.p2align 1
 591              	.L42:
 592              	.LBB500:
 593              		.loc 1 217 0
 594 008a FFF7FEFF 		bl	mempools_alloc_appconf
 595              	.LVL36:
 596 008e 0446     		mov	r4, r0
 597              	.LVL37:
 598              		.loc 1 218 0
 599 0090 FFF7FEFF 		bl	conf_general_read_app_configuration
 600              	.LVL38:
 601              		.loc 1 221 0
 602 0094 A37E     		ldrb	r3, [r4, #26]	@ zero_extendqisi2
 603              		.loc 1 219 0
 604 0096 023B     		subs	r3, r3, #2
 605 0098 032B     		cmp	r3, #3
 606 009a 38D9     		bls	.L50
 607              	.L43:
 608              		.loc 1 226 0
 609 009c 2046     		mov	r0, r4
 610 009e FFF7FEFF 		bl	mempools_free_appconf
 611              	.LVL39:
 612              		.loc 1 227 0
 613 00a2 FFF7FEFF 		bl	encoder_init_ts5700n8501
 614              	.LVL40:
 615              	.L36:
 616              	.LBE500:
 617              		.loc 1 236 0
 618 00a6 AB78     		ldrb	r3, [r5, #2]	@ zero_extendqisi2
 619 00a8 032B     		cmp	r3, #3
 620 00aa 16D8     		bhi	.L35
 621 00ac DFE803F0 		tbb	[pc, r3]
 622              	.L46:
 623 00b0 0F       		.byte	(.L45-.L46)/2
 624 00b1 0F       		.byte	(.L45-.L46)/2
 625 00b2 08       		.byte	(.L47-.L46)/2
 626 00b3 02       		.byte	(.L48-.L46)/2
 627              		.p2align 1
ARM GAS  C:\Users\CFAR\AppData\Local\Temp\ccOMEhOc.s 			page 12


 628              	.L48:
 629              		.loc 1 251 0
 630 00b4 1948     		ldr	r0, .L51
 631              		.loc 1 257 0
 632 00b6 03B0     		add	sp, sp, #12
 633              		.cfi_remember_state
 634              		.cfi_def_cfa_offset 20
 635              		@ sp needed
 636 00b8 BDE8F040 		pop	{r4, r5, r6, r7, lr}
 637              		.cfi_restore 14
 638              		.cfi_restore 7
 639              		.cfi_restore 6
 640              		.cfi_restore 5
 641              		.cfi_restore 4
 642              		.cfi_def_cfa_offset 0
 643              		.loc 1 251 0
 644 00bc FFF7FEBF 		b	gpdrive_init
 645              	.LVL41:
 646              	.L47:
 647              		.cfi_restore_state
 648              		.loc 1 246 0
 649 00c0 1649     		ldr	r1, .L51
 650 00c2 0846     		mov	r0, r1
 651              		.loc 1 257 0
 652 00c4 03B0     		add	sp, sp, #12
 653              		.cfi_remember_state
 654              		.cfi_def_cfa_offset 20
 655              		@ sp needed
 656 00c6 BDE8F040 		pop	{r4, r5, r6, r7, lr}
 657              		.cfi_restore 14
 658              		.cfi_restore 7
 659              		.cfi_restore 6
 660              		.cfi_restore 5
 661              		.cfi_restore 4
 662              		.cfi_def_cfa_offset 0
 663              		.loc 1 246 0
 664 00ca FFF7FEBF 		b	mcpwm_foc_init
 665              	.LVL42:
 666              	.L45:
 667              		.cfi_restore_state
 668              		.loc 1 239 0
 669 00ce 1348     		ldr	r0, .L51
 670              		.loc 1 257 0
 671 00d0 03B0     		add	sp, sp, #12
 672              		.cfi_remember_state
 673              		.cfi_def_cfa_offset 20
 674              		@ sp needed
 675 00d2 BDE8F040 		pop	{r4, r5, r6, r7, lr}
 676              		.cfi_restore 14
 677              		.cfi_restore 7
 678              		.cfi_restore 6
 679              		.cfi_restore 5
 680              		.cfi_restore 4
 681              		.cfi_def_cfa_offset 0
 682              		.loc 1 239 0
 683 00d6 FFF7FEBF 		b	mcpwm_init
 684              	.LVL43:
ARM GAS  C:\Users\CFAR\AppData\Local\Temp\ccOMEhOc.s 			page 13


 685              	.L35:
 686              		.loc 1 257 0
 687 00da 03B0     		add	sp, sp, #12
 688              		@ sp needed
 689 00dc F0BD     		pop	{r4, r5, r6, r7, pc}
 690              	.L37:
 691              		.cfi_restore_state
 692              		.loc 1 198 0
 693 00de D5F8B801 		ldr	r0, [r5, #440]
 694 00e2 FFF7FEFF 		bl	encoder_init_abi
 695              	.LVL44:
 696              		.loc 1 199 0
 697 00e6 DEE7     		b	.L36
 698              	.L40:
 699              		.loc 1 206 0
 700 00e8 FFF7FEFF 		bl	encoder_init_ad2s1205_spi
 701              	.LVL45:
 702              		.loc 1 207 0
 703 00ec DBE7     		b	.L36
 704              	.L41:
 705              		.loc 1 210 0
 706 00ee 95ED340A 		vldr.32	s0, [r5, #208]
 707 00f2 D5ED330A 		vldr.32	s1, [r5, #204]
 708 00f6 95ED361A 		vldr.32	s2, [r5, #216]
 709 00fa D5ED351A 		vldr.32	s3, [r5, #212]
 710 00fe 95ED372A 		vldr.32	s4, [r5, #220]
 711 0102 FFF7FEFF 		bl	encoder_init_sincos
 712              	.LVL46:
 713              		.loc 1 213 0
 714 0106 CEE7     		b	.L36
 715              	.L39:
 716              		.loc 1 202 0
 717 0108 FFF7FEFF 		bl	encoder_init_as5047p_spi
 718              	.LVL47:
 719              		.loc 1 203 0
 720 010c CBE7     		b	.L36
 721              	.LVL48:
 722              	.L50:
 723              	.LBB501:
 724              		.loc 1 223 0
 725 010e 0023     		movs	r3, #0
 726 0110 A376     		strb	r3, [r4, #26]
 727              		.loc 1 224 0
 728 0112 2046     		mov	r0, r4
 729 0114 FFF7FEFF 		bl	conf_general_store_app_configuration
 730              	.LVL49:
 731 0118 C0E7     		b	.L43
 732              	.L52:
 733 011a 00BF     		.align	2
 734              	.L51:
 735 011c 00000000 		.word	.LANCHOR12
 736 0120 00000000 		.word	.LANCHOR2
 737 0124 00000000 		.word	.LANCHOR15
 738 0128 00000000 		.word	.LANCHOR14
 739 012c 00000000 		.word	.LANCHOR16
 740 0130 00000000 		.word	.LANCHOR1
 741 0134 00000000 		.word	.LANCHOR3
ARM GAS  C:\Users\CFAR\AppData\Local\Temp\ccOMEhOc.s 			page 14


 742 0138 00000000 		.word	.LANCHOR17
 743 013c 00000000 		.word	.LANCHOR18
 744 0140 00000000 		.word	timer_thread
 745 0144 00000000 		.word	.LANCHOR19
 746 0148 00000000 		.word	sample_send_thread
 747 014c 00000000 		.word	.LANCHOR20
 748 0150 00000000 		.word	fault_stop_thread
 749 0154 00000000 		.word	.LANCHOR21
 750              	.LBE501:
 751              		.cfi_endproc
 752              	.LFE256:
 753              		.size	mc_interface_init, .-mc_interface_init
 754              		.section	.text.mc_interface_motor_now,"ax",%progbits
 755              		.align	1
 756              		.p2align 4,,15
 757              		.global	mc_interface_motor_now
 758              		.syntax unified
 759              		.thumb
 760              		.thumb_func
 761              		.fpu fpv4-sp-d16
 762              		.type	mc_interface_motor_now, %function
 763              	mc_interface_motor_now:
 764              	.LFB257:
 765              		.loc 1 259 0
 766              		.cfi_startproc
 767              		@ args = 0, pretend = 0, frame = 0
 768              		@ frame_needed = 0, uses_anonymous_args = 0
 769              		@ link register save eliminated.
 770              		.loc 1 274 0
 771 0000 0120     		movs	r0, #1
 772 0002 7047     		bx	lr
 773              		.cfi_endproc
 774              	.LFE257:
 775              		.size	mc_interface_motor_now, .-mc_interface_motor_now
 776              		.section	.text.mc_interface_select_motor_thread,"ax",%progbits
 777              		.align	1
 778              		.p2align 4,,15
 779              		.global	mc_interface_select_motor_thread
 780              		.syntax unified
 781              		.thumb
 782              		.thumb_func
 783              		.fpu fpv4-sp-d16
 784              		.type	mc_interface_select_motor_thread, %function
 785              	mc_interface_select_motor_thread:
 786              	.LFB258:
 787              		.loc 1 286 0
 788              		.cfi_startproc
 789              		@ args = 0, pretend = 0, frame = 0
 790              		@ frame_needed = 0, uses_anonymous_args = 0
 791              		@ link register save eliminated.
 792              	.LVL50:
 793              		.loc 1 294 0
 794 0000 7047     		bx	lr
 795              		.cfi_endproc
 796              	.LFE258:
 797              		.size	mc_interface_select_motor_thread, .-mc_interface_select_motor_thread
 798 0002 00BF     		.section	.text.mc_interface_get_motor_thread,"ax",%progbits
ARM GAS  C:\Users\CFAR\AppData\Local\Temp\ccOMEhOc.s 			page 15


 799              		.align	1
 800              		.p2align 4,,15
 801              		.global	mc_interface_get_motor_thread
 802              		.syntax unified
 803              		.thumb
 804              		.thumb_func
 805              		.fpu fpv4-sp-d16
 806              		.type	mc_interface_get_motor_thread, %function
 807              	mc_interface_get_motor_thread:
 808              	.LFB259:
 809              		.loc 1 304 0
 810              		.cfi_startproc
 811              		@ args = 0, pretend = 0, frame = 0
 812              		@ frame_needed = 0, uses_anonymous_args = 0
 813              		@ link register save eliminated.
 814              	.LBB502:
 815              	.LBB503:
 816              		.file 4 "ChibiOS_3.0.5/os/rt/include/chthreads.h"
 817              		.loc 4 176 0
 818 0000 014B     		ldr	r3, .L56
 819              	.LBE503:
 820              	.LBE502:
 821              		.loc 1 305 0
 822 0002 9B69     		ldr	r3, [r3, #24]
 823              		.loc 1 306 0
 824 0004 986C     		ldr	r0, [r3, #72]
 825 0006 7047     		bx	lr
 826              	.L57:
 827              		.align	2
 828              	.L56:
 829 0008 00000000 		.word	ch
 830              		.cfi_endproc
 831              	.LFE259:
 832              		.size	mc_interface_get_motor_thread, .-mc_interface_get_motor_thread
 833              		.section	.text.mc_interface_get_configuration,"ax",%progbits
 834              		.align	1
 835              		.p2align 4,,15
 836              		.global	mc_interface_get_configuration
 837              		.syntax unified
 838              		.thumb
 839              		.thumb_func
 840              		.fpu fpv4-sp-d16
 841              		.type	mc_interface_get_configuration, %function
 842              	mc_interface_get_configuration:
 843              	.LFB260:
 844              		.loc 1 308 0
 845              		.cfi_startproc
 846              		@ args = 0, pretend = 0, frame = 0
 847              		@ frame_needed = 0, uses_anonymous_args = 0
 848              		@ link register save eliminated.
 849              		.loc 1 310 0
 850 0000 0048     		ldr	r0, .L59
 851 0002 7047     		bx	lr
 852              	.L60:
 853              		.align	2
 854              	.L59:
 855 0004 00000000 		.word	.LANCHOR12
ARM GAS  C:\Users\CFAR\AppData\Local\Temp\ccOMEhOc.s 			page 16


 856              		.cfi_endproc
 857              	.LFE260:
 858              		.size	mc_interface_get_configuration, .-mc_interface_get_configuration
 859              		.section	.text.mc_interface_dccal_done,"ax",%progbits
 860              		.align	1
 861              		.p2align 4,,15
 862              		.global	mc_interface_dccal_done
 863              		.syntax unified
 864              		.thumb
 865              		.thumb_func
 866              		.fpu fpv4-sp-d16
 867              		.type	mc_interface_dccal_done, %function
 868              	mc_interface_dccal_done:
 869              	.LFB262:
 870              		.loc 1 453 0
 871              		.cfi_startproc
 872              		@ args = 0, pretend = 0, frame = 0
 873              		@ frame_needed = 0, uses_anonymous_args = 0
 874              		@ link register save eliminated.
 875              	.LVL51:
 876              		.loc 1 455 0
 877 0000 074B     		ldr	r3, .L67
 878 0002 9B78     		ldrb	r3, [r3, #2]	@ zero_extendqisi2
 879 0004 032B     		cmp	r3, #3
 880 0006 09D8     		bhi	.L62
 881 0008 DFE803F0 		tbb	[pc, r3]
 882              	.L64:
 883 000c 06       		.byte	(.L63-.L64)/2
 884 000d 06       		.byte	(.L63-.L64)/2
 885 000e 04       		.byte	(.L65-.L64)/2
 886 000f 02       		.byte	(.L66-.L64)/2
 887              		.p2align 1
 888              	.L66:
 889              		.loc 1 466 0
 890 0010 FFF7FEBF 		b	gpdrive_is_dccal_done
 891              	.LVL52:
 892              	.L65:
 893              		.loc 1 462 0
 894 0014 FFF7FEBF 		b	mcpwm_foc_is_dccal_done
 895              	.LVL53:
 896              	.L63:
 897              		.loc 1 458 0
 898 0018 FFF7FEBF 		b	mcpwm_is_dccal_done
 899              	.LVL54:
 900              	.L62:
 901              		.loc 1 474 0
 902 001c 0020     		movs	r0, #0
 903 001e 7047     		bx	lr
 904              	.L68:
 905              		.align	2
 906              	.L67:
 907 0020 00000000 		.word	.LANCHOR12
 908              		.cfi_endproc
 909              	.LFE262:
 910              		.size	mc_interface_dccal_done, .-mc_interface_dccal_done
 911              		.section	.text.mc_interface_set_pwm_callback,"ax",%progbits
 912              		.align	1
ARM GAS  C:\Users\CFAR\AppData\Local\Temp\ccOMEhOc.s 			page 17


 913              		.p2align 4,,15
 914              		.global	mc_interface_set_pwm_callback
 915              		.syntax unified
 916              		.thumb
 917              		.thumb_func
 918              		.fpu fpv4-sp-d16
 919              		.type	mc_interface_set_pwm_callback, %function
 920              	mc_interface_set_pwm_callback:
 921              	.LFB263:
 922              		.loc 1 484 0
 923              		.cfi_startproc
 924              		@ args = 0, pretend = 0, frame = 0
 925              		@ frame_needed = 0, uses_anonymous_args = 0
 926              		@ link register save eliminated.
 927              	.LVL55:
 928              		.loc 1 485 0
 929 0000 014B     		ldr	r3, .L70
 930 0002 1860     		str	r0, [r3]
 931              		.loc 1 486 0
 932 0004 7047     		bx	lr
 933              	.L71:
 934 0006 00BF     		.align	2
 935              	.L70:
 936 0008 00000000 		.word	.LANCHOR22
 937              		.cfi_endproc
 938              	.LFE263:
 939              		.size	mc_interface_set_pwm_callback, .-mc_interface_set_pwm_callback
 940              		.section	.text.mc_interface_lock,"ax",%progbits
 941              		.align	1
 942              		.p2align 4,,15
 943              		.global	mc_interface_lock
 944              		.syntax unified
 945              		.thumb
 946              		.thumb_func
 947              		.fpu fpv4-sp-d16
 948              		.type	mc_interface_lock, %function
 949              	mc_interface_lock:
 950              	.LFB264:
 951              		.loc 1 491 0
 952              		.cfi_startproc
 953              		@ args = 0, pretend = 0, frame = 0
 954              		@ frame_needed = 0, uses_anonymous_args = 0
 955              		@ link register save eliminated.
 956              		.loc 1 492 0
 957 0000 024B     		ldr	r3, .L73
 958 0002 0122     		movs	r2, #1
 959 0004 83F80022 		strb	r2, [r3, #512]
 960              		.loc 1 493 0
 961 0008 7047     		bx	lr
 962              	.L74:
 963 000a 00BF     		.align	2
 964              	.L73:
 965 000c 00000000 		.word	.LANCHOR12
 966              		.cfi_endproc
 967              	.LFE264:
 968              		.size	mc_interface_lock, .-mc_interface_lock
 969              		.section	.text.mc_interface_unlock,"ax",%progbits
ARM GAS  C:\Users\CFAR\AppData\Local\Temp\ccOMEhOc.s 			page 18


 970              		.align	1
 971              		.p2align 4,,15
 972              		.global	mc_interface_unlock
 973              		.syntax unified
 974              		.thumb
 975              		.thumb_func
 976              		.fpu fpv4-sp-d16
 977              		.type	mc_interface_unlock, %function
 978              	mc_interface_unlock:
 979              	.LFB265:
 980              		.loc 1 498 0
 981              		.cfi_startproc
 982              		@ args = 0, pretend = 0, frame = 0
 983              		@ frame_needed = 0, uses_anonymous_args = 0
 984              		@ link register save eliminated.
 985              		.loc 1 499 0
 986 0000 024B     		ldr	r3, .L76
 987 0002 0022     		movs	r2, #0
 988 0004 83F80022 		strb	r2, [r3, #512]
 989              		.loc 1 500 0
 990 0008 7047     		bx	lr
 991              	.L77:
 992 000a 00BF     		.align	2
 993              	.L76:
 994 000c 00000000 		.word	.LANCHOR12
 995              		.cfi_endproc
 996              	.LFE265:
 997              		.size	mc_interface_unlock, .-mc_interface_unlock
 998              		.section	.text.mc_interface_lock_override_once,"ax",%progbits
 999              		.align	1
 1000              		.p2align 4,,15
 1001              		.global	mc_interface_lock_override_once
 1002              		.syntax unified
 1003              		.thumb
 1004              		.thumb_func
 1005              		.fpu fpv4-sp-d16
 1006              		.type	mc_interface_lock_override_once, %function
 1007              	mc_interface_lock_override_once:
 1008              	.LFB266:
 1009              		.loc 1 505 0
 1010              		.cfi_startproc
 1011              		@ args = 0, pretend = 0, frame = 0
 1012              		@ frame_needed = 0, uses_anonymous_args = 0
 1013              		@ link register save eliminated.
 1014              		.loc 1 506 0
 1015 0000 024B     		ldr	r3, .L79
 1016 0002 0122     		movs	r2, #1
 1017 0004 83F80122 		strb	r2, [r3, #513]
 1018              		.loc 1 507 0
 1019 0008 7047     		bx	lr
 1020              	.L80:
 1021 000a 00BF     		.align	2
 1022              	.L79:
 1023 000c 00000000 		.word	.LANCHOR12
 1024              		.cfi_endproc
 1025              	.LFE266:
 1026              		.size	mc_interface_lock_override_once, .-mc_interface_lock_override_once
ARM GAS  C:\Users\CFAR\AppData\Local\Temp\ccOMEhOc.s 			page 19


 1027              		.section	.text.mc_interface_get_fault,"ax",%progbits
 1028              		.align	1
 1029              		.p2align 4,,15
 1030              		.global	mc_interface_get_fault
 1031              		.syntax unified
 1032              		.thumb
 1033              		.thumb_func
 1034              		.fpu fpv4-sp-d16
 1035              		.type	mc_interface_get_fault, %function
 1036              	mc_interface_get_fault:
 1037              	.LFB267:
 1038              		.loc 1 509 0
 1039              		.cfi_startproc
 1040              		@ args = 0, pretend = 0, frame = 0
 1041              		@ frame_needed = 0, uses_anonymous_args = 0
 1042              		@ link register save eliminated.
 1043              		.loc 1 510 0
 1044 0000 014B     		ldr	r3, .L82
 1045 0002 93F8F401 		ldrb	r0, [r3, #500]	@ zero_extendqisi2
 1046              		.loc 1 511 0
 1047 0006 7047     		bx	lr
 1048              	.L83:
 1049              		.align	2
 1050              	.L82:
 1051 0008 00000000 		.word	.LANCHOR12
 1052              		.cfi_endproc
 1053              	.LFE267:
 1054              		.size	mc_interface_get_fault, .-mc_interface_get_fault
 1055              		.section	.text.mc_interface_fault_to_string,"ax",%progbits
 1056              		.align	1
 1057              		.p2align 4,,15
 1058              		.global	mc_interface_fault_to_string
 1059              		.syntax unified
 1060              		.thumb
 1061              		.thumb_func
 1062              		.fpu fpv4-sp-d16
 1063              		.type	mc_interface_fault_to_string, %function
 1064              	mc_interface_fault_to_string:
 1065              	.LFB268:
 1066              		.loc 1 513 0
 1067              		.cfi_startproc
 1068              		@ args = 0, pretend = 0, frame = 0
 1069              		@ frame_needed = 0, uses_anonymous_args = 0
 1070              		@ link register save eliminated.
 1071              	.LVL56:
 1072 0000 1328     		cmp	r0, #19
 1073 0002 9ABF     		itte	ls
 1074 0004 024B     		ldrls	r3, .L87
 1075 0006 53F82000 		ldrls	r0, [r3, r0, lsl #2]
 1076              	.LVL57:
 1077              		.loc 1 513 0
 1078 000a 0248     		ldrhi	r0, .L87+4
 1079              		.loc 1 537 0
 1080 000c 7047     		bx	lr
 1081              	.L88:
 1082 000e 00BF     		.align	2
 1083              	.L87:
ARM GAS  C:\Users\CFAR\AppData\Local\Temp\ccOMEhOc.s 			page 20


 1084 0010 00000000 		.word	.LANCHOR23
 1085 0014 00000000 		.word	.LC1
 1086              		.cfi_endproc
 1087              	.LFE268:
 1088              		.size	mc_interface_fault_to_string, .-mc_interface_fault_to_string
 1089              		.section	.text.mc_interface_get_state,"ax",%progbits
 1090              		.align	1
 1091              		.p2align 4,,15
 1092              		.global	mc_interface_get_state
 1093              		.syntax unified
 1094              		.thumb
 1095              		.thumb_func
 1096              		.fpu fpv4-sp-d16
 1097              		.type	mc_interface_get_state, %function
 1098              	mc_interface_get_state:
 1099              	.LFB269:
 1100              		.loc 1 539 0
 1101              		.cfi_startproc
 1102              		@ args = 0, pretend = 0, frame = 0
 1103              		@ frame_needed = 0, uses_anonymous_args = 0
 1104              		@ link register save eliminated.
 1105              	.LVL58:
 1106              		.loc 1 541 0
 1107 0000 064B     		ldr	r3, .L95
 1108 0002 9B78     		ldrb	r3, [r3, #2]	@ zero_extendqisi2
 1109 0004 DBB2     		uxtb	r3, r3
 1110 0006 012B     		cmp	r3, #1
 1111 0008 05D9     		bls	.L91
 1112 000a 022B     		cmp	r3, #2
 1113 000c 01D1     		bne	.L94
 1114              		.loc 1 548 0
 1115 000e FFF7FEBF 		b	mcpwm_foc_get_state
 1116              	.LVL59:
 1117              	.L94:
 1118              		.loc 1 556 0
 1119 0012 0020     		movs	r0, #0
 1120 0014 7047     		bx	lr
 1121              	.L91:
 1122              		.loc 1 544 0
 1123 0016 FFF7FEBF 		b	mcpwm_get_state
 1124              	.LVL60:
 1125              	.L96:
 1126 001a 00BF     		.align	2
 1127              	.L95:
 1128 001c 00000000 		.word	.LANCHOR12
 1129              		.cfi_endproc
 1130              	.LFE269:
 1131              		.size	mc_interface_get_state, .-mc_interface_get_state
 1132              		.section	.text.mc_interface_get_duty_cycle_set,"ax",%progbits
 1133              		.align	1
 1134              		.p2align 4,,15
 1135              		.global	mc_interface_get_duty_cycle_set
 1136              		.syntax unified
 1137              		.thumb
 1138              		.thumb_func
 1139              		.fpu fpv4-sp-d16
 1140              		.type	mc_interface_get_duty_cycle_set, %function
ARM GAS  C:\Users\CFAR\AppData\Local\Temp\ccOMEhOc.s 			page 21


 1141              	mc_interface_get_duty_cycle_set:
 1142              	.LFB282:
 1143              		.loc 1 799 0
 1144              		.cfi_startproc
 1145              		@ args = 0, pretend = 0, frame = 0
 1146              		@ frame_needed = 0, uses_anonymous_args = 0
 1147              	.LVL61:
 1148 0000 10B5     		push	{r4, lr}
 1149              		.cfi_def_cfa_offset 8
 1150              		.cfi_offset 4, -8
 1151              		.cfi_offset 14, -4
 1152              		.loc 1 802 0
 1153 0002 0B4C     		ldr	r4, .L109
 1154 0004 A378     		ldrb	r3, [r4, #2]	@ zero_extendqisi2
 1155 0006 DBB2     		uxtb	r3, r3
 1156 0008 012B     		cmp	r3, #1
 1157 000a 0DD9     		bls	.L99
 1158 000c 022B     		cmp	r3, #2
 1159 000e 08D0     		beq	.L100
 1160              		.loc 1 800 0
 1161 0010 9FED080A 		vldr.32	s0, .L109+4
 1162              	.LVL62:
 1163              	.L98:
 1164              		.loc 1 816 0
 1165 0014 94F8BD31 		ldrb	r3, [r4, #445]	@ zero_extendqisi2
 1166 0018 03B9     		cbnz	r3, .L108
 1167              		.loc 1 817 0
 1168 001a 10BD     		pop	{r4, pc}
 1169              	.L108:
 1170 001c B1EE400A 		vneg.f32	s0, s0
 1171              	.LVL63:
 1172 0020 10BD     		pop	{r4, pc}
 1173              	.LVL64:
 1174              	.L100:
 1175              		.loc 1 809 0
 1176 0022 FFF7FEFF 		bl	mcpwm_foc_get_duty_cycle_set
 1177              	.LVL65:
 1178              		.loc 1 810 0
 1179 0026 F5E7     		b	.L98
 1180              	.LVL66:
 1181              	.L99:
 1182              		.loc 1 805 0
 1183 0028 FFF7FEFF 		bl	mcpwm_get_duty_cycle_set
 1184              	.LVL67:
 1185              		.loc 1 806 0
 1186 002c F2E7     		b	.L98
 1187              	.L110:
 1188 002e 00BF     		.align	2
 1189              	.L109:
 1190 0030 00000000 		.word	.LANCHOR12
 1191 0034 00000000 		.word	0
 1192              		.cfi_endproc
 1193              	.LFE282:
 1194              		.size	mc_interface_get_duty_cycle_set, .-mc_interface_get_duty_cycle_set
 1195              		.section	.text.mc_interface_get_duty_cycle_now,"ax",%progbits
 1196              		.align	1
 1197              		.p2align 4,,15
ARM GAS  C:\Users\CFAR\AppData\Local\Temp\ccOMEhOc.s 			page 22


 1198              		.global	mc_interface_get_duty_cycle_now
 1199              		.syntax unified
 1200              		.thumb
 1201              		.thumb_func
 1202              		.fpu fpv4-sp-d16
 1203              		.type	mc_interface_get_duty_cycle_now, %function
 1204              	mc_interface_get_duty_cycle_now:
 1205              	.LFB283:
 1206              		.loc 1 819 0
 1207              		.cfi_startproc
 1208              		@ args = 0, pretend = 0, frame = 0
 1209              		@ frame_needed = 0, uses_anonymous_args = 0
 1210              	.LVL68:
 1211 0000 10B5     		push	{r4, lr}
 1212              		.cfi_def_cfa_offset 8
 1213              		.cfi_offset 4, -8
 1214              		.cfi_offset 14, -4
 1215              		.loc 1 822 0
 1216 0002 0B4C     		ldr	r4, .L123
 1217 0004 A378     		ldrb	r3, [r4, #2]	@ zero_extendqisi2
 1218 0006 DBB2     		uxtb	r3, r3
 1219 0008 012B     		cmp	r3, #1
 1220 000a 0DD9     		bls	.L113
 1221 000c 022B     		cmp	r3, #2
 1222 000e 08D0     		beq	.L114
 1223              		.loc 1 820 0
 1224 0010 9FED080A 		vldr.32	s0, .L123+4
 1225              	.LVL69:
 1226              	.L112:
 1227              		.loc 1 836 0
 1228 0014 94F8BD31 		ldrb	r3, [r4, #445]	@ zero_extendqisi2
 1229 0018 03B9     		cbnz	r3, .L122
 1230              		.loc 1 837 0
 1231 001a 10BD     		pop	{r4, pc}
 1232              	.L122:
 1233 001c B1EE400A 		vneg.f32	s0, s0
 1234              	.LVL70:
 1235 0020 10BD     		pop	{r4, pc}
 1236              	.LVL71:
 1237              	.L114:
 1238              		.loc 1 829 0
 1239 0022 FFF7FEFF 		bl	mcpwm_foc_get_duty_cycle_now
 1240              	.LVL72:
 1241              		.loc 1 830 0
 1242 0026 F5E7     		b	.L112
 1243              	.LVL73:
 1244              	.L113:
 1245              		.loc 1 825 0
 1246 0028 FFF7FEFF 		bl	mcpwm_get_duty_cycle_now
 1247              	.LVL74:
 1248              		.loc 1 826 0
 1249 002c F2E7     		b	.L112
 1250              	.L124:
 1251 002e 00BF     		.align	2
 1252              	.L123:
 1253 0030 00000000 		.word	.LANCHOR12
 1254 0034 00000000 		.word	0
ARM GAS  C:\Users\CFAR\AppData\Local\Temp\ccOMEhOc.s 			page 23


 1255              		.cfi_endproc
 1256              	.LFE283:
 1257              		.size	mc_interface_get_duty_cycle_now, .-mc_interface_get_duty_cycle_now
 1258              		.section	.text.mc_interface_get_sampling_frequency_now,"ax",%progbits
 1259              		.align	1
 1260              		.p2align 4,,15
 1261              		.global	mc_interface_get_sampling_frequency_now
 1262              		.syntax unified
 1263              		.thumb
 1264              		.thumb_func
 1265              		.fpu fpv4-sp-d16
 1266              		.type	mc_interface_get_sampling_frequency_now, %function
 1267              	mc_interface_get_sampling_frequency_now:
 1268              	.LFB284:
 1269              		.loc 1 839 0
 1270              		.cfi_startproc
 1271              		@ args = 0, pretend = 0, frame = 0
 1272              		@ frame_needed = 0, uses_anonymous_args = 0
 1273              		@ link register save eliminated.
 1274              	.LVL75:
 1275              		.loc 1 842 0
 1276 0000 084B     		ldr	r3, .L131
 1277 0002 9B78     		ldrb	r3, [r3, #2]	@ zero_extendqisi2
 1278 0004 032B     		cmp	r3, #3
 1279 0006 09D8     		bhi	.L126
 1280 0008 DFE803F0 		tbb	[pc, r3]
 1281              	.L128:
 1282 000c 06       		.byte	(.L127-.L128)/2
 1283 000d 06       		.byte	(.L127-.L128)/2
 1284 000e 04       		.byte	(.L129-.L128)/2
 1285 000f 02       		.byte	(.L130-.L128)/2
 1286              		.p2align 1
 1287              	.L130:
 1288              		.loc 1 853 0
 1289 0010 FFF7FEBF 		b	gpdrive_get_switching_frequency_now
 1290              	.LVL76:
 1291              	.L129:
 1292              		.loc 1 849 0
 1293 0014 FFF7FEBF 		b	mcpwm_foc_get_sampling_frequency_now
 1294              	.LVL77:
 1295              	.L127:
 1296              		.loc 1 845 0
 1297 0018 FFF7FEBF 		b	mcpwm_get_switching_frequency_now
 1298              	.LVL78:
 1299              	.L126:
 1300              		.loc 1 861 0
 1301 001c 9FED020A 		vldr.32	s0, .L131+4
 1302 0020 7047     		bx	lr
 1303              	.L132:
 1304 0022 00BF     		.align	2
 1305              	.L131:
 1306 0024 00000000 		.word	.LANCHOR12
 1307 0028 00000000 		.word	0
 1308              		.cfi_endproc
 1309              	.LFE284:
 1310              		.size	mc_interface_get_sampling_frequency_now, .-mc_interface_get_sampling_frequency_now
 1311              		.section	.text.mc_interface_get_rpm,"ax",%progbits
ARM GAS  C:\Users\CFAR\AppData\Local\Temp\ccOMEhOc.s 			page 24


 1312              		.align	1
 1313              		.p2align 4,,15
 1314              		.global	mc_interface_get_rpm
 1315              		.syntax unified
 1316              		.thumb
 1317              		.thumb_func
 1318              		.fpu fpv4-sp-d16
 1319              		.type	mc_interface_get_rpm, %function
 1320              	mc_interface_get_rpm:
 1321              	.LFB285:
 1322              		.loc 1 863 0
 1323              		.cfi_startproc
 1324              		@ args = 0, pretend = 0, frame = 0
 1325              		@ frame_needed = 0, uses_anonymous_args = 0
 1326              	.LVL79:
 1327 0000 10B5     		push	{r4, lr}
 1328              		.cfi_def_cfa_offset 8
 1329              		.cfi_offset 4, -8
 1330              		.cfi_offset 14, -4
 1331              		.loc 1 866 0
 1332 0002 0B4C     		ldr	r4, .L145
 1333 0004 A378     		ldrb	r3, [r4, #2]	@ zero_extendqisi2
 1334 0006 DBB2     		uxtb	r3, r3
 1335 0008 012B     		cmp	r3, #1
 1336 000a 0DD9     		bls	.L135
 1337 000c 022B     		cmp	r3, #2
 1338 000e 08D0     		beq	.L136
 1339              		.loc 1 864 0
 1340 0010 9FED080A 		vldr.32	s0, .L145+4
 1341              	.LVL80:
 1342              	.L134:
 1343              		.loc 1 880 0
 1344 0014 94F8BD31 		ldrb	r3, [r4, #445]	@ zero_extendqisi2
 1345 0018 03B9     		cbnz	r3, .L144
 1346              		.loc 1 881 0
 1347 001a 10BD     		pop	{r4, pc}
 1348              	.L144:
 1349 001c B1EE400A 		vneg.f32	s0, s0
 1350              	.LVL81:
 1351 0020 10BD     		pop	{r4, pc}
 1352              	.LVL82:
 1353              	.L136:
 1354              		.loc 1 873 0
 1355 0022 FFF7FEFF 		bl	mcpwm_foc_get_rpm
 1356              	.LVL83:
 1357              		.loc 1 874 0
 1358 0026 F5E7     		b	.L134
 1359              	.LVL84:
 1360              	.L135:
 1361              		.loc 1 869 0
 1362 0028 FFF7FEFF 		bl	mcpwm_get_rpm
 1363              	.LVL85:
 1364              		.loc 1 870 0
 1365 002c F2E7     		b	.L134
 1366              	.L146:
 1367 002e 00BF     		.align	2
 1368              	.L145:
ARM GAS  C:\Users\CFAR\AppData\Local\Temp\ccOMEhOc.s 			page 25


 1369 0030 00000000 		.word	.LANCHOR12
 1370 0034 00000000 		.word	0
 1371              		.cfi_endproc
 1372              	.LFE285:
 1373              		.size	mc_interface_get_rpm, .-mc_interface_get_rpm
 1374              		.section	.text.update_override_limits.constprop.6,"ax",%progbits
 1375              		.align	1
 1376              		.p2align 4,,15
 1377              		.syntax unified
 1378              		.thumb
 1379              		.thumb_func
 1380              		.fpu fpv4-sp-d16
 1381              		.type	update_override_limits.constprop.6, %function
 1382              	update_override_limits.constprop.6:
 1383              	.LFB333:
 1384              		.loc 1 1844 0
 1385              		.cfi_startproc
 1386              		@ args = 0, pretend = 0, frame = 0
 1387              		@ frame_needed = 0, uses_anonymous_args = 0
 1388              	.LVL86:
 1389 0000 38B5     		push	{r3, r4, r5, lr}
 1390              		.cfi_def_cfa_offset 16
 1391              		.cfi_offset 3, -16
 1392              		.cfi_offset 4, -12
 1393              		.cfi_offset 5, -8
 1394              		.cfi_offset 14, -4
 1395              		.loc 1 1847 0
 1396 0002 7E4D     		ldr	r5, .L249
 1397 0004 9FED7E7A 		vldr.32	s14, .L249+4
 1398 0008 2B8A     		ldrh	r3, [r5, #16]
 1399 000a DFED7E7A 		vldr.32	s15, .L249+8
 1400              		.loc 1 1851 0
 1401 000e 7E4C     		ldr	r4, .L249+12
 1402              		.loc 1 1844 0
 1403 0010 2DED0C8B 		vpush.64	{d8, d9, d10, d11, d12, d13}
 1404              		.cfi_def_cfa_offset 64
 1405              		.cfi_offset 80, -64
 1406              		.cfi_offset 81, -60
 1407              		.cfi_offset 82, -56
 1408              		.cfi_offset 83, -52
 1409              		.cfi_offset 84, -48
 1410              		.cfi_offset 85, -44
 1411              		.cfi_offset 86, -40
 1412              		.cfi_offset 87, -36
 1413              		.cfi_offset 88, -32
 1414              		.cfi_offset 89, -28
 1415              		.cfi_offset 90, -24
 1416              		.cfi_offset 91, -20
 1417              		.loc 1 1847 0
 1418 0014 08EE103A 		vmov	s16, r3	@ int
 1419 0018 B8EE488A 		vcvt.f32.u32	s16, s16
 1420              		.loc 1 1851 0
 1421 001c 9FED7B9A 		vldr.32	s18, .L249+16
 1422 0020 9FED7BBA 		vldr.32	s22, .L249+20
 1423 0024 DFED7BAA 		vldr.32	s21, .L249+24
 1424              		.loc 1 1847 0
 1425 0028 28EE078A 		vmul.f32	s16, s16, s14
ARM GAS  C:\Users\CFAR\AppData\Local\Temp\ccOMEhOc.s 			page 26


 1426              		.loc 1 1851 0
 1427 002c F7EE00BA 		vmov.f32	s23, #1.0e+0
 1428              		.loc 1 1847 0
 1429 0030 28EE278A 		vmul.f32	s16, s16, s15
 1430              	.LVL87:
 1431              		.loc 1 1848 0
 1432 0034 FFF7FEFF 		bl	mc_interface_get_rpm
 1433              	.LVL88:
 1434 0038 F0EE409A 		vmov.f32	s19, s0
 1435              	.LVL89:
 1436              		.loc 1 1849 0
 1437 003c FFF7FEFF 		bl	mc_interface_get_duty_cycle_now
 1438              	.LVL90:
 1439              		.loc 1 1851 0
 1440 0040 D4ED928A 		vldr.32	s17, [r4, #584]
 1441 0044 6B89     		ldrh	r3, [r5, #10]
 1442 0046 9FED747A 		vldr.32	s14, .L249+28
 1443 004a 07EE903A 		vmov	s15, r3	@ int
 1444 004e F8EEE77A 		vcvt.f32.s32	s15, s15
 1445              		.loc 1 1849 0
 1446 0052 B0EEC0AA 		vabs.f32	s20, s0
 1447              	.LVL91:
 1448              		.loc 1 1851 0
 1449 0056 87EE270A 		vdiv.f32	s0, s14, s15
 1450 005a 30EE490A 		vsub.f32	s0, s0, s18
 1451 005e 80EE090A 		vdiv.f32	s0, s0, s18
 1452 0062 FFF7FEFF 		bl	logf
 1453              	.LVL92:
 1454 0066 9FED6D7A 		vldr.32	s14, .L249+32
 1455 006a D4ED927A 		vldr.32	s15, [r4, #584]
 1456 006e DFED6C6A 		vldr.32	s13, .L249+36
 1457 0072 80EE070A 		vdiv.f32	s0, s0, s14
 1458 0076 30EE0B0A 		vadd.f32	s0, s0, s22
 1459 007a 8BEE807A 		vdiv.f32	s14, s23, s0
 1460 007e 37EE6A7A 		vsub.f32	s14, s14, s21
 1461 0082 78EEC78A 		vsub.f32	s17, s17, s14
 1462 0086 E8EEE67A 		vfms.f32	s15, s17, s13
 1463 008a C4ED927A 		vstr.32	s15, [r4, #584]
 1464              	.LVL93:
 1465              		.loc 1 1854 0
 1466 008e 94F8D531 		ldrb	r3, [r4, #469]	@ zero_extendqisi2
 1467 0092 DBB2     		uxtb	r3, r3
 1468 0094 012B     		cmp	r3, #1
 1469 0096 00F0EB82 		beq	.L149
 1470 009a C0F0CD82 		bcc	.L150
 1471 009e 022B     		cmp	r3, #2
 1472 00a0 40F08380 		bne	.L235
 1473              	.LBB504:
 1474              		.loc 1 1868 0
 1475 00a4 EB8A     		ldrh	r3, [r5, #22]
 1476 00a6 DFED5F6A 		vldr.32	s13, .L249+40
 1477              		.loc 1 1870 0
 1478 00aa DFED5F7A 		vldr.32	s15, .L249+44
 1479 00ae DFED5F4A 		vldr.32	s9, .L249+48
 1480 00b2 9FED5F5A 		vldr.32	s10, .L249+52
 1481 00b6 DFED5F5A 		vldr.32	s11, .L249+56
 1482              		.loc 1 1868 0
ARM GAS  C:\Users\CFAR\AppData\Local\Temp\ccOMEhOc.s 			page 27


 1483 00ba 06EE103A 		vmov	s12, r3	@ int
 1484 00be B8EE466A 		vcvt.f32.u32	s12, s12
 1485 00c2 86EE867A 		vdiv.f32	s14, s13, s12
 1486 00c6 77EE6BBA 		vsub.f32	s23, s14, s23
 1487 00ca 89EE2B7A 		vdiv.f32	s14, s18, s23
 1488              	.LVL94:
 1489              		.loc 1 1869 0
 1490 00ce 67EE076A 		vmul.f32	s13, s14, s14
 1491              	.LVL95:
 1492              		.loc 1 1870 0
 1493 00d2 67EEE67A 		vnmul.f32	s15, s15, s13
 1494 00d6 66EEA46A 		vmul.f32	s13, s13, s9
 1495              	.LVL96:
 1496 00da E7EE267A 		vfma.f32	s15, s14, s13
 1497 00de E7EE057A 		vfma.f32	s15, s14, s10
 1498 00e2 77EEE57A 		vsub.f32	s15, s15, s11
 1499              	.LVL97:
 1500              	.L148:
 1501              	.LBE504:
 1502              		.loc 1 1880 0
 1503 00e6 F4EE677A 		vcmp.f32	s15, s15
 1504 00ea F1EE10FA 		vmrs	APSR_nzcv, FPSCR
 1505 00ee 5ED0     		beq	.L225
 1506              	.LVL98:
 1507              	.L191:
 1508              		.loc 1 1881 0
 1509 00f0 DFED517A 		vldr.32	s15, .L249+60
 1510              	.L152:
 1511              	.LVL99:
 1512              		.loc 1 1884 0
 1513 00f4 D4ED936A 		vldr.32	s13, [r4, #588]
 1514 00f8 9FED506A 		vldr.32	s12, .L249+64
 1515 00fc 94ED937A 		vldr.32	s14, [r4, #588]
 1516 0100 76EEE77A 		vsub.f32	s15, s13, s15
 1517              	.LVL100:
 1518 0104 A7EEC67A 		vfms.f32	s14, s15, s12
 1519 0108 84ED937A 		vstr.32	s14, [r4, #588]
 1520              		.loc 1 1890 0
 1521 010c 94ED029A 		vldr.32	s18, [r4, #8]
 1522 0110 94ED1A6A 		vldr.32	s12, [r4, #104]
 1523              		.loc 1 1891 0
 1524 0114 D4ED018A 		vldr.32	s17, [r4, #4]
 1525 0118 D4ED196A 		vldr.32	s13, [r4, #100]
 1526              		.loc 1 1896 0
 1527 011c 94ED927A 		vldr.32	s14, [r4, #584]
 1528 0120 D4ED107A 		vldr.32	s15, [r4, #64]
 1529 0124 B4EEE77A 		vcmpe.f32	s14, s15
 1530 0128 F1EE10FA 		vmrs	APSR_nzcv, FPSCR
 1531              		.loc 1 1890 0
 1532 012c 29EE069A 		vmul.f32	s18, s18, s12
 1533              	.LVL101:
 1534              		.loc 1 1891 0
 1535 0130 68EEA68A 		vmul.f32	s17, s17, s13
 1536              	.LVL102:
 1537              		.loc 1 1896 0
 1538 0134 00F18A80 		bmi	.L193
 1539              		.loc 1 1898 0
ARM GAS  C:\Users\CFAR\AppData\Local\Temp\ccOMEhOc.s 			page 28


 1540 0138 94ED927A 		vldr.32	s14, [r4, #584]
 1541 013c D4ED117A 		vldr.32	s15, [r4, #68]
 1542 0140 B4EEE77A 		vcmpe.f32	s14, s15
 1543 0144 F1EE10FA 		vmrs	APSR_nzcv, FPSCR
 1544 0148 00F32282 		bgt	.L236
 1545              	.LBB505:
 1546              		.loc 1 1904 0
 1547 014c F0EEC9BA 		vabs.f32	s23, s18
 1548              		.loc 1 1903 0
 1549 0150 B0EEE8BA 		vabs.f32	s22, s17
 1550              	.LVL103:
 1551 0154 B4EEEBBA 		vcmpe.f32	s22, s23
 1552 0158 F1EE10FA 		vmrs	APSR_nzcv, FPSCR
 1553              	.LVL104:
 1554              		.loc 1 1908 0
 1555 015c 94ED920A 		vldr.32	s0, [r4, #584]
 1556 0160 9FED392A 		vldr.32	s4, .L249+76
 1557 0164 D4ED100A 		vldr.32	s1, [r4, #64]
 1558 0168 94ED111A 		vldr.32	s2, [r4, #68]
 1559 016c 54BF     		ite	pl
 1560 016e F0EE4B1A 		vmovpl.f32	s3, s22
 1561 0172 F0EE6B1A 		vmovmi.f32	s3, s23
 1562              	.LVL105:
 1563 0176 FFF7FEFF 		bl	utils_map
 1564              	.LVL106:
 1565              		.loc 1 1910 0
 1566 017a F4EEC0BA 		vcmpe.f32	s23, s0
 1567 017e F1EE10FA 		vmrs	APSR_nzcv, FPSCR
 1568              		.loc 1 1908 0
 1569 0182 F0EE40AA 		vmov.f32	s21, s0
 1570              	.LVL107:
 1571              		.loc 1 1910 0
 1572 0186 00F3E281 		bgt	.L237
 1573              		.loc 1 1914 0
 1574 018a B4EEEABA 		vcmpe.f32	s22, s21
 1575 018e F1EE10FA 		vmrs	APSR_nzcv, FPSCR
 1576              	.LBE505:
 1577              		.loc 1 1894 0
 1578 0192 F0EE49CA 		vmov.f32	s25, s18
 1579              	.LBB506:
 1580              		.loc 1 1914 0
 1581 0196 40F3E981 		ble	.L229
 1582              	.LVL108:
 1583              	.L248:
 1584              		.loc 1 1915 0
 1585 019a F5EEC08A 		vcmpe.f32	s17, #0
 1586 019e F1EE10FA 		vmrs	APSR_nzcv, FPSCR
 1587 01a2 57D5     		bpl	.L153
 1588 01a4 F1EE6AAA 		vneg.f32	s21, s21
 1589              	.LVL109:
 1590 01a8 54E0     		b	.L153
 1591              	.LVL110:
 1592              	.L235:
 1593              	.LBE506:
 1594              		.loc 1 1852 0
 1595 01aa DFED277A 		vldr.32	s15, .L249+76
 1596              	.LVL111:
ARM GAS  C:\Users\CFAR\AppData\Local\Temp\ccOMEhOc.s 			page 29


 1597              	.L225:
 1598              		.loc 1 1880 0
 1599 01ae 9FED267A 		vldr.32	s14, .L249+76
 1600 01b2 B7EE006A 		vmov.f32	s12, #1.0e+0
 1601 01b6 C6EE076A 		vdiv.f32	s13, s12, s14
 1602 01ba F4EE667A 		vcmp.f32	s15, s13
 1603 01be F1EE10FA 		vmrs	APSR_nzcv, FPSCR
 1604 01c2 95D0     		beq	.L191
 1605 01c4 BFEE006A 		vmov.f32	s12, #-1.0e+0
 1606 01c8 C6EE076A 		vdiv.f32	s13, s12, s14
 1607 01cc F4EE667A 		vcmp.f32	s15, s13
 1608 01d0 F1EE10FA 		vmrs	APSR_nzcv, FPSCR
 1609 01d4 8CD0     		beq	.L191
 1610 01d6 9FED1A7A 		vldr.32	s14, .L249+68
 1611 01da F4EEC77A 		vcmpe.f32	s15, s14
 1612 01de F1EE10FA 		vmrs	APSR_nzcv, FPSCR
 1613 01e2 85DC     		bgt	.L191
 1614 01e4 DFED176A 		vldr.32	s13, .L249+72
 1615              		.loc 1 1881 0
 1616 01e8 9FED137A 		vldr.32	s14, .L249+60
 1617 01ec F4EE667A 		vcmp.f32	s15, s13
 1618 01f0 F1EE10FA 		vmrs	APSR_nzcv, FPSCR
 1619 01f4 48BF     		it	mi
 1620 01f6 F0EE477A 		vmovmi.f32	s15, s14
 1621 01fa 7BE7     		b	.L152
 1622              	.L250:
 1623              		.align	2
 1624              	.L249:
 1625 01fc 00000000 		.word	.LANCHOR24
 1626 0200 6740533A 		.word	978534503
 1627 0204 74D19541 		.word	1100337524
 1628 0208 00000000 		.word	.LANCHOR12
 1629 020c 00401C46 		.word	1176256512
 1630 0210 0FCF5B3B 		.word	995872527
 1631 0214 33938843 		.word	1133024051
 1632 0218 3C361C4C 		.word	1276917308
 1633 021c 00A05645 		.word	1163304960
 1634 0220 CDCCCC3D 		.word	1036831949
 1635 0224 00F07F45 		.word	1166012416
 1636 0228 C8BB9238 		.word	949140424
 1637 022c 996E2F32 		.word	841969305
 1638 0230 623E793E 		.word	1048133218
 1639 0234 22252043 		.word	1126180130
 1640 0238 0000C8C2 		.word	-1027080192
 1641 023c 0AD7233C 		.word	1008981770
 1642 0240 00001644 		.word	1142292480
 1643 0244 000048C3 		.word	-1018691584
 1644 0248 00000000 		.word	0
 1645              	.LVL112:
 1646              	.L193:
 1647              		.loc 1 1895 0
 1648 024c F0EE68AA 		vmov.f32	s21, s17
 1649              		.loc 1 1894 0
 1650 0250 F0EE49CA 		vmov.f32	s25, s18
 1651              	.LVL113:
 1652              	.L153:
 1653              		.loc 1 1922 0
ARM GAS  C:\Users\CFAR\AppData\Local\Temp\ccOMEhOc.s 			page 30


 1654 0254 94ED937A 		vldr.32	s14, [r4, #588]
 1655 0258 D4ED127A 		vldr.32	s15, [r4, #72]
 1656 025c B4EEE77A 		vcmpe.f32	s14, s15
 1657 0260 F1EE10FA 		vmrs	APSR_nzcv, FPSCR
 1658 0264 36D4     		bmi	.L232
 1659              		.loc 1 1924 0
 1660 0266 94ED937A 		vldr.32	s14, [r4, #588]
 1661 026a D4ED137A 		vldr.32	s15, [r4, #76]
 1662 026e B4EEE77A 		vcmpe.f32	s14, s15
 1663 0272 F1EE10FA 		vmrs	APSR_nzcv, FPSCR
 1664 0276 00F39B81 		bgt	.L238
 1665              	.LBB507:
 1666              		.loc 1 1930 0
 1667 027a B0EEC9CA 		vabs.f32	s24, s18
 1668              		.loc 1 1929 0
 1669 027e F0EEE8BA 		vabs.f32	s23, s17
 1670              	.LVL114:
 1671 0282 F4EECCBA 		vcmpe.f32	s23, s24
 1672 0286 F1EE10FA 		vmrs	APSR_nzcv, FPSCR
 1673              	.LVL115:
 1674              		.loc 1 1934 0
 1675 028a 94ED930A 		vldr.32	s0, [r4, #588]
 1676 028e 1FED122A 		vldr.32	s4, .L249+76
 1677 0292 D4ED120A 		vldr.32	s1, [r4, #72]
 1678 0296 94ED131A 		vldr.32	s2, [r4, #76]
 1679 029a 54BF     		ite	pl
 1680 029c F0EE6B1A 		vmovpl.f32	s3, s23
 1681 02a0 F0EE4C1A 		vmovmi.f32	s3, s24
 1682              	.LVL116:
 1683 02a4 FFF7FEFF 		bl	utils_map
 1684              	.LVL117:
 1685              		.loc 1 1936 0
 1686 02a8 B4EEC0CA 		vcmpe.f32	s24, s0
 1687 02ac F1EE10FA 		vmrs	APSR_nzcv, FPSCR
 1688              		.loc 1 1934 0
 1689 02b0 B0EE40BA 		vmov.f32	s22, s0
 1690              	.LVL118:
 1691              		.loc 1 1936 0
 1692 02b4 08DD     		ble	.L168
 1693              		.loc 1 1937 0
 1694 02b6 B5EEC09A 		vcmpe.f32	s18, #0
 1695 02ba F1EE10FA 		vmrs	APSR_nzcv, FPSCR
 1696 02be 4CBF     		ite	mi
 1697 02c0 B1EE409A 		vnegmi.f32	s18, s0
 1698              	.LVL119:
 1699 02c4 B0EE409A 		vmovpl.f32	s18, s0
 1700              	.L168:
 1701              	.LVL120:
 1702              		.loc 1 1940 0
 1703 02c8 F4EECBBA 		vcmpe.f32	s23, s22
 1704 02cc F1EE10FA 		vmrs	APSR_nzcv, FPSCR
 1705 02d0 00F33481 		bgt	.L239
 1706              	.LVL121:
 1707              	.L232:
 1708              	.LBE507:
 1709              		.loc 1 1921 0
 1710 02d4 B0EE68BA 		vmov.f32	s22, s17
ARM GAS  C:\Users\CFAR\AppData\Local\Temp\ccOMEhOc.s 			page 31


 1711              	.LVL122:
 1712              	.L164:
 1713              		.loc 1 1947 0
 1714 02d8 94ED140A 		vldr.32	s0, [r4, #80]
 1715 02dc 5FED260A 		vldr.32	s1, .L249+76
 1716 02e0 D4ED101A 		vldr.32	s3, [r4, #64]
 1717 02e4 B3EE092A 		vmov.f32	s4, #2.5e+1
 1718 02e8 B7EE001A 		vmov.f32	s2, #1.0e+0
 1719 02ec FFF7FEFF 		bl	utils_map
 1720              	.LVL123:
 1721              		.loc 1 1948 0
 1722 02f0 5FED2B0A 		vldr.32	s1, .L249+76
 1723              		.loc 1 1947 0
 1724 02f4 B0EE40CA 		vmov.f32	s24, s0
 1725              	.LVL124:
 1726              		.loc 1 1948 0
 1727 02f8 B3EE092A 		vmov.f32	s4, #2.5e+1
 1728 02fc 94ED140A 		vldr.32	s0, [r4, #80]
 1729              	.LVL125:
 1730 0300 D4ED111A 		vldr.32	s3, [r4, #68]
 1731 0304 B7EE001A 		vmov.f32	s2, #1.0e+0
 1732 0308 FFF7FEFF 		bl	utils_map
 1733              	.LVL126:
 1734              		.loc 1 1949 0
 1735 030c 5FED320A 		vldr.32	s1, .L249+76
 1736 0310 B3EE092A 		vmov.f32	s4, #2.5e+1
 1737 0314 B7EE001A 		vmov.f32	s2, #1.0e+0
 1738              		.loc 1 1948 0
 1739 0318 B0EE40DA 		vmov.f32	s26, s0
 1740              	.LVL127:
 1741              		.loc 1 1949 0
 1742 031c 94ED140A 		vldr.32	s0, [r4, #80]
 1743              	.LVL128:
 1744 0320 D4ED121A 		vldr.32	s3, [r4, #72]
 1745 0324 FFF7FEFF 		bl	utils_map
 1746              	.LVL129:
 1747              		.loc 1 1950 0
 1748 0328 5FED390A 		vldr.32	s1, .L249+76
 1749              		.loc 1 1949 0
 1750 032c F0EE40BA 		vmov.f32	s23, s0
 1751              	.LVL130:
 1752              		.loc 1 1950 0
 1753 0330 B3EE092A 		vmov.f32	s4, #2.5e+1
 1754 0334 94ED140A 		vldr.32	s0, [r4, #80]
 1755              	.LVL131:
 1756 0338 D4ED131A 		vldr.32	s3, [r4, #76]
 1757 033c B7EE001A 		vmov.f32	s2, #1.0e+0
 1758 0340 FFF7FEFF 		bl	utils_map
 1759              	.LVL132:
 1760              		.loc 1 1953 0
 1761 0344 D4ED927A 		vldr.32	s15, [r4, #584]
 1762 0348 B4EEE7CA 		vcmpe.f32	s24, s15
 1763 034c F1EE10FA 		vmrs	APSR_nzcv, FPSCR
 1764              		.loc 1 1950 0
 1765 0350 F0EE40DA 		vmov.f32	s27, s0
 1766              	.LVL133:
 1767              		.loc 1 1953 0
ARM GAS  C:\Users\CFAR\AppData\Local\Temp\ccOMEhOc.s 			page 32


 1768 0354 00F3C680 		bgt	.L202
 1769              		.loc 1 1955 0
 1770 0358 D4ED927A 		vldr.32	s15, [r4, #584]
 1771 035c B4EEE7DA 		vcmpe.f32	s26, s15
 1772 0360 F1EE10FA 		vmrs	APSR_nzcv, FPSCR
 1773 0364 40F15981 		bpl	.L240
 1774              		.loc 1 1956 0
 1775 0368 1FED49CA 		vldr.32	s24, .L249+76
 1776              	.LVL134:
 1777              	.L175:
 1778              		.loc 1 1963 0
 1779 036c D4ED937A 		vldr.32	s15, [r4, #588]
 1780 0370 F4EEE7BA 		vcmpe.f32	s23, s15
 1781 0374 F1EE10FA 		vmrs	APSR_nzcv, FPSCR
 1782 0378 00F3BE80 		bgt	.L204
 1783              	.L247:
 1784              		.loc 1 1965 0
 1785 037c D4ED937A 		vldr.32	s15, [r4, #588]
 1786 0380 F4EEE7DA 		vcmpe.f32	s27, s15
 1787 0384 F1EE10FA 		vmrs	APSR_nzcv, FPSCR
 1788 0388 40F13881 		bpl	.L241
 1789              		.loc 1 1966 0
 1790 038c 5FED52BA 		vldr.32	s23, .L249+76
 1791              	.LVL135:
 1792              	.L176:
 1793              		.loc 1 1974 0
 1794 0390 D4ED070A 		vldr.32	s1, [r4, #28]
 1795 0394 D4ED087A 		vldr.32	s15, [r4, #32]
 1796              		.loc 1 1975 0
 1797 0398 94ED071A 		vldr.32	s2, [r4, #28]
 1798              		.loc 1 1974 0
 1799 039c 60EEA70A 		vmul.f32	s1, s1, s15
 1800              	.LVL136:
 1801              		.loc 1 1976 0
 1802 03a0 F4EEE09A 		vcmpe.f32	s19, s1
 1803 03a4 F1EE10FA 		vmrs	APSR_nzcv, FPSCR
 1804 03a8 00F1C280 		bmi	.L206
 1805              		.loc 1 1978 0
 1806 03ac F4EEC19A 		vcmpe.f32	s19, s2
 1807 03b0 F1EE10FA 		vmrs	APSR_nzcv, FPSCR
 1808 03b4 40F31781 		ble	.L242
 1809              		.loc 1 1979 0
 1810 03b8 1FED5DDA 		vldr.32	s26, .L249+76
 1811              	.LVL137:
 1812              	.L177:
 1813              		.loc 1 1986 0
 1814 03bc D4ED060A 		vldr.32	s1, [r4, #24]
 1815 03c0 D4ED087A 		vldr.32	s15, [r4, #32]
 1816              		.loc 1 1987 0
 1817 03c4 94ED061A 		vldr.32	s2, [r4, #24]
 1818              		.loc 1 1986 0
 1819 03c8 60EEA70A 		vmul.f32	s1, s1, s15
 1820              	.LVL138:
 1821              		.loc 1 1988 0
 1822 03cc F4EEE09A 		vcmpe.f32	s19, s1
 1823 03d0 F1EE10FA 		vmrs	APSR_nzcv, FPSCR
 1824 03d4 00F39380 		bgt	.L208
ARM GAS  C:\Users\CFAR\AppData\Local\Temp\ccOMEhOc.s 			page 33


 1825              		.loc 1 1990 0
 1826 03d8 F4EEC19A 		vcmpe.f32	s19, s2
 1827 03dc F1EE10FA 		vmrs	APSR_nzcv, FPSCR
 1828 03e0 40F1F680 		bpl	.L243
 1829              		.loc 1 1991 0
 1830 03e4 5FED689A 		vldr.32	s19, .L249+76
 1831              	.LVL139:
 1832              	.L178:
 1833              		.loc 1 1998 0
 1834 03e8 D4ED1B7A 		vldr.32	s15, [r4, #108]
 1835 03ec B4EEE7AA 		vcmpe.f32	s20, s15
 1836 03f0 F1EE10FA 		vmrs	APSR_nzcv, FPSCR
 1837 03f4 40F18D80 		bpl	.L244
 1838              	.LVL140:
 1839              	.L179:
 1840              		.loc 1 2004 0
 1841 03f8 F0EE4B0A 		vmov.f32	s1, s22
 1842 03fc B0EE6A0A 		vmov.f32	s0, s21
 1843 0400 FFF7FEFF 		bl	utils_min_abs
 1844              	.LVL141:
 1845              		.loc 1 2005 0
 1846 0404 F0EE490A 		vmov.f32	s1, s18
 1847              		.loc 1 2004 0
 1848 0408 B0EE40AA 		vmov.f32	s20, s0
 1849              	.LVL142:
 1850              		.loc 1 2005 0
 1851 040c B0EE6C0A 		vmov.f32	s0, s25
 1852              	.LVL143:
 1853 0410 FFF7FEFF 		bl	utils_min_abs
 1854              	.LVL144:
 1855              		.loc 1 2007 0
 1856 0414 F0EE4D0A 		vmov.f32	s1, s26
 1857              		.loc 1 2005 0
 1858 0418 B0EE409A 		vmov.f32	s18, s0
 1859              	.LVL145:
 1860              		.loc 1 2007 0
 1861 041c B0EE4A0A 		vmov.f32	s0, s20
 1862              	.LVL146:
 1863 0420 FFF7FEFF 		bl	utils_min_abs
 1864              	.LVL147:
 1865              		.loc 1 2008 0
 1866 0424 F0EE690A 		vmov.f32	s1, s19
 1867 0428 FFF7FEFF 		bl	utils_min_abs
 1868              	.LVL148:
 1869              		.loc 1 2009 0
 1870 042c F0EE4C0A 		vmov.f32	s1, s24
 1871 0430 FFF7FEFF 		bl	utils_min_abs
 1872              	.LVL149:
 1873              		.loc 1 2010 0
 1874 0434 F0EE6B0A 		vmov.f32	s1, s23
 1875 0438 FFF7FEFF 		bl	utils_min_abs
 1876              	.LVL150:
 1877              		.loc 1 2011 0
 1878 043c F0EE680A 		vmov.f32	s1, s17
 1879 0440 FFF7FEFF 		bl	utils_min_abs
 1880              	.LVL151:
 1881              		.loc 1 2013 0
ARM GAS  C:\Users\CFAR\AppData\Local\Temp\ccOMEhOc.s 			page 34


 1882 0444 D4ED687A 		vldr.32	s15, [r4, #416]
 1883 0448 B4EEE70A 		vcmpe.f32	s0, s15
 1884 044c F1EE10FA 		vmrs	APSR_nzcv, FPSCR
 1885              		.loc 1 2014 0
 1886 0450 48BF     		it	mi
 1887 0452 94ED680A 		vldrmi.32	s0, [r4, #416]
 1888              	.LVL152:
 1889              		.loc 1 2017 0
 1890 0456 D4ED687A 		vldr.32	s15, [r4, #416]
 1891 045a F1EE677A 		vneg.f32	s15, s15
 1892 045e B4EEE79A 		vcmpe.f32	s18, s15
 1893 0462 F1EE10FA 		vmrs	APSR_nzcv, FPSCR
 1894              		.loc 1 2018 0
 1895 0466 C8BF     		it	gt
 1896 0468 94ED689A 		vldrgt.32	s18, [r4, #416]
 1897              	.LVL153:
 1898              		.loc 1 2021 0
 1899 046c 84ED1C0A 		vstr.32	s0, [r4, #112]
 1900              		.loc 1 2018 0
 1901 0470 C8BF     		it	gt
 1902 0472 B1EE499A 		vneggt.f32	s18, s18
 1903              	.LVL154:
 1904              		.loc 1 2022 0
 1905 0476 84ED1D9A 		vstr.32	s18, [r4, #116]
 1906              	.LVL155:
 1907              		.loc 1 2026 0
 1908 047a D4ED0D7A 		vldr.32	s15, [r4, #52]
 1909 047e B4EEE78A 		vcmpe.f32	s16, s15
 1910 0482 F1EE10FA 		vmrs	APSR_nzcv, FPSCR
 1911 0486 56DC     		bgt	.L245
 1912              		.loc 1 2028 0
 1913 0488 D4ED0E7A 		vldr.32	s15, [r4, #56]
 1914 048c B4EEE78A 		vcmpe.f32	s16, s15
 1915 0490 F1EE10FA 		vmrs	APSR_nzcv, FPSCR
 1916 0494 6DD5     		bpl	.L246
 1917              		.loc 1 2029 0
 1918 0496 5FED940A 		vldr.32	s1, .L249+76
 1919              	.LVL156:
 1920              	.L186:
 1921              		.loc 1 2036 0
 1922 049a 94ED170A 		vldr.32	s0, [r4, #92]
 1923              	.LVL157:
 1924              		.loc 1 2037 0
 1925 049e 94ED187A 		vldr.32	s14, [r4, #96]
 1926 04a2 C7EE088A 		vdiv.f32	s17, s14, s16
 1927              	.LVL158:
 1928              		.loc 1 2039 0
 1929 04a6 80EE080A 		vdiv.f32	s0, s0, s16
 1930              	.LVL159:
 1931 04aa FFF7FEFF 		bl	utils_min_abs
 1932              	.LVL160:
 1933              		.loc 1 2042 0
 1934 04ae D4ED037A 		vldr.32	s15, [r4, #12]
 1935 04b2 F0EE400A 		vmov.f32	s1, s0
 1936 04b6 B0EE670A 		vmov.f32	s0, s15
 1937              	.LVL161:
 1938 04ba FFF7FEFF 		bl	utils_min_abs
ARM GAS  C:\Users\CFAR\AppData\Local\Temp\ccOMEhOc.s 			page 35


 1939              	.LVL162:
 1940 04be 84ED1E0A 		vstr.32	s0, [r4, #120]
 1941              		.loc 1 2043 0
 1942 04c2 F0EE680A 		vmov.f32	s1, s17
 1943 04c6 94ED040A 		vldr.32	s0, [r4, #16]
 1944 04ca FFF7FEFF 		bl	utils_min_abs
 1945              	.LVL163:
 1946              		.loc 1 2065 0
 1947 04ce BDEC0C8B 		vldm	sp!, {d8-d13}
 1948              		.cfi_remember_state
 1949              		.cfi_restore 90
 1950              		.cfi_restore 91
 1951              		.cfi_restore 88
 1952              		.cfi_restore 89
 1953              		.cfi_restore 86
 1954              		.cfi_restore 87
 1955              		.cfi_restore 84
 1956              		.cfi_restore 85
 1957              		.cfi_restore 82
 1958              		.cfi_restore 83
 1959              		.cfi_restore 80
 1960              		.cfi_restore 81
 1961              		.cfi_def_cfa_offset 16
 1962              	.LVL164:
 1963              		.loc 1 2043 0
 1964 04d2 84ED1F0A 		vstr.32	s0, [r4, #124]
 1965              		.loc 1 2063 0
 1966 04d6 236F     		ldr	r3, [r4, #112]	@ float
 1967 04d8 C4F88030 		str	r3, [r4, #128]	@ float
 1968              		.loc 1 2064 0
 1969 04dc 636F     		ldr	r3, [r4, #116]	@ float
 1970 04de C4F88430 		str	r3, [r4, #132]	@ float
 1971              		.loc 1 2065 0
 1972 04e2 38BD     		pop	{r3, r4, r5, pc}
 1973              	.LVL165:
 1974              	.L202:
 1975              		.cfi_restore_state
 1976              		.loc 1 1963 0
 1977 04e4 D4ED937A 		vldr.32	s15, [r4, #588]
 1978 04e8 F4EEE7BA 		vcmpe.f32	s23, s15
 1979 04ec F1EE10FA 		vmrs	APSR_nzcv, FPSCR
 1980              		.loc 1 1954 0
 1981 04f0 B0EE68CA 		vmov.f32	s24, s17
 1982              	.LVL166:
 1983              		.loc 1 1963 0
 1984 04f4 7FF742AF 		ble	.L247
 1985              	.LVL167:
 1986              	.L204:
 1987              		.loc 1 1964 0
 1988 04f8 F0EE68BA 		vmov.f32	s23, s17
 1989              	.LVL168:
 1990 04fc 48E7     		b	.L176
 1991              	.LVL169:
 1992              	.L208:
 1993              		.loc 1 1998 0
 1994 04fe D4ED1B7A 		vldr.32	s15, [r4, #108]
 1995 0502 B4EEE7AA 		vcmpe.f32	s20, s15
ARM GAS  C:\Users\CFAR\AppData\Local\Temp\ccOMEhOc.s 			page 36


 1996 0506 F1EE10FA 		vmrs	APSR_nzcv, FPSCR
 1997              		.loc 1 1989 0
 1998 050a F0EE689A 		vmov.f32	s19, s17
 1999              	.LVL170:
 2000              		.loc 1 1998 0
 2001 050e 3FF573AF 		bmi	.L179
 2002              	.LVL171:
 2003              	.L244:
 2004              		.loc 1 2001 0
 2005 0512 D4ED1B0A 		vldr.32	s1, [r4, #108]
 2006 0516 1FEDB42A 		vldr.32	s4, .L249+76
 2007 051a 94ED161A 		vldr.32	s2, [r4, #88]
 2008 051e F0EE681A 		vmov.f32	s3, s17
 2009 0522 B0EE4A0A 		vmov.f32	s0, s20
 2010 0526 FFF7FEFF 		bl	utils_map
 2011              	.LVL172:
 2012 052a F0EE408A 		vmov.f32	s17, s0
 2013              	.LVL173:
 2014 052e 63E7     		b	.L179
 2015              	.LVL174:
 2016              	.L206:
 2017              		.loc 1 1977 0
 2018 0530 B0EE68DA 		vmov.f32	s26, s17
 2019              	.LVL175:
 2020 0534 42E7     		b	.L177
 2021              	.LVL176:
 2022              	.L245:
 2023              		.loc 1 2027 0
 2024 0536 D4ED030A 		vldr.32	s1, [r4, #12]
 2025              	.LVL177:
 2026 053a AEE7     		b	.L186
 2027              	.LVL178:
 2028              	.L239:
 2029              	.LBB508:
 2030              		.loc 1 1941 0
 2031 053c F5EEC08A 		vcmpe.f32	s17, #0
 2032 0540 F1EE10FA 		vmrs	APSR_nzcv, FPSCR
 2033 0544 7FF5C8AE 		bpl	.L164
 2034 0548 B1EE4BBA 		vneg.f32	s22, s22
 2035              	.LVL179:
 2036 054c C4E6     		b	.L164
 2037              	.LVL180:
 2038              	.L237:
 2039              	.LBE508:
 2040              	.LBB509:
 2041              		.loc 1 1911 0
 2042 054e B5EEC09A 		vcmpe.f32	s18, #0
 2043 0552 F1EE10FA 		vmrs	APSR_nzcv, FPSCR
 2044              		.loc 1 1914 0
 2045 0556 B4EEEABA 		vcmpe.f32	s22, s21
 2046 055a 4CBF     		ite	mi
 2047 055c F1EE40CA 		vnegmi.f32	s25, s0
 2048              		.loc 1 1911 0
 2049 0560 F0EE40CA 		vmovpl.f32	s25, s0
 2050              	.LVL181:
 2051              		.loc 1 1914 0
 2052 0564 F1EE10FA 		vmrs	APSR_nzcv, FPSCR
ARM GAS  C:\Users\CFAR\AppData\Local\Temp\ccOMEhOc.s 			page 37


 2053 0568 3FF717AE 		bgt	.L248
 2054              	.L229:
 2055              	.LBE509:
 2056              		.loc 1 1895 0
 2057 056c F0EE68AA 		vmov.f32	s21, s17
 2058 0570 70E6     		b	.L153
 2059              	.LVL182:
 2060              	.L246:
 2061              		.loc 1 2031 0
 2062 0572 D4ED0D0A 		vldr.32	s1, [r4, #52]
 2063 0576 1FEDCC2A 		vldr.32	s4, .L249+76
 2064 057a 94ED0E1A 		vldr.32	s2, [r4, #56]
 2065 057e D4ED031A 		vldr.32	s3, [r4, #12]
 2066 0582 B0EE480A 		vmov.f32	s0, s16
 2067              	.LVL183:
 2068 0586 FFF7FEFF 		bl	utils_map
 2069              	.LVL184:
 2070 058a F0EE400A 		vmov.f32	s1, s0
 2071              	.LVL185:
 2072 058e 84E7     		b	.L186
 2073              	.LVL186:
 2074              	.L236:
 2075              	.LBB510:
 2076              	.LBB511:
 2077              		.loc 1 1518 0
 2078 0590 464A     		ldr	r2, .L251
 2079              		.loc 1 1510 0
 2080 0592 4749     		ldr	r1, .L251+4
 2081              		.loc 1 1511 0
 2082 0594 474B     		ldr	r3, .L251+8
 2083              	.LBE511:
 2084              	.LBE510:
 2085              		.loc 1 1900 0
 2086 0596 DFED48AA 		vldr.32	s21, .L251+12
 2087              	.LBB514:
 2088              	.LBB512:
 2089              		.loc 1 1518 0
 2090 059a 1068     		ldr	r0, [r2]
 2091              		.loc 1 1510 0
 2092 059c 0525     		movs	r5, #5
 2093 059e 0D70     		strb	r5, [r1]
 2094              		.loc 1 1511 0
 2095 05a0 0022     		movs	r2, #0
 2096              		.loc 1 1518 0
 2097 05a2 0121     		movs	r1, #1
 2098              		.loc 1 1511 0
 2099 05a4 1A70     		strb	r2, [r3]
 2100              	.LBE512:
 2101              	.LBE514:
 2102              		.loc 1 1899 0
 2103 05a6 F0EE6ACA 		vmov.f32	s25, s21
 2104              	.LBB515:
 2105              	.LBB513:
 2106              		.loc 1 1518 0
 2107 05aa FFF7FEFF 		bl	chEvtSignal
 2108              	.LVL187:
 2109 05ae 51E6     		b	.L153
ARM GAS  C:\Users\CFAR\AppData\Local\Temp\ccOMEhOc.s 			page 38


 2110              	.LVL188:
 2111              	.L238:
 2112              	.LBE513:
 2113              	.LBE515:
 2114              	.LBB516:
 2115              	.LBB517:
 2116 05b0 3E4A     		ldr	r2, .L251
 2117              		.loc 1 1510 0
 2118 05b2 3F49     		ldr	r1, .L251+4
 2119              		.loc 1 1511 0
 2120 05b4 3F4B     		ldr	r3, .L251+8
 2121              	.LBE517:
 2122              	.LBE516:
 2123              		.loc 1 1926 0
 2124 05b6 9FED409A 		vldr.32	s18, .L251+12
 2125              	.LVL189:
 2126              	.LBB520:
 2127              	.LBB518:
 2128              		.loc 1 1518 0
 2129 05ba 1068     		ldr	r0, [r2]
 2130              		.loc 1 1510 0
 2131 05bc 0625     		movs	r5, #6
 2132 05be 0D70     		strb	r5, [r1]
 2133              		.loc 1 1511 0
 2134 05c0 0022     		movs	r2, #0
 2135              		.loc 1 1518 0
 2136 05c2 0121     		movs	r1, #1
 2137              		.loc 1 1511 0
 2138 05c4 1A70     		strb	r2, [r3]
 2139              	.LBE518:
 2140              	.LBE520:
 2141              		.loc 1 1925 0
 2142 05c6 B0EE49BA 		vmov.f32	s22, s18
 2143              	.LBB521:
 2144              	.LBB519:
 2145              		.loc 1 1518 0
 2146 05ca FFF7FEFF 		bl	chEvtSignal
 2147              	.LVL190:
 2148 05ce 83E6     		b	.L164
 2149              	.LVL191:
 2150              	.L243:
 2151              	.LBE519:
 2152              	.LBE521:
 2153              		.loc 1 1993 0
 2154 05d0 B0EE690A 		vmov.f32	s0, s19
 2155 05d4 9FED382A 		vldr.32	s4, .L251+12
 2156 05d8 F0EE681A 		vmov.f32	s3, s17
 2157 05dc FFF7FEFF 		bl	utils_map
 2158              	.LVL192:
 2159 05e0 F0EE409A 		vmov.f32	s19, s0
 2160              	.LVL193:
 2161 05e4 00E7     		b	.L178
 2162              	.LVL194:
 2163              	.L242:
 2164              		.loc 1 1981 0
 2165 05e6 9FED342A 		vldr.32	s4, .L251+12
 2166 05ea F0EE681A 		vmov.f32	s3, s17
ARM GAS  C:\Users\CFAR\AppData\Local\Temp\ccOMEhOc.s 			page 39


 2167 05ee B0EE690A 		vmov.f32	s0, s19
 2168 05f2 FFF7FEFF 		bl	utils_map
 2169              	.LVL195:
 2170 05f6 B0EE40DA 		vmov.f32	s26, s0
 2171              	.LVL196:
 2172 05fa DFE6     		b	.L177
 2173              	.LVL197:
 2174              	.L241:
 2175              		.loc 1 1968 0
 2176 05fc F0EE6B0A 		vmov.f32	s1, s23
 2177 0600 94ED930A 		vldr.32	s0, [r4, #588]
 2178 0604 9FED2C2A 		vldr.32	s4, .L251+12
 2179 0608 B0EE6D1A 		vmov.f32	s2, s27
 2180 060c F0EE681A 		vmov.f32	s3, s17
 2181 0610 FFF7FEFF 		bl	utils_map
 2182              	.LVL198:
 2183 0614 F0EE40BA 		vmov.f32	s23, s0
 2184              	.LVL199:
 2185 0618 BAE6     		b	.L176
 2186              	.LVL200:
 2187              	.L240:
 2188              		.loc 1 1958 0
 2189 061a F0EE4C0A 		vmov.f32	s1, s24
 2190 061e 94ED920A 		vldr.32	s0, [r4, #584]
 2191              	.LVL201:
 2192 0622 9FED252A 		vldr.32	s4, .L251+12
 2193 0626 B0EE4D1A 		vmov.f32	s2, s26
 2194 062a F0EE681A 		vmov.f32	s3, s17
 2195 062e FFF7FEFF 		bl	utils_map
 2196              	.LVL202:
 2197 0632 B0EE40CA 		vmov.f32	s24, s0
 2198              	.LVL203:
 2199 0636 99E6     		b	.L175
 2200              	.LVL204:
 2201              	.L150:
 2202              		.loc 1 1856 0
 2203 0638 EB8A     		ldrh	r3, [r5, #22]
 2204 063a DFED206A 		vldr.32	s13, .L251+16
 2205 063e 07EE103A 		vmov	s14, r3	@ int
 2206 0642 B8EE477A 		vcvt.f32.u32	s14, s14
 2207 0646 C6EE877A 		vdiv.f32	s15, s13, s14
 2208 064a 77EEEB7A 		vsub.f32	s15, s15, s23
 2209 064e 89EE270A 		vdiv.f32	s0, s18, s15
 2210 0652 80EE090A 		vdiv.f32	s0, s0, s18
 2211 0656 FFF7FEFF 		bl	logf
 2212              	.LVL205:
 2213 065a D4ED747A 		vldr.32	s15, [r4, #464]
 2214 065e 80EE270A 		vdiv.f32	s0, s0, s15
 2215 0662 30EE0BBA 		vadd.f32	s22, s0, s22
 2216 0666 CBEE8B7A 		vdiv.f32	s15, s23, s22
 2217 066a 77EEEA7A 		vsub.f32	s15, s15, s21
 2218 066e 3AE5     		b	.L148
 2219              	.L149:
 2220              		.loc 1 1860 0
 2221 0670 EB8A     		ldrh	r3, [r5, #22]
 2222 0672 9FED125A 		vldr.32	s10, .L251+16
 2223 0676 DFED127A 		vldr.32	s15, .L251+20
ARM GAS  C:\Users\CFAR\AppData\Local\Temp\ccOMEhOc.s 			page 40


 2224 067a 9FED126A 		vldr.32	s12, .L251+24
 2225 067e D4ED765A 		vldr.32	s11, [r4, #472]
 2226 0682 06EE903A 		vmov	s13, r3	@ int
 2227 0686 F8EE666A 		vcvt.f32.u32	s13, s13
 2228 068a 85EE267A 		vdiv.f32	s14, s10, s13
 2229 068e 77EE6BBA 		vsub.f32	s23, s14, s23
 2230 0692 C9EE2B6A 		vdiv.f32	s13, s18, s23
 2231 0696 76EEE76A 		vsub.f32	s13, s13, s15
 2232 069a 86EEA77A 		vdiv.f32	s14, s13, s15
 2233 069e 27EE067A 		vmul.f32	s14, s14, s12
 2234 06a2 C7EE257A 		vdiv.f32	s15, s14, s11
 2235 06a6 77EE867A 		vadd.f32	s15, s15, s12
 2236 06aa 1CE5     		b	.L148
 2237              	.L252:
 2238              		.align	2
 2239              	.L251:
 2240 06ac 00000000 		.word	.LANCHOR13
 2241 06b0 00000000 		.word	.LANCHOR25
 2242 06b4 00000000 		.word	.LANCHOR26
 2243 06b8 00000000 		.word	0
 2244 06bc 00F07F45 		.word	1166012416
 2245 06c0 00007A44 		.word	1148846080
 2246 06c4 0000C842 		.word	1120403456
 2247              		.cfi_endproc
 2248              	.LFE333:
 2249              		.size	update_override_limits.constprop.6, .-update_override_limits.constprop.6
 2250              		.section	.text.timer_thread,"ax",%progbits
 2251              		.align	1
 2252              		.p2align 4,,15
 2253              		.syntax unified
 2254              		.thumb
 2255              		.thumb_func
 2256              		.fpu fpv4-sp-d16
 2257              		.type	timer_thread, %function
 2258              	timer_thread:
 2259              	.LFB325:
 2260              		.loc 1 2199 0
 2261              		.cfi_startproc
 2262              		@ Volatile: function does not return.
 2263              		@ args = 0, pretend = 0, frame = 16
 2264              		@ frame_needed = 0, uses_anonymous_args = 0
 2265              	.LVL206:
 2266 0000 80B5     		push	{r7, lr}
 2267              		.cfi_def_cfa_offset 8
 2268              		.cfi_offset 7, -8
 2269              		.cfi_offset 14, -4
 2270              	.LBB549:
 2271              	.LBB550:
 2272              		.loc 2 135 0
 2273 0002 874D     		ldr	r5, .L305
 2274 0004 874A     		ldr	r2, .L305+4
 2275 0006 AB69     		ldr	r3, [r5, #24]
 2276 0008 874C     		ldr	r4, .L305+8
 2277 000a DFF83092 		ldr	r9, .L305+28
 2278 000e DFF83082 		ldr	r8, .L305+32
 2279 0012 864F     		ldr	r7, .L305+12
 2280              	.LBE550:
ARM GAS  C:\Users\CFAR\AppData\Local\Temp\ccOMEhOc.s 			page 41


 2281              	.LBE549:
 2282              	.LBB552:
 2283              	.LBB553:
 2284              		.loc 1 2085 0
 2285 0014 864E     		ldr	r6, .L305+16
 2286              		.loc 1 2125 0
 2287 0016 9FED878A 		vldr.32	s16, .L305+20
 2288              		.loc 1 2147 0
 2289 001a DFED878A 		vldr.32	s17, .L305+24
 2290              	.LBE553:
 2291              	.LBE552:
 2292              	.LBB575:
 2293              	.LBB551:
 2294              		.loc 2 135 0
 2295 001e 9A61     		str	r2, [r3, #24]
 2296              	.LBE551:
 2297              	.LBE575:
 2298              		.loc 1 2199 0
 2299 0020 84B0     		sub	sp, sp, #16
 2300              		.cfi_def_cfa_offset 24
 2301 0022 1FE0     		b	.L281
 2302              	.LVL207:
 2303              	.L299:
 2304              	.LBB576:
 2305              	.LBB573:
 2306              		.loc 1 2083 0
 2307 0024 D4F8F831 		ldr	r3, [r4, #504]
 2308 0028 013B     		subs	r3, r3, #1
 2309 002a C4F8F831 		str	r3, [r4, #504]
 2310              		.loc 1 2090 0
 2311 002e FFF7FEFF 		bl	update_override_limits.constprop.6
 2312              	.LVL208:
 2313              		.loc 1 2093 0
 2314 0032 94F8D431 		ldrb	r3, [r4, #468]	@ zero_extendqisi2
 2315 0036 DBB2     		uxtb	r3, r3
 2316 0038 022B     		cmp	r3, #2
 2317 003a 28D0     		beq	.L258
 2318              	.L300:
 2319 003c 032B     		cmp	r3, #3
 2320 003e 26D0     		beq	.L258
 2321 0040 012B     		cmp	r3, #1
 2322 0042 24D0     		beq	.L258
 2323              		.loc 1 2123 0
 2324 0044 A378     		ldrb	r3, [r4, #2]	@ zero_extendqisi2
 2325 0046 022B     		cmp	r3, #2
 2326 0048 25D0     		beq	.L295
 2327              	.L261:
 2328              		.loc 1 2130 0
 2329 004a A378     		ldrb	r3, [r4, #2]	@ zero_extendqisi2
 2330 004c 022B     		cmp	r3, #2
 2331 004e 41D0     		beq	.L296
 2332              	.L265:
 2333              		.loc 1 2140 0
 2334 0050 A378     		ldrb	r3, [r4, #2]	@ zero_extendqisi2
 2335 0052 022B     		cmp	r3, #2
 2336 0054 64D0     		beq	.L297
 2337              	.L271:
ARM GAS  C:\Users\CFAR\AppData\Local\Temp\ccOMEhOc.s 			page 42


 2338              		.loc 1 2151 0
 2339 0056 A378     		ldrb	r3, [r4, #2]	@ zero_extendqisi2
 2340 0058 022B     		cmp	r3, #2
 2341 005a 00F09080 		beq	.L298
 2342              	.L278:
 2343              	.LVL209:
 2344              	.LBE573:
 2345              	.LBE576:
 2346              		.loc 1 2210 0 discriminator 1
 2347 005e 0A20     		movs	r0, #10
 2348 0060 FFF7FEFF 		bl	chThdSleep
 2349              	.LVL210:
 2350              	.L281:
 2351              	.LBB577:
 2352              	.LBB574:
 2353              		.loc 1 2079 0 discriminator 1
 2354 0064 FFF7FEFF 		bl	mc_interface_get_sampling_frequency_now
 2355              	.LVL211:
 2356 0068 84ED970A 		vstr.32	s0, [r4, #604]
 2357              		.loc 1 2082 0 discriminator 1
 2358 006c D4F8F831 		ldr	r3, [r4, #504]
 2359 0070 002B     		cmp	r3, #0
 2360 0072 D7DC     		bgt	.L299
 2361              		.loc 1 2085 0
 2362 0074 3369     		ldr	r3, [r6, #16]
 2363 0076 DB04     		lsls	r3, r3, #19
 2364              		.loc 1 2086 0
 2365 0078 44BF     		itt	mi
 2366 007a 0023     		movmi	r3, #0
 2367 007c 84F8F431 		strbmi	r3, [r4, #500]
 2368              		.loc 1 2090 0
 2369 0080 FFF7FEFF 		bl	update_override_limits.constprop.6
 2370              	.LVL212:
 2371              		.loc 1 2093 0
 2372 0084 94F8D431 		ldrb	r3, [r4, #468]	@ zero_extendqisi2
 2373 0088 DBB2     		uxtb	r3, r3
 2374 008a 022B     		cmp	r3, #2
 2375 008c D6D1     		bne	.L300
 2376              	.L258:
 2377              	.LBB554:
 2378              	.LBB555:
 2379              		.file 5 "ChibiOS_3.0.5/os/rt/include/chvt.h"
 2380              		.loc 5 231 0
 2381 008e AB6A     		ldr	r3, [r5, #40]
 2382              	.LBE555:
 2383              	.LBE554:
 2384              		.loc 1 2123 0
 2385 0090 A378     		ldrb	r3, [r4, #2]	@ zero_extendqisi2
 2386 0092 022B     		cmp	r3, #2
 2387 0094 D9D1     		bne	.L261
 2388              	.L295:
 2389              		.loc 1 2124 0
 2390 0096 94F818A1 		ldrb	r10, [r4, #280]	@ zero_extendqisi2
 2391 009a 5FFA8AFA 		uxtb	r10, r10
 2392              		.loc 1 2123 0
 2393 009e BAF1010F 		cmp	r10, #1
 2394 00a2 D2D1     		bne	.L261
ARM GAS  C:\Users\CFAR\AppData\Local\Temp\ccOMEhOc.s 			page 43


 2395              		.loc 1 2125 0
 2396 00a4 FFF7FEFF 		bl	mcpwm_foc_is_using_encoder
 2397              	.LVL213:
 2398              		.loc 1 2124 0
 2399 00a8 0028     		cmp	r0, #0
 2400 00aa CED0     		beq	.L261
 2401              		.loc 1 2126 0
 2402 00ac FFF7FEFF 		bl	encoder_spi_get_error_rate
 2403              	.LVL214:
 2404              		.loc 1 2125 0
 2405 00b0 B4EEC80A 		vcmpe.f32	s0, s16
 2406 00b4 F1EE10FA 		vmrs	APSR_nzcv, FPSCR
 2407 00b8 C7DD     		ble	.L261
 2408              	.LVL215:
 2409              	.LBB556:
 2410              	.LBB557:
 2411              		.loc 1 1511 0
 2412 00ba 0023     		movs	r3, #0
 2413              		.loc 1 1510 0
 2414 00bc 0B22     		movs	r2, #11
 2415              		.loc 1 1518 0
 2416 00be 5146     		mov	r1, r10
 2417 00c0 3868     		ldr	r0, [r7]
 2418              		.loc 1 1510 0
 2419 00c2 89F80020 		strb	r2, [r9]
 2420              		.loc 1 1511 0
 2421 00c6 88F80030 		strb	r3, [r8]
 2422              		.loc 1 1518 0
 2423 00ca FFF7FEFF 		bl	chEvtSignal
 2424              	.LVL216:
 2425              	.LBE557:
 2426              	.LBE556:
 2427              		.loc 1 2130 0
 2428 00ce A378     		ldrb	r3, [r4, #2]	@ zero_extendqisi2
 2429 00d0 022B     		cmp	r3, #2
 2430 00d2 BDD1     		bne	.L265
 2431              	.LVL217:
 2432              	.L296:
 2433              		.loc 1 2131 0
 2434 00d4 94F818A1 		ldrb	r10, [r4, #280]	@ zero_extendqisi2
 2435 00d8 5FFA8AFA 		uxtb	r10, r10
 2436              		.loc 1 2130 0
 2437 00dc BAF1010F 		cmp	r10, #1
 2438 00e0 B6D1     		bne	.L265
 2439              		.loc 1 2132 0
 2440 00e2 94F8BC31 		ldrb	r3, [r4, #444]	@ zero_extendqisi2
 2441              		.loc 1 2131 0
 2442 00e6 042B     		cmp	r3, #4
 2443 00e8 B2D1     		bne	.L265
 2444              		.loc 1 2134 0
 2445 00ea FFF7FEFF 		bl	encoder_sincos_get_signal_below_min_error_rate
 2446              	.LVL218:
 2447 00ee B4EEC80A 		vcmpe.f32	s0, s16
 2448 00f2 F1EE10FA 		vmrs	APSR_nzcv, FPSCR
 2449 00f6 71DC     		bgt	.L301
 2450              	.L267:
 2451              		.loc 1 2136 0
ARM GAS  C:\Users\CFAR\AppData\Local\Temp\ccOMEhOc.s 			page 44


 2452 00f8 FFF7FEFF 		bl	encoder_sincos_get_signal_above_max_error_rate
 2453              	.LVL219:
 2454 00fc B4EEC80A 		vcmpe.f32	s0, s16
 2455 0100 F1EE10FA 		vmrs	APSR_nzcv, FPSCR
 2456 0104 A4DD     		ble	.L265
 2457              	.LVL220:
 2458              	.LBB558:
 2459              	.LBB559:
 2460              		.loc 1 1511 0
 2461 0106 0023     		movs	r3, #0
 2462              		.loc 1 1510 0
 2463 0108 0D22     		movs	r2, #13
 2464              		.loc 1 1518 0
 2465 010a 0121     		movs	r1, #1
 2466 010c 3868     		ldr	r0, [r7]
 2467              		.loc 1 1510 0
 2468 010e 89F80020 		strb	r2, [r9]
 2469              		.loc 1 1511 0
 2470 0112 88F80030 		strb	r3, [r8]
 2471              		.loc 1 1518 0
 2472 0116 FFF7FEFF 		bl	chEvtSignal
 2473              	.LVL221:
 2474              	.LBE559:
 2475              	.LBE558:
 2476              		.loc 1 2140 0
 2477 011a A378     		ldrb	r3, [r4, #2]	@ zero_extendqisi2
 2478 011c 022B     		cmp	r3, #2
 2479 011e 9AD1     		bne	.L271
 2480              	.LVL222:
 2481              	.L297:
 2482              		.loc 1 2141 0
 2483 0120 94F818A1 		ldrb	r10, [r4, #280]	@ zero_extendqisi2
 2484 0124 5FFA8AFA 		uxtb	r10, r10
 2485              		.loc 1 2140 0
 2486 0128 BAF1010F 		cmp	r10, #1
 2487 012c 93D1     		bne	.L271
 2488              		.loc 1 2142 0
 2489 012e 94F8BC31 		ldrb	r3, [r4, #444]	@ zero_extendqisi2
 2490              		.loc 1 2141 0
 2491 0132 032B     		cmp	r3, #3
 2492 0134 8FD1     		bne	.L271
 2493              		.loc 1 2143 0
 2494 0136 FFF7FEFF 		bl	encoder_resolver_loss_of_tracking_error_rate
 2495              	.LVL223:
 2496 013a B4EEC80A 		vcmpe.f32	s0, s16
 2497 013e F1EE10FA 		vmrs	APSR_nzcv, FPSCR
 2498 0142 61DC     		bgt	.L302
 2499              	.L273:
 2500              		.loc 1 2145 0
 2501 0144 FFF7FEFF 		bl	encoder_resolver_degradation_of_signal_error_rate
 2502              	.LVL224:
 2503 0148 B4EEC80A 		vcmpe.f32	s0, s16
 2504 014c F1EE10FA 		vmrs	APSR_nzcv, FPSCR
 2505 0150 4FDC     		bgt	.L303
 2506              	.L275:
 2507              		.loc 1 2147 0
 2508 0152 FFF7FEFF 		bl	encoder_resolver_loss_of_signal_error_rate
ARM GAS  C:\Users\CFAR\AppData\Local\Temp\ccOMEhOc.s 			page 45


 2509              	.LVL225:
 2510 0156 B4EEE80A 		vcmpe.f32	s0, s17
 2511 015a F1EE10FA 		vmrs	APSR_nzcv, FPSCR
 2512 015e 7FF77AAF 		ble	.L271
 2513              	.LVL226:
 2514              	.LBB560:
 2515              	.LBB561:
 2516              		.loc 1 1511 0
 2517 0162 0023     		movs	r3, #0
 2518              		.loc 1 1510 0
 2519 0164 1622     		movs	r2, #22
 2520              		.loc 1 1518 0
 2521 0166 0121     		movs	r1, #1
 2522 0168 3868     		ldr	r0, [r7]
 2523              		.loc 1 1510 0
 2524 016a 89F80020 		strb	r2, [r9]
 2525              		.loc 1 1511 0
 2526 016e 88F80030 		strb	r3, [r8]
 2527              		.loc 1 1518 0
 2528 0172 FFF7FEFF 		bl	chEvtSignal
 2529              	.LVL227:
 2530              	.LBE561:
 2531              	.LBE560:
 2532              		.loc 1 2151 0
 2533 0176 A378     		ldrb	r3, [r4, #2]	@ zero_extendqisi2
 2534 0178 022B     		cmp	r3, #2
 2535 017a 7FF470AF 		bne	.L278
 2536              	.LVL228:
 2537              	.L298:
 2538              	.LBB562:
 2539              		.loc 1 2159 0
 2540 017e 0023     		movs	r3, #0
 2541 0180 03AA     		add	r2, sp, #12
 2542 0182 02A9     		add	r1, sp, #8
 2543 0184 01A8     		add	r0, sp, #4
 2544 0186 FFF7FEFF 		bl	mcpwm_foc_get_current_offsets
 2545              	.LVL229:
 2546              		.loc 1 2168 0
 2547 018a 019B     		ldr	r3, [sp, #4]
 2548 018c A3F50063 		sub	r3, r3, #2048
 2549 0190 002B     		cmp	r3, #0
 2550 0192 B8BF     		it	lt
 2551 0194 5B42     		rsblt	r3, r3, #0
 2552 0196 B3F51B7F 		cmp	r3, #620
 2553 019a 14DC     		bgt	.L304
 2554              	.L279:
 2555              		.loc 1 2171 0
 2556 019c 029B     		ldr	r3, [sp, #8]
 2557 019e A3F50063 		sub	r3, r3, #2048
 2558 01a2 002B     		cmp	r3, #0
 2559 01a4 B8BF     		it	lt
 2560 01a6 5B42     		rsblt	r3, r3, #0
 2561 01a8 B3F51B7F 		cmp	r3, #620
 2562 01ac 7FF757AF 		ble	.L278
 2563              	.LVL230:
 2564              	.LBB563:
 2565              	.LBB564:
ARM GAS  C:\Users\CFAR\AppData\Local\Temp\ccOMEhOc.s 			page 46


 2566              		.loc 1 1510 0
 2567 01b0 1022     		movs	r2, #16
 2568              		.loc 1 1511 0
 2569 01b2 0023     		movs	r3, #0
 2570              		.loc 1 1518 0
 2571 01b4 0121     		movs	r1, #1
 2572 01b6 3868     		ldr	r0, [r7]
 2573              		.loc 1 1510 0
 2574 01b8 89F80020 		strb	r2, [r9]
 2575              		.loc 1 1511 0
 2576 01bc 88F80030 		strb	r3, [r8]
 2577              		.loc 1 1518 0
 2578 01c0 FFF7FEFF 		bl	chEvtSignal
 2579              	.LVL231:
 2580 01c4 4BE7     		b	.L278
 2581              	.LVL232:
 2582              	.L304:
 2583              	.LBE564:
 2584              	.LBE563:
 2585              	.LBB565:
 2586              	.LBB566:
 2587              		.loc 1 1510 0
 2588 01c6 0F22     		movs	r2, #15
 2589              		.loc 1 1511 0
 2590 01c8 0023     		movs	r3, #0
 2591              		.loc 1 1518 0
 2592 01ca 0121     		movs	r1, #1
 2593 01cc 3868     		ldr	r0, [r7]
 2594              		.loc 1 1510 0
 2595 01ce 89F80020 		strb	r2, [r9]
 2596              		.loc 1 1511 0
 2597 01d2 88F80030 		strb	r3, [r8]
 2598              		.loc 1 1518 0
 2599 01d6 FFF7FEFF 		bl	chEvtSignal
 2600              	.LVL233:
 2601 01da DFE7     		b	.L279
 2602              	.LVL234:
 2603              	.L301:
 2604              	.LBE566:
 2605              	.LBE565:
 2606              	.LBE562:
 2607              	.LBB567:
 2608              	.LBB568:
 2609              		.loc 1 1510 0
 2610 01dc 0C22     		movs	r2, #12
 2611              		.loc 1 1511 0
 2612 01de 0023     		movs	r3, #0
 2613              		.loc 1 1518 0
 2614 01e0 5146     		mov	r1, r10
 2615 01e2 3868     		ldr	r0, [r7]
 2616              		.loc 1 1510 0
 2617 01e4 89F80020 		strb	r2, [r9]
 2618              		.loc 1 1511 0
 2619 01e8 88F80030 		strb	r3, [r8]
 2620              		.loc 1 1518 0
 2621 01ec FFF7FEFF 		bl	chEvtSignal
 2622              	.LVL235:
ARM GAS  C:\Users\CFAR\AppData\Local\Temp\ccOMEhOc.s 			page 47


 2623 01f0 82E7     		b	.L267
 2624              	.LVL236:
 2625              	.L303:
 2626              	.LBE568:
 2627              	.LBE567:
 2628              	.LBB569:
 2629              	.LBB570:
 2630              		.loc 1 1510 0
 2631 01f2 1522     		movs	r2, #21
 2632              		.loc 1 1511 0
 2633 01f4 0023     		movs	r3, #0
 2634              		.loc 1 1518 0
 2635 01f6 0121     		movs	r1, #1
 2636 01f8 3868     		ldr	r0, [r7]
 2637              		.loc 1 1510 0
 2638 01fa 89F80020 		strb	r2, [r9]
 2639              		.loc 1 1511 0
 2640 01fe 88F80030 		strb	r3, [r8]
 2641              		.loc 1 1518 0
 2642 0202 FFF7FEFF 		bl	chEvtSignal
 2643              	.LVL237:
 2644 0206 A4E7     		b	.L275
 2645              	.LVL238:
 2646              	.L302:
 2647              	.LBE570:
 2648              	.LBE569:
 2649              	.LBB571:
 2650              	.LBB572:
 2651              		.loc 1 1510 0
 2652 0208 1422     		movs	r2, #20
 2653              		.loc 1 1511 0
 2654 020a 0023     		movs	r3, #0
 2655              		.loc 1 1518 0
 2656 020c 5146     		mov	r1, r10
 2657 020e 3868     		ldr	r0, [r7]
 2658              		.loc 1 1510 0
 2659 0210 89F80020 		strb	r2, [r9]
 2660              		.loc 1 1511 0
 2661 0214 88F80030 		strb	r3, [r8]
 2662              		.loc 1 1518 0
 2663 0218 FFF7FEFF 		bl	chEvtSignal
 2664              	.LVL239:
 2665 021c 92E7     		b	.L273
 2666              	.L306:
 2667 021e 00BF     		.align	2
 2668              	.L305:
 2669 0220 00000000 		.word	ch
 2670 0224 00000000 		.word	.LC2
 2671 0228 00000000 		.word	.LANCHOR12
 2672 022c 00000000 		.word	.LANCHOR13
 2673 0230 00080240 		.word	1073874944
 2674 0234 CDCC4C3D 		.word	1028443341
 2675 0238 0AD7233D 		.word	1025758986
 2676 023c 00000000 		.word	.LANCHOR25
 2677 0240 00000000 		.word	.LANCHOR26
 2678              	.LBE572:
 2679              	.LBE571:
ARM GAS  C:\Users\CFAR\AppData\Local\Temp\ccOMEhOc.s 			page 48


 2680              	.LBE574:
 2681              	.LBE577:
 2682              		.cfi_endproc
 2683              	.LFE325:
 2684              		.size	timer_thread, .-timer_thread
 2685              		.section	.text.mc_interface_set_configuration,"ax",%progbits
 2686              		.align	1
 2687              		.p2align 4,,15
 2688              		.global	mc_interface_set_configuration
 2689              		.syntax unified
 2690              		.thumb
 2691              		.thumb_func
 2692              		.fpu fpv4-sp-d16
 2693              		.type	mc_interface_set_configuration, %function
 2694              	mc_interface_set_configuration:
 2695              	.LFB261:
 2696              		.loc 1 312 0
 2697              		.cfi_startproc
 2698              		@ args = 0, pretend = 0, frame = 0
 2699              		@ frame_needed = 0, uses_anonymous_args = 0
 2700              	.LVL240:
 2701 0000 70B5     		push	{r4, r5, r6, lr}
 2702              		.cfi_def_cfa_offset 16
 2703              		.cfi_offset 4, -16
 2704              		.cfi_offset 5, -12
 2705              		.cfi_offset 6, -8
 2706              		.cfi_offset 14, -4
 2707              		.loc 1 320 0
 2708 0002 4F4D     		ldr	r5, .L333
 2709 0004 90F8BC31 		ldrb	r3, [r0, #444]	@ zero_extendqisi2
 2710 0008 95F8BC21 		ldrb	r2, [r5, #444]	@ zero_extendqisi2
 2711 000c 9A42     		cmp	r2, r3
 2712              		.loc 1 312 0
 2713 000e 0446     		mov	r4, r0
 2714              		.loc 1 320 0
 2715 0010 36D1     		bne	.L329
 2716              	.LVL241:
 2717              	.L308:
 2718              		.loc 1 362 0
 2719 0012 012B     		cmp	r3, #1
 2720 0014 41D0     		beq	.L330
 2721              	.L309:
 2722              		.loc 1 393 0
 2723 0016 AB78     		ldrb	r3, [r5, #2]	@ zero_extendqisi2
 2724 0018 A278     		ldrb	r2, [r4, #2]	@ zero_extendqisi2
 2725 001a 9A42     		cmp	r2, r3
 2726 001c 1DD1     		bne	.L331
 2727              		.loc 1 422 0
 2728 001e 2146     		mov	r1, r4
 2729 0020 4FF4FA72 		mov	r2, #500
 2730 0024 4648     		ldr	r0, .L333
 2731 0026 FFF7FEFF 		bl	memcpy
 2732              	.LVL242:
 2733              	.L318:
 2734              		.loc 1 425 0
 2735 002a FFF7FEFF 		bl	update_override_limits.constprop.6
 2736              	.LVL243:
ARM GAS  C:\Users\CFAR\AppData\Local\Temp\ccOMEhOc.s 			page 49


 2737              		.loc 1 427 0
 2738 002e AB78     		ldrb	r3, [r5, #2]	@ zero_extendqisi2
 2739 0030 032B     		cmp	r3, #3
 2740 0032 31D8     		bhi	.L307
 2741 0034 DFE803F0 		tbb	[pc, r3]
 2742              	.L325:
 2743 0038 0C       		.byte	(.L324-.L325)/2
 2744 0039 0C       		.byte	(.L324-.L325)/2
 2745 003a 07       		.byte	(.L326-.L325)/2
 2746 003b 02       		.byte	(.L327-.L325)/2
 2747              		.p2align 1
 2748              	.L327:
 2749              		.loc 1 445 0
 2750 003c 4048     		ldr	r0, .L333
 2751              		.loc 1 451 0
 2752 003e BDE87040 		pop	{r4, r5, r6, lr}
 2753              		.cfi_remember_state
 2754              		.cfi_restore 14
 2755              		.cfi_restore 6
 2756              		.cfi_restore 5
 2757              		.cfi_restore 4
 2758              		.cfi_def_cfa_offset 0
 2759              	.LVL244:
 2760              		.loc 1 445 0
 2761 0042 FFF7FEBF 		b	gpdrive_set_configuration
 2762              	.LVL245:
 2763              	.L326:
 2764              		.cfi_restore_state
 2765              		.loc 1 441 0
 2766 0046 3E48     		ldr	r0, .L333
 2767              		.loc 1 451 0
 2768 0048 BDE87040 		pop	{r4, r5, r6, lr}
 2769              		.cfi_remember_state
 2770              		.cfi_restore 14
 2771              		.cfi_restore 6
 2772              		.cfi_restore 5
 2773              		.cfi_restore 4
 2774              		.cfi_def_cfa_offset 0
 2775              	.LVL246:
 2776              		.loc 1 441 0
 2777 004c FFF7FEBF 		b	mcpwm_foc_set_configuration
 2778              	.LVL247:
 2779              	.L324:
 2780              		.cfi_restore_state
 2781              		.loc 1 430 0
 2782 0050 3B48     		ldr	r0, .L333
 2783              		.loc 1 451 0
 2784 0052 BDE87040 		pop	{r4, r5, r6, lr}
 2785              		.cfi_remember_state
 2786              		.cfi_restore 14
 2787              		.cfi_restore 6
 2788              		.cfi_restore 5
 2789              		.cfi_restore 4
 2790              		.cfi_def_cfa_offset 0
 2791              	.LVL248:
 2792              		.loc 1 430 0
 2793 0056 FFF7FEBF 		b	mcpwm_set_configuration
ARM GAS  C:\Users\CFAR\AppData\Local\Temp\ccOMEhOc.s 			page 50


 2794              	.LVL249:
 2795              	.L331:
 2796              		.cfi_restore_state
 2797              		.loc 1 394 0
 2798 005a FFF7FEFF 		bl	mcpwm_deinit
 2799              	.LVL250:
 2800              		.loc 1 395 0
 2801 005e FFF7FEFF 		bl	mcpwm_foc_deinit
 2802              	.LVL251:
 2803              		.loc 1 396 0
 2804 0062 FFF7FEFF 		bl	gpdrive_deinit
 2805              	.LVL252:
 2806              		.loc 1 398 0
 2807 0066 2146     		mov	r1, r4
 2808 0068 4FF4FA72 		mov	r2, #500
 2809 006c 3448     		ldr	r0, .L333
 2810 006e FFF7FEFF 		bl	memcpy
 2811              	.LVL253:
 2812              		.loc 1 400 0
 2813 0072 AB78     		ldrb	r3, [r5, #2]	@ zero_extendqisi2
 2814 0074 032B     		cmp	r3, #3
 2815 0076 D8D8     		bhi	.L318
 2816 0078 DFE803F0 		tbb	[pc, r3]
 2817              	.L320:
 2818 007c 1D       		.byte	(.L319-.L320)/2
 2819 007d 1D       		.byte	(.L319-.L320)/2
 2820 007e 18       		.byte	(.L321-.L320)/2
 2821 007f 14       		.byte	(.L322-.L320)/2
 2822              	.LVL254:
 2823              		.p2align 1
 2824              	.L329:
 2825              		.loc 1 321 0
 2826 0080 FFF7FEFF 		bl	encoder_deinit
 2827              	.LVL255:
 2828              		.loc 1 322 0
 2829 0084 94F8BC31 		ldrb	r3, [r4, #444]	@ zero_extendqisi2
 2830 0088 013B     		subs	r3, r3, #1
 2831 008a 052B     		cmp	r3, #5
 2832 008c C3D8     		bhi	.L309
 2833 008e DFE803F0 		tbb	[pc, r3]
 2834              	.L311:
 2835 0092 46       		.byte	(.L310-.L311)/2
 2836 0093 41       		.byte	(.L312-.L311)/2
 2837 0094 3C       		.byte	(.L313-.L311)/2
 2838 0095 2D       		.byte	(.L314-.L311)/2
 2839 0096 16       		.byte	(.L315-.L311)/2
 2840 0097 16       		.byte	(.L315-.L311)/2
 2841              		.p2align 1
 2842              	.L307:
 2843              		.loc 1 451 0
 2844 0098 70BD     		pop	{r4, r5, r6, pc}
 2845              	.LVL256:
 2846              	.L330:
 2847              		.loc 1 363 0
 2848 009a D4F8B801 		ldr	r0, [r4, #440]
 2849 009e FFF7FEFF 		bl	encoder_set_counts
 2850              	.LVL257:
ARM GAS  C:\Users\CFAR\AppData\Local\Temp\ccOMEhOc.s 			page 51


 2851 00a2 B8E7     		b	.L309
 2852              	.L322:
 2853              		.loc 1 415 0
 2854 00a4 2648     		ldr	r0, .L333
 2855 00a6 FFF7FEFF 		bl	gpdrive_init
 2856              	.LVL258:
 2857              		.loc 1 416 0
 2858 00aa BEE7     		b	.L318
 2859              	.L321:
 2860              		.loc 1 410 0
 2861 00ac 2449     		ldr	r1, .L333
 2862 00ae 0846     		mov	r0, r1
 2863 00b0 FFF7FEFF 		bl	mcpwm_foc_init
 2864              	.LVL259:
 2865              		.loc 1 412 0
 2866 00b4 B9E7     		b	.L318
 2867              	.L319:
 2868              		.loc 1 403 0
 2869 00b6 2248     		ldr	r0, .L333
 2870 00b8 FFF7FEFF 		bl	mcpwm_init
 2871              	.LVL260:
 2872              		.loc 1 404 0
 2873 00bc B5E7     		b	.L318
 2874              	.L315:
 2875              	.LBB578:
 2876              		.loc 1 343 0
 2877 00be FFF7FEFF 		bl	mempools_alloc_appconf
 2878              	.LVL261:
 2879 00c2 0646     		mov	r6, r0
 2880              	.LVL262:
 2881              		.loc 1 344 0
 2882 00c4 FFF7FEFF 		bl	app_get_configuration
 2883              	.LVL263:
 2884 00c8 4FF4DA72 		mov	r2, #436
 2885 00cc 0146     		mov	r1, r0
 2886 00ce 3046     		mov	r0, r6
 2887 00d0 FFF7FEFF 		bl	memcpy
 2888              	.LVL264:
 2889              		.loc 1 347 0
 2890 00d4 B37E     		ldrb	r3, [r6, #26]	@ zero_extendqisi2
 2891              		.loc 1 345 0
 2892 00d6 023B     		subs	r3, r3, #2
 2893 00d8 032B     		cmp	r3, #3
 2894 00da 27D9     		bls	.L332
 2895              	.L316:
 2896              		.loc 1 353 0
 2897 00dc 3046     		mov	r0, r6
 2898 00de FFF7FEFF 		bl	mempools_free_appconf
 2899              	.LVL265:
 2900              		.loc 1 354 0
 2901 00e2 FFF7FEFF 		bl	encoder_init_ts5700n8501
 2902              	.LVL266:
 2903 00e6 94F8BC31 		ldrb	r3, [r4, #444]	@ zero_extendqisi2
 2904              	.LBE578:
 2905              		.loc 1 355 0
 2906 00ea 92E7     		b	.L308
 2907              	.LVL267:
ARM GAS  C:\Users\CFAR\AppData\Local\Temp\ccOMEhOc.s 			page 52


 2908              	.L314:
 2909              		.loc 1 336 0
 2910 00ec 95ED340A 		vldr.32	s0, [r5, #208]
 2911 00f0 D5ED330A 		vldr.32	s1, [r5, #204]
 2912 00f4 95ED361A 		vldr.32	s2, [r5, #216]
 2913 00f8 D5ED351A 		vldr.32	s3, [r5, #212]
 2914 00fc 95ED372A 		vldr.32	s4, [r5, #220]
 2915 0100 FFF7FEFF 		bl	encoder_init_sincos
 2916              	.LVL268:
 2917 0104 94F8BC31 		ldrb	r3, [r4, #444]	@ zero_extendqisi2
 2918              		.loc 1 339 0
 2919 0108 83E7     		b	.L308
 2920              	.L313:
 2921              		.loc 1 332 0
 2922 010a FFF7FEFF 		bl	encoder_init_ad2s1205_spi
 2923              	.LVL269:
 2924 010e 94F8BC31 		ldrb	r3, [r4, #444]	@ zero_extendqisi2
 2925              		.loc 1 333 0
 2926 0112 7EE7     		b	.L308
 2927              	.L312:
 2928              		.loc 1 328 0
 2929 0114 FFF7FEFF 		bl	encoder_init_as5047p_spi
 2930              	.LVL270:
 2931 0118 94F8BC31 		ldrb	r3, [r4, #444]	@ zero_extendqisi2
 2932              		.loc 1 329 0
 2933 011c 79E7     		b	.L308
 2934              	.L310:
 2935              		.loc 1 324 0
 2936 011e D4F8B801 		ldr	r0, [r4, #440]
 2937 0122 FFF7FEFF 		bl	encoder_init_abi
 2938              	.LVL271:
 2939 0126 94F8BC31 		ldrb	r3, [r4, #444]	@ zero_extendqisi2
 2940              		.loc 1 325 0
 2941 012a 72E7     		b	.L308
 2942              	.LVL272:
 2943              	.L332:
 2944              	.LBB579:
 2945              		.loc 1 349 0
 2946 012c 0023     		movs	r3, #0
 2947 012e B376     		strb	r3, [r6, #26]
 2948              		.loc 1 350 0
 2949 0130 3046     		mov	r0, r6
 2950 0132 FFF7FEFF 		bl	conf_general_store_app_configuration
 2951              	.LVL273:
 2952              		.loc 1 351 0
 2953 0136 3046     		mov	r0, r6
 2954 0138 FFF7FEFF 		bl	app_set_configuration
 2955              	.LVL274:
 2956 013c CEE7     		b	.L316
 2957              	.L334:
 2958 013e 00BF     		.align	2
 2959              	.L333:
 2960 0140 00000000 		.word	.LANCHOR12
 2961              	.LBE579:
 2962              		.cfi_endproc
 2963              	.LFE261:
 2964              		.size	mc_interface_set_configuration, .-mc_interface_set_configuration
ARM GAS  C:\Users\CFAR\AppData\Local\Temp\ccOMEhOc.s 			page 53


 2965              		.section	.text.mc_interface_get_amp_hours,"ax",%progbits
 2966              		.align	1
 2967              		.p2align 4,,15
 2968              		.global	mc_interface_get_amp_hours
 2969              		.syntax unified
 2970              		.thumb
 2971              		.thumb_func
 2972              		.fpu fpv4-sp-d16
 2973              		.type	mc_interface_get_amp_hours, %function
 2974              	mc_interface_get_amp_hours:
 2975              	.LFB286:
 2976              		.loc 1 892 0
 2977              		.cfi_startproc
 2978              		@ args = 0, pretend = 0, frame = 0
 2979              		@ frame_needed = 0, uses_anonymous_args = 0
 2980              		@ link register save eliminated.
 2981              	.LVL275:
 2982              		.loc 1 893 0
 2983 0000 054B     		ldr	r3, .L340
 2984 0002 DFED067A 		vldr.32	s15, .L340+4
 2985 0006 93ED8D7A 		vldr.32	s14, [r3, #564]
 2986 000a 87EE270A 		vdiv.f32	s0, s14, s15
 2987              	.LVL276:
 2988              		.loc 1 895 0
 2989 000e 10B1     		cbz	r0, .L335
 2990              		.loc 1 896 0
 2991 0010 0022     		movs	r2, #0
 2992 0012 C3F83422 		str	r2, [r3, #564]	@ float
 2993              	.L335:
 2994              		.loc 1 900 0
 2995 0016 7047     		bx	lr
 2996              	.L341:
 2997              		.align	2
 2998              	.L340:
 2999 0018 00000000 		.word	.LANCHOR12
 3000 001c 00006145 		.word	1163984896
 3001              		.cfi_endproc
 3002              	.LFE286:
 3003              		.size	mc_interface_get_amp_hours, .-mc_interface_get_amp_hours
 3004              		.section	.text.mc_interface_get_amp_hours_charged,"ax",%progbits
 3005              		.align	1
 3006              		.p2align 4,,15
 3007              		.global	mc_interface_get_amp_hours_charged
 3008              		.syntax unified
 3009              		.thumb
 3010              		.thumb_func
 3011              		.fpu fpv4-sp-d16
 3012              		.type	mc_interface_get_amp_hours_charged, %function
 3013              	mc_interface_get_amp_hours_charged:
 3014              	.LFB287:
 3015              		.loc 1 911 0
 3016              		.cfi_startproc
 3017              		@ args = 0, pretend = 0, frame = 0
 3018              		@ frame_needed = 0, uses_anonymous_args = 0
 3019              		@ link register save eliminated.
 3020              	.LVL277:
 3021              		.loc 1 912 0
ARM GAS  C:\Users\CFAR\AppData\Local\Temp\ccOMEhOc.s 			page 54


 3022 0000 054B     		ldr	r3, .L347
 3023 0002 DFED067A 		vldr.32	s15, .L347+4
 3024 0006 93ED8E7A 		vldr.32	s14, [r3, #568]
 3025 000a 87EE270A 		vdiv.f32	s0, s14, s15
 3026              	.LVL278:
 3027              		.loc 1 914 0
 3028 000e 10B1     		cbz	r0, .L342
 3029              		.loc 1 915 0
 3030 0010 0022     		movs	r2, #0
 3031 0012 C3F83822 		str	r2, [r3, #568]	@ float
 3032              	.L342:
 3033              		.loc 1 919 0
 3034 0016 7047     		bx	lr
 3035              	.L348:
 3036              		.align	2
 3037              	.L347:
 3038 0018 00000000 		.word	.LANCHOR12
 3039 001c 00006145 		.word	1163984896
 3040              		.cfi_endproc
 3041              	.LFE287:
 3042              		.size	mc_interface_get_amp_hours_charged, .-mc_interface_get_amp_hours_charged
 3043              		.section	.text.mc_interface_get_watt_hours,"ax",%progbits
 3044              		.align	1
 3045              		.p2align 4,,15
 3046              		.global	mc_interface_get_watt_hours
 3047              		.syntax unified
 3048              		.thumb
 3049              		.thumb_func
 3050              		.fpu fpv4-sp-d16
 3051              		.type	mc_interface_get_watt_hours, %function
 3052              	mc_interface_get_watt_hours:
 3053              	.LFB288:
 3054              		.loc 1 930 0
 3055              		.cfi_startproc
 3056              		@ args = 0, pretend = 0, frame = 0
 3057              		@ frame_needed = 0, uses_anonymous_args = 0
 3058              		@ link register save eliminated.
 3059              	.LVL279:
 3060              		.loc 1 931 0
 3061 0000 054B     		ldr	r3, .L354
 3062 0002 DFED067A 		vldr.32	s15, .L354+4
 3063 0006 93ED8F7A 		vldr.32	s14, [r3, #572]
 3064 000a 87EE270A 		vdiv.f32	s0, s14, s15
 3065              	.LVL280:
 3066              		.loc 1 933 0
 3067 000e 10B1     		cbz	r0, .L349
 3068              		.loc 1 934 0
 3069 0010 0022     		movs	r2, #0
 3070 0012 C3F83C22 		str	r2, [r3, #572]	@ float
 3071              	.L349:
 3072              		.loc 1 938 0
 3073 0016 7047     		bx	lr
 3074              	.L355:
 3075              		.align	2
 3076              	.L354:
 3077 0018 00000000 		.word	.LANCHOR12
 3078 001c 00006145 		.word	1163984896
ARM GAS  C:\Users\CFAR\AppData\Local\Temp\ccOMEhOc.s 			page 55


 3079              		.cfi_endproc
 3080              	.LFE288:
 3081              		.size	mc_interface_get_watt_hours, .-mc_interface_get_watt_hours
 3082              		.section	.text.mc_interface_get_watt_hours_charged,"ax",%progbits
 3083              		.align	1
 3084              		.p2align 4,,15
 3085              		.global	mc_interface_get_watt_hours_charged
 3086              		.syntax unified
 3087              		.thumb
 3088              		.thumb_func
 3089              		.fpu fpv4-sp-d16
 3090              		.type	mc_interface_get_watt_hours_charged, %function
 3091              	mc_interface_get_watt_hours_charged:
 3092              	.LFB289:
 3093              		.loc 1 949 0
 3094              		.cfi_startproc
 3095              		@ args = 0, pretend = 0, frame = 0
 3096              		@ frame_needed = 0, uses_anonymous_args = 0
 3097              		@ link register save eliminated.
 3098              	.LVL281:
 3099              		.loc 1 950 0
 3100 0000 054B     		ldr	r3, .L361
 3101 0002 DFED067A 		vldr.32	s15, .L361+4
 3102 0006 93ED907A 		vldr.32	s14, [r3, #576]
 3103 000a 87EE270A 		vdiv.f32	s0, s14, s15
 3104              	.LVL282:
 3105              		.loc 1 952 0
 3106 000e 10B1     		cbz	r0, .L356
 3107              		.loc 1 953 0
 3108 0010 0022     		movs	r2, #0
 3109 0012 C3F84022 		str	r2, [r3, #576]	@ float
 3110              	.L356:
 3111              		.loc 1 957 0
 3112 0016 7047     		bx	lr
 3113              	.L362:
 3114              		.align	2
 3115              	.L361:
 3116 0018 00000000 		.word	.LANCHOR12
 3117 001c 00006145 		.word	1163984896
 3118              		.cfi_endproc
 3119              	.LFE289:
 3120              		.size	mc_interface_get_watt_hours_charged, .-mc_interface_get_watt_hours_charged
 3121              		.section	.text.mc_interface_get_tot_current,"ax",%progbits
 3122              		.align	1
 3123              		.p2align 4,,15
 3124              		.global	mc_interface_get_tot_current
 3125              		.syntax unified
 3126              		.thumb
 3127              		.thumb_func
 3128              		.fpu fpv4-sp-d16
 3129              		.type	mc_interface_get_tot_current, %function
 3130              	mc_interface_get_tot_current:
 3131              	.LFB290:
 3132              		.loc 1 959 0
 3133              		.cfi_startproc
 3134              		@ args = 0, pretend = 0, frame = 0
 3135              		@ frame_needed = 0, uses_anonymous_args = 0
ARM GAS  C:\Users\CFAR\AppData\Local\Temp\ccOMEhOc.s 			page 56


 3136              		@ link register save eliminated.
 3137              	.LVL283:
 3138              		.loc 1 962 0
 3139 0000 064B     		ldr	r3, .L369
 3140 0002 9B78     		ldrb	r3, [r3, #2]	@ zero_extendqisi2
 3141 0004 DBB2     		uxtb	r3, r3
 3142 0006 012B     		cmp	r3, #1
 3143 0008 06D9     		bls	.L365
 3144 000a 022B     		cmp	r3, #2
 3145 000c 01D1     		bne	.L368
 3146              		.loc 1 969 0
 3147 000e FFF7FEBF 		b	mcpwm_foc_get_tot_current
 3148              	.LVL284:
 3149              	.L368:
 3150              		.loc 1 977 0
 3151 0012 9FED030A 		vldr.32	s0, .L369+4
 3152 0016 7047     		bx	lr
 3153              	.L365:
 3154              		.loc 1 965 0
 3155 0018 FFF7FEBF 		b	mcpwm_get_tot_current
 3156              	.LVL285:
 3157              	.L370:
 3158              		.align	2
 3159              	.L369:
 3160 001c 00000000 		.word	.LANCHOR12
 3161 0020 00000000 		.word	0
 3162              		.cfi_endproc
 3163              	.LFE290:
 3164              		.size	mc_interface_get_tot_current, .-mc_interface_get_tot_current
 3165              		.section	.text.mc_interface_get_tot_current_filtered,"ax",%progbits
 3166              		.align	1
 3167              		.p2align 4,,15
 3168              		.global	mc_interface_get_tot_current_filtered
 3169              		.syntax unified
 3170              		.thumb
 3171              		.thumb_func
 3172              		.fpu fpv4-sp-d16
 3173              		.type	mc_interface_get_tot_current_filtered, %function
 3174              	mc_interface_get_tot_current_filtered:
 3175              	.LFB291:
 3176              		.loc 1 979 0
 3177              		.cfi_startproc
 3178              		@ args = 0, pretend = 0, frame = 0
 3179              		@ frame_needed = 0, uses_anonymous_args = 0
 3180              		@ link register save eliminated.
 3181              	.LVL286:
 3182              		.loc 1 982 0
 3183 0000 064B     		ldr	r3, .L377
 3184 0002 9B78     		ldrb	r3, [r3, #2]	@ zero_extendqisi2
 3185 0004 DBB2     		uxtb	r3, r3
 3186 0006 012B     		cmp	r3, #1
 3187 0008 06D9     		bls	.L373
 3188 000a 022B     		cmp	r3, #2
 3189 000c 01D1     		bne	.L376
 3190              		.loc 1 989 0
 3191 000e FFF7FEBF 		b	mcpwm_foc_get_tot_current_filtered
 3192              	.LVL287:
ARM GAS  C:\Users\CFAR\AppData\Local\Temp\ccOMEhOc.s 			page 57


 3193              	.L376:
 3194              		.loc 1 997 0
 3195 0012 9FED030A 		vldr.32	s0, .L377+4
 3196 0016 7047     		bx	lr
 3197              	.L373:
 3198              		.loc 1 985 0
 3199 0018 FFF7FEBF 		b	mcpwm_get_tot_current_filtered
 3200              	.LVL288:
 3201              	.L378:
 3202              		.align	2
 3203              	.L377:
 3204 001c 00000000 		.word	.LANCHOR12
 3205 0020 00000000 		.word	0
 3206              		.cfi_endproc
 3207              	.LFE291:
 3208              		.size	mc_interface_get_tot_current_filtered, .-mc_interface_get_tot_current_filtered
 3209              		.section	.text.mc_interface_get_tot_current_directional,"ax",%progbits
 3210              		.align	1
 3211              		.p2align 4,,15
 3212              		.global	mc_interface_get_tot_current_directional
 3213              		.syntax unified
 3214              		.thumb
 3215              		.thumb_func
 3216              		.fpu fpv4-sp-d16
 3217              		.type	mc_interface_get_tot_current_directional, %function
 3218              	mc_interface_get_tot_current_directional:
 3219              	.LFB292:
 3220              		.loc 1 999 0
 3221              		.cfi_startproc
 3222              		@ args = 0, pretend = 0, frame = 0
 3223              		@ frame_needed = 0, uses_anonymous_args = 0
 3224              	.LVL289:
 3225 0000 10B5     		push	{r4, lr}
 3226              		.cfi_def_cfa_offset 8
 3227              		.cfi_offset 4, -8
 3228              		.cfi_offset 14, -4
 3229              		.loc 1 1002 0
 3230 0002 0B4C     		ldr	r4, .L391
 3231 0004 A378     		ldrb	r3, [r4, #2]	@ zero_extendqisi2
 3232 0006 DBB2     		uxtb	r3, r3
 3233 0008 012B     		cmp	r3, #1
 3234 000a 0DD9     		bls	.L381
 3235 000c 022B     		cmp	r3, #2
 3236 000e 08D0     		beq	.L382
 3237              		.loc 1 1000 0
 3238 0010 9FED080A 		vldr.32	s0, .L391+4
 3239              	.LVL290:
 3240              	.L380:
 3241              		.loc 1 1016 0
 3242 0014 94F8BD31 		ldrb	r3, [r4, #445]	@ zero_extendqisi2
 3243 0018 03B9     		cbnz	r3, .L390
 3244              		.loc 1 1017 0
 3245 001a 10BD     		pop	{r4, pc}
 3246              	.L390:
 3247 001c B1EE400A 		vneg.f32	s0, s0
 3248              	.LVL291:
 3249 0020 10BD     		pop	{r4, pc}
ARM GAS  C:\Users\CFAR\AppData\Local\Temp\ccOMEhOc.s 			page 58


 3250              	.LVL292:
 3251              	.L382:
 3252              		.loc 1 1009 0
 3253 0022 FFF7FEFF 		bl	mcpwm_foc_get_tot_current_directional
 3254              	.LVL293:
 3255              		.loc 1 1010 0
 3256 0026 F5E7     		b	.L380
 3257              	.LVL294:
 3258              	.L381:
 3259              		.loc 1 1005 0
 3260 0028 FFF7FEFF 		bl	mcpwm_get_tot_current_directional
 3261              	.LVL295:
 3262              		.loc 1 1006 0
 3263 002c F2E7     		b	.L380
 3264              	.L392:
 3265 002e 00BF     		.align	2
 3266              	.L391:
 3267 0030 00000000 		.word	.LANCHOR12
 3268 0034 00000000 		.word	0
 3269              		.cfi_endproc
 3270              	.LFE292:
 3271              		.size	mc_interface_get_tot_current_directional, .-mc_interface_get_tot_current_directional
 3272              		.section	.text.mc_interface_get_tot_current_directional_filtered,"ax",%progbits
 3273              		.align	1
 3274              		.p2align 4,,15
 3275              		.global	mc_interface_get_tot_current_directional_filtered
 3276              		.syntax unified
 3277              		.thumb
 3278              		.thumb_func
 3279              		.fpu fpv4-sp-d16
 3280              		.type	mc_interface_get_tot_current_directional_filtered, %function
 3281              	mc_interface_get_tot_current_directional_filtered:
 3282              	.LFB293:
 3283              		.loc 1 1019 0
 3284              		.cfi_startproc
 3285              		@ args = 0, pretend = 0, frame = 0
 3286              		@ frame_needed = 0, uses_anonymous_args = 0
 3287              	.LVL296:
 3288 0000 10B5     		push	{r4, lr}
 3289              		.cfi_def_cfa_offset 8
 3290              		.cfi_offset 4, -8
 3291              		.cfi_offset 14, -4
 3292              		.loc 1 1022 0
 3293 0002 0B4C     		ldr	r4, .L405
 3294 0004 A378     		ldrb	r3, [r4, #2]	@ zero_extendqisi2
 3295 0006 DBB2     		uxtb	r3, r3
 3296 0008 012B     		cmp	r3, #1
 3297 000a 0DD9     		bls	.L395
 3298 000c 022B     		cmp	r3, #2
 3299 000e 08D0     		beq	.L396
 3300              		.loc 1 1020 0
 3301 0010 9FED080A 		vldr.32	s0, .L405+4
 3302              	.LVL297:
 3303              	.L394:
 3304              		.loc 1 1036 0
 3305 0014 94F8BD31 		ldrb	r3, [r4, #445]	@ zero_extendqisi2
 3306 0018 03B9     		cbnz	r3, .L404
ARM GAS  C:\Users\CFAR\AppData\Local\Temp\ccOMEhOc.s 			page 59


 3307              		.loc 1 1037 0
 3308 001a 10BD     		pop	{r4, pc}
 3309              	.L404:
 3310 001c B1EE400A 		vneg.f32	s0, s0
 3311              	.LVL298:
 3312 0020 10BD     		pop	{r4, pc}
 3313              	.LVL299:
 3314              	.L396:
 3315              		.loc 1 1029 0
 3316 0022 FFF7FEFF 		bl	mcpwm_foc_get_tot_current_directional_filtered
 3317              	.LVL300:
 3318              		.loc 1 1030 0
 3319 0026 F5E7     		b	.L394
 3320              	.LVL301:
 3321              	.L395:
 3322              		.loc 1 1025 0
 3323 0028 FFF7FEFF 		bl	mcpwm_get_tot_current_directional_filtered
 3324              	.LVL302:
 3325              		.loc 1 1026 0
 3326 002c F2E7     		b	.L394
 3327              	.L406:
 3328 002e 00BF     		.align	2
 3329              	.L405:
 3330 0030 00000000 		.word	.LANCHOR12
 3331 0034 00000000 		.word	0
 3332              		.cfi_endproc
 3333              	.LFE293:
 3334              		.size	mc_interface_get_tot_current_directional_filtered, .-mc_interface_get_tot_current_directiona
 3335              		.section	.text.mc_interface_get_tot_current_in,"ax",%progbits
 3336              		.align	1
 3337              		.p2align 4,,15
 3338              		.global	mc_interface_get_tot_current_in
 3339              		.syntax unified
 3340              		.thumb
 3341              		.thumb_func
 3342              		.fpu fpv4-sp-d16
 3343              		.type	mc_interface_get_tot_current_in, %function
 3344              	mc_interface_get_tot_current_in:
 3345              	.LFB294:
 3346              		.loc 1 1039 0
 3347              		.cfi_startproc
 3348              		@ args = 0, pretend = 0, frame = 0
 3349              		@ frame_needed = 0, uses_anonymous_args = 0
 3350              		@ link register save eliminated.
 3351              	.LVL303:
 3352              		.loc 1 1042 0
 3353 0000 064B     		ldr	r3, .L413
 3354 0002 9B78     		ldrb	r3, [r3, #2]	@ zero_extendqisi2
 3355 0004 DBB2     		uxtb	r3, r3
 3356 0006 012B     		cmp	r3, #1
 3357 0008 06D9     		bls	.L409
 3358 000a 022B     		cmp	r3, #2
 3359 000c 01D1     		bne	.L412
 3360              		.loc 1 1049 0
 3361 000e FFF7FEBF 		b	mcpwm_foc_get_tot_current_in
 3362              	.LVL304:
 3363              	.L412:
ARM GAS  C:\Users\CFAR\AppData\Local\Temp\ccOMEhOc.s 			page 60


 3364              		.loc 1 1057 0
 3365 0012 9FED030A 		vldr.32	s0, .L413+4
 3366 0016 7047     		bx	lr
 3367              	.L409:
 3368              		.loc 1 1045 0
 3369 0018 FFF7FEBF 		b	mcpwm_get_tot_current_in
 3370              	.LVL305:
 3371              	.L414:
 3372              		.align	2
 3373              	.L413:
 3374 001c 00000000 		.word	.LANCHOR12
 3375 0020 00000000 		.word	0
 3376              		.cfi_endproc
 3377              	.LFE294:
 3378              		.size	mc_interface_get_tot_current_in, .-mc_interface_get_tot_current_in
 3379              		.section	.text.mc_interface_get_tot_current_in_filtered,"ax",%progbits
 3380              		.align	1
 3381              		.p2align 4,,15
 3382              		.global	mc_interface_get_tot_current_in_filtered
 3383              		.syntax unified
 3384              		.thumb
 3385              		.thumb_func
 3386              		.fpu fpv4-sp-d16
 3387              		.type	mc_interface_get_tot_current_in_filtered, %function
 3388              	mc_interface_get_tot_current_in_filtered:
 3389              	.LFB295:
 3390              		.loc 1 1059 0
 3391              		.cfi_startproc
 3392              		@ args = 0, pretend = 0, frame = 0
 3393              		@ frame_needed = 0, uses_anonymous_args = 0
 3394              		@ link register save eliminated.
 3395              	.LVL306:
 3396              		.loc 1 1062 0
 3397 0000 064B     		ldr	r3, .L421
 3398 0002 9B78     		ldrb	r3, [r3, #2]	@ zero_extendqisi2
 3399 0004 DBB2     		uxtb	r3, r3
 3400 0006 012B     		cmp	r3, #1
 3401 0008 06D9     		bls	.L417
 3402 000a 022B     		cmp	r3, #2
 3403 000c 01D1     		bne	.L420
 3404              		.loc 1 1069 0
 3405 000e FFF7FEBF 		b	mcpwm_foc_get_tot_current_in_filtered
 3406              	.LVL307:
 3407              	.L420:
 3408              		.loc 1 1077 0
 3409 0012 9FED030A 		vldr.32	s0, .L421+4
 3410 0016 7047     		bx	lr
 3411              	.L417:
 3412              		.loc 1 1065 0
 3413 0018 FFF7FEBF 		b	mcpwm_get_tot_current_in_filtered
 3414              	.LVL308:
 3415              	.L422:
 3416              		.align	2
 3417              	.L421:
 3418 001c 00000000 		.word	.LANCHOR12
 3419 0020 00000000 		.word	0
 3420              		.cfi_endproc
ARM GAS  C:\Users\CFAR\AppData\Local\Temp\ccOMEhOc.s 			page 61


 3421              	.LFE295:
 3422              		.size	mc_interface_get_tot_current_in_filtered, .-mc_interface_get_tot_current_in_filtered
 3423              		.section	.text.mc_interface_get_abs_motor_current_unbalance,"ax",%progbits
 3424              		.align	1
 3425              		.p2align 4,,15
 3426              		.global	mc_interface_get_abs_motor_current_unbalance
 3427              		.syntax unified
 3428              		.thumb
 3429              		.thumb_func
 3430              		.fpu fpv4-sp-d16
 3431              		.type	mc_interface_get_abs_motor_current_unbalance, %function
 3432              	mc_interface_get_abs_motor_current_unbalance:
 3433              	.LFB296:
 3434              		.loc 1 1079 0
 3435              		.cfi_startproc
 3436              		@ args = 0, pretend = 0, frame = 0
 3437              		@ frame_needed = 0, uses_anonymous_args = 0
 3438              		@ link register save eliminated.
 3439              	.LVL309:
 3440              		.loc 1 1097 0
 3441 0000 9FED010A 		vldr.32	s0, .L424
 3442 0004 7047     		bx	lr
 3443              	.L425:
 3444 0006 00BF     		.align	2
 3445              	.L424:
 3446 0008 00000000 		.word	0
 3447              		.cfi_endproc
 3448              	.LFE296:
 3449              		.size	mc_interface_get_abs_motor_current_unbalance, .-mc_interface_get_abs_motor_current_unbalance
 3450              		.section	.text.mc_interface_set_tachometer_value,"ax",%progbits
 3451              		.align	1
 3452              		.p2align 4,,15
 3453              		.global	mc_interface_set_tachometer_value
 3454              		.syntax unified
 3455              		.thumb
 3456              		.thumb_func
 3457              		.fpu fpv4-sp-d16
 3458              		.type	mc_interface_set_tachometer_value, %function
 3459              	mc_interface_set_tachometer_value:
 3460              	.LFB297:
 3461              		.loc 1 1099 0
 3462              		.cfi_startproc
 3463              		@ args = 0, pretend = 0, frame = 8
 3464              		@ frame_needed = 0, uses_anonymous_args = 0
 3465              	.LVL310:
 3466 0000 10B5     		push	{r4, lr}
 3467              		.cfi_def_cfa_offset 8
 3468              		.cfi_offset 4, -8
 3469              		.cfi_offset 14, -4
 3470              		.loc 1 1101 0
 3471 0002 264C     		ldr	r4, .L441
 3472 0004 A378     		ldrb	r3, [r4, #2]	@ zero_extendqisi2
 3473              		.loc 1 1099 0
 3474 0006 82B0     		sub	sp, sp, #8
 3475              		.cfi_def_cfa_offset 16
 3476              		.loc 1 1101 0
 3477 0008 DBB2     		uxtb	r3, r3
ARM GAS  C:\Users\CFAR\AppData\Local\Temp\ccOMEhOc.s 			page 62


 3478 000a 012B     		cmp	r3, #1
 3479              		.loc 1 1099 0
 3480 000c 0190     		str	r0, [sp, #4]
 3481              		.loc 1 1101 0
 3482 000e 29D9     		bls	.L428
 3483 0010 022B     		cmp	r3, #2
 3484 0012 0CD0     		beq	.L429
 3485 0014 DFED227A 		vldr.32	s15, .L441+4
 3486              	.LVL311:
 3487              	.L427:
 3488              		.loc 1 1115 0
 3489 0018 94F8BD31 		ldrb	r3, [r4, #445]	@ zero_extendqisi2
 3490 001c 0BB1     		cbz	r3, .L432
 3491 001e F1EE677A 		vneg.f32	s15, s15
 3492              	.L432:
 3493              		.loc 1 1116 0 discriminator 4
 3494 0022 FDEEE77A 		vcvt.s32.f32	s15, s15
 3495 0026 17EE900A 		vmov	r0, s15	@ int
 3496 002a 02B0     		add	sp, sp, #8
 3497              		.cfi_remember_state
 3498              		.cfi_def_cfa_offset 8
 3499              		@ sp needed
 3500 002c 10BD     		pop	{r4, pc}
 3501              	.LVL312:
 3502              	.L429:
 3503              		.cfi_restore_state
 3504              		.loc 1 1108 0
 3505 002e 94F8BD31 		ldrb	r3, [r4, #445]	@ zero_extendqisi2
 3506 0032 DDED017A 		vldr.32	s15, [sp, #4]	@ int
 3507 0036 002B     		cmp	r3, #0
 3508 0038 FFEE006A 		vmov.f32	s13, #-1.0e+0
 3509 003c B7EE007A 		vmov.f32	s14, #1.0e+0
 3510 0040 F8EEE77A 		vcvt.f32.s32	s15, s15
 3511 0044 18BF     		it	ne
 3512 0046 B0EE667A 		vmovne.f32	s14, s13
 3513 004a 67EE877A 		vmul.f32	s15, s15, s14
 3514 004e FDEEE77A 		vcvt.s32.f32	s15, s15
 3515 0052 17EE900A 		vmov	r0, s15	@ int
 3516              	.LVL313:
 3517 0056 FFF7FEFF 		bl	mcpwm_foc_set_tachometer_value
 3518              	.LVL314:
 3519 005a 07EE900A 		vmov	s15, r0	@ int
 3520 005e F8EEE77A 		vcvt.f32.s32	s15, s15
 3521              		.loc 1 1109 0
 3522 0062 D9E7     		b	.L427
 3523              	.LVL315:
 3524              	.L428:
 3525              		.loc 1 1104 0
 3526 0064 94F8BD31 		ldrb	r3, [r4, #445]	@ zero_extendqisi2
 3527 0068 DDED017A 		vldr.32	s15, [sp, #4]	@ int
 3528 006c 002B     		cmp	r3, #0
 3529 006e FFEE006A 		vmov.f32	s13, #-1.0e+0
 3530 0072 B7EE007A 		vmov.f32	s14, #1.0e+0
 3531 0076 F8EEE77A 		vcvt.f32.s32	s15, s15
 3532 007a 18BF     		it	ne
 3533 007c B0EE667A 		vmovne.f32	s14, s13
 3534 0080 67EE877A 		vmul.f32	s15, s15, s14
ARM GAS  C:\Users\CFAR\AppData\Local\Temp\ccOMEhOc.s 			page 63


 3535 0084 FDEEE77A 		vcvt.s32.f32	s15, s15
 3536 0088 17EE900A 		vmov	r0, s15	@ int
 3537              	.LVL316:
 3538 008c FFF7FEFF 		bl	mcpwm_set_tachometer_value
 3539              	.LVL317:
 3540 0090 07EE900A 		vmov	s15, r0	@ int
 3541 0094 F8EEE77A 		vcvt.f32.s32	s15, s15
 3542              		.loc 1 1105 0
 3543 0098 BEE7     		b	.L427
 3544              	.L442:
 3545 009a 00BF     		.align	2
 3546              	.L441:
 3547 009c 00000000 		.word	.LANCHOR12
 3548 00a0 00000000 		.word	0
 3549              		.cfi_endproc
 3550              	.LFE297:
 3551              		.size	mc_interface_set_tachometer_value, .-mc_interface_set_tachometer_value
 3552              		.section	.text.mc_interface_get_tachometer_value,"ax",%progbits
 3553              		.align	1
 3554              		.p2align 4,,15
 3555              		.global	mc_interface_get_tachometer_value
 3556              		.syntax unified
 3557              		.thumb
 3558              		.thumb_func
 3559              		.fpu fpv4-sp-d16
 3560              		.type	mc_interface_get_tachometer_value, %function
 3561              	mc_interface_get_tachometer_value:
 3562              	.LFB298:
 3563              		.loc 1 1118 0
 3564              		.cfi_startproc
 3565              		@ args = 0, pretend = 0, frame = 0
 3566              		@ frame_needed = 0, uses_anonymous_args = 0
 3567              	.LVL318:
 3568 0000 10B5     		push	{r4, lr}
 3569              		.cfi_def_cfa_offset 8
 3570              		.cfi_offset 4, -8
 3571              		.cfi_offset 14, -4
 3572              		.loc 1 1121 0
 3573 0002 104C     		ldr	r4, .L454
 3574 0004 A378     		ldrb	r3, [r4, #2]	@ zero_extendqisi2
 3575 0006 DBB2     		uxtb	r3, r3
 3576 0008 012B     		cmp	r3, #1
 3577 000a 14D9     		bls	.L445
 3578 000c 022B     		cmp	r3, #2
 3579 000e 0BD0     		beq	.L446
 3580 0010 DFED0D7A 		vldr.32	s15, .L454+4
 3581              	.LVL319:
 3582              	.L444:
 3583              		.loc 1 1135 0
 3584 0014 94F8BD31 		ldrb	r3, [r4, #445]	@ zero_extendqisi2
 3585 0018 0BB1     		cbz	r3, .L447
 3586 001a F1EE677A 		vneg.f32	s15, s15
 3587              	.L447:
 3588              		.loc 1 1136 0 discriminator 4
 3589 001e FDEEE77A 		vcvt.s32.f32	s15, s15
 3590 0022 17EE900A 		vmov	r0, s15	@ int
 3591 0026 10BD     		pop	{r4, pc}
ARM GAS  C:\Users\CFAR\AppData\Local\Temp\ccOMEhOc.s 			page 64


 3592              	.LVL320:
 3593              	.L446:
 3594              		.loc 1 1128 0
 3595 0028 FFF7FEFF 		bl	mcpwm_foc_get_tachometer_value
 3596              	.LVL321:
 3597 002c 07EE900A 		vmov	s15, r0	@ int
 3598 0030 F8EEE77A 		vcvt.f32.s32	s15, s15
 3599              		.loc 1 1129 0
 3600 0034 EEE7     		b	.L444
 3601              	.LVL322:
 3602              	.L445:
 3603              		.loc 1 1124 0
 3604 0036 FFF7FEFF 		bl	mcpwm_get_tachometer_value
 3605              	.LVL323:
 3606 003a 07EE900A 		vmov	s15, r0	@ int
 3607 003e F8EEE77A 		vcvt.f32.s32	s15, s15
 3608              		.loc 1 1125 0
 3609 0042 E7E7     		b	.L444
 3610              	.L455:
 3611              		.align	2
 3612              	.L454:
 3613 0044 00000000 		.word	.LANCHOR12
 3614 0048 00000000 		.word	0
 3615              		.cfi_endproc
 3616              	.LFE298:
 3617              		.size	mc_interface_get_tachometer_value, .-mc_interface_get_tachometer_value
 3618              		.section	.text.fault_stop_thread,"ax",%progbits
 3619              		.align	1
 3620              		.p2align 4,,15
 3621              		.syntax unified
 3622              		.thumb
 3623              		.thumb_func
 3624              		.fpu fpv4-sp-d16
 3625              		.type	fault_stop_thread, %function
 3626              	fault_stop_thread:
 3627              	.LFB327:
 3628              		.loc 1 2274 0
 3629              		.cfi_startproc
 3630              		@ args = 0, pretend = 0, frame = 72
 3631              		@ frame_needed = 0, uses_anonymous_args = 0
 3632              	.LVL324:
 3633 0000 2DE9F043 		push	{r4, r5, r6, r7, r8, r9, lr}
 3634              		.cfi_def_cfa_offset 28
 3635              		.cfi_offset 4, -28
 3636              		.cfi_offset 5, -24
 3637              		.cfi_offset 6, -20
 3638              		.cfi_offset 7, -16
 3639              		.cfi_offset 8, -12
 3640              		.cfi_offset 9, -8
 3641              		.cfi_offset 14, -4
 3642              	.LBB580:
 3643              	.LBB581:
 3644              		.loc 2 135 0
 3645 0004 564B     		ldr	r3, .L474
 3646              	.LBE581:
 3647              	.LBE580:
 3648              		.loc 1 2278 0
ARM GAS  C:\Users\CFAR\AppData\Local\Temp\ccOMEhOc.s 			page 65


 3649 0006 574A     		ldr	r2, .L474+4
 3650              	.LBB584:
 3651              	.LBB582:
 3652              		.loc 2 135 0
 3653 0008 9B69     		ldr	r3, [r3, #24]
 3654 000a 5749     		ldr	r1, .L474+8
 3655 000c 574E     		ldr	r6, .L474+12
 3656 000e 584C     		ldr	r4, .L474+16
 3657 0010 584D     		ldr	r5, .L474+20
 3658 0012 594F     		ldr	r7, .L474+24
 3659              	.LBE582:
 3660              	.LBE584:
 3661              	.LBB585:
 3662              	.LBB586:
 3663              		.loc 1 2299 0
 3664 0014 DFF88481 		ldr	r8, .L474+60
 3665              	.LBE586:
 3666              	.LBE585:
 3667              		.loc 1 2274 0
 3668 0018 2DED068B 		vpush.64	{d8, d9, d10}
 3669              		.cfi_def_cfa_offset 52
 3670              		.cfi_offset 80, -52
 3671              		.cfi_offset 81, -48
 3672              		.cfi_offset 82, -44
 3673              		.cfi_offset 83, -40
 3674              		.cfi_offset 84, -36
 3675              		.cfi_offset 85, -32
 3676              	.LBB589:
 3677              	.LBB587:
 3678              		.loc 1 2309 0
 3679 001c 9FED57AA 		vldr.32	s20, .L474+28
 3680 0020 DFED579A 		vldr.32	s19, .L474+32
 3681              		.loc 1 2319 0
 3682 0024 9FED579A 		vldr.32	s18, .L474+36
 3683 0028 9FED578A 		vldr.32	s16, .L474+40
 3684 002c DFED578A 		vldr.32	s17, .L474+44
 3685              	.LBE587:
 3686              	.LBE589:
 3687              	.LBB590:
 3688              	.LBB583:
 3689              		.loc 2 135 0
 3690 0030 9961     		str	r1, [r3, #24]
 3691              	.LVL325:
 3692              	.LBE583:
 3693              	.LBE590:
 3694              		.loc 1 2274 0
 3695 0032 93B0     		sub	sp, sp, #76
 3696              		.cfi_def_cfa_offset 128
 3697              		.loc 1 2278 0
 3698 0034 1360     		str	r3, [r2]
 3699              	.LVL326:
 3700              	.L457:
 3701              	.LBB591:
 3702              		.loc 1 2281 0
 3703 0036 0120     		movs	r0, #1
 3704 0038 FFF7FEFF 		bl	chEvtWaitAny
 3705              	.LVL327:
ARM GAS  C:\Users\CFAR\AppData\Local\Temp\ccOMEhOc.s 			page 66


 3706              		.loc 1 2288 0
 3707 003c 3378     		ldrb	r3, [r6]	@ zero_extendqisi2
 3708              		.loc 1 2290 0
 3709 003e 94F8F421 		ldrb	r2, [r4, #500]	@ zero_extendqisi2
 3710 0042 2B78     		ldrb	r3, [r5]	@ zero_extendqisi2
 3711 0044 9A42     		cmp	r2, r3
 3712 0046 21D0     		beq	.L472
 3713              		.loc 1 2295 0
 3714 0048 FFF7FEFF 		bl	mc_interface_dccal_done
 3715              	.LVL328:
 3716 004c 20B1     		cbz	r0, .L460
 3717              		.loc 1 2295 0 is_stmt 0 discriminator 1
 3718 004e 94F8F431 		ldrb	r3, [r4, #500]	@ zero_extendqisi2
 3719 0052 03F0FF09 		and	r9, r3, #255
 3720 0056 F3B1     		cbz	r3, .L473
 3721              	.L460:
 3722              		.loc 1 2336 0 is_stmt 1
 3723 0058 D4F8AC31 		ldr	r3, [r4, #428]
 3724 005c C4F8F831 		str	r3, [r4, #504]
 3725              		.loc 1 2338 0
 3726 0060 A378     		ldrb	r3, [r4, #2]	@ zero_extendqisi2
 3727 0062 032B     		cmp	r3, #3
 3728 0064 06D8     		bhi	.L462
 3729 0066 DFE803F0 		tbb	[pc, r3]
 3730              	.L464:
 3731 006a 0E       		.byte	(.L463-.L464)/2
 3732 006b 0E       		.byte	(.L463-.L464)/2
 3733 006c 0A       		.byte	(.L465-.L464)/2
 3734 006d 02       		.byte	(.L466-.L464)/2
 3735              		.p2align 1
 3736              	.L466:
 3737              		.loc 1 2349 0
 3738 006e 0020     		movs	r0, #0
 3739 0070 FFF7FEFF 		bl	gpdrive_set_mode
 3740              	.LVL329:
 3741              	.L462:
 3742              		.loc 1 2356 0
 3743 0074 2B78     		ldrb	r3, [r5]	@ zero_extendqisi2
 3744 0076 DBB2     		uxtb	r3, r3
 3745 0078 84F8F431 		strb	r3, [r4, #500]
 3746 007c DBE7     		b	.L457
 3747              	.L465:
 3748              		.loc 1 2345 0
 3749 007e 3078     		ldrb	r0, [r6]	@ zero_extendqisi2
 3750 0080 FFF7FEFF 		bl	mcpwm_foc_stop_pwm
 3751              	.LVL330:
 3752              		.loc 1 2346 0
 3753 0084 F6E7     		b	.L462
 3754              	.L463:
 3755              		.loc 1 2341 0
 3756 0086 FFF7FEFF 		bl	mcpwm_stop_pwm
 3757              	.LVL331:
 3758              		.loc 1 2342 0
 3759 008a F3E7     		b	.L462
 3760              	.L472:
 3761              		.loc 1 2291 0
 3762 008c D4F8AC31 		ldr	r3, [r4, #428]
ARM GAS  C:\Users\CFAR\AppData\Local\Temp\ccOMEhOc.s 			page 67


 3763 0090 C4F8F831 		str	r3, [r4, #504]
 3764              		.loc 1 2292 0
 3765 0094 CFE7     		b	.L457
 3766              	.L473:
 3767              	.LBB588:
 3768              		.loc 1 2298 0
 3769 0096 FFF7FEFF 		bl	utils_sys_lock_cnt
 3770              	.LVL332:
 3771              		.loc 1 2299 0
 3772 009a D8F83420 		ldr	r2, [r8, #52]
 3773              		.loc 1 2300 0
 3774 009e 3C4B     		ldr	r3, .L474+48
 3775              		.loc 1 2299 0
 3776 00a0 0092     		str	r2, [sp]
 3777              		.loc 1 2300 0
 3778 00a2 1A6C     		ldr	r2, [r3, #64]
 3779 00a4 0192     		str	r2, [sp, #4]
 3780              		.loc 1 2301 0
 3781 00a6 DB6A     		ldr	r3, [r3, #44]
 3782 00a8 0293     		str	r3, [sp, #8]
 3783              		.loc 1 2302 0
 3784 00aa FFF7FEFF 		bl	utils_sys_unlock_cnt
 3785              	.LVL333:
 3786              		.loc 1 2305 0
 3787 00ae 3378     		ldrb	r3, [r6]	@ zero_extendqisi2
 3788              		.loc 1 2306 0
 3789 00b0 2A78     		ldrb	r2, [r5]	@ zero_extendqisi2
 3790 00b2 8DF80D20 		strb	r2, [sp, #13]
 3791              		.loc 1 2305 0
 3792 00b6 002B     		cmp	r3, #0
 3793 00b8 14BF     		ite	ne
 3794 00ba 0223     		movne	r3, #2
 3795 00bc 0123     		moveq	r3, #1
 3796 00be 8DF80C30 		strb	r3, [sp, #12]
 3797              		.loc 1 2307 0
 3798 00c2 FFF7FEFF 		bl	mc_interface_get_tot_current
 3799              	.LVL334:
 3800 00c6 8DED040A 		vstr.32	s0, [sp, #16]
 3801              		.loc 1 2308 0
 3802 00ca FFF7FEFF 		bl	mc_interface_get_tot_current_filtered
 3803              	.LVL335:
 3804              		.loc 1 2309 0
 3805 00ce 3B8A     		ldrh	r3, [r7, #16]
 3806              		.loc 1 2308 0
 3807 00d0 8DED050A 		vstr.32	s0, [sp, #20]
 3808              		.loc 1 2309 0
 3809 00d4 07EE903A 		vmov	s15, r3	@ int
 3810 00d8 F8EE677A 		vcvt.f32.u32	s15, s15
 3811              		.loc 1 2310 0
 3812 00dc D4F85032 		ldr	r3, [r4, #592]	@ float
 3813 00e0 0793     		str	r3, [sp, #28]	@ float
 3814              		.loc 1 2309 0
 3815 00e2 67EE8A7A 		vmul.f32	s15, s15, s20
 3816 00e6 67EEA97A 		vmul.f32	s15, s15, s19
 3817 00ea CDED067A 		vstr.32	s15, [sp, #24]
 3818              		.loc 1 2311 0
 3819 00ee FFF7FEFF 		bl	mc_interface_get_duty_cycle_now
ARM GAS  C:\Users\CFAR\AppData\Local\Temp\ccOMEhOc.s 			page 68


 3820              	.LVL336:
 3821 00f2 8DED080A 		vstr.32	s0, [sp, #32]
 3822              		.loc 1 2312 0
 3823 00f6 FFF7FEFF 		bl	mc_interface_get_rpm
 3824              	.LVL337:
 3825              		.loc 1 2313 0
 3826 00fa 4846     		mov	r0, r9
 3827              		.loc 1 2312 0
 3828 00fc 8DED090A 		vstr.32	s0, [sp, #36]
 3829              		.loc 1 2313 0
 3830 0100 FFF7FEFF 		bl	mc_interface_get_tachometer_value
 3831              	.LVL338:
 3832              		.loc 1 2314 0
 3833 0104 D4F8FCC1 		ldr	ip, [r4, #508]
 3834              		.loc 1 2315 0
 3835 0108 0099     		ldr	r1, [sp]
 3836              		.loc 1 2316 0
 3837 010a 019A     		ldr	r2, [sp, #4]
 3838              		.loc 1 2317 0
 3839 010c 029B     		ldr	r3, [sp, #8]
 3840 010e 0E93     		str	r3, [sp, #56]
 3841              		.loc 1 2314 0
 3842 0110 CDE90A0C 		strd	r0, ip, [sp, #40]
 3843              		.loc 1 2316 0
 3844 0114 CDE90C12 		strd	r1, r2, [sp, #48]
 3845              		.loc 1 2318 0
 3846 0118 FFF7FEFF 		bl	mcpwm_get_comm_step
 3847              	.LVL339:
 3848              		.loc 1 2319 0
 3849 011c 7B89     		ldrh	r3, [r7, #10]
 3850              		.loc 1 2318 0
 3851 011e 0F90     		str	r0, [sp, #60]
 3852              		.loc 1 2319 0
 3853 0120 07EE903A 		vmov	s15, r3	@ int
 3854 0124 F8EEE77A 		vcvt.f32.s32	s15, s15
 3855 0128 89EE270A 		vdiv.f32	s0, s18, s15
 3856 012c 30EE480A 		vsub.f32	s0, s0, s16
 3857 0130 80EE080A 		vdiv.f32	s0, s0, s16
 3858 0134 FFF7FEFF 		bl	logf
 3859              	.LVL340:
 3860              		.loc 1 2333 0
 3861 0138 03A8     		add	r0, sp, #12
 3862              		.loc 1 2319 0
 3863 013a 80EE280A 		vdiv.f32	s0, s0, s17
 3864 013e DFED157A 		vldr.32	s15, .L474+52
 3865 0142 9FED157A 		vldr.32	s14, .L474+56
 3866 0146 30EE270A 		vadd.f32	s0, s0, s15
 3867 014a F7EE006A 		vmov.f32	s13, #1.0e+0
 3868 014e C6EE807A 		vdiv.f32	s15, s13, s0
 3869 0152 77EEC77A 		vsub.f32	s15, s15, s14
 3870 0156 CDED107A 		vstr.32	s15, [sp, #64]
 3871              		.loc 1 2333 0
 3872 015a FFF7FEFF 		bl	terminal_add_fault_data
 3873              	.LVL341:
 3874 015e 7BE7     		b	.L460
 3875              	.L475:
 3876              		.align	2
ARM GAS  C:\Users\CFAR\AppData\Local\Temp\ccOMEhOc.s 			page 69


 3877              	.L474:
 3878 0160 00000000 		.word	ch
 3879 0164 00000000 		.word	.LANCHOR13
 3880 0168 00000000 		.word	.LC3
 3881 016c 00000000 		.word	.LANCHOR26
 3882 0170 00000000 		.word	.LANCHOR12
 3883 0174 00000000 		.word	.LANCHOR25
 3884 0178 00000000 		.word	.LANCHOR24
 3885 017c 6740533A 		.word	978534503
 3886 0180 74D19541 		.word	1100337524
 3887 0184 3C361C4C 		.word	1276917308
 3888 0188 00401C46 		.word	1176256512
 3889 018c 00A05645 		.word	1163304960
 3890 0190 00000140 		.word	1073807360
 3891 0194 0FCF5B3B 		.word	995872527
 3892 0198 33938843 		.word	1133024051
 3893 019c 00040140 		.word	1073808384
 3894              	.LBE588:
 3895              	.LBE591:
 3896              		.cfi_endproc
 3897              	.LFE327:
 3898              		.size	fault_stop_thread, .-fault_stop_thread
 3899              		.section	.text.mc_interface_get_tachometer_abs_value,"ax",%progbits
 3900              		.align	1
 3901              		.p2align 4,,15
 3902              		.global	mc_interface_get_tachometer_abs_value
 3903              		.syntax unified
 3904              		.thumb
 3905              		.thumb_func
 3906              		.fpu fpv4-sp-d16
 3907              		.type	mc_interface_get_tachometer_abs_value, %function
 3908              	mc_interface_get_tachometer_abs_value:
 3909              	.LFB299:
 3910              		.loc 1 1138 0
 3911              		.cfi_startproc
 3912              		@ args = 0, pretend = 0, frame = 0
 3913              		@ frame_needed = 0, uses_anonymous_args = 0
 3914              		@ link register save eliminated.
 3915              	.LVL342:
 3916              		.loc 1 1141 0
 3917 0000 064B     		ldr	r3, .L482
 3918 0002 9B78     		ldrb	r3, [r3, #2]	@ zero_extendqisi2
 3919 0004 DBB2     		uxtb	r3, r3
 3920 0006 012B     		cmp	r3, #1
 3921 0008 05D9     		bls	.L478
 3922 000a 022B     		cmp	r3, #2
 3923 000c 01D1     		bne	.L481
 3924              		.loc 1 1148 0
 3925 000e FFF7FEBF 		b	mcpwm_foc_get_tachometer_abs_value
 3926              	.LVL343:
 3927              	.L481:
 3928              		.loc 1 1156 0
 3929 0012 0020     		movs	r0, #0
 3930              	.LVL344:
 3931 0014 7047     		bx	lr
 3932              	.LVL345:
 3933              	.L478:
ARM GAS  C:\Users\CFAR\AppData\Local\Temp\ccOMEhOc.s 			page 70


 3934              		.loc 1 1144 0
 3935 0016 FFF7FEBF 		b	mcpwm_get_tachometer_abs_value
 3936              	.LVL346:
 3937              	.L483:
 3938 001a 00BF     		.align	2
 3939              	.L482:
 3940 001c 00000000 		.word	.LANCHOR12
 3941              		.cfi_endproc
 3942              	.LFE299:
 3943              		.size	mc_interface_get_tachometer_abs_value, .-mc_interface_get_tachometer_abs_value
 3944              		.section	.text.mc_interface_get_last_inj_adc_isr_duration,"ax",%progbits
 3945              		.align	1
 3946              		.p2align 4,,15
 3947              		.global	mc_interface_get_last_inj_adc_isr_duration
 3948              		.syntax unified
 3949              		.thumb
 3950              		.thumb_func
 3951              		.fpu fpv4-sp-d16
 3952              		.type	mc_interface_get_last_inj_adc_isr_duration, %function
 3953              	mc_interface_get_last_inj_adc_isr_duration:
 3954              	.LFB300:
 3955              		.loc 1 1158 0
 3956              		.cfi_startproc
 3957              		@ args = 0, pretend = 0, frame = 0
 3958              		@ frame_needed = 0, uses_anonymous_args = 0
 3959              		@ link register save eliminated.
 3960              	.LVL347:
 3961              		.loc 1 1161 0
 3962 0000 084B     		ldr	r3, .L490
 3963 0002 9B78     		ldrb	r3, [r3, #2]	@ zero_extendqisi2
 3964 0004 032B     		cmp	r3, #3
 3965 0006 09D8     		bhi	.L485
 3966 0008 DFE803F0 		tbb	[pc, r3]
 3967              	.L487:
 3968 000c 06       		.byte	(.L486-.L487)/2
 3969 000d 06       		.byte	(.L486-.L487)/2
 3970 000e 04       		.byte	(.L488-.L487)/2
 3971 000f 02       		.byte	(.L489-.L487)/2
 3972              		.p2align 1
 3973              	.L489:
 3974              		.loc 1 1172 0
 3975 0010 FFF7FEBF 		b	gpdrive_get_last_adc_isr_duration
 3976              	.LVL348:
 3977              	.L488:
 3978              		.loc 1 1168 0
 3979 0014 FFF7FEBF 		b	mcpwm_foc_get_last_adc_isr_duration
 3980              	.LVL349:
 3981              	.L486:
 3982              		.loc 1 1164 0
 3983 0018 FFF7FEBF 		b	mcpwm_get_last_inj_adc_isr_duration
 3984              	.LVL350:
 3985              	.L485:
 3986              		.loc 1 1180 0
 3987 001c 9FED020A 		vldr.32	s0, .L490+4
 3988 0020 7047     		bx	lr
 3989              	.L491:
 3990 0022 00BF     		.align	2
ARM GAS  C:\Users\CFAR\AppData\Local\Temp\ccOMEhOc.s 			page 71


 3991              	.L490:
 3992 0024 00000000 		.word	.LANCHOR12
 3993 0028 00000000 		.word	0
 3994              		.cfi_endproc
 3995              	.LFE300:
 3996              		.size	mc_interface_get_last_inj_adc_isr_duration, .-mc_interface_get_last_inj_adc_isr_duration
 3997              		.section	.text.mc_interface_read_reset_avg_motor_current,"ax",%progbits
 3998              		.align	1
 3999              		.p2align 4,,15
 4000              		.global	mc_interface_read_reset_avg_motor_current
 4001              		.syntax unified
 4002              		.thumb
 4003              		.thumb_func
 4004              		.fpu fpv4-sp-d16
 4005              		.type	mc_interface_read_reset_avg_motor_current, %function
 4006              	mc_interface_read_reset_avg_motor_current:
 4007              	.LFB301:
 4008              		.loc 1 1182 0
 4009              		.cfi_startproc
 4010              		@ args = 0, pretend = 0, frame = 0
 4011              		@ frame_needed = 0, uses_anonymous_args = 0
 4012              		@ link register save eliminated.
 4013              		.loc 1 1183 0
 4014 0000 084B     		ldr	r3, .L495
 4015 0002 9A78     		ldrb	r2, [r3, #2]	@ zero_extendqisi2
 4016 0004 032A     		cmp	r2, #3
 4017 0006 0BD0     		beq	.L494
 4018              		.loc 1 1187 0
 4019 0008 93ED810A 		vldr.32	s0, [r3, #516]
 4020 000c D3ED837A 		vldr.32	s15, [r3, #524]
 4021              	.LVL351:
 4022              		.loc 1 1188 0
 4023 0010 0022     		movs	r2, #0
 4024 0012 C3F80422 		str	r2, [r3, #516]	@ float
 4025              		.loc 1 1191 0
 4026 0016 80EE270A 		vdiv.f32	s0, s0, s15
 4027              	.LVL352:
 4028              		.loc 1 1189 0
 4029 001a C3F80C22 		str	r2, [r3, #524]	@ float
 4030              		.loc 1 1191 0
 4031 001e 7047     		bx	lr
 4032              	.LVL353:
 4033              	.L494:
 4034              		.loc 1 1184 0
 4035 0020 FFF7FEBF 		b	gpdrive_get_current_filtered
 4036              	.LVL354:
 4037              	.L496:
 4038              		.align	2
 4039              	.L495:
 4040 0024 00000000 		.word	.LANCHOR12
 4041              		.cfi_endproc
 4042              	.LFE301:
 4043              		.size	mc_interface_read_reset_avg_motor_current, .-mc_interface_read_reset_avg_motor_current
 4044              		.section	.text.mc_interface_read_reset_avg_input_current,"ax",%progbits
 4045              		.align	1
 4046              		.p2align 4,,15
 4047              		.global	mc_interface_read_reset_avg_input_current
ARM GAS  C:\Users\CFAR\AppData\Local\Temp\ccOMEhOc.s 			page 72


 4048              		.syntax unified
 4049              		.thumb
 4050              		.thumb_func
 4051              		.fpu fpv4-sp-d16
 4052              		.type	mc_interface_read_reset_avg_input_current, %function
 4053              	mc_interface_read_reset_avg_input_current:
 4054              	.LFB302:
 4055              		.loc 1 1193 0
 4056              		.cfi_startproc
 4057              		@ args = 0, pretend = 0, frame = 0
 4058              		@ frame_needed = 0, uses_anonymous_args = 0
 4059 0000 08B5     		push	{r3, lr}
 4060              		.cfi_def_cfa_offset 8
 4061              		.cfi_offset 3, -8
 4062              		.cfi_offset 14, -4
 4063              		.loc 1 1194 0
 4064 0002 0F4B     		ldr	r3, .L502
 4065 0004 9A78     		ldrb	r2, [r3, #2]	@ zero_extendqisi2
 4066 0006 032A     		cmp	r2, #3
 4067              		.loc 1 1193 0
 4068 0008 2DED028B 		vpush.64	{d8}
 4069              		.cfi_def_cfa_offset 16
 4070              		.cfi_offset 80, -16
 4071              		.cfi_offset 81, -12
 4072              		.loc 1 1194 0
 4073 000c 0DD0     		beq	.L501
 4074              		.loc 1 1202 0
 4075 000e BDEC028B 		vldm	sp!, {d8}
 4076              		.cfi_remember_state
 4077              		.cfi_restore 80
 4078              		.cfi_restore 81
 4079              		.cfi_def_cfa_offset 8
 4080              		.loc 1 1198 0
 4081 0012 93ED827A 		vldr.32	s14, [r3, #520]
 4082 0016 D3ED847A 		vldr.32	s15, [r3, #528]
 4083              		.loc 1 1199 0
 4084 001a 0022     		movs	r2, #0
 4085              		.loc 1 1198 0
 4086 001c 87EE270A 		vdiv.f32	s0, s14, s15
 4087              	.LVL355:
 4088              		.loc 1 1199 0
 4089 0020 C3F80822 		str	r2, [r3, #520]	@ float
 4090              		.loc 1 1200 0
 4091 0024 C3F81022 		str	r2, [r3, #528]	@ float
 4092              		.loc 1 1202 0
 4093 0028 08BD     		pop	{r3, pc}
 4094              	.LVL356:
 4095              	.L501:
 4096              		.cfi_restore_state
 4097              		.loc 1 1195 0
 4098 002a FFF7FEFF 		bl	gpdrive_get_current_filtered
 4099              	.LVL357:
 4100 002e B0EE408A 		vmov.f32	s16, s0
 4101 0032 FFF7FEFF 		bl	gpdrive_get_modulation
 4102              	.LVL358:
 4103 0036 28EE000A 		vmul.f32	s0, s16, s0
 4104              		.loc 1 1202 0
ARM GAS  C:\Users\CFAR\AppData\Local\Temp\ccOMEhOc.s 			page 73


 4105 003a BDEC028B 		vldm	sp!, {d8}
 4106              		.cfi_restore 80
 4107              		.cfi_restore 81
 4108              		.cfi_def_cfa_offset 8
 4109 003e 08BD     		pop	{r3, pc}
 4110              	.L503:
 4111              		.align	2
 4112              	.L502:
 4113 0040 00000000 		.word	.LANCHOR12
 4114              		.cfi_endproc
 4115              	.LFE302:
 4116              		.size	mc_interface_read_reset_avg_input_current, .-mc_interface_read_reset_avg_input_current
 4117              		.section	.text.mc_interface_read_reset_avg_id,"ax",%progbits
 4118              		.align	1
 4119              		.p2align 4,,15
 4120              		.global	mc_interface_read_reset_avg_id
 4121              		.syntax unified
 4122              		.thumb
 4123              		.thumb_func
 4124              		.fpu fpv4-sp-d16
 4125              		.type	mc_interface_read_reset_avg_id, %function
 4126              	mc_interface_read_reset_avg_id:
 4127              	.LFB303:
 4128              		.loc 1 1210 0
 4129              		.cfi_startproc
 4130              		@ args = 0, pretend = 0, frame = 0
 4131              		@ frame_needed = 0, uses_anonymous_args = 0
 4132              		@ link register save eliminated.
 4133              		.loc 1 1211 0
 4134 0000 084B     		ldr	r3, .L509
 4135              		.loc 1 1212 0
 4136 0002 0022     		movs	r2, #0
 4137              		.loc 1 1211 0
 4138 0004 93ED857A 		vldr.32	s14, [r3, #532]
 4139 0008 D3ED877A 		vldr.32	s15, [r3, #540]
 4140              		.loc 1 1212 0
 4141 000c C3F81422 		str	r2, [r3, #532]	@ float
 4142              		.loc 1 1213 0
 4143 0010 C3F81C22 		str	r2, [r3, #540]	@ float
 4144              		.loc 1 1214 0
 4145 0014 93F8BD31 		ldrb	r3, [r3, #445]	@ zero_extendqisi2
 4146              		.loc 1 1211 0
 4147 0018 87EE270A 		vdiv.f32	s0, s14, s15
 4148              	.LVL359:
 4149              		.loc 1 1214 0
 4150 001c 0BB1     		cbz	r3, .L504
 4151 001e B1EE400A 		vneg.f32	s0, s0
 4152              	.LVL360:
 4153              	.L504:
 4154              		.loc 1 1215 0
 4155 0022 7047     		bx	lr
 4156              	.L510:
 4157              		.align	2
 4158              	.L509:
 4159 0024 00000000 		.word	.LANCHOR12
 4160              		.cfi_endproc
 4161              	.LFE303:
ARM GAS  C:\Users\CFAR\AppData\Local\Temp\ccOMEhOc.s 			page 74


 4162              		.size	mc_interface_read_reset_avg_id, .-mc_interface_read_reset_avg_id
 4163              		.section	.text.mc_interface_read_reset_avg_iq,"ax",%progbits
 4164              		.align	1
 4165              		.p2align 4,,15
 4166              		.global	mc_interface_read_reset_avg_iq
 4167              		.syntax unified
 4168              		.thumb
 4169              		.thumb_func
 4170              		.fpu fpv4-sp-d16
 4171              		.type	mc_interface_read_reset_avg_iq, %function
 4172              	mc_interface_read_reset_avg_iq:
 4173              	.LFB304:
 4174              		.loc 1 1223 0
 4175              		.cfi_startproc
 4176              		@ args = 0, pretend = 0, frame = 0
 4177              		@ frame_needed = 0, uses_anonymous_args = 0
 4178              		@ link register save eliminated.
 4179              		.loc 1 1224 0
 4180 0000 084B     		ldr	r3, .L516
 4181              		.loc 1 1225 0
 4182 0002 0022     		movs	r2, #0
 4183              		.loc 1 1224 0
 4184 0004 93ED867A 		vldr.32	s14, [r3, #536]
 4185 0008 D3ED887A 		vldr.32	s15, [r3, #544]
 4186              		.loc 1 1225 0
 4187 000c C3F81822 		str	r2, [r3, #536]	@ float
 4188              		.loc 1 1226 0
 4189 0010 C3F82022 		str	r2, [r3, #544]	@ float
 4190              		.loc 1 1227 0
 4191 0014 93F8BD31 		ldrb	r3, [r3, #445]	@ zero_extendqisi2
 4192              		.loc 1 1224 0
 4193 0018 87EE270A 		vdiv.f32	s0, s14, s15
 4194              	.LVL361:
 4195              		.loc 1 1227 0
 4196 001c 0BB1     		cbz	r3, .L511
 4197 001e B1EE400A 		vneg.f32	s0, s0
 4198              	.LVL362:
 4199              	.L511:
 4200              		.loc 1 1228 0
 4201 0022 7047     		bx	lr
 4202              	.L517:
 4203              		.align	2
 4204              	.L516:
 4205 0024 00000000 		.word	.LANCHOR12
 4206              		.cfi_endproc
 4207              	.LFE304:
 4208              		.size	mc_interface_read_reset_avg_iq, .-mc_interface_read_reset_avg_iq
 4209              		.section	.text.mc_interface_read_reset_avg_vd,"ax",%progbits
 4210              		.align	1
 4211              		.p2align 4,,15
 4212              		.global	mc_interface_read_reset_avg_vd
 4213              		.syntax unified
 4214              		.thumb
 4215              		.thumb_func
 4216              		.fpu fpv4-sp-d16
 4217              		.type	mc_interface_read_reset_avg_vd, %function
 4218              	mc_interface_read_reset_avg_vd:
ARM GAS  C:\Users\CFAR\AppData\Local\Temp\ccOMEhOc.s 			page 75


 4219              	.LFB305:
 4220              		.loc 1 1236 0
 4221              		.cfi_startproc
 4222              		@ args = 0, pretend = 0, frame = 0
 4223              		@ frame_needed = 0, uses_anonymous_args = 0
 4224              		@ link register save eliminated.
 4225              		.loc 1 1237 0
 4226 0000 084B     		ldr	r3, .L523
 4227              		.loc 1 1238 0
 4228 0002 0022     		movs	r2, #0
 4229              		.loc 1 1237 0
 4230 0004 93ED897A 		vldr.32	s14, [r3, #548]
 4231 0008 D3ED8B7A 		vldr.32	s15, [r3, #556]
 4232              		.loc 1 1238 0
 4233 000c C3F82422 		str	r2, [r3, #548]	@ float
 4234              		.loc 1 1239 0
 4235 0010 C3F82C22 		str	r2, [r3, #556]	@ float
 4236              		.loc 1 1240 0
 4237 0014 93F8BD31 		ldrb	r3, [r3, #445]	@ zero_extendqisi2
 4238              		.loc 1 1237 0
 4239 0018 87EE270A 		vdiv.f32	s0, s14, s15
 4240              	.LVL363:
 4241              		.loc 1 1240 0
 4242 001c 0BB1     		cbz	r3, .L518
 4243 001e B1EE400A 		vneg.f32	s0, s0
 4244              	.LVL364:
 4245              	.L518:
 4246              		.loc 1 1241 0
 4247 0022 7047     		bx	lr
 4248              	.L524:
 4249              		.align	2
 4250              	.L523:
 4251 0024 00000000 		.word	.LANCHOR12
 4252              		.cfi_endproc
 4253              	.LFE305:
 4254              		.size	mc_interface_read_reset_avg_vd, .-mc_interface_read_reset_avg_vd
 4255              		.section	.text.mc_interface_read_reset_avg_vq,"ax",%progbits
 4256              		.align	1
 4257              		.p2align 4,,15
 4258              		.global	mc_interface_read_reset_avg_vq
 4259              		.syntax unified
 4260              		.thumb
 4261              		.thumb_func
 4262              		.fpu fpv4-sp-d16
 4263              		.type	mc_interface_read_reset_avg_vq, %function
 4264              	mc_interface_read_reset_avg_vq:
 4265              	.LFB306:
 4266              		.loc 1 1249 0
 4267              		.cfi_startproc
 4268              		@ args = 0, pretend = 0, frame = 0
 4269              		@ frame_needed = 0, uses_anonymous_args = 0
 4270              		@ link register save eliminated.
 4271              		.loc 1 1250 0
 4272 0000 084B     		ldr	r3, .L530
 4273              		.loc 1 1251 0
 4274 0002 0022     		movs	r2, #0
 4275              		.loc 1 1250 0
ARM GAS  C:\Users\CFAR\AppData\Local\Temp\ccOMEhOc.s 			page 76


 4276 0004 93ED8A7A 		vldr.32	s14, [r3, #552]
 4277 0008 D3ED8C7A 		vldr.32	s15, [r3, #560]
 4278              		.loc 1 1251 0
 4279 000c C3F82822 		str	r2, [r3, #552]	@ float
 4280              		.loc 1 1252 0
 4281 0010 C3F83022 		str	r2, [r3, #560]	@ float
 4282              		.loc 1 1253 0
 4283 0014 93F8BD31 		ldrb	r3, [r3, #445]	@ zero_extendqisi2
 4284              		.loc 1 1250 0
 4285 0018 87EE270A 		vdiv.f32	s0, s14, s15
 4286              	.LVL365:
 4287              		.loc 1 1253 0
 4288 001c 0BB1     		cbz	r3, .L525
 4289 001e B1EE400A 		vneg.f32	s0, s0
 4290              	.LVL366:
 4291              	.L525:
 4292              		.loc 1 1254 0
 4293 0022 7047     		bx	lr
 4294              	.L531:
 4295              		.align	2
 4296              	.L530:
 4297 0024 00000000 		.word	.LANCHOR12
 4298              		.cfi_endproc
 4299              	.LFE306:
 4300              		.size	mc_interface_read_reset_avg_vq, .-mc_interface_read_reset_avg_vq
 4301              		.section	.text.mc_interface_get_pid_pos_set,"ax",%progbits
 4302              		.align	1
 4303              		.p2align 4,,15
 4304              		.global	mc_interface_get_pid_pos_set
 4305              		.syntax unified
 4306              		.thumb
 4307              		.thumb_func
 4308              		.fpu fpv4-sp-d16
 4309              		.type	mc_interface_get_pid_pos_set, %function
 4310              	mc_interface_get_pid_pos_set:
 4311              	.LFB307:
 4312              		.loc 1 1256 0
 4313              		.cfi_startproc
 4314              		@ args = 0, pretend = 0, frame = 0
 4315              		@ frame_needed = 0, uses_anonymous_args = 0
 4316              		@ link register save eliminated.
 4317              		.loc 1 1257 0
 4318 0000 014B     		ldr	r3, .L533
 4319 0002 93ED910A 		vldr.32	s0, [r3, #580]
 4320              		.loc 1 1258 0
 4321 0006 7047     		bx	lr
 4322              	.L534:
 4323              		.align	2
 4324              	.L533:
 4325 0008 00000000 		.word	.LANCHOR12
 4326              		.cfi_endproc
 4327              	.LFE307:
 4328              		.size	mc_interface_get_pid_pos_set, .-mc_interface_get_pid_pos_set
 4329              		.section	.text.mc_interface_get_pid_pos_now,"ax",%progbits
 4330              		.align	1
 4331              		.p2align 4,,15
 4332              		.global	mc_interface_get_pid_pos_now
ARM GAS  C:\Users\CFAR\AppData\Local\Temp\ccOMEhOc.s 			page 77


 4333              		.syntax unified
 4334              		.thumb
 4335              		.thumb_func
 4336              		.fpu fpv4-sp-d16
 4337              		.type	mc_interface_get_pid_pos_now, %function
 4338              	mc_interface_get_pid_pos_now:
 4339              	.LFB308:
 4340              		.loc 1 1260 0
 4341              		.cfi_startproc
 4342              		@ args = 0, pretend = 0, frame = 8
 4343              		@ frame_needed = 0, uses_anonymous_args = 0
 4344 0000 10B5     		push	{r4, lr}
 4345              		.cfi_def_cfa_offset 8
 4346              		.cfi_offset 4, -8
 4347              		.cfi_offset 14, -4
 4348              		.loc 1 1263 0
 4349 0002 104C     		ldr	r4, .L546
 4350              		.loc 1 1261 0
 4351 0004 9FED100A 		vldr.32	s0, .L546+4
 4352              		.loc 1 1263 0
 4353 0008 A378     		ldrb	r3, [r4, #2]	@ zero_extendqisi2
 4354 000a DBB2     		uxtb	r3, r3
 4355              		.loc 1 1260 0
 4356 000c 82B0     		sub	sp, sp, #8
 4357              		.cfi_def_cfa_offset 16
 4358              		.loc 1 1263 0
 4359 000e 012B     		cmp	r3, #1
 4360              		.loc 1 1261 0
 4361 0010 8DED010A 		vstr.32	s0, [sp, #4]
 4362              		.loc 1 1263 0
 4363 0014 12D9     		bls	.L537
 4364 0016 022B     		cmp	r3, #2
 4365 0018 0DD0     		beq	.L538
 4366              	.L536:
 4367              		.loc 1 1277 0
 4368 001a 94F8BD31 		ldrb	r3, [r4, #445]	@ zero_extendqisi2
 4369 001e 0BB1     		cbz	r3, .L539
 4370 0020 B1EE400A 		vneg.f32	s0, s0
 4371              	.L539:
 4372              		.loc 1 1277 0 is_stmt 0 discriminator 4
 4373 0024 02A8     		add	r0, sp, #8
 4374 0026 20ED010A 		vstmdb.32	r0!, {s0}
 4375              		.loc 1 1278 0 is_stmt 1 discriminator 4
 4376 002a FFF7FEFF 		bl	utils_norm_angle
 4377              	.LVL367:
 4378              		.loc 1 1281 0 discriminator 4
 4379 002e 9DED010A 		vldr.32	s0, [sp, #4]
 4380 0032 02B0     		add	sp, sp, #8
 4381              		.cfi_remember_state
 4382              		.cfi_def_cfa_offset 8
 4383              		@ sp needed
 4384 0034 10BD     		pop	{r4, pc}
 4385              	.L538:
 4386              		.cfi_restore_state
 4387              		.loc 1 1270 0
 4388 0036 FFF7FEFF 		bl	mcpwm_foc_get_pid_pos_now
 4389              	.LVL368:
ARM GAS  C:\Users\CFAR\AppData\Local\Temp\ccOMEhOc.s 			page 78


 4390              		.loc 1 1271 0
 4391 003a EEE7     		b	.L536
 4392              	.L537:
 4393              		.loc 1 1266 0
 4394 003c FFF7FEFF 		bl	encoder_read_deg
 4395              	.LVL369:
 4396              		.loc 1 1267 0
 4397 0040 EBE7     		b	.L536
 4398              	.L547:
 4399 0042 00BF     		.align	2
 4400              	.L546:
 4401 0044 00000000 		.word	.LANCHOR12
 4402 0048 00000000 		.word	0
 4403              		.cfi_endproc
 4404              	.LFE308:
 4405              		.size	mc_interface_get_pid_pos_now, .-mc_interface_get_pid_pos_now
 4406              		.section	.text.mc_interface_get_last_sample_adc_isr_duration,"ax",%progbits
 4407              		.align	1
 4408              		.p2align 4,,15
 4409              		.global	mc_interface_get_last_sample_adc_isr_duration
 4410              		.syntax unified
 4411              		.thumb
 4412              		.thumb_func
 4413              		.fpu fpv4-sp-d16
 4414              		.type	mc_interface_get_last_sample_adc_isr_duration, %function
 4415              	mc_interface_get_last_sample_adc_isr_duration:
 4416              	.LFB309:
 4417              		.loc 1 1283 0
 4418              		.cfi_startproc
 4419              		@ args = 0, pretend = 0, frame = 0
 4420              		@ frame_needed = 0, uses_anonymous_args = 0
 4421              		@ link register save eliminated.
 4422              		.loc 1 1284 0
 4423 0000 014B     		ldr	r3, .L549
 4424 0002 93ED000A 		vldr.32	s0, [r3]
 4425              		.loc 1 1285 0
 4426 0006 7047     		bx	lr
 4427              	.L550:
 4428              		.align	2
 4429              	.L549:
 4430 0008 00000000 		.word	.LANCHOR14
 4431              		.cfi_endproc
 4432              	.LFE309:
 4433              		.size	mc_interface_get_last_sample_adc_isr_duration, .-mc_interface_get_last_sample_adc_isr_durati
 4434              		.section	.text.mc_interface_sample_print_data,"ax",%progbits
 4435              		.align	1
 4436              		.p2align 4,,15
 4437              		.global	mc_interface_sample_print_data
 4438              		.syntax unified
 4439              		.thumb
 4440              		.thumb_func
 4441              		.fpu fpv4-sp-d16
 4442              		.type	mc_interface_sample_print_data, %function
 4443              	mc_interface_sample_print_data:
 4444              	.LFB310:
 4445              		.loc 1 1287 0
 4446              		.cfi_startproc
ARM GAS  C:\Users\CFAR\AppData\Local\Temp\ccOMEhOc.s 			page 79


 4447              		@ args = 0, pretend = 0, frame = 0
 4448              		@ frame_needed = 0, uses_anonymous_args = 0
 4449              		@ link register save eliminated.
 4450              	.LVL370:
 4451 0000 B1F5FA6F 		cmp	r1, #2000
 4452 0004 28BF     		it	cs
 4453 0006 4FF4FA61 		movcs	r1, #2000
 4454              	.LVL371:
 4455              		.loc 1 1292 0
 4456 000a 0728     		cmp	r0, #7
 4457 000c 0FD0     		beq	.L555
 4458              		.loc 1 1287 0
 4459 000e F0B4     		push	{r4, r5, r6, r7}
 4460              		.cfi_def_cfa_offset 16
 4461              		.cfi_offset 4, -16
 4462              		.cfi_offset 5, -12
 4463              		.cfi_offset 6, -8
 4464              		.cfi_offset 7, -4
 4465              		.loc 1 1295 0
 4466 0010 094E     		ldr	r6, .L556
 4467              		.loc 1 1296 0
 4468 0012 0A4B     		ldr	r3, .L556+4
 4469              		.loc 1 1297 0
 4470 0014 0A4D     		ldr	r5, .L556+8
 4471              		.loc 1 1298 0
 4472 0016 0B4C     		ldr	r4, .L556+12
 4473              		.loc 1 1295 0
 4474 0018 4FF0FF37 		mov	r7, #-1
 4475 001c 3760     		str	r7, [r6]
 4476              		.loc 1 1296 0
 4477 001e 0026     		movs	r6, #0
 4478 0020 1E60     		str	r6, [r3]
 4479              		.loc 1 1299 0
 4480 0022 094B     		ldr	r3, .L556+16
 4481              		.loc 1 1297 0
 4482 0024 2960     		str	r1, [r5]
 4483              		.loc 1 1298 0
 4484 0026 2260     		str	r2, [r4]
 4485              		.loc 1 1299 0
 4486 0028 1870     		strb	r0, [r3]
 4487              		.loc 1 1304 0
 4488 002a F0BC     		pop	{r4, r5, r6, r7}
 4489              		.cfi_restore 7
 4490              		.cfi_restore 6
 4491              		.cfi_restore 5
 4492              		.cfi_restore 4
 4493              		.cfi_def_cfa_offset 0
 4494 002c 7047     		bx	lr
 4495              	.L555:
 4496              		.loc 1 1293 0
 4497 002e 074B     		ldr	r3, .L556+20
 4498 0030 0121     		movs	r1, #1
 4499              	.LVL372:
 4500 0032 1868     		ldr	r0, [r3]
 4501              	.LVL373:
 4502 0034 FFF7FEBF 		b	chEvtSignal
 4503              	.LVL374:
ARM GAS  C:\Users\CFAR\AppData\Local\Temp\ccOMEhOc.s 			page 80


 4504              	.L557:
 4505              		.align	2
 4506              	.L556:
 4507 0038 00000000 		.word	.LANCHOR3
 4508 003c 00000000 		.word	.LANCHOR16
 4509 0040 00000000 		.word	.LANCHOR2
 4510 0044 00000000 		.word	.LANCHOR15
 4511 0048 00000000 		.word	.LANCHOR17
 4512 004c 00000000 		.word	.LANCHOR0
 4513              		.cfi_endproc
 4514              	.LFE310:
 4515              		.size	mc_interface_sample_print_data, .-mc_interface_sample_print_data
 4516              		.section	.text.mc_interface_temp_fet_filtered,"ax",%progbits
 4517              		.align	1
 4518              		.p2align 4,,15
 4519              		.global	mc_interface_temp_fet_filtered
 4520              		.syntax unified
 4521              		.thumb
 4522              		.thumb_func
 4523              		.fpu fpv4-sp-d16
 4524              		.type	mc_interface_temp_fet_filtered, %function
 4525              	mc_interface_temp_fet_filtered:
 4526              	.LFB311:
 4527              		.loc 1 1313 0
 4528              		.cfi_startproc
 4529              		@ args = 0, pretend = 0, frame = 0
 4530              		@ frame_needed = 0, uses_anonymous_args = 0
 4531              		@ link register save eliminated.
 4532              		.loc 1 1314 0
 4533 0000 014B     		ldr	r3, .L559
 4534 0002 93ED920A 		vldr.32	s0, [r3, #584]
 4535              		.loc 1 1315 0
 4536 0006 7047     		bx	lr
 4537              	.L560:
 4538              		.align	2
 4539              	.L559:
 4540 0008 00000000 		.word	.LANCHOR12
 4541              		.cfi_endproc
 4542              	.LFE311:
 4543              		.size	mc_interface_temp_fet_filtered, .-mc_interface_temp_fet_filtered
 4544              		.section	.text.mc_interface_temp_motor_filtered,"ax",%progbits
 4545              		.align	1
 4546              		.p2align 4,,15
 4547              		.global	mc_interface_temp_motor_filtered
 4548              		.syntax unified
 4549              		.thumb
 4550              		.thumb_func
 4551              		.fpu fpv4-sp-d16
 4552              		.type	mc_interface_temp_motor_filtered, %function
 4553              	mc_interface_temp_motor_filtered:
 4554              	.LFB312:
 4555              		.loc 1 1324 0
 4556              		.cfi_startproc
 4557              		@ args = 0, pretend = 0, frame = 0
 4558              		@ frame_needed = 0, uses_anonymous_args = 0
 4559              		@ link register save eliminated.
 4560              		.loc 1 1325 0
ARM GAS  C:\Users\CFAR\AppData\Local\Temp\ccOMEhOc.s 			page 81


 4561 0000 014B     		ldr	r3, .L562
 4562 0002 93ED930A 		vldr.32	s0, [r3, #588]
 4563              		.loc 1 1326 0
 4564 0006 7047     		bx	lr
 4565              	.L563:
 4566              		.align	2
 4567              	.L562:
 4568 0008 00000000 		.word	.LANCHOR12
 4569              		.cfi_endproc
 4570              	.LFE312:
 4571              		.size	mc_interface_temp_motor_filtered, .-mc_interface_temp_motor_filtered
 4572              		.section	.text.mc_interface_get_battery_level,"ax",%progbits
 4573              		.align	1
 4574              		.p2align 4,,15
 4575              		.global	mc_interface_get_battery_level
 4576              		.syntax unified
 4577              		.thumb
 4578              		.thumb_func
 4579              		.fpu fpv4-sp-d16
 4580              		.type	mc_interface_get_battery_level, %function
 4581              	mc_interface_get_battery_level:
 4582              	.LFB313:
 4583              		.loc 1 1338 0
 4584              		.cfi_startproc
 4585              		@ args = 0, pretend = 0, frame = 0
 4586              		@ frame_needed = 0, uses_anonymous_args = 0
 4587              	.LVL375:
 4588 0000 38B5     		push	{r3, r4, r5, lr}
 4589              		.cfi_def_cfa_offset 16
 4590              		.cfi_offset 3, -16
 4591              		.cfi_offset 4, -12
 4592              		.cfi_offset 5, -8
 4593              		.cfi_offset 14, -4
 4594              		.loc 1 1340 0
 4595 0002 564A     		ldr	r2, .L576
 4596              		.loc 1 1344 0
 4597 0004 564B     		ldr	r3, .L576+4
 4598              		.loc 1 1340 0
 4599 0006 128A     		ldrh	r2, [r2, #16]
 4600 0008 DFED567A 		vldr.32	s15, .L576+8
 4601 000c 9FED560A 		vldr.32	s0, .L576+12
 4602              		.loc 1 1338 0
 4603 0010 2DED048B 		vpush.64	{d8, d9}
 4604              		.cfi_def_cfa_offset 32
 4605              		.cfi_offset 80, -32
 4606              		.cfi_offset 81, -28
 4607              		.cfi_offset 82, -24
 4608              		.cfi_offset 83, -20
 4609              		.loc 1 1340 0
 4610 0014 08EE102A 		vmov	s16, r2	@ int
 4611              		.loc 1 1344 0
 4612 0018 93ED7C9A 		vldr.32	s18, [r3, #496]
 4613              		.loc 1 1346 0
 4614 001c 93F8E821 		ldrb	r2, [r3, #488]	@ zero_extendqisi2
 4615              		.loc 1 1340 0
 4616 0020 B8EE488A 		vcvt.f32.u32	s16, s16
 4617              		.loc 1 1346 0
ARM GAS  C:\Users\CFAR\AppData\Local\Temp\ccOMEhOc.s 			page 82


 4618 0024 D2B2     		uxtb	r2, r2
 4619              		.loc 1 1340 0
 4620 0026 28EE278A 		vmul.f32	s16, s16, s15
 4621              		.loc 1 1346 0
 4622 002a 012A     		cmp	r2, #1
 4623              		.loc 1 1338 0
 4624 002c 0446     		mov	r4, r0
 4625              		.loc 1 1340 0
 4626 002e 28EE008A 		vmul.f32	s16, s16, s0
 4627              	.LVL376:
 4628              		.loc 1 1346 0
 4629 0032 6AD0     		beq	.L566
 4630 0034 38D3     		bcc	.L567
 4631 0036 022A     		cmp	r2, #2
 4632 0038 0DD0     		beq	.L568
 4633 003a 9FED4C0A 		vldr.32	s0, .L576+16
 4634              		.loc 1 1341 0
 4635 003e F0EE408A 		vmov.f32	s17, s0
 4636              	.LVL377:
 4637              	.L565:
 4638              		.loc 1 1376 0
 4639 0042 68EE898A 		vmul.f32	s17, s17, s18
 4640              	.LVL378:
 4641              		.loc 1 1379 0
 4642 0046 0CB1     		cbz	r4, .L569
 4643              		.loc 1 1380 0
 4644 0048 84ED000A 		vstr.32	s0, [r4]
 4645              	.L569:
 4646              		.loc 1 1384 0
 4647 004c 80EE280A 		vdiv.f32	s0, s0, s17
 4648 0050 BDEC048B 		vldm	sp!, {d8-d9}
 4649              		.cfi_remember_state
 4650              		.cfi_restore 82
 4651              		.cfi_restore 83
 4652              		.cfi_restore 80
 4653              		.cfi_restore 81
 4654              		.cfi_def_cfa_offset 16
 4655              	.LVL379:
 4656 0054 38BD     		pop	{r3, r4, r5, pc}
 4657              	.LVL380:
 4658              	.L568:
 4659              		.cfi_restore_state
 4660              	.LBB592:
 4661              		.loc 1 1366 0
 4662 0056 D3ED7B7A 		vldr.32	s15, [r3, #492]	@ int
 4663              		.loc 1 1367 0
 4664 005a D3F8EC51 		ldr	r5, [r3, #492]
 4665              		.loc 1 1368 0
 4666 005e 93ED7B0A 		vldr.32	s0, [r3, #492]	@ int
 4667 0062 DFED439A 		vldr.32	s19, .L576+20
 4668              		.loc 1 1366 0
 4669 0066 DFED438A 		vldr.32	s17, .L576+24
 4670              		.loc 1 1368 0
 4671 006a 93ED7C2A 		vldr.32	s4, [r3, #496]
 4672 006e DFED3F1A 		vldr.32	s3, .L576+16
 4673 0072 9FED411A 		vldr.32	s2, .L576+28
 4674 0076 B8EEC00A 		vcvt.f32.s32	s0, s0
ARM GAS  C:\Users\CFAR\AppData\Local\Temp\ccOMEhOc.s 			page 83


 4675              		.loc 1 1366 0
 4676 007a F8EEE77A 		vcvt.f32.s32	s15, s15
 4677              		.loc 1 1368 0
 4678 007e 88EE000A 		vdiv.f32	s0, s16, s0
 4679 0082 F0EE690A 		vmov.f32	s1, s19
 4680              		.loc 1 1366 0
 4681 0086 67EEA88A 		vmul.f32	s17, s15, s17
 4682              	.LVL381:
 4683              		.loc 1 1368 0
 4684 008a FFF7FEFF 		bl	utils_map
 4685              	.LVL382:
 4686              		.loc 1 1367 0
 4687 008e 07EE905A 		vmov	s15, r5	@ int
 4688 0092 F8EEE77A 		vcvt.f32.s32	s15, s15
 4689 0096 B6EE007A 		vmov.f32	s14, #5.0e-1
 4690 009a A7EEA98A 		vfma.f32	s16, s15, s19
 4691              	.LVL383:
 4692 009e 28EE078A 		vmul.f32	s16, s16, s14
 4693              	.LVL384:
 4694 00a2 28EE000A 		vmul.f32	s0, s16, s0
 4695              	.LVL385:
 4696              		.loc 1 1370 0
 4697 00a6 CCE7     		b	.L565
 4698              	.LVL386:
 4699              	.L567:
 4700              		.loc 1 1348 0
 4701 00a8 D3ED7B7A 		vldr.32	s15, [r3, #492]	@ int
 4702              		.loc 1 1349 0
 4703 00ac D3F8EC51 		ldr	r5, [r3, #492]
 4704              		.loc 1 1350 0
 4705 00b0 93ED7B0A 		vldr.32	s0, [r3, #492]	@ int
 4706 00b4 DFED319A 		vldr.32	s19, .L576+32
 4707              		.loc 1 1348 0
 4708 00b8 DFED318A 		vldr.32	s17, .L576+36
 4709              		.loc 1 1350 0
 4710 00bc DFED2B1A 		vldr.32	s3, .L576+16
 4711 00c0 9FED301A 		vldr.32	s2, .L576+40
 4712 00c4 B8EEC00A 		vcvt.f32.s32	s0, s0
 4713              		.loc 1 1348 0
 4714 00c8 F8EEE77A 		vcvt.f32.s32	s15, s15
 4715              		.loc 1 1350 0
 4716 00cc 88EE000A 		vdiv.f32	s0, s16, s0
 4717 00d0 F0EE690A 		vmov.f32	s1, s19
 4718 00d4 B7EE002A 		vmov.f32	s4, #1.0e+0
 4719              		.loc 1 1348 0
 4720 00d8 67EEA88A 		vmul.f32	s17, s15, s17
 4721              	.LVL387:
 4722              		.loc 1 1350 0
 4723 00dc FFF7FEFF 		bl	utils_map
 4724              	.LVL388:
 4725              		.loc 1 1352 0
 4726 00e0 FFF7FEFF 		bl	utils_batt_liion_norm_v_to_capacity
 4727              	.LVL389:
 4728              		.loc 1 1349 0
 4729 00e4 07EE905A 		vmov	s15, r5	@ int
 4730 00e8 F8EEE77A 		vcvt.f32.s32	s15, s15
 4731              		.loc 1 1353 0
ARM GAS  C:\Users\CFAR\AppData\Local\Temp\ccOMEhOc.s 			page 84


 4732 00ec 9FED267A 		vldr.32	s14, .L576+44
 4733              		.loc 1 1349 0
 4734 00f0 A7EEA98A 		vfma.f32	s16, s15, s19
 4735              	.LVL390:
 4736              		.loc 1 1353 0
 4737 00f4 29EE079A 		vmul.f32	s18, s18, s14
 4738              	.LVL391:
 4739              		.loc 1 1349 0
 4740 00f8 F6EE007A 		vmov.f32	s15, #5.0e-1
 4741 00fc 28EE278A 		vmul.f32	s16, s16, s15
 4742              	.LVL392:
 4743              		.loc 1 1354 0
 4744 0100 20EE090A 		vmul.f32	s0, s0, s18
 4745              	.LVL393:
 4746 0104 28EE000A 		vmul.f32	s0, s16, s0
 4747              	.LVL394:
 4748              		.loc 1 1355 0
 4749 0108 9BE7     		b	.L565
 4750              	.LVL395:
 4751              	.L566:
 4752              		.loc 1 1358 0
 4753 010a D3ED7B7A 		vldr.32	s15, [r3, #492]	@ int
 4754              		.loc 1 1359 0
 4755 010e D3F8EC51 		ldr	r5, [r3, #492]
 4756              		.loc 1 1360 0
 4757 0112 93ED7B0A 		vldr.32	s0, [r3, #492]	@ int
 4758              		.loc 1 1358 0
 4759 0116 DFED1D8A 		vldr.32	s17, .L576+48
 4760              		.loc 1 1360 0
 4761 011a 93ED7C2A 		vldr.32	s4, [r3, #496]
 4762 011e DFED131A 		vldr.32	s3, .L576+16
 4763 0122 9FED1B1A 		vldr.32	s2, .L576+52
 4764 0126 DFED1B0A 		vldr.32	s1, .L576+56
 4765 012a B8EEC00A 		vcvt.f32.s32	s0, s0
 4766              		.loc 1 1358 0
 4767 012e F8EEE77A 		vcvt.f32.s32	s15, s15
 4768              		.loc 1 1360 0
 4769 0132 88EE000A 		vdiv.f32	s0, s16, s0
 4770              		.loc 1 1358 0
 4771 0136 67EEA88A 		vmul.f32	s17, s15, s17
 4772              	.LVL396:
 4773              		.loc 1 1360 0
 4774 013a FFF7FEFF 		bl	utils_map
 4775              	.LVL397:
 4776              		.loc 1 1359 0
 4777 013e 07EE905A 		vmov	s15, r5	@ int
 4778 0142 9FED157A 		vldr.32	s14, .L576+60
 4779 0146 F8EEE77A 		vcvt.f32.s32	s15, s15
 4780 014a A7EE878A 		vfma.f32	s16, s15, s14
 4781              	.LVL398:
 4782 014e F6EE007A 		vmov.f32	s15, #5.0e-1
 4783 0152 28EE278A 		vmul.f32	s16, s16, s15
 4784              	.LVL399:
 4785 0156 28EE000A 		vmul.f32	s0, s16, s0
 4786              	.LVL400:
 4787              		.loc 1 1362 0
 4788 015a 72E7     		b	.L565
ARM GAS  C:\Users\CFAR\AppData\Local\Temp\ccOMEhOc.s 			page 85


 4789              	.L577:
 4790              		.align	2
 4791              	.L576:
 4792 015c 00000000 		.word	.LANCHOR24
 4793 0160 00000000 		.word	.LANCHOR12
 4794 0164 6740533A 		.word	978534503
 4795 0168 74D19541 		.word	1100337524
 4796 016c 00000000 		.word	0
 4797 0170 66660640 		.word	1074161254
 4798 0174 52B80E40 		.word	1074706514
 4799 0178 3D0A1740 		.word	1075251773
 4800 017c CDCC4C40 		.word	1078774989
 4801 0180 CCCC6C40 		.word	1080872140
 4802 0184 66668640 		.word	1082549862
 4803 0188 9A99593F 		.word	1062836634
 4804 018c CCCC4C40 		.word	1078774988
 4805 0190 66666640 		.word	1080452710
 4806 0194 66662640 		.word	1076258406
 4807 0198 33333340 		.word	1077097267
 4808              	.LBE592:
 4809              		.cfi_endproc
 4810              	.LFE313:
 4811              		.size	mc_interface_get_battery_level, .-mc_interface_get_battery_level
 4812              		.section	.text.mc_interface_get_speed,"ax",%progbits
 4813              		.align	1
 4814              		.p2align 4,,15
 4815              		.global	mc_interface_get_speed
 4816              		.syntax unified
 4817              		.thumb
 4818              		.thumb_func
 4819              		.fpu fpv4-sp-d16
 4820              		.type	mc_interface_get_speed, %function
 4821              	mc_interface_get_speed:
 4822              	.LFB314:
 4823              		.loc 1 1392 0
 4824              		.cfi_startproc
 4825              		@ args = 0, pretend = 0, frame = 0
 4826              		@ frame_needed = 0, uses_anonymous_args = 0
 4827 0000 08B5     		push	{r3, lr}
 4828              		.cfi_def_cfa_offset 8
 4829              		.cfi_offset 3, -8
 4830              		.cfi_offset 14, -4
 4831              		.loc 1 1394 0
 4832 0002 FFF7FEFF 		bl	mc_interface_get_rpm
 4833              	.LVL401:
 4834 0006 0D4B     		ldr	r3, .L580
 4835              		.loc 1 1395 0
 4836 0008 DFED0D5A 		vldr.32	s11, .L580+4
 4837              		.loc 1 1394 0
 4838 000c 93F8DC21 		ldrb	r2, [r3, #476]	@ zero_extendqisi2
 4839              		.loc 1 1395 0
 4840 0010 93ED796A 		vldr.32	s12, [r3, #484]
 4841 0014 DFED0B6A 		vldr.32	s13, .L580+8
 4842 0018 93ED787A 		vldr.32	s14, [r3, #480]
 4843              		.loc 1 1394 0
 4844 001c 07EE902A 		vmov	s15, r2	@ int
 4845              	.LVL402:
ARM GAS  C:\Users\CFAR\AppData\Local\Temp\ccOMEhOc.s 			page 86


 4846 0020 FAEEEF7A 		vcvt.f32.s32	s15, s15, #1
 4847 0024 80EE275A 		vdiv.f32	s10, s0, s15
 4848              		.loc 1 1395 0
 4849 0028 85EE250A 		vdiv.f32	s0, s10, s11
 4850              	.LVL403:
 4851 002c 20EE060A 		vmul.f32	s0, s0, s12
 4852 0030 20EE260A 		vmul.f32	s0, s0, s13
 4853              		.loc 1 1396 0
 4854 0034 80EE070A 		vdiv.f32	s0, s0, s14
 4855 0038 08BD     		pop	{r3, pc}
 4856              	.L581:
 4857 003a 00BF     		.align	2
 4858              	.L580:
 4859 003c 00000000 		.word	.LANCHOR12
 4860 0040 00007042 		.word	1114636288
 4861 0044 DB0F4940 		.word	1078530011
 4862              		.cfi_endproc
 4863              	.LFE314:
 4864              		.size	mc_interface_get_speed, .-mc_interface_get_speed
 4865              		.section	.text.mc_interface_get_distance,"ax",%progbits
 4866              		.align	1
 4867              		.p2align 4,,15
 4868              		.global	mc_interface_get_distance
 4869              		.syntax unified
 4870              		.thumb
 4871              		.thumb_func
 4872              		.fpu fpv4-sp-d16
 4873              		.type	mc_interface_get_distance, %function
 4874              	mc_interface_get_distance:
 4875              	.LFB315:
 4876              		.loc 1 1404 0
 4877              		.cfi_startproc
 4878              		@ args = 0, pretend = 0, frame = 0
 4879              		@ frame_needed = 0, uses_anonymous_args = 0
 4880 0000 08B5     		push	{r3, lr}
 4881              		.cfi_def_cfa_offset 8
 4882              		.cfi_offset 3, -8
 4883              		.cfi_offset 14, -4
 4884 0002 2DED028B 		vpush.64	{d8}
 4885              		.cfi_def_cfa_offset 16
 4886              		.cfi_offset 80, -16
 4887              		.cfi_offset 81, -12
 4888              		.loc 1 1406 0
 4889 0006 114B     		ldr	r3, .L584
 4890 0008 9FED116A 		vldr.32	s12, .L584+4
 4891 000c 93ED797A 		vldr.32	s14, [r3, #484]
 4892 0010 93F8DC21 		ldrb	r2, [r3, #476]	@ zero_extendqisi2
 4893 0014 D3ED786A 		vldr.32	s13, [r3, #480]
 4894 0018 07EE902A 		vmov	s15, r2	@ int
 4895 001c F8EEE77A 		vcvt.f32.s32	s15, s15
 4896 0020 F0EE085A 		vmov.f32	s11, #3.0e+0
 4897 0024 67EEA57A 		vmul.f32	s15, s15, s11
 4898 0028 27EE067A 		vmul.f32	s14, s14, s12
 4899 002c 67EEA67A 		vmul.f32	s15, s15, s13
 4900              		.loc 1 1407 0
 4901 0030 0020     		movs	r0, #0
 4902              		.loc 1 1406 0
ARM GAS  C:\Users\CFAR\AppData\Local\Temp\ccOMEhOc.s 			page 87


 4903 0032 87EE278A 		vdiv.f32	s16, s14, s15
 4904              	.LVL404:
 4905              		.loc 1 1407 0
 4906 0036 FFF7FEFF 		bl	mc_interface_get_tachometer_value
 4907              	.LVL405:
 4908 003a 07EE900A 		vmov	s15, r0	@ int
 4909 003e B8EEE70A 		vcvt.f32.s32	s0, s15
 4910              		.loc 1 1408 0
 4911 0042 20EE080A 		vmul.f32	s0, s0, s16
 4912 0046 BDEC028B 		vldm	sp!, {d8}
 4913              		.cfi_restore 80
 4914              		.cfi_restore 81
 4915              		.cfi_def_cfa_offset 8
 4916              	.LVL406:
 4917 004a 08BD     		pop	{r3, pc}
 4918              	.L585:
 4919              		.align	2
 4920              	.L584:
 4921 004c 00000000 		.word	.LANCHOR12
 4922 0050 DB0F4940 		.word	1078530011
 4923              		.cfi_endproc
 4924              	.LFE315:
 4925              		.size	mc_interface_get_distance, .-mc_interface_get_distance
 4926              		.section	.text.mc_interface_get_distance_abs,"ax",%progbits
 4927              		.align	1
 4928              		.p2align 4,,15
 4929              		.global	mc_interface_get_distance_abs
 4930              		.syntax unified
 4931              		.thumb
 4932              		.thumb_func
 4933              		.fpu fpv4-sp-d16
 4934              		.type	mc_interface_get_distance_abs, %function
 4935              	mc_interface_get_distance_abs:
 4936              	.LFB316:
 4937              		.loc 1 1416 0
 4938              		.cfi_startproc
 4939              		@ args = 0, pretend = 0, frame = 0
 4940              		@ frame_needed = 0, uses_anonymous_args = 0
 4941 0000 08B5     		push	{r3, lr}
 4942              		.cfi_def_cfa_offset 8
 4943              		.cfi_offset 3, -8
 4944              		.cfi_offset 14, -4
 4945 0002 2DED028B 		vpush.64	{d8}
 4946              		.cfi_def_cfa_offset 16
 4947              		.cfi_offset 80, -16
 4948              		.cfi_offset 81, -12
 4949              		.loc 1 1418 0
 4950 0006 114B     		ldr	r3, .L588
 4951 0008 9FED116A 		vldr.32	s12, .L588+4
 4952 000c 93ED797A 		vldr.32	s14, [r3, #484]
 4953 0010 93F8DC21 		ldrb	r2, [r3, #476]	@ zero_extendqisi2
 4954 0014 D3ED786A 		vldr.32	s13, [r3, #480]
 4955 0018 07EE902A 		vmov	s15, r2	@ int
 4956 001c F8EEE77A 		vcvt.f32.s32	s15, s15
 4957 0020 F0EE085A 		vmov.f32	s11, #3.0e+0
 4958 0024 67EEA57A 		vmul.f32	s15, s15, s11
 4959 0028 27EE067A 		vmul.f32	s14, s14, s12
ARM GAS  C:\Users\CFAR\AppData\Local\Temp\ccOMEhOc.s 			page 88


 4960 002c 67EEA67A 		vmul.f32	s15, s15, s13
 4961              		.loc 1 1419 0
 4962 0030 0020     		movs	r0, #0
 4963              		.loc 1 1418 0
 4964 0032 87EE278A 		vdiv.f32	s16, s14, s15
 4965              	.LVL407:
 4966              		.loc 1 1419 0
 4967 0036 FFF7FEFF 		bl	mc_interface_get_tachometer_abs_value
 4968              	.LVL408:
 4969 003a 07EE900A 		vmov	s15, r0	@ int
 4970 003e B8EEE70A 		vcvt.f32.s32	s0, s15
 4971              		.loc 1 1420 0
 4972 0042 20EE080A 		vmul.f32	s0, s0, s16
 4973 0046 BDEC028B 		vldm	sp!, {d8}
 4974              		.cfi_restore 80
 4975              		.cfi_restore 81
 4976              		.cfi_def_cfa_offset 8
 4977              	.LVL409:
 4978 004a 08BD     		pop	{r3, pc}
 4979              	.L589:
 4980              		.align	2
 4981              	.L588:
 4982 004c 00000000 		.word	.LANCHOR12
 4983 0050 DB0F4940 		.word	1078530011
 4984              		.cfi_endproc
 4985              	.LFE316:
 4986              		.size	mc_interface_get_distance_abs, .-mc_interface_get_distance_abs
 4987              		.section	.text.mc_interface_get_setup_values,"ax",%progbits
 4988              		.align	1
 4989              		.p2align 4,,15
 4990              		.global	mc_interface_get_setup_values
 4991              		.syntax unified
 4992              		.thumb
 4993              		.thumb_func
 4994              		.fpu fpv4-sp-d16
 4995              		.type	mc_interface_get_setup_values, %function
 4996              	mc_interface_get_setup_values:
 4997              	.LFB317:
 4998              		.loc 1 1422 0
 4999              		.cfi_startproc
 5000              		@ args = 0, pretend = 0, frame = 0
 5001              		@ frame_needed = 0, uses_anonymous_args = 0
 5002              	.LVL410:
 5003 0000 F8B5     		push	{r3, r4, r5, r6, r7, lr}
 5004              		.cfi_def_cfa_offset 24
 5005              		.cfi_offset 3, -24
 5006              		.cfi_offset 4, -20
 5007              		.cfi_offset 5, -16
 5008              		.cfi_offset 6, -12
 5009              		.cfi_offset 7, -8
 5010              		.cfi_offset 14, -4
 5011              	.LBB593:
 5012              	.LBB594:
 5013              		.loc 1 893 0
 5014 0002 574B     		ldr	r3, .L606
 5015 0004 DFED577A 		vldr.32	s15, .L606+4
 5016 0008 D3ED8D5A 		vldr.32	s11, [r3, #564]
ARM GAS  C:\Users\CFAR\AppData\Local\Temp\ccOMEhOc.s 			page 89


 5017              	.LBE594:
 5018              	.LBE593:
 5019              	.LBB596:
 5020              	.LBB597:
 5021              		.loc 1 912 0
 5022 000c 93ED8E6A 		vldr.32	s12, [r3, #568]
 5023              	.LBE597:
 5024              	.LBE596:
 5025              	.LBB599:
 5026              	.LBB600:
 5027              		.loc 1 931 0
 5028 0010 D3ED8F6A 		vldr.32	s13, [r3, #572]
 5029              	.LBE600:
 5030              	.LBE599:
 5031              	.LBB602:
 5032              	.LBB603:
 5033              		.loc 1 950 0
 5034 0014 93ED907A 		vldr.32	s14, [r3, #576]
 5035              	.LBE603:
 5036              	.LBE602:
 5037              	.LBB605:
 5038              	.LBB606:
 5039              	.LBB607:
 5040              	.LBB608:
 5041              	.LBB609:
 5042              	.LBB610:
 5043              		.loc 5 231 0
 5044 0018 534D     		ldr	r5, .L606+8
 5045              	.LBE610:
 5046              	.LBE609:
 5047              	.LBE608:
 5048              	.LBE607:
 5049              	.LBE606:
 5050              	.LBE605:
 5051              		.loc 1 1422 0
 5052 001a 2DED088B 		vpush.64	{d8, d9, d10, d11}
 5053              		.cfi_def_cfa_offset 56
 5054              		.cfi_offset 80, -56
 5055              		.cfi_offset 81, -52
 5056              		.cfi_offset 82, -48
 5057              		.cfi_offset 83, -44
 5058              		.cfi_offset 84, -40
 5059              		.cfi_offset 85, -36
 5060              		.cfi_offset 86, -32
 5061              		.cfi_offset 87, -28
 5062              	.LBB629:
 5063              	.LBB595:
 5064              		.loc 1 893 0
 5065 001e 85EEA7BA 		vdiv.f32	s22, s11, s15
 5066              	.LBE595:
