ARM GAS  C:\Users\CFAR\AppData\Local\Temp\ccMltsPO.s 			page 1


   1              		.cpu cortex-m4
   2              		.eabi_attribute 27, 1
   3              		.eabi_attribute 28, 1
   4              		.eabi_attribute 20, 1
   5              		.eabi_attribute 21, 1
   6              		.eabi_attribute 23, 3
   7              		.eabi_attribute 24, 1
   8              		.eabi_attribute 25, 1
   9              		.eabi_attribute 26, 1
  10              		.eabi_attribute 30, 2
  11              		.eabi_attribute 34, 1
  12              		.eabi_attribute 18, 4
  13              		.file	"mempools.c"
  14              		.text
  15              	.Ltext0:
  16              		.cfi_sections	.debug_frame
  17              		.section	.text.mempools_alloc_mcconf,"ax",%progbits
  18              		.align	1
  19              		.p2align 4,,15
  20              		.global	mempools_alloc_mcconf
  21              		.syntax unified
  22              		.thumb
  23              		.thumb_func
  24              		.fpu fpv4-sp-d16
  25              		.type	mempools_alloc_mcconf, %function
  26              	mempools_alloc_mcconf:
  27              	.LFB219:
  28              		.file 1 "mempools.c"
  29              		.loc 1 39 0
  30              		.cfi_startproc
  31              		@ args = 0, pretend = 0, frame = 0
  32              		@ frame_needed = 0, uses_anonymous_args = 0
  33              		@ link register save eliminated.
  34              	.LVL0:
  35 0000 F0B4     		push	{r4, r5, r6, r7}
  36              		.cfi_def_cfa_offset 16
  37              		.cfi_offset 4, -16
  38              		.cfi_offset 5, -12
  39              		.cfi_offset 6, -8
  40              		.cfi_offset 7, -4
  41 0002 124F     		ldr	r7, .L17
  42 0004 1248     		ldr	r0, .L17+4
  43 0006 3E68     		ldr	r6, [r7]
  44              		.loc 1 39 0
  45 0008 0025     		movs	r5, #0
  46 000a 3446     		mov	r4, r6
  47              	.LBB2:
  48              		.loc 1 40 0
  49 000c 2B46     		mov	r3, r5
  50              	.LVL1:
  51              	.L6:
  52              		.loc 1 44 0
  53 000e 9A01     		lsls	r2, r3, #6
  54 0010 D11A     		subs	r1, r2, r3
  55              		.loc 1 41 0
  56 0012 9C42     		cmp	r4, r3
  57              		.loc 1 44 0
ARM GAS  C:\Users\CFAR\AppData\Local\Temp\ccMltsPO.s 			page 2


  58 0014 10F83110 		ldrb	r1, [r0, r1, lsl #3]	@ zero_extendqisi2
  59              		.loc 1 41 0
  60 0018 BCBF     		itt	lt
  61 001a 1C46     		movlt	r4, r3
  62 001c 0125     		movlt	r5, #1
  63              		.loc 1 44 0
  64 001e 51B1     		cbz	r1, .L15
  65              		.loc 1 40 0 discriminator 2
  66 0020 0133     		adds	r3, r3, #1
  67              	.LVL2:
  68 0022 0A2B     		cmp	r3, #10
  69 0024 F3D1     		bne	.L6
  70              		.loc 1 40 0 is_stmt 0
  71 0026 002D     		cmp	r5, #0
  72 0028 18BF     		it	ne
  73 002a 2646     		movne	r6, r4
  74              	.LBE2:
  75              		.loc 1 50 0 is_stmt 1
  76 002c 0136     		adds	r6, r6, #1
  77 002e 3E60     		str	r6, [r7]
  78              		.loc 1 52 0
  79 0030 0020     		movs	r0, #0
  80              		.loc 1 53 0
  81 0032 F0BC     		pop	{r4, r5, r6, r7}
  82              		.cfi_remember_state
  83              		.cfi_restore 7
  84              		.cfi_restore 6
  85              		.cfi_restore 5
  86              		.cfi_restore 4
  87              		.cfi_def_cfa_offset 0
  88 0034 7047     		bx	lr
  89              	.L15:
  90              		.cfi_restore_state
  91 0036 3DB9     		cbnz	r5, .L16
  92              	.L4:
  93              	.LBB3:
  94              		.loc 1 45 0
  95 0038 D31A     		subs	r3, r2, r3
  96              	.LVL3:
  97 003a DB00     		lsls	r3, r3, #3
  98 003c 0121     		movs	r1, #1
  99              		.loc 1 46 0
 100 003e 1A1D     		adds	r2, r3, #4
 101              		.loc 1 45 0
 102 0040 C154     		strb	r1, [r0, r3]
 103              	.LBE3:
 104              		.loc 1 53 0
 105 0042 F0BC     		pop	{r4, r5, r6, r7}
 106              		.cfi_remember_state
 107              		.cfi_restore 7
 108              		.cfi_restore 6
 109              		.cfi_restore 5
 110              		.cfi_restore 4
 111              		.cfi_def_cfa_offset 0
 112              	.LBB4:
 113              		.loc 1 46 0
 114 0044 1044     		add	r0, r0, r2
ARM GAS  C:\Users\CFAR\AppData\Local\Temp\ccMltsPO.s 			page 3


 115              	.LBE4:
 116              		.loc 1 53 0
 117 0046 7047     		bx	lr
 118              	.LVL4:
 119              	.L16:
 120              		.cfi_restore_state
 121 0048 3C60     		str	r4, [r7]
 122 004a F5E7     		b	.L4
 123              	.L18:
 124              		.align	2
 125              	.L17:
 126 004c 00000000 		.word	.LANCHOR0
 127 0050 00000000 		.word	m_mc_confs
 128              		.cfi_endproc
 129              	.LFE219:
 130              		.size	mempools_alloc_mcconf, .-mempools_alloc_mcconf
 131              		.section	.text.mempools_free_mcconf,"ax",%progbits
 132              		.align	1
 133              		.p2align 4,,15
 134              		.global	mempools_free_mcconf
 135              		.syntax unified
 136              		.thumb
 137              		.thumb_func
 138              		.fpu fpv4-sp-d16
 139              		.type	mempools_free_mcconf, %function
 140              	mempools_free_mcconf:
 141              	.LFB220:
 142              		.loc 1 55 0
 143              		.cfi_startproc
 144              		@ args = 0, pretend = 0, frame = 0
 145              		@ frame_needed = 0, uses_anonymous_args = 0
 146              		@ link register save eliminated.
 147              	.LVL5:
 148 0000 084A     		ldr	r2, .L25
 149              	.LBB5:
 150              		.loc 1 56 0
 151 0002 0023     		movs	r3, #0
 152              	.LVL6:
 153              	.L22:
 154              		.loc 1 57 0
 155 0004 9042     		cmp	r0, r2
 156 0006 02F5FC72 		add	r2, r2, #504
 157 000a 03D0     		beq	.L24
 158              		.loc 1 56 0 discriminator 2
 159 000c 0133     		adds	r3, r3, #1
 160              	.LVL7:
 161 000e 0A2B     		cmp	r3, #10
 162 0010 F8D1     		bne	.L22
 163              	.LBE5:
 164              		.loc 1 62 0
 165 0012 7047     		bx	lr
 166              	.L24:
 167              	.LBB6:
 168              		.loc 1 58 0
 169 0014 C3EB8313 		rsb	r3, r3, r3, lsl #6
 170              	.LVL8:
 171 0018 DB00     		lsls	r3, r3, #3
ARM GAS  C:\Users\CFAR\AppData\Local\Temp\ccMltsPO.s 			page 4


 172 001a 034A     		ldr	r2, .L25+4
 173 001c 0021     		movs	r1, #0
 174 001e D154     		strb	r1, [r2, r3]
 175              		.loc 1 59 0
 176 0020 7047     		bx	lr
 177              	.L26:
 178 0022 00BF     		.align	2
 179              	.L25:
 180 0024 04000000 		.word	m_mc_confs+4
 181 0028 00000000 		.word	m_mc_confs
 182              	.LBE6:
 183              		.cfi_endproc
 184              	.LFE220:
 185              		.size	mempools_free_mcconf, .-mempools_free_mcconf
 186              		.section	.text.mempools_alloc_appconf,"ax",%progbits
 187              		.align	1
 188              		.p2align 4,,15
 189              		.global	mempools_alloc_appconf
 190              		.syntax unified
 191              		.thumb
 192              		.thumb_func
 193              		.fpu fpv4-sp-d16
 194              		.type	mempools_alloc_appconf, %function
 195              	mempools_alloc_appconf:
 196              	.LFB221:
 197              		.loc 1 64 0
 198              		.cfi_startproc
 199              		@ args = 0, pretend = 0, frame = 0
 200              		@ frame_needed = 0, uses_anonymous_args = 0
 201              		@ link register save eliminated.
 202              	.LVL9:
 203 0000 F0B4     		push	{r4, r5, r6, r7}
 204              		.cfi_def_cfa_offset 16
 205              		.cfi_offset 4, -16
 206              		.cfi_offset 5, -12
 207              		.cfi_offset 6, -8
 208              		.cfi_offset 7, -4
 209 0002 144F     		ldr	r7, .L42
 210 0004 1448     		ldr	r0, .L42+4
 211 0006 3A68     		ldr	r2, [r7]
 212              		.loc 1 64 0
 213 0008 0025     		movs	r5, #0
 214 000a 1146     		mov	r1, r2
 215              	.LBB7:
 216              		.loc 1 65 0
 217 000c 2B46     		mov	r3, r5
 218              		.loc 1 69 0
 219 000e 4FF4DC76 		mov	r6, #440
 220              	.LVL10:
 221              	.L32:
 222 0012 06FB03F4 		mul	r4, r6, r3
 223              		.loc 1 66 0
 224 0016 9942     		cmp	r1, r3
 225              		.loc 1 69 0
 226 0018 045D     		ldrb	r4, [r0, r4]	@ zero_extendqisi2
 227              		.loc 1 66 0
 228 001a BCBF     		itt	lt
ARM GAS  C:\Users\CFAR\AppData\Local\Temp\ccMltsPO.s 			page 5


 229 001c 1946     		movlt	r1, r3
 230 001e 0125     		movlt	r5, #1
 231              		.loc 1 69 0
 232 0020 54B1     		cbz	r4, .L40
 233              		.loc 1 65 0 discriminator 2
 234 0022 0133     		adds	r3, r3, #1
 235              	.LVL11:
 236 0024 032B     		cmp	r3, #3
 237 0026 F4D1     		bne	.L32
 238              		.loc 1 65 0 is_stmt 0
 239 0028 002D     		cmp	r5, #0
 240 002a 18BF     		it	ne
 241 002c 0A46     		movne	r2, r1
 242              	.LBE7:
 243              		.loc 1 75 0 is_stmt 1
 244 002e 0132     		adds	r2, r2, #1
 245 0030 3A60     		str	r2, [r7]
 246              		.loc 1 77 0
 247 0032 0020     		movs	r0, #0
 248              		.loc 1 78 0
 249 0034 F0BC     		pop	{r4, r5, r6, r7}
 250              		.cfi_remember_state
 251              		.cfi_restore 7
 252              		.cfi_restore 6
 253              		.cfi_restore 5
 254              		.cfi_restore 4
 255              		.cfi_def_cfa_offset 0
 256 0036 7047     		bx	lr
 257              	.L40:
 258              		.cfi_restore_state
 259 0038 4DB9     		cbnz	r5, .L41
 260              	.L30:
 261              	.LBB8:
 262              		.loc 1 70 0
 263 003a 4FF4DC72 		mov	r2, #440
 264 003e 02FB03F3 		mul	r3, r2, r3
 265              	.LVL12:
 266 0042 0121     		movs	r1, #1
 267              		.loc 1 71 0
 268 0044 1A1D     		adds	r2, r3, #4
 269              		.loc 1 70 0
 270 0046 C154     		strb	r1, [r0, r3]
 271              	.LBE8:
 272              		.loc 1 78 0
 273 0048 F0BC     		pop	{r4, r5, r6, r7}
 274              		.cfi_remember_state
 275              		.cfi_restore 7
 276              		.cfi_restore 6
 277              		.cfi_restore 5
 278              		.cfi_restore 4
 279              		.cfi_def_cfa_offset 0
 280              	.LBB9:
 281              		.loc 1 71 0
 282 004a 1044     		add	r0, r0, r2
 283              	.LBE9:
 284              		.loc 1 78 0
 285 004c 7047     		bx	lr
ARM GAS  C:\Users\CFAR\AppData\Local\Temp\ccMltsPO.s 			page 6


 286              	.LVL13:
 287              	.L41:
 288              		.cfi_restore_state
 289 004e 3960     		str	r1, [r7]
 290 0050 F3E7     		b	.L30
 291              	.L43:
 292 0052 00BF     		.align	2
 293              	.L42:
 294 0054 00000000 		.word	.LANCHOR1
 295 0058 00000000 		.word	.LANCHOR2
 296              		.cfi_endproc
 297              	.LFE221:
 298              		.size	mempools_alloc_appconf, .-mempools_alloc_appconf
 299              		.section	.text.mempools_free_appconf,"ax",%progbits
 300              		.align	1
 301              		.p2align 4,,15
 302              		.global	mempools_free_appconf
 303              		.syntax unified
 304              		.thumb
 305              		.thumb_func
 306              		.fpu fpv4-sp-d16
 307              		.type	mempools_free_appconf, %function
 308              	mempools_free_appconf:
 309              	.LFB222:
 310              		.loc 1 80 0
 311              		.cfi_startproc
 312              		@ args = 0, pretend = 0, frame = 0
 313              		@ frame_needed = 0, uses_anonymous_args = 0
 314              		@ link register save eliminated.
 315              	.LVL14:
 316              	.LBB10:
 317              		.loc 1 82 0
 318 0000 0C4B     		ldr	r3, .L49
 319 0002 1A1D     		adds	r2, r3, #4
 320 0004 9042     		cmp	r0, r2
 321 0006 12D0     		beq	.L47
 322              	.LVL15:
 323 0008 03F5DE72 		add	r2, r3, #444
 324 000c 9042     		cmp	r0, r2
 325 000e 06D0     		beq	.L48
 326              	.LVL16:
 327 0010 03F55D72 		add	r2, r3, #884
 328 0014 9042     		cmp	r0, r2
 329              		.loc 1 81 0
 330 0016 08BF     		it	eq
 331 0018 0221     		moveq	r1, #2
 332              		.loc 1 82 0
 333 001a 01D0     		beq	.L45
 334              	.LBE10:
 335              		.loc 1 87 0
 336 001c 7047     		bx	lr
 337              	.LVL17:
 338              	.L48:
 339              	.LBB11:
 340              		.loc 1 81 0
 341 001e 0121     		movs	r1, #1
 342              	.LVL18:
ARM GAS  C:\Users\CFAR\AppData\Local\Temp\ccMltsPO.s 			page 7


 343              	.L45:
 344              		.loc 1 83 0
 345 0020 4FF4DC72 		mov	r2, #440
 346 0024 02FB01F2 		mul	r2, r2, r1
 347 0028 0021     		movs	r1, #0
 348 002a 9954     		strb	r1, [r3, r2]
 349              	.LBE11:
 350              		.loc 1 87 0
 351 002c 7047     		bx	lr
 352              	.LVL19:
 353              	.L47:
 354              	.LBB12:
 355              		.loc 1 81 0
 356 002e 0021     		movs	r1, #0
 357 0030 F6E7     		b	.L45
 358              	.L50:
 359 0032 00BF     		.align	2
 360              	.L49:
 361 0034 00000000 		.word	.LANCHOR2
 362              	.LBE12:
 363              		.cfi_endproc
 364              	.LFE222:
 365              		.size	mempools_free_appconf, .-mempools_free_appconf
 366              		.section	.text.mempools_mcconf_highest,"ax",%progbits
 367              		.align	1
 368              		.p2align 4,,15
 369              		.global	mempools_mcconf_highest
 370              		.syntax unified
 371              		.thumb
 372              		.thumb_func
 373              		.fpu fpv4-sp-d16
 374              		.type	mempools_mcconf_highest, %function
 375              	mempools_mcconf_highest:
 376              	.LFB223:
 377              		.loc 1 89 0
 378              		.cfi_startproc
 379              		@ args = 0, pretend = 0, frame = 0
 380              		@ frame_needed = 0, uses_anonymous_args = 0
 381              		@ link register save eliminated.
 382              		.loc 1 90 0
 383 0000 014B     		ldr	r3, .L52
 384              		.loc 1 91 0
 385 0002 1868     		ldr	r0, [r3]
 386 0004 7047     		bx	lr
 387              	.L53:
 388 0006 00BF     		.align	2
 389              	.L52:
 390 0008 00000000 		.word	.LANCHOR0
 391              		.cfi_endproc
 392              	.LFE223:
 393              		.size	mempools_mcconf_highest, .-mempools_mcconf_highest
 394              		.section	.text.mempools_appconf_highest,"ax",%progbits
 395              		.align	1
 396              		.p2align 4,,15
 397              		.global	mempools_appconf_highest
 398              		.syntax unified
 399              		.thumb
ARM GAS  C:\Users\CFAR\AppData\Local\Temp\ccMltsPO.s 			page 8


 400              		.thumb_func
 401              		.fpu fpv4-sp-d16
 402              		.type	mempools_appconf_highest, %function
 403              	mempools_appconf_highest:
 404              	.LFB224:
 405              		.loc 1 93 0
 406              		.cfi_startproc
 407              		@ args = 0, pretend = 0, frame = 0
 408              		@ frame_needed = 0, uses_anonymous_args = 0
 409              		@ link register save eliminated.
 410              		.loc 1 94 0
 411 0000 014B     		ldr	r3, .L55
 412              		.loc 1 95 0
 413 0002 1868     		ldr	r0, [r3]
 414 0004 7047     		bx	lr
 415              	.L56:
 416 0006 00BF     		.align	2
 417              	.L55:
 418 0008 00000000 		.word	.LANCHOR1
 419              		.cfi_endproc
 420              	.LFE224:
 421              		.size	mempools_appconf_highest, .-mempools_appconf_highest
 422              		.section	.text.mempools_mcconf_allocated_num,"ax",%progbits
 423              		.align	1
 424              		.p2align 4,,15
 425              		.global	mempools_mcconf_allocated_num
 426              		.syntax unified
 427              		.thumb
 428              		.thumb_func
 429              		.fpu fpv4-sp-d16
 430              		.type	mempools_mcconf_allocated_num, %function
 431              	mempools_mcconf_allocated_num:
 432              	.LFB225:
 433              		.loc 1 97 0
 434              		.cfi_startproc
 435              		@ args = 0, pretend = 0, frame = 0
 436              		@ frame_needed = 0, uses_anonymous_args = 0
 437              		@ link register save eliminated.
 438              	.LVL20:
 439              	.LBB13:
 440              		.loc 1 99 0
 441 0000 0023     		movs	r3, #0
 442 0002 0649     		ldr	r1, .L64
 443              	.LBE13:
 444              		.loc 1 98 0
 445 0004 1846     		mov	r0, r3
 446              	.LVL21:
 447              	.L59:
 448              	.LBB14:
 449              		.loc 1 100 0
 450 0006 C3EB8312 		rsb	r2, r3, r3, lsl #6
 451 000a 0133     		adds	r3, r3, #1
 452              	.LVL22:
 453 000c 11F83220 		ldrb	r2, [r1, r2, lsl #3]	@ zero_extendqisi2
 454 0010 02B1     		cbz	r2, .L58
 455              		.loc 1 101 0
 456 0012 0130     		adds	r0, r0, #1
ARM GAS  C:\Users\CFAR\AppData\Local\Temp\ccMltsPO.s 			page 9


 457              	.LVL23:
 458              	.L58:
 459              		.loc 1 99 0 discriminator 2
 460 0014 0A2B     		cmp	r3, #10
 461 0016 F6D1     		bne	.L59
 462              	.LBE14:
 463              		.loc 1 105 0
 464 0018 7047     		bx	lr
 465              	.L65:
 466 001a 00BF     		.align	2
 467              	.L64:
 468 001c 00000000 		.word	m_mc_confs
 469              		.cfi_endproc
 470              	.LFE225:
 471              		.size	mempools_mcconf_allocated_num, .-mempools_mcconf_allocated_num
 472              		.section	.text.mempools_appconf_allocated_num,"ax",%progbits
 473              		.align	1
 474              		.p2align 4,,15
 475              		.global	mempools_appconf_allocated_num
 476              		.syntax unified
 477              		.thumb
 478              		.thumb_func
 479              		.fpu fpv4-sp-d16
 480              		.type	mempools_appconf_allocated_num, %function
 481              	mempools_appconf_allocated_num:
 482              	.LFB226:
 483              		.loc 1 107 0
 484              		.cfi_startproc
 485              		@ args = 0, pretend = 0, frame = 0
 486              		@ frame_needed = 0, uses_anonymous_args = 0
 487              		@ link register save eliminated.
 488              	.LVL24:
 489              	.LBB15:
 490              		.loc 1 110 0
 491 0000 054B     		ldr	r3, .L75
 492 0002 1878     		ldrb	r0, [r3]	@ zero_extendqisi2
 493 0004 93F8B821 		ldrb	r2, [r3, #440]	@ zero_extendqisi2
 494 0008 C0B2     		uxtb	r0, r0
 495              	.LVL25:
 496 000a 02B1     		cbz	r2, .L67
 497              		.loc 1 111 0
 498 000c 0130     		adds	r0, r0, #1
 499              	.LVL26:
 500              	.L67:
 501              		.loc 1 110 0
 502 000e 93F87033 		ldrb	r3, [r3, #880]	@ zero_extendqisi2
 503 0012 03B1     		cbz	r3, .L66
 504              		.loc 1 111 0
 505 0014 0130     		adds	r0, r0, #1
 506              	.LVL27:
 507              	.L66:
 508              	.LBE15:
 509              		.loc 1 115 0
 510 0016 7047     		bx	lr
 511              	.L76:
 512              		.align	2
 513              	.L75:
ARM GAS  C:\Users\CFAR\AppData\Local\Temp\ccMltsPO.s 			page 10


 514 0018 00000000 		.word	.LANCHOR2
 515              		.cfi_endproc
 516              	.LFE226:
 517              		.size	mempools_appconf_allocated_num, .-mempools_appconf_allocated_num
 518              		.section	.bss.m_app_confs,"aw",%nobits
 519              		.align	2
 520              		.set	.LANCHOR2,. + 0
 521              		.type	m_app_confs, %object
 522              		.size	m_app_confs, 1320
 523              	m_app_confs:
 524 0000 00000000 		.space	1320
 524      00000000 
 524      00000000 
 524      00000000 
 524      00000000 
 525              		.section	.bss.m_appconf_highest,"aw",%nobits
 526              		.align	2
 527              		.set	.LANCHOR1,. + 0
 528              		.type	m_appconf_highest, %object
 529              		.size	m_appconf_highest, 4
 530              	m_appconf_highest:
 531 0000 00000000 		.space	4
 532              		.section	.bss.m_mc_confs,"aw",%nobits
 533              		.align	2
 534              		.type	m_mc_confs, %object
 535              		.size	m_mc_confs, 5040
 536              	m_mc_confs:
 537 0000 00000000 		.space	5040
 537      00000000 
 537      00000000 
 537      00000000 
 537      00000000 
 538              		.section	.bss.m_mcconf_highest,"aw",%nobits
 539              		.align	2
 540              		.set	.LANCHOR0,. + 0
 541              		.type	m_mcconf_highest, %object
 542              		.size	m_mcconf_highest, 4
 543              	m_mcconf_highest:
 544 0000 00000000 		.space	4
 545              		.text
 546              	.Letext0:
 547              		.file 2 "c:\\st\\stm32cubeide_1.3.0\\stm32cubeide\\plugins\\com.st.stm32cube.ide.mcu.externaltools
 548              		.file 3 "c:\\st\\stm32cubeide_1.3.0\\stm32cubeide\\plugins\\com.st.stm32cube.ide.mcu.externaltools
 549              		.file 4 "c:\\st\\stm32cubeide_1.3.0\\stm32cubeide\\plugins\\com.st.stm32cube.ide.mcu.externaltools
 550              		.file 5 "ChibiOS_3.0.5/os/rt/ports/ARMCMx/compilers/GCC/chtypes.h"
 551              		.file 6 "ChibiOS_3.0.5/os/rt/include/chsystypes.h"
 552              		.file 7 "ChibiOS_3.0.5/os/rt/include/chschd.h"
 553              		.file 8 "ChibiOS_3.0.5/os/ext/CMSIS/include/core_cm4.h"
 554              		.file 9 "ChibiOS_3.0.5/os/ext/CMSIS/ST/system_stm32f4xx.h"
 555              		.file 10 "ChibiOS_3.0.5/os/rt/ports/ARMCMx/chcore.h"
 556              		.file 11 "ChibiOS_3.0.5/os/rt/ports/ARMCMx/chcore_v7m.h"
 557              		.file 12 "ChibiOS_3.0.5/os/rt/include/chtm.h"
 558              		.file 13 "ChibiOS_3.0.5/os/rt/include/chsem.h"
 559              		.file 14 "ChibiOS_3.0.5/os/rt/include/chmtx.h"
 560              		.file 15 "ChibiOS_3.0.5/os/rt/include/chregistry.h"
 561              		.file 16 "datatypes.h"
