ARM GAS  C:\Users\CFAR\AppData\Local\Temp\ccTpuxCm.s 			page 1


   1              		.cpu cortex-m4
   2              		.eabi_attribute 27, 1
   3              		.eabi_attribute 28, 1
   4              		.eabi_attribute 20, 1
   5              		.eabi_attribute 21, 1
   6              		.eabi_attribute 23, 3
   7              		.eabi_attribute 24, 1
   8              		.eabi_attribute 25, 1
   9              		.eabi_attribute 26, 1
  10              		.eabi_attribute 30, 2
  11              		.eabi_attribute 34, 1
  12              		.eabi_attribute 18, 4
  13              		.file	"nrf_driver.c"
  14              		.text
  15              	.Ltext0:
  16              		.cfi_sections	.debug_frame
  17              		.section	.text.rf_tx_wrapper,"ax",%progbits
  18              		.align	1
  19              		.p2align 4,,15
  20              		.syntax unified
  21              		.thumb
  22              		.thumb_func
  23              		.fpu fpv4-sp-d16
  24              		.type	rf_tx_wrapper, %function
  25              	rf_tx_wrapper:
  26              	.LFB223:
  27              		.file 1 "nrf/nrf_driver.c"
  28              		.loc 1 165 0
  29              		.cfi_startproc
  30              		@ args = 0, pretend = 0, frame = 0
  31              		@ frame_needed = 1, uses_anonymous_args = 0
  32              	.LVL0:
  33 0000 B0B5     		push	{r4, r5, r7, lr}
  34              		.cfi_def_cfa_offset 16
  35              		.cfi_offset 4, -16
  36              		.cfi_offset 5, -12
  37              		.cfi_offset 7, -8
  38              		.cfi_offset 14, -4
  39              		.loc 1 168 0
  40 0002 134B     		ldr	r3, .L7
  41 0004 1B78     		ldrb	r3, [r3]	@ zero_extendqisi2
  42              		.loc 1 165 0
  43 0006 00AF     		add	r7, sp, #0
  44              		.cfi_def_cfa_register 7
  45              		.loc 1 168 0
  46 0008 43B9     		cbnz	r3, .L6
  47              		.loc 1 174 0
  48 000a FFF7FEFF 		bl	rfhelp_send_data_crc
  49              	.LVL1:
  50              		.loc 1 176 0
  51 000e 18B9     		cbnz	r0, .L1
  52              		.loc 1 177 0
  53 0010 104B     		ldr	r3, .L7+4
  54 0012 4FF4FA72 		mov	r2, #500
  55 0016 1A60     		str	r2, [r3]
  56              	.L1:
  57              		.loc 1 182 0
ARM GAS  C:\Users\CFAR\AppData\Local\Temp\ccTpuxCm.s 			page 2


  58 0018 BD46     		mov	sp, r7
  59              		.cfi_remember_state
  60              		.cfi_def_cfa_register 13
  61              		@ sp needed
  62 001a B0BD     		pop	{r4, r5, r7, pc}
  63              	.LVL2:
  64              	.L6:
  65              		.cfi_restore_state
  66              	.LBB27:
  67              	.LBB28:
  68              	.LBB29:
  69              		.loc 1 169 0
  70 001c 01F10803 		add	r3, r1, #8
  71 0020 23F00703 		bic	r3, r3, #7
  72              		.loc 1 168 0
  73 0024 6D46     		mov	r5, sp
  74              		.loc 1 169 0
  75 0026 ADEB030D 		sub	sp, sp, r3
  76 002a 0446     		mov	r4, r0
  77              	.LVL3:
  78              		.loc 1 170 0
  79 002c 6846     		mov	r0, sp
  80              	.LVL4:
  81 002e 0A46     		mov	r2, r1
  82              	.LVL5:
  83 0030 3623     		movs	r3, #54
  84 0032 00F8013B 		strb	r3, [r0], #1
  85              	.LVL6:
  86              		.loc 1 171 0
  87 0036 2146     		mov	r1, r4
  88              	.LVL7:
  89              		.loc 1 169 0
  90 0038 541C     		adds	r4, r2, #1
  91              	.LVL8:
  92              		.loc 1 171 0
  93 003a FFF7FEFF 		bl	memcpy
  94              	.LVL9:
  95              		.loc 1 172 0
  96 003e 6846     		mov	r0, sp
  97 0040 2146     		mov	r1, r4
  98 0042 FFF7FEFF 		bl	commands_send_packet_nrf
  99              	.LVL10:
 100 0046 0020     		movs	r0, #0
 101 0048 AD46     		mov	sp, r5
 102              	.LVL11:
 103              	.LBE29:
 104              	.LBE28:
 105              	.LBE27:
 106              		.loc 1 182 0
 107 004a BD46     		mov	sp, r7
 108              		.cfi_def_cfa_register 13
 109              		@ sp needed
 110 004c B0BD     		pop	{r4, r5, r7, pc}
 111              	.L8:
 112 004e 00BF     		.align	2
 113              	.L7:
 114 0050 00000000 		.word	.LANCHOR0
ARM GAS  C:\Users\CFAR\AppData\Local\Temp\ccTpuxCm.s 			page 3


 115 0054 00000000 		.word	.LANCHOR1
 116              		.cfi_endproc
 117              	.LFE223:
 118              		.size	rf_tx_wrapper, .-rf_tx_wrapper
 119              		.section	.text.tx_thread,"ax",%progbits
 120              		.align	1
 121              		.p2align 4,,15
 122              		.syntax unified
 123              		.thumb
 124              		.thumb_func
 125              		.fpu fpv4-sp-d16
 126              		.type	tx_thread, %function
 127              	tx_thread:
 128              	.LFB224:
 129              		.loc 1 184 0
 130              		.cfi_startproc
 131              		@ args = 0, pretend = 0, frame = 56
 132              		@ frame_needed = 0, uses_anonymous_args = 0
 133              	.LVL12:
 134 0000 2DE9F04F 		push	{r4, r5, r6, r7, r8, r9, r10, fp, lr}
 135              		.cfi_def_cfa_offset 36
 136              		.cfi_offset 4, -36
 137              		.cfi_offset 5, -32
 138              		.cfi_offset 6, -28
 139              		.cfi_offset 7, -24
 140              		.cfi_offset 8, -20
 141              		.cfi_offset 9, -16
 142              		.cfi_offset 10, -12
 143              		.cfi_offset 11, -8
 144              		.cfi_offset 14, -4
 145              		.loc 1 188 0
 146 0004 8248     		ldr	r0, .L25
 147              	.LVL13:
 148              		.loc 1 191 0
 149 0006 834F     		ldr	r7, .L25+4
 150              	.LBB30:
 151              	.LBB31:
 152              		.file 2 "ChibiOS_3.0.5/os/rt/include/chregistry.h"
 153              		.loc 2 135 0
 154 0008 DFF83082 		ldr	r8, .L25+44
 155 000c 8249     		ldr	r1, .L25+8
 156 000e D8F81820 		ldr	r2, [r8, #24]
 157              	.LBE31:
 158              	.LBE30:
 159              		.loc 1 188 0
 160 0012 0123     		movs	r3, #1
 161              		.loc 1 184 0
 162 0014 2DED068B 		vpush.64	{d8, d9, d10}
 163              		.cfi_def_cfa_offset 60
 164              		.cfi_offset 80, -60
 165              		.cfi_offset 81, -56
 166              		.cfi_offset 82, -52
 167              		.cfi_offset 83, -48
 168              		.cfi_offset 84, -44
 169              		.cfi_offset 85, -40
 170              		.loc 1 188 0
 171 0018 0370     		strb	r3, [r0]
ARM GAS  C:\Users\CFAR\AppData\Local\Temp\ccTpuxCm.s 			page 4


 172              		.loc 1 191 0
 173 001a 3B78     		ldrb	r3, [r7]	@ zero_extendqisi2
 174              	.LBB33:
 175              	.LBB32:
 176              		.loc 2 135 0
 177 001c 9161     		str	r1, [r2, #24]
 178              	.LVL14:
 179              	.LBE32:
 180              	.LBE33:
 181              		.loc 1 184 0
 182 001e 8FB0     		sub	sp, sp, #60
 183              		.cfi_def_cfa_offset 120
 184              		.loc 1 191 0
 185 0020 002B     		cmp	r3, #0
 186 0022 40F0D880 		bne	.L17
 187 0026 7D4D     		ldr	r5, .L25+12
 188 0028 7D4C     		ldr	r4, .L25+16
 189 002a DFF81492 		ldr	r9, .L25+48
 190              		.loc 1 198 0
 191 002e 7D4E     		ldr	r6, .L25+20
 192              	.LBB34:
 193              		.loc 1 202 0
 194 0030 DFF810A2 		ldr	r10, .L25+52
 195              		.loc 1 205 0
 196 0034 DFED7CAA 		vldr.32	s21, .L25+24
 197              		.loc 1 208 0
 198 0038 9FED7C8A 		vldr.32	s16, .L25+28
 199              		.loc 1 215 0
 200 003c 9FED7C9A 		vldr.32	s18, .L25+32
 201              		.loc 1 219 0
 202 0040 9FED7CAA 		vldr.32	s20, .L25+36
 203 0044 3EE0     		b	.L10
 204              	.L11:
 205              	.LBE34:
 206              		.loc 1 228 0
 207 0046 2368     		ldr	r3, [r4]
 208 0048 002B     		cmp	r3, #0
 209 004a 02DD     		ble	.L13
 210              		.loc 1 229 0
 211 004c 2368     		ldr	r3, [r4]
 212 004e 013B     		subs	r3, r3, #1
 213 0050 2360     		str	r3, [r4]
 214              	.L13:
 215              	.LBB35:
 216              	.LBB36:
 217              		.file 3 "ChibiOS_3.0.5/os/rt/include/chvt.h"
 218              		.loc 3 231 0
 219 0052 D8F82830 		ldr	r3, [r8, #40]
 220              	.LBE36:
 221              	.LBE35:
 222              		.loc 1 232 0
 223 0056 D9F80020 		ldr	r2, [r9]
 224 005a 9A42     		cmp	r2, r3
 225 005c 2BD2     		bcs	.L14
 226              		.loc 1 232 0 is_stmt 0 discriminator 1
 227 005e 3378     		ldrb	r3, [r6]	@ zero_extendqisi2
 228 0060 4BB3     		cbz	r3, .L14
ARM GAS  C:\Users\CFAR\AppData\Local\Temp\ccTpuxCm.s 			page 5


 229              	.LBB37:
 230              		.loc 1 233 0 is_stmt 1
 231 0062 0022     		movs	r2, #0
 232              		.loc 1 235 0
 233 0064 744B     		ldr	r3, .L25+40
 234              		.loc 1 233 0
 235 0066 3270     		strb	r2, [r6]
 236              		.loc 1 235 0
 237 0068 1B78     		ldrb	r3, [r3]	@ zero_extendqisi2
 238 006a 002B     		cmp	r3, #0
 239 006c 00F0BB80 		beq	.L15
 240              	.LBB38:
 241              		.loc 1 236 0
 242 0070 FFF7FEFF 		bl	app_get_configuration
 243              	.LVL15:
 244              		.loc 1 238 0
 245 0074 3523     		movs	r3, #53
 246 0076 8DF81C30 		strb	r3, [sp, #28]
 247              		.loc 1 239 0
 248 007a 90F8DD30 		ldrb	r3, [r0, #221]	@ zero_extendqisi2
 249 007e 8DF81D30 		strb	r3, [sp, #29]
 250              		.loc 1 240 0
 251 0082 90F8DE30 		ldrb	r3, [r0, #222]	@ zero_extendqisi2
 252 0086 8DF81E30 		strb	r3, [sp, #30]
 253              		.loc 1 241 0
 254 008a 90F8DF30 		ldrb	r3, [r0, #223]	@ zero_extendqisi2
 255 008e 8DF81F30 		strb	r3, [sp, #31]
 256              		.loc 1 243 0
 257 0092 0DF11C0B 		add	fp, sp, #28
 258              		.loc 1 242 0
 259 0096 90F8E020 		ldrb	r2, [r0, #224]	@ zero_extendqisi2
 260 009a 8DF82020 		strb	r2, [sp, #32]
 261              		.loc 1 243 0
 262 009e 5846     		mov	r0, fp
 263              	.LVL16:
 264 00a0 0521     		movs	r1, #5
 265 00a2 FFF7FEFF 		bl	commands_send_packet_nrf
 266              	.LVL17:
 267              	.L16:
 268              	.LBE38:
 269              		.loc 1 250 0 discriminator 1
 270 00a6 40F22523 		movw	r3, #549
 271              		.loc 1 252 0 discriminator 1
 272 00aa 5846     		mov	r0, fp
 273 00ac 0221     		movs	r1, #2
 274              		.loc 1 250 0 discriminator 1
 275 00ae ADF81C30 		strh	r3, [sp, #28]	@ movhi
 276              		.loc 1 252 0 discriminator 1
 277 00b2 FFF7FEFF 		bl	commands_send_packet
 278              	.LVL18:
 279              	.L14:
 280              	.LBE37:
 281              		.loc 1 255 0
 282 00b6 0A20     		movs	r0, #10
 283 00b8 FFF7FEFF 		bl	chThdSleep
 284              	.LVL19:
 285              		.loc 1 191 0
ARM GAS  C:\Users\CFAR\AppData\Local\Temp\ccTpuxCm.s 			page 6


 286 00bc 3B78     		ldrb	r3, [r7]	@ zero_extendqisi2
 287 00be 002B     		cmp	r3, #0
 288 00c0 40F08980 		bne	.L17
 289              	.L10:
 290              		.loc 1 196 0
 291 00c4 2B68     		ldr	r3, [r5]
 292 00c6 0133     		adds	r3, r3, #1
 293              		.loc 1 198 0
 294 00c8 632B     		cmp	r3, #99
 295              		.loc 1 196 0
 296 00ca 2B60     		str	r3, [r5]
 297              		.loc 1 198 0
 298 00cc BBDD     		ble	.L11
 299              		.loc 1 198 0 is_stmt 0 discriminator 1
 300 00ce 3378     		ldrb	r3, [r6]	@ zero_extendqisi2
 301 00d0 03F0FF02 		and	r2, r3, #255
 302 00d4 002B     		cmp	r3, #0
 303 00d6 B6D1     		bne	.L11
 304              	.LBB40:
 305              		.loc 1 202 0 is_stmt 1
 306 00d8 9AF80030 		ldrb	r3, [r10]	@ zero_extendqisi2
 307              		.loc 1 200 0
 308 00dc 0092     		str	r2, [sp]
 309              		.loc 1 202 0
 310 00de 0133     		adds	r3, r3, #1
 311              		.loc 1 204 0
 312 00e0 07A8     		add	r0, sp, #28
 313              		.loc 1 202 0
 314 00e2 8AF80030 		strb	r3, [r10]
 315              		.loc 1 204 0
 316 00e6 FFF7FEFF 		bl	mc_interface_get_setup_values
 317              	.LVL20:
 318              		.loc 1 207 0
 319 00ea 009B     		ldr	r3, [sp]
 320              		.loc 1 205 0
 321 00ec CDED01AA 		vstr.32	s21, [sp, #4]
 322              		.loc 1 207 0
 323 00f0 0EAA     		add	r2, sp, #56
 324 00f2 1A44     		add	r2, r2, r3
 325 00f4 0221     		movs	r1, #2
 326 00f6 0133     		adds	r3, r3, #1
 327              		.loc 1 208 0
 328 00f8 01A8     		add	r0, sp, #4
 329              		.loc 1 207 0
 330 00fa 02F8301C 		strb	r1, [r2, #-48]
 331 00fe 0093     		str	r3, [sp]
 332              		.loc 1 208 0
 333 0100 FFF7FEFF 		bl	mc_interface_get_battery_level
 334              	.LVL21:
 335 0104 6946     		mov	r1, sp
 336 0106 02A8     		add	r0, sp, #8
 337 0108 F0EE480A 		vmov.f32	s1, s16
 338 010c FFF7FEFF 		bl	buffer_append_float16
 339              	.LVL22:
 340              		.loc 1 209 0
 341 0110 FFF7FEFF 		bl	mc_interface_get_speed
 342              	.LVL23:
ARM GAS  C:\Users\CFAR\AppData\Local\Temp\ccTpuxCm.s 			page 7


 343 0114 6946     		mov	r1, sp
 344 0116 F0EE480A 		vmov.f32	s1, s16
 345 011a 02A8     		add	r0, sp, #8
 346 011c FFF7FEFF 		bl	buffer_append_float32
 347              	.LVL24:
 348              		.loc 1 210 0
 349 0120 FFF7FEFF 		bl	mc_interface_get_distance_abs
 350              	.LVL25:
 351 0124 6946     		mov	r1, sp
 352 0126 F0EE480A 		vmov.f32	s1, s16
 353 012a 02A8     		add	r0, sp, #8
 354 012c FFF7FEFF 		bl	buffer_append_float32
 355              	.LVL26:
 356              		.loc 1 211 0
 357 0130 FFF7FEFF 		bl	mc_interface_temp_fet_filtered
 358              	.LVL27:
 359 0134 6946     		mov	r1, sp
 360 0136 02A8     		add	r0, sp, #8
 361 0138 F2EE040A 		vmov.f32	s1, #1.0e+1
 362 013c FFF7FEFF 		bl	buffer_append_float16
 363              	.LVL28:
 364              		.loc 1 212 0
 365 0140 FFF7FEFF 		bl	mc_interface_temp_motor_filtered
 366              	.LVL29:
 367 0144 6946     		mov	r1, sp
 368 0146 02A8     		add	r0, sp, #8
 369 0148 F2EE040A 		vmov.f32	s1, #1.0e+1
 370 014c FFF7FEFF 		bl	buffer_append_float16
 371              	.LVL30:
 372              		.loc 1 213 0
 373 0150 009B     		ldr	r3, [sp]
 374 0152 9AF80000 		ldrb	r0, [r10]	@ zero_extendqisi2
 375              		.loc 1 214 0
 376 0156 9DED010A 		vldr.32	s0, [sp, #4]
 377              		.loc 1 213 0
 378 015a 0EAA     		add	r2, sp, #56
 379 015c 1A44     		add	r2, r2, r3
 380              		.loc 1 214 0
 381 015e F0EE480A 		vmov.f32	s1, s16
 382              		.loc 1 213 0
 383 0162 0133     		adds	r3, r3, #1
 384 0164 02F8300C 		strb	r0, [r2, #-48]
 385              		.loc 1 214 0
 386 0168 6946     		mov	r1, sp
 387 016a 02A8     		add	r0, sp, #8
 388              		.loc 1 213 0
 389 016c 0093     		str	r3, [sp]
 390              		.loc 1 214 0
 391 016e FFF7FEFF 		bl	buffer_append_float32
 392              	.LVL31:
 393              		.loc 1 215 0
 394 0172 6946     		mov	r1, sp
 395 0174 F0EE490A 		vmov.f32	s1, s18
 396 0178 02A8     		add	r0, sp, #8
 397 017a 9DED090A 		vldr.32	s0, [sp, #36]
 398 017e FFF7FEFF 		bl	buffer_append_float32
 399              	.LVL32:
ARM GAS  C:\Users\CFAR\AppData\Local\Temp\ccTpuxCm.s 			page 8


 400              		.loc 1 216 0
 401 0182 6946     		mov	r1, sp
 402 0184 F0EE490A 		vmov.f32	s1, s18
 403 0188 02A8     		add	r0, sp, #8
 404 018a 9DED0A0A 		vldr.32	s0, [sp, #40]
 405 018e FFF7FEFF 		bl	buffer_append_float32
 406              	.LVL33:
 407              		.loc 1 217 0
 408 0192 FFF7FEFF 		bl	mc_interface_get_tot_current_directional_filtered
 409              	.LVL34:
 410 0196 F0EE409A 		vmov.f32	s19, s0
 411              		.loc 1 218 0
 412 019a FFF7FEFF 		bl	mc_interface_get_configuration
 413              	.LVL35:
 414 019e D0ED018A 		vldr.32	s17, [r0, #4]
 415              		.loc 1 219 0
 416 01a2 FFF7FEFF 		bl	mc_interface_get_configuration
 417              	.LVL36:
 418 01a6 90ED197A 		vldr.32	s14, [r0, #100]
 419              		.loc 1 217 0
 420 01aa 0099     		ldr	r1, [sp]
 421              		.loc 1 221 0
 422 01ac 2268     		ldr	r2, [r4]
 423              		.loc 1 218 0
 424 01ae 28EE877A 		vmul.f32	s14, s17, s14
 425              		.loc 1 217 0
 426 01b2 0EAB     		add	r3, sp, #56
 427 01b4 C9EE877A 		vdiv.f32	s15, s19, s14
 428 01b8 5818     		adds	r0, r3, r1
 429 01ba 0131     		adds	r1, r1, #1
 430 01bc 0091     		str	r1, [sp]
 431              		.loc 1 219 0
 432 01be 67EE8A7A 		vmul.f32	s15, s15, s20
 433              		.loc 1 217 0
 434 01c2 FDEEE77A 		vcvt.s32.f32	s15, s15
 435 01c6 17EE903A 		vmov	r3, s15	@ int
 436 01ca 00F8303C 		strb	r3, [r0, #-48]
 437              		.loc 1 221 0
 438 01ce D2B1     		cbz	r2, .L24
 439              	.L12:
 440              		.loc 1 225 0
 441 01d0 0023     		movs	r3, #0
 442 01d2 2B60     		str	r3, [r5]
 443 01d4 37E7     		b	.L11
 444              	.L17:
 445              	.LBE40:
 446              		.loc 1 192 0
 447 01d6 0E4A     		ldr	r2, .L25
 448 01d8 0023     		movs	r3, #0
 449 01da 1370     		strb	r3, [r2]
 450              		.loc 1 258 0
 451 01dc 0FB0     		add	sp, sp, #60
 452              		.cfi_remember_state
 453              		.cfi_def_cfa_offset 60
 454              		@ sp needed
 455 01de BDEC068B 		vldm	sp!, {d8-d10}
 456              		.cfi_restore 84
ARM GAS  C:\Users\CFAR\AppData\Local\Temp\ccTpuxCm.s 			page 9


 457              		.cfi_restore 85
 458              		.cfi_restore 82
 459              		.cfi_restore 83
 460              		.cfi_restore 80
 461              		.cfi_restore 81
 462              		.cfi_def_cfa_offset 36
 463 01e2 BDE8F08F 		pop	{r4, r5, r6, r7, r8, r9, r10, fp, pc}
 464              	.L15:
 465              		.cfi_restore_state
 466              	.LBB41:
 467              	.LBB39:
 468              		.loc 1 245 0 discriminator 2
 469 01e6 FFF7FEFF 		bl	app_get_configuration
 470              	.LVL37:
 471 01ea D830     		adds	r0, r0, #216
 472 01ec 07C8     		ldm	r0, {r0, r1, r2}
 473 01ee 0DF11C0C 		add	ip, sp, #28
 474 01f2 ACE80300 		stmia	ip!, {r0, r1}
 475              		.loc 1 246 0 discriminator 2
 476 01f6 0DF11C0B 		add	fp, sp, #28
 477 01fa 5846     		mov	r0, fp
 478              		.loc 1 245 0 discriminator 2
 479 01fc ACF80020 		strh	r2, [ip]	@ movhi
 480              		.loc 1 246 0 discriminator 2
 481 0200 FFF7FEFF 		bl	rfhelp_update_conf
 482              	.LVL38:
 483 0204 4FE7     		b	.L16
 484              	.L24:
 485              	.LBE39:
 486              	.LBE41:
 487              	.LBB42:
 488              		.loc 1 222 0
 489 0206 02A8     		add	r0, sp, #8
 490 0208 FFF7FEFF 		bl	rf_tx_wrapper
 491              	.LVL39:
 492 020c E0E7     		b	.L12
 493              	.L26:
 494 020e 00BF     		.align	2
 495              	.L25:
 496 0210 00000000 		.word	.LANCHOR2
 497 0214 00000000 		.word	.LANCHOR3
 498 0218 00000000 		.word	.LC0
 499 021c 00000000 		.word	.LANCHOR4
 500 0220 00000000 		.word	.LANCHOR7
 501 0224 00000000 		.word	.LANCHOR5
 502 0228 00000000 		.word	0
 503 022c 00007A44 		.word	1148846080
 504 0230 00401C46 		.word	1176256512
 505 0234 0000C842 		.word	1120403456
 506 0238 00000000 		.word	.LANCHOR0
 507 023c 00000000 		.word	ch
 508 0240 00000000 		.word	.LANCHOR8
 509 0244 00000000 		.word	.LANCHOR6
 510              	.LBE42:
 511              		.cfi_endproc
 512              	.LFE224:
 513              		.size	tx_thread, .-tx_thread
ARM GAS  C:\Users\CFAR\AppData\Local\Temp\ccTpuxCm.s 			page 10


 514              		.section	.text.nrf_driver_send_buffer,"ax",%progbits
 515              		.align	1
 516              		.p2align 4,,15
 517              		.global	nrf_driver_send_buffer
 518              		.syntax unified
 519              		.thumb
 520              		.thumb_func
 521              		.fpu fpv4-sp-d16
 522              		.type	nrf_driver_send_buffer, %function
 523              	nrf_driver_send_buffer:
 524              	.LFB226:
 525              		.loc 1 313 0
 526              		.cfi_startproc
 527              		@ args = 0, pretend = 0, frame = 40
 528              		@ frame_needed = 0, uses_anonymous_args = 0
 529              	.LVL40:
 530 0000 2DE9F04F 		push	{r4, r5, r6, r7, r8, r9, r10, fp, lr}
 531              		.cfi_def_cfa_offset 36
 532              		.cfi_offset 4, -36
 533              		.cfi_offset 5, -32
 534              		.cfi_offset 6, -28
 535              		.cfi_offset 7, -24
 536              		.cfi_offset 8, -20
 537              		.cfi_offset 9, -16
 538              		.cfi_offset 10, -12
 539              		.cfi_offset 11, -8
 540              		.cfi_offset 14, -4
 541              		.loc 1 316 0
 542 0004 1829     		cmp	r1, #24
 543              		.loc 1 313 0
 544 0006 8BB0     		sub	sp, sp, #44
 545              		.cfi_def_cfa_offset 80
 546              		.loc 1 313 0
 547 0008 8846     		mov	r8, r1
 548 000a 0646     		mov	r6, r0
 549              		.loc 1 316 0
 550 000c 62D9     		bls	.L41
 551              	.LVL41:
 552              	.LBB43:
 553              		.loc 1 324 0
 554 000e 0021     		movs	r1, #0
 555              	.LVL42:
 556              	.LBB44:
 557              	.LBB45:
 558              		.loc 1 346 0
 559 0010 8A46     		mov	r10, r1
 560              	.LBE45:
 561              	.LBE44:
 562              		.loc 1 325 0
 563 0012 A8F11405 		sub	r5, r8, #20
 564              	.LVL43:
 565 0016 5D4F     		ldr	r7, .L44
 566              	.LBB49:
 567              	.LBB46:
 568              		.loc 1 335 0
 569 0018 4FF00309 		mov	r9, #3
 570 001c 02E0     		b	.L30
ARM GAS  C:\Users\CFAR\AppData\Local\Temp\ccTpuxCm.s 			page 11


 571              	.LVL44:
 572              	.L34:
 573              		.loc 1 328 0
 574 001e B4F58A7F 		cmp	r4, #276
 575 0022 6CD0     		beq	.L42
 576              	.LVL45:
 577              	.L30:
 578              		.loc 1 332 0
 579 0024 01F11704 		add	r4, r1, #23
 580              	.LVL46:
 581 0028 E3B2     		uxtb	r3, r4
 582              		.loc 1 336 0
 583 002a A3F11702 		sub	r2, r3, #23
 584              		.loc 1 338 0
 585 002e A542     		cmp	r5, r4
 586              		.loc 1 335 0
 587 0030 8DF80C90 		strb	r9, [sp, #12]
 588 0034 3144     		add	r1, r1, r6
 589              	.LVL47:
 590              		.loc 1 336 0
 591 0036 8DF80D20 		strb	r2, [sp, #13]
 592              		.loc 1 338 0
 593 003a C0F09980 		bcc	.L32
 594              		.loc 1 339 0
 595 003e 0B68     		ldr	r3, [r1]	@ unaligned
 596 0040 8A68     		ldr	r2, [r1, #8]	@ unaligned
 597 0042 CDF80E30 		str	r3, [sp, #14]	@ unaligned
 598 0046 4B68     		ldr	r3, [r1, #4]	@ unaligned
 599 0048 D1F80CC0 		ldr	ip, [r1, #12]	@ unaligned
 600 004c 888A     		ldrh	r0, [r1, #20]	@ unaligned
 601 004e CDF81230 		str	r3, [sp, #18]	@ unaligned
 602 0052 CDF81620 		str	r2, [sp, #22]	@ unaligned
 603 0056 0B69     		ldr	r3, [r1, #16]	@ unaligned
 604 0058 8A7D     		ldrb	r2, [r1, #22]	@ zero_extendqisi2
 605 005a CDF81AC0 		str	ip, [sp, #26]	@ unaligned
 606 005e CDF81E30 		str	r3, [sp, #30]	@ unaligned
 607 0062 ADF82200 		strh	r0, [sp, #34]	@ unaligned
 608 0066 8DF82420 		strb	r2, [sp, #36]
 609 006a 1921     		movs	r1, #25
 610              	.LVL48:
 611              	.L33:
 612              		.loc 1 345 0 discriminator 2
 613 006c 03A8     		add	r0, sp, #12
 614 006e FFF7FEFF 		bl	rf_tx_wrapper
 615              	.LVL49:
 616              	.LBE46:
 617              		.loc 1 327 0 discriminator 2
 618 0072 A542     		cmp	r5, r4
 619              	.LBB47:
 620              		.loc 1 346 0 discriminator 2
 621 0074 C7F800A0 		str	r10, [r7]
 622 0078 2146     		mov	r1, r4
 623              	.LBE47:
 624              		.loc 1 327 0 discriminator 2
 625 007a D0D8     		bhi	.L34
 626              	.LVL50:
 627              	.L35:
ARM GAS  C:\Users\CFAR\AppData\Local\Temp\ccTpuxCm.s 			page 12


 628              	.LBE49:
 629              		.loc 1 368 0
 630 007c 4FEA1823 		lsr	r3, r8, #8
 631              		.loc 1 367 0
 632 0080 0522     		movs	r2, #5
 633              		.loc 1 370 0
 634 0082 4146     		mov	r1, r8
 635 0084 3046     		mov	r0, r6
 636              		.loc 1 373 0
 637 0086 3544     		add	r5, r5, r6
 638              	.LVL51:
 639              		.loc 1 367 0
 640 0088 8DF80C20 		strb	r2, [sp, #12]
 641              	.LVL52:
 642              		.loc 1 368 0
 643 008c 8DF80D30 		strb	r3, [sp, #13]
 644              	.LVL53:
 645              		.loc 1 369 0
 646 0090 8DF80E80 		strb	r8, [sp, #14]
 647              		.loc 1 370 0
 648 0094 FFF7FEFF 		bl	crc16
 649              	.LVL54:
 650              		.loc 1 373 0
 651 0098 2B68     		ldr	r3, [r5]	@ unaligned
 652 009a 6968     		ldr	r1, [r5, #4]	@ unaligned
 653 009c CDF81130 		str	r3, [sp, #17]	@ unaligned
 654              		.loc 1 370 0
 655 00a0 0246     		mov	r2, r0
 656              	.LVL55:
 657              		.loc 1 371 0
 658 00a2 030A     		lsrs	r3, r0, #8
 659              		.loc 1 372 0
 660 00a4 8DF81020 		strb	r2, [sp, #16]
 661              		.loc 1 373 0
 662 00a8 AC68     		ldr	r4, [r5, #8]	@ unaligned
 663              		.loc 1 371 0
 664 00aa 8DF80F30 		strb	r3, [sp, #15]
 665              	.LVL56:
 666              		.loc 1 373 0
 667 00ae EA68     		ldr	r2, [r5, #12]	@ unaligned
 668 00b0 2B69     		ldr	r3, [r5, #16]	@ unaligned
 669 00b2 CDF81510 		str	r1, [sp, #21]	@ unaligned
 670              		.loc 1 376 0
 671 00b6 03A8     		add	r0, sp, #12
 672              	.LVL57:
 673 00b8 1921     		movs	r1, #25
 674              		.loc 1 373 0
 675 00ba CDF82130 		str	r3, [sp, #33]	@ unaligned
 676              	.LVL58:
 677 00be CDF81940 		str	r4, [sp, #25]	@ unaligned
 678 00c2 CDF81D20 		str	r2, [sp, #29]	@ unaligned
 679              		.loc 1 376 0
 680 00c6 FFF7FEFF 		bl	rf_tx_wrapper
 681              	.LVL59:
 682              		.loc 1 377 0
 683 00ca 0023     		movs	r3, #0
 684 00cc 3B60     		str	r3, [r7]
ARM GAS  C:\Users\CFAR\AppData\Local\Temp\ccTpuxCm.s 			page 13


 685              	.LBE43:
 686              		.loc 1 379 0
 687 00ce 0BB0     		add	sp, sp, #44
 688              		.cfi_remember_state
 689              		.cfi_def_cfa_offset 36
 690              		@ sp needed
 691 00d0 BDE8F08F 		pop	{r4, r5, r6, r7, r8, r9, r10, fp, pc}
 692              	.LVL60:
 693              	.L41:
 694              		.cfi_restore_state
 695              	.LBB55:
 696              		.loc 1 318 0
 697 00d4 0AAC     		add	r4, sp, #40
 698 00d6 0623     		movs	r3, #6
 699 00d8 04F81C3D 		strb	r3, [r4, #-28]!
 700              		.loc 1 319 0
 701 00dc 4246     		mov	r2, r8
 702 00de 0146     		mov	r1, r0
 703              	.LVL61:
 704 00e0 0DF10D00 		add	r0, sp, #13
 705              	.LVL62:
 706 00e4 FFF7FEFF 		bl	memcpy
 707              	.LVL63:
 708              		.loc 1 321 0
 709 00e8 2046     		mov	r0, r4
 710 00ea 08F10101 		add	r1, r8, #1
 711              	.LVL64:
 712 00ee FFF7FEFF 		bl	rf_tx_wrapper
 713              	.LVL65:
 714              		.loc 1 322 0
 715 00f2 264B     		ldr	r3, .L44
 716 00f4 0022     		movs	r2, #0
 717 00f6 1A60     		str	r2, [r3]
 718              	.LBE55:
 719              		.loc 1 379 0
 720 00f8 0BB0     		add	sp, sp, #44
 721              		.cfi_remember_state
 722              		.cfi_def_cfa_offset 36
 723              		@ sp needed
 724 00fa BDE8F08F 		pop	{r4, r5, r6, r7, r8, r9, r10, fp, pc}
 725              	.LVL66:
 726              	.L42:
 727              		.cfi_restore_state
 728 00fe A6F1160B 		sub	fp, r6, #22
 729              	.LBB56:
 730              	.LBB50:
 731              	.LBB51:
 732              		.loc 1 351 0
 733 0102 4FF0040A 		mov	r10, #4
 734 0106 05F11609 		add	r9, r5, #22
 735 010a 19E0     		b	.L31
 736              	.LVL67:
 737              	.L43:
 738              		.loc 1 356 0
 739 010c 0B68     		ldr	r3, [r1]	@ unaligned
 740 010e 4A68     		ldr	r2, [r1, #4]	@ unaligned
 741 0110 CDF80F30 		str	r3, [sp, #15]	@ unaligned
ARM GAS  C:\Users\CFAR\AppData\Local\Temp\ccTpuxCm.s 			page 14


 742 0114 8B68     		ldr	r3, [r1, #8]	@ unaligned
 743 0116 C868     		ldr	r0, [r1, #12]	@ unaligned
 744 0118 CDF81320 		str	r2, [sp, #19]	@ unaligned
 745 011c CDF81730 		str	r3, [sp, #23]	@ unaligned
 746 0120 8A8A     		ldrh	r2, [r1, #20]	@ unaligned
 747 0122 0B69     		ldr	r3, [r1, #16]	@ unaligned
 748 0124 CDF81B00 		str	r0, [sp, #27]	@ unaligned
 749 0128 CDF81F30 		str	r3, [sp, #31]	@ unaligned
 750 012c ADF82320 		strh	r2, [sp, #35]	@ unaligned
 751 0130 1921     		movs	r1, #25
 752              	.LVL68:
 753              	.L37:
 754              		.loc 1 362 0 discriminator 2
 755 0132 03A8     		add	r0, sp, #12
 756 0134 FFF7FEFF 		bl	rf_tx_wrapper
 757              	.LVL69:
 758              		.loc 1 363 0 discriminator 2
 759 0138 0023     		movs	r3, #0
 760              	.LBE51:
 761              		.loc 1 349 0 discriminator 2
 762 013a AC42     		cmp	r4, r5
 763              	.LBB52:
 764              		.loc 1 363 0 discriminator 2
 765 013c 3B60     		str	r3, [r7]
 766              	.LVL70:
 767              	.LBE52:
 768              		.loc 1 349 0 discriminator 2
 769 013e 9DD2     		bcs	.L35
 770              	.LVL71:
 771              	.L31:
 772              	.LBB53:
 773              		.loc 1 352 0
 774 0140 230A     		lsrs	r3, r4, #8
 775              		.loc 1 353 0
 776 0142 8DF80E40 		strb	r4, [sp, #14]
 777              		.loc 1 355 0
 778 0146 1634     		adds	r4, r4, #22
 779              	.LVL72:
 780 0148 AC42     		cmp	r4, r5
 781              		.loc 1 352 0
 782 014a 8DF80D30 		strb	r3, [sp, #13]
 783              		.loc 1 351 0
 784 014e 8DF80CA0 		strb	r10, [sp, #12]
 785 0152 0BEB0401 		add	r1, fp, r4
 786 0156 A9EB0403 		sub	r3, r9, r4
 787              		.loc 1 355 0
 788 015a D7D9     		bls	.L43
 789 015c DBB2     		uxtb	r3, r3
 790              	.LVL73:
 791              		.loc 1 359 0
 792 015e 1A46     		mov	r2, r3
 793 0160 0DF10F00 		add	r0, sp, #15
 794 0164 0193     		str	r3, [sp, #4]
 795 0166 FFF7FEFF 		bl	memcpy
 796              	.LVL74:
 797 016a 019B     		ldr	r3, [sp, #4]
 798 016c D91C     		adds	r1, r3, #3
ARM GAS  C:\Users\CFAR\AppData\Local\Temp\ccTpuxCm.s 			page 15


 799 016e E0E7     		b	.L37
 800              	.LVL75:
 801              	.L32:
 802 0170 C3F1170B 		rsb	fp, r3, #23
 803 0174 AB44     		add	fp, fp, r5
 804 0176 5FFA8BFB 		uxtb	fp, fp
 805              	.LVL76:
 806              	.LBE53:
 807              	.LBE50:
 808              	.LBB54:
 809              	.LBB48:
 810              		.loc 1 342 0
 811 017a 5A46     		mov	r2, fp
 812 017c 0DF10E00 		add	r0, sp, #14
 813 0180 FFF7FEFF 		bl	memcpy
 814              	.LVL77:
 815 0184 0BF10201 		add	r1, fp, #2
 816 0188 70E7     		b	.L33
 817              	.L45:
 818 018a 00BF     		.align	2
 819              	.L44:
 820 018c 00000000 		.word	.LANCHOR4
 821              	.LBE48:
 822              	.LBE54:
 823              	.LBE56:
 824              		.cfi_endproc
 825              	.LFE226:
 826              		.size	nrf_driver_send_buffer, .-nrf_driver_send_buffer
 827              		.section	.text.nrf_driver_stop.part.1,"ax",%progbits
 828              		.align	1
 829              		.p2align 4,,15
 830              		.syntax unified
 831              		.thumb
 832              		.thumb_func
 833              		.fpu fpv4-sp-d16
 834              		.type	nrf_driver_stop.part.1, %function
 835              	nrf_driver_stop.part.1:
 836              	.LFB232:
 837              		.loc 1 107 0
 838              		.cfi_startproc
 839              		@ args = 0, pretend = 0, frame = 0
 840              		@ frame_needed = 0, uses_anonymous_args = 0
 841 0000 38B5     		push	{r3, r4, r5, lr}
 842              		.cfi_def_cfa_offset 16
 843              		.cfi_offset 3, -16
 844              		.cfi_offset 4, -12
 845              		.cfi_offset 5, -8
 846              		.cfi_offset 14, -4
 847              		.loc 1 112 0
 848 0002 0B4C     		ldr	r4, .L55
 849 0004 2378     		ldrb	r3, [r4]	@ zero_extendqisi2
 850 0006 83B9     		cbnz	r3, .L54
 851              	.L47:
 852              		.loc 1 116 0
 853 0008 0A49     		ldr	r1, .L55+4
 854              		.loc 1 117 0
 855 000a 0B4A     		ldr	r2, .L55+8
ARM GAS  C:\Users\CFAR\AppData\Local\Temp\ccTpuxCm.s 			page 16


 856 000c 0B4D     		ldr	r5, .L55+12
 857              		.loc 1 116 0
 858 000e 0123     		movs	r3, #1
 859 0010 0B70     		strb	r3, [r1]
 860              		.loc 1 117 0
 861 0012 1370     		strb	r3, [r2]
 862 0014 01E0     		b	.L48
 863              	.L49:
 864              		.loc 1 120 0
 865 0016 FFF7FEFF 		bl	chThdSleep
 866              	.LVL78:
 867              	.L48:
 868              		.loc 1 119 0
 869 001a 2378     		ldrb	r3, [r4]	@ zero_extendqisi2
 870              		.loc 1 120 0
 871 001c 0A20     		movs	r0, #10
 872              		.loc 1 119 0
 873 001e 002B     		cmp	r3, #0
 874 0020 F9D1     		bne	.L49
 875 0022 2B78     		ldrb	r3, [r5]	@ zero_extendqisi2
 876 0024 002B     		cmp	r3, #0
 877 0026 F6D1     		bne	.L49
 878              		.loc 1 122 0
 879 0028 38BD     		pop	{r3, r4, r5, pc}
 880              	.L54:
 881              		.loc 1 113 0
 882 002a FFF7FEFF 		bl	rfhelp_stop
 883              	.LVL79:
 884 002e EBE7     		b	.L47
 885              	.L56:
 886              		.align	2
 887              	.L55:
 888 0030 00000000 		.word	.LANCHOR9
 889 0034 00000000 		.word	.LANCHOR3
 890 0038 00000000 		.word	.LANCHOR10
 891 003c 00000000 		.word	.LANCHOR2
 892              		.cfi_endproc
 893              	.LFE232:
 894              		.size	nrf_driver_stop.part.1, .-nrf_driver_stop.part.1
 895              		.section	.text.nrf_driver_init,"ax",%progbits
 896              		.align	1
 897              		.p2align 4,,15
 898              		.global	nrf_driver_init
 899              		.syntax unified
 900              		.thumb
 901              		.thumb_func
 902              		.fpu fpv4-sp-d16
 903              		.type	nrf_driver_init, %function
 904              	nrf_driver_init:
 905              	.LFB219:
 906              		.loc 1 68 0
 907              		.cfi_startproc
 908              		@ args = 0, pretend = 0, frame = 0
 909              		@ frame_needed = 0, uses_anonymous_args = 0
 910 0000 70B5     		push	{r4, r5, r6, lr}
 911              		.cfi_def_cfa_offset 16
 912              		.cfi_offset 4, -16
ARM GAS  C:\Users\CFAR\AppData\Local\Temp\ccTpuxCm.s 			page 17


 913              		.cfi_offset 5, -12
 914              		.cfi_offset 6, -8
 915              		.cfi_offset 14, -4
 916              		.loc 1 69 0
 917 0002 1F4A     		ldr	r2, .L66
 918 0004 1378     		ldrb	r3, [r2]	@ zero_extendqisi2
 919              		.loc 1 68 0
 920 0006 82B0     		sub	sp, sp, #8
 921              		.cfi_def_cfa_offset 24
 922              		.loc 1 69 0
 923 0008 03F0FF04 		and	r4, r3, #255
 924 000c 3BB9     		cbnz	r3, .L58
 925              		.loc 1 73 0
 926 000e 1D4B     		ldr	r3, .L66+4
 927 0010 1C70     		strb	r4, [r3]
 928              	.LBB57:
 929              	.LBB58:
 930              		.loc 1 108 0
 931 0012 1278     		ldrb	r2, [r2]	@ zero_extendqisi2
 932 0014 32B1     		cbz	r2, .L64
 933              	.L59:
 934              	.LBE58:
 935              	.LBE57:
 936              		.loc 1 77 0
 937 0016 FFF7FEFF 		bl	rfhelp_init
 938              	.LVL80:
 939 001a 0446     		mov	r4, r0
 940 001c 40B9     		cbnz	r0, .L65
 941              	.L58:
 942              		.loc 1 96 0
 943 001e 2046     		mov	r0, r4
 944 0020 02B0     		add	sp, sp, #8
 945              		.cfi_remember_state
 946              		.cfi_def_cfa_offset 16
 947              		@ sp needed
 948 0022 70BD     		pop	{r4, r5, r6, pc}
 949              	.L64:
 950              		.cfi_restore_state
 951              	.LBB60:
 952              	.LBB59:
 953              		.loc 1 108 0
 954 0024 1B78     		ldrb	r3, [r3]	@ zero_extendqisi2
 955 0026 002B     		cmp	r3, #0
 956 0028 F5D1     		bne	.L59
 957 002a FFF7FEFF 		bl	nrf_driver_stop.part.1
 958              	.LVL81:
 959 002e F2E7     		b	.L59
 960              	.L65:
 961              	.LBE59:
 962              	.LBE60:
 963              		.loc 1 86 0
 964 0030 1548     		ldr	r0, .L66+8
 965              		.loc 1 88 0
 966 0032 164E     		ldr	r6, .L66+12
 967              		.loc 1 81 0
 968 0034 164B     		ldr	r3, .L66+16
 969              		.loc 1 82 0
ARM GAS  C:\Users\CFAR\AppData\Local\Temp\ccTpuxCm.s 			page 18


 970 0036 174A     		ldr	r2, .L66+20
 971              		.loc 1 83 0
 972 0038 1749     		ldr	r1, .L66+24
 973              		.loc 1 81 0
 974 003a 0025     		movs	r5, #0
 975              		.loc 1 90 0
 976 003c 0095     		str	r5, [sp]
 977              		.loc 1 86 0
 978 003e 0570     		strb	r5, [r0]
 979              		.loc 1 88 0
 980 0040 3570     		strb	r5, [r6]
 981              		.loc 1 85 0
 982 0042 1648     		ldr	r0, .L66+28
 983              		.loc 1 89 0
 984 0044 164E     		ldr	r6, .L66+32
 985              		.loc 1 81 0
 986 0046 1D60     		str	r5, [r3]
 987              		.loc 1 82 0
 988 0048 1560     		str	r5, [r2]
 989              		.loc 1 83 0
 990 004a 0D60     		str	r5, [r1]
 991              		.loc 1 85 0
 992 004c 0560     		str	r5, [r0]
 993              		.loc 1 90 0
 994 004e 154B     		ldr	r3, .L66+36
 995              		.loc 1 89 0
 996 0050 3570     		strb	r5, [r6]
 997              		.loc 1 90 0
 998 0052 3F22     		movs	r2, #63
 999 0054 40F69811 		movw	r1, #2456
 1000 0058 1348     		ldr	r0, .L66+40
 1001 005a FFF7FEFF 		bl	chThdCreateStatic
 1002              	.LVL82:
 1003              		.loc 1 91 0
 1004 005e 0095     		str	r5, [sp]
 1005 0060 124B     		ldr	r3, .L66+44
 1006 0062 1348     		ldr	r0, .L66+48
 1007 0064 3F22     		movs	r2, #63
 1008 0066 4FF46671 		mov	r1, #920
 1009 006a FFF7FEFF 		bl	chThdCreateStatic
 1010              	.LVL83:
 1011              		.loc 1 92 0
 1012 006e 1149     		ldr	r1, .L66+52
 1013              		.loc 1 93 0
 1014 0070 114A     		ldr	r2, .L66+56
 1015              		.loc 1 92 0
 1016 0072 0123     		movs	r3, #1
 1017              		.loc 1 96 0
 1018 0074 2046     		mov	r0, r4
 1019              		.loc 1 92 0
 1020 0076 0B70     		strb	r3, [r1]
 1021              		.loc 1 93 0
 1022 0078 1370     		strb	r3, [r2]
 1023              		.loc 1 96 0
 1024 007a 02B0     		add	sp, sp, #8
 1025              		.cfi_def_cfa_offset 16
 1026              		@ sp needed
ARM GAS  C:\Users\CFAR\AppData\Local\Temp\ccTpuxCm.s 			page 19


 1027 007c 70BD     		pop	{r4, r5, r6, pc}
 1028              	.L67:
 1029 007e 00BF     		.align	2
 1030              	.L66:
 1031 0080 00000000 		.word	.LANCHOR11
 1032 0084 00000000 		.word	.LANCHOR0
 1033 0088 00000000 		.word	.LANCHOR5
 1034 008c 00000000 		.word	.LANCHOR10
 1035 0090 00000000 		.word	.LANCHOR4
 1036 0094 00000000 		.word	.LANCHOR12
 1037 0098 00000000 		.word	.LANCHOR1
 1038 009c 00000000 		.word	.LANCHOR8
 1039 00a0 00000000 		.word	.LANCHOR3
 1040 00a4 00000000 		.word	rx_thread
 1041 00a8 00000000 		.word	.LANCHOR13
 1042 00ac 00000000 		.word	tx_thread
 1043 00b0 00000000 		.word	.LANCHOR14
 1044 00b4 00000000 		.word	.LANCHOR9
 1045 00b8 00000000 		.word	.LANCHOR2
 1046              		.cfi_endproc
 1047              	.LFE219:
 1048              		.size	nrf_driver_init, .-nrf_driver_init
 1049              		.section	.text.nrf_driver_init_ext_nrf,"ax",%progbits
 1050              		.align	1
 1051              		.p2align 4,,15
 1052              		.global	nrf_driver_init_ext_nrf
 1053              		.syntax unified
 1054              		.thumb
 1055              		.thumb_func
 1056              		.fpu fpv4-sp-d16
 1057              		.type	nrf_driver_init_ext_nrf, %function
 1058              	nrf_driver_init_ext_nrf:
 1059              	.LFB220:
 1060              		.loc 1 98 0
 1061              		.cfi_startproc
 1062              		@ args = 0, pretend = 0, frame = 0
 1063              		@ frame_needed = 0, uses_anonymous_args = 0
 1064              		.loc 1 99 0
 1065 0000 0B4A     		ldr	r2, .L75
 1066              		.loc 1 101 0
 1067 0002 0C4B     		ldr	r3, .L75+4
 1068              		.loc 1 99 0
 1069 0004 0121     		movs	r1, #1
 1070 0006 1170     		strb	r1, [r2]
 1071              		.loc 1 101 0
 1072 0008 1B78     		ldrb	r3, [r3]	@ zero_extendqisi2
 1073 000a 03B1     		cbz	r3, .L74
 1074 000c 7047     		bx	lr
 1075              	.L74:
 1076              		.loc 1 98 0
 1077 000e 00B5     		push	{lr}
 1078              		.cfi_def_cfa_offset 4
 1079              		.cfi_offset 14, -4
 1080              		.loc 1 102 0
 1081 0010 0949     		ldr	r1, .L75+8
 1082              		.loc 1 103 0
 1083 0012 0A48     		ldr	r0, .L75+12
ARM GAS  C:\Users\CFAR\AppData\Local\Temp\ccTpuxCm.s 			page 20


 1084              		.loc 1 98 0
 1085 0014 83B0     		sub	sp, sp, #12
 1086              		.cfi_def_cfa_offset 16
 1087 0016 03F0FF02 		and	r2, r3, #255
 1088              		.loc 1 103 0
 1089 001a 0092     		str	r2, [sp]
 1090 001c 084B     		ldr	r3, .L75+16
 1091              		.loc 1 102 0
 1092 001e 0A70     		strb	r2, [r1]
 1093              		.loc 1 103 0
 1094 0020 3F22     		movs	r2, #63
 1095 0022 4FF46671 		mov	r1, #920
 1096 0026 FFF7FEFF 		bl	chThdCreateStatic
 1097              	.LVL84:
 1098              		.loc 1 105 0
 1099 002a 03B0     		add	sp, sp, #12
 1100              		.cfi_def_cfa_offset 4
 1101              		@ sp needed
 1102 002c 5DF804FB 		ldr	pc, [sp], #4
 1103              	.L76:
 1104              		.align	2
 1105              	.L75:
 1106 0030 00000000 		.word	.LANCHOR0
 1107 0034 00000000 		.word	.LANCHOR2
 1108 0038 00000000 		.word	.LANCHOR3
 1109 003c 00000000 		.word	.LANCHOR14
 1110 0040 00000000 		.word	tx_thread
 1111              		.cfi_endproc
 1112              	.LFE220:
 1113              		.size	nrf_driver_init_ext_nrf, .-nrf_driver_init_ext_nrf
 1114              		.section	.text.nrf_driver_stop,"ax",%progbits
 1115              		.align	1
 1116              		.p2align 4,,15
 1117              		.global	nrf_driver_stop
 1118              		.syntax unified
 1119              		.thumb
 1120              		.thumb_func
 1121              		.fpu fpv4-sp-d16
 1122              		.type	nrf_driver_stop, %function
 1123              	nrf_driver_stop:
 1124              	.LFB221:
 1125              		.loc 1 107 0
 1126              		.cfi_startproc
 1127              		@ args = 0, pretend = 0, frame = 0
 1128              		@ frame_needed = 0, uses_anonymous_args = 0
 1129              		@ link register save eliminated.
 1130              		.loc 1 108 0
 1131 0000 044B     		ldr	r3, .L79
 1132 0002 1B78     		ldrb	r3, [r3]	@ zero_extendqisi2
 1133 0004 23B9     		cbnz	r3, .L77
 1134              		.loc 1 108 0 is_stmt 0 discriminator 1
 1135 0006 044B     		ldr	r3, .L79+4
 1136 0008 1B78     		ldrb	r3, [r3]	@ zero_extendqisi2
 1137 000a 0BB9     		cbnz	r3, .L77
 1138 000c FFF7FEBF 		b	nrf_driver_stop.part.1
 1139              	.LVL85:
 1140              	.L77:
ARM GAS  C:\Users\CFAR\AppData\Local\Temp\ccTpuxCm.s 			page 21


 1141              		.loc 1 122 0 is_stmt 1
 1142 0010 7047     		bx	lr
 1143              	.L80:
 1144 0012 00BF     		.align	2
 1145              	.L79:
 1146 0014 00000000 		.word	.LANCHOR11
 1147 0018 00000000 		.word	.LANCHOR0
 1148              		.cfi_endproc
 1149              	.LFE221:
 1150              		.size	nrf_driver_stop, .-nrf_driver_stop
 1151              		.section	.text.nrf_driver_start_pairing,"ax",%progbits
 1152              		.align	1
 1153              		.p2align 4,,15
 1154              		.global	nrf_driver_start_pairing
 1155              		.syntax unified
 1156              		.thumb
 1157              		.thumb_func
 1158              		.fpu fpv4-sp-d16
 1159              		.type	nrf_driver_start_pairing, %function
 1160              	nrf_driver_start_pairing:
 1161              	.LFB222:
 1162              		.loc 1 124 0
 1163              		.cfi_startproc
 1164              		@ args = 0, pretend = 0, frame = 16
 1165              		@ frame_needed = 0, uses_anonymous_args = 0
 1166              	.LVL86:
 1167 0000 30B5     		push	{r4, r5, lr}
 1168              		.cfi_def_cfa_offset 12
 1169              		.cfi_offset 4, -12
 1170              		.cfi_offset 5, -8
 1171              		.cfi_offset 14, -4
 1172              		.loc 1 125 0
 1173 0002 2D4B     		ldr	r3, .L91
 1174 0004 1B78     		ldrb	r3, [r3]	@ zero_extendqisi2
 1175              		.loc 1 124 0
 1176 0006 85B0     		sub	sp, sp, #20
 1177              		.cfi_def_cfa_offset 32
 1178              		.loc 1 125 0
 1179 0008 B3B1     		cbz	r3, .L82
 1180              		.loc 1 126 0
 1181 000a 42F21073 		movw	r3, #10000
 1182              	.LBB61:
 1183              	.LBB62:
 1184              		.loc 3 231 0
 1185 000e 2B4A     		ldr	r2, .L91+4
 1186              	.LBE62:
 1187              	.LBE61:
 1188              		.loc 1 126 0
 1189 0010 2B4D     		ldr	r5, .L91+8
 1190              		.loc 1 128 0
 1191 0012 2C4C     		ldr	r4, .L91+12
 1192              	.LBB64:
 1193              	.LBB63:
 1194              		.loc 3 231 0
 1195 0014 926A     		ldr	r2, [r2, #40]
 1196              	.LBE63:
 1197              	.LBE64:
ARM GAS  C:\Users\CFAR\AppData\Local\Temp\ccTpuxCm.s 			page 22


 1198              		.loc 1 126 0
 1199 0016 2C49     		ldr	r1, .L91+16
 1200 0018 03FB00F0 		mul	r0, r3, r0
 1201              	.LVL87:
 1202 001c 00F2E730 		addw	r0, r0, #999
 1203 0020 A5FB0030 		umull	r3, r0, r5, r0
 1204              		.loc 1 128 0
 1205 0024 2378     		ldrb	r3, [r4]	@ zero_extendqisi2
 1206              		.loc 1 126 0
 1207 0026 02EB9010 		add	r0, r2, r0, lsr #6
 1208 002a 0860     		str	r0, [r1]
 1209              		.loc 1 128 0
 1210 002c 03F0FF02 		and	r2, r3, #255
 1211 0030 002B     		cmp	r3, #0
 1212 0032 34D0     		beq	.L90
 1213              	.L81:
 1214              		.loc 1 163 0
 1215 0034 05B0     		add	sp, sp, #20
 1216              		.cfi_remember_state
 1217              		.cfi_def_cfa_offset 12
 1218              		@ sp needed
 1219 0036 30BD     		pop	{r4, r5, pc}
 1220              	.LVL88:
 1221              	.L82:
 1222              		.cfi_restore_state
 1223              		.loc 1 140 0
 1224 0038 244B     		ldr	r3, .L91+20
 1225 003a 1B78     		ldrb	r3, [r3]	@ zero_extendqisi2
 1226 003c 002B     		cmp	r3, #0
 1227 003e F9D0     		beq	.L81
 1228              		.loc 1 144 0
 1229 0040 42F21073 		movw	r3, #10000
 1230              	.LBB65:
 1231              	.LBB66:
 1232              		.loc 3 231 0
 1233 0044 1D4A     		ldr	r2, .L91+4
 1234              	.LBE66:
 1235              	.LBE65:
 1236              		.loc 1 144 0
 1237 0046 1E4D     		ldr	r5, .L91+8
 1238              		.loc 1 146 0
 1239 0048 1E49     		ldr	r1, .L91+12
 1240              	.LBB68:
 1241              	.LBB67:
 1242              		.loc 3 231 0
 1243 004a 926A     		ldr	r2, [r2, #40]
 1244              	.LBE67:
 1245              	.LBE68:
 1246              		.loc 1 144 0
 1247 004c 1E4C     		ldr	r4, .L91+16
 1248 004e 03FB00F0 		mul	r0, r3, r0
 1249              	.LVL89:
 1250 0052 00F2E730 		addw	r0, r0, #999
 1251 0056 A5FB0030 		umull	r3, r0, r5, r0
 1252              		.loc 1 146 0
 1253 005a 0B78     		ldrb	r3, [r1]	@ zero_extendqisi2
 1254              		.loc 1 144 0
ARM GAS  C:\Users\CFAR\AppData\Local\Temp\ccTpuxCm.s 			page 23


 1255 005c 02EB9010 		add	r0, r2, r0, lsr #6
 1256 0060 2060     		str	r0, [r4]
 1257              		.loc 1 146 0
 1258 0062 03F0FF05 		and	r5, r3, #255
 1259 0066 002B     		cmp	r3, #0
 1260 0068 E4D1     		bne	.L81
 1261              	.LBB69:
 1262              		.loc 1 147 0 discriminator 4
 1263 006a 0124     		movs	r4, #1
 1264 006c 0C70     		strb	r4, [r1]
 1265              		.loc 1 149 0 discriminator 4
 1266 006e FFF7FEFF 		bl	app_get_configuration
 1267              	.LVL90:
 1268 0072 D830     		adds	r0, r0, #216
 1269 0074 07C8     		ldm	r0, {r0, r1, r2}
 1270 0076 01AB     		add	r3, sp, #4
 1271              		.loc 1 158 0 discriminator 4
 1272 0078 04AA     		add	r2, sp, #16
 1273              		.loc 1 149 0 discriminator 4
 1274 007a 03C3     		stmia	r3!, {r0, r1}
 1275              		.loc 1 155 0 discriminator 4
 1276 007c 144B     		ldr	r3, .L91+24
 1277 007e 0293     		str	r3, [sp, #8]
 1278              		.loc 1 151 0 discriminator 4
 1279 0080 8DF80C50 		strb	r5, [sp, #12]
 1280              		.loc 1 158 0 discriminator 4
 1281 0084 02F80C4D 		strb	r4, [r2, #-12]!
 1282              		.loc 1 156 0 discriminator 4
 1283 0088 0323     		movs	r3, #3
 1284              		.loc 1 160 0 discriminator 4
 1285 008a 1046     		mov	r0, r2
 1286              		.loc 1 157 0 discriminator 4
 1287 008c 8DF80D40 		strb	r4, [sp, #13]
 1288              		.loc 1 154 0 discriminator 4
 1289 0090 8DF80640 		strb	r4, [sp, #6]
 1290              		.loc 1 156 0 discriminator 4
 1291 0094 8DF80730 		strb	r3, [sp, #7]
 1292              		.loc 1 160 0 discriminator 4
 1293 0098 FFF7FEFF 		bl	rfhelp_update_conf
 1294              	.LVL91:
 1295 009c CAE7     		b	.L81
 1296              	.L90:
 1297              	.LBE69:
 1298              	.LBB70:
 1299              		.loc 1 132 0
 1300 009e 0D4B     		ldr	r3, .L91+28
 1301              		.loc 1 135 0
 1302 00a0 8DF80820 		strb	r2, [sp, #8]
 1303              		.loc 1 129 0
 1304 00a4 0125     		movs	r5, #1
 1305              		.loc 1 137 0
 1306 00a6 0521     		movs	r1, #5
 1307 00a8 01A8     		add	r0, sp, #4
 1308              		.loc 1 129 0
 1309 00aa 2570     		strb	r5, [r4]
 1310              		.loc 1 132 0
 1311 00ac 0193     		str	r3, [sp, #4]
ARM GAS  C:\Users\CFAR\AppData\Local\Temp\ccTpuxCm.s 			page 24


 1312              		.loc 1 137 0
 1313 00ae FFF7FEFF 		bl	commands_send_packet_nrf
 1314              	.LVL92:
 1315              	.LBE70:
 1316              		.loc 1 163 0
 1317 00b2 05B0     		add	sp, sp, #20
 1318              		.cfi_def_cfa_offset 12
 1319              		@ sp needed
 1320 00b4 30BD     		pop	{r4, r5, pc}
 1321              	.L92:
 1322 00b6 00BF     		.align	2
 1323              	.L91:
 1324 00b8 00000000 		.word	.LANCHOR0
 1325 00bc 00000000 		.word	ch
 1326 00c0 D34D6210 		.word	274877907
 1327 00c4 00000000 		.word	.LANCHOR5
 1328 00c8 00000000 		.word	.LANCHOR8
 1329 00cc 00000000 		.word	.LANCHOR9
 1330 00d0 0343C6C5 		.word	-976862461
 1331 00d4 3543C6C5 		.word	-976862411
 1332              		.cfi_endproc
 1333              	.LFE222:
 1334              		.size	nrf_driver_start_pairing, .-nrf_driver_start_pairing
 1335              		.section	.text.nrf_driver_process_packet,"ax",%progbits
 1336              		.align	1
 1337              		.p2align 4,,15
 1338              		.global	nrf_driver_process_packet
 1339              		.syntax unified
 1340              		.thumb
 1341              		.thumb_func
 1342              		.fpu fpv4-sp-d16
 1343              		.type	nrf_driver_process_packet, %function
 1344              	nrf_driver_process_packet:
 1345              	.LFB227:
 1346              		.loc 1 381 0
 1347              		.cfi_startproc
 1348              		@ args = 0, pretend = 0, frame = 456
 1349              		@ frame_needed = 0, uses_anonymous_args = 0
 1350              	.LVL93:
 1351 0000 F0B5     		push	{r4, r5, r6, r7, lr}
 1352              		.cfi_def_cfa_offset 20
 1353              		.cfi_offset 4, -20
 1354              		.cfi_offset 5, -16
 1355              		.cfi_offset 6, -12
 1356              		.cfi_offset 7, -8
 1357              		.cfi_offset 14, -4
 1358              		.loc 1 382 0
 1359 0002 0378     		ldrb	r3, [r0]	@ zero_extendqisi2
 1360              	.LVL94:
 1361              		.loc 1 381 0
 1362 0004 F3B0     		sub	sp, sp, #460
 1363              		.cfi_def_cfa_offset 480
 1364              		.loc 1 381 0
 1365 0006 0446     		mov	r4, r0
 1366              		.loc 1 387 0
 1367 0008 7748     		ldr	r0, .L114
 1368              	.LVL95:
ARM GAS  C:\Users\CFAR\AppData\Local\Temp\ccTpuxCm.s 			page 25


 1369              		.loc 1 384 0
 1370 000a 0026     		movs	r6, #0
 1371              		.loc 1 387 0
 1372 000c 4FF4FA75 		mov	r5, #500
 1373              		.loc 1 389 0
 1374 0010 013B     		subs	r3, r3, #1
 1375              	.LVL96:
 1376              		.loc 1 384 0
 1377 0012 0296     		str	r6, [sp, #8]
 1378              		.loc 1 387 0
 1379 0014 0560     		str	r5, [r0]
 1380              		.loc 1 389 0
 1381 0016 062B     		cmp	r3, #6
 1382 0018 59D8     		bhi	.L93
 1383 001a DFE803F0 		tbb	[pc, r3]
 1384              	.L96:
 1385 001e 6B       		.byte	(.L95-.L96)/2
 1386 001f 58       		.byte	(.L93-.L96)/2
 1387 0020 A7       		.byte	(.L97-.L96)/2
 1388 0021 B1       		.byte	(.L98-.L96)/2
 1389 0022 BD       		.byte	(.L99-.L96)/2
 1390 0023 5A       		.byte	(.L100-.L96)/2
 1391 0024 04       		.byte	(.L101-.L96)/2
 1392 0025 00       		.p2align 1
 1393              	.L101:
 1394              	.LBB71:
 1395              		.loc 1 469 0
 1396 0026 714B     		ldr	r3, .L114+4
 1397              	.LVL97:
 1398 0028 1A78     		ldrb	r2, [r3]	@ zero_extendqisi2
 1399              		.loc 1 467 0
 1400 002a 0125     		movs	r5, #1
 1401 002c 0295     		str	r5, [sp, #8]
 1402              		.loc 1 469 0
 1403 002e 002A     		cmp	r2, #0
 1404 0030 4DD0     		beq	.L93
 1405              		.loc 1 473 0
 1406 0032 0022     		movs	r2, #0
 1407 0034 1A70     		strb	r2, [r3]
 1408              		.loc 1 475 0
 1409 0036 FFF7FEFF 		bl	app_get_configuration
 1410              	.LVL98:
 1411 003a 4FF4DA72 		mov	r2, #436
 1412 003e 0146     		mov	r1, r0
 1413 0040 05A8     		add	r0, sp, #20
 1414 0042 FFF7FEFF 		bl	memcpy
 1415              	.LVL99:
 1416              		.loc 1 476 0
 1417 0046 029B     		ldr	r3, [sp, #8]
 1418              		.loc 1 486 0
 1419 0048 694A     		ldr	r2, .L114+8
 1420              		.loc 1 476 0
 1421 004a E15C     		ldrb	r1, [r4, r3]	@ zero_extendqisi2
 1422              		.loc 1 486 0
 1423 004c 1778     		ldrb	r7, [r2]	@ zero_extendqisi2
 1424              		.loc 1 480 0
 1425 004e 8DF8EE50 		strb	r5, [sp, #238]
ARM GAS  C:\Users\CFAR\AppData\Local\Temp\ccTpuxCm.s 			page 26


 1426              		.loc 1 477 0
 1427 0052 1C44     		add	r4, r4, r3
 1428              	.LVL100:
 1429              		.loc 1 479 0
 1430 0054 0433     		adds	r3, r3, #4
 1431              		.loc 1 477 0
 1432 0056 6678     		ldrb	r6, [r4, #1]	@ zero_extendqisi2
 1433              		.loc 1 478 0
 1434 0058 A278     		ldrb	r2, [r4, #2]	@ zero_extendqisi2
 1435              		.loc 1 479 0
 1436 005a E078     		ldrb	r0, [r4, #3]	@ zero_extendqisi2
 1437 005c 0293     		str	r3, [sp, #8]
 1438              		.loc 1 481 0
 1439 005e 0323     		movs	r3, #3
 1440              		.loc 1 483 0
 1441 0060 8DF8F550 		strb	r5, [sp, #245]
 1442              		.loc 1 484 0
 1443 0064 8DF8EC50 		strb	r5, [sp, #236]
 1444              		.loc 1 476 0
 1445 0068 8DF8F210 		strb	r1, [sp, #242]
 1446              		.loc 1 477 0
 1447 006c 8DF8F360 		strb	r6, [sp, #243]
 1448              		.loc 1 478 0
 1449 0070 8DF8F420 		strb	r2, [sp, #244]
 1450              		.loc 1 479 0
 1451 0074 8DF8F100 		strb	r0, [sp, #241]
 1452              		.loc 1 481 0
 1453 0078 8DF8F030 		strb	r3, [sp, #240]
 1454              		.loc 1 482 0
 1455 007c 8DF8EF30 		strb	r3, [sp, #239]
 1456              	.LBB72:
 1457              		.loc 1 488 0
 1458 0080 03AC     		add	r4, sp, #12
 1459              	.LBE72:
 1460              		.loc 1 486 0
 1461 0082 77B1     		cbz	r7, .L105
 1462              	.LBB73:
 1463              		.loc 1 488 0
 1464 0084 3523     		movs	r3, #53
 1465              		.loc 1 489 0
 1466 0086 8DF80D00 		strb	r0, [sp, #13]
 1467              		.loc 1 490 0
 1468 008a 8DF80E10 		strb	r1, [sp, #14]
 1469              		.loc 1 493 0
 1470 008e 2046     		mov	r0, r4
 1471 0090 0521     		movs	r1, #5
 1472              		.loc 1 491 0
 1473 0092 8DF80F60 		strb	r6, [sp, #15]
 1474              		.loc 1 492 0
 1475 0096 8DF81020 		strb	r2, [sp, #16]
 1476              		.loc 1 488 0
 1477 009a 8DF80C30 		strb	r3, [sp, #12]
 1478              		.loc 1 493 0
 1479 009e FFF7FEFF 		bl	commands_send_packet_nrf
 1480              	.LVL101:
 1481              	.L105:
 1482              	.LBE73:
ARM GAS  C:\Users\CFAR\AppData\Local\Temp\ccTpuxCm.s 			page 27


 1483              		.loc 1 496 0
 1484 00a2 544D     		ldr	r5, .L114+12
 1485 00a4 0123     		movs	r3, #1
 1486              		.loc 1 497 0
 1487 00a6 05A8     		add	r0, sp, #20
 1488              		.loc 1 496 0
 1489 00a8 2B70     		strb	r3, [r5]
 1490              		.loc 1 497 0
 1491 00aa FFF7FEFF 		bl	conf_general_store_app_configuration
 1492              	.LVL102:
 1493              		.loc 1 498 0
 1494 00ae 05A8     		add	r0, sp, #20
 1495 00b0 FFF7FEFF 		bl	app_set_configuration
 1496              	.LVL103:
 1497              		.loc 1 500 0
 1498 00b4 05A9     		add	r1, sp, #20
 1499 00b6 1120     		movs	r0, #17
 1500 00b8 FFF7FEFF 		bl	commands_send_appconf
 1501              	.LVL104:
 1502              		.loc 1 503 0
 1503 00bc 40F22513 		movw	r3, #293
 1504 00c0 2380     		strh	r3, [r4]	@ movhi
 1505              		.loc 1 505 0
 1506 00c2 2046     		mov	r0, r4
 1507 00c4 0221     		movs	r1, #2
 1508 00c6 FFF7FEFF 		bl	commands_send_packet
 1509              	.LVL105:
 1510              		.loc 1 507 0
 1511 00ca 0023     		movs	r3, #0
 1512 00cc 2B70     		strb	r3, [r5]
 1513              	.L93:
 1514              	.LBE71:
 1515              		.loc 1 513 0
 1516 00ce 73B0     		add	sp, sp, #460
 1517              		.cfi_remember_state
 1518              		.cfi_def_cfa_offset 20
 1519              		@ sp needed
 1520 00d0 F0BD     		pop	{r4, r5, r6, r7, pc}
 1521              	.LVL106:
 1522              	.L100:
 1523              		.cfi_restore_state
 1524              		.loc 1 459 0
 1525 00d2 1420     		movs	r0, #20
 1526 00d4 0191     		str	r1, [sp, #4]
 1527 00d6 FFF7FEFF 		bl	chThdSleep
 1528              	.LVL107:
 1529              		.loc 1 462 0
 1530 00da 0199     		ldr	r1, [sp, #4]
 1531              		.loc 1 461 0
 1532 00dc 454D     		ldr	r5, .L114+12
 1533              		.loc 1 462 0
 1534 00de 464A     		ldr	r2, .L114+16
 1535              		.loc 1 461 0
 1536 00e0 0123     		movs	r3, #1
 1537              		.loc 1 462 0
 1538 00e2 0139     		subs	r1, r1, #1
 1539 00e4 601C     		adds	r0, r4, #1
ARM GAS  C:\Users\CFAR\AppData\Local\Temp\ccTpuxCm.s 			page 28


 1540              		.loc 1 461 0
 1541 00e6 2B70     		strb	r3, [r5]
 1542              		.loc 1 462 0
 1543 00e8 FFF7FEFF 		bl	commands_process_packet
 1544              	.LVL108:
 1545              		.loc 1 463 0
 1546 00ec 0023     		movs	r3, #0
 1547 00ee 2B70     		strb	r3, [r5]
 1548              		.loc 1 513 0
 1549 00f0 73B0     		add	sp, sp, #460
 1550              		.cfi_remember_state
 1551              		.cfi_def_cfa_offset 20
 1552              		@ sp needed
 1553 00f2 F0BD     		pop	{r4, r5, r6, r7, pc}
 1554              	.LVL109:
 1555              	.L95:
 1556              		.cfi_restore_state
 1557              		.loc 1 398 0
 1558 00f4 E378     		ldrb	r3, [r4, #3]	@ zero_extendqisi2
 1559              	.LVL110:
 1560              		.loc 1 396 0
 1561 00f6 414D     		ldr	r5, .L114+20
 1562 00f8 6278     		ldrb	r2, [r4, #1]	@ zero_extendqisi2
 1563 00fa 2A70     		strb	r2, [r5]
 1564              		.loc 1 399 0
 1565 00fc 03F00101 		and	r1, r3, #1
 1566              	.LVL111:
 1567              		.loc 1 397 0
 1568 0100 A278     		ldrb	r2, [r4, #2]	@ zero_extendqisi2
 1569              		.loc 1 399 0
 1570 0102 A970     		strb	r1, [r5, #2]
 1571              		.loc 1 400 0
 1572 0104 C3F34001 		ubfx	r1, r3, #1, #1
 1573              		.loc 1 397 0
 1574 0108 6A70     		strb	r2, [r5, #1]
 1575              		.loc 1 400 0
 1576 010a E970     		strb	r1, [r5, #3]
 1577              		.loc 1 401 0
 1578 010c C3F38002 		ubfx	r2, r3, #2, #1
 1579              		.loc 1 402 0
 1580 0110 C3F3C001 		ubfx	r1, r3, #3, #1
 1581              		.loc 1 401 0
 1582 0114 2A71     		strb	r2, [r5, #4]
 1583              		.loc 1 403 0
 1584 0116 C3F30013 		ubfx	r3, r3, #4, #1
 1585              	.LVL112:
 1586              		.loc 1 398 0
 1587 011a 0422     		movs	r2, #4
 1588              		.loc 1 402 0
 1589 011c 6971     		strb	r1, [r5, #5]
 1590              		.loc 1 404 0
 1591 011e 2046     		mov	r0, r4
 1592 0120 02A9     		add	r1, sp, #8
 1593              		.loc 1 403 0
 1594 0122 AB71     		strb	r3, [r5, #6]
 1595              		.loc 1 398 0
 1596 0124 0292     		str	r2, [sp, #8]
ARM GAS  C:\Users\CFAR\AppData\Local\Temp\ccTpuxCm.s 			page 29


 1597              		.loc 1 404 0
 1598 0126 FFF7FEFF 		bl	buffer_get_int16
 1599              	.LVL113:
 1600 012a 07EE900A 		vmov	s15, r0	@ int
 1601 012e 9FED347A 		vldr.32	s14, .L114+24
 1602              		.loc 1 406 0
 1603 0132 2B78     		ldrb	r3, [r5]	@ zero_extendqisi2
 1604              		.loc 1 407 0
 1605 0134 6E78     		ldrb	r6, [r5, #1]	@ zero_extendqisi2
 1606              		.loc 1 408 0
 1607 0136 AC78     		ldrb	r4, [r5, #2]	@ zero_extendqisi2
 1608              	.LVL114:
 1609              		.loc 1 409 0
 1610 0138 E978     		ldrb	r1, [r5, #3]	@ zero_extendqisi2
 1611              		.loc 1 410 0
 1612 013a 6A79     		ldrb	r2, [r5, #5]	@ zero_extendqisi2
 1613              		.loc 1 407 0
 1614 013c 0696     		str	r6, [sp, #24]
 1615              		.loc 1 404 0
 1616 013e F8EEE76A 		vcvt.f32.s32	s13, s15
 1617              		.loc 1 406 0
 1618 0142 C3F1FF03 		rsb	r3, r3, #255
 1619              		.loc 1 404 0
 1620 0146 C6EE877A 		vdiv.f32	s15, s13, s14
 1621              		.loc 1 406 0
 1622 014a 0593     		str	r3, [sp, #20]
 1623              		.loc 1 413 0
 1624 014c 05A8     		add	r0, sp, #20
 1625              		.loc 1 411 0
 1626 014e AB79     		ldrb	r3, [r5, #6]	@ zero_extendqisi2
 1627              		.loc 1 408 0
 1628 0150 8DF82840 		strb	r4, [sp, #40]
 1629              		.loc 1 409 0
 1630 0154 8DF82910 		strb	r1, [sp, #41]
 1631              		.loc 1 410 0
 1632 0158 8DF82A20 		strb	r2, [sp, #42]
 1633              		.loc 1 411 0
 1634 015c 8DF82B30 		strb	r3, [sp, #43]
 1635              		.loc 1 404 0
 1636 0160 C5ED027A 		vstr.32	s15, [r5, #8]
 1637              		.loc 1 413 0
 1638 0164 FFF7FEFF 		bl	app_nunchuk_update_output
 1639              	.LVL115:
 1640              		.loc 1 513 0
 1641 0168 73B0     		add	sp, sp, #460
 1642              		.cfi_remember_state
 1643              		.cfi_def_cfa_offset 20
 1644              		@ sp needed
 1645 016a F0BD     		pop	{r4, r5, r6, r7, pc}
 1646              	.LVL116:
 1647              	.L97:
 1648              		.cfi_restore_state
 1649              		.loc 1 417 0
 1650 016c 2548     		ldr	r0, .L114+28
 1651 016e 6378     		ldrb	r3, [r4, #1]	@ zero_extendqisi2
 1652              	.LVL117:
 1653 0170 8A1E     		subs	r2, r1, #2
ARM GAS  C:\Users\CFAR\AppData\Local\Temp\ccTpuxCm.s 			page 30


 1654 0172 1844     		add	r0, r0, r3
 1655 0174 A11C     		adds	r1, r4, #2
 1656              	.LVL118:
 1657              	.L113:
 1658              		.loc 1 513 0
 1659 0176 73B0     		add	sp, sp, #460
 1660              		.cfi_remember_state
 1661              		.cfi_def_cfa_offset 20
 1662              		@ sp needed
 1663 0178 BDE8F040 		pop	{r4, r5, r6, r7, lr}
 1664              		.cfi_restore 14
 1665              		.cfi_restore 7
 1666              		.cfi_restore 6
 1667              		.cfi_restore 5
 1668              		.cfi_restore 4
 1669              		.cfi_def_cfa_offset 0
 1670              	.LVL119:
 1671              	.LBB74:
 1672              		.loc 1 424 0
 1673 017c FFF7FEBF 		b	memcpy
 1674              	.LVL120:
 1675              	.L98:
 1676              		.cfi_restore_state
 1677 0180 B4F80130 		ldrh	r3, [r4, #1]	@ unaligned
 1678              	.LVL121:
 1679 0184 5BBA     		rev16	r3, r3
 1680 0186 9BB2     		uxth	r3, r3
 1681              	.LVL122:
 1682              		.loc 1 423 0
 1683 0188 B3F5007F 		cmp	r3, #512
 1684 018c 9FD2     		bcs	.L93
 1685              		.loc 1 424 0
 1686 018e 1D48     		ldr	r0, .L114+28
 1687 0190 CA1E     		subs	r2, r1, #3
 1688 0192 1844     		add	r0, r0, r3
 1689 0194 E11C     		adds	r1, r4, #3
 1690              	.LVL123:
 1691 0196 EEE7     		b	.L113
 1692              	.LVL124:
 1693              	.L99:
 1694              	.LBE74:
 1695              	.LBB75:
 1696              		.loc 1 431 0
 1697 0198 6378     		ldrb	r3, [r4, #1]	@ zero_extendqisi2
 1698              	.LVL125:
 1699              		.loc 1 432 0
 1700 019a A578     		ldrb	r5, [r4, #2]	@ zero_extendqisi2
 1701 019c 45EA0325 		orr	r5, r5, r3, lsl #8
 1702              	.LVL126:
 1703              		.loc 1 434 0
 1704 01a0 B5F5007F 		cmp	r5, #512
 1705 01a4 93D8     		bhi	.L93
 1706              		.loc 1 441 0
 1707 01a6 4A1F     		subs	r2, r1, #5
 1708 01a8 164E     		ldr	r6, .L114+28
 1709              		.loc 1 438 0
 1710 01aa E778     		ldrb	r7, [r4, #3]	@ zero_extendqisi2
ARM GAS  C:\Users\CFAR\AppData\Local\Temp\ccTpuxCm.s 			page 31


 1711              	.LVL127:
 1712              		.loc 1 439 0
 1713 01ac 0523     		movs	r3, #5
 1714              		.loc 1 441 0
 1715 01ae A81A     		subs	r0, r5, r2
 1716 01b0 E118     		adds	r1, r4, r3
 1717              	.LVL128:
 1718 01b2 3044     		add	r0, r0, r6
 1719              		.loc 1 439 0
 1720 01b4 0293     		str	r3, [sp, #8]
 1721 01b6 2479     		ldrb	r4, [r4, #4]	@ zero_extendqisi2
 1722              	.LVL129:
 1723              		.loc 1 441 0
 1724 01b8 FFF7FEFF 		bl	memcpy
 1725              	.LVL130:
 1726              		.loc 1 443 0
 1727 01bc 2946     		mov	r1, r5
 1728 01be 3046     		mov	r0, r6
 1729 01c0 FFF7FEFF 		bl	crc16
 1730              	.LVL131:
 1731              		.loc 1 445 0
 1732 01c4 44EA0724 		orr	r4, r4, r7, lsl #8
 1733              	.LVL132:
 1734              		.loc 1 443 0
 1735 01c8 A042     		cmp	r0, r4
 1736 01ca 80D1     		bne	.L93
 1737              		.loc 1 448 0
 1738 01cc 1420     		movs	r0, #20
 1739              		.loc 1 450 0
 1740 01ce 094C     		ldr	r4, .L114+12
 1741              		.loc 1 448 0
 1742 01d0 FFF7FEFF 		bl	chThdSleep
 1743              	.LVL133:
 1744              		.loc 1 450 0
 1745 01d4 0123     		movs	r3, #1
 1746              		.loc 1 451 0
 1747 01d6 2946     		mov	r1, r5
 1748 01d8 3046     		mov	r0, r6
 1749 01da 074A     		ldr	r2, .L114+16
 1750              		.loc 1 450 0
 1751 01dc 2370     		strb	r3, [r4]
 1752              		.loc 1 451 0
 1753 01de FFF7FEFF 		bl	commands_process_packet
 1754              	.LVL134:
 1755              		.loc 1 452 0
 1756 01e2 0023     		movs	r3, #0
 1757 01e4 2370     		strb	r3, [r4]
 1758 01e6 72E7     		b	.L93
 1759              	.L115:
 1760              		.align	2
 1761              	.L114:
 1762 01e8 00000000 		.word	.LANCHOR12
 1763 01ec 00000000 		.word	.LANCHOR5
 1764 01f0 00000000 		.word	.LANCHOR0
 1765 01f4 00000000 		.word	.LANCHOR11
 1766 01f8 00000000 		.word	nrf_driver_send_buffer
 1767 01fc 00000000 		.word	.LANCHOR15
ARM GAS  C:\Users\CFAR\AppData\Local\Temp\ccTpuxCm.s 			page 32


 1768 0200 00007A44 		.word	1148846080
 1769 0204 00000000 		.word	.LANCHOR16
 1770              	.LBE75:
 1771              		.cfi_endproc
 1772              	.LFE227:
 1773              		.size	nrf_driver_process_packet, .-nrf_driver_process_packet
 1774              		.section	.text.rx_thread,"ax",%progbits
 1775              		.align	1
 1776              		.p2align 4,,15
 1777              		.syntax unified
 1778              		.thumb
 1779              		.thumb_func
 1780              		.fpu fpv4-sp-d16
 1781              		.type	rx_thread, %function
 1782              	rx_thread:
 1783              	.LFB225:
 1784              		.loc 1 260 0
 1785              		.cfi_startproc
 1786              		@ args = 0, pretend = 0, frame = 40
 1787              		@ frame_needed = 0, uses_anonymous_args = 0
 1788              	.LVL135:
 1789 0000 2DE9F043 		push	{r4, r5, r6, r7, r8, r9, lr}
 1790              		.cfi_def_cfa_offset 28
 1791              		.cfi_offset 4, -28
 1792              		.cfi_offset 5, -24
 1793              		.cfi_offset 6, -20
 1794              		.cfi_offset 7, -16
 1795              		.cfi_offset 8, -12
 1796              		.cfi_offset 9, -8
 1797              		.cfi_offset 14, -4
 1798              	.LBB76:
 1799              	.LBB77:
 1800              		.loc 2 135 0
 1801 0004 234B     		ldr	r3, .L135
 1802              	.LBE77:
 1803              	.LBE76:
 1804              		.loc 1 264 0
 1805 0006 DFF8A090 		ldr	r9, .L135+20
 1806              	.LBB79:
 1807              	.LBB78:
 1808              		.loc 2 135 0
 1809 000a 9B69     		ldr	r3, [r3, #24]
 1810 000c 224A     		ldr	r2, .L135+4
 1811 000e 9A61     		str	r2, [r3, #24]
 1812              	.LVL136:
 1813 0010 224F     		ldr	r7, .L135+8
 1814 0012 DFF89880 		ldr	r8, .L135+24
 1815              	.LBE78:
 1816              	.LBE79:
 1817              	.LBB80:
 1818              		.loc 1 301 0
 1819 0016 224D     		ldr	r5, .L135+12
 1820 0018 224E     		ldr	r6, .L135+16
 1821              	.LBE80:
 1822              		.loc 1 264 0
 1823 001a 0123     		movs	r3, #1
 1824              		.loc 1 260 0
ARM GAS  C:\Users\CFAR\AppData\Local\Temp\ccTpuxCm.s 			page 33


 1825 001c 8BB0     		sub	sp, sp, #44
 1826              		.cfi_def_cfa_offset 72
 1827              		.loc 1 264 0
 1828 001e 89F80030 		strb	r3, [r9]
 1829              	.LVL137:
 1830              	.L117:
 1831              	.LBB83:
 1832              		.loc 1 267 0
 1833 0022 3B68     		ldr	r3, [r7]
 1834 0024 D3B9     		cbnz	r3, .L132
 1835              	.L118:
 1836              		.loc 1 272 0
 1837 0026 98F80020 		ldrb	r2, [r8]	@ zero_extendqisi2
 1838 002a 72BB     		cbnz	r2, .L133
 1839              	.L120:
 1840              	.LBB81:
 1841              		.loc 1 282 0
 1842 002c 01AA     		add	r2, sp, #4
 1843 002e 6946     		mov	r1, sp
 1844 0030 02A8     		add	r0, sp, #8
 1845 0032 FFF7FEFF 		bl	rfhelp_read_rx_data_crc
 1846              	.LVL138:
 1847              		.loc 1 285 0
 1848 0036 041E     		subs	r4, r0, #0
 1849              		.loc 1 286 0
 1850 0038 02A8     		add	r0, sp, #8
 1851              	.LVL139:
 1852              		.loc 1 285 0
 1853 003a 13DA     		bge	.L134
 1854              	.L121:
 1855              	.LBE81:
 1856              		.loc 1 298 0
 1857 003c 3220     		movs	r0, #50
 1858 003e FFF7FEFF 		bl	chThdSleep
 1859              	.LVL140:
 1860              		.loc 1 301 0
 1861 0042 2B68     		ldr	r3, [r5]
 1862 0044 002B     		cmp	r3, #0
 1863 0046 17DD     		ble	.L122
 1864              		.loc 1 301 0 is_stmt 0 discriminator 1
 1865 0048 3268     		ldr	r2, [r6]
 1866 004a 002A     		cmp	r2, #0
 1867 004c 14DD     		ble	.L122
 1868              		.loc 1 302 0 is_stmt 1
 1869 004e 053B     		subs	r3, r3, #5
 1870 0050 2B60     		str	r3, [r5]
 1871              		.loc 1 267 0
 1872 0052 3B68     		ldr	r3, [r7]
 1873              		.loc 1 303 0
 1874 0054 053A     		subs	r2, r2, #5
 1875 0056 3260     		str	r2, [r6]
 1876              		.loc 1 267 0
 1877 0058 002B     		cmp	r3, #0
 1878 005a E4D0     		beq	.L118
 1879              	.LVL141:
 1880              	.L132:
 1881              		.loc 1 268 0
ARM GAS  C:\Users\CFAR\AppData\Local\Temp\ccTpuxCm.s 			page 34


 1882 005c 3220     		movs	r0, #50
 1883 005e FFF7FEFF 		bl	chThdSleep
 1884              	.LVL142:
 1885 0062 DEE7     		b	.L117
 1886              	.LVL143:
 1887              	.L134:
 1888              	.LBB82:
 1889              		.loc 1 286 0
 1890 0064 9DF80010 		ldrb	r1, [sp]	@ zero_extendqisi2
 1891 0068 FFF7FEFF 		bl	nrf_driver_process_packet
 1892              	.LVL144:
 1893              		.loc 1 294 0
 1894 006c 0A20     		movs	r0, #10
 1895              		.loc 1 290 0
 1896 006e 002C     		cmp	r4, #0
 1897 0070 E4D0     		beq	.L121
 1898              		.loc 1 294 0
 1899 0072 FFF7FEFF 		bl	chThdSleep
 1900              	.LVL145:
 1901              	.LBE82:
 1902              		.loc 1 281 0
 1903 0076 D9E7     		b	.L120
 1904              	.L122:
 1905              		.loc 1 305 0
 1906 0078 FFF7FEFF 		bl	rfhelp_power_up
 1907              	.LVL146:
 1908              		.loc 1 306 0
 1909 007c FFF7FEFF 		bl	rfhelp_restart
 1910              	.LVL147:
 1911              		.loc 1 307 0
 1912 0080 4FF4FA73 		mov	r3, #500
 1913 0084 2B60     		str	r3, [r5]
 1914              		.loc 1 308 0
 1915 0086 3360     		str	r3, [r6]
 1916 0088 CBE7     		b	.L117
 1917              	.LVL148:
 1918              	.L133:
 1919              		.loc 1 273 0
 1920 008a 89F80030 		strb	r3, [r9]
 1921              	.LBE83:
 1922              		.loc 1 311 0
 1923 008e 0BB0     		add	sp, sp, #44
 1924              		.cfi_def_cfa_offset 28
 1925              		@ sp needed
 1926 0090 BDE8F083 		pop	{r4, r5, r6, r7, r8, r9, pc}
 1927              	.L136:
 1928              		.align	2
 1929              	.L135:
 1930 0094 00000000 		.word	ch
 1931 0098 00000000 		.word	.LC1
 1932 009c 00000000 		.word	.LANCHOR7
 1933 00a0 00000000 		.word	.LANCHOR12
 1934 00a4 00000000 		.word	.LANCHOR1
 1935 00a8 00000000 		.word	.LANCHOR9
 1936 00ac 00000000 		.word	.LANCHOR10
 1937              		.cfi_endproc
 1938              	.LFE225:
ARM GAS  C:\Users\CFAR\AppData\Local\Temp\ccTpuxCm.s 			page 35


 1939              		.size	rx_thread, .-rx_thread
 1940              		.section	.text.nrf_driver_is_pairing,"ax",%progbits
 1941              		.align	1
 1942              		.p2align 4,,15
 1943              		.global	nrf_driver_is_pairing
 1944              		.syntax unified
 1945              		.thumb
 1946              		.thumb_func
 1947              		.fpu fpv4-sp-d16
 1948              		.type	nrf_driver_is_pairing, %function
 1949              	nrf_driver_is_pairing:
 1950              	.LFB228:
 1951              		.loc 1 515 0
 1952              		.cfi_startproc
 1953              		@ args = 0, pretend = 0, frame = 0
 1954              		@ frame_needed = 0, uses_anonymous_args = 0
 1955              		@ link register save eliminated.
 1956              		.loc 1 516 0
 1957 0000 014B     		ldr	r3, .L138
 1958 0002 1878     		ldrb	r0, [r3]	@ zero_extendqisi2
 1959              		.loc 1 517 0
 1960 0004 7047     		bx	lr
 1961              	.L139:
 1962 0006 00BF     		.align	2
 1963              	.L138:
 1964 0008 00000000 		.word	.LANCHOR5
 1965              		.cfi_endproc
 1966              	.LFE228:
 1967              		.size	nrf_driver_is_pairing, .-nrf_driver_is_pairing
 1968              		.section	.text.nrf_driver_ext_nrf_running,"ax",%progbits
 1969              		.align	1
 1970              		.p2align 4,,15
 1971              		.global	nrf_driver_ext_nrf_running
 1972              		.syntax unified
 1973              		.thumb
 1974              		.thumb_func
 1975              		.fpu fpv4-sp-d16
 1976              		.type	nrf_driver_ext_nrf_running, %function
 1977              	nrf_driver_ext_nrf_running:
 1978              	.LFB229:
 1979              		.loc 1 519 0
 1980              		.cfi_startproc
 1981              		@ args = 0, pretend = 0, frame = 0
 1982              		@ frame_needed = 0, uses_anonymous_args = 0
 1983              		@ link register save eliminated.
 1984              		.loc 1 520 0
 1985 0000 014B     		ldr	r3, .L141
 1986 0002 1878     		ldrb	r0, [r3]	@ zero_extendqisi2
 1987              		.loc 1 521 0
 1988 0004 7047     		bx	lr
 1989              	.L142:
 1990 0006 00BF     		.align	2
 1991              	.L141:
 1992 0008 00000000 		.word	.LANCHOR0
 1993              		.cfi_endproc
 1994              	.LFE229:
 1995              		.size	nrf_driver_ext_nrf_running, .-nrf_driver_ext_nrf_running
ARM GAS  C:\Users\CFAR\AppData\Local\Temp\ccTpuxCm.s 			page 36


 1996              		.section	.text.nrf_driver_pause,"ax",%progbits
 1997              		.align	1
 1998              		.p2align 4,,15
 1999              		.global	nrf_driver_pause
 2000              		.syntax unified
 2001              		.thumb
 2002              		.thumb_func
 2003              		.fpu fpv4-sp-d16
 2004              		.type	nrf_driver_pause, %function
 2005              	nrf_driver_pause:
 2006              	.LFB230:
 2007              		.loc 1 523 0
 2008              		.cfi_startproc
 2009              		@ args = 0, pretend = 0, frame = 0
 2010              		@ frame_needed = 0, uses_anonymous_args = 0
 2011              		@ link register save eliminated.
 2012              	.LVL149:
 2013              		.loc 1 524 0
 2014 0000 014B     		ldr	r3, .L144
 2015 0002 1860     		str	r0, [r3]
 2016              		.loc 1 525 0
 2017 0004 7047     		bx	lr
 2018              	.L145:
 2019 0006 00BF     		.align	2
 2020              	.L144:
 2021 0008 00000000 		.word	.LANCHOR7
 2022              		.cfi_endproc
 2023              	.LFE230:
 2024              		.size	nrf_driver_pause, .-nrf_driver_pause
 2025              		.section	.bss.driver_paused,"aw",%nobits
 2026              		.align	2
 2027              		.set	.LANCHOR7,. + 0
 2028              		.type	driver_paused, %object
 2029              		.size	driver_paused, 4
 2030              	driver_paused:
 2031 0000 00000000 		.space	4
 2032              		.section	.bss.ext_nrf,"aw",%nobits
 2033              		.set	.LANCHOR0,. + 0
 2034              		.type	ext_nrf, %object
 2035              		.size	ext_nrf, 1
 2036              	ext_nrf:
 2037 0000 00       		.space	1
 2038              		.section	.bss.from_nrf,"aw",%nobits
 2039              		.set	.LANCHOR11,. + 0
 2040              		.type	from_nrf, %object
 2041              		.size	from_nrf, 1
 2042              	from_nrf:
 2043 0000 00       		.space	1
 2044              		.section	.bss.mstate,"aw",%nobits
 2045              		.align	2
 2046              		.set	.LANCHOR15,. + 0
 2047              		.type	mstate, %object
 2048              		.size	mstate, 12
 2049              	mstate:
 2050 0000 00000000 		.space	12
 2050      00000000 
 2050      00000000 
ARM GAS  C:\Users\CFAR\AppData\Local\Temp\ccTpuxCm.s 			page 37


 2051              		.section	.bss.nosend_cnt,"aw",%nobits
 2052              		.align	2
 2053              		.set	.LANCHOR4,. + 0
 2054              		.type	nosend_cnt, %object
 2055              		.size	nosend_cnt, 4
 2056              	nosend_cnt:
 2057 0000 00000000 		.space	4
 2058              		.section	.bss.nrf_restart_rx_time,"aw",%nobits
 2059              		.align	2
 2060              		.set	.LANCHOR12,. + 0
 2061              		.type	nrf_restart_rx_time, %object
 2062              		.size	nrf_restart_rx_time, 4
 2063              	nrf_restart_rx_time:
 2064 0000 00000000 		.space	4
 2065              		.section	.bss.nrf_restart_tx_time,"aw",%nobits
 2066              		.align	2
 2067              		.set	.LANCHOR1,. + 0
 2068              		.type	nrf_restart_tx_time, %object
 2069              		.size	nrf_restart_tx_time, 4
 2070              	nrf_restart_tx_time:
 2071 0000 00000000 		.space	4
 2072              		.section	.bss.pairing_active,"aw",%nobits
 2073              		.set	.LANCHOR5,. + 0
 2074              		.type	pairing_active, %object
 2075              		.size	pairing_active, 1
 2076              	pairing_active:
 2077 0000 00       		.space	1
 2078              		.section	.bss.pairing_time_end,"aw",%nobits
 2079              		.align	2
 2080              		.set	.LANCHOR8,. + 0
 2081              		.type	pairing_time_end, %object
 2082              		.size	pairing_time_end, 4
 2083              	pairing_time_end:
 2084 0000 00000000 		.space	4
 2085              		.section	.bss.rx_buffer,"aw",%nobits
 2086              		.align	2
 2087              		.set	.LANCHOR16,. + 0
 2088              		.type	rx_buffer, %object
 2089              		.size	rx_buffer, 512
 2090              	rx_buffer:
 2091 0000 00000000 		.space	512
 2091      00000000 
 2091      00000000 
 2091      00000000 
 2091      00000000 
 2092              		.section	.bss.rx_running,"aw",%nobits
 2093              		.set	.LANCHOR9,. + 0
 2094              		.type	rx_running, %object
 2095              		.size	rx_running, 1
 2096              	rx_running:
 2097 0000 00       		.space	1
 2098              		.section	.bss.rx_thread_wa,"aw",%nobits
 2099              		.align	3
 2100              		.set	.LANCHOR13,. + 0
 2101              		.type	rx_thread_wa, %object
 2102              		.size	rx_thread_wa, 2456
 2103              	rx_thread_wa:
ARM GAS  C:\Users\CFAR\AppData\Local\Temp\ccTpuxCm.s 			page 38


 2104 0000 00000000 		.space	2456
 2104      00000000 
 2104      00000000 
 2104      00000000 
 2104      00000000 
 2105              		.section	.bss.seq_cnt.10513,"aw",%nobits
 2106              		.set	.LANCHOR6,. + 0
 2107              		.type	seq_cnt.10513, %object
 2108              		.size	seq_cnt.10513, 1
 2109              	seq_cnt.10513:
 2110 0000 00       		.space	1
 2111              		.section	.bss.tx_running,"aw",%nobits
 2112              		.set	.LANCHOR2,. + 0
 2113              		.type	tx_running, %object
 2114              		.size	tx_running, 1
 2115              	tx_running:
 2116 0000 00       		.space	1
 2117              		.section	.bss.tx_thread_wa,"aw",%nobits
 2118              		.align	3
 2119              		.set	.LANCHOR14,. + 0
 2120              		.type	tx_thread_wa, %object
 2121              		.size	tx_thread_wa, 920
 2122              	tx_thread_wa:
 2123 0000 00000000 		.space	920
 2123      00000000 
 2123      00000000 
 2123      00000000 
 2123      00000000 
 2124              		.section	.data.rx_stop,"aw",%progbits
 2125              		.set	.LANCHOR10,. + 0
 2126              		.type	rx_stop, %object
 2127              		.size	rx_stop, 1
 2128              	rx_stop:
 2129 0000 01       		.byte	1
 2130              		.section	.data.tx_stop,"aw",%progbits
 2131              		.set	.LANCHOR3,. + 0
 2132              		.type	tx_stop, %object
 2133              		.size	tx_stop, 1
 2134              	tx_stop:
 2135 0000 01       		.byte	1
 2136              		.section	.rodata.rx_thread.str1.4,"aMS",%progbits,1
 2137              		.align	2
 2138              	.LC1:
 2139 0000 4E726620 		.ascii	"Nrf RX\000"
 2139      525800
 2140              		.section	.rodata.tx_thread.str1.4,"aMS",%progbits,1
 2141              		.align	2
 2142              	.LC0:
 2143 0000 4E726620 		.ascii	"Nrf TX\000"
 2143      545800
 2144              		.text
 2145              	.Letext0:
 2146              		.file 4 "c:\\st\\stm32cubeide_1.3.0\\stm32cubeide\\plugins\\com.st.stm32cube.ide.mcu.externaltools
 2147              		.file 5 "c:\\st\\stm32cubeide_1.3.0\\stm32cubeide\\plugins\\com.st.stm32cube.ide.mcu.externaltools
 2148              		.file 6 "c:\\st\\stm32cubeide_1.3.0\\stm32cubeide\\plugins\\com.st.stm32cube.ide.mcu.externaltools
 2149              		.file 7 "c:\\st\\stm32cubeide_1.3.0\\stm32cubeide\\plugins\\com.st.stm32cube.ide.mcu.externaltools
 2150              		.file 8 "c:\\st\\stm32cubeide_1.3.0\\stm32cubeide\\plugins\\com.st.stm32cube.ide.mcu.externaltools
ARM GAS  C:\Users\CFAR\AppData\Local\Temp\ccTpuxCm.s 			page 39


 2151              		.file 9 "c:\\st\\stm32cubeide_1.3.0\\stm32cubeide\\plugins\\com.st.stm32cube.ide.mcu.externaltools
 2152              		.file 10 "ChibiOS_3.0.5/os/rt/ports/ARMCMx/compilers/GCC/chtypes.h"
 2153              		.file 11 "ChibiOS_3.0.5/os/rt/include/chsystypes.h"
 2154              		.file 12 "ChibiOS_3.0.5/os/rt/include/chschd.h"
 2155              		.file 13 "ChibiOS_3.0.5/os/ext/CMSIS/include/core_cm4.h"
 2156              		.file 14 "ChibiOS_3.0.5/os/ext/CMSIS/ST/system_stm32f4xx.h"
 2157              		.file 15 "ChibiOS_3.0.5/os/rt/ports/ARMCMx/chcore.h"
 2158              		.file 16 "ChibiOS_3.0.5/os/rt/ports/ARMCMx/chcore_v7m.h"
 2159              		.file 17 "ChibiOS_3.0.5/os/rt/include/chtm.h"
 2160              		.file 18 "ChibiOS_3.0.5/os/rt/include/chsem.h"
 2161              		.file 19 "ChibiOS_3.0.5/os/rt/include/chmtx.h"
 2162              		.file 20 "./datatypes.h"
 2163              		.file 21 "./conf_general.h"
 2164              		.file 22 "./mc_interface.h"
 2165              		.file 23 "./crc.h"
 2166              		.file 24 "ChibiOS_3.0.5/os/rt/include/chthreads.h"
 2167              		.file 25 "./commands.h"
 2168              		.file 26 "applications/app.h"
 2169              		.file 27 "./buffer.h"
 2170              		.file 28 "nrf/rfhelp.h"
 2171              		.file 29 "<built-in>"
