ARM GAS  C:\Users\CFAR\AppData\Local\Temp\ccNlGAbm.s 			page 1


   1              		.cpu cortex-m4
   2              		.eabi_attribute 27, 1
   3              		.eabi_attribute 28, 1
   4              		.eabi_attribute 20, 1
   5              		.eabi_attribute 21, 1
   6              		.eabi_attribute 23, 3
   7              		.eabi_attribute 24, 1
   8              		.eabi_attribute 25, 1
   9              		.eabi_attribute 26, 1
  10              		.eabi_attribute 30, 2
  11              		.eabi_attribute 34, 1
  12              		.eabi_attribute 18, 4
  13              		.file	"pal_lld.c"
  14              		.text
  15              	.Ltext0:
  16              		.cfi_sections	.debug_frame
  17              		.section	.text._pal_lld_init,"ax",%progbits
  18              		.align	1
  19              		.p2align 4,,15
  20              		.global	_pal_lld_init
  21              		.syntax unified
  22              		.thumb
  23              		.thumb_func
  24              		.fpu fpv4-sp-d16
  25              		.type	_pal_lld_init, %function
  26              	_pal_lld_init:
  27              	.LFB257:
  28              		.file 1 "ChibiOS_3.0.5/os/hal/ports/STM32/LLD/GPIOv2/pal_lld.c"
  29              		.loc 1 92 0
  30              		.cfi_startproc
  31              		@ args = 0, pretend = 0, frame = 0
  32              		@ frame_needed = 0, uses_anonymous_args = 0
  33              		@ link register save eliminated.
  34              	.LVL0:
  35              		.loc 1 105 0
  36 0000 6849     		ldr	r1, .L4
  37              	.LBB20:
  38              	.LBB21:
  39              		.loc 1 67 0
  40 0002 694A     		ldr	r2, .L4+4
  41              	.LBE21:
  42              	.LBE20:
  43              	.LBB23:
  44              	.LBB24:
  45 0004 694B     		ldr	r3, .L4+8
  46              	.LBE24:
  47              	.LBE23:
  48              		.loc 1 92 0
  49 0006 70B4     		push	{r4, r5, r6}
  50              		.cfi_def_cfa_offset 12
  51              		.cfi_offset 4, -12
  52              		.cfi_offset 5, -8
  53              		.cfi_offset 6, -4
  54              		.loc 1 105 0
  55 0008 0D6B     		ldr	r5, [r1, #48]
  56 000a 40F2FF16 		movw	r6, #511
  57 000e 3543     		orrs	r5, r5, r6
ARM GAS  C:\Users\CFAR\AppData\Local\Temp\ccNlGAbm.s 			page 2


  58 0010 0D63     		str	r5, [r1, #48]
  59              		.loc 1 106 0
  60 0012 0C6D     		ldr	r4, [r1, #80]
  61 0014 3443     		orrs	r4, r4, r6
  62 0016 0C65     		str	r4, [r1, #80]
  63              	.LVL1:
  64              	.LBB26:
  65              	.LBB22:
  66              		.loc 1 67 0
  67 0018 4168     		ldr	r1, [r0, #4]
  68 001a 5160     		str	r1, [r2, #4]
  69              		.loc 1 68 0
  70 001c 8168     		ldr	r1, [r0, #8]
  71 001e 9160     		str	r1, [r2, #8]
  72              		.loc 1 69 0
  73 0020 C168     		ldr	r1, [r0, #12]
  74 0022 D160     		str	r1, [r2, #12]
  75              		.loc 1 70 0
  76 0024 0169     		ldr	r1, [r0, #16]
  77 0026 5161     		str	r1, [r2, #20]
  78              		.loc 1 71 0
  79 0028 4169     		ldr	r1, [r0, #20]
  80 002a 1162     		str	r1, [r2, #32]
  81              		.loc 1 72 0
  82 002c 8169     		ldr	r1, [r0, #24]
  83 002e 5162     		str	r1, [r2, #36]
  84              		.loc 1 73 0
  85 0030 0168     		ldr	r1, [r0]
  86 0032 1160     		str	r1, [r2]
  87              	.LVL2:
  88              	.LBE22:
  89              	.LBE26:
  90              	.LBB27:
  91              	.LBB25:
  92              		.loc 1 67 0
  93 0034 026A     		ldr	r2, [r0, #32]
  94 0036 5A60     		str	r2, [r3, #4]
  95              		.loc 1 68 0
  96 0038 426A     		ldr	r2, [r0, #36]
  97 003a 9A60     		str	r2, [r3, #8]
  98              		.loc 1 69 0
  99 003c 826A     		ldr	r2, [r0, #40]
 100 003e DA60     		str	r2, [r3, #12]
 101              		.loc 1 70 0
 102 0040 C26A     		ldr	r2, [r0, #44]
 103 0042 5A61     		str	r2, [r3, #20]
 104              		.loc 1 71 0
 105 0044 026B     		ldr	r2, [r0, #48]
 106 0046 1A62     		str	r2, [r3, #32]
 107              		.loc 1 72 0
 108 0048 426B     		ldr	r2, [r0, #52]
 109 004a 5A62     		str	r2, [r3, #36]
 110              		.loc 1 73 0
 111 004c C269     		ldr	r2, [r0, #28]
 112 004e 1A60     		str	r2, [r3]
 113              	.LVL3:
 114              	.LBE25:
ARM GAS  C:\Users\CFAR\AppData\Local\Temp\ccNlGAbm.s 			page 3


 115              	.LBE27:
 116              	.LBB28:
 117              	.LBB29:
 118              		.loc 1 67 0
 119 0050 C26B     		ldr	r2, [r0, #60]
 120 0052 C3F80424 		str	r2, [r3, #1028]
 121              		.loc 1 68 0
 122 0056 026C     		ldr	r2, [r0, #64]
 123 0058 C3F80824 		str	r2, [r3, #1032]
 124              		.loc 1 69 0
 125 005c 426C     		ldr	r2, [r0, #68]
 126 005e C3F80C24 		str	r2, [r3, #1036]
 127              		.loc 1 70 0
 128 0062 826C     		ldr	r2, [r0, #72]
 129 0064 C3F81424 		str	r2, [r3, #1044]
 130              		.loc 1 71 0
 131 0068 C26C     		ldr	r2, [r0, #76]
 132 006a C3F82024 		str	r2, [r3, #1056]
 133              		.loc 1 72 0
 134 006e 026D     		ldr	r2, [r0, #80]
 135 0070 C3F82424 		str	r2, [r3, #1060]
 136              		.loc 1 73 0
 137 0074 826B     		ldr	r2, [r0, #56]
 138 0076 C3F80024 		str	r2, [r3, #1024]
 139              	.LVL4:
 140              	.LBE29:
 141              	.LBE28:
 142              	.LBB30:
 143              	.LBB31:
 144              		.loc 1 67 0
 145 007a 03F50063 		add	r3, r3, #2048
 146 007e 826D     		ldr	r2, [r0, #88]
 147 0080 5A60     		str	r2, [r3, #4]
 148              		.loc 1 68 0
 149 0082 C26D     		ldr	r2, [r0, #92]
 150 0084 9A60     		str	r2, [r3, #8]
 151              		.loc 1 69 0
 152 0086 026E     		ldr	r2, [r0, #96]
 153 0088 DA60     		str	r2, [r3, #12]
 154              		.loc 1 70 0
 155 008a 426E     		ldr	r2, [r0, #100]
 156 008c 5A61     		str	r2, [r3, #20]
 157              		.loc 1 71 0
 158 008e 826E     		ldr	r2, [r0, #104]
 159 0090 1A62     		str	r2, [r3, #32]
 160              		.loc 1 72 0
 161 0092 C26E     		ldr	r2, [r0, #108]
 162 0094 5A62     		str	r2, [r3, #36]
 163              		.loc 1 73 0
 164 0096 426D     		ldr	r2, [r0, #84]
 165 0098 1A60     		str	r2, [r3]
 166              	.LVL5:
 167              	.LBE31:
 168              	.LBE30:
 169              	.LBB32:
 170              	.LBB33:
 171              		.loc 1 67 0
ARM GAS  C:\Users\CFAR\AppData\Local\Temp\ccNlGAbm.s 			page 4


 172 009a 426F     		ldr	r2, [r0, #116]
 173 009c C3F80424 		str	r2, [r3, #1028]
 174              		.loc 1 68 0
 175 00a0 826F     		ldr	r2, [r0, #120]
 176 00a2 C3F80824 		str	r2, [r3, #1032]
 177              		.loc 1 69 0
 178 00a6 C26F     		ldr	r2, [r0, #124]
 179 00a8 C3F80C24 		str	r2, [r3, #1036]
 180              		.loc 1 70 0
 181 00ac D0F88020 		ldr	r2, [r0, #128]
 182 00b0 C3F81424 		str	r2, [r3, #1044]
 183              		.loc 1 71 0
 184 00b4 D0F88420 		ldr	r2, [r0, #132]
 185 00b8 C3F82024 		str	r2, [r3, #1056]
 186              		.loc 1 72 0
 187 00bc D0F88820 		ldr	r2, [r0, #136]
 188 00c0 C3F82424 		str	r2, [r3, #1060]
 189              		.loc 1 73 0
 190 00c4 026F     		ldr	r2, [r0, #112]
 191 00c6 C3F80024 		str	r2, [r3, #1024]
 192              	.LVL6:
 193              	.LBE33:
 194              	.LBE32:
 195              	.LBB34:
 196              	.LBB35:
 197              		.loc 1 67 0
 198 00ca D0F89020 		ldr	r2, [r0, #144]
 199 00ce C3F80428 		str	r2, [r3, #2052]
 200              		.loc 1 68 0
 201 00d2 D0F89420 		ldr	r2, [r0, #148]
 202 00d6 C3F80828 		str	r2, [r3, #2056]
 203              		.loc 1 69 0
 204 00da D0F89820 		ldr	r2, [r0, #152]
 205 00de C3F80C28 		str	r2, [r3, #2060]
 206              		.loc 1 70 0
 207 00e2 D0F89C20 		ldr	r2, [r0, #156]
 208 00e6 C3F81428 		str	r2, [r3, #2068]
 209              		.loc 1 71 0
 210 00ea D0F8A020 		ldr	r2, [r0, #160]
 211 00ee C3F82028 		str	r2, [r3, #2080]
 212              		.loc 1 72 0
 213 00f2 D0F8A420 		ldr	r2, [r0, #164]
 214 00f6 C3F82428 		str	r2, [r3, #2084]
 215              		.loc 1 73 0
 216 00fa D0F88C20 		ldr	r2, [r0, #140]
 217 00fe C3F80028 		str	r2, [r3, #2048]
 218              	.LVL7:
 219              	.LBE35:
 220              	.LBE34:
 221              	.LBB36:
 222              	.LBB37:
 223              		.loc 1 67 0
 224 0102 03F54063 		add	r3, r3, #3072
 225 0106 D0F8AC20 		ldr	r2, [r0, #172]
 226 010a 5A60     		str	r2, [r3, #4]
 227              		.loc 1 68 0
 228 010c D0F8B020 		ldr	r2, [r0, #176]
ARM GAS  C:\Users\CFAR\AppData\Local\Temp\ccNlGAbm.s 			page 5


 229 0110 9A60     		str	r2, [r3, #8]
 230              		.loc 1 69 0
 231 0112 D0F8B420 		ldr	r2, [r0, #180]
 232 0116 DA60     		str	r2, [r3, #12]
 233              		.loc 1 70 0
 234 0118 D0F8B820 		ldr	r2, [r0, #184]
 235 011c 5A61     		str	r2, [r3, #20]
 236              		.loc 1 71 0
 237 011e D0F8BC20 		ldr	r2, [r0, #188]
 238 0122 1A62     		str	r2, [r3, #32]
 239              		.loc 1 72 0
 240 0124 D0F8C020 		ldr	r2, [r0, #192]
 241 0128 5A62     		str	r2, [r3, #36]
 242              		.loc 1 73 0
 243 012a D0F8A820 		ldr	r2, [r0, #168]
 244 012e 1A60     		str	r2, [r3]
 245              	.LVL8:
 246              	.LBE37:
 247              	.LBE36:
 248              	.LBB38:
 249              	.LBB39:
 250              		.loc 1 67 0
 251 0130 D0F8C820 		ldr	r2, [r0, #200]
 252 0134 C3F80424 		str	r2, [r3, #1028]
 253              		.loc 1 68 0
 254 0138 D0F8CC20 		ldr	r2, [r0, #204]
 255 013c C3F80824 		str	r2, [r3, #1032]
 256              		.loc 1 69 0
 257 0140 D0F8D020 		ldr	r2, [r0, #208]
 258 0144 C3F80C24 		str	r2, [r3, #1036]
 259              		.loc 1 70 0
 260 0148 D0F8D420 		ldr	r2, [r0, #212]
 261 014c C3F81424 		str	r2, [r3, #1044]
 262              		.loc 1 71 0
 263 0150 D0F8D820 		ldr	r2, [r0, #216]
 264 0154 C3F82024 		str	r2, [r3, #1056]
 265              		.loc 1 72 0
 266 0158 D0F8DC20 		ldr	r2, [r0, #220]
 267 015c C3F82424 		str	r2, [r3, #1060]
 268              		.loc 1 73 0
 269 0160 D0F8C420 		ldr	r2, [r0, #196]
 270 0164 C3F80024 		str	r2, [r3, #1024]
 271              	.LVL9:
 272              	.LBE39:
 273              	.LBE38:
 274              	.LBB40:
 275              	.LBB41:
 276              		.loc 1 67 0
 277 0168 D0F8E420 		ldr	r2, [r0, #228]
 278 016c C3F80428 		str	r2, [r3, #2052]
 279              		.loc 1 68 0
 280 0170 D0F8E820 		ldr	r2, [r0, #232]
 281 0174 C3F80828 		str	r2, [r3, #2056]
 282              		.loc 1 69 0
 283 0178 D0F8EC20 		ldr	r2, [r0, #236]
 284 017c C3F80C28 		str	r2, [r3, #2060]
 285              		.loc 1 70 0
ARM GAS  C:\Users\CFAR\AppData\Local\Temp\ccNlGAbm.s 			page 6


 286 0180 D0F8F020 		ldr	r2, [r0, #240]
 287 0184 C3F81428 		str	r2, [r3, #2068]
 288              		.loc 1 71 0
 289 0188 D0F8F420 		ldr	r2, [r0, #244]
 290 018c C3F82028 		str	r2, [r3, #2080]
 291              		.loc 1 72 0
 292 0190 D0F8F820 		ldr	r2, [r0, #248]
 293 0194 C3F82428 		str	r2, [r3, #2084]
 294              		.loc 1 73 0
 295 0198 D0F8E020 		ldr	r2, [r0, #224]
 296 019c C3F80028 		str	r2, [r3, #2048]
 297              	.LVL10:
 298              	.LBE41:
 299              	.LBE40:
 300              		.loc 1 139 0
 301 01a0 70BC     		pop	{r4, r5, r6}
 302              		.cfi_restore 6
 303              		.cfi_restore 5
 304              		.cfi_restore 4
 305              		.cfi_def_cfa_offset 0
 306 01a2 7047     		bx	lr
 307              	.L5:
 308              		.align	2
 309              	.L4:
 310 01a4 00380240 		.word	1073887232
 311 01a8 00000240 		.word	1073872896
 312 01ac 00040240 		.word	1073873920
 313              		.cfi_endproc
 314              	.LFE257:
 315              		.size	_pal_lld_init, .-_pal_lld_init
 316              		.section	.text._pal_lld_setgroupmode,"ax",%progbits
 317              		.align	1
 318              		.p2align 4,,15
 319              		.global	_pal_lld_setgroupmode
 320              		.syntax unified
 321              		.thumb
 322              		.thumb_func
 323              		.fpu fpv4-sp-d16
 324              		.type	_pal_lld_setgroupmode, %function
 325              	_pal_lld_setgroupmode:
 326              	.LFB258:
 327              		.loc 1 157 0
 328              		.cfi_startproc
 329              		@ args = 0, pretend = 0, frame = 0
 330              		@ frame_needed = 0, uses_anonymous_args = 0
 331              	.LVL11:
 332 0000 2DE9F04F 		push	{r4, r5, r6, r7, r8, r9, r10, fp, lr}
 333              		.cfi_def_cfa_offset 36
 334              		.cfi_offset 4, -36
 335              		.cfi_offset 5, -32
 336              		.cfi_offset 6, -28
 337              		.cfi_offset 7, -24
 338              		.cfi_offset 8, -20
 339              		.cfi_offset 9, -16
 340              		.cfi_offset 10, -12
 341              		.cfi_offset 11, -8
 342              		.cfi_offset 14, -4
ARM GAS  C:\Users\CFAR\AppData\Local\Temp\ccNlGAbm.s 			page 7


 343              		.loc 1 159 0
 344 0004 02F0030C 		and	ip, r2, #3
 345              	.LVL12:
 346              		.loc 1 160 0
 347 0008 C2F38007 		ubfx	r7, r2, #2, #1
 348              	.LVL13:
 349              		.loc 1 161 0
 350 000c C2F3C106 		ubfx	r6, r2, #3, #2
 351              	.LVL14:
 352              		.loc 1 162 0
 353 0010 C2F34115 		ubfx	r5, r2, #5, #2
 354              	.LVL15:
 355              		.loc 1 164 0
 356 0014 0024     		movs	r4, #0
 357              		.loc 1 163 0
 358 0016 C2F3C312 		ubfx	r2, r2, #7, #4
 359              	.LVL16:
 360              	.LBB42:
 361              		.loc 1 170 0
 362 001a 4FF00F0E 		mov	lr, #15
 363              		.loc 1 175 0
 364 001e 4FF00109 		mov	r9, #1
 365              		.loc 1 177 0
 366 0022 4FF00308 		mov	r8, #3
 367 0026 30E0     		b	.L11
 368              	.LVL17:
 369              	.L16:
 370              		.loc 1 172 0
 371 0028 D0F820B0 		ldr	fp, [r0, #32]
 372 002c 0BEA0A0A 		and	r10, fp, r10
 373 0030 4AEA0303 		orr	r3, r10, r3
 374              	.LVL18:
 375 0034 0362     		str	r3, [r0, #32]
 376              	.L9:
 377              	.LVL19:
 378              		.loc 1 176 0
 379 0036 4368     		ldr	r3, [r0, #4]
 380              		.loc 1 175 0
 381 0038 09FA04FA 		lsl	r10, r9, r4
 382              		.loc 1 176 0
 383 003c 23EA0A03 		bic	r3, r3, r10
 384 0040 3B43     		orrs	r3, r3, r7
 385 0042 4360     		str	r3, [r0, #4]
 386              	.LVL20:
 387              		.loc 1 177 0
 388 0044 6300     		lsls	r3, r4, #1
 389              		.loc 1 178 0
 390 0046 D0F808A0 		ldr	r10, [r0, #8]
 391              		.loc 1 177 0
 392 004a 08FA03F3 		lsl	r3, r8, r3
 393              		.loc 1 178 0
 394 004e DB43     		mvns	r3, r3
 395 0050 0AEA030A 		and	r10, r10, r3
 396 0054 4AEA060A 		orr	r10, r10, r6
 397 0058 C0F808A0 		str	r10, [r0, #8]
 398              		.loc 1 179 0
 399 005c D0F80CA0 		ldr	r10, [r0, #12]
ARM GAS  C:\Users\CFAR\AppData\Local\Temp\ccNlGAbm.s 			page 8


 400 0060 03EA0A0A 		and	r10, r3, r10
 401 0064 4AEA050A 		orr	r10, r10, r5
 402 0068 C0F80CA0 		str	r10, [r0, #12]
 403              		.loc 1 180 0
 404 006c D0F800A0 		ldr	r10, [r0]
 405 0070 03EA0A03 		and	r3, r3, r10
 406 0074 43EA0C03 		orr	r3, r3, ip
 407 0078 0360     		str	r3, [r0]
 408              	.LVL21:
 409              	.L7:
 410              	.LBE42:
 411              		.loc 1 183 0
 412 007a 4908     		lsrs	r1, r1, #1
 413              	.LVL22:
 414 007c 1BD0     		beq	.L6
 415              		.loc 1 185 0
 416 007e 7F00     		lsls	r7, r7, #1
 417              	.LVL23:
 418              		.loc 1 186 0
 419 0080 B600     		lsls	r6, r6, #2
 420              	.LVL24:
 421              		.loc 1 187 0
 422 0082 AD00     		lsls	r5, r5, #2
 423              	.LVL25:
 424              		.loc 1 188 0
 425 0084 4FEA8C0C 		lsl	ip, ip, #2
 426              	.LVL26:
 427              		.loc 1 189 0
 428 0088 0134     		adds	r4, r4, #1
 429              	.LVL27:
 430              	.L11:
 431              	.LBB43:
 432              		.loc 1 169 0
 433 008a 04F00703 		and	r3, r4, #7
 434 008e 9B00     		lsls	r3, r3, #2
 435              		.loc 1 170 0
 436 0090 0EFA03FA 		lsl	r10, lr, r3
 437              	.LBE43:
 438              		.loc 1 166 0
 439 0094 11F0010F 		tst	r1, #1
 440              	.LBB44:
 441              		.loc 1 169 0
 442 0098 02FA03F3 		lsl	r3, r2, r3
 443              	.LVL28:
 444 009c 6FEA0A0A 		mvn	r10, r10
 445              	.LBE44:
 446              		.loc 1 166 0
 447 00a0 EBD0     		beq	.L7
 448              	.LBB45:
 449              		.loc 1 171 0
 450 00a2 072C     		cmp	r4, #7
 451 00a4 C0D9     		bls	.L16
 452              		.loc 1 174 0
 453 00a6 D0F824B0 		ldr	fp, [r0, #36]
 454 00aa 0BEA0A0A 		and	r10, fp, r10
 455 00ae 4AEA0303 		orr	r3, r10, r3
 456              	.LVL29:
ARM GAS  C:\Users\CFAR\AppData\Local\Temp\ccNlGAbm.s 			page 9


 457 00b2 4362     		str	r3, [r0, #36]
 458 00b4 BFE7     		b	.L9
 459              	.LVL30:
 460              	.L6:
 461              	.LBE45:
 462              		.loc 1 191 0
 463 00b6 BDE8F08F 		pop	{r4, r5, r6, r7, r8, r9, r10, fp, pc}
 464              		.cfi_endproc
 465              	.LFE258:
 466              		.size	_pal_lld_setgroupmode, .-_pal_lld_setgroupmode
 467 00ba 00BF     		.text
 468              	.Letext0:
 469              		.file 2 "c:\\st\\stm32cubeide_1.3.0\\stm32cubeide\\plugins\\com.st.stm32cube.ide.mcu.externaltools
 470              		.file 3 "c:\\st\\stm32cubeide_1.3.0\\stm32cubeide\\plugins\\com.st.stm32cube.ide.mcu.externaltools
 471              		.file 4 "c:\\st\\stm32cubeide_1.3.0\\stm32cubeide\\plugins\\com.st.stm32cube.ide.mcu.externaltools
 472              		.file 5 "ChibiOS_3.0.5/os/rt/ports/ARMCMx/compilers/GCC/chtypes.h"
 473              		.file 6 "ChibiOS_3.0.5/os/rt/include/chsystypes.h"
 474              		.file 7 "ChibiOS_3.0.5/os/rt/include/chschd.h"
 475              		.file 8 "ChibiOS_3.0.5/os/ext/CMSIS/include/core_cm4.h"
 476              		.file 9 "ChibiOS_3.0.5/os/ext/CMSIS/ST/system_stm32f4xx.h"
 477              		.file 10 "ChibiOS_3.0.5/os/ext/CMSIS/ST/stm32f407xx.h"
 478              		.file 11 "ChibiOS_3.0.5/os/rt/ports/ARMCMx/chcore.h"
 479              		.file 12 "ChibiOS_3.0.5/os/rt/ports/ARMCMx/chcore_v7m.h"
 480              		.file 13 "ChibiOS_3.0.5/os/rt/include/chtm.h"
 481              		.file 14 "ChibiOS_3.0.5/os/rt/include/chsem.h"
 482              		.file 15 "ChibiOS_3.0.5/os/rt/include/chmtx.h"
 483              		.file 16 "ChibiOS_3.0.5/os/rt/include/chregistry.h"
 484              		.file 17 "ChibiOS_3.0.5/os/rt/include/chevents.h"
 485              		.file 18 "ChibiOS_3.0.5/os/rt/include/chqueues.h"
 486              		.file 19 "./conf_general.h"
 487              		.file 20 "ChibiOS_3.0.5/os/hal/ports/STM32/STM32F4xx/stm32_dma.h"
 488              		.file 21 "ChibiOS_3.0.5/os/hal/ports/STM32/LLD/GPIOv2/pal_lld.h"
 489              		.file 22 "ChibiOS_3.0.5/os/hal/include/can.h"
 490              		.file 23 "ChibiOS_3.0.5/os/hal/ports/STM32/LLD/can_lld.h"
 491              		.file 24 "ChibiOS_3.0.5/os/hal/include/i2c.h"
 492              		.file 25 "ChibiOS_3.0.5/os/hal/ports/STM32/LLD/I2Cv1/i2c_lld.h"
 493              		.file 26 "ChibiOS_3.0.5/os/hal/include/icu.h"
 494              		.file 27 "ChibiOS_3.0.5/os/hal/ports/STM32/LLD/TIMv1/icu_lld.h"
 495              		.file 28 "ChibiOS_3.0.5/os/hal/ports/STM32/LLD/TIMv1/stm32_tim.h"
 496              		.file 29 "ChibiOS_3.0.5/os/hal/include/serial.h"
 497              		.file 30 "ChibiOS_3.0.5/os/hal/ports/STM32/LLD/USARTv1/serial_lld.h"
 498              		.file 31 "ChibiOS_3.0.5/os/hal/include/spi.h"
 499              		.file 32 "ChibiOS_3.0.5/os/hal/ports/STM32/LLD/SPIv1/spi_lld.h"
 500              		.file 33 "ChibiOS_3.0.5/os/hal/include/usb.h"
 501              		.file 34 "ChibiOS_3.0.5/os/hal/ports/STM32/LLD/OTGv1/usb_lld.h"
 502              		.file 35 "ChibiOS_3.0.5/os/hal/ports/STM32/LLD/OTGv1/stm32_otg.h"
