ARM GAS  C:\Users\CFAR\AppData\Local\Temp\ccQW1BcI.s 			page 1


   1              		.cpu cortex-m4
   2              		.eabi_attribute 27, 1
   3              		.eabi_attribute 28, 1
   4              		.eabi_attribute 20, 1
   5              		.eabi_attribute 21, 1
   6              		.eabi_attribute 23, 3
   7              		.eabi_attribute 24, 1
   8              		.eabi_attribute 25, 1
   9              		.eabi_attribute 26, 1
  10              		.eabi_attribute 30, 2
  11              		.eabi_attribute 34, 1
  12              		.eabi_attribute 18, 4
  13              		.file	"rfhelp.c"
  14              		.text
  15              	.Ltext0:
  16              		.cfi_sections	.debug_frame
  17              		.section	.text.rfhelp_init,"ax",%progbits
  18              		.align	1
  19              		.p2align 4,,15
  20              		.global	rfhelp_init
  21              		.syntax unified
  22              		.thumb
  23              		.thumb_func
  24              		.fpu fpv4-sp-d16
  25              		.type	rfhelp_init, %function
  26              	rfhelp_init:
  27              	.LFB256:
  28              		.file 1 "nrf/rfhelp.c"
  29              		.loc 1 45 0
  30              		.cfi_startproc
  31              		@ args = 0, pretend = 0, frame = 16
  32              		@ frame_needed = 0, uses_anonymous_args = 0
  33 0000 70B5     		push	{r4, r5, r6, lr}
  34              		.cfi_def_cfa_offset 16
  35              		.cfi_offset 4, -16
  36              		.cfi_offset 5, -12
  37              		.cfi_offset 6, -8
  38              		.cfi_offset 14, -4
  39              		.loc 1 46 0
  40 0002 2A48     		ldr	r0, .L11
  41              		.loc 1 50 0
  42 0004 2A4E     		ldr	r6, .L11+4
  43              		.loc 1 45 0
  44 0006 84B0     		sub	sp, sp, #16
  45              		.cfi_def_cfa_offset 32
  46              		.loc 1 50 0
  47 0008 0324     		movs	r4, #3
  48              		.loc 1 46 0
  49 000a FFF7FEFF 		bl	chMtxObjectInit
  50              	.LVL0:
  51              		.loc 1 47 0
  52 000e FFF7FEFF 		bl	rf_init
  53              	.LVL1:
  54              		.loc 1 59 0
  55 0012 2246     		mov	r2, r4
  56 0014 01A9     		add	r1, sp, #4
  57 0016 1020     		movs	r0, #16
ARM GAS  C:\Users\CFAR\AppData\Local\Temp\ccQW1BcI.s 			page 2


  58              		.loc 1 50 0
  59 0018 3460     		str	r4, [r6]
  60              		.loc 1 59 0
  61 001a FFF7FEFF 		bl	rf_read_reg
  62              	.LVL2:
  63              		.loc 1 60 0
  64 001e 254B     		ldr	r3, .L11+8
  65 0020 1B68     		ldr	r3, [r3]
  66 0022 ADF80830 		strh	r3, [sp, #8]	@ movhi
  67              		.loc 1 61 0
  68 0026 2246     		mov	r2, r4
  69              		.loc 1 60 0
  70 0028 1B0C     		lsrs	r3, r3, #16
  71              		.loc 1 61 0
  72 002a 02A9     		add	r1, sp, #8
  73 002c 1020     		movs	r0, #16
  74              		.loc 1 60 0
  75 002e 8DF80A30 		strb	r3, [sp, #10]
  76              		.loc 1 61 0
  77 0032 FFF7FEFF 		bl	rf_write_reg
  78              	.LVL3:
  79              		.loc 1 63 0
  80 0036 2246     		mov	r2, r4
  81 0038 03A9     		add	r1, sp, #12
  82 003a 1020     		movs	r0, #16
  83 003c FFF7FEFF 		bl	rf_read_reg
  84              	.LVL4:
  85              		.loc 1 64 0
  86 0040 2246     		mov	r2, r4
  87 0042 01A9     		add	r1, sp, #4
  88 0044 1020     		movs	r0, #16
  89 0046 FFF7FEFF 		bl	rf_write_reg
  90              	.LVL5:
  91              		.loc 1 66 0
  92 004a BDF80820 		ldrh	r2, [sp, #8]
  93 004e BDF80C30 		ldrh	r3, [sp, #12]
  94 0052 9A42     		cmp	r2, r3
  95 0054 04D0     		beq	.L10
  96              	.L2:
  97              		.loc 1 67 0
  98 0056 FFF7FEFF 		bl	rf_stop
  99              	.LVL6:
 100              		.loc 1 68 0
 101 005a 0020     		movs	r0, #0
 102              		.loc 1 85 0
 103 005c 04B0     		add	sp, sp, #16
 104              		.cfi_remember_state
 105              		.cfi_def_cfa_offset 16
 106              		@ sp needed
 107 005e 70BD     		pop	{r4, r5, r6, pc}
 108              	.L10:
 109              		.cfi_restore_state
 110              		.loc 1 66 0
 111 0060 9DF80A20 		ldrb	r2, [sp, #10]	@ zero_extendqisi2
 112 0064 9DF80E30 		ldrb	r3, [sp, #14]	@ zero_extendqisi2
 113 0068 9A42     		cmp	r2, r3
 114 006a F4D1     		bne	.L2
ARM GAS  C:\Users\CFAR\AppData\Local\Temp\ccQW1BcI.s 			page 3


 115 006c 124D     		ldr	r5, .L11+12
 116 006e 0A24     		movs	r4, #10
 117              	.L6:
 118              	.LVL7:
 119              	.LBB2:
 120              		.loc 1 72 0 discriminator 3
 121 0070 2946     		mov	r1, r5
 122 0072 2046     		mov	r0, r4
 123 0074 3268     		ldr	r2, [r6]
 124 0076 0134     		adds	r4, r4, #1
 125              	.LVL8:
 126 0078 FFF7FEFF 		bl	rf_read_reg
 127              	.LVL9:
 128              		.loc 1 71 0 discriminator 3
 129 007c 102C     		cmp	r4, #16
 130 007e 05F10505 		add	r5, r5, #5
 131 0082 F5D1     		bne	.L6
 132              	.LBE2:
 133              		.loc 1 76 0
 134 0084 2046     		mov	r0, r4
 135 0086 3268     		ldr	r2, [r6]
 136 0088 0C49     		ldr	r1, .L11+16
 137 008a FFF7FEFF 		bl	rf_read_reg
 138              	.LVL10:
 139              		.loc 1 77 0
 140 008e 3268     		ldr	r2, [r6]
 141 0090 0A49     		ldr	r1, .L11+16
 142 0092 0948     		ldr	r0, .L11+12
 143 0094 FFF7FEFF 		bl	memcmp
 144              	.LVL11:
 145 0098 0949     		ldr	r1, .L11+20
 146              		.loc 1 82 0
 147 009a 0A4A     		ldr	r2, .L11+24
 148              		.loc 1 77 0
 149 009c B0FA80F3 		clz	r3, r0
 150 00a0 5B09     		lsrs	r3, r3, #5
 151              		.loc 1 82 0
 152 00a2 0120     		movs	r0, #1
 153              		.loc 1 77 0
 154 00a4 0B70     		strb	r3, [r1]
 155              		.loc 1 82 0
 156 00a6 1070     		strb	r0, [r2]
 157              		.loc 1 85 0
 158 00a8 04B0     		add	sp, sp, #16
 159              		.cfi_def_cfa_offset 16
 160              		@ sp needed
 161 00aa 70BD     		pop	{r4, r5, r6, pc}
 162              	.L12:
 163              		.align	2
 164              	.L11:
 165 00ac 00000000 		.word	.LANCHOR0
 166 00b0 00000000 		.word	.LANCHOR1
 167 00b4 00000000 		.word	.LANCHOR2
 168 00b8 00000000 		.word	.LANCHOR3
 169 00bc 00000000 		.word	.LANCHOR4
 170 00c0 00000000 		.word	.LANCHOR5
 171 00c4 00000000 		.word	.LANCHOR6
ARM GAS  C:\Users\CFAR\AppData\Local\Temp\ccQW1BcI.s 			page 4


 172              		.cfi_endproc
 173              	.LFE256:
 174              		.size	rfhelp_init, .-rfhelp_init
 175              		.section	.text.rfhelp_stop,"ax",%progbits
 176              		.align	1
 177              		.p2align 4,,15
 178              		.global	rfhelp_stop
 179              		.syntax unified
 180              		.thumb
 181              		.thumb_func
 182              		.fpu fpv4-sp-d16
 183              		.type	rfhelp_stop, %function
 184              	rfhelp_stop:
 185              	.LFB257:
 186              		.loc 1 87 0
 187              		.cfi_startproc
 188              		@ args = 0, pretend = 0, frame = 0
 189              		@ frame_needed = 0, uses_anonymous_args = 0
 190 0000 08B5     		push	{r3, lr}
 191              		.cfi_def_cfa_offset 8
 192              		.cfi_offset 3, -8
 193              		.cfi_offset 14, -4
 194              		.loc 1 88 0
 195 0002 FFF7FEFF 		bl	rf_stop
 196              	.LVL12:
 197              		.loc 1 89 0
 198 0006 024B     		ldr	r3, .L15
 199 0008 0022     		movs	r2, #0
 200 000a 1A70     		strb	r2, [r3]
 201              		.loc 1 90 0
 202 000c 08BD     		pop	{r3, pc}
 203              	.L16:
 204 000e 00BF     		.align	2
 205              	.L15:
 206 0010 00000000 		.word	.LANCHOR6
 207              		.cfi_endproc
 208              	.LFE257:
 209              		.size	rfhelp_stop, .-rfhelp_stop
 210              		.section	.text.rfhelp_restart,"ax",%progbits
 211              		.align	1
 212              		.p2align 4,,15
 213              		.global	rfhelp_restart
 214              		.syntax unified
 215              		.thumb
 216              		.thumb_func
 217              		.fpu fpv4-sp-d16
 218              		.type	rfhelp_restart, %function
 219              	rfhelp_restart:
 220              	.LFB259:
 221              		.loc 1 103 0
 222              		.cfi_startproc
 223              		@ args = 0, pretend = 0, frame = 0
 224              		@ frame_needed = 0, uses_anonymous_args = 0
 225 0000 F8B5     		push	{r3, r4, r5, r6, r7, lr}
 226              		.cfi_def_cfa_offset 24
 227              		.cfi_offset 3, -24
 228              		.cfi_offset 4, -20
ARM GAS  C:\Users\CFAR\AppData\Local\Temp\ccQW1BcI.s 			page 5


 229              		.cfi_offset 5, -16
 230              		.cfi_offset 6, -12
 231              		.cfi_offset 7, -8
 232              		.cfi_offset 14, -4
 233              		.loc 1 104 0
 234 0002 2B48     		ldr	r0, .L23
 235              		.loc 1 114 0
 236 0004 2B4C     		ldr	r4, .L23+4
 237              		.loc 1 128 0
 238 0006 2C4D     		ldr	r5, .L23+8
 239              		.loc 1 131 0
 240 0008 2C4E     		ldr	r6, .L23+12
 241              		.loc 1 129 0
 242 000a 2D4F     		ldr	r7, .L23+16
 243              		.loc 1 104 0
 244 000c FFF7FEFF 		bl	chMtxLock
 245              	.LVL13:
 246              		.loc 1 106 0
 247 0010 FFF7FEFF 		bl	rf_power_down
 248              	.LVL14:
 249              		.loc 1 111 0
 250 0014 0021     		movs	r1, #0
 251 0016 0220     		movs	r0, #2
 252 0018 FFF7FEFF 		bl	rf_write_reg_byte
 253              	.LVL15:
 254              		.loc 1 112 0
 255 001c 0021     		movs	r1, #0
 256 001e 1C20     		movs	r0, #28
 257 0020 FFF7FEFF 		bl	rf_write_reg_byte
 258              	.LVL16:
 259              		.loc 1 114 0
 260 0024 A078     		ldrb	r0, [r4, #2]	@ zero_extendqisi2
 261 0026 FFF7FEFF 		bl	rf_set_crc_type
 262              	.LVL17:
 263              		.loc 1 115 0
 264 002a 2079     		ldrb	r0, [r4, #4]	@ zero_extendqisi2
 265 002c FFF7FEFF 		bl	rf_set_retr_retries
 266              	.LVL18:
 267              		.loc 1 116 0
 268 0030 E078     		ldrb	r0, [r4, #3]	@ zero_extendqisi2
 269 0032 FFF7FEFF 		bl	rf_set_retr_delay
 270              	.LVL19:
 271              		.loc 1 117 0
 272 0036 6078     		ldrb	r0, [r4, #1]	@ zero_extendqisi2
 273 0038 FFF7FEFF 		bl	rf_set_power
 274              	.LVL20:
 275              		.loc 1 118 0
 276 003c 2078     		ldrb	r0, [r4]	@ zero_extendqisi2
 277 003e FFF7FEFF 		bl	rf_set_speed
 278              	.LVL21:
 279              		.loc 1 119 0
 280 0042 0020     		movs	r0, #0
 281 0044 FFF7FEFF 		bl	rf_set_address_width
 282              	.LVL22:
 283              		.loc 1 120 0
 284 0048 6079     		ldrb	r0, [r4, #5]	@ zero_extendqisi2
 285 004a 00F51660 		add	r0, r0, #2400
ARM GAS  C:\Users\CFAR\AppData\Local\Temp\ccQW1BcI.s 			page 6


 286 004e FFF7FEFF 		bl	rf_set_frequency
 287              	.LVL23:
 288              		.loc 1 121 0
 289 0052 0520     		movs	r0, #5
 290 0054 FFF7FEFF 		bl	rf_enable_features
 291              	.LVL24:
 292              		.loc 1 123 0
 293 0058 0120     		movs	r0, #1
 294 005a FFF7FEFF 		bl	rf_enable_pipe_autoack
 295              	.LVL25:
 296              		.loc 1 124 0
 297 005e 0120     		movs	r0, #1
 298 0060 FFF7FEFF 		bl	rf_enable_pipe_address
 299              	.LVL26:
 300              		.loc 1 125 0
 301 0064 0120     		movs	r0, #1
 302 0066 FFF7FEFF 		bl	rf_enable_pipe_dlp
 303              	.LVL27:
 304              		.loc 1 127 0
 305 006a 2346     		mov	r3, r4
 306 006c 1548     		ldr	r0, .L23+20
 307 006e 33F8062F 		ldrh	r2, [r3, #6]!	@ unaligned
 308 0072 0280     		strh	r2, [r0]	@ unaligned
 309 0074 9B78     		ldrb	r3, [r3, #2]	@ zero_extendqisi2
 310 0076 8370     		strb	r3, [r0, #2]
 311              		.loc 1 131 0
 312 0078 3168     		ldr	r1, [r6]
 313              		.loc 1 128 0
 314 007a AB70     		strb	r3, [r5, #2]
 315              		.loc 1 129 0
 316 007c 0123     		movs	r3, #1
 317 007e 3B70     		strb	r3, [r7]
 318              		.loc 1 128 0
 319 0080 2A80     		strh	r2, [r5]	@ unaligned
 320              		.loc 1 131 0
 321 0082 FFF7FEFF 		bl	rf_set_tx_addr
 322              	.LVL28:
 323              		.loc 1 132 0
 324 0086 3268     		ldr	r2, [r6]
 325 0088 2946     		mov	r1, r5
 326 008a 0020     		movs	r0, #0
 327 008c FFF7FEFF 		bl	rf_set_rx_addr
 328              	.LVL29:
 329              		.loc 1 134 0
 330 0090 6378     		ldrb	r3, [r4, #1]	@ zero_extendqisi2
 331 0092 042B     		cmp	r3, #4
 332 0094 03D0     		beq	.L18
 333              		.loc 1 135 0
 334 0096 FFF7FEFF 		bl	rf_power_up
 335              	.LVL30:
 336              		.loc 1 136 0
 337 009a FFF7FEFF 		bl	rf_mode_rx
 338              	.LVL31:
 339              	.L18:
 340              		.loc 1 138 0
 341 009e FFF7FEFF 		bl	rf_flush_all
 342              	.LVL32:
ARM GAS  C:\Users\CFAR\AppData\Local\Temp\ccQW1BcI.s 			page 7


 343              		.loc 1 139 0
 344 00a2 FFF7FEFF 		bl	rf_clear_irq
 345              	.LVL33:
 346              		.loc 1 141 0
 347 00a6 0248     		ldr	r0, .L23
 348              		.loc 1 142 0
 349 00a8 BDE8F840 		pop	{r3, r4, r5, r6, r7, lr}
 350              		.cfi_restore 14
 351              		.cfi_restore 7
 352              		.cfi_restore 6
 353              		.cfi_restore 5
 354              		.cfi_restore 4
 355              		.cfi_restore 3
 356              		.cfi_def_cfa_offset 0
 357              		.loc 1 141 0
 358 00ac FFF7FEBF 		b	chMtxUnlock
 359              	.LVL34:
 360              	.L24:
 361              		.align	2
 362              	.L23:
 363 00b0 00000000 		.word	.LANCHOR0
 364 00b4 00000000 		.word	.LANCHOR7
 365 00b8 00000000 		.word	.LANCHOR3
 366 00bc 00000000 		.word	.LANCHOR1
 367 00c0 00000000 		.word	.LANCHOR5
 368 00c4 00000000 		.word	.LANCHOR4
 369              		.cfi_endproc
 370              	.LFE259:
 371              		.size	rfhelp_restart, .-rfhelp_restart
 372              		.section	.text.rfhelp_update_conf,"ax",%progbits
 373              		.align	1
 374              		.p2align 4,,15
 375              		.global	rfhelp_update_conf
 376              		.syntax unified
 377              		.thumb
 378              		.thumb_func
 379              		.fpu fpv4-sp-d16
 380              		.type	rfhelp_update_conf, %function
 381              	rfhelp_update_conf:
 382              	.LFB258:
 383              		.loc 1 92 0
 384              		.cfi_startproc
 385              		@ args = 0, pretend = 0, frame = 0
 386              		@ frame_needed = 0, uses_anonymous_args = 0
 387              		@ link register save eliminated.
 388              	.LVL35:
 389 0000 0246     		mov	r2, r0
 390              		.loc 1 93 0
 391 0002 074B     		ldr	r3, .L29
 392 0004 5168     		ldr	r1, [r2, #4]	@ unaligned
 393 0006 0068     		ldr	r0, [r0]	@ unaligned
 394              	.LVL36:
 395              		.loc 1 92 0
 396 0008 30B4     		push	{r4, r5}
 397              		.cfi_def_cfa_offset 8
 398              		.cfi_offset 4, -8
 399              		.cfi_offset 5, -4
ARM GAS  C:\Users\CFAR\AppData\Local\Temp\ccQW1BcI.s 			page 8


 400              		.loc 1 95 0
 401 000a 064D     		ldr	r5, .L29+4
 402              		.loc 1 93 0
 403 000c 1489     		ldrh	r4, [r2, #8]	@ unaligned
 404              		.loc 1 95 0
 405 000e 2A78     		ldrb	r2, [r5]	@ zero_extendqisi2
 406              	.LVL37:
 407              		.loc 1 93 0
 408 0010 03C3     		stmia	r3!, {r0, r1}
 409 0012 1C80     		strh	r4, [r3]	@ unaligned
 410              		.loc 1 95 0
 411 0014 0AB9     		cbnz	r2, .L28
 412              		.loc 1 98 0
 413 0016 30BC     		pop	{r4, r5}
 414              		.cfi_remember_state
 415              		.cfi_restore 5
 416              		.cfi_restore 4
 417              		.cfi_def_cfa_offset 0
 418 0018 7047     		bx	lr
 419              	.L28:
 420              		.cfi_restore_state
 421 001a 30BC     		pop	{r4, r5}
 422              		.cfi_restore 5
 423              		.cfi_restore 4
 424              		.cfi_def_cfa_offset 0
 425              		.loc 1 96 0
 426 001c FFF7FEBF 		b	rfhelp_restart
 427              	.LVL38:
 428              	.L30:
 429              		.align	2
 430              	.L29:
 431 0020 00000000 		.word	.LANCHOR7
 432 0024 00000000 		.word	.LANCHOR6
 433              		.cfi_endproc
 434              	.LFE258:
 435              		.size	rfhelp_update_conf, .-rfhelp_update_conf
 436              		.section	.text.rfhelp_send_data,"ax",%progbits
 437              		.align	1
 438              		.p2align 4,,15
 439              		.global	rfhelp_send_data
 440              		.syntax unified
 441              		.thumb
 442              		.thumb_func
 443              		.fpu fpv4-sp-d16
 444              		.type	rfhelp_send_data, %function
 445              	rfhelp_send_data:
 446              	.LFB260:
 447              		.loc 1 158 0
 448              		.cfi_startproc
 449              		@ args = 0, pretend = 0, frame = 0
 450              		@ frame_needed = 0, uses_anonymous_args = 0
 451              	.LVL39:
 452 0000 F8B5     		push	{r3, r4, r5, r6, r7, lr}
 453              		.cfi_def_cfa_offset 24
 454              		.cfi_offset 3, -24
 455              		.cfi_offset 4, -20
 456              		.cfi_offset 5, -16
ARM GAS  C:\Users\CFAR\AppData\Local\Temp\ccQW1BcI.s 			page 9


 457              		.cfi_offset 6, -12
 458              		.cfi_offset 7, -8
 459              		.cfi_offset 14, -4
 460              		.loc 1 169 0
 461 0002 254E     		ldr	r6, .L56
 462              		.loc 1 158 0
 463 0004 0446     		mov	r4, r0
 464              		.loc 1 162 0
 465 0006 2548     		ldr	r0, .L56+4
 466              	.LVL40:
 467              		.loc 1 158 0
 468 0008 0D46     		mov	r5, r1
 469 000a 1746     		mov	r7, r2
 470              		.loc 1 162 0
 471 000c FFF7FEFF 		bl	chMtxLock
 472              	.LVL41:
 473              		.loc 1 164 0
 474 0010 FFF7FEFF 		bl	rf_mode_tx
 475              	.LVL42:
 476              		.loc 1 165 0
 477 0014 FFF7FEFF 		bl	rf_clear_irq
 478              	.LVL43:
 479              		.loc 1 166 0
 480 0018 FFF7FEFF 		bl	rf_flush_all
 481              	.LVL44:
 482              		.loc 1 169 0
 483 001c 3078     		ldrb	r0, [r6]	@ zero_extendqisi2
 484 001e 10BB     		cbnz	r0, .L32
 485              		.loc 1 169 0 is_stmt 0 discriminator 1
 486 0020 6FBB     		cbnz	r7, .L52
 487              	.L33:
 488              		.loc 1 176 0 is_stmt 1
 489 0022 2946     		mov	r1, r5
 490 0024 2046     		mov	r0, r4
 491 0026 FFF7FEFF 		bl	rf_write_tx_payload_no_ack
 492              	.LVL45:
 493              	.L36:
 494              		.loc 1 158 0
 495 002a 3C25     		movs	r5, #60
 496              	.LVL46:
 497 002c 03E0     		b	.L35
 498              	.LVL47:
 499              	.L55:
 500              	.LBB3:
 501              		.loc 1 188 0
 502 002e E306     		lsls	r3, r4, #27
 503 0030 20D4     		bmi	.L53
 504              		.loc 1 192 0
 505 0032 013D     		subs	r5, r5, #1
 506              	.LVL48:
 507 0034 2DD0     		beq	.L54
 508              	.LVL49:
 509              	.L35:
 510              		.loc 1 180 0
 511 0036 FFF7FEFF 		bl	rf_status
 512              	.LVL50:
 513 003a 0446     		mov	r4, r0
ARM GAS  C:\Users\CFAR\AppData\Local\Temp\ccQW1BcI.s 			page 10


 514              	.LVL51:
 515              		.loc 1 182 0
 516 003c 0A20     		movs	r0, #10
 517              	.LVL52:
 518 003e FFF7FEFF 		bl	chThdSleep
 519              	.LVL53:
 520              		.loc 1 185 0
 521 0042 A206     		lsls	r2, r4, #26
 522 0044 F3D5     		bpl	.L55
 523              		.loc 1 186 0
 524 0046 0024     		movs	r4, #0
 525              	.LVL54:
 526              	.L37:
 527              	.LBE3:
 528              		.loc 1 199 0
 529 0048 3078     		ldrb	r0, [r6]	@ zero_extendqisi2
 530 004a 28B9     		cbnz	r0, .L39
 531              		.loc 1 199 0 is_stmt 0 discriminator 1
 532 004c 27B1     		cbz	r7, .L39
 533              		.loc 1 200 0 is_stmt 1
 534 004e 144B     		ldr	r3, .L56+8
 535 0050 1449     		ldr	r1, .L56+12
 536 0052 1A68     		ldr	r2, [r3]
 537 0054 FFF7FEFF 		bl	rf_set_rx_addr
 538              	.LVL55:
 539              	.L39:
 540              		.loc 1 203 0
 541 0058 FFF7FEFF 		bl	rf_mode_rx
 542              	.LVL56:
 543              		.loc 1 205 0
 544 005c 0F48     		ldr	r0, .L56+4
 545 005e FFF7FEFF 		bl	chMtxUnlock
 546              	.LVL57:
 547              		.loc 1 208 0
 548 0062 2046     		mov	r0, r4
 549 0064 F8BD     		pop	{r3, r4, r5, r6, r7, pc}
 550              	.LVL58:
 551              	.L32:
 552              		.loc 1 173 0
 553 0066 002F     		cmp	r7, #0
 554 0068 DBD0     		beq	.L33
 555              		.loc 1 174 0
 556 006a 2946     		mov	r1, r5
 557 006c 2046     		mov	r0, r4
 558 006e FFF7FEFF 		bl	rf_write_tx_payload
 559              	.LVL59:
 560 0072 DAE7     		b	.L36
 561              	.LVL60:
 562              	.L53:
 563              	.LBB4:
 564              		.loc 1 189 0
 565 0074 FFF7FEFF 		bl	rf_clear_maxrt_irq
 566              	.LVL61:
 567              		.loc 1 190 0
 568 0078 4FF0FF34 		mov	r4, #-1
 569              	.LVL62:
 570              		.loc 1 191 0
ARM GAS  C:\Users\CFAR\AppData\Local\Temp\ccQW1BcI.s 			page 11


 571 007c E4E7     		b	.L37
 572              	.LVL63:
 573              	.L52:
 574              	.LBE4:
 575              		.loc 1 170 0
 576 007e 084B     		ldr	r3, .L56+8
 577 0080 0949     		ldr	r1, .L56+16
 578 0082 1A68     		ldr	r2, [r3]
 579 0084 FFF7FEFF 		bl	rf_set_rx_addr
 580              	.LVL64:
 581              		.loc 1 174 0
 582 0088 2946     		mov	r1, r5
 583 008a 2046     		mov	r0, r4
 584 008c FFF7FEFF 		bl	rf_write_tx_payload
 585              	.LVL65:
 586 0090 CBE7     		b	.L36
 587              	.LVL66:
 588              	.L54:
 589              	.LBB5:
 590              		.loc 1 193 0
 591 0092 6FF00104 		mvn	r4, #1
 592              	.LVL67:
 593 0096 D7E7     		b	.L37
 594              	.L57:
 595              		.align	2
 596              	.L56:
 597 0098 00000000 		.word	.LANCHOR5
 598 009c 00000000 		.word	.LANCHOR0
 599 00a0 00000000 		.word	.LANCHOR1
 600 00a4 00000000 		.word	.LANCHOR3
 601 00a8 00000000 		.word	.LANCHOR4
 602              	.LBE5:
 603              		.cfi_endproc
 604              	.LFE260:
 605              		.size	rfhelp_send_data, .-rfhelp_send_data
 606              		.section	.text.rfhelp_send_data_crc,"ax",%progbits
 607              		.align	1
 608              		.p2align 4,,15
 609              		.global	rfhelp_send_data_crc
 610              		.syntax unified
 611              		.thumb
 612              		.thumb_func
 613              		.fpu fpv4-sp-d16
 614              		.type	rfhelp_send_data_crc, %function
 615              	rfhelp_send_data_crc:
 616              	.LFB261:
 617              		.loc 1 226 0
 618              		.cfi_startproc
 619              		@ args = 0, pretend = 0, frame = 0
 620              		@ frame_needed = 1, uses_anonymous_args = 0
 621              	.LVL68:
 622 0000 F8B5     		push	{r3, r4, r5, r6, r7, lr}
 623              		.cfi_def_cfa_offset 24
 624              		.cfi_offset 3, -24
 625              		.cfi_offset 4, -20
 626              		.cfi_offset 5, -16
 627              		.cfi_offset 6, -12
ARM GAS  C:\Users\CFAR\AppData\Local\Temp\ccQW1BcI.s 			page 12


 628              		.cfi_offset 7, -8
 629              		.cfi_offset 14, -4
 630              		.loc 1 227 0
 631 0002 01F10903 		add	r3, r1, #9
 632 0006 23F00703 		bic	r3, r3, #7
 633              		.loc 1 226 0
 634 000a 00AF     		add	r7, sp, #0
 635              		.cfi_def_cfa_register 7
 636              		.loc 1 227 0
 637 000c ADEB030D 		sub	sp, sp, r3
 638              		.loc 1 226 0
 639 0010 0C46     		mov	r4, r1
 640 0012 0646     		mov	r6, r0
 641              		.loc 1 228 0
 642 0014 FFF7FEFF 		bl	crc16
 643              	.LVL69:
 644              		.loc 1 230 0
 645 0018 2246     		mov	r2, r4
 646              		.loc 1 228 0
 647 001a 0546     		mov	r5, r0
 648              		.loc 1 230 0
 649 001c 3146     		mov	r1, r6
 650 001e 6846     		mov	r0, sp
 651 0020 FFF7FEFF 		bl	memcpy
 652              	.LVL70:
 653              		.loc 1 232 0
 654 0024 0DEB0403 		add	r3, sp, r4
 655              		.loc 1 234 0
 656 0028 054A     		ldr	r2, .L60
 657              		.loc 1 231 0
 658 002a 280A     		lsrs	r0, r5, #8
 659 002c 0DF80400 		strb	r0, [sp, r4]
 660              		.loc 1 227 0
 661 0030 A11C     		adds	r1, r4, #2
 662              	.LVL71:
 663              		.loc 1 234 0
 664 0032 527A     		ldrb	r2, [r2, #9]	@ zero_extendqisi2
 665              		.loc 1 232 0
 666 0034 5D70     		strb	r5, [r3, #1]
 667              		.loc 1 234 0
 668 0036 6846     		mov	r0, sp
 669 0038 FFF7FEFF 		bl	rfhelp_send_data
 670              	.LVL72:
 671              		.loc 1 235 0
 672 003c BD46     		mov	sp, r7
 673              		.cfi_def_cfa_register 13
 674              	.LVL73:
 675              		@ sp needed
 676 003e F8BD     		pop	{r3, r4, r5, r6, r7, pc}
 677              	.LVL74:
 678              	.L61:
 679              		.align	2
 680              	.L60:
 681 0040 00000000 		.word	.LANCHOR7
 682              		.cfi_endproc
 683              	.LFE261:
 684              		.size	rfhelp_send_data_crc, .-rfhelp_send_data_crc
ARM GAS  C:\Users\CFAR\AppData\Local\Temp\ccQW1BcI.s 			page 13


 685              		.section	.text.rfhelp_read_rx_data,"ax",%progbits
 686              		.align	1
 687              		.p2align 4,,15
 688              		.global	rfhelp_read_rx_data
 689              		.syntax unified
 690              		.thumb
 691              		.thumb_func
 692              		.fpu fpv4-sp-d16
 693              		.type	rfhelp_read_rx_data, %function
 694              	rfhelp_read_rx_data:
 695              	.LFB262:
 696              		.loc 1 255 0
 697              		.cfi_startproc
 698              		@ args = 0, pretend = 0, frame = 0
 699              		@ frame_needed = 0, uses_anonymous_args = 0
 700              	.LVL75:
 701 0000 F8B5     		push	{r3, r4, r5, r6, r7, lr}
 702              		.cfi_def_cfa_offset 24
 703              		.cfi_offset 3, -24
 704              		.cfi_offset 4, -20
 705              		.cfi_offset 5, -16
 706              		.cfi_offset 6, -12
 707              		.cfi_offset 7, -8
 708              		.cfi_offset 14, -4
 709              		.loc 1 255 0
 710 0002 0746     		mov	r7, r0
 711              		.loc 1 258 0
 712 0004 1648     		ldr	r0, .L71
 713              	.LVL76:
 714              		.loc 1 255 0
 715 0006 0C46     		mov	r4, r1
 716 0008 1646     		mov	r6, r2
 717              		.loc 1 258 0
 718 000a FFF7FEFF 		bl	chMtxLock
 719              	.LVL77:
 720              		.loc 1 260 0
 721 000e FFF7FEFF 		bl	rf_status
 722              	.LVL78:
 723              		.loc 1 261 0
 724 0012 C0F34205 		ubfx	r5, r0, #1, #3
 725              	.LVL79:
 726              		.loc 1 263 0
 727 0016 072D     		cmp	r5, #7
 728 0018 1ED0     		beq	.L66
 729              		.loc 1 264 0
 730 001a FFF7FEFF 		bl	rf_get_payload_width
 731              	.LVL80:
 732 001e 2060     		str	r0, [r4]
 733              		.loc 1 265 0
 734 0020 0EB1     		cbz	r6, .L64
 735              		.loc 1 266 0
 736 0022 3560     		str	r5, [r6]
 737 0024 2068     		ldr	r0, [r4]
 738              	.L64:
 739              		.loc 1 268 0
 740 0026 2028     		cmp	r0, #32
 741 0028 11D8     		bhi	.L65
ARM GAS  C:\Users\CFAR\AppData\Local\Temp\ccQW1BcI.s 			page 14


 742              		.loc 1 269 0
 743 002a 0146     		mov	r1, r0
 744 002c 3846     		mov	r0, r7
 745 002e FFF7FEFF 		bl	rf_read_rx_payload
 746              	.LVL81:
 747              		.loc 1 270 0
 748 0032 FFF7FEFF 		bl	rf_clear_rx_irq
 749              	.LVL82:
 750              		.loc 1 273 0
 751 0036 FFF7FEFF 		bl	rf_status
 752              	.LVL83:
 753              		.loc 1 274 0
 754 003a C0F34200 		ubfx	r0, r0, #1, #3
 755              	.LVL84:
 756 003e C41F     		subs	r4, r0, #7
 757              	.LVL85:
 758 0040 18BF     		it	ne
 759 0042 0124     		movne	r4, #1
 760              	.LVL86:
 761              	.L63:
 762              		.loc 1 285 0
 763 0044 0648     		ldr	r0, .L71
 764 0046 FFF7FEFF 		bl	chMtxUnlock
 765              	.LVL87:
 766              		.loc 1 288 0
 767 004a 2046     		mov	r0, r4
 768 004c F8BD     		pop	{r3, r4, r5, r6, r7, pc}
 769              	.LVL88:
 770              	.L65:
 771              		.loc 1 280 0
 772 004e 0023     		movs	r3, #0
 773 0050 2360     		str	r3, [r4]
 774              	.LVL89:
 775              		.loc 1 281 0
 776 0052 6FF00104 		mvn	r4, #1
 777              	.LVL90:
 778 0056 F5E7     		b	.L63
 779              	.LVL91:
 780              	.L66:
 781              		.loc 1 256 0
 782 0058 4FF0FF34 		mov	r4, #-1
 783              	.LVL92:
 784 005c F2E7     		b	.L63
 785              	.L72:
 786 005e 00BF     		.align	2
 787              	.L71:
 788 0060 00000000 		.word	.LANCHOR0
 789              		.cfi_endproc
 790              	.LFE262:
 791              		.size	rfhelp_read_rx_data, .-rfhelp_read_rx_data
 792              		.section	.text.rfhelp_read_rx_data_crc,"ax",%progbits
 793              		.align	1
 794              		.p2align 4,,15
 795              		.global	rfhelp_read_rx_data_crc
 796              		.syntax unified
 797              		.thumb
 798              		.thumb_func
ARM GAS  C:\Users\CFAR\AppData\Local\Temp\ccQW1BcI.s 			page 15


 799              		.fpu fpv4-sp-d16
 800              		.type	rfhelp_read_rx_data_crc, %function
 801              	rfhelp_read_rx_data_crc:
 802              	.LFB263:
 803              		.loc 1 310 0
 804              		.cfi_startproc
 805              		@ args = 0, pretend = 0, frame = 0
 806              		@ frame_needed = 0, uses_anonymous_args = 0
 807              	.LVL93:
 808 0000 70B5     		push	{r4, r5, r6, lr}
 809              		.cfi_def_cfa_offset 16
 810              		.cfi_offset 4, -16
 811              		.cfi_offset 5, -12
 812              		.cfi_offset 6, -8
 813              		.cfi_offset 14, -4
 814              		.loc 1 310 0
 815 0002 0546     		mov	r5, r0
 816 0004 0C46     		mov	r4, r1
 817              		.loc 1 311 0
 818 0006 FFF7FEFF 		bl	rfhelp_read_rx_data
 819              	.LVL94:
 820              		.loc 1 313 0
 821 000a 061E     		subs	r6, r0, #0
 822 000c 1ADB     		blt	.L78
 823              		.loc 1 313 0 is_stmt 0 discriminator 1
 824 000e 2368     		ldr	r3, [r4]
 825 0010 022B     		cmp	r3, #2
 826 0012 A3F10201 		sub	r1, r3, #2
 827 0016 02DC     		bgt	.L79
 828              		.loc 1 321 0 is_stmt 1
 829 0018 2160     		str	r1, [r4]
 830              		.loc 1 324 0
 831 001a 3046     		mov	r0, r6
 832 001c 70BD     		pop	{r4, r5, r6, pc}
 833              	.LVL95:
 834              	.L79:
 835              	.LBB6:
 836              		.loc 1 314 0
 837 001e 2846     		mov	r0, r5
 838              	.LVL96:
 839 0020 FFF7FEFF 		bl	crc16
 840              	.LVL97:
 841              		.loc 1 316 0
 842 0024 2168     		ldr	r1, [r4]
 843 0026 0D44     		add	r5, r5, r1
 844              	.LVL98:
 845 0028 0239     		subs	r1, r1, #2
 846 002a 15F8022C 		ldrb	r2, [r5, #-2]	@ zero_extendqisi2
 847 002e 15F8013C 		ldrb	r3, [r5, #-1]	@ zero_extendqisi2
 848              	.LBE6:
 849              		.loc 1 321 0
 850 0032 2160     		str	r1, [r4]
 851              	.LBB7:
 852              		.loc 1 316 0
 853 0034 43EA0223 		orr	r3, r3, r2, lsl #8
 854 0038 9842     		cmp	r0, r3
 855              	.LVL99:
ARM GAS  C:\Users\CFAR\AppData\Local\Temp\ccQW1BcI.s 			page 16


 856              		.loc 1 317 0
 857 003a 18BF     		it	ne
 858 003c 6FF00206 		mvnne	r6, #2
 859              	.LVL100:
 860              	.LBE7:
 861              		.loc 1 324 0
 862 0040 3046     		mov	r0, r6
 863              	.LVL101:
 864 0042 70BD     		pop	{r4, r5, r6, pc}
 865              	.LVL102:
 866              	.L78:
 867 0044 2168     		ldr	r1, [r4]
 868 0046 0239     		subs	r1, r1, #2
 869              		.loc 1 321 0
 870 0048 2160     		str	r1, [r4]
 871              		.loc 1 324 0
 872 004a 3046     		mov	r0, r6
 873 004c 70BD     		pop	{r4, r5, r6, pc}
 874              		.cfi_endproc
 875              	.LFE263:
 876              		.size	rfhelp_read_rx_data_crc, .-rfhelp_read_rx_data_crc
 877 004e 00BF     		.section	.text.rfhelp_rf_status,"ax",%progbits
 878              		.align	1
 879              		.p2align 4,,15
 880              		.global	rfhelp_rf_status
 881              		.syntax unified
 882              		.thumb
 883              		.thumb_func
 884              		.fpu fpv4-sp-d16
 885              		.type	rfhelp_rf_status, %function
 886              	rfhelp_rf_status:
 887              	.LFB264:
 888              		.loc 1 326 0
 889              		.cfi_startproc
 890              		@ args = 0, pretend = 0, frame = 0
 891              		@ frame_needed = 0, uses_anonymous_args = 0
 892 0000 38B5     		push	{r3, r4, r5, lr}
 893              		.cfi_def_cfa_offset 16
 894              		.cfi_offset 3, -16
 895              		.cfi_offset 4, -12
 896              		.cfi_offset 5, -8
 897              		.cfi_offset 14, -4
 898              		.loc 1 327 0
 899 0002 064C     		ldr	r4, .L82
 900 0004 2046     		mov	r0, r4
 901 0006 FFF7FEFF 		bl	chMtxLock
 902              	.LVL103:
 903              		.loc 1 328 0
 904 000a FFF7FEFF 		bl	rf_status
 905              	.LVL104:
 906 000e 0546     		mov	r5, r0
 907              	.LVL105:
 908              		.loc 1 329 0
 909 0010 2046     		mov	r0, r4
 910              	.LVL106:
 911 0012 FFF7FEFF 		bl	chMtxUnlock
 912              	.LVL107:
ARM GAS  C:\Users\CFAR\AppData\Local\Temp\ccQW1BcI.s 			page 17


 913              		.loc 1 332 0
 914 0016 2846     		mov	r0, r5
 915 0018 38BD     		pop	{r3, r4, r5, pc}
 916              	.LVL108:
 917              	.L83:
 918 001a 00BF     		.align	2
 919              	.L82:
 920 001c 00000000 		.word	.LANCHOR0
 921              		.cfi_endproc
 922              	.LFE264:
 923              		.size	rfhelp_rf_status, .-rfhelp_rf_status
 924              		.section	.text.rfhelp_set_tx_addr,"ax",%progbits
 925              		.align	1
 926              		.p2align 4,,15
 927              		.global	rfhelp_set_tx_addr
 928              		.syntax unified
 929              		.thumb
 930              		.thumb_func
 931              		.fpu fpv4-sp-d16
 932              		.type	rfhelp_set_tx_addr, %function
 933              	rfhelp_set_tx_addr:
 934              	.LFB265:
 935              		.loc 1 334 0
 936              		.cfi_startproc
 937              		@ args = 0, pretend = 0, frame = 0
 938              		@ frame_needed = 0, uses_anonymous_args = 0
 939              	.LVL109:
 940 0000 F8B5     		push	{r3, r4, r5, r6, r7, lr}
 941              		.cfi_def_cfa_offset 24
 942              		.cfi_offset 3, -24
 943              		.cfi_offset 4, -20
 944              		.cfi_offset 5, -16
 945              		.cfi_offset 6, -12
 946              		.cfi_offset 7, -8
 947              		.cfi_offset 14, -4
 948              		.loc 1 335 0
 949 0002 104E     		ldr	r6, .L86
 950              		.loc 1 336 0
 951 0004 104D     		ldr	r5, .L86+4
 952              		.loc 1 334 0
 953 0006 0C46     		mov	r4, r1
 954 0008 0746     		mov	r7, r0
 955              		.loc 1 335 0
 956 000a 3046     		mov	r0, r6
 957              	.LVL110:
 958 000c FFF7FEFF 		bl	chMtxLock
 959              	.LVL111:
 960              		.loc 1 336 0
 961 0010 3946     		mov	r1, r7
 962 0012 2246     		mov	r2, r4
 963 0014 2846     		mov	r0, r5
 964 0016 FFF7FEFF 		bl	memcpy
 965              	.LVL112:
 966              		.loc 1 337 0
 967 001a 0C4B     		ldr	r3, .L86+8
 968              		.loc 1 339 0
 969 001c 0C48     		ldr	r0, .L86+12
ARM GAS  C:\Users\CFAR\AppData\Local\Temp\ccQW1BcI.s 			page 18


 970              		.loc 1 337 0
 971 001e 1C60     		str	r4, [r3]
 972              		.loc 1 339 0
 973 0020 2246     		mov	r2, r4
 974 0022 2946     		mov	r1, r5
 975 0024 FFF7FEFF 		bl	memcmp
 976              	.LVL113:
 977 0028 0A4A     		ldr	r2, .L86+16
 978 002a B0FA80F3 		clz	r3, r0
 979 002e 5B09     		lsrs	r3, r3, #5
 980              		.loc 1 341 0
 981 0030 2846     		mov	r0, r5
 982 0032 2146     		mov	r1, r4
 983              		.loc 1 339 0
 984 0034 1370     		strb	r3, [r2]
 985              		.loc 1 341 0
 986 0036 FFF7FEFF 		bl	rf_set_tx_addr
 987              	.LVL114:
 988              		.loc 1 342 0
 989 003a 3046     		mov	r0, r6
 990              		.loc 1 343 0
 991 003c BDE8F840 		pop	{r3, r4, r5, r6, r7, lr}
 992              		.cfi_restore 14
 993              		.cfi_restore 7
 994              		.cfi_restore 6
 995              		.cfi_restore 5
 996              		.cfi_restore 4
 997              		.cfi_restore 3
 998              		.cfi_def_cfa_offset 0
 999              	.LVL115:
 1000              		.loc 1 342 0
 1001 0040 FFF7FEBF 		b	chMtxUnlock
 1002              	.LVL116:
 1003              	.L87:
 1004              		.align	2
 1005              	.L86:
 1006 0044 00000000 		.word	.LANCHOR0
 1007 0048 00000000 		.word	.LANCHOR4
 1008 004c 00000000 		.word	.LANCHOR1
 1009 0050 00000000 		.word	.LANCHOR3
 1010 0054 00000000 		.word	.LANCHOR5
 1011              		.cfi_endproc
 1012              	.LFE265:
 1013              		.size	rfhelp_set_tx_addr, .-rfhelp_set_tx_addr
 1014              		.section	.text.rfhelp_set_rx_addr,"ax",%progbits
 1015              		.align	1
 1016              		.p2align 4,,15
 1017              		.global	rfhelp_set_rx_addr
 1018              		.syntax unified
 1019              		.thumb
 1020              		.thumb_func
 1021              		.fpu fpv4-sp-d16
 1022              		.type	rfhelp_set_rx_addr, %function
 1023              	rfhelp_set_rx_addr:
 1024              	.LFB266:
 1025              		.loc 1 345 0
 1026              		.cfi_startproc
ARM GAS  C:\Users\CFAR\AppData\Local\Temp\ccQW1BcI.s 			page 19


 1027              		@ args = 0, pretend = 0, frame = 0
 1028              		@ frame_needed = 0, uses_anonymous_args = 0
 1029              	.LVL117:
 1030 0000 2DE9F041 		push	{r4, r5, r6, r7, r8, lr}
 1031              		.cfi_def_cfa_offset 24
 1032              		.cfi_offset 4, -24
 1033              		.cfi_offset 5, -20
 1034              		.cfi_offset 6, -16
 1035              		.cfi_offset 7, -12
 1036              		.cfi_offset 8, -8
 1037              		.cfi_offset 14, -4
 1038              		.loc 1 346 0
 1039 0004 134E     		ldr	r6, .L90
 1040              		.loc 1 347 0
 1041 0006 DFF85880 		ldr	r8, .L90+12
 1042              		.loc 1 345 0
 1043 000a 0546     		mov	r5, r0
 1044              		.loc 1 346 0
 1045 000c 3046     		mov	r0, r6
 1046              	.LVL118:
 1047              		.loc 1 345 0
 1048 000e 1446     		mov	r4, r2
 1049 0010 0F46     		mov	r7, r1
 1050              		.loc 1 346 0
 1051 0012 FFF7FEFF 		bl	chMtxLock
 1052              	.LVL119:
 1053              		.loc 1 347 0
 1054 0016 05EB8500 		add	r0, r5, r5, lsl #2
 1055 001a 2246     		mov	r2, r4
 1056 001c 3946     		mov	r1, r7
 1057 001e 4044     		add	r0, r0, r8
 1058 0020 FFF7FEFF 		bl	memcpy
 1059              	.LVL120:
 1060              		.loc 1 348 0
 1061 0024 0C4B     		ldr	r3, .L90+4
 1062              		.loc 1 350 0
 1063 0026 0D49     		ldr	r1, .L90+8
 1064              		.loc 1 348 0
 1065 0028 1C60     		str	r4, [r3]
 1066              		.loc 1 350 0
 1067 002a 2246     		mov	r2, r4
 1068 002c 4046     		mov	r0, r8
 1069 002e FFF7FEFF 		bl	memcmp
 1070              	.LVL121:
 1071 0032 DFF830C0 		ldr	ip, .L90+16
 1072 0036 B0FA80F3 		clz	r3, r0
 1073 003a 5B09     		lsrs	r3, r3, #5
 1074              		.loc 1 353 0
 1075 003c 2846     		mov	r0, r5
 1076 003e 2246     		mov	r2, r4
 1077 0040 3946     		mov	r1, r7
 1078              		.loc 1 350 0
 1079 0042 8CF80030 		strb	r3, [ip]
 1080              		.loc 1 353 0
 1081 0046 FFF7FEFF 		bl	rf_set_rx_addr
 1082              	.LVL122:
 1083              		.loc 1 354 0
ARM GAS  C:\Users\CFAR\AppData\Local\Temp\ccQW1BcI.s 			page 20


 1084 004a 3046     		mov	r0, r6
 1085              		.loc 1 355 0
 1086 004c BDE8F041 		pop	{r4, r5, r6, r7, r8, lr}
 1087              		.cfi_restore 14
 1088              		.cfi_restore 8
 1089              		.cfi_restore 7
 1090              		.cfi_restore 6
 1091              		.cfi_restore 5
 1092              		.cfi_restore 4
 1093              		.cfi_def_cfa_offset 0
 1094              	.LVL123:
 1095              		.loc 1 354 0
 1096 0050 FFF7FEBF 		b	chMtxUnlock
 1097              	.LVL124:
 1098              	.L91:
 1099              		.align	2
 1100              	.L90:
 1101 0054 00000000 		.word	.LANCHOR0
 1102 0058 00000000 		.word	.LANCHOR1
 1103 005c 00000000 		.word	.LANCHOR4
 1104 0060 00000000 		.word	.LANCHOR3
 1105 0064 00000000 		.word	.LANCHOR5
 1106              		.cfi_endproc
 1107              	.LFE266:
 1108              		.size	rfhelp_set_rx_addr, .-rfhelp_set_rx_addr
 1109              		.section	.text.rfhelp_power_down,"ax",%progbits
 1110              		.align	1
 1111              		.p2align 4,,15
 1112              		.global	rfhelp_power_down
 1113              		.syntax unified
 1114              		.thumb
 1115              		.thumb_func
 1116              		.fpu fpv4-sp-d16
 1117              		.type	rfhelp_power_down, %function
 1118              	rfhelp_power_down:
 1119              	.LFB267:
 1120              		.loc 1 357 0
 1121              		.cfi_startproc
 1122              		@ args = 0, pretend = 0, frame = 0
 1123              		@ frame_needed = 0, uses_anonymous_args = 0
 1124 0000 10B5     		push	{r4, lr}
 1125              		.cfi_def_cfa_offset 8
 1126              		.cfi_offset 4, -8
 1127              		.cfi_offset 14, -4
 1128              		.loc 1 358 0
 1129 0002 054C     		ldr	r4, .L94
 1130 0004 2046     		mov	r0, r4
 1131 0006 FFF7FEFF 		bl	chMtxLock
 1132              	.LVL125:
 1133              		.loc 1 359 0
 1134 000a FFF7FEFF 		bl	rf_power_down
 1135              	.LVL126:
 1136              		.loc 1 360 0
 1137 000e 2046     		mov	r0, r4
 1138              		.loc 1 361 0
 1139 0010 BDE81040 		pop	{r4, lr}
 1140              		.cfi_restore 14
ARM GAS  C:\Users\CFAR\AppData\Local\Temp\ccQW1BcI.s 			page 21


 1141              		.cfi_restore 4
 1142              		.cfi_def_cfa_offset 0
 1143              		.loc 1 360 0
 1144 0014 FFF7FEBF 		b	chMtxUnlock
 1145              	.LVL127:
 1146              	.L95:
 1147              		.align	2
 1148              	.L94:
 1149 0018 00000000 		.word	.LANCHOR0
 1150              		.cfi_endproc
 1151              	.LFE267:
 1152              		.size	rfhelp_power_down, .-rfhelp_power_down
 1153              		.section	.text.rfhelp_power_up,"ax",%progbits
 1154              		.align	1
 1155              		.p2align 4,,15
 1156              		.global	rfhelp_power_up
 1157              		.syntax unified
 1158              		.thumb
 1159              		.thumb_func
 1160              		.fpu fpv4-sp-d16
 1161              		.type	rfhelp_power_up, %function
 1162              	rfhelp_power_up:
 1163              	.LFB268:
 1164              		.loc 1 363 0
 1165              		.cfi_startproc
 1166              		@ args = 0, pretend = 0, frame = 0
 1167              		@ frame_needed = 0, uses_anonymous_args = 0
 1168 0000 10B5     		push	{r4, lr}
 1169              		.cfi_def_cfa_offset 8
 1170              		.cfi_offset 4, -8
 1171              		.cfi_offset 14, -4
 1172              		.loc 1 364 0
 1173 0002 054C     		ldr	r4, .L98
 1174 0004 2046     		mov	r0, r4
 1175 0006 FFF7FEFF 		bl	chMtxLock
 1176              	.LVL128:
 1177              		.loc 1 365 0
 1178 000a FFF7FEFF 		bl	rf_power_up
 1179              	.LVL129:
 1180              		.loc 1 366 0
 1181 000e 2046     		mov	r0, r4
 1182              		.loc 1 367 0
 1183 0010 BDE81040 		pop	{r4, lr}
 1184              		.cfi_restore 14
 1185              		.cfi_restore 4
 1186              		.cfi_def_cfa_offset 0
 1187              		.loc 1 366 0
 1188 0014 FFF7FEBF 		b	chMtxUnlock
 1189              	.LVL130:
 1190              	.L99:
 1191              		.align	2
 1192              	.L98:
 1193 0018 00000000 		.word	.LANCHOR0
 1194              		.cfi_endproc
 1195              	.LFE268:
 1196              		.size	rfhelp_power_up, .-rfhelp_power_up
 1197              		.section	.rodata
ARM GAS  C:\Users\CFAR\AppData\Local\Temp\ccQW1BcI.s 			page 22


 1198              		.align	2
 1199              		.set	.LANCHOR2,. + 0
 1200              	.LC0:
 1201 0000 12       		.byte	18
 1202 0001 41       		.byte	65
 1203 0002 F3       		.byte	-13
 1204              		.section	.bss.address_length,"aw",%nobits
 1205              		.align	2
 1206              		.set	.LANCHOR1,. + 0
 1207              		.type	address_length, %object
 1208              		.size	address_length, 4
 1209              	address_length:
 1210 0000 00000000 		.space	4
 1211              		.section	.bss.init_done,"aw",%nobits
 1212              		.set	.LANCHOR6,. + 0
 1213              		.type	init_done, %object
 1214              		.size	init_done, 1
 1215              	init_done:
 1216 0000 00       		.space	1
 1217              		.section	.bss.nrf_conf,"aw",%nobits
 1218              		.align	2
 1219              		.set	.LANCHOR7,. + 0
 1220              		.type	nrf_conf, %object
 1221              		.size	nrf_conf, 10
 1222              	nrf_conf:
 1223 0000 00000000 		.space	10
 1223      00000000 
 1223      0000
 1224              		.section	.bss.rf_mutex,"aw",%nobits
 1225              		.align	2
 1226              		.set	.LANCHOR0,. + 0
 1227              		.type	rf_mutex, %object
 1228              		.size	rf_mutex, 16
 1229              	rf_mutex:
 1230 0000 00000000 		.space	16
 1230      00000000 
 1230      00000000 
 1230      00000000 
 1231              		.section	.bss.rx_addr,"aw",%nobits
 1232              		.align	2
 1233              		.set	.LANCHOR3,. + 0
 1234              		.type	rx_addr, %object
 1235              		.size	rx_addr, 30
 1236              	rx_addr:
 1237 0000 00000000 		.space	30
 1237      00000000 
 1237      00000000 
 1237      00000000 
 1237      00000000 
 1238              		.section	.bss.tx_addr,"aw",%nobits
 1239              		.align	2
 1240              		.set	.LANCHOR4,. + 0
 1241              		.type	tx_addr, %object
 1242              		.size	tx_addr, 5
 1243              	tx_addr:
 1244 0000 00000000 		.space	5
 1244      00
ARM GAS  C:\Users\CFAR\AppData\Local\Temp\ccQW1BcI.s 			page 23


 1245              		.section	.bss.tx_pipe0_addr_eq,"aw",%nobits
 1246              		.set	.LANCHOR5,. + 0
 1247              		.type	tx_pipe0_addr_eq, %object
 1248              		.size	tx_pipe0_addr_eq, 1
 1249              	tx_pipe0_addr_eq:
 1250 0000 00       		.space	1
 1251              		.text
 1252              	.Letext0:
 1253              		.file 2 "c:\\st\\stm32cubeide_1.3.0\\stm32cubeide\\plugins\\com.st.stm32cube.ide.mcu.externaltools
 1254              		.file 3 "c:\\st\\stm32cubeide_1.3.0\\stm32cubeide\\plugins\\com.st.stm32cube.ide.mcu.externaltools
 1255              		.file 4 "c:\\st\\stm32cubeide_1.3.0\\stm32cubeide\\plugins\\com.st.stm32cube.ide.mcu.externaltools
 1256              		.file 5 "ChibiOS_3.0.5/os/rt/ports/ARMCMx/compilers/GCC/chtypes.h"
 1257              		.file 6 "ChibiOS_3.0.5/os/rt/include/chsystypes.h"
 1258              		.file 7 "ChibiOS_3.0.5/os/rt/include/chschd.h"
 1259              		.file 8 "ChibiOS_3.0.5/os/ext/CMSIS/include/core_cm4.h"
 1260              		.file 9 "ChibiOS_3.0.5/os/ext/CMSIS/ST/system_stm32f4xx.h"
 1261              		.file 10 "ChibiOS_3.0.5/os/ext/CMSIS/ST/stm32f407xx.h"
 1262              		.file 11 "ChibiOS_3.0.5/os/rt/ports/ARMCMx/chcore.h"
 1263              		.file 12 "ChibiOS_3.0.5/os/rt/ports/ARMCMx/chcore_v7m.h"
 1264              		.file 13 "ChibiOS_3.0.5/os/rt/include/chtm.h"
 1265              		.file 14 "ChibiOS_3.0.5/os/rt/include/chsem.h"
 1266              		.file 15 "ChibiOS_3.0.5/os/rt/include/chmtx.h"
 1267              		.file 16 "ChibiOS_3.0.5/os/rt/include/chregistry.h"
 1268              		.file 17 "ChibiOS_3.0.5/os/rt/include/chevents.h"
 1269              		.file 18 "ChibiOS_3.0.5/os/rt/include/chqueues.h"
 1270              		.file 19 "./datatypes.h"
 1271              		.file 20 "./conf_general.h"
 1272              		.file 21 "ChibiOS_3.0.5/os/hal/ports/STM32/STM32F4xx/stm32_dma.h"
 1273              		.file 22 "ChibiOS_3.0.5/os/hal/ports/STM32/LLD/GPIOv2/pal_lld.h"
 1274              		.file 23 "ChibiOS_3.0.5/os/hal/include/can.h"
 1275              		.file 24 "ChibiOS_3.0.5/os/hal/ports/STM32/LLD/can_lld.h"
 1276              		.file 25 "ChibiOS_3.0.5/os/hal/include/i2c.h"
 1277              		.file 26 "ChibiOS_3.0.5/os/hal/ports/STM32/LLD/I2Cv1/i2c_lld.h"
 1278              		.file 27 "ChibiOS_3.0.5/os/hal/include/icu.h"
 1279              		.file 28 "ChibiOS_3.0.5/os/hal/ports/STM32/LLD/TIMv1/icu_lld.h"
 1280              		.file 29 "ChibiOS_3.0.5/os/hal/ports/STM32/LLD/TIMv1/stm32_tim.h"
 1281              		.file 30 "ChibiOS_3.0.5/os/hal/include/serial.h"
 1282              		.file 31 "ChibiOS_3.0.5/os/hal/ports/STM32/LLD/USARTv1/serial_lld.h"
 1283              		.file 32 "ChibiOS_3.0.5/os/hal/include/spi.h"
 1284              		.file 33 "ChibiOS_3.0.5/os/hal/ports/STM32/LLD/SPIv1/spi_lld.h"
 1285              		.file 34 "ChibiOS_3.0.5/os/hal/include/usb.h"
 1286              		.file 35 "ChibiOS_3.0.5/os/hal/ports/STM32/LLD/OTGv1/usb_lld.h"
 1287              		.file 36 "ChibiOS_3.0.5/os/hal/ports/STM32/LLD/OTGv1/stm32_otg.h"
 1288              		.file 37 "c:\\st\\stm32cubeide_1.3.0\\stm32cubeide\\plugins\\com.st.stm32cube.ide.mcu.externaltool
 1289              		.file 38 "c:\\st\\stm32cubeide_1.3.0\\stm32cubeide\\plugins\\com.st.stm32cube.ide.mcu.externaltool
 1290              		.file 39 "c:\\st\\stm32cubeide_1.3.0\\stm32cubeide\\plugins\\com.st.stm32cube.ide.mcu.externaltool
 1291              		.file 40 "nrf/rf.h"
 1292              		.file 41 "<built-in>"
 1293              		.file 42 "./crc.h"
 1294              		.file 43 "ChibiOS_3.0.5/os/rt/include/chthreads.h"
