ARM GAS  C:\Users\CFAR\AppData\Local\Temp\ccjlcOts.s 			page 1


   1              		.cpu cortex-m4
   2              		.eabi_attribute 27, 1
   3              		.eabi_attribute 28, 1
   4              		.eabi_attribute 20, 1
   5              		.eabi_attribute 21, 1
   6              		.eabi_attribute 23, 3
   7              		.eabi_attribute 24, 1
   8              		.eabi_attribute 25, 1
   9              		.eabi_attribute 26, 1
  10              		.eabi_attribute 30, 2
  11              		.eabi_attribute 34, 1
  12              		.eabi_attribute 18, 4
  13              		.file	"spi_lld.c"
  14              		.text
  15              	.Ltext0:
  16              		.cfi_sections	.debug_frame
  17              		.section	.text.spi_lld_serve_tx_interrupt,"ax",%progbits
  18              		.align	1
  19              		.p2align 4,,15
  20              		.syntax unified
  21              		.thumb
  22              		.thumb_func
  23              		.fpu fpv4-sp-d16
  24              		.type	spi_lld_serve_tx_interrupt, %function
  25              	spi_lld_serve_tx_interrupt:
  26              	.LFB257:
  27              		.file 1 "ChibiOS_3.0.5/os/hal/ports/STM32/LLD/SPIv1/spi_lld.c"
  28              		.loc 1 158 0
  29              		.cfi_startproc
  30              		@ args = 0, pretend = 0, frame = 0
  31              		@ frame_needed = 0, uses_anonymous_args = 0
  32              		@ link register save eliminated.
  33              	.LVL0:
  34              		.loc 1 163 0
  35 0000 11F00C0F 		tst	r1, #12
  36 0004 00D1     		bne	.L4
  37              		.loc 1 170 0
  38 0006 7047     		bx	lr
  39              	.L4:
  40              	.LVL1:
  41              	.LBB56:
  42              	.LBB57:
  43              		.file 2 "ChibiOS_3.0.5/os/hal/osal/rt/osal.h"
  44              		.loc 2 462 0
  45 0008 0148     		ldr	r0, .L5
  46              	.LVL2:
  47 000a FFF7FEBF 		b	chSysHalt
  48              	.LVL3:
  49              	.L6:
  50 000e 00BF     		.align	2
  51              	.L5:
  52 0010 00000000 		.word	.LC0
  53              	.LBE57:
  54              	.LBE56:
  55              		.cfi_endproc
  56              	.LFE257:
  57              		.size	spi_lld_serve_tx_interrupt, .-spi_lld_serve_tx_interrupt
ARM GAS  C:\Users\CFAR\AppData\Local\Temp\ccjlcOts.s 			page 2


  58              		.section	.text.spi_lld_serve_rx_interrupt,"ax",%progbits
  59              		.align	1
  60              		.p2align 4,,15
  61              		.syntax unified
  62              		.thumb
  63              		.thumb_func
  64              		.fpu fpv4-sp-d16
  65              		.type	spi_lld_serve_rx_interrupt, %function
  66              	spi_lld_serve_rx_interrupt:
  67              	.LFB256:
  68              		.loc 1 132 0
  69              		.cfi_startproc
  70              		@ args = 0, pretend = 0, frame = 0
  71              		@ frame_needed = 0, uses_anonymous_args = 0
  72              	.LVL4:
  73              		.loc 1 136 0
  74 0000 11F00C0F 		tst	r1, #12
  75              		.loc 1 132 0
  76 0004 38B5     		push	{r3, r4, r5, lr}
  77              		.cfi_def_cfa_offset 16
  78              		.cfi_offset 3, -16
  79              		.cfi_offset 4, -12
  80              		.cfi_offset 5, -8
  81              		.cfi_offset 14, -4
  82              		.loc 1 132 0
  83 0006 0446     		mov	r4, r0
  84              		.loc 1 136 0
  85 0008 30D1     		bne	.L22
  86              	.LVL5:
  87              	.L8:
  88              		.loc 1 144 0
  89 000a 606A     		ldr	r0, [r4, #36]
  90 000c 0268     		ldr	r2, [r0]
  91 000e 1368     		ldr	r3, [r2]
  92 0010 23F01F03 		bic	r3, r3, #31
  93 0014 1360     		str	r3, [r2]
  94              	.L9:
  95              		.loc 1 144 0 is_stmt 0 discriminator 2
  96 0016 1368     		ldr	r3, [r2]
  97 0018 D907     		lsls	r1, r3, #31
  98 001a FCD4     		bmi	.L9
  99              		.loc 1 144 0 discriminator 3
 100 001c 057A     		ldrb	r5, [r0, #8]	@ zero_extendqisi2
 101              		.loc 1 145 0 is_stmt 1 discriminator 3
 102 001e 216A     		ldr	r1, [r4, #32]
 103              		.loc 1 144 0 discriminator 3
 104 0020 4068     		ldr	r0, [r0, #4]
 105              		.loc 1 145 0 discriminator 3
 106 0022 0A68     		ldr	r2, [r1]
 107              		.loc 1 144 0 discriminator 3
 108 0024 3D23     		movs	r3, #61
 109 0026 AB40     		lsls	r3, r3, r5
 110 0028 0360     		str	r3, [r0]
 111              		.loc 1 145 0 discriminator 3
 112 002a 1368     		ldr	r3, [r2]
 113 002c 23F01F03 		bic	r3, r3, #31
 114 0030 1360     		str	r3, [r2]
ARM GAS  C:\Users\CFAR\AppData\Local\Temp\ccjlcOts.s 			page 3


 115              	.L10:
 116              		.loc 1 145 0 is_stmt 0 discriminator 2
 117 0032 1368     		ldr	r3, [r2]
 118 0034 DB07     		lsls	r3, r3, #31
 119 0036 FCD4     		bmi	.L10
 120              		.loc 1 149 0 is_stmt 1 discriminator 3
 121 0038 6368     		ldr	r3, [r4, #4]
 122              		.loc 1 145 0 discriminator 3
 123 003a 087A     		ldrb	r0, [r1, #8]	@ zero_extendqisi2
 124              		.loc 1 149 0 discriminator 3
 125 003c 1A68     		ldr	r2, [r3]
 126              		.loc 1 145 0 discriminator 3
 127 003e 4968     		ldr	r1, [r1, #4]
 128 0040 3D23     		movs	r3, #61
 129 0042 8340     		lsls	r3, r3, r0
 130 0044 0B60     		str	r3, [r1]
 131              		.loc 1 149 0 discriminator 3
 132 0046 72B1     		cbz	r2, .L11
 133              		.loc 1 149 0 is_stmt 0 discriminator 1
 134 0048 0423     		movs	r3, #4
 135 004a 2370     		strb	r3, [r4]
 136 004c 2046     		mov	r0, r4
 137 004e 9047     		blx	r2
 138              	.LVL6:
 139 0050 2378     		ldrb	r3, [r4]	@ zero_extendqisi2
 140 0052 042B     		cmp	r3, #4
 141 0054 07D0     		beq	.L11
 142              	.L12:
 143              	.LBB58:
 144              	.LBB59:
 145              	.LBB60:
 146              	.LBB61:
 147              	.LBB62:
 148              	.LBB63:
 149              		.file 3 "ChibiOS_3.0.5/os/ext/CMSIS/include/core_cmFunc.h"
 150              		.loc 3 342 0 is_stmt 1 discriminator 4
 151              		.syntax unified
 152              	@ 342 "ChibiOS_3.0.5/os/ext/CMSIS/include/core_cmFunc.h" 1
 153 0056 72B6     		cpsid i
 154              	@ 0 "" 2
 155              	.LVL7:
 156              		.thumb
 157              		.syntax unified
 158              	.LBE63:
 159              	.LBE62:
 160              	.LBE61:
 161              	.LBE60:
 162              	.LBE59:
 163              	.LBE58:
 164              	.LBB64:
 165              	.LBB65:
 166              		.loc 2 728 0 discriminator 4
 167 0058 0021     		movs	r1, #0
 168 005a 04F10800 		add	r0, r4, #8
 169              	.LVL8:
 170 005e FFF7FEFF 		bl	chThdResumeI
 171              	.LVL9:
ARM GAS  C:\Users\CFAR\AppData\Local\Temp\ccjlcOts.s 			page 4


 172              	.LBE65:
 173              	.LBE64:
 174              	.LBB66:
 175              	.LBB67:
 176              	.LBB68:
 177              	.LBB69:
 178              	.LBB70:
 179              	.LBB71:
 180              		.loc 3 331 0 discriminator 4
 181              		.syntax unified
 182              	@ 331 "ChibiOS_3.0.5/os/ext/CMSIS/include/core_cmFunc.h" 1
 183 0062 62B6     		cpsie i
 184              	@ 0 "" 2
 185              		.thumb
 186              		.syntax unified
 187              	.LBE71:
 188              	.LBE70:
 189              	.LBE69:
 190              	.LBE68:
 191              	.LBE67:
 192              	.LBE66:
 193              		.loc 1 150 0 discriminator 4
 194 0064 38BD     		pop	{r3, r4, r5, pc}
 195              	.LVL10:
 196              	.L11:
 197              		.loc 1 149 0 discriminator 3
 198 0066 0223     		movs	r3, #2
 199 0068 2370     		strb	r3, [r4]
 200 006a F4E7     		b	.L12
 201              	.LVL11:
 202              	.L22:
 203              	.LBB72:
 204              	.LBB73:
 205              		.loc 2 462 0
 206 006c 0148     		ldr	r0, .L23
 207              	.LVL12:
 208 006e FFF7FEFF 		bl	chSysHalt
 209              	.LVL13:
 210 0072 CAE7     		b	.L8
 211              	.L24:
 212              		.align	2
 213              	.L23:
 214 0074 00000000 		.word	.LC0
 215              	.LBE73:
 216              	.LBE72:
 217              		.cfi_endproc
 218              	.LFE256:
 219              		.size	spi_lld_serve_rx_interrupt, .-spi_lld_serve_rx_interrupt
 220              		.section	.text.spi_lld_init,"ax",%progbits
 221              		.align	1
 222              		.p2align 4,,15
 223              		.global	spi_lld_init
 224              		.syntax unified
 225              		.thumb
 226              		.thumb_func
 227              		.fpu fpv4-sp-d16
 228              		.type	spi_lld_init, %function
ARM GAS  C:\Users\CFAR\AppData\Local\Temp\ccjlcOts.s 			page 5


 229              	spi_lld_init:
 230              	.LFB258:
 231              		.loc 1 185 0
 232              		.cfi_startproc
 233              		@ args = 0, pretend = 0, frame = 0
 234              		@ frame_needed = 0, uses_anonymous_args = 0
 235 0000 10B5     		push	{r4, lr}
 236              		.cfi_def_cfa_offset 8
 237              		.cfi_offset 4, -8
 238              		.cfi_offset 14, -4
 239              		.loc 1 190 0
 240 0002 0A4C     		ldr	r4, .L27
 241              		.loc 1 187 0
 242 0004 0A4B     		ldr	r3, .L27+4
 243 0006 4FF6FF72 		movw	r2, #65535
 244              		.loc 1 190 0
 245 000a 2046     		mov	r0, r4
 246              		.loc 1 187 0
 247 000c 1A80     		strh	r2, [r3]	@ movhi
 248              		.loc 1 190 0
 249 000e FFF7FEFF 		bl	spiObjectInit
 250              	.LVL14:
 251              		.loc 1 192 0
 252 0012 084B     		ldr	r3, .L27+8
 253              		.loc 1 191 0
 254 0014 0848     		ldr	r0, .L27+12
 255              		.loc 1 194 0
 256 0016 0949     		ldr	r1, .L27+16
 257              		.loc 1 200 0
 258 0018 094A     		ldr	r2, .L27+20
 259              		.loc 1 191 0
 260 001a E061     		str	r0, [r4, #28]
 261              		.loc 1 193 0
 262 001c 03F12400 		add	r0, r3, #36
 263 0020 C4E90830 		strd	r3, r0, [r4, #32]
 264              		.loc 1 200 0
 265 0024 C4E90A12 		strd	r1, r2, [r4, #40]
 266              		.loc 1 296 0
 267 0028 10BD     		pop	{r4, pc}
 268              	.L28:
 269 002a 00BF     		.align	2
 270              	.L27:
 271 002c 00000000 		.word	.LANCHOR1
 272 0030 00000000 		.word	.LANCHOR0
 273 0034 60000000 		.word	_stm32_dma_streams+96
 274 0038 00300140 		.word	1073819648
 275 003c 16000106 		.word	100728854
 276 0040 46000106 		.word	100728902
 277              		.cfi_endproc
 278              	.LFE258:
 279              		.size	spi_lld_init, .-spi_lld_init
 280              		.section	.text.spi_lld_start,"ax",%progbits
 281              		.align	1
 282              		.p2align 4,,15
 283              		.global	spi_lld_start
 284              		.syntax unified
 285              		.thumb
ARM GAS  C:\Users\CFAR\AppData\Local\Temp\ccjlcOts.s 			page 6


 286              		.thumb_func
 287              		.fpu fpv4-sp-d16
 288              		.type	spi_lld_start, %function
 289              	spi_lld_start:
 290              	.LFB259:
 291              		.loc 1 305 0
 292              		.cfi_startproc
 293              		@ args = 0, pretend = 0, frame = 0
 294              		@ frame_needed = 0, uses_anonymous_args = 0
 295              	.LVL15:
 296              		.loc 1 308 0
 297 0000 0378     		ldrb	r3, [r0]	@ zero_extendqisi2
 298 0002 012B     		cmp	r3, #1
 299              		.loc 1 305 0
 300 0004 10B5     		push	{r4, lr}
 301              		.cfi_def_cfa_offset 8
 302              		.cfi_offset 4, -8
 303              		.cfi_offset 14, -4
 304              		.loc 1 305 0
 305 0006 0446     		mov	r4, r0
 306              		.loc 1 308 0
 307 0008 1DD0     		beq	.L35
 308 000a C369     		ldr	r3, [r0, #28]
 309              	.LVL16:
 310              	.L30:
 311              		.loc 1 412 0
 312 000c 6268     		ldr	r2, [r4, #4]
 313 000e A16A     		ldr	r1, [r4, #40]
 314 0010 5089     		ldrh	r0, [r2, #10]
 315 0012 E26A     		ldr	r2, [r4, #44]
 316 0014 21F4F041 		bic	r1, r1, #30720
 317 0018 22F4F042 		bic	r2, r2, #30720
 318 001c 10F4006F 		tst	r0, #2048
 319              		.loc 1 422 0
 320 0020 1CBF     		itt	ne
 321 0022 41F42051 		orrne	r1, r1, #10240
 322              		.loc 1 424 0
 323 0026 42F42052 		orrne	r2, r2, #10240
 324              		.loc 1 423 0
 325 002a C4E90A12 		strd	r1, r2, [r4, #40]
 326              		.loc 1 428 0
 327 002e 40F44170 		orr	r0, r0, #772
 328              		.loc 1 430 0
 329 0032 0722     		movs	r2, #7
 330              		.loc 1 427 0
 331 0034 0021     		movs	r1, #0
 332 0036 1960     		str	r1, [r3]
 333              		.loc 1 428 0
 334 0038 1860     		str	r0, [r3]
 335              		.loc 1 430 0
 336 003a 5A60     		str	r2, [r3, #4]
 337              		.loc 1 431 0
 338 003c 1A68     		ldr	r2, [r3]
 339 003e 42F04002 		orr	r2, r2, #64
 340 0042 1A60     		str	r2, [r3]
 341              		.loc 1 432 0
 342 0044 10BD     		pop	{r4, pc}
ARM GAS  C:\Users\CFAR\AppData\Local\Temp\ccjlcOts.s 			page 7


 343              	.LVL17:
 344              	.L35:
 345              		.loc 1 310 0
 346 0046 0F4B     		ldr	r3, .L39
 347 0048 9842     		cmp	r0, r3
 348 004a 09D0     		beq	.L38
 349              	.LVL18:
 350              	.L31:
 351              		.loc 1 408 0
 352 004c D4E90812 		ldrd	r1, r2, [r4, #32]
 353              		.loc 1 407 0
 354 0050 E369     		ldr	r3, [r4, #28]
 355 0052 0868     		ldr	r0, [r1]
 356              		.loc 1 408 0
 357 0054 1168     		ldr	r1, [r2]
 358              		.loc 1 407 0
 359 0056 03F10C02 		add	r2, r3, #12
 360 005a 8260     		str	r2, [r0, #8]
 361              		.loc 1 408 0
 362 005c 8A60     		str	r2, [r1, #8]
 363 005e D5E7     		b	.L30
 364              	.LVL19:
 365              	.L38:
 366              	.LBB74:
 367              		.loc 1 312 0
 368 0060 0346     		mov	r3, r0
 369 0062 094A     		ldr	r2, .L39+4
 370 0064 006A     		ldr	r0, [r0, #32]
 371              	.LVL20:
 372 0066 0A21     		movs	r1, #10
 373 0068 FFF7FEFF 		bl	dmaStreamAllocate
 374              	.LVL21:
 375              		.loc 1 317 0
 376 006c 2346     		mov	r3, r4
 377 006e 074A     		ldr	r2, .L39+8
 378 0070 606A     		ldr	r0, [r4, #36]
 379 0072 0A21     		movs	r1, #10
 380 0074 FFF7FEFF 		bl	dmaStreamAllocate
 381              	.LVL22:
 382              		.loc 1 322 0
 383 0078 054A     		ldr	r2, .L39+12
 384 007a 536C     		ldr	r3, [r2, #68]
 385 007c 43F48053 		orr	r3, r3, #4096
 386 0080 5364     		str	r3, [r2, #68]
 387 0082 E3E7     		b	.L31
 388              	.L40:
 389              		.align	2
 390              	.L39:
 391 0084 00000000 		.word	.LANCHOR1
 392 0088 00000000 		.word	spi_lld_serve_rx_interrupt
 393 008c 00000000 		.word	spi_lld_serve_tx_interrupt
 394 0090 00380240 		.word	1073887232
 395              	.LBE74:
 396              		.cfi_endproc
 397              	.LFE259:
 398              		.size	spi_lld_start, .-spi_lld_start
 399              		.section	.text.spi_lld_stop,"ax",%progbits
ARM GAS  C:\Users\CFAR\AppData\Local\Temp\ccjlcOts.s 			page 8


 400              		.align	1
 401              		.p2align 4,,15
 402              		.global	spi_lld_stop
 403              		.syntax unified
 404              		.thumb
 405              		.thumb_func
 406              		.fpu fpv4-sp-d16
 407              		.type	spi_lld_stop, %function
 408              	spi_lld_stop:
 409              	.LFB260:
 410              		.loc 1 441 0
 411              		.cfi_startproc
 412              		@ args = 0, pretend = 0, frame = 0
 413              		@ frame_needed = 0, uses_anonymous_args = 0
 414              	.LVL23:
 415              		.loc 1 444 0
 416 0000 0378     		ldrb	r3, [r0]	@ zero_extendqisi2
 417 0002 022B     		cmp	r3, #2
 418 0004 00D0     		beq	.L49
 419 0006 7047     		bx	lr
 420              	.L49:
 421              		.loc 1 441 0
 422 0008 10B5     		push	{r4, lr}
 423              		.cfi_def_cfa_offset 8
 424              		.cfi_offset 4, -8
 425              		.cfi_offset 14, -4
 426 000a 0446     		mov	r4, r0
 427              		.loc 1 449 0
 428 000c D0E90730 		ldrd	r3, r0, [r0, #28]
 429              	.LVL24:
 430              		.loc 1 447 0
 431 0010 0022     		movs	r2, #0
 432 0012 1A60     		str	r2, [r3]
 433              		.loc 1 448 0
 434 0014 5A60     		str	r2, [r3, #4]
 435              		.loc 1 449 0
 436 0016 FFF7FEFF 		bl	dmaStreamRelease
 437              	.LVL25:
 438              		.loc 1 450 0
 439 001a 606A     		ldr	r0, [r4, #36]
 440 001c FFF7FEFF 		bl	dmaStreamRelease
 441              	.LVL26:
 442              		.loc 1 453 0
 443 0020 044B     		ldr	r3, .L51
 444 0022 9C42     		cmp	r4, r3
 445 0024 00D0     		beq	.L50
 446              		.loc 1 477 0
 447 0026 10BD     		pop	{r4, pc}
 448              	.LVL27:
 449              	.L50:
 450              		.loc 1 454 0
 451 0028 034A     		ldr	r2, .L51+4
 452 002a 536C     		ldr	r3, [r2, #68]
 453 002c 23F48053 		bic	r3, r3, #4096
 454 0030 5364     		str	r3, [r2, #68]
 455              		.loc 1 477 0
 456 0032 10BD     		pop	{r4, pc}
ARM GAS  C:\Users\CFAR\AppData\Local\Temp\ccjlcOts.s 			page 9


 457              	.LVL28:
 458              	.L52:
 459              		.align	2
 460              	.L51:
 461 0034 00000000 		.word	.LANCHOR1
 462 0038 00380240 		.word	1073887232
 463              		.cfi_endproc
 464              	.LFE260:
 465              		.size	spi_lld_stop, .-spi_lld_stop
 466              		.section	.text.spi_lld_select,"ax",%progbits
 467              		.align	1
 468              		.p2align 4,,15
 469              		.global	spi_lld_select
 470              		.syntax unified
 471              		.thumb
 472              		.thumb_func
 473              		.fpu fpv4-sp-d16
 474              		.type	spi_lld_select, %function
 475              	spi_lld_select:
 476              	.LFB261:
 477              		.loc 1 486 0
 478              		.cfi_startproc
 479              		@ args = 0, pretend = 0, frame = 0
 480              		@ frame_needed = 0, uses_anonymous_args = 0
 481              		@ link register save eliminated.
 482              	.LVL29:
 483              		.loc 1 488 0
 484 0000 4268     		ldr	r2, [r0, #4]
 485 0002 1189     		ldrh	r1, [r2, #8]
 486 0004 5268     		ldr	r2, [r2, #4]
 487 0006 0123     		movs	r3, #1
 488 0008 8B40     		lsls	r3, r3, r1
 489 000a 9BB2     		uxth	r3, r3
 490 000c 5383     		strh	r3, [r2, #26]	@ movhi
 491              		.loc 1 489 0
 492 000e 7047     		bx	lr
 493              		.cfi_endproc
 494              	.LFE261:
 495              		.size	spi_lld_select, .-spi_lld_select
 496              		.section	.text.spi_lld_unselect,"ax",%progbits
 497              		.align	1
 498              		.p2align 4,,15
 499              		.global	spi_lld_unselect
 500              		.syntax unified
 501              		.thumb
 502              		.thumb_func
 503              		.fpu fpv4-sp-d16
 504              		.type	spi_lld_unselect, %function
 505              	spi_lld_unselect:
 506              	.LFB262:
 507              		.loc 1 499 0
 508              		.cfi_startproc
 509              		@ args = 0, pretend = 0, frame = 0
 510              		@ frame_needed = 0, uses_anonymous_args = 0
 511              		@ link register save eliminated.
 512              	.LVL30:
 513              		.loc 1 501 0
ARM GAS  C:\Users\CFAR\AppData\Local\Temp\ccjlcOts.s 			page 10


 514 0000 4268     		ldr	r2, [r0, #4]
 515 0002 1189     		ldrh	r1, [r2, #8]
 516 0004 5268     		ldr	r2, [r2, #4]
 517 0006 0123     		movs	r3, #1
 518 0008 8B40     		lsls	r3, r3, r1
 519 000a 9BB2     		uxth	r3, r3
 520 000c 1383     		strh	r3, [r2, #24]	@ movhi
 521              		.loc 1 502 0
 522 000e 7047     		bx	lr
 523              		.cfi_endproc
 524              	.LFE262:
 525              		.size	spi_lld_unselect, .-spi_lld_unselect
 526              		.section	.text.spi_lld_ignore,"ax",%progbits
 527              		.align	1
 528              		.p2align 4,,15
 529              		.global	spi_lld_ignore
 530              		.syntax unified
 531              		.thumb
 532              		.thumb_func
 533              		.fpu fpv4-sp-d16
 534              		.type	spi_lld_ignore, %function
 535              	spi_lld_ignore:
 536              	.LFB263:
 537              		.loc 1 515 0
 538              		.cfi_startproc
 539              		@ args = 0, pretend = 0, frame = 0
 540              		@ frame_needed = 0, uses_anonymous_args = 0
 541              		@ link register save eliminated.
 542              	.LVL31:
 543              		.loc 1 521 0
 544 0000 D0E90823 		ldrd	r2, r3, [r0, #32]
 545              		.loc 1 515 0
 546 0004 30B4     		push	{r4, r5}
 547              		.cfi_def_cfa_offset 8
 548              		.cfi_offset 4, -8
 549              		.cfi_offset 5, -4
 550              		.loc 1 517 0
 551 0006 1268     		ldr	r2, [r2]
 552              		.loc 1 521 0
 553 0008 1B68     		ldr	r3, [r3]
 554              		.loc 1 517 0
 555 000a 0A4C     		ldr	r4, .L57
 556              		.loc 1 523 0
 557 000c D0E90A50 		ldrd	r5, r0, [r0, #40]
 558              	.LVL32:
 559              		.loc 1 517 0
 560 0010 D460     		str	r4, [r2, #12]
 561              		.loc 1 521 0
 562 0012 094C     		ldr	r4, .L57+4
 563              		.loc 1 518 0
 564 0014 5160     		str	r1, [r2, #4]
 565              		.loc 1 519 0
 566 0016 1560     		str	r5, [r2]
 567              		.loc 1 521 0
 568 0018 DC60     		str	r4, [r3, #12]
 569              		.loc 1 522 0
 570 001a 5960     		str	r1, [r3, #4]
ARM GAS  C:\Users\CFAR\AppData\Local\Temp\ccjlcOts.s 			page 11


 571              		.loc 1 523 0
 572 001c 1860     		str	r0, [r3]
 573              		.loc 1 525 0
 574 001e 1168     		ldr	r1, [r2]
 575              	.LVL33:
 576 0020 41F00101 		orr	r1, r1, #1
 577 0024 1160     		str	r1, [r2]
 578              		.loc 1 526 0
 579 0026 1A68     		ldr	r2, [r3]
 580 0028 42F00102 		orr	r2, r2, #1
 581 002c 1A60     		str	r2, [r3]
 582              		.loc 1 527 0
 583 002e 30BC     		pop	{r4, r5}
 584              		.cfi_restore 5
 585              		.cfi_restore 4
 586              		.cfi_def_cfa_offset 0
 587 0030 7047     		bx	lr
 588              	.L58:
 589 0032 00BF     		.align	2
 590              	.L57:
 591 0034 00000000 		.word	.LANCHOR2
 592 0038 00000000 		.word	.LANCHOR0
 593              		.cfi_endproc
 594              	.LFE263:
 595              		.size	spi_lld_ignore, .-spi_lld_ignore
 596              		.section	.text.spi_lld_exchange,"ax",%progbits
 597              		.align	1
 598              		.p2align 4,,15
 599              		.global	spi_lld_exchange
 600              		.syntax unified
 601              		.thumb
 602              		.thumb_func
 603              		.fpu fpv4-sp-d16
 604              		.type	spi_lld_exchange, %function
 605              	spi_lld_exchange:
 606              	.LFB264:
 607              		.loc 1 545 0
 608              		.cfi_startproc
 609              		@ args = 0, pretend = 0, frame = 0
 610              		@ frame_needed = 0, uses_anonymous_args = 0
 611              		@ link register save eliminated.
 612              	.LVL34:
 613 0000 70B4     		push	{r4, r5, r6}
 614              		.cfi_def_cfa_offset 12
 615              		.cfi_offset 4, -12
 616              		.cfi_offset 5, -8
 617              		.cfi_offset 6, -4
 618              		.loc 1 551 0
 619 0002 D0E90854 		ldrd	r5, r4, [r0, #32]
 620              		.loc 1 553 0
 621 0006 D0E90A60 		ldrd	r6, r0, [r0, #40]
 622              	.LVL35:
 623              		.loc 1 547 0
 624 000a 2D68     		ldr	r5, [r5]
 625              		.loc 1 551 0
 626 000c 2468     		ldr	r4, [r4]
 627              		.loc 1 547 0
ARM GAS  C:\Users\CFAR\AppData\Local\Temp\ccjlcOts.s 			page 12


 628 000e EB60     		str	r3, [r5, #12]
 629              		.loc 1 549 0
 630 0010 46F48066 		orr	r6, r6, #1024
 631              		.loc 1 553 0
 632 0014 40F48060 		orr	r0, r0, #1024
 633              		.loc 1 548 0
 634 0018 6960     		str	r1, [r5, #4]
 635              		.loc 1 549 0
 636 001a 2E60     		str	r6, [r5]
 637              		.loc 1 551 0
 638 001c E260     		str	r2, [r4, #12]
 639              		.loc 1 552 0
 640 001e 6160     		str	r1, [r4, #4]
 641              		.loc 1 553 0
 642 0020 2060     		str	r0, [r4]
 643              		.loc 1 555 0
 644 0022 2B68     		ldr	r3, [r5]
 645              	.LVL36:
 646 0024 43F00103 		orr	r3, r3, #1
 647 0028 2B60     		str	r3, [r5]
 648              		.loc 1 556 0
 649 002a 2368     		ldr	r3, [r4]
 650 002c 43F00103 		orr	r3, r3, #1
 651 0030 2360     		str	r3, [r4]
 652              		.loc 1 557 0
 653 0032 70BC     		pop	{r4, r5, r6}
 654              		.cfi_restore 6
 655              		.cfi_restore 5
 656              		.cfi_restore 4
 657              		.cfi_def_cfa_offset 0
 658 0034 7047     		bx	lr
 659              		.cfi_endproc
 660              	.LFE264:
 661              		.size	spi_lld_exchange, .-spi_lld_exchange
 662 0036 00BF     		.section	.text.spi_lld_send,"ax",%progbits
 663              		.align	1
 664              		.p2align 4,,15
 665              		.global	spi_lld_send
 666              		.syntax unified
 667              		.thumb
 668              		.thumb_func
 669              		.fpu fpv4-sp-d16
 670              		.type	spi_lld_send, %function
 671              	spi_lld_send:
 672              	.LFB265:
 673              		.loc 1 572 0
 674              		.cfi_startproc
 675              		@ args = 0, pretend = 0, frame = 0
 676              		@ frame_needed = 0, uses_anonymous_args = 0
 677              		@ link register save eliminated.
 678              	.LVL37:
 679 0000 70B4     		push	{r4, r5, r6}
 680              		.cfi_def_cfa_offset 12
 681              		.cfi_offset 4, -12
 682              		.cfi_offset 5, -8
 683              		.cfi_offset 6, -4
 684              		.loc 1 578 0
ARM GAS  C:\Users\CFAR\AppData\Local\Temp\ccjlcOts.s 			page 13


 685 0002 D0E90843 		ldrd	r4, r3, [r0, #32]
 686              		.loc 1 580 0
 687 0006 C56A     		ldr	r5, [r0, #44]
 688              		.loc 1 574 0
 689 0008 2468     		ldr	r4, [r4]
 690              		.loc 1 578 0
 691 000a 1B68     		ldr	r3, [r3]
 692              		.loc 1 576 0
 693 000c 806A     		ldr	r0, [r0, #40]
 694              	.LVL38:
 695              		.loc 1 574 0
 696 000e 094E     		ldr	r6, .L63
 697 0010 E660     		str	r6, [r4, #12]
 698              		.loc 1 580 0
 699 0012 45F48065 		orr	r5, r5, #1024
 700              		.loc 1 575 0
 701 0016 6160     		str	r1, [r4, #4]
 702              		.loc 1 576 0
 703 0018 2060     		str	r0, [r4]
 704              		.loc 1 578 0
 705 001a DA60     		str	r2, [r3, #12]
 706              		.loc 1 579 0
 707 001c 5960     		str	r1, [r3, #4]
 708              		.loc 1 580 0
 709 001e 1D60     		str	r5, [r3]
 710              		.loc 1 582 0
 711 0020 2268     		ldr	r2, [r4]
 712              	.LVL39:
 713 0022 42F00102 		orr	r2, r2, #1
 714 0026 2260     		str	r2, [r4]
 715              		.loc 1 583 0
 716 0028 1A68     		ldr	r2, [r3]
 717 002a 42F00102 		orr	r2, r2, #1
 718 002e 1A60     		str	r2, [r3]
 719              		.loc 1 584 0
 720 0030 70BC     		pop	{r4, r5, r6}
 721              		.cfi_restore 6
 722              		.cfi_restore 5
 723              		.cfi_restore 4
 724              		.cfi_def_cfa_offset 0
 725 0032 7047     		bx	lr
 726              	.L64:
 727              		.align	2
 728              	.L63:
 729 0034 00000000 		.word	.LANCHOR2
 730              		.cfi_endproc
 731              	.LFE265:
 732              		.size	spi_lld_send, .-spi_lld_send
 733              		.section	.text.spi_lld_receive,"ax",%progbits
 734              		.align	1
 735              		.p2align 4,,15
 736              		.global	spi_lld_receive
 737              		.syntax unified
 738              		.thumb
 739              		.thumb_func
 740              		.fpu fpv4-sp-d16
 741              		.type	spi_lld_receive, %function
ARM GAS  C:\Users\CFAR\AppData\Local\Temp\ccjlcOts.s 			page 14


 742              	spi_lld_receive:
 743              	.LFB266:
 744              		.loc 1 599 0
 745              		.cfi_startproc
 746              		@ args = 0, pretend = 0, frame = 0
 747              		@ frame_needed = 0, uses_anonymous_args = 0
 748              		@ link register save eliminated.
 749              	.LVL40:
 750 0000 30B4     		push	{r4, r5}
 751              		.cfi_def_cfa_offset 8
 752              		.cfi_offset 4, -8
 753              		.cfi_offset 5, -4
 754              		.loc 1 605 0
 755 0002 D0E90843 		ldrd	r4, r3, [r0, #32]
 756              		.loc 1 603 0
 757 0006 856A     		ldr	r5, [r0, #40]
 758              		.loc 1 601 0
 759 0008 2468     		ldr	r4, [r4]
 760              		.loc 1 605 0
 761 000a 1B68     		ldr	r3, [r3]
 762              		.loc 1 607 0
 763 000c C06A     		ldr	r0, [r0, #44]
 764              	.LVL41:
 765              		.loc 1 601 0
 766 000e E260     		str	r2, [r4, #12]
 767              		.loc 1 603 0
 768 0010 45F48065 		orr	r5, r5, #1024
 769              		.loc 1 605 0
 770 0014 074A     		ldr	r2, .L67
 771              	.LVL42:
 772              		.loc 1 602 0
 773 0016 6160     		str	r1, [r4, #4]
 774              	.LVL43:
 775              		.loc 1 603 0
 776 0018 2560     		str	r5, [r4]
 777              		.loc 1 605 0
 778 001a DA60     		str	r2, [r3, #12]
 779              		.loc 1 606 0
 780 001c 5960     		str	r1, [r3, #4]
 781              		.loc 1 607 0
 782 001e 1860     		str	r0, [r3]
 783              		.loc 1 609 0
 784 0020 2268     		ldr	r2, [r4]
 785 0022 42F00102 		orr	r2, r2, #1
 786 0026 2260     		str	r2, [r4]
 787              		.loc 1 610 0
 788 0028 1A68     		ldr	r2, [r3]
 789 002a 42F00102 		orr	r2, r2, #1
 790 002e 1A60     		str	r2, [r3]
 791              		.loc 1 611 0
 792 0030 30BC     		pop	{r4, r5}
 793              		.cfi_restore 5
 794              		.cfi_restore 4
 795              		.cfi_def_cfa_offset 0
 796 0032 7047     		bx	lr
 797              	.L68:
 798              		.align	2
ARM GAS  C:\Users\CFAR\AppData\Local\Temp\ccjlcOts.s 			page 15


 799              	.L67:
 800 0034 00000000 		.word	.LANCHOR0
 801              		.cfi_endproc
 802              	.LFE266:
 803              		.size	spi_lld_receive, .-spi_lld_receive
 804              		.section	.text.spi_lld_polled_exchange,"ax",%progbits
 805              		.align	1
 806              		.p2align 4,,15
 807              		.global	spi_lld_polled_exchange
 808              		.syntax unified
 809              		.thumb
 810              		.thumb_func
 811              		.fpu fpv4-sp-d16
 812              		.type	spi_lld_polled_exchange, %function
 813              	spi_lld_polled_exchange:
 814              	.LFB267:
 815              		.loc 1 625 0
 816              		.cfi_startproc
 817              		@ args = 0, pretend = 0, frame = 0
 818              		@ frame_needed = 0, uses_anonymous_args = 0
 819              		@ link register save eliminated.
 820              	.LVL44:
 821              		.loc 1 627 0
 822 0000 C269     		ldr	r2, [r0, #28]
 823 0002 D160     		str	r1, [r2, #12]
 824              	.L70:
 825              		.loc 1 628 0 discriminator 1
 826 0004 9368     		ldr	r3, [r2, #8]
 827 0006 DB07     		lsls	r3, r3, #31
 828 0008 FCD5     		bpl	.L70
 829              		.loc 1 630 0
 830 000a D068     		ldr	r0, [r2, #12]
 831              	.LVL45:
 832              		.loc 1 631 0
 833 000c 80B2     		uxth	r0, r0
 834 000e 7047     		bx	lr
 835              		.cfi_endproc
 836              	.LFE267:
 837              		.size	spi_lld_polled_exchange, .-spi_lld_polled_exchange
 838              		.global	SPID1
 839              		.section	.bss.SPID1,"aw",%nobits
 840              		.align	2
 841              		.set	.LANCHOR1,. + 0
 842              		.type	SPID1, %object
 843              		.size	SPID1, 48
 844              	SPID1:
 845 0000 00000000 		.space	48
 845      00000000 
 845      00000000 
 845      00000000 
 845      00000000 
 846              		.section	.bss.dummyrx,"aw",%nobits
 847              		.align	1
 848              		.set	.LANCHOR2,. + 0
 849              		.type	dummyrx, %object
 850              		.size	dummyrx, 2
 851              	dummyrx:
ARM GAS  C:\Users\CFAR\AppData\Local\Temp\ccjlcOts.s 			page 16


 852 0000 0000     		.space	2
 853              		.section	.bss.dummytx,"aw",%nobits
 854              		.align	1
 855              		.set	.LANCHOR0,. + 0
 856              		.type	dummytx, %object
 857              		.size	dummytx, 2
 858              	dummytx:
 859 0000 0000     		.space	2
 860              		.section	.rodata.spi_lld_serve_tx_interrupt.str1.4,"aMS",%progbits,1
 861              		.align	2
 862              	.LC0:
 863 0000 444D4120 		.ascii	"DMA failure\000"
 863      6661696C 
 863      75726500 
 864              		.text
 865              	.Letext0:
 866              		.file 4 "c:\\st\\stm32cubeide_1.3.0\\stm32cubeide\\plugins\\com.st.stm32cube.ide.mcu.externaltools
 867              		.file 5 "c:\\st\\stm32cubeide_1.3.0\\stm32cubeide\\plugins\\com.st.stm32cube.ide.mcu.externaltools
 868              		.file 6 "c:\\st\\stm32cubeide_1.3.0\\stm32cubeide\\plugins\\com.st.stm32cube.ide.mcu.externaltools
 869              		.file 7 "ChibiOS_3.0.5/os/rt/ports/ARMCMx/compilers/GCC/chtypes.h"
 870              		.file 8 "ChibiOS_3.0.5/os/rt/include/chsystypes.h"
 871              		.file 9 "ChibiOS_3.0.5/os/rt/include/chschd.h"
 872              		.file 10 "ChibiOS_3.0.5/os/ext/CMSIS/include/core_cm4.h"
 873              		.file 11 "ChibiOS_3.0.5/os/ext/CMSIS/ST/system_stm32f4xx.h"
 874              		.file 12 "ChibiOS_3.0.5/os/ext/CMSIS/ST/stm32f407xx.h"
 875              		.file 13 "ChibiOS_3.0.5/os/rt/ports/ARMCMx/chcore.h"
 876              		.file 14 "ChibiOS_3.0.5/os/rt/ports/ARMCMx/chcore_v7m.h"
 877              		.file 15 "ChibiOS_3.0.5/os/rt/include/chtm.h"
 878              		.file 16 "ChibiOS_3.0.5/os/rt/include/chsem.h"
 879              		.file 17 "ChibiOS_3.0.5/os/rt/include/chmtx.h"
 880              		.file 18 "ChibiOS_3.0.5/os/rt/include/chregistry.h"
 881              		.file 19 "ChibiOS_3.0.5/os/rt/include/chevents.h"
 882              		.file 20 "ChibiOS_3.0.5/os/rt/include/chqueues.h"
 883              		.file 21 "./conf_general.h"
 884              		.file 22 "ChibiOS_3.0.5/os/hal/ports/STM32/STM32F4xx/stm32_dma.h"
 885              		.file 23 "ChibiOS_3.0.5/os/hal/ports/STM32/LLD/GPIOv2/pal_lld.h"
 886              		.file 24 "ChibiOS_3.0.5/os/hal/include/can.h"
 887              		.file 25 "ChibiOS_3.0.5/os/hal/ports/STM32/LLD/can_lld.h"
 888              		.file 26 "ChibiOS_3.0.5/os/hal/include/i2c.h"
 889              		.file 27 "ChibiOS_3.0.5/os/hal/ports/STM32/LLD/I2Cv1/i2c_lld.h"
 890              		.file 28 "ChibiOS_3.0.5/os/hal/include/icu.h"
 891              		.file 29 "ChibiOS_3.0.5/os/hal/ports/STM32/LLD/TIMv1/icu_lld.h"
 892              		.file 30 "ChibiOS_3.0.5/os/hal/ports/STM32/LLD/TIMv1/stm32_tim.h"
 893              		.file 31 "ChibiOS_3.0.5/os/hal/include/serial.h"
 894              		.file 32 "ChibiOS_3.0.5/os/hal/ports/STM32/LLD/USARTv1/serial_lld.h"
 895              		.file 33 "ChibiOS_3.0.5/os/hal/include/spi.h"
 896              		.file 34 "ChibiOS_3.0.5/os/hal/ports/STM32/LLD/SPIv1/spi_lld.h"
 897              		.file 35 "ChibiOS_3.0.5/os/hal/include/usb.h"
 898              		.file 36 "ChibiOS_3.0.5/os/hal/ports/STM32/LLD/OTGv1/usb_lld.h"
 899              		.file 37 "ChibiOS_3.0.5/os/hal/ports/STM32/LLD/OTGv1/stm32_otg.h"
 900              		.file 38 "ChibiOS_3.0.5/os/rt/include/chsys.h"
 901              		.file 39 "ChibiOS_3.0.5/os/rt/include/chthreads.h"
