ARM GAS  C:\Users\CFAR\AppData\Local\Temp\cctLjO4h.s 			page 1


   1              		.cpu cortex-m4
   2              		.eabi_attribute 27, 1
   3              		.eabi_attribute 28, 1
   4              		.eabi_attribute 20, 1
   5              		.eabi_attribute 21, 1
   6              		.eabi_attribute 23, 3
   7              		.eabi_attribute 24, 1
   8              		.eabi_attribute 25, 1
   9              		.eabi_attribute 26, 1
  10              		.eabi_attribute 30, 2
  11              		.eabi_attribute 34, 1
  12              		.eabi_attribute 18, 4
  13              		.file	"spi_sw.c"
  14              		.text
  15              	.Ltext0:
  16              		.cfi_sections	.debug_frame
  17              		.section	.text.spi_sw_init.part.0,"ax",%progbits
  18              		.align	1
  19              		.p2align 4,,15
  20              		.syntax unified
  21              		.thumb
  22              		.thumb_func
  23              		.fpu fpv4-sp-d16
  24              		.type	spi_sw_init.part.0, %function
  25              	spi_sw_init.part.0:
  26              	.LFB263:
  27              		.file 1 "nrf/spi_sw.c"
  28              		.loc 1 38 0
  29              		.cfi_startproc
  30              		@ args = 0, pretend = 0, frame = 0
  31              		@ frame_needed = 0, uses_anonymous_args = 0
  32              		.loc 1 40 0
  33 0000 1C4A     		ldr	r2, .L4
  34 0002 1D4B     		ldr	r3, .L4+4
  35 0004 1168     		ldr	r1, [r2]
  36 0006 1868     		ldr	r0, [r3]
  37              		.loc 1 38 0
  38 0008 2DE9F041 		push	{r4, r5, r6, r7, r8, lr}
  39              		.cfi_def_cfa_offset 24
  40              		.cfi_offset 4, -24
  41              		.cfi_offset 5, -20
  42              		.cfi_offset 6, -16
  43              		.cfi_offset 7, -12
  44              		.cfi_offset 8, -8
  45              		.cfi_offset 14, -4
  46              		.loc 1 40 0
  47 000c 0124     		movs	r4, #1
  48              		.loc 1 41 0
  49 000e DFF88480 		ldr	r8, .L4+32
  50 0012 1A4E     		ldr	r6, .L4+8
  51              		.loc 1 42 0
  52 0014 1A4F     		ldr	r7, .L4+12
  53 0016 1B4D     		ldr	r5, .L4+16
  54              		.loc 1 40 0
  55 0018 04FA01F1 		lsl	r1, r4, r1
  56 001c 0022     		movs	r2, #0
  57 001e FFF7FEFF 		bl	_pal_lld_setgroupmode
ARM GAS  C:\Users\CFAR\AppData\Local\Temp\cctLjO4h.s 			page 2


  58              	.LVL0:
  59              		.loc 1 41 0
  60 0022 D8F80010 		ldr	r1, [r8]
  61 0026 3068     		ldr	r0, [r6]
  62 0028 04FA01F1 		lsl	r1, r4, r1
  63 002c 2246     		mov	r2, r4
  64 002e FFF7FEFF 		bl	_pal_lld_setgroupmode
  65              	.LVL1:
  66              		.loc 1 42 0
  67 0032 3968     		ldr	r1, [r7]
  68 0034 2868     		ldr	r0, [r5]
  69 0036 04FA01F1 		lsl	r1, r4, r1
  70 003a 2246     		mov	r2, r4
  71 003c FFF7FEFF 		bl	_pal_lld_setgroupmode
  72              	.LVL2:
  73              		.loc 1 43 0
  74 0040 114A     		ldr	r2, .L4+20
  75 0042 124B     		ldr	r3, .L4+24
  76 0044 1168     		ldr	r1, [r2]
  77 0046 1868     		ldr	r0, [r3]
  78 0048 04FA01F1 		lsl	r1, r4, r1
  79 004c 2246     		mov	r2, r4
  80 004e FFF7FEFF 		bl	_pal_lld_setgroupmode
  81              	.LVL3:
  82              		.loc 1 45 0
  83 0052 D8F80020 		ldr	r2, [r8]
  84              		.loc 1 46 0
  85 0056 3B68     		ldr	r3, [r7]
  86              		.loc 1 45 0
  87 0058 3668     		ldr	r6, [r6]
  88              		.loc 1 46 0
  89 005a 2968     		ldr	r1, [r5]
  90              		.loc 1 47 0
  91 005c 0C48     		ldr	r0, .L4+28
  92              		.loc 1 45 0
  93 005e 04FA02F2 		lsl	r2, r4, r2
  94              		.loc 1 46 0
  95 0062 04FA03F3 		lsl	r3, r4, r3
  96              		.loc 1 45 0
  97 0066 92B2     		uxth	r2, r2
  98              		.loc 1 46 0
  99 0068 9BB2     		uxth	r3, r3
 100              		.loc 1 45 0
 101 006a 3283     		strh	r2, [r6, #24]	@ movhi
 102              		.loc 1 47 0
 103 006c 0470     		strb	r4, [r0]
 104              		.loc 1 46 0
 105 006e 4B83     		strh	r3, [r1, #26]	@ movhi
 106              		.loc 1 49 0
 107 0070 BDE8F081 		pop	{r4, r5, r6, r7, r8, pc}
 108              	.L5:
 109              		.align	2
 110              	.L4:
 111 0074 00000000 		.word	.LANCHOR0
 112 0078 00000000 		.word	.LANCHOR1
 113 007c 00000000 		.word	.LANCHOR3
 114 0080 00000000 		.word	.LANCHOR4
ARM GAS  C:\Users\CFAR\AppData\Local\Temp\cctLjO4h.s 			page 3


 115 0084 00000000 		.word	.LANCHOR5
 116 0088 00000000 		.word	.LANCHOR6
 117 008c 00000000 		.word	.LANCHOR7
 118 0090 00000000 		.word	.LANCHOR8
 119 0094 00000000 		.word	.LANCHOR2
 120              		.cfi_endproc
 121              	.LFE263:
 122              		.size	spi_sw_init.part.0, .-spi_sw_init.part.0
 123              		.section	.text.spi_sw_init,"ax",%progbits
 124              		.align	1
 125              		.p2align 4,,15
 126              		.global	spi_sw_init
 127              		.syntax unified
 128              		.thumb
 129              		.thumb_func
 130              		.fpu fpv4-sp-d16
 131              		.type	spi_sw_init, %function
 132              	spi_sw_init:
 133              	.LFB256:
 134              		.loc 1 38 0
 135              		.cfi_startproc
 136              		@ args = 0, pretend = 0, frame = 0
 137              		@ frame_needed = 0, uses_anonymous_args = 0
 138              		@ link register save eliminated.
 139              		.loc 1 39 0
 140 0000 024B     		ldr	r3, .L9
 141 0002 1B78     		ldrb	r3, [r3]	@ zero_extendqisi2
 142 0004 03B1     		cbz	r3, .L8
 143              		.loc 1 49 0
 144 0006 7047     		bx	lr
 145              	.L8:
 146 0008 FFF7FEBF 		b	spi_sw_init.part.0
 147              	.LVL4:
 148              	.L10:
 149              		.align	2
 150              	.L9:
 151 000c 00000000 		.word	.LANCHOR8
 152              		.cfi_endproc
 153              	.LFE256:
 154              		.size	spi_sw_init, .-spi_sw_init
 155              		.section	.text.spi_sw_stop,"ax",%progbits
 156              		.align	1
 157              		.p2align 4,,15
 158              		.global	spi_sw_stop
 159              		.syntax unified
 160              		.thumb
 161              		.thumb_func
 162              		.fpu fpv4-sp-d16
 163              		.type	spi_sw_stop, %function
 164              	spi_sw_stop:
 165              	.LFB257:
 166              		.loc 1 51 0
 167              		.cfi_startproc
 168              		@ args = 0, pretend = 0, frame = 0
 169              		@ frame_needed = 0, uses_anonymous_args = 0
 170              		.loc 1 52 0
 171 0000 144A     		ldr	r2, .L13
ARM GAS  C:\Users\CFAR\AppData\Local\Temp\cctLjO4h.s 			page 4


 172 0002 154B     		ldr	r3, .L13+4
 173 0004 1168     		ldr	r1, [r2]
 174 0006 1868     		ldr	r0, [r3]
 175              		.loc 1 51 0
 176 0008 10B5     		push	{r4, lr}
 177              		.cfi_def_cfa_offset 8
 178              		.cfi_offset 4, -8
 179              		.cfi_offset 14, -4
 180              		.loc 1 52 0
 181 000a 0124     		movs	r4, #1
 182 000c 04FA01F1 		lsl	r1, r4, r1
 183 0010 0022     		movs	r2, #0
 184 0012 FFF7FEFF 		bl	_pal_lld_setgroupmode
 185              	.LVL5:
 186              		.loc 1 53 0
 187 0016 114A     		ldr	r2, .L13+8
 188 0018 114B     		ldr	r3, .L13+12
 189 001a 1168     		ldr	r1, [r2]
 190 001c 1868     		ldr	r0, [r3]
 191 001e 04FA01F1 		lsl	r1, r4, r1
 192 0022 0022     		movs	r2, #0
 193 0024 FFF7FEFF 		bl	_pal_lld_setgroupmode
 194              	.LVL6:
 195              		.loc 1 54 0
 196 0028 0E4A     		ldr	r2, .L13+16
 197 002a 0F4B     		ldr	r3, .L13+20
 198 002c 1168     		ldr	r1, [r2]
 199 002e 1868     		ldr	r0, [r3]
 200 0030 04FA01F1 		lsl	r1, r4, r1
 201 0034 0022     		movs	r2, #0
 202 0036 FFF7FEFF 		bl	_pal_lld_setgroupmode
 203              	.LVL7:
 204              		.loc 1 55 0
 205 003a 0C4A     		ldr	r2, .L13+24
 206 003c 0C4B     		ldr	r3, .L13+28
 207 003e 1168     		ldr	r1, [r2]
 208 0040 1868     		ldr	r0, [r3]
 209 0042 0022     		movs	r2, #0
 210 0044 04FA01F1 		lsl	r1, r4, r1
 211 0048 FFF7FEFF 		bl	_pal_lld_setgroupmode
 212              	.LVL8:
 213              		.loc 1 56 0
 214 004c 094B     		ldr	r3, .L13+32
 215 004e 0022     		movs	r2, #0
 216 0050 1A70     		strb	r2, [r3]
 217              		.loc 1 57 0
 218 0052 10BD     		pop	{r4, pc}
 219              	.L14:
 220              		.align	2
 221              	.L13:
 222 0054 00000000 		.word	.LANCHOR0
 223 0058 00000000 		.word	.LANCHOR1
 224 005c 00000000 		.word	.LANCHOR2
 225 0060 00000000 		.word	.LANCHOR3
 226 0064 00000000 		.word	.LANCHOR4
 227 0068 00000000 		.word	.LANCHOR5
 228 006c 00000000 		.word	.LANCHOR6
ARM GAS  C:\Users\CFAR\AppData\Local\Temp\cctLjO4h.s 			page 5


 229 0070 00000000 		.word	.LANCHOR7
 230 0074 00000000 		.word	.LANCHOR8
 231              		.cfi_endproc
 232              	.LFE257:
 233              		.size	spi_sw_stop, .-spi_sw_stop
 234              		.section	.text.spi_sw_change_pins,"ax",%progbits
 235              		.align	1
 236              		.p2align 4,,15
 237              		.global	spi_sw_change_pins
 238              		.syntax unified
 239              		.thumb
 240              		.thumb_func
 241              		.fpu fpv4-sp-d16
 242              		.type	spi_sw_change_pins, %function
 243              	spi_sw_change_pins:
 244              	.LFB258:
 245              		.loc 1 63 0
 246              		.cfi_startproc
 247              		@ args = 16, pretend = 0, frame = 8
 248              		@ frame_needed = 0, uses_anonymous_args = 0
 249              	.LVL9:
 250 0000 2DE9F04F 		push	{r4, r5, r6, r7, r8, r9, r10, fp, lr}
 251              		.cfi_def_cfa_offset 36
 252              		.cfi_offset 4, -36
 253              		.cfi_offset 5, -32
 254              		.cfi_offset 6, -28
 255              		.cfi_offset 7, -24
 256              		.cfi_offset 8, -20
 257              		.cfi_offset 9, -16
 258              		.cfi_offset 10, -12
 259              		.cfi_offset 11, -8
 260              		.cfi_offset 14, -4
 261              		.loc 1 65 0
 262 0004 214F     		ldr	r7, .L20
 263              		.loc 1 63 0
 264 0006 83B0     		sub	sp, sp, #12
 265              		.cfi_def_cfa_offset 48
 266              		.loc 1 67 0
 267 0008 3C78     		ldrb	r4, [r7]	@ zero_extendqisi2
 268              		.loc 1 63 0
 269 000a DDF830B0 		ldr	fp, [sp, #48]
 270 000e DDF83C80 		ldr	r8, [sp, #60]
 271 0012 DDE90DA9 		ldrd	r10, r9, [sp, #52]
 272              		.loc 1 67 0
 273 0016 B4B9     		cbnz	r4, .L19
 274              		.loc 1 71 0
 275 0018 1D4D     		ldr	r5, .L20+4
 276              		.loc 1 72 0
 277 001a 1E4C     		ldr	r4, .L20+8
 278              		.loc 1 73 0
 279 001c 1E4E     		ldr	r6, .L20+12
 280              		.loc 1 71 0
 281 001e 2860     		str	r0, [r5]
 282              		.loc 1 72 0
 283 0020 2160     		str	r1, [r4]
 284              		.loc 1 74 0
 285 0022 1E4D     		ldr	r5, .L20+16
ARM GAS  C:\Users\CFAR\AppData\Local\Temp\cctLjO4h.s 			page 6


 286              		.loc 1 75 0
 287 0024 1E4C     		ldr	r4, .L20+20
 288              		.loc 1 76 0
 289 0026 1F48     		ldr	r0, .L20+24
 290              	.LVL10:
 291              		.loc 1 73 0
 292 0028 3260     		str	r2, [r6]
 293              		.loc 1 77 0
 294 002a 1F49     		ldr	r1, .L20+28
 295              	.LVL11:
 296              		.loc 1 78 0
 297 002c 1F4A     		ldr	r2, .L20+32
 298              	.LVL12:
 299              		.loc 1 74 0
 300 002e 2B60     		str	r3, [r5]
 301              		.loc 1 75 0
 302 0030 C4F800B0 		str	fp, [r4]
 303              		.loc 1 76 0
 304 0034 C0F800A0 		str	r10, [r0]
 305              		.loc 1 77 0
 306 0038 C1F80090 		str	r9, [r1]
 307              		.loc 1 78 0
 308 003c C2F80080 		str	r8, [r2]
 309              	.LVL13:
 310              	.L15:
 311              		.loc 1 83 0
 312 0040 03B0     		add	sp, sp, #12
 313              		.cfi_remember_state
 314              		.cfi_def_cfa_offset 36
 315              		@ sp needed
 316 0042 BDE8F08F 		pop	{r4, r5, r6, r7, r8, r9, r10, fp, pc}
 317              	.LVL14:
 318              	.L19:
 319              		.cfi_restore_state
 320 0046 1446     		mov	r4, r2
 321 0048 0D46     		mov	r5, r1
 322 004a 0646     		mov	r6, r0
 323 004c 0193     		str	r3, [sp, #4]
 324              		.loc 1 68 0
 325 004e FFF7FEFF 		bl	spi_sw_stop
 326              	.LVL15:
 327              		.loc 1 71 0
 328 0052 0F4A     		ldr	r2, .L20+4
 329              		.loc 1 72 0
 330 0054 0F49     		ldr	r1, .L20+8
 331              		.loc 1 71 0
 332 0056 1660     		str	r6, [r2]
 333              		.loc 1 73 0
 334 0058 0F4A     		ldr	r2, .L20+12
 335              		.loc 1 72 0
 336 005a 0D60     		str	r5, [r1]
 337              		.loc 1 73 0
 338 005c 1460     		str	r4, [r2]
 339              		.loc 1 74 0
 340 005e 0F4E     		ldr	r6, .L20+16
 341              	.LVL16:
 342              		.loc 1 75 0
ARM GAS  C:\Users\CFAR\AppData\Local\Temp\cctLjO4h.s 			page 7


 343 0060 0F4D     		ldr	r5, .L20+20
 344              	.LVL17:
 345              		.loc 1 76 0
 346 0062 1048     		ldr	r0, .L20+24
 347              		.loc 1 77 0
 348 0064 1049     		ldr	r1, .L20+28
 349              		.loc 1 78 0
 350 0066 114A     		ldr	r2, .L20+32
 351              	.LBB48:
 352              	.LBB49:
 353              		.loc 1 39 0
 354 0068 3B78     		ldrb	r3, [r7]	@ zero_extendqisi2
 355              	.LBE49:
 356              	.LBE48:
 357              		.loc 1 74 0
 358 006a 019C     		ldr	r4, [sp, #4]
 359              	.LVL18:
 360 006c 3460     		str	r4, [r6]
 361              		.loc 1 75 0
 362 006e C5F800B0 		str	fp, [r5]
 363              		.loc 1 76 0
 364 0072 C0F800A0 		str	r10, [r0]
 365              		.loc 1 77 0
 366 0076 C1F80090 		str	r9, [r1]
 367              		.loc 1 78 0
 368 007a C2F80080 		str	r8, [r2]
 369              	.LBB52:
 370              	.LBB50:
 371              		.loc 1 39 0
 372 007e 002B     		cmp	r3, #0
 373 0080 DED1     		bne	.L15
 374              	.LBE50:
 375              	.LBE52:
 376              		.loc 1 83 0
 377 0082 03B0     		add	sp, sp, #12
 378              		.cfi_def_cfa_offset 36
 379              		@ sp needed
 380 0084 BDE8F04F 		pop	{r4, r5, r6, r7, r8, r9, r10, fp, lr}
 381              		.cfi_restore 14
 382              		.cfi_restore 11
 383              		.cfi_restore 10
 384              		.cfi_restore 9
 385              		.cfi_restore 8
 386              		.cfi_restore 7
 387              		.cfi_restore 6
 388              		.cfi_restore 5
 389              		.cfi_restore 4
 390              		.cfi_def_cfa_offset 0
 391              	.LVL19:
 392              	.LBB53:
 393              	.LBB51:
 394 0088 FFF7FEBF 		b	spi_sw_init.part.0
 395              	.LVL20:
 396              	.L21:
 397              		.align	2
 398              	.L20:
 399 008c 00000000 		.word	.LANCHOR8
ARM GAS  C:\Users\CFAR\AppData\Local\Temp\cctLjO4h.s 			page 8


 400 0090 00000000 		.word	.LANCHOR3
 401 0094 00000000 		.word	.LANCHOR2
 402 0098 00000000 		.word	.LANCHOR5
 403 009c 00000000 		.word	.LANCHOR4
 404 00a0 00000000 		.word	.LANCHOR7
 405 00a4 00000000 		.word	.LANCHOR6
 406 00a8 00000000 		.word	.LANCHOR1
 407 00ac 00000000 		.word	.LANCHOR0
 408              	.LBE51:
 409              	.LBE53:
 410              		.cfi_endproc
 411              	.LFE258:
 412              		.size	spi_sw_change_pins, .-spi_sw_change_pins
 413              		.section	.text.spi_sw_transfer,"ax",%progbits
 414              		.align	1
 415              		.p2align 4,,15
 416              		.global	spi_sw_transfer
 417              		.syntax unified
 418              		.thumb
 419              		.thumb_func
 420              		.fpu fpv4-sp-d16
 421              		.type	spi_sw_transfer, %function
 422              	spi_sw_transfer:
 423              	.LFB259:
 424              		.loc 1 85 0
 425              		.cfi_startproc
 426              		@ args = 0, pretend = 0, frame = 32
 427              		@ frame_needed = 0, uses_anonymous_args = 0
 428              	.LVL21:
 429 0000 2DE9F04F 		push	{r4, r5, r6, r7, r8, r9, r10, fp, lr}
 430              		.cfi_def_cfa_offset 36
 431              		.cfi_offset 4, -36
 432              		.cfi_offset 5, -32
 433              		.cfi_offset 6, -28
 434              		.cfi_offset 7, -24
 435              		.cfi_offset 8, -20
 436              		.cfi_offset 9, -16
 437              		.cfi_offset 10, -12
 438              		.cfi_offset 11, -8
 439              		.cfi_offset 14, -4
 440              		.loc 1 86 0
 441 0004 DFF83091 		ldr	r9, .L48+8
 442 0008 494B     		ldr	r3, .L48
 443 000a D9F80050 		ldr	r5, [r9]
 444 000e 1C68     		ldr	r4, [r3]
 445 0010 0123     		movs	r3, #1
 446              		.loc 1 85 0
 447 0012 89B0     		sub	sp, sp, #36
 448              		.cfi_def_cfa_offset 72
 449              		.loc 1 86 0
 450 0014 AB40     		lsls	r3, r3, r5
 451 0016 9BB2     		uxth	r3, r3
 452              	.LBB54:
 453              	.LBB55:
 454              		.loc 1 133 0
 455 0018 0025     		movs	r5, #0
 456              	.LBE55:
ARM GAS  C:\Users\CFAR\AppData\Local\Temp\cctLjO4h.s 			page 9


 457              	.LBE54:
 458              		.loc 1 86 0
 459 001a 6383     		strh	r3, [r4, #26]	@ movhi
 460              	.LBB59:
 461              	.LBB58:
 462              		.loc 1 133 0
 463 001c 0595     		str	r5, [sp, #20]
 464 001e 059B     		ldr	r3, [sp, #20]
 465 0020 042B     		cmp	r3, #4
 466 0022 06DC     		bgt	.L23
 467              	.L24:
 468              	.LBB56:
 469              	.LBB57:
 470              		.file 2 "ChibiOS_3.0.5/os/ext/CMSIS/include/core_cmInstr.h"
 471              		.loc 2 327 0
 472              		.syntax unified
 473              	@ 327 "ChibiOS_3.0.5/os/ext/CMSIS/include/core_cmInstr.h" 1
 474 0024 00BF     		nop
 475              	@ 0 "" 2
 476              		.thumb
 477              		.syntax unified
 478              	.LBE57:
 479              	.LBE56:
 480              		.loc 1 133 0
 481 0026 059B     		ldr	r3, [sp, #20]
 482 0028 0133     		adds	r3, r3, #1
 483 002a 0593     		str	r3, [sp, #20]
 484 002c 059B     		ldr	r3, [sp, #20]
 485 002e 042B     		cmp	r3, #4
 486 0030 F8DD     		ble	.L24
 487              	.L23:
 488              	.LVL22:
 489              	.LBE58:
 490              	.LBE59:
 491              	.LBB60:
 492              		.loc 1 89 0
 493 0032 002A     		cmp	r2, #0
 494 0034 76DD     		ble	.L22
 495 0036 CDE90110 		strd	r1, r0, [sp, #4]
 496 003a 0023     		movs	r3, #0
 497 003c DFF8FCB0 		ldr	fp, .L48+12
 498 0040 DFF8FCA0 		ldr	r10, .L48+16
 499 0044 DFF8FC80 		ldr	r8, .L48+20
 500 0048 3A4F     		ldr	r7, .L48+4
 501 004a 0392     		str	r2, [sp, #12]
 502 004c 0093     		str	r3, [sp]
 503              	.LVL23:
 504              	.L34:
 505              	.LBB61:
 506              		.loc 1 90 0
 507 004e 019B     		ldr	r3, [sp, #4]
 508 0050 002B     		cmp	r3, #0
 509 0052 6AD0     		beq	.L35
 510              		.loc 1 90 0 is_stmt 0 discriminator 1
 511 0054 009A     		ldr	r2, [sp]
 512 0056 9D5C     		ldrb	r5, [r3, r2]	@ zero_extendqisi2
 513              	.L26:
ARM GAS  C:\Users\CFAR\AppData\Local\Temp\cctLjO4h.s 			page 10


 514              		.loc 1 90 0
 515 0058 0826     		movs	r6, #8
 516 005a 0024     		movs	r4, #0
 517              	.L32:
 518              	.LVL24:
 519              	.LBB62:
 520              	.LBB63:
 521              		.loc 1 94 0 is_stmt 1
 522 005c DBF80010 		ldr	r1, [fp]
 523 0060 DAF80020 		ldr	r2, [r10]
 524 0064 EB09     		lsrs	r3, r5, #7
 525 0066 01F11000 		add	r0, r1, #16
 526 006a 03FA01F1 		lsl	r1, r3, r1
 527 006e 83F00103 		eor	r3, r3, #1
 528 0072 8340     		lsls	r3, r3, r0
 529 0074 0B43     		orrs	r3, r3, r1
 530 0076 9361     		str	r3, [r2, #24]
 531              	.LBB64:
 532              	.LBB65:
 533              		.loc 1 133 0
 534 0078 0023     		movs	r3, #0
 535 007a 0693     		str	r3, [sp, #24]
 536 007c 069B     		ldr	r3, [sp, #24]
 537              	.LBE65:
 538              	.LBE64:
 539              		.loc 1 95 0
 540 007e 6D00     		lsls	r5, r5, #1
 541              	.LVL25:
 542              	.LBB70:
 543              	.LBB68:
 544              		.loc 1 133 0
 545 0080 042B     		cmp	r3, #4
 546              	.LBE68:
 547              	.LBE70:
 548              		.loc 1 95 0
 549 0082 EDB2     		uxtb	r5, r5
 550              	.LVL26:
 551              	.LBB71:
 552              	.LBB69:
 553              		.loc 1 133 0
 554 0084 06DC     		bgt	.L27
 555              	.L28:
 556              	.LBB66:
 557              	.LBB67:
 558              		.loc 2 327 0
 559              		.syntax unified
 560              	@ 327 "ChibiOS_3.0.5/os/ext/CMSIS/include/core_cmInstr.h" 1
 561 0086 00BF     		nop
 562              	@ 0 "" 2
 563              		.thumb
 564              		.syntax unified
 565              	.LBE67:
 566              	.LBE66:
 567              		.loc 1 133 0
 568 0088 069B     		ldr	r3, [sp, #24]
 569 008a 0133     		adds	r3, r3, #1
 570 008c 0693     		str	r3, [sp, #24]
ARM GAS  C:\Users\CFAR\AppData\Local\Temp\cctLjO4h.s 			page 11


 571 008e 069B     		ldr	r3, [sp, #24]
 572 0090 042B     		cmp	r3, #4
 573 0092 F8DD     		ble	.L28
 574              	.L27:
 575              	.LBE69:
 576              	.LBE71:
 577              		.loc 1 100 0
 578 0094 D8F80020 		ldr	r2, [r8]
 579 0098 3B68     		ldr	r3, [r7]
 580 009a 1069     		ldr	r0, [r2, #16]
 581 009c D840     		lsrs	r0, r0, r3
 582 009e 00F00100 		and	r0, r0, #1
 583              	.LVL27:
 584              	.LBB72:
 585              	.LBB73:
 586              		.loc 2 327 0
 587              		.syntax unified
 588              	@ 327 "ChibiOS_3.0.5/os/ext/CMSIS/include/core_cmInstr.h" 1
 589 00a2 00BF     		nop
 590              	@ 0 "" 2
 591              		.thumb
 592              		.syntax unified
 593              	.LBE73:
 594              	.LBE72:
 595              		.loc 1 102 0
 596 00a4 D8F80020 		ldr	r2, [r8]
 597 00a8 3B68     		ldr	r3, [r7]
 598 00aa 1169     		ldr	r1, [r2, #16]
 599 00ac D940     		lsrs	r1, r1, r3
 600 00ae 01F00101 		and	r1, r1, #1
 601              	.LVL28:
 602              	.LBB74:
 603              	.LBB75:
 604              		.loc 2 327 0
 605              		.syntax unified
 606              	@ 327 "ChibiOS_3.0.5/os/ext/CMSIS/include/core_cmInstr.h" 1
 607 00b2 00BF     		nop
 608              	@ 0 "" 2
 609              		.thumb
 610              		.syntax unified
 611              	.LBE75:
 612              	.LBE74:
 613              		.loc 1 104 0
 614 00b4 D8F80020 		ldr	r2, [r8]
 615 00b8 3B68     		ldr	r3, [r7]
 616 00ba 1269     		ldr	r2, [r2, #16]
 617              	.LVL29:
 618 00bc DA40     		lsrs	r2, r2, r3
 619              	.LVL30:
 620              		.loc 1 106 0
 621 00be 6400     		lsls	r4, r4, #1
 622              	.LVL31:
 623              		.loc 1 107 0
 624 00c0 02F00102 		and	r2, r2, #1
 625              	.LVL32:
 626              		.loc 1 106 0
 627 00c4 E4B2     		uxtb	r4, r4
ARM GAS  C:\Users\CFAR\AppData\Local\Temp\cctLjO4h.s 			page 12


 628              	.LVL33:
 629              		.loc 1 107 0
 630 00c6 FFF7FEFF 		bl	utils_middle_of_3_int
 631              	.LVL34:
 632 00ca 08B1     		cbz	r0, .L29
 633              		.loc 1 108 0
 634 00cc 44F00104 		orr	r4, r4, #1
 635              	.LVL35:
 636              	.L29:
 637              		.loc 1 111 0 discriminator 2
 638 00d0 D9F80030 		ldr	r3, [r9]
 639 00d4 164A     		ldr	r2, .L48
 640 00d6 0121     		movs	r1, #1
 641 00d8 01FA03F3 		lsl	r3, r1, r3
 642 00dc 1268     		ldr	r2, [r2]
 643              	.LBB76:
 644              	.LBB77:
 645              		.loc 1 133 0 discriminator 2
 646 00de 0021     		movs	r1, #0
 647              	.LBE77:
 648              	.LBE76:
 649              		.loc 1 111 0 discriminator 2
 650 00e0 9BB2     		uxth	r3, r3
 651 00e2 1383     		strh	r3, [r2, #24]	@ movhi
 652              	.LBB81:
 653              	.LBB80:
 654              		.loc 1 133 0 discriminator 2
 655 00e4 0791     		str	r1, [sp, #28]
 656 00e6 0799     		ldr	r1, [sp, #28]
 657 00e8 0429     		cmp	r1, #4
 658 00ea 0EDC     		bgt	.L30
 659              	.L31:
 660              	.LBB78:
 661              	.LBB79:
 662              		.loc 2 327 0
 663              		.syntax unified
 664              	@ 327 "ChibiOS_3.0.5/os/ext/CMSIS/include/core_cmInstr.h" 1
 665 00ec 00BF     		nop
 666              	@ 0 "" 2
 667              		.thumb
 668              		.syntax unified
 669              	.LBE79:
 670              	.LBE78:
 671              		.loc 1 133 0
 672 00ee 079B     		ldr	r3, [sp, #28]
 673 00f0 0133     		adds	r3, r3, #1
 674 00f2 0793     		str	r3, [sp, #28]
 675 00f4 079B     		ldr	r3, [sp, #28]
 676 00f6 042B     		cmp	r3, #4
 677 00f8 F8DD     		ble	.L31
 678 00fa D9F80030 		ldr	r3, [r9]
 679 00fe 0C4A     		ldr	r2, .L48
 680 0100 0121     		movs	r1, #1
 681 0102 01FA03F3 		lsl	r3, r1, r3
 682 0106 1268     		ldr	r2, [r2]
 683 0108 9BB2     		uxth	r3, r3
 684              	.L30:
ARM GAS  C:\Users\CFAR\AppData\Local\Temp\cctLjO4h.s 			page 13


 685              	.LBE80:
 686              	.LBE81:
 687              	.LBE63:
 688              		.loc 1 93 0 discriminator 2
 689 010a 013E     		subs	r6, r6, #1
 690              	.LVL36:
 691              	.LBB82:
 692              		.loc 1 113 0 discriminator 2
 693 010c 5383     		strh	r3, [r2, #26]	@ movhi
 694              	.LVL37:
 695              	.LBE82:
 696              		.loc 1 93 0 discriminator 2
 697 010e A5D1     		bne	.L32
 698              	.LBE62:
 699              		.loc 1 116 0
 700 0110 029B     		ldr	r3, [sp, #8]
 701 0112 0BB1     		cbz	r3, .L33
 702              		.loc 1 117 0
 703 0114 009A     		ldr	r2, [sp]
 704 0116 9C54     		strb	r4, [r3, r2]
 705              	.L33:
 706              	.LBE61:
 707              		.loc 1 89 0 discriminator 2
 708 0118 009B     		ldr	r3, [sp]
 709 011a 039A     		ldr	r2, [sp, #12]
 710 011c 0133     		adds	r3, r3, #1
 711 011e 9A42     		cmp	r2, r3
 712 0120 0093     		str	r3, [sp]
 713              	.LVL38:
 714 0122 94D1     		bne	.L34
 715              	.LVL39:
 716              	.L22:
 717              	.LBE60:
 718              		.loc 1 120 0
 719 0124 09B0     		add	sp, sp, #36
 720              		.cfi_remember_state
 721              		.cfi_def_cfa_offset 36
 722              		@ sp needed
 723 0126 BDE8F08F 		pop	{r4, r5, r6, r7, r8, r9, r10, fp, pc}
 724              	.LVL40:
 725              	.L35:
 726              		.cfi_restore_state
 727              	.LBB84:
 728              	.LBB83:
 729              		.loc 1 90 0
 730 012a 019D     		ldr	r5, [sp, #4]
 731 012c 94E7     		b	.L26
 732              	.L49:
 733 012e 00BF     		.align	2
 734              	.L48:
 735 0130 00000000 		.word	.LANCHOR5
 736 0134 00000000 		.word	.LANCHOR0
 737 0138 00000000 		.word	.LANCHOR4
 738 013c 00000000 		.word	.LANCHOR6
 739 0140 00000000 		.word	.LANCHOR7
 740 0144 00000000 		.word	.LANCHOR1
 741              	.LBE83:
ARM GAS  C:\Users\CFAR\AppData\Local\Temp\cctLjO4h.s 			page 14


 742              	.LBE84:
 743              		.cfi_endproc
 744              	.LFE259:
 745              		.size	spi_sw_transfer, .-spi_sw_transfer
 746              		.section	.text.spi_sw_begin,"ax",%progbits
 747              		.align	1
 748              		.p2align 4,,15
 749              		.global	spi_sw_begin
 750              		.syntax unified
 751              		.thumb
 752              		.thumb_func
 753              		.fpu fpv4-sp-d16
 754              		.type	spi_sw_begin, %function
 755              	spi_sw_begin:
 756              	.LFB260:
 757              		.loc 1 122 0
 758              		.cfi_startproc
 759              		@ args = 0, pretend = 0, frame = 8
 760              		@ frame_needed = 0, uses_anonymous_args = 0
 761              		@ link register save eliminated.
 762              		.loc 1 123 0
 763 0000 0B4A     		ldr	r2, .L55
 764 0002 0C4B     		ldr	r3, .L55+4
 765 0004 1268     		ldr	r2, [r2]
 766 0006 1968     		ldr	r1, [r3]
 767 0008 0123     		movs	r3, #1
 768              		.loc 1 122 0
 769 000a 82B0     		sub	sp, sp, #8
 770              		.cfi_def_cfa_offset 8
 771              		.loc 1 123 0
 772 000c 9340     		lsls	r3, r3, r2
 773 000e 9BB2     		uxth	r3, r3
 774              	.LBB85:
 775              	.LBB86:
 776              		.loc 1 133 0
 777 0010 0022     		movs	r2, #0
 778              	.LBE86:
 779              	.LBE85:
 780              		.loc 1 123 0
 781 0012 4B83     		strh	r3, [r1, #26]	@ movhi
 782              	.LBB90:
 783              	.LBB89:
 784              		.loc 1 133 0
 785 0014 0192     		str	r2, [sp, #4]
 786 0016 019B     		ldr	r3, [sp, #4]
 787 0018 042B     		cmp	r3, #4
 788 001a 06DC     		bgt	.L50
 789              	.L52:
 790              	.LBB87:
 791              	.LBB88:
 792              		.loc 2 327 0
 793              		.syntax unified
 794              	@ 327 "ChibiOS_3.0.5/os/ext/CMSIS/include/core_cmInstr.h" 1
 795 001c 00BF     		nop
 796              	@ 0 "" 2
 797              		.thumb
 798              		.syntax unified
ARM GAS  C:\Users\CFAR\AppData\Local\Temp\cctLjO4h.s 			page 15


 799              	.LBE88:
 800              	.LBE87:
 801              		.loc 1 133 0
 802 001e 019B     		ldr	r3, [sp, #4]
 803 0020 0133     		adds	r3, r3, #1
 804 0022 0193     		str	r3, [sp, #4]
 805 0024 019B     		ldr	r3, [sp, #4]
 806 0026 042B     		cmp	r3, #4
 807 0028 F8DD     		ble	.L52
 808              	.L50:
 809              	.LBE89:
 810              	.LBE90:
 811              		.loc 1 125 0
 812 002a 02B0     		add	sp, sp, #8
 813              		.cfi_def_cfa_offset 0
 814              		@ sp needed
 815 002c 7047     		bx	lr
 816              	.L56:
 817 002e 00BF     		.align	2
 818              	.L55:
 819 0030 00000000 		.word	.LANCHOR2
 820 0034 00000000 		.word	.LANCHOR3
 821              		.cfi_endproc
 822              	.LFE260:
 823              		.size	spi_sw_begin, .-spi_sw_begin
 824              		.section	.text.spi_sw_end,"ax",%progbits
 825              		.align	1
 826              		.p2align 4,,15
 827              		.global	spi_sw_end
 828              		.syntax unified
 829              		.thumb
 830              		.thumb_func
 831              		.fpu fpv4-sp-d16
 832              		.type	spi_sw_end, %function
 833              	spi_sw_end:
 834              	.LFB261:
 835              		.loc 1 127 0
 836              		.cfi_startproc
 837              		@ args = 0, pretend = 0, frame = 8
 838              		@ frame_needed = 0, uses_anonymous_args = 0
 839              		@ link register save eliminated.
 840 0000 82B0     		sub	sp, sp, #8
 841              		.cfi_def_cfa_offset 8
 842              	.LBB91:
 843              	.LBB92:
 844              		.loc 1 133 0
 845 0002 0023     		movs	r3, #0
 846 0004 0193     		str	r3, [sp, #4]
 847 0006 019B     		ldr	r3, [sp, #4]
 848 0008 042B     		cmp	r3, #4
 849 000a 06DC     		bgt	.L58
 850              	.L59:
 851              	.LBB93:
 852              	.LBB94:
 853              		.loc 2 327 0
 854              		.syntax unified
 855              	@ 327 "ChibiOS_3.0.5/os/ext/CMSIS/include/core_cmInstr.h" 1
ARM GAS  C:\Users\CFAR\AppData\Local\Temp\cctLjO4h.s 			page 16


 856 000c 00BF     		nop
 857              	@ 0 "" 2
 858              		.thumb
 859              		.syntax unified
 860              	.LBE94:
 861              	.LBE93:
 862              		.loc 1 133 0
 863 000e 019B     		ldr	r3, [sp, #4]
 864 0010 0133     		adds	r3, r3, #1
 865 0012 0193     		str	r3, [sp, #4]
 866 0014 019B     		ldr	r3, [sp, #4]
 867 0016 042B     		cmp	r3, #4
 868 0018 F8DD     		ble	.L59
 869              	.L58:
 870              	.LBE92:
 871              	.LBE91:
 872              		.loc 1 129 0
 873 001a 054A     		ldr	r2, .L62
 874 001c 054B     		ldr	r3, .L62+4
 875 001e 1168     		ldr	r1, [r2]
 876 0020 1A68     		ldr	r2, [r3]
 877 0022 0123     		movs	r3, #1
 878 0024 8B40     		lsls	r3, r3, r1
 879 0026 9BB2     		uxth	r3, r3
 880 0028 1383     		strh	r3, [r2, #24]	@ movhi
 881              		.loc 1 130 0
 882 002a 02B0     		add	sp, sp, #8
 883              		.cfi_def_cfa_offset 0
 884              		@ sp needed
 885 002c 7047     		bx	lr
 886              	.L63:
 887 002e 00BF     		.align	2
 888              	.L62:
 889 0030 00000000 		.word	.LANCHOR2
 890 0034 00000000 		.word	.LANCHOR3
 891              		.cfi_endproc
 892              	.LFE261:
 893              		.size	spi_sw_end, .-spi_sw_end
 894              		.section	.bss.m_init_done,"aw",%nobits
 895              		.set	.LANCHOR8,. + 0
 896              		.type	m_init_done, %object
 897              		.size	m_init_done, 1
 898              	m_init_done:
 899 0000 00       		.space	1
 900              		.section	.data.m_pin_csn,"aw",%progbits
 901              		.align	2
 902              		.set	.LANCHOR2,. + 0
 903              		.type	m_pin_csn, %object
 904              		.size	m_pin_csn, 4
 905              	m_pin_csn:
 906 0000 04000000 		.word	4
 907              		.section	.data.m_pin_miso,"aw",%progbits
 908              		.align	2
 909              		.set	.LANCHOR0,. + 0
 910              		.type	m_pin_miso, %object
 911              		.size	m_pin_miso, 4
 912              	m_pin_miso:
ARM GAS  C:\Users\CFAR\AppData\Local\Temp\cctLjO4h.s 			page 17


 913 0000 06000000 		.word	6
 914              		.section	.data.m_pin_mosi,"aw",%progbits
 915              		.align	2
 916              		.set	.LANCHOR6,. + 0
 917              		.type	m_pin_mosi, %object
 918              		.size	m_pin_mosi, 4
 919              	m_pin_mosi:
 920 0000 07000000 		.word	7
 921              		.section	.data.m_pin_sck,"aw",%progbits
 922              		.align	2
 923              		.set	.LANCHOR4,. + 0
 924              		.type	m_pin_sck, %object
 925              		.size	m_pin_sck, 4
 926              	m_pin_sck:
 927 0000 05000000 		.word	5
 928              		.section	.data.m_port_csn,"aw",%progbits
 929              		.align	2
 930              		.set	.LANCHOR3,. + 0
 931              		.type	m_port_csn, %object
 932              		.size	m_port_csn, 4
 933              	m_port_csn:
 934 0000 00000240 		.word	1073872896
 935              		.section	.data.m_port_miso,"aw",%progbits
 936              		.align	2
 937              		.set	.LANCHOR1,. + 0
 938              		.type	m_port_miso, %object
 939              		.size	m_port_miso, 4
 940              	m_port_miso:
 941 0000 00000240 		.word	1073872896
 942              		.section	.data.m_port_mosi,"aw",%progbits
 943              		.align	2
 944              		.set	.LANCHOR7,. + 0
 945              		.type	m_port_mosi, %object
 946              		.size	m_port_mosi, 4
 947              	m_port_mosi:
 948 0000 00000240 		.word	1073872896
 949              		.section	.data.m_port_sck,"aw",%progbits
 950              		.align	2
 951              		.set	.LANCHOR5,. + 0
 952              		.type	m_port_sck, %object
 953              		.size	m_port_sck, 4
 954              	m_port_sck:
 955 0000 00000240 		.word	1073872896
 956              		.text
 957              	.Letext0:
 958              		.file 3 "c:\\st\\stm32cubeide_1.3.0\\stm32cubeide\\plugins\\com.st.stm32cube.ide.mcu.externaltools
 959              		.file 4 "c:\\st\\stm32cubeide_1.3.0\\stm32cubeide\\plugins\\com.st.stm32cube.ide.mcu.externaltools
 960              		.file 5 "c:\\st\\stm32cubeide_1.3.0\\stm32cubeide\\plugins\\com.st.stm32cube.ide.mcu.externaltools
 961              		.file 6 "ChibiOS_3.0.5/os/rt/ports/ARMCMx/compilers/GCC/chtypes.h"
 962              		.file 7 "ChibiOS_3.0.5/os/rt/include/chsystypes.h"
 963              		.file 8 "ChibiOS_3.0.5/os/rt/include/chschd.h"
 964              		.file 9 "ChibiOS_3.0.5/os/ext/CMSIS/include/core_cm4.h"
 965              		.file 10 "ChibiOS_3.0.5/os/ext/CMSIS/ST/system_stm32f4xx.h"
 966              		.file 11 "ChibiOS_3.0.5/os/ext/CMSIS/ST/stm32f407xx.h"
 967              		.file 12 "ChibiOS_3.0.5/os/rt/ports/ARMCMx/chcore.h"
 968              		.file 13 "ChibiOS_3.0.5/os/rt/ports/ARMCMx/chcore_v7m.h"
 969              		.file 14 "ChibiOS_3.0.5/os/rt/include/chtm.h"
ARM GAS  C:\Users\CFAR\AppData\Local\Temp\cctLjO4h.s 			page 18


 970              		.file 15 "ChibiOS_3.0.5/os/rt/include/chsem.h"
 971              		.file 16 "ChibiOS_3.0.5/os/rt/include/chmtx.h"
 972              		.file 17 "ChibiOS_3.0.5/os/rt/include/chregistry.h"
 973              		.file 18 "ChibiOS_3.0.5/os/rt/include/chevents.h"
 974              		.file 19 "ChibiOS_3.0.5/os/rt/include/chqueues.h"
 975              		.file 20 "./conf_general.h"
 976              		.file 21 "ChibiOS_3.0.5/os/hal/ports/STM32/STM32F4xx/stm32_dma.h"
 977              		.file 22 "ChibiOS_3.0.5/os/hal/ports/STM32/LLD/GPIOv2/pal_lld.h"
 978              		.file 23 "ChibiOS_3.0.5/os/hal/include/can.h"
 979              		.file 24 "ChibiOS_3.0.5/os/hal/ports/STM32/LLD/can_lld.h"
 980              		.file 25 "ChibiOS_3.0.5/os/hal/include/i2c.h"
 981              		.file 26 "ChibiOS_3.0.5/os/hal/ports/STM32/LLD/I2Cv1/i2c_lld.h"
 982              		.file 27 "ChibiOS_3.0.5/os/hal/include/icu.h"
 983              		.file 28 "ChibiOS_3.0.5/os/hal/ports/STM32/LLD/TIMv1/icu_lld.h"
 984              		.file 29 "ChibiOS_3.0.5/os/hal/ports/STM32/LLD/TIMv1/stm32_tim.h"
 985              		.file 30 "ChibiOS_3.0.5/os/hal/include/serial.h"
 986              		.file 31 "ChibiOS_3.0.5/os/hal/ports/STM32/LLD/USARTv1/serial_lld.h"
 987              		.file 32 "ChibiOS_3.0.5/os/hal/include/spi.h"
 988              		.file 33 "ChibiOS_3.0.5/os/hal/ports/STM32/LLD/SPIv1/spi_lld.h"
 989              		.file 34 "ChibiOS_3.0.5/os/hal/include/usb.h"
 990              		.file 35 "ChibiOS_3.0.5/os/hal/ports/STM32/LLD/OTGv1/usb_lld.h"
 991              		.file 36 "ChibiOS_3.0.5/os/hal/ports/STM32/LLD/OTGv1/stm32_otg.h"
 992              		.file 37 "./utils.h"
