ARM GAS  C:\Users\CFAR\AppData\Local\Temp\ccGf3M6g.s 			page 1


   1              		.cpu cortex-m4
   2              		.eabi_attribute 27, 1
   3              		.eabi_attribute 28, 1
   4              		.eabi_attribute 20, 1
   5              		.eabi_attribute 21, 1
   6              		.eabi_attribute 23, 3
   7              		.eabi_attribute 24, 1
   8              		.eabi_attribute 25, 1
   9              		.eabi_attribute 26, 1
  10              		.eabi_attribute 30, 2
  11              		.eabi_attribute 34, 1
  12              		.eabi_attribute 18, 4
  13              		.file	"stm32l0.c"
  14              		.text
  15              	.Ltext0:
  16              		.cfi_sections	.debug_frame
  17              		.section	.text.stm32lx_nvm_prog_data_unlock,"ax",%progbits
  18              		.align	1
  19              		.p2align 4,,15
  20              		.syntax unified
  21              		.thumb
  22              		.thumb_func
  23              		.fpu fpv4-sp-d16
  24              		.type	stm32lx_nvm_prog_data_unlock, %function
  25              	stm32lx_nvm_prog_data_unlock:
  26              	.LFB271:
  27              		.file 1 "blackmagic/target/stm32l0.c"
  28              		.loc 1 310 0
  29              		.cfi_startproc
  30              		@ args = 0, pretend = 0, frame = 0
  31              		@ frame_needed = 0, uses_anonymous_args = 0
  32              	.LVL0:
  33 0000 F8B5     		push	{r3, r4, r5, r6, r7, lr}
  34              		.cfi_def_cfa_offset 24
  35              		.cfi_offset 3, -24
  36              		.cfi_offset 4, -20
  37              		.cfi_offset 5, -16
  38              		.cfi_offset 6, -12
  39              		.cfi_offset 7, -8
  40              		.cfi_offset 14, -4
  41              		.loc 1 310 0
  42 0002 0C46     		mov	r4, r1
  43              		.loc 1 313 0
  44 0004 0E1D     		adds	r6, r1, #4
  45              		.loc 1 310 0
  46 0006 0546     		mov	r5, r0
  47              		.loc 1 314 0
  48 0008 04F10C07 		add	r7, r4, #12
  49              		.loc 1 313 0
  50 000c 3146     		mov	r1, r6
  51              	.LVL1:
  52 000e 0122     		movs	r2, #1
  53 0010 FFF7FEFF 		bl	target_mem_write32
  54              	.LVL2:
  55              		.loc 1 314 0
  56 0014 3946     		mov	r1, r7
  57 0016 2846     		mov	r0, r5
ARM GAS  C:\Users\CFAR\AppData\Local\Temp\ccGf3M6g.s 			page 2


  58 0018 0D4A     		ldr	r2, .L4
  59 001a FFF7FEFF 		bl	target_mem_write32
  60              	.LVL3:
  61              		.loc 1 316 0
  62 001e 1034     		adds	r4, r4, #16
  63              	.LVL4:
  64              		.loc 1 315 0
  65 0020 3946     		mov	r1, r7
  66 0022 2846     		mov	r0, r5
  67 0024 0B4A     		ldr	r2, .L4+4
  68 0026 FFF7FEFF 		bl	target_mem_write32
  69              	.LVL5:
  70              		.loc 1 316 0
  71 002a 2146     		mov	r1, r4
  72 002c 2846     		mov	r0, r5
  73 002e 0A4A     		ldr	r2, .L4+8
  74 0030 FFF7FEFF 		bl	target_mem_write32
  75              	.LVL6:
  76              		.loc 1 317 0
  77 0034 2146     		mov	r1, r4
  78 0036 2846     		mov	r0, r5
  79 0038 084A     		ldr	r2, .L4+12
  80 003a FFF7FEFF 		bl	target_mem_write32
  81              	.LVL7:
  82              		.loc 1 319 0
  83 003e 3146     		mov	r1, r6
  84 0040 2846     		mov	r0, r5
  85 0042 FFF7FEFF 		bl	target_mem_read32
  86              	.LVL8:
  87 0046 80F00200 		eor	r0, r0, #2
  88              		.loc 1 321 0
  89 004a C0F34000 		ubfx	r0, r0, #1, #1
  90 004e F8BD     		pop	{r3, r4, r5, r6, r7, pc}
  91              	.LVL9:
  92              	.L5:
  93              		.align	2
  94              	.L4:
  95 0050 EFCDAB89 		.word	-1985229329
  96 0054 05040302 		.word	33752069
  97 0058 BFAE9D8C 		.word	-1935823169
  98 005c 16151413 		.word	320083222
  99              		.cfi_endproc
 100              	.LFE271:
 101              		.size	stm32lx_nvm_prog_data_unlock, .-stm32lx_nvm_prog_data_unlock
 102              		.section	.text.stm32lx_option_write,"ax",%progbits
 103              		.align	1
 104              		.p2align 4,,15
 105              		.syntax unified
 106              		.thumb
 107              		.thumb_func
 108              		.fpu fpv4-sp-d16
 109              		.type	stm32lx_option_write, %function
 110              	stm32lx_option_write:
 111              	.LFB277:
 112              		.loc 1 539 0
 113              		.cfi_startproc
 114              		@ args = 0, pretend = 0, frame = 0
ARM GAS  C:\Users\CFAR\AppData\Local\Temp\ccGf3M6g.s 			page 3


 115              		@ frame_needed = 0, uses_anonymous_args = 0
 116              	.LVL10:
 117 0000 F8B5     		push	{r3, r4, r5, r6, r7, lr}
 118              		.cfi_def_cfa_offset 24
 119              		.cfi_offset 3, -24
 120              		.cfi_offset 4, -20
 121              		.cfi_offset 5, -16
 122              		.cfi_offset 6, -12
 123              		.cfi_offset 7, -8
 124              		.cfi_offset 14, -4
 125              		.loc 1 539 0
 126 0002 0446     		mov	r4, r0
 127              	.LVL11:
 128              	.LBB50:
 129              	.LBB51:
 130              		.loc 1 208 0
 131 0004 40F22540 		movw	r0, #1061
 132              	.LVL12:
 133 0008 236D     		ldr	r3, [r4, #80]
 134 000a 8342     		cmp	r3, r0
 135              	.LBE51:
 136              	.LBE50:
 137              		.loc 1 539 0
 138 000c 0E46     		mov	r6, r1
 139 000e 1746     		mov	r7, r2
 140              	.LBB53:
 141              	.LBB52:
 142              		.loc 1 208 0
 143 0010 0FD0     		beq	.L8
 144 0012 0AD9     		bls	.L14
 145 0014 40F24742 		movw	r2, #1095
 146              	.LVL13:
 147 0018 9342     		cmp	r3, r2
 148 001a 0AD0     		beq	.L8
 149 001c 40F25742 		movw	r2, #1111
 150 0020 9342     		cmp	r3, r2
 151 0022 06D0     		beq	.L8
 152              	.L11:
 153 0024 0F4D     		ldr	r5, .L15
 154 0026 1049     		ldr	r1, .L15+4
 155              	.LVL14:
 156 0028 05E0     		b	.L7
 157              	.LVL15:
 158              	.L14:
 159 002a 40F21742 		movw	r2, #1047
 160              	.LVL16:
 161 002e 9342     		cmp	r3, r2
 162 0030 F8D1     		bne	.L11
 163              	.L8:
 164 0032 0E4D     		ldr	r5, .L15+8
 165 0034 0E49     		ldr	r1, .L15+12
 166              	.LVL17:
 167              	.L7:
 168              	.LBE52:
 169              	.LBE53:
 170              		.loc 1 543 0
 171 0036 4FF48072 		mov	r2, #256
ARM GAS  C:\Users\CFAR\AppData\Local\Temp\ccGf3M6g.s 			page 4


 172 003a 2046     		mov	r0, r4
 173 003c FFF7FEFF 		bl	target_mem_write32
 174              	.LVL18:
 175              		.loc 1 544 0
 176 0040 3A46     		mov	r2, r7
 177 0042 3146     		mov	r1, r6
 178 0044 2046     		mov	r0, r4
 179 0046 FFF7FEFF 		bl	target_mem_write32
 180              	.LVL19:
 181              	.L10:
 182              		.loc 1 548 0 discriminator 1
 183 004a 2946     		mov	r1, r5
 184 004c 2046     		mov	r0, r4
 185 004e FFF7FEFF 		bl	target_mem_read32
 186              	.LVL20:
 187              		.loc 1 549 0 discriminator 1
 188 0052 C307     		lsls	r3, r0, #31
 189 0054 F9D4     		bmi	.L10
 190              		.loc 1 551 0
 191 0056 074B     		ldr	r3, .L15+16
 192 0058 1842     		tst	r0, r3
 193              		.loc 1 552 0
 194 005a 0CBF     		ite	eq
 195 005c 0120     		moveq	r0, #1
 196              	.LVL21:
 197 005e 0020     		movne	r0, #0
 198 0060 F8BD     		pop	{r3, r4, r5, r6, r7, pc}
 199              	.LVL22:
 200              	.L16:
 201 0062 00BF     		.align	2
 202              	.L15:
 203 0064 183C0240 		.word	1073888280
 204 0068 043C0240 		.word	1073888260
 205 006c 18200240 		.word	1073881112
 206 0070 04200240 		.word	1073881092
 207 0074 00070100 		.word	67328
 208              		.cfi_endproc
 209              	.LFE277:
 210              		.size	stm32lx_option_write, .-stm32lx_option_write
 211              		.section	.text.stm32lx_cmd_option,"ax",%progbits
 212              		.align	1
 213              		.p2align 4,,15
 214              		.syntax unified
 215              		.thumb
 216              		.thumb_func
 217              		.fpu fpv4-sp-d16
 218              		.type	stm32lx_cmd_option, %function
 219              	stm32lx_cmd_option:
 220              	.LFB279:
 221              		.loc 1 593 0
 222              		.cfi_startproc
 223              		@ args = 0, pretend = 0, frame = 8
 224              		@ frame_needed = 0, uses_anonymous_args = 0
 225              	.LVL23:
 226 0000 2DE9F04F 		push	{r4, r5, r6, r7, r8, r9, r10, fp, lr}
 227              		.cfi_def_cfa_offset 36
 228              		.cfi_offset 4, -36
ARM GAS  C:\Users\CFAR\AppData\Local\Temp\ccGf3M6g.s 			page 5


 229              		.cfi_offset 5, -32
 230              		.cfi_offset 6, -28
 231              		.cfi_offset 7, -24
 232              		.cfi_offset 8, -20
 233              		.cfi_offset 9, -16
 234              		.cfi_offset 10, -12
 235              		.cfi_offset 11, -8
 236              		.cfi_offset 14, -4
 237 0004 0446     		mov	r4, r0
 238              	.LBB70:
 239              	.LBB71:
 240              		.loc 1 208 0
 241 0006 40F22540 		movw	r0, #1061
 242              	.LVL24:
 243              	.LBE71:
 244              	.LBE70:
 245              		.loc 1 594 0
 246 000a 236D     		ldr	r3, [r4, #80]
 247              	.LVL25:
 248              	.LBB77:
 249              	.LBB72:
 250              		.loc 1 208 0
 251 000c 8342     		cmp	r3, r0
 252              	.LBE72:
 253              	.LBE77:
 254              		.loc 1 593 0
 255 000e 89B0     		sub	sp, sp, #36
 256              		.cfi_def_cfa_offset 72
 257              		.loc 1 593 0
 258 0010 8A46     		mov	r10, r1
 259 0012 9346     		mov	fp, r2
 260              	.LBB78:
 261              	.LBB73:
 262              		.loc 1 208 0
 263 0014 68D0     		beq	.L19
 264 0016 63D9     		bls	.L58
 265 0018 40F24742 		movw	r2, #1095
 266              	.LVL26:
 267 001c 9342     		cmp	r3, r2
 268 001e 63D0     		beq	.L19
 269 0020 40F25742 		movw	r2, #1111
 270 0024 9342     		cmp	r3, r2
 271 0026 5FD0     		beq	.L19
 272              	.L42:
 273              		.loc 1 215 0
 274 0028 C04A     		ldr	r2, .L68
 275 002a 0792     		str	r2, [sp, #28]
 276              	.LBE73:
 277              	.LBE78:
 278              	.LBB79:
 279              	.LBB80:
 280              		.loc 1 221 0
 281 002c 40F22542 		movw	r2, #1061
 282 0030 9342     		cmp	r3, r2
 283              	.LBE80:
 284              	.LBE79:
 285              	.LBB86:
ARM GAS  C:\Users\CFAR\AppData\Local\Temp\ccGf3M6g.s 			page 6


 286              	.LBB74:
 287              		.loc 1 208 0
 288 0032 BF4D     		ldr	r5, .L68+4
 289 0034 DFF86893 		ldr	r9, .L68+116
 290 0038 BE4E     		ldr	r6, .L68+8
 291              	.LVL27:
 292              	.LBE74:
 293              	.LBE86:
 294              	.LBB87:
 295              	.LBB81:
 296              		.loc 1 221 0
 297 003a 5FD1     		bne	.L59
 298              	.L22:
 299              		.loc 1 226 0
 300 003c 0C27     		movs	r7, #12
 301              	.L21:
 302              	.LVL28:
 303              	.LBE81:
 304              	.LBE87:
 305              	.LBB88:
 306              	.LBB89:
 307              		.loc 1 330 0
 308 003e 0122     		movs	r2, #1
 309 0040 3146     		mov	r1, r6
 310              	.LVL29:
 311 0042 2046     		mov	r0, r4
 312 0044 FFF7FEFF 		bl	target_mem_write32
 313              	.LVL30:
 314              		.loc 1 331 0
 315 0048 BB4A     		ldr	r2, .L68+12
 316 004a 4946     		mov	r1, r9
 317 004c 2046     		mov	r0, r4
 318 004e FFF7FEFF 		bl	target_mem_write32
 319              	.LVL31:
 320              		.loc 1 332 0
 321 0052 4946     		mov	r1, r9
 322 0054 B94A     		ldr	r2, .L68+16
 323 0056 2046     		mov	r0, r4
 324 0058 FFF7FEFF 		bl	target_mem_write32
 325              	.LVL32:
 326              		.loc 1 333 0
 327 005c B84A     		ldr	r2, .L68+20
 328 005e 2946     		mov	r1, r5
 329 0060 2046     		mov	r0, r4
 330 0062 FFF7FEFF 		bl	target_mem_write32
 331              	.LVL33:
 332              		.loc 1 334 0
 333 0066 B74A     		ldr	r2, .L68+24
 334 0068 2946     		mov	r1, r5
 335 006a 2046     		mov	r0, r4
 336 006c FFF7FEFF 		bl	target_mem_write32
 337              	.LVL34:
 338              		.loc 1 336 0
 339 0070 3146     		mov	r1, r6
 340 0072 2046     		mov	r0, r4
 341 0074 FFF7FEFF 		bl	target_mem_read32
 342              	.LVL35:
ARM GAS  C:\Users\CFAR\AppData\Local\Temp\ccGf3M6g.s 			page 7


 343              	.LBE89:
 344              	.LBE88:
 345              		.loc 1 597 0
 346 0078 4207     		lsls	r2, r0, #29
 347 007a 00F1B780 		bmi	.L60
 348              		.loc 1 602 0
 349 007e DBF80450 		ldr	r5, [fp, #4]
 350 0082 2846     		mov	r0, r5
 351 0084 FFF7FEFF 		bl	strlen
 352              	.LVL36:
 353              		.loc 1 604 0
 354 0088 BAF1020F 		cmp	r10, #2
 355              		.loc 1 602 0
 356 008c 8146     		mov	r9, r0
 357              	.LVL37:
 358              		.loc 1 604 0
 359 008e 40D0     		beq	.L61
 360              		.loc 1 608 0
 361 0090 BAF1040F 		cmp	r10, #4
 362 0094 00F0B280 		beq	.L62
 363              	.LVL38:
 364              	.L29:
 365              	.LDL1:
 366              		.loc 1 689 0
 367 0098 AB49     		ldr	r1, .L68+28
 368 009a 2046     		mov	r0, r4
 369 009c FFF7FEFF 		bl	tc_printf
 370              	.LVL39:
 371              		.loc 1 690 0
 372 00a0 AA49     		ldr	r1, .L68+32
 373 00a2 2046     		mov	r0, r4
 374 00a4 FFF7FEFF 		bl	tc_printf
 375              	.LVL40:
 376              		.loc 1 692 0
 377 00a8 A949     		ldr	r1, .L68+36
 378 00aa 2046     		mov	r0, r4
 379 00ac FFF7FEFF 		bl	tc_printf
 380              	.LVL41:
 381              		.loc 1 693 0
 382 00b0 A849     		ldr	r1, .L68+40
 383 00b2 2046     		mov	r0, r4
 384 00b4 FFF7FEFF 		bl	tc_printf
 385              	.LVL42:
 386              		.loc 1 695 0
 387 00b8 A749     		ldr	r1, .L68+44
 388 00ba 2046     		mov	r0, r4
 389 00bc FFF7FEFF 		bl	tc_printf
 390              	.LVL43:
 391              		.loc 1 696 0
 392 00c0 A64B     		ldr	r3, .L68+48
 393 00c2 A74A     		ldr	r2, .L68+52
 394 00c4 A749     		ldr	r1, .L68+56
 395 00c6 3B44     		add	r3, r3, r7
 396 00c8 2046     		mov	r0, r4
 397 00ca FFF7FEFF 		bl	tc_printf
 398              	.LVL44:
 399              	.L41:
ARM GAS  C:\Users\CFAR\AppData\Local\Temp\ccGf3M6g.s 			page 8


 400              	.LBB90:
 401              	.LBB91:
 402              		.loc 1 303 0
 403 00ce 2046     		mov	r0, r4
 404 00d0 3146     		mov	r1, r6
 405 00d2 0122     		movs	r2, #1
 406 00d4 FFF7FEFF 		bl	target_mem_write32
 407              	.LVL45:
 408              	.LBE91:
 409              	.LBE90:
 410              		.loc 1 704 0
 411 00d8 0120     		movs	r0, #1
 412 00da 09B0     		add	sp, sp, #36
 413              		.cfi_remember_state
 414              		.cfi_def_cfa_offset 36
 415              		@ sp needed
 416 00dc BDE8F08F 		pop	{r4, r5, r6, r7, r8, r9, r10, fp, pc}
 417              	.LVL46:
 418              	.L58:
 419              		.cfi_restore_state
 420              	.LBB92:
 421              	.LBB75:
 422              		.loc 1 208 0
 423 00e0 40F21742 		movw	r2, #1047
 424              	.LVL47:
 425 00e4 9342     		cmp	r3, r2
 426 00e6 9FD1     		bne	.L42
 427              	.L19:
 428              		.loc 1 213 0
 429 00e8 9F4A     		ldr	r2, .L68+60
 430 00ea 0792     		str	r2, [sp, #28]
 431              	.LBE75:
 432              	.LBE92:
 433              	.LBB93:
 434              	.LBB82:
 435              		.loc 1 221 0
 436 00ec 40F22542 		movw	r2, #1061
 437 00f0 9342     		cmp	r3, r2
 438              	.LBE82:
 439              	.LBE93:
 440              	.LBB94:
 441              	.LBB76:
 442              		.loc 1 208 0
 443 00f2 9E4D     		ldr	r5, .L68+64
 444 00f4 DFF8AC92 		ldr	r9, .L68+120
 445 00f8 9D4E     		ldr	r6, .L68+68
 446              	.LVL48:
 447              	.LBE76:
 448              	.LBE94:
 449              	.LBB95:
 450              	.LBB83:
 451              		.loc 1 221 0
 452 00fa 9FD0     		beq	.L22
 453              	.L59:
 454 00fc 71D9     		bls	.L63
 455 00fe 40F24742 		movw	r2, #1095
 456 0102 9342     		cmp	r3, r2
ARM GAS  C:\Users\CFAR\AppData\Local\Temp\ccGf3M6g.s 			page 9


 457 0104 9AD0     		beq	.L22
 458 0106 40F25742 		movw	r2, #1111
 459 010a 9342     		cmp	r3, r2
 460 010c 96D0     		beq	.L22
 461              	.L43:
 462              		.loc 1 228 0
 463 010e 2027     		movs	r7, #32
 464 0110 95E7     		b	.L21
 465              	.LVL49:
 466              	.L61:
 467              	.LBE83:
 468              	.LBE95:
 469              		.loc 1 604 0 discriminator 1
 470 0112 0246     		mov	r2, r0
 471 0114 9749     		ldr	r1, .L68+72
 472 0116 2846     		mov	r0, r5
 473              	.LVL50:
 474 0118 FFF7FEFF 		bl	strncasecmp
 475              	.LVL51:
 476 011c 0028     		cmp	r0, #0
 477 011e 00F0AD80 		beq	.L64
 478              		.loc 1 631 0 discriminator 1
 479 0122 4A46     		mov	r2, r9
 480 0124 2846     		mov	r0, r5
 481 0126 9449     		ldr	r1, .L68+76
 482 0128 FFF7FEFF 		bl	strncasecmp
 483              	.LVL52:
 484 012c 0028     		cmp	r0, #0
 485 012e B3D1     		bne	.L29
 486              	.LVL53:
 487              	.L28:
 488              	.LBB96:
 489              	.LBB97:
 490              		.loc 1 640 0
 491 0130 DFF874B2 		ldr	fp, .L68+124
 492              	.LVL54:
 493 0134 DFF874A2 		ldr	r10, .L68+128
 494 0138 DFF87492 		ldr	r9, .L68+132
 495              	.LBE97:
 496              	.LBE96:
 497              	.LBB100:
 498              	.LBB84:
 499              		.loc 1 228 0
 500 013c 0025     		movs	r5, #0
 501              	.L32:
 502              	.LVL55:
 503 013e 05F1FF58 		add	r8, r5, #534773760
 504 0142 08F5C018 		add	r8, r8, #1572864
 505              	.LVL56:
 506              	.LBE84:
 507              	.LBE100:
 508              	.LBB101:
 509              	.LBB98:
 510              		.loc 1 639 0
 511 0146 4146     		mov	r1, r8
 512 0148 2046     		mov	r0, r4
 513 014a FFF7FEFF 		bl	target_mem_read32
ARM GAS  C:\Users\CFAR\AppData\Local\Temp\ccGf3M6g.s 			page 10


 514              	.LVL57:
 515              		.loc 1 642 0
 516 014e C143     		mvns	r1, r0
 517              		.loc 1 640 0
 518 0150 83B2     		uxth	r3, r0
 519 0152 B3EB114F 		cmp	r3, r1, lsr #16
 520 0156 14BF     		ite	ne
 521 0158 5946     		movne	r1, fp
 522 015a 5146     		moveq	r1, r10
 523              		.loc 1 641 0
 524 015c 000C     		lsrs	r0, r0, #16
 525              	.LVL58:
 526              		.loc 1 640 0
 527 015e CDE90001 		strd	r0, r1, [sp]
 528              	.LBE98:
 529              		.loc 1 637 0
 530 0162 0435     		adds	r5, r5, #4
 531              	.LVL59:
 532              	.LBB99:
 533              		.loc 1 640 0
 534 0164 4246     		mov	r2, r8
 535 0166 4946     		mov	r1, r9
 536 0168 2046     		mov	r0, r4
 537 016a FFF7FEFF 		bl	tc_printf
 538              	.LVL60:
 539              	.LBE99:
 540              		.loc 1 637 0
 541 016e AF42     		cmp	r7, r5
 542 0170 E5D8     		bhi	.L32
 543              	.LVL61:
 544              	.LBE101:
 545              	.LBB102:
 546              	.LBB103:
 547              		.loc 1 179 0
 548 0172 236D     		ldr	r3, [r4, #80]
 549 0174 0799     		ldr	r1, [sp, #28]
 550 0176 40F22542 		movw	r2, #1061
 551 017a 9342     		cmp	r3, r2
 552 017c 01F11C01 		add	r1, r1, #28
 553 0180 00F0B780 		beq	.L36
 554 0184 40F2B080 		bls	.L65
 555 0188 40F24742 		movw	r2, #1095
 556 018c 9342     		cmp	r3, r2
 557 018e 00F0B080 		beq	.L36
 558 0192 40F25742 		movw	r2, #1111
 559 0196 9342     		cmp	r3, r2
 560 0198 00F0AB80 		beq	.L36
 561              	.L35:
 562              	.LBE103:
 563              	.LBE102:
 564              	.LBB105:
 565              		.loc 1 647 0
 566 019c 2046     		mov	r0, r4
 567 019e FFF7FEFF 		bl	target_mem_read32
 568              	.LVL62:
 569              		.loc 1 648 0
 570 01a2 C3B2     		uxtb	r3, r0
ARM GAS  C:\Users\CFAR\AppData\Local\Temp\ccGf3M6g.s 			page 11


 571              		.loc 1 650 0
 572 01a4 AA2B     		cmp	r3, #170
 573              		.loc 1 647 0
 574 01a6 0246     		mov	r2, r0
 575              	.LVL63:
 576              		.loc 1 650 0
 577 01a8 00F0BD80 		beq	.L46
 578              		.loc 1 652 0
 579 01ac CC2B     		cmp	r3, #204
 580 01ae 0CBF     		ite	eq
 581 01b0 0223     		moveq	r3, #2
 582              	.LVL64:
 583 01b2 0123     		movne	r3, #1
 584              	.L40:
 585              	.LVL65:
 586              		.loc 1 656 0
 587 01b4 C2F3C055 		ubfx	r5, r2, #23, #1
 588              	.LVL66:
 589 01b8 C2F38050 		ubfx	r0, r2, #22, #1
 590              	.LVL67:
 591 01bc C2F34051 		ubfx	r1, r2, #21, #1
 592 01c0 0595     		str	r5, [sp, #20]
 593 01c2 0490     		str	r0, [sp, #16]
 594 01c4 C2F30055 		ubfx	r5, r2, #20, #1
 595 01c8 C2F30340 		ubfx	r0, r2, #16, #4
 596 01cc 0391     		str	r1, [sp, #12]
 597 01ce C2F30021 		ubfx	r1, r2, #8, #1
 598 01d2 CDE90105 		strd	r0, r5, [sp, #4]
 599 01d6 0091     		str	r1, [sp]
 600 01d8 2046     		mov	r0, r4
 601 01da 6849     		ldr	r1, .L68+80
 602 01dc FFF7FEFF 		bl	tc_printf
 603              	.LVL68:
 604              	.LBE105:
 605 01e0 75E7     		b	.L41
 606              	.LVL69:
 607              	.L63:
 608              	.LBB106:
 609              	.LBB85:
 610              		.loc 1 221 0
 611 01e2 40F21742 		movw	r2, #1047
 612 01e6 9342     		cmp	r3, r2
 613 01e8 91D1     		bne	.L43
 614 01ea 27E7     		b	.L22
 615              	.LVL70:
 616              	.L60:
 617              	.LBE85:
 618              	.LBE106:
 619              		.loc 1 598 0
 620 01ec 2046     		mov	r0, r4
 621 01ee 6449     		ldr	r1, .L68+84
 622 01f0 FFF7FEFF 		bl	tc_printf
 623              	.LVL71:
 624              		.loc 1 704 0
 625 01f4 0120     		movs	r0, #1
 626 01f6 09B0     		add	sp, sp, #36
 627              		.cfi_remember_state
ARM GAS  C:\Users\CFAR\AppData\Local\Temp\ccGf3M6g.s 			page 12


 628              		.cfi_def_cfa_offset 36
 629              		@ sp needed
 630 01f8 BDE8F08F 		pop	{r4, r5, r6, r7, r8, r9, r10, fp, pc}
 631              	.LVL72:
 632              	.L62:
 633              		.cfi_restore_state
 634              		.loc 1 608 0 discriminator 1
 635 01fc 0246     		mov	r2, r0
 636 01fe 6149     		ldr	r1, .L68+88
 637 0200 2846     		mov	r0, r5
 638              	.LVL73:
 639 0202 FFF7FEFF 		bl	strncasecmp
 640              	.LVL74:
 641 0206 8246     		mov	r10, r0
 642              	.LVL75:
 643 0208 0028     		cmp	r0, #0
 644 020a 3ED0     		beq	.L66
 645              		.loc 1 619 0 discriminator 1
 646 020c 2846     		mov	r0, r5
 647 020e 4A46     		mov	r2, r9
 648 0210 5D49     		ldr	r1, .L68+92
 649 0212 FFF7FEFF 		bl	strncasecmp
 650              	.LVL76:
 651 0216 0546     		mov	r5, r0
 652 0218 0028     		cmp	r0, #0
 653 021a 7FF43DAF 		bne	.L29
 654              	.LBB107:
 655              		.loc 1 620 0
 656 021e 0246     		mov	r2, r0
 657 0220 0146     		mov	r1, r0
 658 0222 DBF80800 		ldr	r0, [fp, #8]
 659 0226 FFF7FEFF 		bl	strtoul
 660              	.LVL77:
 661              		.loc 1 621 0
 662 022a 2A46     		mov	r2, r5
 663              		.loc 1 620 0
 664 022c 8146     		mov	r9, r0
 665              	.LVL78:
 666              		.loc 1 621 0
 667 022e 2946     		mov	r1, r5
 668 0230 DBF80C00 		ldr	r0, [fp, #12]
 669              	.LVL79:
 670 0234 FFF7FEFF 		bl	strtoul
 671              	.LVL80:
 672              		.loc 1 622 0
 673 0238 85B2     		uxth	r5, r0
 674 023a C043     		mvns	r0, r0
 675              	.LVL81:
 676 023c 45EA0045 		orr	r5, r5, r0, lsl #16
 677              	.LVL82:
 678              		.loc 1 623 0
 679 0240 2B46     		mov	r3, r5
 680 0242 4A46     		mov	r2, r9
 681 0244 5149     		ldr	r1, .L68+96
 682 0246 2046     		mov	r0, r4
 683 0248 FFF7FEFF 		bl	tc_printf
 684              	.LVL83:
ARM GAS  C:\Users\CFAR\AppData\Local\Temp\ccGf3M6g.s 			page 13


 685              		.loc 1 624 0
 686 024c 504B     		ldr	r3, .L68+100
 687 024e 9945     		cmp	r9, r3
 688 0250 7FF622AF 		bls	.L29
 689              		.loc 1 625 0
 690 0254 07F1FF53 		add	r3, r7, #534773760
 691 0258 03F5C013 		add	r3, r3, #1572864
 692 025c 4B45     		cmp	r3, r9
 693 025e 7FF61BAF 		bls	.L29
 694              		.loc 1 626 0
 695 0262 19F0030F 		tst	r9, #3
 696 0266 7FF417AF 		bne	.L29
 697              		.loc 1 628 0
 698 026a 2A46     		mov	r2, r5
 699 026c 4946     		mov	r1, r9
 700 026e 2046     		mov	r0, r4
 701 0270 FFF7FEFF 		bl	stm32lx_option_write
 702              	.LVL84:
 703 0274 0028     		cmp	r0, #0
 704 0276 7FF45BAF 		bne	.L28
 705 027a 30E0     		b	.L31
 706              	.LVL85:
 707              	.L64:
 708              	.LBE107:
 709              		.loc 1 605 0
 710 027c 4FF48022 		mov	r2, #262144
 711 0280 3146     		mov	r1, r6
 712 0282 2046     		mov	r0, r4
 713 0284 FFF7FEFF 		bl	target_mem_write32
 714              	.LVL86:
 715 0288 52E7     		b	.L28
 716              	.LVL87:
 717              	.L66:
 718              	.LBB108:
 719              		.loc 1 609 0
 720 028a 0246     		mov	r2, r0
 721 028c 0146     		mov	r1, r0
 722 028e DBF80800 		ldr	r0, [fp, #8]
 723 0292 FFF7FEFF 		bl	strtoul
 724              	.LVL88:
 725              		.loc 1 610 0
 726 0296 5246     		mov	r2, r10
 727              		.loc 1 609 0
 728 0298 0546     		mov	r5, r0
 729              	.LVL89:
 730              		.loc 1 610 0
 731 029a 5146     		mov	r1, r10
 732 029c DBF80C00 		ldr	r0, [fp, #12]
 733              	.LVL90:
 734 02a0 FFF7FEFF 		bl	strtoul
 735              	.LVL91:
 736              		.loc 1 611 0
 737 02a4 2A46     		mov	r2, r5
 738 02a6 0346     		mov	r3, r0
 739              		.loc 1 610 0
 740 02a8 8146     		mov	r9, r0
 741              	.LVL92:
ARM GAS  C:\Users\CFAR\AppData\Local\Temp\ccGf3M6g.s 			page 14


 742              		.loc 1 611 0
 743 02aa 3A49     		ldr	r1, .L68+104
 744 02ac 2046     		mov	r0, r4
 745              	.LVL93:
 746 02ae FFF7FEFF 		bl	tc_printf
 747              	.LVL94:
 748              		.loc 1 612 0
 749 02b2 374B     		ldr	r3, .L68+100
 750 02b4 9D42     		cmp	r5, r3
 751 02b6 7FF6EFAE 		bls	.L29
 752              		.loc 1 613 0
 753 02ba 07F1FF53 		add	r3, r7, #534773760
 754 02be 03F5C013 		add	r3, r3, #1572864
 755 02c2 AB42     		cmp	r3, r5
 756 02c4 7FF6E8AE 		bls	.L29
 757              		.loc 1 614 0
 758 02c8 AB07     		lsls	r3, r5, #30
 759 02ca 7FF4E5AE 		bne	.L29
 760              		.loc 1 616 0
 761 02ce 4A46     		mov	r2, r9
 762 02d0 2946     		mov	r1, r5
 763 02d2 2046     		mov	r0, r4
 764 02d4 FFF7FEFF 		bl	stm32lx_option_write
 765              	.LVL95:
 766 02d8 0028     		cmp	r0, #0
 767 02da 7FF429AF 		bne	.L28
 768              	.LVL96:
 769              	.L31:
 770              		.loc 1 617 0
 771 02de 2E49     		ldr	r1, .L68+108
 772 02e0 2046     		mov	r0, r4
 773 02e2 FFF7FEFF 		bl	tc_printf
 774              	.LVL97:
 775 02e6 23E7     		b	.L28
 776              	.LVL98:
 777              	.L65:
 778              	.LBE108:
 779              	.LBB109:
 780              	.LBB104:
 781              		.loc 1 179 0
 782 02e8 40F21742 		movw	r2, #1047
 783 02ec 9342     		cmp	r3, r2
 784 02ee 7FF455AF 		bne	.L35
 785              	.L36:
 786              	.LBE104:
 787              	.LBE109:
 788              	.LBB110:
 789              		.loc 1 669 0
 790 02f2 2046     		mov	r0, r4
 791 02f4 FFF7FEFF 		bl	target_mem_read32
 792              	.LVL99:
 793              		.loc 1 670 0
 794 02f8 C3B2     		uxtb	r3, r0
 795              		.loc 1 672 0
 796 02fa AA2B     		cmp	r3, #170
 797              		.loc 1 669 0
 798 02fc 0246     		mov	r2, r0
ARM GAS  C:\Users\CFAR\AppData\Local\Temp\ccGf3M6g.s 			page 15


 799              	.LVL100:
 800              		.loc 1 672 0
 801 02fe 10D0     		beq	.L67
 802              		.loc 1 674 0
 803 0300 CC2B     		cmp	r3, #204
 804 0302 0CBF     		ite	eq
 805 0304 0223     		moveq	r3, #2
 806              	.LVL101:
 807 0306 0123     		movne	r3, #1
 808              	.L38:
 809              	.LVL102:
 810              		.loc 1 678 0
 811 0308 C2F30050 		ubfx	r0, r2, #20, #1
 812              	.LVL103:
 813 030c C2F30021 		ubfx	r1, r2, #8, #1
 814              		.loc 1 683 0
 815 0310 D50F     		lsrs	r5, r2, #31
 816              	.LVL104:
 817              		.loc 1 678 0
 818 0312 CDE90105 		strd	r0, r5, [sp, #4]
 819 0316 0091     		str	r1, [sp]
 820 0318 2046     		mov	r0, r4
 821 031a 2049     		ldr	r1, .L68+112
 822 031c FFF7FEFF 		bl	tc_printf
 823              	.LVL105:
 824 0320 D5E6     		b	.L41
 825              	.LVL106:
 826              	.L67:
 827 0322 0023     		movs	r3, #0
 828              	.LVL107:
 829 0324 F0E7     		b	.L38
 830              	.LVL108:
 831              	.L46:
 832              	.LBE110:
 833              	.LBB111:
 834 0326 0023     		movs	r3, #0
 835              	.LVL109:
 836 0328 44E7     		b	.L40
 837              	.L69:
 838 032a 00BF     		.align	2
 839              	.L68:
 840 032c 003C0240 		.word	1073888256
 841 0330 143C0240 		.word	1073888276
 842 0334 043C0240 		.word	1073888260
 843 0338 EFCDAB89 		.word	-1985229329
 844 033c 05040302 		.word	33752069
 845 0340 C8D9EAFB 		.word	-68494904
 846 0344 27262524 		.word	606414375
 847 0348 40010000 		.word	.LC13
 848 034c 60010000 		.word	.LC14
 849 0350 A0010000 		.word	.LC15
 850 0354 D4010000 		.word	.LC16
 851 0358 1C020000 		.word	.LC17
 852 035c FCFFF71F 		.word	536346620
 853 0360 0000F81F 		.word	536346624
 854 0364 48020000 		.word	.LC18
 855 0368 00200240 		.word	1073881088
ARM GAS  C:\Users\CFAR\AppData\Local\Temp\ccGf3M6g.s 			page 16


 856 036c 14200240 		.word	1073881108
 857 0370 04200240 		.word	1073881092
 858 0374 2C000000 		.word	.LC3
 859 0378 84000000 		.word	.LC9
 860 037c A8000000 		.word	.LC11
 861 0380 08000000 		.word	.LC2
 862 0384 38000000 		.word	.LC4
 863 0388 68000000 		.word	.LC7
 864 038c 70000000 		.word	.LC8
 865 0390 FFFFF71F 		.word	536346623
 866 0394 3C000000 		.word	.LC5
 867 0398 50000000 		.word	.LC6
 868 039c 04010000 		.word	.LC12
 869 03a0 0C3C0240 		.word	1073888268
 870 03a4 0C200240 		.word	1073881100
 871 03a8 04000000 		.word	.LC1
 872 03ac 00000000 		.word	.LC0
 873 03b0 8C000000 		.word	.LC10
 874              	.LBE111:
 875              		.cfi_endproc
 876              	.LFE279:
 877              		.size	stm32lx_cmd_option, .-stm32lx_cmd_option
 878              		.section	.text.stm32lx_eeprom_write,"ax",%progbits
 879              		.align	1
 880              		.p2align 4,,15
 881              		.syntax unified
 882              		.thumb
 883              		.thumb_func
 884              		.fpu fpv4-sp-d16
 885              		.type	stm32lx_eeprom_write, %function
 886              	stm32lx_eeprom_write:
 887              	.LFB278:
 888              		.loc 1 564 0
 889              		.cfi_startproc
 890              		@ args = 0, pretend = 0, frame = 0
 891              		@ frame_needed = 0, uses_anonymous_args = 0
 892              	.LVL110:
 893 0000 2DE9F843 		push	{r3, r4, r5, r6, r7, r8, r9, lr}
 894              		.cfi_def_cfa_offset 32
 895              		.cfi_offset 3, -32
 896              		.cfi_offset 4, -28
 897              		.cfi_offset 5, -24
 898              		.cfi_offset 6, -20
 899              		.cfi_offset 7, -16
 900              		.cfi_offset 8, -12
 901              		.cfi_offset 9, -8
 902              		.cfi_offset 14, -4
 903              		.loc 1 564 0
 904 0004 0446     		mov	r4, r0
 905              		.loc 1 565 0
 906 0006 006D     		ldr	r0, [r0, #80]
 907              	.LVL111:
 908              	.LBB112:
 909              	.LBB113:
 910              		.loc 1 208 0
 911 0008 40F22545 		movw	r5, #1061
 912 000c A842     		cmp	r0, r5
ARM GAS  C:\Users\CFAR\AppData\Local\Temp\ccGf3M6g.s 			page 17


 913              	.LBE113:
 914              	.LBE112:
 915              		.loc 1 564 0
 916 000e 8846     		mov	r8, r1
 917 0010 1646     		mov	r6, r2
 918 0012 9946     		mov	r9, r3
 919              	.LBB118:
 920              	.LBB114:
 921              		.loc 1 208 0
 922 0014 26D0     		beq	.L72
 923 0016 21D9     		bls	.L87
 924 0018 40F24743 		movw	r3, #1095
 925              	.LVL112:
 926 001c 9842     		cmp	r0, r3
 927 001e 21D0     		beq	.L72
 928 0020 40F25743 		movw	r3, #1111
 929 0024 9842     		cmp	r0, r3
 930 0026 1DD0     		beq	.L72
 931              	.L83:
 932              	.LBE114:
 933              	.LBE118:
 934              	.LBB119:
 935              	.LBB120:
 936              		.loc 1 179 0
 937 0028 40F22543 		movw	r3, #1061
 938 002c 9842     		cmp	r0, r3
 939              	.LBE120:
 940              	.LBE119:
 941              	.LBB125:
 942              	.LBB115:
 943              		.loc 1 208 0
 944 002e 2E4F     		ldr	r7, .L93
 945 0030 2E4D     		ldr	r5, .L93+4
 946              	.LVL113:
 947              	.LBE115:
 948              	.LBE125:
 949              	.LBB126:
 950              	.LBB121:
 951              		.loc 1 179 0
 952 0032 1DD1     		bne	.L88
 953              	.L75:
 954              	.LBE121:
 955              	.LBE126:
 956              		.loc 1 569 0
 957 0034 2E4A     		ldr	r2, .L93+8
 958              	.LVL114:
 959 0036 2946     		mov	r1, r5
 960              	.LVL115:
 961 0038 2046     		mov	r0, r4
 962 003a FFF7FEFF 		bl	target_mem_write32
 963              	.LVL116:
 964              		.loc 1 572 0
 965 003e 4FF48872 		mov	r2, #272
 966 0042 3946     		mov	r1, r7
 967 0044 2046     		mov	r0, r4
 968 0046 FFF7FEFF 		bl	target_mem_write32
 969              	.LVL117:
ARM GAS  C:\Users\CFAR\AppData\Local\Temp\ccGf3M6g.s 			page 18


 970              		.loc 1 575 0
 971 004a 042E     		cmp	r6, #4
 972 004c 26D0     		beq	.L89
 973              	.L78:
 974              		.loc 1 577 0
 975 004e 022E     		cmp	r6, #2
 976 0050 42D0     		beq	.L90
 977              		.loc 1 579 0
 978 0052 012E     		cmp	r6, #1
 979 0054 39D0     		beq	.L91
 980              		.loc 1 582 0
 981 0056 0020     		movs	r0, #0
 982              		.loc 1 590 0
 983 0058 BDE8F883 		pop	{r3, r4, r5, r6, r7, r8, r9, pc}
 984              	.LVL118:
 985              	.L87:
 986              	.LBB127:
 987              	.LBB116:
 988              		.loc 1 208 0
 989 005c 40F21743 		movw	r3, #1047
 990              	.LVL119:
 991 0060 9842     		cmp	r0, r3
 992 0062 E1D1     		bne	.L83
 993              	.L72:
 994              	.LBE116:
 995              	.LBE127:
 996              	.LBB128:
 997              	.LBB122:
 998              		.loc 1 179 0
 999 0064 40F22543 		movw	r3, #1061
 1000 0068 9842     		cmp	r0, r3
 1001              	.LBE122:
 1002              	.LBE128:
 1003              	.LBB129:
 1004              	.LBB117:
 1005              		.loc 1 208 0
 1006 006a 224F     		ldr	r7, .L93+12
 1007 006c 224D     		ldr	r5, .L93+16
 1008              	.LVL120:
 1009              	.LBE117:
 1010              	.LBE129:
 1011              	.LBB130:
 1012              	.LBB123:
 1013              		.loc 1 179 0
 1014 006e E1D0     		beq	.L75
 1015              	.L88:
 1016 0070 26D9     		bls	.L92
 1017 0072 40F24743 		movw	r3, #1095
 1018 0076 9842     		cmp	r0, r3
 1019 0078 DCD0     		beq	.L75
 1020 007a 40F25743 		movw	r3, #1111
 1021 007e 9842     		cmp	r0, r3
 1022 0080 D8D0     		beq	.L75
 1023              	.L74:
 1024              	.LBE123:
 1025              	.LBE130:
 1026              		.loc 1 569 0
ARM GAS  C:\Users\CFAR\AppData\Local\Temp\ccGf3M6g.s 			page 19


 1027 0082 1B4A     		ldr	r2, .L93+8
 1028              	.LVL121:
 1029 0084 2946     		mov	r1, r5
 1030              	.LVL122:
 1031 0086 2046     		mov	r0, r4
 1032 0088 FFF7FEFF 		bl	target_mem_write32
 1033              	.LVL123:
 1034              		.loc 1 572 0
 1035 008c 4FF48072 		mov	r2, #256
 1036 0090 3946     		mov	r1, r7
 1037 0092 2046     		mov	r0, r4
 1038 0094 FFF7FEFF 		bl	target_mem_write32
 1039              	.LVL124:
 1040              		.loc 1 575 0
 1041 0098 042E     		cmp	r6, #4
 1042 009a D8D1     		bne	.L78
 1043              	.L89:
 1044              		.loc 1 576 0
 1045 009c 4A46     		mov	r2, r9
 1046 009e 4146     		mov	r1, r8
 1047 00a0 2046     		mov	r0, r4
 1048 00a2 FFF7FEFF 		bl	target_mem_write32
 1049              	.LVL125:
 1050              	.L82:
 1051              		.loc 1 586 0 discriminator 1
 1052 00a6 2946     		mov	r1, r5
 1053 00a8 2046     		mov	r0, r4
 1054 00aa FFF7FEFF 		bl	target_mem_read32
 1055              	.LVL126:
 1056              		.loc 1 587 0 discriminator 1
 1057 00ae C307     		lsls	r3, r0, #31
 1058 00b0 F9D4     		bmi	.L82
 1059              		.loc 1 589 0
 1060 00b2 0F4B     		ldr	r3, .L93+8
 1061 00b4 1842     		tst	r0, r3
 1062 00b6 0CBF     		ite	eq
 1063 00b8 0120     		moveq	r0, #1
 1064              	.LVL127:
 1065 00ba 0020     		movne	r0, #0
 1066              		.loc 1 590 0
 1067 00bc BDE8F883 		pop	{r3, r4, r5, r6, r7, r8, r9, pc}
 1068              	.LVL128:
 1069              	.L92:
 1070              	.LBB131:
 1071              	.LBB124:
 1072              		.loc 1 179 0
 1073 00c0 40F21743 		movw	r3, #1047
 1074 00c4 9842     		cmp	r0, r3
 1075 00c6 DCD1     		bne	.L74
 1076 00c8 B4E7     		b	.L75
 1077              	.LVL129:
 1078              	.L91:
 1079              	.LBE124:
 1080              	.LBE131:
 1081              		.loc 1 580 0
 1082 00ca 5FFA89F2 		uxtb	r2, r9
 1083 00ce 4146     		mov	r1, r8
ARM GAS  C:\Users\CFAR\AppData\Local\Temp\ccGf3M6g.s 			page 20


 1084 00d0 2046     		mov	r0, r4
 1085 00d2 FFF7FEFF 		bl	target_mem_write8
 1086              	.LVL130:
 1087 00d6 E6E7     		b	.L82
 1088              	.L90:
 1089              		.loc 1 578 0
 1090 00d8 1FFA89F2 		uxth	r2, r9
 1091 00dc 4146     		mov	r1, r8
 1092 00de 2046     		mov	r0, r4
 1093 00e0 FFF7FEFF 		bl	target_mem_write16
 1094              	.LVL131:
 1095 00e4 DFE7     		b	.L82
 1096              	.L94:
 1097 00e6 00BF     		.align	2
 1098              	.L93:
 1099 00e8 043C0240 		.word	1073888260
 1100 00ec 183C0240 		.word	1073888280
 1101 00f0 00070100 		.word	67328
 1102 00f4 04200240 		.word	1073881092
 1103 00f8 18200240 		.word	1073881112
 1104              		.cfi_endproc
 1105              	.LFE278:
 1106              		.size	stm32lx_eeprom_write, .-stm32lx_eeprom_write
 1107              		.section	.text.stm32lx_cmd_eeprom,"ax",%progbits
 1108              		.align	1
 1109              		.p2align 4,,15
 1110              		.syntax unified
 1111              		.thumb
 1112              		.thumb_func
 1113              		.fpu fpv4-sp-d16
 1114              		.type	stm32lx_cmd_eeprom, %function
 1115              	stm32lx_cmd_eeprom:
 1116              	.LFB280:
 1117              		.loc 1 708 0
 1118              		.cfi_startproc
 1119              		@ args = 0, pretend = 0, frame = 0
 1120              		@ frame_needed = 0, uses_anonymous_args = 0
 1121              	.LVL132:
 1122 0000 2DE9F843 		push	{r3, r4, r5, r6, r7, r8, r9, lr}
 1123              		.cfi_def_cfa_offset 32
 1124              		.cfi_offset 3, -32
 1125              		.cfi_offset 4, -28
 1126              		.cfi_offset 5, -24
 1127              		.cfi_offset 6, -20
 1128              		.cfi_offset 7, -16
 1129              		.cfi_offset 8, -12
 1130              		.cfi_offset 9, -8
 1131              		.cfi_offset 14, -4
 1132              		.loc 1 708 0
 1133 0004 0446     		mov	r4, r0
 1134              	.LVL133:
 1135              	.LBB132:
 1136              	.LBB133:
 1137              		.loc 1 208 0
 1138 0006 40F22540 		movw	r0, #1061
 1139              	.LVL134:
 1140 000a 236D     		ldr	r3, [r4, #80]
ARM GAS  C:\Users\CFAR\AppData\Local\Temp\ccGf3M6g.s 			page 21


 1141 000c 8342     		cmp	r3, r0
 1142              	.LBE133:
 1143              	.LBE132:
 1144              		.loc 1 708 0
 1145 000e 0F46     		mov	r7, r1
 1146 0010 1646     		mov	r6, r2
 1147              	.LBB136:
 1148              	.LBB134:
 1149              		.loc 1 208 0
 1150 0012 19D0     		beq	.L97
 1151 0014 14D9     		bls	.L126
 1152 0016 40F24742 		movw	r2, #1095
 1153              	.LVL135:
 1154 001a 9342     		cmp	r3, r2
 1155 001c 14D0     		beq	.L97
 1156 001e 40F25742 		movw	r2, #1111
 1157 0022 9342     		cmp	r3, r2
 1158 0024 10D0     		beq	.L97
 1159              	.L119:
 1160              		.loc 1 215 0
 1161 0026 674D     		ldr	r5, .L133
 1162              	.LBE134:
 1163              	.LBE136:
 1164              		.loc 1 711 0
 1165 0028 2046     		mov	r0, r4
 1166 002a 2946     		mov	r1, r5
 1167              	.LVL136:
 1168 002c FFF7FEFF 		bl	stm32lx_nvm_prog_data_unlock
 1169              	.LVL137:
 1170 0030 88B9     		cbnz	r0, .L99
 1171              	.L127:
 1172              		.loc 1 712 0
 1173 0032 2046     		mov	r0, r4
 1174 0034 6449     		ldr	r1, .L133+4
 1175 0036 FFF7FEFF 		bl	tc_printf
 1176              	.LVL138:
 1177              		.loc 1 766 0
 1178 003a 0120     		movs	r0, #1
 1179 003c BDE8F883 		pop	{r3, r4, r5, r6, r7, r8, r9, pc}
 1180              	.LVL139:
 1181              	.L126:
 1182              	.LBB137:
 1183              	.LBB135:
 1184              		.loc 1 208 0
 1185 0040 40F21742 		movw	r2, #1047
 1186              	.LVL140:
 1187 0044 9342     		cmp	r3, r2
 1188 0046 EED1     		bne	.L119
 1189              	.L97:
 1190              		.loc 1 213 0
 1191 0048 604D     		ldr	r5, .L133+8
 1192              	.LBE135:
 1193              	.LBE137:
 1194              		.loc 1 711 0
 1195 004a 2046     		mov	r0, r4
 1196 004c 2946     		mov	r1, r5
 1197              	.LVL141:
ARM GAS  C:\Users\CFAR\AppData\Local\Temp\ccGf3M6g.s 			page 22


 1198 004e FFF7FEFF 		bl	stm32lx_nvm_prog_data_unlock
 1199              	.LVL142:
 1200 0052 0028     		cmp	r0, #0
 1201 0054 EDD0     		beq	.L127
 1202              	.L99:
 1203              		.loc 1 716 0
 1204 0056 7068     		ldr	r0, [r6, #4]
 1205 0058 FFF7FEFF 		bl	strlen
 1206              	.LVL143:
 1207              		.loc 1 718 0
 1208 005c 042F     		cmp	r7, #4
 1209              		.loc 1 716 0
 1210 005e 8046     		mov	r8, r0
 1211              	.LVL144:
 1212              		.loc 1 718 0
 1213 0060 1FD0     		beq	.L128
 1214              	.LVL145:
 1215              	.L101:
 1216              	.LDL2:
 1217              		.loc 1 755 0
 1218 0062 5B49     		ldr	r1, .L133+12
 1219 0064 2046     		mov	r0, r4
 1220 0066 FFF7FEFF 		bl	tc_printf
 1221              	.LVL146:
 1222              		.loc 1 756 0
 1223 006a 5A49     		ldr	r1, .L133+16
 1224 006c 2046     		mov	r0, r4
 1225 006e FFF7FEFF 		bl	tc_printf
 1226              	.LVL147:
 1227              		.loc 1 757 0
 1228 0072 5949     		ldr	r1, .L133+20
 1229 0074 2046     		mov	r0, r4
 1230 0076 FFF7FEFF 		bl	tc_printf
 1231              	.LVL148:
 1232              		.loc 1 758 0
 1233 007a 5849     		ldr	r1, .L133+24
 1234 007c 2046     		mov	r0, r4
 1235 007e FFF7FEFF 		bl	tc_printf
 1236              	.LVL149:
 1237              	.LBB138:
 1238              	.LBB139:
 1239              		.loc 1 192 0
 1240 0082 236D     		ldr	r3, [r4, #80]
 1241 0084 40F22542 		movw	r2, #1061
 1242 0088 9342     		cmp	r3, r2
 1243 008a 6AD0     		beq	.L121
 1244 008c 53D9     		bls	.L129
 1245 008e 40F24742 		movw	r2, #1095
 1246 0092 9342     		cmp	r3, r2
 1247 0094 63D0     		beq	.L117
 1248 0096 40F25742 		movw	r2, #1111
 1249 009a 9342     		cmp	r3, r2
 1250 009c 5DD1     		bne	.L113
 1251 009e 504B     		ldr	r3, .L133+28
 1252 00a0 4EE0     		b	.L114
 1253              	.LVL150:
 1254              	.L128:
ARM GAS  C:\Users\CFAR\AppData\Local\Temp\ccGf3M6g.s 			page 23


 1255              	.LBE139:
 1256              	.LBE138:
 1257              	.LBB142:
 1258              		.loc 1 719 0
 1259 00a2 0022     		movs	r2, #0
 1260 00a4 1146     		mov	r1, r2
 1261 00a6 B068     		ldr	r0, [r6, #8]
 1262              	.LVL151:
 1263 00a8 FFF7FEFF 		bl	strtoul
 1264              	.LVL152:
 1265              		.loc 1 720 0
 1266 00ac 0022     		movs	r2, #0
 1267              		.loc 1 719 0
 1268 00ae 0746     		mov	r7, r0
 1269              	.LVL153:
 1270              		.loc 1 720 0
 1271 00b0 1146     		mov	r1, r2
 1272 00b2 F068     		ldr	r0, [r6, #12]
 1273              	.LVL154:
 1274 00b4 FFF7FEFF 		bl	strtoul
 1275              	.LVL155:
 1276              		.loc 1 722 0
 1277 00b8 4A4B     		ldr	r3, .L133+32
 1278 00ba 9F42     		cmp	r7, r3
 1279              		.loc 1 720 0
 1280 00bc 8146     		mov	r9, r0
 1281              	.LVL156:
 1282              		.loc 1 722 0
 1283 00be D0D9     		bls	.L101
 1284              	.LVL157:
 1285              	.LBB143:
 1286              	.LBB144:
 1287              		.loc 1 192 0
 1288 00c0 236D     		ldr	r3, [r4, #80]
 1289 00c2 40F22542 		movw	r2, #1061
 1290 00c6 9342     		cmp	r3, r2
 1291 00c8 55D0     		beq	.L120
 1292 00ca 4ED9     		bls	.L130
 1293 00cc 40F24742 		movw	r2, #1095
 1294 00d0 9342     		cmp	r3, r2
 1295 00d2 48D0     		beq	.L106
 1296 00d4 40F25742 		movw	r2, #1111
 1297 00d8 9342     		cmp	r3, r2
 1298 00da 4ED1     		bne	.L102
 1299 00dc 404B     		ldr	r3, .L133+28
 1300              	.L103:
 1301              	.LBE144:
 1302              	.LBE143:
 1303              		.loc 1 723 0
 1304 00de 9F42     		cmp	r7, r3
 1305 00e0 BFD2     		bcs	.L101
 1306              		.loc 1 727 0
 1307 00e2 7668     		ldr	r6, [r6, #4]
 1308              	.LVL158:
 1309 00e4 4049     		ldr	r1, .L133+36
 1310 00e6 3046     		mov	r0, r6
 1311              	.LVL159:
ARM GAS  C:\Users\CFAR\AppData\Local\Temp\ccGf3M6g.s 			page 24


 1312 00e8 4246     		mov	r2, r8
 1313 00ea FFF7FEFF 		bl	strncasecmp
 1314              	.LVL160:
 1315 00ee 0028     		cmp	r0, #0
 1316 00f0 45D0     		beq	.L131
 1317              		.loc 1 731 0
 1318 00f2 4246     		mov	r2, r8
 1319 00f4 3D49     		ldr	r1, .L133+40
 1320 00f6 3046     		mov	r0, r6
 1321 00f8 FFF7FEFF 		bl	strncasecmp
 1322              	.LVL161:
 1323 00fc 0028     		cmp	r0, #0
 1324 00fe 4DD0     		beq	.L132
 1325              		.loc 1 739 0
 1326 0100 4246     		mov	r2, r8
 1327 0102 3046     		mov	r0, r6
 1328 0104 3A49     		ldr	r1, .L133+44
 1329 0106 FFF7FEFF 		bl	strncasecmp
 1330              	.LVL162:
 1331 010a 0028     		cmp	r0, #0
 1332 010c A9D1     		bne	.L101
 1333              		.loc 1 740 0
 1334 010e 4B46     		mov	r3, r9
 1335 0110 3A46     		mov	r2, r7
 1336 0112 3849     		ldr	r1, .L133+48
 1337 0114 2046     		mov	r0, r4
 1338 0116 FFF7FEFF 		bl	tc_printf
 1339              	.LVL163:
 1340              		.loc 1 741 0
 1341 011a BB07     		lsls	r3, r7, #30
 1342 011c A1D1     		bne	.L101
 1343              		.loc 1 743 0
 1344 011e 4B46     		mov	r3, r9
 1345 0120 3946     		mov	r1, r7
 1346 0122 0422     		movs	r2, #4
 1347 0124 2046     		mov	r0, r4
 1348 0126 FFF7FEFF 		bl	stm32lx_eeprom_write
 1349              	.LVL164:
 1350 012a 70B9     		cbnz	r0, .L110
 1351              	.L109:
 1352              		.loc 1 730 0
 1353 012c 3249     		ldr	r1, .L133+52
 1354 012e 2046     		mov	r0, r4
 1355 0130 FFF7FEFF 		bl	tc_printf
 1356              	.LVL165:
 1357 0134 09E0     		b	.L110
 1358              	.LVL166:
 1359              	.L129:
 1360              	.LBE142:
 1361              	.LBB147:
 1362              	.LBB140:
 1363              		.loc 1 192 0
 1364 0136 40F21742 		movw	r2, #1047
 1365 013a 9342     		cmp	r3, r2
 1366 013c 0DD1     		bne	.L113
 1367              		.loc 1 197 0
 1368 013e 2F4B     		ldr	r3, .L133+56
ARM GAS  C:\Users\CFAR\AppData\Local\Temp\ccGf3M6g.s 			page 25


 1369              	.L114:
 1370              	.LBE140:
 1371              	.LBE147:
 1372              		.loc 1 759 0
 1373 0140 2F4A     		ldr	r2, .L133+60
 1374 0142 3049     		ldr	r1, .L133+64
 1375 0144 2046     		mov	r0, r4
 1376 0146 FFF7FEFF 		bl	tc_printf
 1377              	.LVL167:
 1378              	.L110:
 1379              	.LBB148:
 1380              	.LBB149:
 1381              		.loc 1 303 0
 1382 014a 2046     		mov	r0, r4
 1383 014c 291D     		adds	r1, r5, #4
 1384 014e 0122     		movs	r2, #1
 1385 0150 FFF7FEFF 		bl	target_mem_write32
 1386              	.LVL168:
 1387              	.LBE149:
 1388              	.LBE148:
 1389              		.loc 1 766 0
 1390 0154 0120     		movs	r0, #1
 1391 0156 BDE8F883 		pop	{r3, r4, r5, r6, r7, r8, r9, pc}
 1392              	.LVL169:
 1393              	.L113:
 1394              	.LBB150:
 1395              	.LBB141:
 1396              		.loc 1 201 0
 1397 015a 2B4B     		ldr	r3, .L133+68
 1398 015c F0E7     		b	.L114
 1399              	.L117:
 1400              		.loc 1 199 0
 1401 015e 2B4B     		ldr	r3, .L133+72
 1402 0160 EEE7     		b	.L114
 1403              	.L121:
 1404              		.loc 1 192 0
 1405 0162 2B4B     		ldr	r3, .L133+76
 1406 0164 ECE7     		b	.L114
 1407              	.LVL170:
 1408              	.L106:
 1409              	.LBE141:
 1410              	.LBE150:
 1411              	.LBB151:
 1412              	.LBB146:
 1413              	.LBB145:
 1414              		.loc 1 199 0
 1415 0166 294B     		ldr	r3, .L133+72
 1416 0168 B9E7     		b	.L103
 1417              	.L130:
 1418              		.loc 1 192 0
 1419 016a 40F21742 		movw	r2, #1047
 1420 016e 9342     		cmp	r3, r2
 1421 0170 03D1     		bne	.L102
 1422              		.loc 1 197 0
 1423 0172 224B     		ldr	r3, .L133+56
 1424 0174 B3E7     		b	.L103
 1425              	.L120:
ARM GAS  C:\Users\CFAR\AppData\Local\Temp\ccGf3M6g.s 			page 26


 1426              		.loc 1 192 0
 1427 0176 264B     		ldr	r3, .L133+76
 1428 0178 B1E7     		b	.L103
 1429              	.L102:
 1430              		.loc 1 201 0
 1431 017a 234B     		ldr	r3, .L133+68
 1432 017c AFE7     		b	.L103
 1433              	.LVL171:
 1434              	.L131:
 1435              	.LBE145:
 1436              	.LBE146:
 1437              		.loc 1 728 0
 1438 017e 4B46     		mov	r3, r9
 1439 0180 3A46     		mov	r2, r7
 1440 0182 2449     		ldr	r1, .L133+80
 1441 0184 2046     		mov	r0, r4
 1442 0186 FFF7FEFF 		bl	tc_printf
 1443              	.LVL172:
 1444              		.loc 1 729 0
 1445 018a 4B46     		mov	r3, r9
 1446 018c 3946     		mov	r1, r7
 1447 018e 0122     		movs	r2, #1
 1448 0190 2046     		mov	r0, r4
 1449 0192 FFF7FEFF 		bl	stm32lx_eeprom_write
 1450              	.LVL173:
 1451 0196 0028     		cmp	r0, #0
 1452 0198 D7D1     		bne	.L110
 1453 019a C7E7     		b	.L109
 1454              	.L132:
 1455              		.loc 1 732 0
 1456 019c 1FFA89F9 		uxth	r9, r9
 1457              	.LVL174:
 1458              		.loc 1 733 0
 1459 01a0 3A46     		mov	r2, r7
 1460 01a2 4B46     		mov	r3, r9
 1461 01a4 1C49     		ldr	r1, .L133+84
 1462 01a6 2046     		mov	r0, r4
 1463 01a8 FFF7FEFF 		bl	tc_printf
 1464              	.LVL175:
 1465              		.loc 1 735 0
 1466 01ac FA07     		lsls	r2, r7, #31
 1467 01ae 3FF558AF 		bmi	.L101
 1468              		.loc 1 737 0
 1469 01b2 4B46     		mov	r3, r9
 1470 01b4 3946     		mov	r1, r7
 1471 01b6 0222     		movs	r2, #2
 1472 01b8 2046     		mov	r0, r4
 1473 01ba FFF7FEFF 		bl	stm32lx_eeprom_write
 1474              	.LVL176:
 1475 01be 0028     		cmp	r0, #0
 1476 01c0 C3D1     		bne	.L110
 1477 01c2 B3E7     		b	.L109
 1478              	.L134:
 1479              		.align	2
 1480              	.L133:
 1481 01c4 003C0240 		.word	1073888256
 1482 01c8 00000000 		.word	.LC19
ARM GAS  C:\Users\CFAR\AppData\Local\Temp\ccGf3M6g.s 			page 27


 1483 01cc 00200240 		.word	1073881088
 1484 01d0 B4000000 		.word	.LC27
 1485 01d4 D4000000 		.word	.LC28
 1486 01d8 00010000 		.word	.LC29
 1487 01dc 34010000 		.word	.LC30
 1488 01e0 00020808 		.word	134742528
 1489 01e4 FFFF0708 		.word	134742015
 1490 01e8 1C000000 		.word	.LC20
 1491 01ec 5C000000 		.word	.LC23
 1492 01f0 8C000000 		.word	.LC25
 1493 01f4 94000000 		.word	.LC26
 1494 01f8 44000000 		.word	.LC22
 1495 01fc 00080808 		.word	134744064
 1496 0200 00000808 		.word	134742016
 1497 0204 60010000 		.word	.LC31
 1498 0208 00400808 		.word	134758400
 1499 020c 00180808 		.word	134748160
 1500 0210 00040808 		.word	134743040
 1501 0214 24000000 		.word	.LC21
 1502 0218 68000000 		.word	.LC24
 1503              	.LBE151:
 1504              		.cfi_endproc
 1505              	.LFE280:
 1506              		.size	stm32lx_cmd_eeprom, .-stm32lx_cmd_eeprom
 1507              		.section	.text.stm32l_add_flash,"ax",%progbits
 1508              		.align	1
 1509              		.p2align 4,,15
 1510              		.syntax unified
 1511              		.thumb
 1512              		.thumb_func
 1513              		.fpu fpv4-sp-d16
 1514              		.type	stm32l_add_flash, %function
 1515              	stm32l_add_flash:
 1516              	.LFB267:
 1517              		.loc 1 234 0
 1518              		.cfi_startproc
 1519              		@ args = 0, pretend = 0, frame = 0
 1520              		@ frame_needed = 0, uses_anonymous_args = 0
 1521              	.LVL177:
 1522 0000 2DE9F843 		push	{r3, r4, r5, r6, r7, r8, r9, lr}
 1523              		.cfi_def_cfa_offset 32
 1524              		.cfi_offset 3, -32
 1525              		.cfi_offset 4, -28
 1526              		.cfi_offset 5, -24
 1527              		.cfi_offset 6, -20
 1528              		.cfi_offset 7, -16
 1529              		.cfi_offset 8, -12
 1530              		.cfi_offset 9, -8
 1531              		.cfi_offset 14, -4
 1532              		.loc 1 234 0
 1533 0004 0646     		mov	r6, r0
 1534 0006 8946     		mov	r9, r1
 1535              		.loc 1 235 0
 1536 0008 0120     		movs	r0, #1
 1537              	.LVL178:
 1538 000a 3021     		movs	r1, #48
 1539              	.LVL179:
ARM GAS  C:\Users\CFAR\AppData\Local\Temp\ccGf3M6g.s 			page 28


 1540              		.loc 1 234 0
 1541 000c 1D46     		mov	r5, r3
 1542 000e 9046     		mov	r8, r2
 1543              		.loc 1 235 0
 1544 0010 FFF7FEFF 		bl	calloc
 1545              	.LVL180:
 1546              		.loc 1 240 0
 1547 0014 084B     		ldr	r3, .L137
 1548              		.loc 1 235 0
 1549 0016 0446     		mov	r4, r0
 1550              	.LVL181:
 1551              		.loc 1 242 0
 1552 0018 3046     		mov	r0, r6
 1553              	.LVL182:
 1554              		.loc 1 239 0
 1555 001a 084E     		ldr	r6, .L137+4
 1556              	.LVL183:
 1557              		.loc 1 236 0
 1558 001c C4F80090 		str	r9, [r4]
 1559              		.loc 1 241 0
 1560 0020 6F08     		lsrs	r7, r5, #1
 1561              		.loc 1 237 0
 1562 0022 C4F80480 		str	r8, [r4, #4]
 1563              		.loc 1 242 0
 1564 0026 2146     		mov	r1, r4
 1565              		.loc 1 238 0
 1566 0028 A560     		str	r5, [r4, #8]
 1567              		.loc 1 241 0
 1568 002a 2762     		str	r7, [r4, #32]
 1569              		.loc 1 240 0
 1570 002c C4E90363 		strd	r6, r3, [r4, #12]
 1571              		.loc 1 243 0
 1572 0030 BDE8F843 		pop	{r3, r4, r5, r6, r7, r8, r9, lr}
 1573              		.cfi_restore 14
 1574              		.cfi_restore 9
 1575              		.cfi_restore 8
 1576              		.cfi_restore 7
 1577              		.cfi_restore 6
 1578              		.cfi_restore 5
 1579              		.cfi_restore 4
 1580              		.cfi_restore 3
 1581              		.cfi_def_cfa_offset 0
 1582              	.LVL184:
 1583              		.loc 1 242 0
 1584 0034 FFF7FEBF 		b	target_add_flash
 1585              	.LVL185:
 1586              	.L138:
 1587              		.align	2
 1588              	.L137:
 1589 0038 00000000 		.word	stm32lx_nvm_prog_write
 1590 003c 00000000 		.word	stm32lx_nvm_prog_erase
 1591              		.cfi_endproc
 1592              	.LFE267:
 1593              		.size	stm32l_add_flash, .-stm32l_add_flash
 1594              		.section	.text.stm32lx_nvm_prog_erase,"ax",%progbits
 1595              		.align	1
 1596              		.p2align 4,,15
ARM GAS  C:\Users\CFAR\AppData\Local\Temp\ccGf3M6g.s 			page 29


 1597              		.syntax unified
 1598              		.thumb
 1599              		.thumb_func
 1600              		.fpu fpv4-sp-d16
 1601              		.type	stm32lx_nvm_prog_erase, %function
 1602              	stm32lx_nvm_prog_erase:
 1603              	.LFB273:
 1604              		.loc 1 346 0
 1605              		.cfi_startproc
 1606              		@ args = 0, pretend = 0, frame = 0
 1607              		@ frame_needed = 0, uses_anonymous_args = 0
 1608              	.LVL186:
 1609 0000 2DE9F843 		push	{r3, r4, r5, r6, r7, r8, r9, lr}
 1610              		.cfi_def_cfa_offset 32
 1611              		.cfi_offset 3, -32
 1612              		.cfi_offset 4, -28
 1613              		.cfi_offset 5, -24
 1614              		.cfi_offset 6, -20
 1615              		.cfi_offset 7, -16
 1616              		.cfi_offset 8, -12
 1617              		.cfi_offset 9, -8
 1618              		.cfi_offset 14, -4
 1619              		.loc 1 347 0
 1620 0004 8469     		ldr	r4, [r0, #24]
 1621              	.LVL187:
 1622              		.loc 1 348 0
 1623 0006 8668     		ldr	r6, [r0, #8]
 1624              	.LVL188:
 1625              	.LBB152:
 1626              	.LBB153:
 1627              		.loc 1 208 0
 1628 0008 236D     		ldr	r3, [r4, #80]
 1629 000a 40F2254C 		movw	ip, #1061
 1630 000e 6345     		cmp	r3, ip
 1631              	.LBE153:
 1632              	.LBE152:
 1633              		.loc 1 346 0
 1634 0010 0F46     		mov	r7, r1
 1635 0012 1546     		mov	r5, r2
 1636              	.LBB155:
 1637              	.LBB154:
 1638              		.loc 1 208 0
 1639 0014 0FD0     		beq	.L149
 1640 0016 0AD9     		bls	.L156
 1641 0018 40F24742 		movw	r2, #1095
 1642              	.LVL189:
 1643 001c 9342     		cmp	r3, r2
 1644 001e 0AD0     		beq	.L149
 1645 0020 40F25742 		movw	r2, #1111
 1646 0024 9342     		cmp	r3, r2
 1647 0026 06D0     		beq	.L149
 1648              	.L140:
 1649              		.loc 1 215 0
 1650 0028 DFF89480 		ldr	r8, .L157+8
 1651 002c 05E0     		b	.L141
 1652              	.LVL190:
 1653              	.L156:
ARM GAS  C:\Users\CFAR\AppData\Local\Temp\ccGf3M6g.s 			page 30


 1654              		.loc 1 208 0
 1655 002e 40F21742 		movw	r2, #1047
 1656              	.LVL191:
 1657 0032 9342     		cmp	r3, r2
 1658 0034 F8D1     		bne	.L140
 1659              	.L149:
 1660              		.loc 1 213 0
 1661 0036 DFF88C80 		ldr	r8, .L157+12
 1662              	.L141:
 1663              	.LBE154:
 1664              	.LBE155:
 1665              		.loc 1 351 0
 1666 003a 4146     		mov	r1, r8
 1667              	.LVL192:
 1668 003c 2046     		mov	r0, r4
 1669              	.LVL193:
 1670 003e FFF7FEFF 		bl	stm32lx_nvm_prog_data_unlock
 1671              	.LVL194:
 1672 0042 A8B3     		cbz	r0, .L145
 1673              		.loc 1 355 0
 1674 0044 08F10409 		add	r9, r8, #4
 1675 0048 4946     		mov	r1, r9
 1676 004a 4FF40272 		mov	r2, #520
 1677 004e 2046     		mov	r0, r4
 1678 0050 FFF7FEFF 		bl	target_mem_write32
 1679              	.LVL195:
 1680              		.loc 1 358 0
 1681 0054 4946     		mov	r1, r9
 1682 0056 2046     		mov	r0, r4
 1683 0058 FFF7FEFF 		bl	target_mem_read32
 1684              	.LVL196:
 1685              		.loc 1 359 0
 1686 005c 00F40270 		and	r0, r0, #520
 1687              	.LVL197:
 1688 0060 B0F5027F 		cmp	r0, #520
 1689 0064 24D1     		bne	.L145
 1690              		.loc 1 365 0
 1691 0066 08F11808 		add	r8, r8, #24
 1692 006a 4146     		mov	r1, r8
 1693 006c 124A     		ldr	r2, .L157
 1694 006e 2046     		mov	r0, r4
 1695 0070 FFF7FEFF 		bl	target_mem_write32
 1696              	.LVL198:
 1697              		.loc 1 367 0
 1698 0074 3DB1     		cbz	r5, .L146
 1699              	.LVL199:
 1700              	.L147:
 1701              		.loc 1 369 0
 1702 0076 3946     		mov	r1, r7
 1703 0078 0022     		movs	r2, #0
 1704 007a 2046     		mov	r0, r4
 1705 007c FFF7FEFF 		bl	target_mem_write32
 1706              	.LVL200:
 1707              		.loc 1 367 0
 1708 0080 AD1B     		subs	r5, r5, r6
 1709              	.LVL201:
 1710              		.loc 1 372 0
ARM GAS  C:\Users\CFAR\AppData\Local\Temp\ccGf3M6g.s 			page 31


 1711 0082 3744     		add	r7, r7, r6
 1712              	.LVL202:
 1713              		.loc 1 367 0
 1714 0084 F7D1     		bne	.L147
 1715              	.LVL203:
 1716              	.L146:
 1717              	.LBB156:
 1718              	.LBB157:
 1719              		.loc 1 303 0
 1720 0086 4946     		mov	r1, r9
 1721 0088 0122     		movs	r2, #1
 1722 008a 2046     		mov	r0, r4
 1723 008c FFF7FEFF 		bl	target_mem_write32
 1724              	.LVL204:
 1725              	.L148:
 1726              	.LBE157:
 1727              	.LBE156:
 1728              		.loc 1 381 0 discriminator 1
 1729 0090 4146     		mov	r1, r8
 1730 0092 2046     		mov	r0, r4
 1731 0094 FFF7FEFF 		bl	target_mem_read32
 1732              	.LVL205:
 1733              		.loc 1 382 0 discriminator 1
 1734 0098 C307     		lsls	r3, r0, #31
 1735 009a F9D4     		bmi	.L148
 1736              		.loc 1 384 0
 1737 009c 074B     		ldr	r3, .L157+4
 1738 009e 1840     		ands	r0, r0, r3
 1739              	.LVL206:
 1740 00a0 0228     		cmp	r0, #2
 1741 00a2 05D1     		bne	.L145
 1742              		.loc 1 385 0 discriminator 1
 1743 00a4 2046     		mov	r0, r4
 1744 00a6 FFF7FEFF 		bl	target_check_error
 1745              	.LVL207:
 1746              		.loc 1 384 0 discriminator 1
 1747 00aa 4042     		negs	r0, r0
 1748              		.loc 1 389 0 discriminator 1
 1749 00ac BDE8F883 		pop	{r3, r4, r5, r6, r7, r8, r9, pc}
 1750              	.LVL208:
 1751              	.L145:
 1752              		.loc 1 352 0
 1753 00b0 4FF0FF30 		mov	r0, #-1
 1754              		.loc 1 389 0
 1755 00b4 BDE8F883 		pop	{r3, r4, r5, r6, r7, r8, r9, pc}
 1756              	.LVL209:
 1757              	.L158:
 1758              		.align	2
 1759              	.L157:
 1760 00b8 00070100 		.word	67328
 1761 00bc 02070100 		.word	67330
 1762 00c0 003C0240 		.word	1073888256
 1763 00c4 00200240 		.word	1073881088
 1764              		.cfi_endproc
 1765              	.LFE273:
 1766              		.size	stm32lx_nvm_prog_erase, .-stm32lx_nvm_prog_erase
 1767              		.section	.text.stm32lx_nvm_data_write,"ax",%progbits
ARM GAS  C:\Users\CFAR\AppData\Local\Temp\ccGf3M6g.s 			page 32


 1768              		.align	1
 1769              		.p2align 4,,15
 1770              		.syntax unified
 1771              		.thumb
 1772              		.thumb_func
 1773              		.fpu fpv4-sp-d16
 1774              		.type	stm32lx_nvm_data_write, %function
 1775              	stm32lx_nvm_data_write:
 1776              	.LFB276:
 1777              		.loc 1 493 0
 1778              		.cfi_startproc
 1779              		@ args = 0, pretend = 0, frame = 0
 1780              		@ frame_needed = 0, uses_anonymous_args = 0
 1781              	.LVL210:
 1782 0000 2DE9F843 		push	{r3, r4, r5, r6, r7, r8, r9, lr}
 1783              		.cfi_def_cfa_offset 32
 1784              		.cfi_offset 3, -32
 1785              		.cfi_offset 4, -28
 1786              		.cfi_offset 5, -24
 1787              		.cfi_offset 6, -20
 1788              		.cfi_offset 7, -16
 1789              		.cfi_offset 8, -12
 1790              		.cfi_offset 9, -8
 1791              		.cfi_offset 14, -4
 1792              		.loc 1 494 0
 1793 0004 8569     		ldr	r5, [r0, #24]
 1794              		.loc 1 495 0
 1795 0006 286D     		ldr	r0, [r5, #80]
 1796              	.LVL211:
 1797              	.LBB158:
 1798              	.LBB159:
 1799              		.loc 1 208 0
 1800 0008 40F2254C 		movw	ip, #1061
 1801 000c 6045     		cmp	r0, ip
 1802              	.LBE159:
 1803              	.LBE158:
 1804              		.loc 1 493 0
 1805 000e 0F46     		mov	r7, r1
 1806              	.LVL212:
 1807 0010 1446     		mov	r4, r2
 1808 0012 1E46     		mov	r6, r3
 1809              	.LBB164:
 1810              	.LBB160:
 1811              		.loc 1 208 0
 1812 0014 32D0     		beq	.L161
 1813 0016 2DD9     		bls	.L183
 1814 0018 40F24743 		movw	r3, #1095
 1815              	.LVL213:
 1816 001c 9842     		cmp	r0, r3
 1817 001e 2DD0     		beq	.L161
 1818 0020 40F25743 		movw	r3, #1111
 1819 0024 9842     		cmp	r0, r3
 1820 0026 29D0     		beq	.L161
 1821              	.L173:
 1822              	.LBE160:
 1823              	.LBE164:
 1824              	.LBB165:
ARM GAS  C:\Users\CFAR\AppData\Local\Temp\ccGf3M6g.s 			page 33


 1825              	.LBB166:
 1826              		.loc 1 179 0
 1827 0028 40F22543 		movw	r3, #1061
 1828 002c 9842     		cmp	r0, r3
 1829              	.LBE166:
 1830              	.LBE165:
 1831              	.LBB171:
 1832              	.LBB161:
 1833              		.loc 1 215 0
 1834 002e DFF8C880 		ldr	r8, .L187+4
 1835              	.LVL214:
 1836              	.LBE161:
 1837              	.LBE171:
 1838              	.LBB172:
 1839              	.LBB167:
 1840              		.loc 1 179 0
 1841 0032 29D1     		bne	.L184
 1842              	.L164:
 1843              	.LVL215:
 1844              	.LBE167:
 1845              	.LBE172:
 1846              		.loc 1 499 0
 1847 0034 4146     		mov	r1, r8
 1848              	.LVL216:
 1849 0036 2846     		mov	r0, r5
 1850 0038 FFF7FEFF 		bl	stm32lx_nvm_prog_data_unlock
 1851              	.LVL217:
 1852 003c B0B1     		cbz	r0, .L169
 1853              	.L166:
 1854              		.loc 1 502 0
 1855 003e 08F10409 		add	r9, r8, #4
 1856 0042 1022     		movs	r2, #16
 1857              	.L168:
 1858              		.loc 1 502 0 is_stmt 0 discriminator 4
 1859 0044 4946     		mov	r1, r9
 1860 0046 2846     		mov	r0, r5
 1861 0048 FFF7FEFF 		bl	target_mem_write32
 1862              	.LVL218:
 1863              		.loc 1 505 0 is_stmt 1 discriminator 4
 1864 004c 7EB3     		cbz	r6, .L170
 1865 004e 3F1B     		subs	r7, r7, r4
 1866              	.LVL219:
 1867 0050 00E0     		b	.L171
 1868              	.LVL220:
 1869              	.L185:
 1870              		.loc 1 505 0 is_stmt 0
 1871 0052 66B3     		cbz	r6, .L170
 1872              	.LVL221:
 1873              	.L171:
 1874 0054 E119     		adds	r1, r4, r7
 1875              	.LVL222:
 1876              	.LBB173:
 1877              		.loc 1 508 0 is_stmt 1
 1878 0056 2846     		mov	r0, r5
 1879 0058 54F8042B 		ldr	r2, [r4], #4
 1880              	.LVL223:
 1881 005c FFF7FEFF 		bl	target_mem_write32
ARM GAS  C:\Users\CFAR\AppData\Local\Temp\ccGf3M6g.s 			page 34


 1882              	.LVL224:
 1883              		.loc 1 511 0
 1884 0060 2846     		mov	r0, r5
 1885              		.loc 1 506 0
 1886 0062 043E     		subs	r6, r6, #4
 1887              	.LVL225:
 1888              		.loc 1 511 0
 1889 0064 FFF7FEFF 		bl	target_check_error
 1890              	.LVL226:
 1891 0068 0028     		cmp	r0, #0
 1892 006a F2D0     		beq	.L185
 1893              	.LVL227:
 1894              	.L169:
 1895              	.LBE173:
 1896              		.loc 1 500 0
 1897 006c 4FF0FF30 		mov	r0, #-1
 1898              		.loc 1 529 0
 1899 0070 BDE8F883 		pop	{r3, r4, r5, r6, r7, r8, r9, pc}
 1900              	.LVL228:
 1901              	.L183:
 1902              	.LBB174:
 1903              	.LBB162:
 1904              		.loc 1 208 0
 1905 0074 40F21743 		movw	r3, #1047
 1906              	.LVL229:
 1907 0078 9842     		cmp	r0, r3
 1908 007a D5D1     		bne	.L173
 1909              	.L161:
 1910              	.LBE162:
 1911              	.LBE174:
 1912              	.LBB175:
 1913              	.LBB168:
 1914              		.loc 1 179 0
 1915 007c 40F22543 		movw	r3, #1061
 1916 0080 9842     		cmp	r0, r3
 1917              	.LBE168:
 1918              	.LBE175:
 1919              	.LBB176:
 1920              	.LBB163:
 1921              		.loc 1 213 0
 1922 0082 DFF87880 		ldr	r8, .L187+8
 1923              	.LVL230:
 1924              	.LBE163:
 1925              	.LBE176:
 1926              	.LBB177:
 1927              	.LBB169:
 1928              		.loc 1 179 0
 1929 0086 D5D0     		beq	.L164
 1930              	.L184:
 1931 0088 28D9     		bls	.L186
 1932 008a 40F24743 		movw	r3, #1095
 1933 008e 9842     		cmp	r0, r3
 1934 0090 D0D0     		beq	.L164
 1935 0092 40F25743 		movw	r3, #1111
 1936 0096 9842     		cmp	r0, r3
 1937 0098 CCD0     		beq	.L164
 1938              	.L163:
ARM GAS  C:\Users\CFAR\AppData\Local\Temp\ccGf3M6g.s 			page 35


 1939              	.LVL231:
 1940              	.LBE169:
 1941              	.LBE177:
 1942              		.loc 1 499 0
 1943 009a 4146     		mov	r1, r8
 1944              	.LVL232:
 1945 009c 2846     		mov	r0, r5
 1946 009e FFF7FEFF 		bl	stm32lx_nvm_prog_data_unlock
 1947              	.LVL233:
 1948 00a2 0028     		cmp	r0, #0
 1949 00a4 E2D0     		beq	.L169
 1950              		.loc 1 502 0
 1951 00a6 08F10409 		add	r9, r8, #4
 1952 00aa 0022     		movs	r2, #0
 1953 00ac CAE7     		b	.L168
 1954              	.LVL234:
 1955              	.L170:
 1956              	.LBB178:
 1957              	.LBB179:
 1958              		.loc 1 303 0
 1959 00ae 4946     		mov	r1, r9
 1960 00b0 0122     		movs	r2, #1
 1961 00b2 2846     		mov	r0, r5
 1962 00b4 FFF7FEFF 		bl	target_mem_write32
 1963              	.LVL235:
 1964 00b8 08F11808 		add	r8, r8, #24
 1965              	.LVL236:
 1966              	.L172:
 1967              	.LBE179:
 1968              	.LBE178:
 1969              		.loc 1 521 0 discriminator 1
 1970 00bc 4146     		mov	r1, r8
 1971 00be 2846     		mov	r0, r5
 1972 00c0 FFF7FEFF 		bl	target_mem_read32
 1973              	.LVL237:
 1974              		.loc 1 522 0 discriminator 1
 1975 00c4 C307     		lsls	r3, r0, #31
 1976 00c6 F9D4     		bmi	.L172
 1977              		.loc 1 524 0
 1978 00c8 0A4B     		ldr	r3, .L187
 1979 00ca 1840     		ands	r0, r0, r3
 1980              	.LVL238:
 1981 00cc 0228     		cmp	r0, #2
 1982 00ce CDD1     		bne	.L169
 1983              		.loc 1 525 0 discriminator 1
 1984 00d0 2846     		mov	r0, r5
 1985 00d2 FFF7FEFF 		bl	target_check_error
 1986              	.LVL239:
 1987              		.loc 1 524 0 discriminator 1
 1988 00d6 4042     		negs	r0, r0
 1989              		.loc 1 529 0 discriminator 1
 1990 00d8 BDE8F883 		pop	{r3, r4, r5, r6, r7, r8, r9, pc}
 1991              	.LVL240:
 1992              	.L186:
 1993              	.LBB180:
 1994              	.LBB170:
 1995              		.loc 1 179 0
ARM GAS  C:\Users\CFAR\AppData\Local\Temp\ccGf3M6g.s 			page 36


 1996 00dc 40F21743 		movw	r3, #1047
 1997 00e0 9842     		cmp	r0, r3
 1998 00e2 DAD1     		bne	.L163
 1999              	.LVL241:
 2000              	.LBE170:
 2001              	.LBE180:
 2002              		.loc 1 499 0
 2003 00e4 4146     		mov	r1, r8
 2004              	.LVL242:
 2005 00e6 2846     		mov	r0, r5
 2006 00e8 FFF7FEFF 		bl	stm32lx_nvm_prog_data_unlock
 2007              	.LVL243:
 2008 00ec 0028     		cmp	r0, #0
 2009 00ee A6D1     		bne	.L166
 2010 00f0 BCE7     		b	.L169
 2011              	.L188:
 2012 00f2 00BF     		.align	2
 2013              	.L187:
 2014 00f4 02070100 		.word	67330
 2015 00f8 003C0240 		.word	1073888256
 2016 00fc 00200240 		.word	1073881088
 2017              		.cfi_endproc
 2018              	.LFE276:
 2019              		.size	stm32lx_nvm_data_write, .-stm32lx_nvm_data_write
 2020              		.section	.text.stm32lx_nvm_data_erase,"ax",%progbits
 2021              		.align	1
 2022              		.p2align 4,,15
 2023              		.syntax unified
 2024              		.thumb
 2025              		.thumb_func
 2026              		.fpu fpv4-sp-d16
 2027              		.type	stm32lx_nvm_data_erase, %function
 2028              	stm32lx_nvm_data_erase:
 2029              	.LFB275:
 2030              		.loc 1 439 0
 2031              		.cfi_startproc
 2032              		@ args = 0, pretend = 0, frame = 0
 2033              		@ frame_needed = 0, uses_anonymous_args = 0
 2034              	.LVL244:
 2035 0000 2DE9F843 		push	{r3, r4, r5, r6, r7, r8, r9, lr}
 2036              		.cfi_def_cfa_offset 32
 2037              		.cfi_offset 3, -32
 2038              		.cfi_offset 4, -28
 2039              		.cfi_offset 5, -24
 2040              		.cfi_offset 6, -20
 2041              		.cfi_offset 7, -16
 2042              		.cfi_offset 8, -12
 2043              		.cfi_offset 9, -8
 2044              		.cfi_offset 14, -4
 2045              		.loc 1 440 0
 2046 0004 8669     		ldr	r6, [r0, #24]
 2047              	.LVL245:
 2048              		.loc 1 441 0
 2049 0006 8768     		ldr	r7, [r0, #8]
 2050              	.LVL246:
 2051              	.LBB181:
 2052              	.LBB182:
ARM GAS  C:\Users\CFAR\AppData\Local\Temp\ccGf3M6g.s 			page 37


 2053              		.loc 1 208 0
 2054 0008 336D     		ldr	r3, [r6, #80]
 2055 000a 40F22545 		movw	r5, #1061
 2056 000e AB42     		cmp	r3, r5
 2057              	.LBE182:
 2058              	.LBE181:
 2059              		.loc 1 439 0
 2060 0010 0C46     		mov	r4, r1
 2061              	.LBB184:
 2062              	.LBB183:
 2063              		.loc 1 208 0
 2064 0012 0FD0     		beq	.L191
 2065 0014 0AD9     		bls	.L206
 2066 0016 40F24741 		movw	r1, #1095
 2067              	.LVL247:
 2068 001a 8B42     		cmp	r3, r1
 2069 001c 0AD0     		beq	.L191
 2070 001e 40F25741 		movw	r1, #1111
 2071 0022 8B42     		cmp	r3, r1
 2072 0024 06D0     		beq	.L191
 2073              	.L199:
 2074              		.loc 1 215 0
 2075 0026 DFF89480 		ldr	r8, .L207+4
 2076 002a 05E0     		b	.L190
 2077              	.LVL248:
 2078              	.L206:
 2079              		.loc 1 208 0
 2080 002c 40F21741 		movw	r1, #1047
 2081              	.LVL249:
 2082 0030 8B42     		cmp	r3, r1
 2083 0032 F8D1     		bne	.L199
 2084              	.L191:
 2085              		.loc 1 213 0
 2086 0034 DFF88880 		ldr	r8, .L207+8
 2087              	.L190:
 2088              	.LBE183:
 2089              	.LBE184:
 2090              		.loc 1 445 0
 2091 0038 04F00305 		and	r5, r4, #3
 2092              		.loc 1 448 0
 2093 003c 4146     		mov	r1, r8
 2094 003e 3046     		mov	r0, r6
 2095              	.LVL250:
 2096              		.loc 1 445 0
 2097 0040 1544     		add	r5, r5, r2
 2098              	.LVL251:
 2099              		.loc 1 446 0
 2100 0042 24F00304 		bic	r4, r4, #3
 2101              	.LVL252:
 2102              		.loc 1 448 0
 2103 0046 FFF7FEFF 		bl	stm32lx_nvm_prog_data_unlock
 2104              	.LVL253:
 2105 004a 80B3     		cbz	r0, .L195
 2106              		.loc 1 452 0
 2107 004c 08F10409 		add	r9, r8, #4
 2108 0050 4946     		mov	r1, r9
 2109 0052 4FF40472 		mov	r2, #528
ARM GAS  C:\Users\CFAR\AppData\Local\Temp\ccGf3M6g.s 			page 38


 2110 0056 3046     		mov	r0, r6
 2111 0058 FFF7FEFF 		bl	target_mem_write32
 2112              	.LVL254:
 2113              		.loc 1 455 0
 2114 005c 4946     		mov	r1, r9
 2115 005e 3046     		mov	r0, r6
 2116 0060 FFF7FEFF 		bl	target_mem_read32
 2117              	.LVL255:
 2118              		.loc 1 456 0
 2119 0064 00F40470 		and	r0, r0, #528
 2120              	.LVL256:
 2121 0068 B0F5047F 		cmp	r0, #528
 2122 006c 1FD1     		bne	.L195
 2123              		.loc 1 460 0
 2124 006e 3DB1     		cbz	r5, .L196
 2125              	.LVL257:
 2126              	.L197:
 2127              		.loc 1 462 0
 2128 0070 2146     		mov	r1, r4
 2129 0072 0022     		movs	r2, #0
 2130 0074 3046     		mov	r0, r6
 2131 0076 FFF7FEFF 		bl	target_mem_write32
 2132              	.LVL258:
 2133              		.loc 1 460 0
 2134 007a ED1B     		subs	r5, r5, r7
 2135              	.LVL259:
 2136              		.loc 1 465 0
 2137 007c 3C44     		add	r4, r4, r7
 2138              	.LVL260:
 2139              		.loc 1 460 0
 2140 007e F7D1     		bne	.L197
 2141              	.LVL261:
 2142              	.L196:
 2143              	.LBB185:
 2144              	.LBB186:
 2145              		.loc 1 303 0
 2146 0080 4946     		mov	r1, r9
 2147 0082 0122     		movs	r2, #1
 2148 0084 3046     		mov	r0, r6
 2149 0086 FFF7FEFF 		bl	target_mem_write32
 2150              	.LVL262:
 2151 008a 08F11808 		add	r8, r8, #24
 2152              	.LVL263:
 2153              	.L198:
 2154              	.LBE186:
 2155              	.LBE185:
 2156              		.loc 1 474 0 discriminator 1
 2157 008e 4146     		mov	r1, r8
 2158 0090 3046     		mov	r0, r6
 2159 0092 FFF7FEFF 		bl	target_mem_read32
 2160              	.LVL264:
 2161              		.loc 1 475 0 discriminator 1
 2162 0096 C307     		lsls	r3, r0, #31
 2163 0098 F9D4     		bmi	.L198
 2164              		.loc 1 477 0
 2165 009a 074B     		ldr	r3, .L207
 2166 009c 1840     		ands	r0, r0, r3
ARM GAS  C:\Users\CFAR\AppData\Local\Temp\ccGf3M6g.s 			page 39


 2167              	.LVL265:
 2168 009e 0228     		cmp	r0, #2
 2169 00a0 05D1     		bne	.L195
 2170              		.loc 1 478 0 discriminator 1
 2171 00a2 3046     		mov	r0, r6
 2172 00a4 FFF7FEFF 		bl	target_check_error
 2173              	.LVL266:
 2174              		.loc 1 477 0 discriminator 1
 2175 00a8 4042     		negs	r0, r0
 2176              		.loc 1 482 0 discriminator 1
 2177 00aa BDE8F883 		pop	{r3, r4, r5, r6, r7, r8, r9, pc}
 2178              	.LVL267:
 2179              	.L195:
 2180              		.loc 1 449 0
 2181 00ae 4FF0FF30 		mov	r0, #-1
 2182              		.loc 1 482 0
 2183 00b2 BDE8F883 		pop	{r3, r4, r5, r6, r7, r8, r9, pc}
 2184              	.LVL268:
 2185              	.L208:
 2186 00b6 00BF     		.align	2
 2187              	.L207:
 2188 00b8 02070100 		.word	67330
 2189 00bc 003C0240 		.word	1073888256
 2190 00c0 00200240 		.word	1073881088
 2191              		.cfi_endproc
 2192              	.LFE275:
 2193              		.size	stm32lx_nvm_data_erase, .-stm32lx_nvm_data_erase
 2194              		.section	.text.stm32lx_nvm_prog_write,"ax",%progbits
 2195              		.align	1
 2196              		.p2align 4,,15
 2197              		.syntax unified
 2198              		.thumb
 2199              		.thumb_func
 2200              		.fpu fpv4-sp-d16
 2201              		.type	stm32lx_nvm_prog_write, %function
 2202              	stm32lx_nvm_prog_write:
 2203              	.LFB274:
 2204              		.loc 1 398 0
 2205              		.cfi_startproc
 2206              		@ args = 0, pretend = 0, frame = 0
 2207              		@ frame_needed = 0, uses_anonymous_args = 0
 2208              	.LVL269:
 2209 0000 2DE9F843 		push	{r3, r4, r5, r6, r7, r8, r9, lr}
 2210              		.cfi_def_cfa_offset 32
 2211              		.cfi_offset 3, -32
 2212              		.cfi_offset 4, -28
 2213              		.cfi_offset 5, -24
 2214              		.cfi_offset 6, -20
 2215              		.cfi_offset 7, -16
 2216              		.cfi_offset 8, -12
 2217              		.cfi_offset 9, -8
 2218              		.cfi_offset 14, -4
 2219              		.loc 1 399 0
 2220 0004 8469     		ldr	r4, [r0, #24]
 2221              	.LVL270:
 2222              	.LBB187:
 2223              	.LBB188:
ARM GAS  C:\Users\CFAR\AppData\Local\Temp\ccGf3M6g.s 			page 40


 2224              		.loc 1 208 0
 2225 0006 206D     		ldr	r0, [r4, #80]
 2226              	.LVL271:
 2227 0008 40F22545 		movw	r5, #1061
 2228 000c A842     		cmp	r0, r5
 2229              	.LBE188:
 2230              	.LBE187:
 2231              		.loc 1 398 0
 2232 000e 0F46     		mov	r7, r1
 2233 0010 9046     		mov	r8, r2
 2234 0012 9946     		mov	r9, r3
 2235              	.LBB190:
 2236              	.LBB189:
 2237              		.loc 1 208 0
 2238 0014 0ED0     		beq	.L211
 2239 0016 09D9     		bls	.L222
 2240 0018 40F24743 		movw	r3, #1095
 2241              	.LVL272:
 2242 001c 9842     		cmp	r0, r3
 2243 001e 09D0     		beq	.L211
 2244 0020 40F25743 		movw	r3, #1111
 2245 0024 9842     		cmp	r0, r3
 2246 0026 05D0     		beq	.L211
 2247              	.L219:
 2248              		.loc 1 215 0
 2249 0028 1F4E     		ldr	r6, .L223
 2250 002a 04E0     		b	.L210
 2251              	.LVL273:
 2252              	.L222:
 2253              		.loc 1 208 0
 2254 002c 40F21743 		movw	r3, #1047
 2255              	.LVL274:
 2256 0030 9842     		cmp	r0, r3
 2257 0032 F9D1     		bne	.L219
 2258              	.L211:
 2259              		.loc 1 213 0
 2260 0034 1D4E     		ldr	r6, .L223+4
 2261              	.L210:
 2262              	.LBE189:
 2263              	.LBE190:
 2264              		.loc 1 402 0
 2265 0036 3146     		mov	r1, r6
 2266              	.LVL275:
 2267 0038 2046     		mov	r0, r4
 2268 003a FFF7FEFF 		bl	stm32lx_nvm_prog_data_unlock
 2269              	.LVL276:
 2270 003e 06F11805 		add	r5, r6, #24
 2271 0042 18B9     		cbnz	r0, .L215
 2272 0044 2BE0     		b	.L216
 2273              	.LVL277:
 2274              	.L217:
 2275              		.loc 1 409 0
 2276 0046 FFF7FEFF 		bl	target_check_error
 2277              	.LVL278:
 2278 004a 40BB     		cbnz	r0, .L216
 2279              	.L215:
 2280              		.loc 1 407 0
ARM GAS  C:\Users\CFAR\AppData\Local\Temp\ccGf3M6g.s 			page 41


 2281 004c 2946     		mov	r1, r5
 2282 004e 2046     		mov	r0, r4
 2283 0050 FFF7FEFF 		bl	target_mem_read32
 2284              	.LVL279:
 2285 0054 10F0010F 		tst	r0, #1
 2286              		.loc 1 409 0
 2287 0058 2046     		mov	r0, r4
 2288              		.loc 1 407 0
 2289 005a F4D1     		bne	.L217
 2290              	.LVL280:
 2291              		.loc 1 412 0
 2292 005c 0436     		adds	r6, r6, #4
 2293 005e 3146     		mov	r1, r6
 2294 0060 4FF48162 		mov	r2, #1032
 2295 0064 FFF7FEFF 		bl	target_mem_write32
 2296              	.LVL281:
 2297              		.loc 1 414 0
 2298 0068 4246     		mov	r2, r8
 2299 006a 3946     		mov	r1, r7
 2300 006c 4B46     		mov	r3, r9
 2301 006e 2046     		mov	r0, r4
 2302 0070 FFF7FEFF 		bl	target_mem_write
 2303              	.LVL282:
 2304              	.LBB191:
 2305              	.LBB192:
 2306              		.loc 1 303 0
 2307 0074 3146     		mov	r1, r6
 2308 0076 0122     		movs	r2, #1
 2309 0078 2046     		mov	r0, r4
 2310 007a FFF7FEFF 		bl	target_mem_write32
 2311              	.LVL283:
 2312              	.L218:
 2313              	.LBE192:
 2314              	.LBE191:
 2315              		.loc 1 422 0 discriminator 1
 2316 007e 2946     		mov	r1, r5
 2317 0080 2046     		mov	r0, r4
 2318 0082 FFF7FEFF 		bl	target_mem_read32
 2319              	.LVL284:
 2320              		.loc 1 423 0 discriminator 1
 2321 0086 C307     		lsls	r3, r0, #31
 2322 0088 F9D4     		bmi	.L218
 2323              		.loc 1 425 0
 2324 008a 094B     		ldr	r3, .L223+8
 2325 008c 1840     		ands	r0, r0, r3
 2326              	.LVL285:
 2327 008e 0228     		cmp	r0, #2
 2328 0090 05D1     		bne	.L216
 2329              		.loc 1 426 0 discriminator 1
 2330 0092 2046     		mov	r0, r4
 2331 0094 FFF7FEFF 		bl	target_check_error
 2332              	.LVL286:
 2333              		.loc 1 425 0 discriminator 1
 2334 0098 4042     		negs	r0, r0
 2335              		.loc 1 430 0 discriminator 1
 2336 009a BDE8F883 		pop	{r3, r4, r5, r6, r7, r8, r9, pc}
 2337              	.LVL287:
ARM GAS  C:\Users\CFAR\AppData\Local\Temp\ccGf3M6g.s 			page 42


 2338              	.L216:
 2339              		.loc 1 403 0
 2340 009e 4FF0FF30 		mov	r0, #-1
 2341              		.loc 1 430 0
 2342 00a2 BDE8F883 		pop	{r3, r4, r5, r6, r7, r8, r9, pc}
 2343              	.LVL288:
 2344              	.L224:
 2345 00a6 00BF     		.align	2
 2346              	.L223:
 2347 00a8 003C0240 		.word	1073888256
 2348 00ac 00200240 		.word	1073881088
 2349 00b0 02070100 		.word	67330
 2350              		.cfi_endproc
 2351              	.LFE274:
 2352              		.size	stm32lx_nvm_prog_write, .-stm32lx_nvm_prog_write
 2353              		.section	.text.stm32l0_probe,"ax",%progbits
 2354              		.align	1
 2355              		.p2align 4,,15
 2356              		.global	stm32l0_probe
 2357              		.syntax unified
 2358              		.thumb
 2359              		.thumb_func
 2360              		.fpu fpv4-sp-d16
 2361              		.type	stm32l0_probe, %function
 2362              	stm32l0_probe:
 2363              	.LFB269:
 2364              		.loc 1 260 0
 2365              		.cfi_startproc
 2366              		@ args = 0, pretend = 0, frame = 0
 2367              		@ frame_needed = 0, uses_anonymous_args = 0
 2368              	.LVL289:
 2369 0000 70B5     		push	{r4, r5, r6, lr}
 2370              		.cfi_def_cfa_offset 16
 2371              		.cfi_offset 4, -16
 2372              		.cfi_offset 5, -12
 2373              		.cfi_offset 6, -8
 2374              		.cfi_offset 14, -4
 2375              		.loc 1 263 0
 2376 0002 4249     		ldr	r1, .L236
 2377              		.loc 1 260 0
 2378 0004 0446     		mov	r4, r0
 2379              		.loc 1 263 0
 2380 0006 FFF7FEFF 		bl	target_mem_read32
 2381              	.LVL290:
 2382 000a C0F30B00 		ubfx	r0, r0, #0, #12
 2383              	.LVL291:
 2384              		.loc 1 264 0
 2385 000e A0F21643 		subw	r3, r0, #1046
 2386 0012 212B     		cmp	r3, #33
 2387 0014 12D8     		bhi	.L226
 2388 0016 DFE803F0 		tbb	[pc, r3]
 2389              	.L228:
 2390 001a 26       		.byte	(.L227-.L228)/2
 2391 001b 11       		.byte	(.L226-.L228)/2
 2392 001c 11       		.byte	(.L226-.L228)/2
 2393 001d 11       		.byte	(.L226-.L228)/2
 2394 001e 11       		.byte	(.L226-.L228)/2
ARM GAS  C:\Users\CFAR\AppData\Local\Temp\ccGf3M6g.s 			page 43


 2395 001f 11       		.byte	(.L226-.L228)/2
 2396 0020 11       		.byte	(.L226-.L228)/2
 2397 0021 11       		.byte	(.L226-.L228)/2
 2398 0022 11       		.byte	(.L226-.L228)/2
 2399 0023 11       		.byte	(.L226-.L228)/2
 2400 0024 11       		.byte	(.L226-.L228)/2
 2401 0025 11       		.byte	(.L226-.L228)/2
 2402 0026 11       		.byte	(.L226-.L228)/2
 2403 0027 11       		.byte	(.L226-.L228)/2
 2404 0028 11       		.byte	(.L226-.L228)/2
 2405 0029 11       		.byte	(.L226-.L228)/2
 2406 002a 11       		.byte	(.L226-.L228)/2
 2407 002b 26       		.byte	(.L227-.L228)/2
 2408 002c 11       		.byte	(.L226-.L228)/2
 2409 002d 26       		.byte	(.L227-.L228)/2
 2410 002e 11       		.byte	(.L226-.L228)/2
 2411 002f 11       		.byte	(.L226-.L228)/2
 2412 0030 11       		.byte	(.L226-.L228)/2
 2413 0031 11       		.byte	(.L226-.L228)/2
 2414 0032 11       		.byte	(.L226-.L228)/2
 2415 0033 11       		.byte	(.L226-.L228)/2
 2416 0034 11       		.byte	(.L226-.L228)/2
 2417 0035 11       		.byte	(.L226-.L228)/2
 2418 0036 11       		.byte	(.L226-.L228)/2
 2419 0037 11       		.byte	(.L226-.L228)/2
 2420 0038 11       		.byte	(.L226-.L228)/2
 2421 0039 11       		.byte	(.L226-.L228)/2
 2422 003a 26       		.byte	(.L227-.L228)/2
 2423 003b 26       		.byte	(.L227-.L228)/2
 2424              		.p2align 1
 2425              	.L226:
 2426              		.loc 1 279 0
 2427 003c 3449     		ldr	r1, .L236+4
 2428 003e 2046     		mov	r0, r4
 2429              	.LVL292:
 2430 0040 FFF7FEFF 		bl	target_mem_read32
 2431              	.LVL293:
 2432              		.loc 1 280 0
 2433 0044 40F22543 		movw	r3, #1061
 2434              		.loc 1 279 0
 2435 0048 C0F30B00 		ubfx	r0, r0, #0, #12
 2436              	.LVL294:
 2437              		.loc 1 280 0
 2438 004c 9842     		cmp	r0, r3
 2439 004e 28D0     		beq	.L230
 2440 0050 23D9     		bls	.L235
 2441 0052 40F24743 		movw	r3, #1095
 2442 0056 9842     		cmp	r0, r3
 2443 0058 23D0     		beq	.L230
 2444 005a 40F25743 		movw	r3, #1111
 2445 005e 9842     		cmp	r0, r3
 2446 0060 1FD0     		beq	.L230
 2447              	.L232:
 2448              		.loc 1 296 0
 2449 0062 0020     		movs	r0, #0
 2450              	.LVL295:
 2451              		.loc 1 297 0
ARM GAS  C:\Users\CFAR\AppData\Local\Temp\ccGf3M6g.s 			page 44


 2452 0064 70BD     		pop	{r4, r5, r6, pc}
 2453              	.LVL296:
 2454              	.L227:
 2455              		.loc 1 271 0
 2456 0066 2B4D     		ldr	r5, .L236+8
 2457              		.loc 1 270 0
 2458 0068 2065     		str	r0, [r4, #80]
 2459              		.loc 1 272 0
 2460 006a 4FF4A032 		mov	r2, #81920
 2461 006e 4FF00051 		mov	r1, #536870912
 2462 0072 2046     		mov	r0, r4
 2463              	.LVL297:
 2464              		.loc 1 271 0
 2465 0074 2566     		str	r5, [r4, #96]
 2466              		.loc 1 272 0
 2467 0076 FFF7FEFF 		bl	target_add_ram
 2468              	.LVL298:
 2469              		.loc 1 273 0
 2470 007a 4FF48073 		mov	r3, #256
 2471 007e 4FF40022 		mov	r2, #524288
 2472 0082 4FF00061 		mov	r1, #134217728
 2473 0086 2046     		mov	r0, r4
 2474 0088 FFF7FEFF 		bl	stm32l_add_flash
 2475              	.LVL299:
 2476              	.L234:
 2477              		.loc 1 292 0
 2478 008c 2046     		mov	r0, r4
 2479 008e 2A46     		mov	r2, r5
 2480 0090 2149     		ldr	r1, .L236+12
 2481 0092 FFF7FEFF 		bl	target_add_commands
 2482              	.LVL300:
 2483              		.loc 1 293 0
 2484 0096 0120     		movs	r0, #1
 2485              		.loc 1 297 0
 2486 0098 70BD     		pop	{r4, r5, r6, pc}
 2487              	.LVL301:
 2488              	.L235:
 2489              		.loc 1 280 0
 2490 009a 40F21743 		movw	r3, #1047
 2491 009e 9842     		cmp	r0, r3
 2492 00a0 DFD1     		bne	.L232
 2493              	.L230:
 2494              		.loc 1 286 0
 2495 00a2 1E4D     		ldr	r5, .L236+16
 2496              		.loc 1 285 0
 2497 00a4 2065     		str	r0, [r4, #80]
 2498              		.loc 1 286 0
 2499 00a6 2566     		str	r5, [r4, #96]
 2500              		.loc 1 287 0
 2501 00a8 2046     		mov	r0, r4
 2502              	.LVL302:
 2503 00aa 4FF4A042 		mov	r2, #20480
 2504 00ae 4FF00051 		mov	r1, #536870912
 2505 00b2 FFF7FEFF 		bl	target_add_ram
 2506              	.LVL303:
 2507              		.loc 1 288 0
 2508 00b6 2046     		mov	r0, r4
ARM GAS  C:\Users\CFAR\AppData\Local\Temp\ccGf3M6g.s 			page 45


 2509 00b8 8023     		movs	r3, #128
 2510 00ba 4FF48032 		mov	r2, #65536
 2511 00be 4FF00061 		mov	r1, #134217728
 2512 00c2 FFF7FEFF 		bl	stm32l_add_flash
 2513              	.LVL304:
 2514              		.loc 1 289 0
 2515 00c6 2046     		mov	r0, r4
 2516 00c8 8023     		movs	r3, #128
 2517 00ca 4FF48032 		mov	r2, #65536
 2518 00ce 1449     		ldr	r1, .L236+20
 2519              	.LBB195:
 2520              	.LBB196:
 2521              		.loc 1 251 0
 2522 00d0 144E     		ldr	r6, .L236+24
 2523              	.LBE196:
 2524              	.LBE195:
 2525              		.loc 1 289 0
 2526 00d2 FFF7FEFF 		bl	stm32l_add_flash
 2527              	.LVL305:
 2528              		.loc 1 290 0
 2529 00d6 8023     		movs	r3, #128
 2530 00d8 4FF48032 		mov	r2, #65536
 2531 00dc 2046     		mov	r0, r4
 2532 00de 1249     		ldr	r1, .L236+28
 2533 00e0 FFF7FEFF 		bl	stm32l_add_flash
 2534              	.LVL306:
 2535              	.LBB198:
 2536              	.LBB197:
 2537              		.loc 1 247 0
 2538 00e4 3021     		movs	r1, #48
 2539 00e6 0120     		movs	r0, #1
 2540 00e8 FFF7FEFF 		bl	calloc
 2541              	.LVL307:
 2542              		.loc 1 248 0
 2543 00ec 0F49     		ldr	r1, .L236+32
 2544              		.loc 1 252 0
 2545 00ee 104A     		ldr	r2, .L236+36
 2546              		.loc 1 248 0
 2547 00f0 0160     		str	r1, [r0]
 2548              		.loc 1 247 0
 2549 00f2 0346     		mov	r3, r0
 2550              	.LVL308:
 2551              		.loc 1 249 0
 2552 00f4 4FF4C051 		mov	r1, #6144
 2553              		.loc 1 250 0
 2554 00f8 0420     		movs	r0, #4
 2555              	.LVL309:
 2556              		.loc 1 249 0
 2557 00fa 5960     		str	r1, [r3, #4]
 2558              		.loc 1 250 0
 2559 00fc 9860     		str	r0, [r3, #8]
 2560              		.loc 1 253 0
 2561 00fe 1946     		mov	r1, r3
 2562 0100 2046     		mov	r0, r4
 2563              		.loc 1 252 0
 2564 0102 C3E90362 		strd	r6, r2, [r3, #12]
 2565              		.loc 1 253 0
ARM GAS  C:\Users\CFAR\AppData\Local\Temp\ccGf3M6g.s 			page 46


 2566 0106 FFF7FEFF 		bl	target_add_flash
 2567              	.LVL310:
 2568 010a BFE7     		b	.L234
 2569              	.L237:
 2570              		.align	2
 2571              	.L236:
 2572 010c 002004E0 		.word	-536600576
 2573 0110 00580140 		.word	1073829888
 2574 0114 00000000 		.word	.LC32
 2575 0118 00000000 		.word	.LANCHOR0
 2576 011c 0C000000 		.word	.LC33
 2577 0120 00000108 		.word	134283264
 2578 0124 00000000 		.word	stm32lx_nvm_data_erase
 2579 0128 00000208 		.word	134348800
 2580 012c 00000808 		.word	134742016
 2581 0130 00000000 		.word	stm32lx_nvm_data_write
 2582              	.LBE197:
 2583              	.LBE198:
 2584              		.cfi_endproc
 2585              	.LFE269:
 2586              		.size	stm32l0_probe, .-stm32l0_probe
 2587              		.section	.rodata.stm32l0_probe.str1.4,"aMS",%progbits,1
 2588              		.align	2
 2589              	.LC32:
 2590 0000 53544D33 		.ascii	"STM32L1x\000"
 2590      324C3178 
 2590      00
 2591 0009 000000   		.space	3
 2592              	.LC33:
 2593 000c 53544D33 		.ascii	"STM32L0x\000"
 2593      324C3078 
 2593      00
 2594              		.section	.rodata.stm32lx_cmd_eeprom.str1.4,"aMS",%progbits,1
 2595              		.align	2
 2596              	.LC19:
 2597 0000 756E6162 		.ascii	"unable to unlock EEPROM\012\000"
 2597      6C652074 
 2597      6F20756E 
 2597      6C6F636B 
 2597      20454550 
 2598 0019 000000   		.space	3
 2599              	.LC20:
 2600 001c 62797465 		.ascii	"byte\000"
 2600      00
 2601 0021 000000   		.space	3
 2602              	.LC21:
 2603 0024 77726974 		.ascii	"write byte 0x%08x <- 0x%08x\012\000"
 2603      65206279 
 2603      74652030 
 2603      78253038 
 2603      78203C2D 
 2604 0041 000000   		.space	3
 2605              	.LC22:
 2606 0044 65657072 		.ascii	"eeprom write failed\012\000"
 2606      6F6D2077 
 2606      72697465 
 2606      20666169 
ARM GAS  C:\Users\CFAR\AppData\Local\Temp\ccGf3M6g.s 			page 47


 2606      6C65640A 
 2607 0059 000000   		.space	3
 2608              	.LC23:
 2609 005c 68616C66 		.ascii	"halfword\000"
 2609      776F7264 
 2609      00
 2610 0065 000000   		.space	3
 2611              	.LC24:
 2612 0068 77726974 		.ascii	"write halfword 0x%08x <- 0x%04x\012\000"
 2612      65206861 
 2612      6C66776F 
 2612      72642030 
 2612      78253038 
 2613 0089 000000   		.space	3
 2614              	.LC25:
 2615 008c 776F7264 		.ascii	"word\000"
 2615      00
 2616 0091 000000   		.space	3
 2617              	.LC26:
 2618 0094 77726974 		.ascii	"write word 0x%08x <- 0x%08x\012\000"
 2618      6520776F 
 2618      72642030 
 2618      78253038 
 2618      78203C2D 
 2619 00b1 000000   		.space	3
 2620              	.LC27:
 2621 00b4 75736167 		.ascii	"usage: monitor eeprom [ARGS]\012\000"
 2621      653A206D 
 2621      6F6E6974 
 2621      6F722065 
 2621      6570726F 
 2622 00d2 0000     		.space	2
 2623              	.LC28:
 2624 00d4 20206279 		.ascii	"  byte     <addr> <value8>  - Write a byte\012\000"
 2624      74652020 
 2624      2020203C 
 2624      61646472 
 2624      3E203C76 
 2625              	.LC29:
 2626 0100 20206861 		.ascii	"  halfword <addr> <value16> - Write a half-word\012"
 2626      6C66776F 
 2626      7264203C 
 2626      61646472 
 2626      3E203C76 
 2627 0130 00       		.ascii	"\000"
 2628 0131 000000   		.space	3
 2629              	.LC30:
 2630 0134 2020776F 		.ascii	"  word     <addr> <value32> - Write a word\012\000"
 2630      72642020 
 2630      2020203C 
 2630      61646472 
 2630      3E203C76 
 2631              	.LC31:
 2632 0160 54686520 		.ascii	"The value of <addr> must in the interval [0x%08x, 0"
 2632      76616C75 
 2632      65206F66 
 2632      203C6164 
ARM GAS  C:\Users\CFAR\AppData\Local\Temp\ccGf3M6g.s 			page 48


 2632      64723E20 
 2633 0193 78257829 		.ascii	"x%x)\012\000"
 2633      0A00
 2634              		.section	.rodata.stm32lx_cmd_list,"a",%progbits
 2635              		.align	2
 2636              		.set	.LANCHOR0,. + 0
 2637              		.type	stm32lx_cmd_list, %object
 2638              		.size	stm32lx_cmd_list, 36
 2639              	stm32lx_cmd_list:
 2640 0000 00000000 		.word	.LC34
 2641 0004 00000000 		.word	stm32lx_cmd_option
 2642 0008 08000000 		.word	.LC35
 2643 000c 20000000 		.word	.LC36
 2644 0010 00000000 		.word	stm32lx_cmd_eeprom
 2645 0014 28000000 		.word	.LC37
 2646 0018 00000000 		.word	0
 2647 001c 00000000 		.word	0
 2648 0020 00000000 		.word	0
 2649              		.section	.rodata.stm32lx_cmd_option.str1.4,"aMS",%progbits,1
 2650              		.align	2
 2651              	.LC0:
 2652 0000 4F4B00   		.ascii	"OK\000"
 2653 0003 00       		.space	1
 2654              	.LC1:
 2655 0004 45525200 		.ascii	"ERR\000"
 2656              	.LC2:
 2657 0008 756E6162 		.ascii	"unable to unlock NVM option bytes\012\000"
 2657      6C652074 
 2657      6F20756E 
 2657      6C6F636B 
 2657      204E564D 
 2658 002b 00       		.space	1
 2659              	.LC3:
 2660 002c 6F626C5F 		.ascii	"obl_launch\000"
 2660      6C61756E 
 2660      636800
 2661 0037 00       		.space	1
 2662              	.LC4:
 2663 0038 72617700 		.ascii	"raw\000"
 2664              	.LC5:
 2665 003c 72617720 		.ascii	"raw %08x <- %08x\012\000"
 2665      25303878 
 2665      203C2D20 
 2665      25303878 
 2665      0A00
 2666 004e 0000     		.space	2
 2667              	.LC6:
 2668 0050 6F707469 		.ascii	"option write failed\012\000"
 2668      6F6E2077 
 2668      72697465 
 2668      20666169 
 2668      6C65640A 
 2669 0065 000000   		.space	3
 2670              	.LC7:
 2671 0068 77726974 		.ascii	"write\000"
 2671      6500
 2672 006e 0000     		.space	2
ARM GAS  C:\Users\CFAR\AppData\Local\Temp\ccGf3M6g.s 			page 49


 2673              	.LC8:
 2674 0070 77726974 		.ascii	"write %08x <- %08x\012\000"
 2674      65202530 
 2674      3878203C 
 2674      2D202530 
 2674      38780A00 
 2675              	.LC9:
 2676 0084 73686F77 		.ascii	"show\000"
 2676      00
 2677 0089 000000   		.space	3
 2678              	.LC10:
 2679 008c 30782530 		.ascii	"0x%08x: 0x%04x 0x%04x %s\012\000"
 2679      38783A20 
 2679      30782530 
 2679      34782030 
 2679      78253034 
 2680 00a6 0000     		.space	2
 2681              	.LC11:
 2682 00a8 4F505452 		.ascii	"OPTR: 0x%08x, RDPRT %d, SPRMD %d, BOR %d, WDG_SW %d"
 2682      3A203078 
 2682      25303878 
 2682      2C205244 
 2682      50525420 
 2683 00db 2C206E52 		.ascii	", nRST_STP %d, nRST_STBY %d, nBFB2 %d\012\000"
 2683      53545F53 
 2683      54502025 
 2683      642C206E 
 2683      5253545F 
 2684 0102 0000     		.space	2
 2685              	.LC12:
 2686 0104 4F505452 		.ascii	"OPTR: 0x%08x, RDPROT %d, WPRMOD %d, WDG_SW %d, BOOT"
 2686      3A203078 
 2686      25303878 
 2686      2C205244 
 2686      50524F54 
 2687 0137 31202564 		.ascii	"1 %d\012\000"
 2687      0A00
 2688 013d 000000   		.space	3
 2689              	.LC13:
 2690 0140 75736167 		.ascii	"usage: monitor option [ARGS]\012\000"
 2690      653A206D 
 2690      6F6E6974 
 2690      6F72206F 
 2690      7074696F 
 2691 015e 0000     		.space	2
 2692              	.LC14:
 2693 0160 20207368 		.ascii	"  show                   - Show options in NVM and "
 2693      6F772020 
 2693      20202020 
 2693      20202020 
 2693      20202020 
 2694 0193 6173206C 		.ascii	"as loaded\012\000"
 2694      6F616465 
 2694      640A00
 2695 019e 0000     		.space	2
 2696              	.LC15:
 2697 01a0 20206F62 		.ascii	"  obl_launch             - Reload options from NVM\012"
ARM GAS  C:\Users\CFAR\AppData\Local\Temp\ccGf3M6g.s 			page 50


 2697      6C5F6C61 
 2697      756E6368 
 2697      20202020 
 2697      20202020 
 2698 01d3 00       		.ascii	"\000"
 2699              	.LC16:
 2700 01d4 20207772 		.ascii	"  write <addr> <value16> - Set option half-word; co"
 2700      69746520 
 2700      3C616464 
 2700      723E203C 
 2700      76616C75 
 2701 0207 6D706C65 		.ascii	"mplement computed\012\000"
 2701      6D656E74 
 2701      20636F6D 
 2701      70757465 
 2701      640A00
 2702 021a 0000     		.space	2
 2703              	.LC17:
 2704 021c 20207261 		.ascii	"  raw <addr> <value32>   - Set option word\012\000"
 2704      77203C61 
 2704      6464723E 
 2704      203C7661 
 2704      6C756533 
 2705              	.LC18:
 2706 0248 54686520 		.ascii	"The value of <addr> must be word aligned and from 0"
 2706      76616C75 
 2706      65206F66 
 2706      203C6164 
 2706      64723E20 
 2707 027b 78253038 		.ascii	"x%08x to +0x%x\012\000"
 2707      7820746F 
 2707      202B3078 
 2707      25780A00 
 2708              		.section	.rodata.str1.4,"aMS",%progbits,1
 2709              		.align	2
 2710              	.LC34:
 2711 0000 6F707469 		.ascii	"option\000"
 2711      6F6E00
 2712 0007 00       		.space	1
 2713              	.LC35:
 2714 0008 4D616E69 		.ascii	"Manipulate option bytes\000"
 2714      70756C61 
 2714      7465206F 
 2714      7074696F 
 2714      6E206279 
 2715              	.LC36:
 2716 0020 65657072 		.ascii	"eeprom\000"
 2716      6F6D00
 2717 0027 00       		.space	1
 2718              	.LC37:
 2719 0028 4D616E69 		.ascii	"Manipulate EEPROM(NVM data) memory\000"
 2719      70756C61 
 2719      74652045 
 2719      4550524F 
 2719      4D284E56 
 2720              		.text
 2721              	.Letext0:
ARM GAS  C:\Users\CFAR\AppData\Local\Temp\ccGf3M6g.s 			page 51


 2722              		.file 2 "c:\\st\\stm32cubeide_1.3.0\\stm32cubeide\\plugins\\com.st.stm32cube.ide.mcu.externaltools
 2723              		.file 3 "c:\\st\\stm32cubeide_1.3.0\\stm32cubeide\\plugins\\com.st.stm32cube.ide.mcu.externaltools
 2724              		.file 4 "c:\\st\\stm32cubeide_1.3.0\\stm32cubeide\\plugins\\com.st.stm32cube.ide.mcu.externaltools
 2725              		.file 5 "c:\\st\\stm32cubeide_1.3.0\\stm32cubeide\\plugins\\com.st.stm32cube.ide.mcu.externaltools
 2726              		.file 6 "c:\\st\\stm32cubeide_1.3.0\\stm32cubeide\\plugins\\com.st.stm32cube.ide.mcu.externaltools
 2727              		.file 7 "c:\\st\\stm32cubeide_1.3.0\\stm32cubeide\\plugins\\com.st.stm32cube.ide.mcu.externaltools
 2728              		.file 8 "c:\\st\\stm32cubeide_1.3.0\\stm32cubeide\\plugins\\com.st.stm32cube.ide.mcu.externaltools
 2729              		.file 9 "c:\\st\\stm32cubeide_1.3.0\\stm32cubeide\\plugins\\com.st.stm32cube.ide.mcu.externaltools
 2730              		.file 10 "<built-in>"
 2731              		.file 11 "c:\\st\\stm32cubeide_1.3.0\\stm32cubeide\\plugins\\com.st.stm32cube.ide.mcu.externaltool
 2732              		.file 12 "c:\\st\\stm32cubeide_1.3.0\\stm32cubeide\\plugins\\com.st.stm32cube.ide.mcu.externaltool
 2733              		.file 13 "ChibiOS_3.0.5/os/rt/ports/ARMCMx/compilers/GCC/chtypes.h"
 2734              		.file 14 "ChibiOS_3.0.5/os/rt/include/chsystypes.h"
 2735              		.file 15 "ChibiOS_3.0.5/os/rt/include/chschd.h"
 2736              		.file 16 "ChibiOS_3.0.5/os/ext/CMSIS/include/core_cm4.h"
 2737              		.file 17 "ChibiOS_3.0.5/os/ext/CMSIS/ST/system_stm32f4xx.h"
 2738              		.file 18 "ChibiOS_3.0.5/os/ext/CMSIS/ST/stm32f407xx.h"
 2739              		.file 19 "ChibiOS_3.0.5/os/rt/ports/ARMCMx/chcore.h"
 2740              		.file 20 "ChibiOS_3.0.5/os/rt/ports/ARMCMx/chcore_v7m.h"
 2741              		.file 21 "ChibiOS_3.0.5/os/rt/include/chtm.h"
 2742              		.file 22 "ChibiOS_3.0.5/os/rt/include/chsem.h"
 2743              		.file 23 "ChibiOS_3.0.5/os/rt/include/chmtx.h"
 2744              		.file 24 "ChibiOS_3.0.5/os/rt/include/chregistry.h"
 2745              		.file 25 "ChibiOS_3.0.5/os/rt/include/chevents.h"
 2746              		.file 26 "ChibiOS_3.0.5/os/rt/include/chqueues.h"
 2747              		.file 27 "./conf_general.h"
 2748              		.file 28 "ChibiOS_3.0.5/os/hal/ports/STM32/STM32F4xx/stm32_dma.h"
 2749              		.file 29 "ChibiOS_3.0.5/os/hal/ports/STM32/LLD/GPIOv2/pal_lld.h"
 2750              		.file 30 "ChibiOS_3.0.5/os/hal/include/can.h"
 2751              		.file 31 "ChibiOS_3.0.5/os/hal/ports/STM32/LLD/can_lld.h"
 2752              		.file 32 "ChibiOS_3.0.5/os/hal/include/i2c.h"
 2753              		.file 33 "ChibiOS_3.0.5/os/hal/ports/STM32/LLD/I2Cv1/i2c_lld.h"
 2754              		.file 34 "ChibiOS_3.0.5/os/hal/include/icu.h"
 2755              		.file 35 "ChibiOS_3.0.5/os/hal/ports/STM32/LLD/TIMv1/icu_lld.h"
 2756              		.file 36 "ChibiOS_3.0.5/os/hal/ports/STM32/LLD/TIMv1/stm32_tim.h"
 2757              		.file 37 "ChibiOS_3.0.5/os/hal/include/serial.h"
 2758              		.file 38 "ChibiOS_3.0.5/os/hal/ports/STM32/LLD/USARTv1/serial_lld.h"
 2759              		.file 39 "ChibiOS_3.0.5/os/hal/include/spi.h"
 2760              		.file 40 "ChibiOS_3.0.5/os/hal/ports/STM32/LLD/SPIv1/spi_lld.h"
 2761              		.file 41 "ChibiOS_3.0.5/os/hal/include/usb.h"
 2762              		.file 42 "ChibiOS_3.0.5/os/hal/ports/STM32/LLD/OTGv1/usb_lld.h"
 2763              		.file 43 "ChibiOS_3.0.5/os/hal/ports/STM32/LLD/OTGv1/stm32_otg.h"
 2764              		.file 44 "blackmagic/platform.h"
 2765              		.file 45 "blackmagic/target.h"
 2766              		.file 46 "blackmagic/target/target_internal.h"
 2767              		.file 47 "blackmagic/target/jtag_scan.h"
 2768              		.file 48 "blackmagic/target/cortexm.h"
 2769              		.file 49 "c:\\st\\stm32cubeide_1.3.0\\stm32cubeide\\plugins\\com.st.stm32cube.ide.mcu.externaltool
 2770              		.file 50 "c:\\st\\stm32cubeide_1.3.0\\stm32cubeide\\plugins\\com.st.stm32cube.ide.mcu.externaltool
