ARM GAS  C:\Users\CFAR\AppData\Local\Temp\ccUaT5pA.s 			page 1


   1              		.cpu cortex-m4
   2              		.eabi_attribute 27, 1
   3              		.eabi_attribute 28, 1
   4              		.eabi_attribute 20, 1
   5              		.eabi_attribute 21, 1
   6              		.eabi_attribute 23, 3
   7              		.eabi_attribute 24, 1
   8              		.eabi_attribute 25, 1
   9              		.eabi_attribute 26, 1
  10              		.eabi_attribute 30, 2
  11              		.eabi_attribute 34, 1
  12              		.eabi_attribute 18, 4
  13              		.file	"swdptap.c"
  14              		.text
  15              	.Ltext0:
  16              		.cfi_sections	.debug_frame
  17              		.section	.text.swdptap_turnaround,"ax",%progbits
  18              		.align	1
  19              		.p2align 4,,15
  20              		.syntax unified
  21              		.thumb
  22              		.thumb_func
  23              		.fpu fpv4-sp-d16
  24              		.type	swdptap_turnaround, %function
  25              	swdptap_turnaround:
  26              	.LFB260:
  27              		.file 1 "blackmagic/swdptap.c"
  28              		.loc 1 37 0
  29              		.cfi_startproc
  30              		@ args = 0, pretend = 0, frame = 0
  31              		@ frame_needed = 0, uses_anonymous_args = 0
  32              	.LVL0:
  33              		.loc 1 41 0
  34 0000 1C4B     		ldr	r3, .L10
  35 0002 1A68     		ldr	r2, [r3]
  36 0004 8242     		cmp	r2, r0
  37 0006 33D0     		beq	.L5
  38 0008 1B49     		ldr	r1, .L10+4
  39 000a 1C4A     		ldr	r2, .L10+8
  40 000c 0968     		ldr	r1, [r1]
  41              		.loc 1 37 0
  42 000e 70B5     		push	{r4, r5, r6, lr}
  43              		.cfi_def_cfa_offset 16
  44              		.cfi_offset 4, -16
  45              		.cfi_offset 5, -12
  46              		.cfi_offset 6, -8
  47              		.cfi_offset 14, -4
  48 0010 0124     		movs	r4, #1
  49              		.loc 1 42 0
  50 0012 1860     		str	r0, [r3]
  51 0014 04FA01F1 		lsl	r1, r4, r1
  52 0018 1668     		ldr	r6, [r2]
  53              		.loc 1 48 0
  54 001a A8B1     		cbz	r0, .L9
  55              		.loc 1 50 0
  56 001c 184B     		ldr	r3, .L10+12
  57 001e 194A     		ldr	r2, .L10+16
ARM GAS  C:\Users\CFAR\AppData\Local\Temp\ccUaT5pA.s 			page 2


  58 0020 1B68     		ldr	r3, [r3]
  59 0022 1568     		ldr	r5, [r2]
  60 0024 04FA03F3 		lsl	r3, r4, r3
  61 0028 9BB2     		uxth	r3, r3
  62 002a 2B83     		strh	r3, [r5, #24]	@ movhi
  63              	.LBB4:
  64              	.LBB5:
  65              		.loc 1 54 0
  66 002c 3046     		mov	r0, r6
  67              	.LVL1:
  68              	.LBE5:
  69              	.LBE4:
  70              		.loc 1 50 0
  71 002e 2B83     		strh	r3, [r5, #24]	@ movhi
  72              	.LBB8:
  73              	.LBB6:
  74              		.loc 1 54 0
  75 0030 1922     		movs	r2, #25
  76              	.LBE6:
  77              	.LBE8:
  78              		.loc 1 50 0
  79 0032 2B83     		strh	r3, [r5, #24]	@ movhi
  80              		.loc 1 51 0
  81 0034 2B83     		strh	r3, [r5, #24]	@ movhi
  82 0036 2B83     		strh	r3, [r5, #24]	@ movhi
  83 0038 2B83     		strh	r3, [r5, #24]	@ movhi
  84              		.loc 1 52 0
  85 003a 6B83     		strh	r3, [r5, #26]	@ movhi
  86 003c 6B83     		strh	r3, [r5, #26]	@ movhi
  87 003e 6B83     		strh	r3, [r5, #26]	@ movhi
  88              	.LVL2:
  89              		.loc 1 55 0
  90 0040 BDE87040 		pop	{r4, r5, r6, lr}
  91              		.cfi_remember_state
  92              		.cfi_restore 14
  93              		.cfi_restore 6
  94              		.cfi_restore 5
  95              		.cfi_restore 4
  96              		.cfi_def_cfa_offset 0
  97              	.LBB9:
  98              	.LBB7:
  99              		.loc 1 54 0
 100 0044 FFF7FEBF 		b	_pal_lld_setgroupmode
 101              	.LVL3:
 102              	.L9:
 103              		.cfi_restore_state
 104 0048 0246     		mov	r2, r0
 105              	.LBE7:
 106              	.LBE9:
 107              		.loc 1 49 0
 108 004a 3046     		mov	r0, r6
 109              	.LVL4:
 110 004c FFF7FEFF 		bl	_pal_lld_setgroupmode
 111              	.LVL5:
 112              		.loc 1 50 0
 113 0050 0B4B     		ldr	r3, .L10+12
 114 0052 0C4A     		ldr	r2, .L10+16
ARM GAS  C:\Users\CFAR\AppData\Local\Temp\ccUaT5pA.s 			page 3


 115 0054 1B68     		ldr	r3, [r3]
 116 0056 1268     		ldr	r2, [r2]
 117 0058 9C40     		lsls	r4, r4, r3
 118 005a A4B2     		uxth	r4, r4
 119 005c 1483     		strh	r4, [r2, #24]	@ movhi
 120 005e 1483     		strh	r4, [r2, #24]	@ movhi
 121 0060 1483     		strh	r4, [r2, #24]	@ movhi
 122              		.loc 1 51 0
 123 0062 1483     		strh	r4, [r2, #24]	@ movhi
 124 0064 1483     		strh	r4, [r2, #24]	@ movhi
 125 0066 1483     		strh	r4, [r2, #24]	@ movhi
 126              		.loc 1 52 0
 127 0068 5483     		strh	r4, [r2, #26]	@ movhi
 128 006a 5483     		strh	r4, [r2, #26]	@ movhi
 129 006c 5483     		strh	r4, [r2, #26]	@ movhi
 130              		.loc 1 55 0
 131 006e 70BD     		pop	{r4, r5, r6, pc}
 132              	.LVL6:
 133              	.L5:
 134              		.cfi_def_cfa_offset 0
 135              		.cfi_restore 4
 136              		.cfi_restore 5
 137              		.cfi_restore 6
 138              		.cfi_restore 14
 139 0070 7047     		bx	lr
 140              	.L11:
 141 0072 00BF     		.align	2
 142              	.L10:
 143 0074 00000000 		.word	.LANCHOR0
 144 0078 00000000 		.word	platform_swdio_pin
 145 007c 00000000 		.word	platform_swdio_port
 146 0080 00000000 		.word	platform_swclk_pin
 147 0084 00000000 		.word	platform_swclk_port
 148              		.cfi_endproc
 149              	.LFE260:
 150              		.size	swdptap_turnaround, .-swdptap_turnaround
 151              		.section	.text.swdptap_init,"ax",%progbits
 152              		.align	1
 153              		.p2align 4,,15
 154              		.global	swdptap_init
 155              		.syntax unified
 156              		.thumb
 157              		.thumb_func
 158              		.fpu fpv4-sp-d16
 159              		.type	swdptap_init, %function
 160              	swdptap_init:
 161              	.LFB259:
 162              		.loc 1 32 0
 163              		.cfi_startproc
 164              		@ args = 0, pretend = 0, frame = 0
 165              		@ frame_needed = 0, uses_anonymous_args = 0
 166              		@ link register save eliminated.
 167              		.loc 1 34 0
 168 0000 0020     		movs	r0, #0
 169 0002 7047     		bx	lr
 170              		.cfi_endproc
 171              	.LFE259:
ARM GAS  C:\Users\CFAR\AppData\Local\Temp\ccUaT5pA.s 			page 4


 172              		.size	swdptap_init, .-swdptap_init
 173              		.section	.text.swdptap_bit_in,"ax",%progbits
 174              		.align	1
 175              		.p2align 4,,15
 176              		.global	swdptap_bit_in
 177              		.syntax unified
 178              		.thumb
 179              		.thumb_func
 180              		.fpu fpv4-sp-d16
 181              		.type	swdptap_bit_in, %function
 182              	swdptap_bit_in:
 183              	.LFB261:
 184              		.loc 1 58 0
 185              		.cfi_startproc
 186              		@ args = 0, pretend = 0, frame = 0
 187              		@ frame_needed = 0, uses_anonymous_args = 0
 188 0000 10B5     		push	{r4, lr}
 189              		.cfi_def_cfa_offset 8
 190              		.cfi_offset 4, -8
 191              		.cfi_offset 14, -4
 192              		.loc 1 61 0
 193 0002 0020     		movs	r0, #0
 194 0004 FFF7FEFF 		bl	swdptap_turnaround
 195              	.LVL7:
 196              		.loc 1 63 0
 197 0008 0C4A     		ldr	r2, .L15
 198              		.loc 1 64 0
 199 000a 0D4B     		ldr	r3, .L15+4
 200              		.loc 1 63 0
 201 000c 1168     		ldr	r1, [r2]
 202              		.loc 1 64 0
 203 000e 1C68     		ldr	r4, [r3]
 204              		.loc 1 63 0
 205 0010 0C4A     		ldr	r2, .L15+8
 206              		.loc 1 64 0
 207 0012 0D4B     		ldr	r3, .L15+12
 208              		.loc 1 63 0
 209 0014 0869     		ldr	r0, [r1, #16]
 210 0016 1168     		ldr	r1, [r2]
 211              		.loc 1 64 0
 212 0018 1A68     		ldr	r2, [r3]
 213 001a 0123     		movs	r3, #1
 214 001c A340     		lsls	r3, r3, r4
 215 001e 9BB2     		uxth	r3, r3
 216              		.loc 1 63 0
 217 0020 C840     		lsrs	r0, r0, r1
 218              	.LVL8:
 219              		.loc 1 64 0
 220 0022 1383     		strh	r3, [r2, #24]	@ movhi
 221              		.loc 1 73 0
 222 0024 00F00100 		and	r0, r0, #1
 223              	.LVL9:
 224              		.loc 1 64 0
 225 0028 1383     		strh	r3, [r2, #24]	@ movhi
 226 002a 1383     		strh	r3, [r2, #24]	@ movhi
 227              		.loc 1 65 0
 228 002c 1383     		strh	r3, [r2, #24]	@ movhi
ARM GAS  C:\Users\CFAR\AppData\Local\Temp\ccUaT5pA.s 			page 5


 229 002e 1383     		strh	r3, [r2, #24]	@ movhi
 230 0030 1383     		strh	r3, [r2, #24]	@ movhi
 231              		.loc 1 66 0
 232 0032 5383     		strh	r3, [r2, #26]	@ movhi
 233 0034 5383     		strh	r3, [r2, #26]	@ movhi
 234 0036 5383     		strh	r3, [r2, #26]	@ movhi
 235              		.loc 1 73 0
 236 0038 10BD     		pop	{r4, pc}
 237              	.L16:
 238 003a 00BF     		.align	2
 239              	.L15:
 240 003c 00000000 		.word	platform_swdio_port
 241 0040 00000000 		.word	platform_swclk_pin
 242 0044 00000000 		.word	platform_swdio_pin
 243 0048 00000000 		.word	platform_swclk_port
 244              		.cfi_endproc
 245              	.LFE261:
 246              		.size	swdptap_bit_in, .-swdptap_bit_in
 247              		.section	.text.swdptap_seq_in,"ax",%progbits
 248              		.align	1
 249              		.p2align 4,,15
 250              		.global	swdptap_seq_in
 251              		.syntax unified
 252              		.thumb
 253              		.thumb_func
 254              		.fpu fpv4-sp-d16
 255              		.type	swdptap_seq_in, %function
 256              	swdptap_seq_in:
 257              	.LFB262:
 258              		.loc 1 77 0
 259              		.cfi_startproc
 260              		@ args = 0, pretend = 0, frame = 0
 261              		@ frame_needed = 0, uses_anonymous_args = 0
 262              	.LVL10:
 263 0000 F8B5     		push	{r3, r4, r5, r6, r7, lr}
 264              		.cfi_def_cfa_offset 24
 265              		.cfi_offset 3, -24
 266              		.cfi_offset 4, -20
 267              		.cfi_offset 5, -16
 268              		.cfi_offset 6, -12
 269              		.cfi_offset 7, -8
 270              		.cfi_offset 14, -4
 271              		.loc 1 77 0
 272 0002 0546     		mov	r5, r0
 273              	.LVL11:
 274              		.loc 1 82 0
 275 0004 0020     		movs	r0, #0
 276              	.LVL12:
 277 0006 FFF7FEFF 		bl	swdptap_turnaround
 278              	.LVL13:
 279              		.loc 1 83 0
 280 000a 05B3     		cbz	r5, .L21
 281              	.LBB10:
 282              		.loc 1 86 0
 283 000c 114B     		ldr	r3, .L27
 284              		.loc 1 85 0
 285 000e 1248     		ldr	r0, .L27+4
ARM GAS  C:\Users\CFAR\AppData\Local\Temp\ccUaT5pA.s 			page 6


 286 0010 1249     		ldr	r1, .L27+8
 287              		.loc 1 86 0
 288 0012 1B68     		ldr	r3, [r3]
 289 0014 124A     		ldr	r2, .L27+12
 290 0016 0668     		ldr	r6, [r0]
 291              		.loc 1 85 0
 292 0018 0F68     		ldr	r7, [r1]
 293              		.loc 1 86 0
 294 001a 1268     		ldr	r2, [r2]
 295 001c 0121     		movs	r1, #1
 296 001e 01FA03F3 		lsl	r3, r1, r3
 297 0022 6C1E     		subs	r4, r5, #1
 298              	.LVL14:
 299 0024 9BB2     		uxth	r3, r3
 300 0026 01FA06F6 		lsl	r6, r1, r6
 301              	.LBE10:
 302              		.loc 1 79 0
 303 002a 0020     		movs	r0, #0
 304              	.LVL15:
 305              	.L20:
 306              	.LBB11:
 307              		.loc 1 85 0
 308 002c 3D69     		ldr	r5, [r7, #16]
 309              	.LVL16:
 310              		.loc 1 86 0
 311 002e 1383     		strh	r3, [r2, #24]	@ movhi
 312              		.loc 1 87 0
 313 0030 3542     		tst	r5, r6
 314              	.LBE11:
 315              		.loc 1 83 0
 316 0032 04F1FF34 		add	r4, r4, #-1
 317              	.LVL17:
 318              	.LBB12:
 319              		.loc 1 88 0
 320 0036 18BF     		it	ne
 321 0038 0843     		orrne	r0, r0, r1
 322              	.LVL18:
 323              	.LBE12:
 324              		.loc 1 83 0
 325 003a 651C     		adds	r5, r4, #1
 326              	.LVL19:
 327              	.LBB13:
 328              		.loc 1 86 0
 329 003c 1383     		strh	r3, [r2, #24]	@ movhi
 330              		.loc 1 89 0
 331 003e 4FEA4101 		lsl	r1, r1, #1
 332              	.LVL20:
 333              		.loc 1 86 0
 334 0042 1383     		strh	r3, [r2, #24]	@ movhi
 335              		.loc 1 90 0
 336 0044 5383     		strh	r3, [r2, #26]	@ movhi
 337 0046 5383     		strh	r3, [r2, #26]	@ movhi
 338 0048 5383     		strh	r3, [r2, #26]	@ movhi
 339              	.LVL21:
 340              	.LBE13:
 341              		.loc 1 83 0
 342 004a EFD1     		bne	.L20
ARM GAS  C:\Users\CFAR\AppData\Local\Temp\ccUaT5pA.s 			page 7


 343              		.loc 1 98 0
 344 004c F8BD     		pop	{r3, r4, r5, r6, r7, pc}
 345              	.LVL22:
 346              	.L21:
 347              		.loc 1 79 0
 348 004e 2846     		mov	r0, r5
 349              		.loc 1 98 0
 350 0050 F8BD     		pop	{r3, r4, r5, r6, r7, pc}
 351              	.LVL23:
 352              	.L28:
 353 0052 00BF     		.align	2
 354              	.L27:
 355 0054 00000000 		.word	platform_swclk_pin
 356 0058 00000000 		.word	platform_swdio_pin
 357 005c 00000000 		.word	platform_swdio_port
 358 0060 00000000 		.word	platform_swclk_port
 359              		.cfi_endproc
 360              	.LFE262:
 361              		.size	swdptap_seq_in, .-swdptap_seq_in
 362              		.section	.text.swdptap_seq_in_parity,"ax",%progbits
 363              		.align	1
 364              		.p2align 4,,15
 365              		.global	swdptap_seq_in_parity
 366              		.syntax unified
 367              		.thumb
 368              		.thumb_func
 369              		.fpu fpv4-sp-d16
 370              		.type	swdptap_seq_in_parity, %function
 371              	swdptap_seq_in_parity:
 372              	.LFB263:
 373              		.loc 1 102 0
 374              		.cfi_startproc
 375              		@ args = 0, pretend = 0, frame = 0
 376              		@ frame_needed = 0, uses_anonymous_args = 0
 377              	.LVL24:
 378 0000 2DE9F041 		push	{r4, r5, r6, r7, r8, lr}
 379              		.cfi_def_cfa_offset 24
 380              		.cfi_offset 4, -24
 381              		.cfi_offset 5, -20
 382              		.cfi_offset 6, -16
 383              		.cfi_offset 7, -12
 384              		.cfi_offset 8, -8
 385              		.cfi_offset 14, -4
 386              		.loc 1 102 0
 387 0004 8046     		mov	r8, r0
 388 0006 0C46     		mov	r4, r1
 389              	.LVL25:
 390              		.loc 1 109 0
 391 0008 0020     		movs	r0, #0
 392              	.LVL26:
 393 000a FFF7FEFF 		bl	swdptap_turnaround
 394              	.LVL27:
 395              		.loc 1 110 0
 396 000e 002C     		cmp	r4, #0
 397 0010 37D0     		beq	.L30
 398              		.loc 1 112 0
 399 0012 234B     		ldr	r3, .L43
ARM GAS  C:\Users\CFAR\AppData\Local\Temp\ccUaT5pA.s 			page 8


 400              		.loc 1 111 0
 401 0014 2348     		ldr	r0, .L43+4
 402 0016 2449     		ldr	r1, .L43+8
 403              		.loc 1 112 0
 404 0018 1B68     		ldr	r3, [r3]
 405 001a 244A     		ldr	r2, .L43+12
 406              		.loc 1 111 0
 407 001c D0F800E0 		ldr	lr, [r0]
 408 0020 0F68     		ldr	r7, [r1]
 409              		.loc 1 112 0
 410 0022 1268     		ldr	r2, [r2]
 411 0024 651E     		subs	r5, r4, #1
 412              	.LVL28:
 413 0026 0124     		movs	r4, #1
 414              	.LVL29:
 415 0028 04FA03F3 		lsl	r3, r4, r3
 416              		.loc 1 105 0
 417 002c 0021     		movs	r1, #0
 418              		.loc 1 112 0
 419 002e 9BB2     		uxth	r3, r3
 420 0030 04FA0EFC 		lsl	ip, r4, lr
 421              		.loc 1 104 0
 422 0034 0846     		mov	r0, r1
 423              	.LVL30:
 424              	.L32:
 425              		.loc 1 111 0
 426 0036 3E69     		ldr	r6, [r7, #16]
 427              	.LVL31:
 428              		.loc 1 112 0
 429 0038 1383     		strh	r3, [r2, #24]	@ movhi
 430              		.loc 1 113 0
 431 003a 16EA0C0F 		tst	r6, ip
 432              		.loc 1 110 0
 433 003e 05F1FF35 		add	r5, r5, #-1
 434              	.LVL32:
 435              		.loc 1 114 0
 436 0042 1CBF     		itt	ne
 437 0044 2143     		orrne	r1, r1, r4
 438              	.LVL33:
 439              		.loc 1 115 0
 440 0046 80F00100 		eorne	r0, r0, #1
 441              	.LVL34:
 442              		.loc 1 110 0
 443 004a 6E1C     		adds	r6, r5, #1
 444              		.loc 1 112 0
 445 004c 1383     		strh	r3, [r2, #24]	@ movhi
 446              		.loc 1 117 0
 447 004e 4FEA4404 		lsl	r4, r4, #1
 448              	.LVL35:
 449              		.loc 1 112 0
 450 0052 1383     		strh	r3, [r2, #24]	@ movhi
 451              		.loc 1 118 0
 452 0054 5383     		strh	r3, [r2, #26]	@ movhi
 453 0056 5383     		strh	r3, [r2, #26]	@ movhi
 454 0058 5383     		strh	r3, [r2, #26]	@ movhi
 455              	.LVL36:
 456              		.loc 1 110 0
ARM GAS  C:\Users\CFAR\AppData\Local\Temp\ccUaT5pA.s 			page 9


 457 005a ECD1     		bne	.L32
 458              	.LVL37:
 459              	.L33:
 460              		.loc 1 120 0
 461 005c 3C69     		ldr	r4, [r7, #16]
 462              	.LVL38:
 463              		.loc 1 121 0
 464 005e 1383     		strh	r3, [r2, #24]	@ movhi
 465              		.loc 1 120 0
 466 0060 24FA0EF4 		lsr	r4, r4, lr
 467              	.LVL39:
 468              		.loc 1 122 0
 469 0064 E407     		lsls	r4, r4, #31
 470              		.loc 1 123 0
 471 0066 48BF     		it	mi
 472 0068 80F00100 		eormi	r0, r0, #1
 473              	.LVL40:
 474              		.loc 1 121 0
 475 006c 1383     		strh	r3, [r2, #24]	@ movhi
 476              		.loc 1 131 0
 477 006e 00F00100 		and	r0, r0, #1
 478              	.LVL41:
 479              		.loc 1 121 0
 480 0072 1383     		strh	r3, [r2, #24]	@ movhi
 481              		.loc 1 124 0
 482 0074 5383     		strh	r3, [r2, #26]	@ movhi
 483 0076 5383     		strh	r3, [r2, #26]	@ movhi
 484 0078 5383     		strh	r3, [r2, #26]	@ movhi
 485              		.loc 1 129 0
 486 007a C8F80010 		str	r1, [r8]
 487              		.loc 1 131 0
 488 007e BDE8F081 		pop	{r4, r5, r6, r7, r8, pc}
 489              	.LVL42:
 490              	.L30:
 491 0082 074B     		ldr	r3, .L43
 492 0084 074A     		ldr	r2, .L43+4
 493 0086 1868     		ldr	r0, [r3]
 494 0088 084B     		ldr	r3, .L43+12
 495 008a 0749     		ldr	r1, .L43+8
 496 008c D2F800E0 		ldr	lr, [r2]
 497 0090 1A68     		ldr	r2, [r3]
 498 0092 0F68     		ldr	r7, [r1]
 499 0094 0123     		movs	r3, #1
 500 0096 8340     		lsls	r3, r3, r0
 501              		.loc 1 105 0
 502 0098 2146     		mov	r1, r4
 503 009a 9BB2     		uxth	r3, r3
 504              		.loc 1 104 0
 505 009c 2046     		mov	r0, r4
 506 009e DDE7     		b	.L33
 507              	.L44:
 508              		.align	2
 509              	.L43:
 510 00a0 00000000 		.word	platform_swclk_pin
 511 00a4 00000000 		.word	platform_swdio_pin
 512 00a8 00000000 		.word	platform_swdio_port
 513 00ac 00000000 		.word	platform_swclk_port
ARM GAS  C:\Users\CFAR\AppData\Local\Temp\ccUaT5pA.s 			page 10


 514              		.cfi_endproc
 515              	.LFE263:
 516              		.size	swdptap_seq_in_parity, .-swdptap_seq_in_parity
 517              		.section	.text.swdptap_bit_out,"ax",%progbits
 518              		.align	1
 519              		.p2align 4,,15
 520              		.global	swdptap_bit_out
 521              		.syntax unified
 522              		.thumb
 523              		.thumb_func
 524              		.fpu fpv4-sp-d16
 525              		.type	swdptap_bit_out, %function
 526              	swdptap_bit_out:
 527              	.LFB264:
 528              		.loc 1 134 0
 529              		.cfi_startproc
 530              		@ args = 0, pretend = 0, frame = 0
 531              		@ frame_needed = 0, uses_anonymous_args = 0
 532              	.LVL43:
 533 0000 70B5     		push	{r4, r5, r6, lr}
 534              		.cfi_def_cfa_offset 16
 535              		.cfi_offset 4, -16
 536              		.cfi_offset 5, -12
 537              		.cfi_offset 6, -8
 538              		.cfi_offset 14, -4
 539              		.loc 1 134 0
 540 0002 0446     		mov	r4, r0
 541              		.loc 1 139 0
 542 0004 0120     		movs	r0, #1
 543              	.LVL44:
 544 0006 FFF7FEFF 		bl	swdptap_turnaround
 545              	.LVL45:
 546              		.loc 1 141 0
 547 000a 114A     		ldr	r2, .L47
 548              		.loc 1 142 0
 549 000c 114B     		ldr	r3, .L47+4
 550              		.loc 1 141 0
 551 000e 1168     		ldr	r1, [r2]
 552              		.loc 1 142 0
 553 0010 1E68     		ldr	r6, [r3]
 554              		.loc 1 141 0
 555 0012 114A     		ldr	r2, .L47+8
 556              		.loc 1 142 0
 557 0014 114B     		ldr	r3, .L47+12
 558              		.loc 1 141 0
 559 0016 1568     		ldr	r5, [r2]
 560              		.loc 1 142 0
 561 0018 1A68     		ldr	r2, [r3]
 562              		.loc 1 141 0
 563 001a 84F00100 		eor	r0, r4, #1
 564 001e 01F11003 		add	r3, r1, #16
 565 0022 9840     		lsls	r0, r0, r3
 566              		.loc 1 142 0
 567 0024 0123     		movs	r3, #1
 568              		.loc 1 141 0
 569 0026 04FA01F1 		lsl	r1, r4, r1
 570              		.loc 1 142 0
ARM GAS  C:\Users\CFAR\AppData\Local\Temp\ccUaT5pA.s 			page 11


 571 002a B340     		lsls	r3, r3, r6
 572 002c 9BB2     		uxth	r3, r3
 573              		.loc 1 141 0
 574 002e 0843     		orrs	r0, r0, r1
 575 0030 A861     		str	r0, [r5, #24]
 576 0032 A861     		str	r0, [r5, #24]
 577 0034 A861     		str	r0, [r5, #24]
 578              		.loc 1 142 0
 579 0036 5383     		strh	r3, [r2, #26]	@ movhi
 580 0038 5383     		strh	r3, [r2, #26]	@ movhi
 581 003a 5383     		strh	r3, [r2, #26]	@ movhi
 582              		.loc 1 143 0
 583 003c 1383     		strh	r3, [r2, #24]	@ movhi
 584 003e 1383     		strh	r3, [r2, #24]	@ movhi
 585 0040 1383     		strh	r3, [r2, #24]	@ movhi
 586              		.loc 1 144 0
 587 0042 1383     		strh	r3, [r2, #24]	@ movhi
 588 0044 1383     		strh	r3, [r2, #24]	@ movhi
 589 0046 1383     		strh	r3, [r2, #24]	@ movhi
 590              		.loc 1 145 0
 591 0048 5383     		strh	r3, [r2, #26]	@ movhi
 592 004a 5383     		strh	r3, [r2, #26]	@ movhi
 593 004c 5383     		strh	r3, [r2, #26]	@ movhi
 594              		.loc 1 146 0
 595 004e 70BD     		pop	{r4, r5, r6, pc}
 596              	.L48:
 597              		.align	2
 598              	.L47:
 599 0050 00000000 		.word	platform_swdio_pin
 600 0054 00000000 		.word	platform_swclk_pin
 601 0058 00000000 		.word	platform_swdio_port
 602 005c 00000000 		.word	platform_swclk_port
 603              		.cfi_endproc
 604              	.LFE264:
 605              		.size	swdptap_bit_out, .-swdptap_bit_out
 606              		.section	.text.swdptap_seq_out,"ax",%progbits
 607              		.align	1
 608              		.p2align 4,,15
 609              		.global	swdptap_seq_out
 610              		.syntax unified
 611              		.thumb
 612              		.thumb_func
 613              		.fpu fpv4-sp-d16
 614              		.type	swdptap_seq_out, %function
 615              	swdptap_seq_out:
 616              	.LFB265:
 617              		.loc 1 149 0
 618              		.cfi_startproc
 619              		@ args = 0, pretend = 0, frame = 0
 620              		@ frame_needed = 0, uses_anonymous_args = 0
 621              	.LVL46:
 622 0000 F8B5     		push	{r3, r4, r5, r6, r7, lr}
 623              		.cfi_def_cfa_offset 24
 624              		.cfi_offset 3, -24
 625              		.cfi_offset 4, -20
 626              		.cfi_offset 5, -16
 627              		.cfi_offset 6, -12
ARM GAS  C:\Users\CFAR\AppData\Local\Temp\ccUaT5pA.s 			page 12


 628              		.cfi_offset 7, -8
 629              		.cfi_offset 14, -4
 630              		.loc 1 149 0
 631 0002 0446     		mov	r4, r0
 632 0004 0D46     		mov	r5, r1
 633              		.loc 1 155 0
 634 0006 0120     		movs	r0, #1
 635              	.LVL47:
 636 0008 FFF7FEFF 		bl	swdptap_turnaround
 637              	.LVL48:
 638              		.loc 1 156 0
 639 000c 3DB3     		cbz	r5, .L49
 640              		.loc 1 160 0
 641 000e 144B     		ldr	r3, .L57
 642              		.loc 1 157 0
 643 0010 144A     		ldr	r2, .L57+4
 644              		.loc 1 160 0
 645 0012 1968     		ldr	r1, [r3]
 646 0014 144B     		ldr	r3, .L57+8
 647 0016 6E1E     		subs	r6, r5, #1
 648              	.LVL49:
 649              		.loc 1 157 0
 650 0018 144D     		ldr	r5, .L57+12
 651 001a 2F68     		ldr	r7, [r5]
 652 001c 1568     		ldr	r5, [r2]
 653              		.loc 1 160 0
 654 001e 1A68     		ldr	r2, [r3]
 655 0020 0123     		movs	r3, #1
 656 0022 8B40     		lsls	r3, r3, r1
 657 0024 04F00100 		and	r0, r4, #1
 658              	.LVL50:
 659 0028 9BB2     		uxth	r3, r3
 660              		.loc 1 157 0
 661 002a 07F1100C 		add	ip, r7, #16
 662              	.LVL51:
 663              	.L51:
 664 002e 80F00101 		eor	r1, r0, #1
 665 0032 01FA0CF1 		lsl	r1, r1, ip
 666 0036 B840     		lsls	r0, r0, r7
 667              	.LVL52:
 668 0038 0143     		orrs	r1, r1, r0
 669              		.loc 1 156 0
 670 003a 013E     		subs	r6, r6, #1
 671              	.LVL53:
 672              		.loc 1 157 0
 673 003c A961     		str	r1, [r5, #24]
 674              		.loc 1 158 0
 675 003e 6408     		lsrs	r4, r4, #1
 676              	.LVL54:
 677              		.loc 1 157 0
 678 0040 A961     		str	r1, [r5, #24]
 679 0042 A961     		str	r1, [r5, #24]
 680              		.loc 1 156 0
 681 0044 711C     		adds	r1, r6, #1
 682              		.loc 1 160 0
 683 0046 1383     		strh	r3, [r2, #24]	@ movhi
 684              		.loc 1 159 0
ARM GAS  C:\Users\CFAR\AppData\Local\Temp\ccUaT5pA.s 			page 13


 685 0048 04F00100 		and	r0, r4, #1
 686              	.LVL55:
 687              		.loc 1 160 0
 688 004c 1383     		strh	r3, [r2, #24]	@ movhi
 689 004e 1383     		strh	r3, [r2, #24]	@ movhi
 690              		.loc 1 161 0
 691 0050 1383     		strh	r3, [r2, #24]	@ movhi
 692 0052 1383     		strh	r3, [r2, #24]	@ movhi
 693 0054 1383     		strh	r3, [r2, #24]	@ movhi
 694              		.loc 1 162 0
 695 0056 5383     		strh	r3, [r2, #26]	@ movhi
 696 0058 5383     		strh	r3, [r2, #26]	@ movhi
 697 005a 5383     		strh	r3, [r2, #26]	@ movhi
 698              	.LVL56:
 699              		.loc 1 156 0
 700 005c E7D1     		bne	.L51
 701              	.LVL57:
 702              	.L49:
 703              		.loc 1 164 0
 704 005e F8BD     		pop	{r3, r4, r5, r6, r7, pc}
 705              	.LVL58:
 706              	.L58:
 707              		.align	2
 708              	.L57:
 709 0060 00000000 		.word	platform_swclk_pin
 710 0064 00000000 		.word	platform_swdio_port
 711 0068 00000000 		.word	platform_swclk_port
 712 006c 00000000 		.word	platform_swdio_pin
 713              		.cfi_endproc
 714              	.LFE265:
 715              		.size	swdptap_seq_out, .-swdptap_seq_out
 716              		.section	.text.swdptap_seq_out_parity,"ax",%progbits
 717              		.align	1
 718              		.p2align 4,,15
 719              		.global	swdptap_seq_out_parity
 720              		.syntax unified
 721              		.thumb
 722              		.thumb_func
 723              		.fpu fpv4-sp-d16
 724              		.type	swdptap_seq_out_parity, %function
 725              	swdptap_seq_out_parity:
 726              	.LFB266:
 727              		.loc 1 168 0
 728              		.cfi_startproc
 729              		@ args = 0, pretend = 0, frame = 0
 730              		@ frame_needed = 0, uses_anonymous_args = 0
 731              	.LVL59:
 732 0000 2DE9F041 		push	{r4, r5, r6, r7, r8, lr}
 733              		.cfi_def_cfa_offset 24
 734              		.cfi_offset 4, -24
 735              		.cfi_offset 5, -20
 736              		.cfi_offset 6, -16
 737              		.cfi_offset 7, -12
 738              		.cfi_offset 8, -8
 739              		.cfi_offset 14, -4
 740              		.loc 1 168 0
 741 0004 0646     		mov	r6, r0
ARM GAS  C:\Users\CFAR\AppData\Local\Temp\ccUaT5pA.s 			page 14


 742 0006 0C46     		mov	r4, r1
 743              		.loc 1 175 0
 744 0008 0120     		movs	r0, #1
 745              	.LVL60:
 746 000a FFF7FEFF 		bl	swdptap_turnaround
 747              	.LVL61:
 748              		.loc 1 177 0
 749 000e 002C     		cmp	r4, #0
 750 0010 49D0     		beq	.L60
 751              		.loc 1 181 0
 752 0012 2D4B     		ldr	r3, .L65
 753              		.loc 1 178 0
 754 0014 2D48     		ldr	r0, .L65+4
 755              		.loc 1 181 0
 756 0016 1968     		ldr	r1, [r3]
 757              		.loc 1 178 0
 758 0018 2D4A     		ldr	r2, .L65+8
 759              		.loc 1 181 0
 760 001a 2E4B     		ldr	r3, .L65+12
 761              		.loc 1 178 0
 762 001c D0F80080 		ldr	r8, [r0]
 763 0020 1768     		ldr	r7, [r2]
 764              		.loc 1 181 0
 765 0022 1A68     		ldr	r2, [r3]
 766 0024 0123     		movs	r3, #1
 767 0026 8B40     		lsls	r3, r3, r1
 768 0028 06F00105 		and	r5, r6, #1
 769              	.LVL62:
 770 002c 04F1FF3C 		add	ip, r4, #-1
 771              	.LVL63:
 772 0030 9BB2     		uxth	r3, r3
 773              		.loc 1 178 0
 774 0032 08F1100E 		add	lr, r8, #16
 775              		.loc 1 169 0
 776 0036 0020     		movs	r0, #0
 777              	.LVL64:
 778              	.L61:
 779              		.loc 1 178 0
 780 0038 85F00101 		eor	r1, r5, #1
 781 003c 01FA0EF1 		lsl	r1, r1, lr
 782 0040 05FA08F5 		lsl	r5, r5, r8
 783              	.LVL65:
 784              		.loc 1 177 0
 785 0044 0CF1FF3C 		add	ip, ip, #-1
 786              	.LVL66:
 787              		.loc 1 178 0
 788 0048 2943     		orrs	r1, r1, r5
 789              		.loc 1 179 0
 790 004a 7040     		eors	r0, r0, r6
 791              	.LVL67:
 792              		.loc 1 177 0
 793 004c BCF1FF3F 		cmp	ip, #-1
 794              		.loc 1 180 0
 795 0050 4FEA5606 		lsr	r6, r6, #1
 796              	.LVL68:
 797              		.loc 1 178 0
 798 0054 B961     		str	r1, [r7, #24]
ARM GAS  C:\Users\CFAR\AppData\Local\Temp\ccUaT5pA.s 			page 15


 799              		.loc 1 179 0
 800 0056 C0B2     		uxtb	r0, r0
 801              	.LVL69:
 802              		.loc 1 178 0
 803 0058 B961     		str	r1, [r7, #24]
 804              		.loc 1 182 0
 805 005a 06F00105 		and	r5, r6, #1
 806              	.LVL70:
 807              		.loc 1 178 0
 808 005e B961     		str	r1, [r7, #24]
 809              		.loc 1 181 0
 810 0060 1383     		strh	r3, [r2, #24]	@ movhi
 811 0062 1383     		strh	r3, [r2, #24]	@ movhi
 812 0064 1383     		strh	r3, [r2, #24]	@ movhi
 813              		.loc 1 183 0
 814 0066 5383     		strh	r3, [r2, #26]	@ movhi
 815 0068 5383     		strh	r3, [r2, #26]	@ movhi
 816 006a 5383     		strh	r3, [r2, #26]	@ movhi
 817              	.LVL71:
 818              		.loc 1 177 0
 819 006c E4D1     		bne	.L61
 820 006e C143     		mvns	r1, r0
 821 0070 00F00104 		and	r4, r0, #1
 822 0074 01F00101 		and	r1, r1, #1
 823 0078 04FA08F4 		lsl	r4, r4, r8
 824              	.LVL72:
 825              	.L62:
 826              		.loc 1 185 0
 827 007c 01FA0EFE 		lsl	lr, r1, lr
 828 0080 4EEA0404 		orr	r4, lr, r4
 829 0084 BC61     		str	r4, [r7, #24]
 830 0086 BC61     		str	r4, [r7, #24]
 831 0088 BC61     		str	r4, [r7, #24]
 832              		.loc 1 186 0
 833 008a 5383     		strh	r3, [r2, #26]	@ movhi
 834 008c 5383     		strh	r3, [r2, #26]	@ movhi
 835 008e 5383     		strh	r3, [r2, #26]	@ movhi
 836              		.loc 1 187 0
 837 0090 1383     		strh	r3, [r2, #24]	@ movhi
 838 0092 1383     		strh	r3, [r2, #24]	@ movhi
 839 0094 1383     		strh	r3, [r2, #24]	@ movhi
 840              		.loc 1 188 0
 841 0096 1383     		strh	r3, [r2, #24]	@ movhi
 842 0098 1383     		strh	r3, [r2, #24]	@ movhi
 843 009a 1383     		strh	r3, [r2, #24]	@ movhi
 844              		.loc 1 189 0
 845 009c 5383     		strh	r3, [r2, #26]	@ movhi
 846 009e 5383     		strh	r3, [r2, #26]	@ movhi
 847 00a0 5383     		strh	r3, [r2, #26]	@ movhi
 848              		.loc 1 190 0
 849 00a2 BDE8F081 		pop	{r4, r5, r6, r7, r8, pc}
 850              	.LVL73:
 851              	.L60:
 852 00a6 084B     		ldr	r3, .L65
 853 00a8 0848     		ldr	r0, .L65+4
 854 00aa 1B68     		ldr	r3, [r3]
 855 00ac 0849     		ldr	r1, .L65+8
ARM GAS  C:\Users\CFAR\AppData\Local\Temp\ccUaT5pA.s 			page 16


 856 00ae 094A     		ldr	r2, .L65+12
 857 00b0 0068     		ldr	r0, [r0]
 858 00b2 0F68     		ldr	r7, [r1]
 859 00b4 1268     		ldr	r2, [r2]
 860 00b6 4FF0010E 		mov	lr, #1
 861 00ba 0EFA03F3 		lsl	r3, lr, r3
 862              		.loc 1 177 0
 863 00be 7146     		mov	r1, lr
 864 00c0 9BB2     		uxth	r3, r3
 865 00c2 00F1100E 		add	lr, r0, #16
 866 00c6 D9E7     		b	.L62
 867              	.L66:
 868              		.align	2
 869              	.L65:
 870 00c8 00000000 		.word	platform_swclk_pin
 871 00cc 00000000 		.word	platform_swdio_pin
 872 00d0 00000000 		.word	platform_swdio_port
 873 00d4 00000000 		.word	platform_swclk_port
 874              		.cfi_endproc
 875              	.LFE266:
 876              		.size	swdptap_seq_out_parity, .-swdptap_seq_out_parity
 877              		.section	.bss.olddir.12740,"aw",%nobits
 878              		.align	2
 879              		.set	.LANCHOR0,. + 0
 880              		.type	olddir.12740, %object
 881              		.size	olddir.12740, 4
 882              	olddir.12740:
 883 0000 00000000 		.space	4
 884              		.text
 885              	.Letext0:
 886              		.file 2 "c:\\st\\stm32cubeide_1.3.0\\stm32cubeide\\plugins\\com.st.stm32cube.ide.mcu.externaltools
 887              		.file 3 "c:\\st\\stm32cubeide_1.3.0\\stm32cubeide\\plugins\\com.st.stm32cube.ide.mcu.externaltools
 888              		.file 4 "c:\\st\\stm32cubeide_1.3.0\\stm32cubeide\\plugins\\com.st.stm32cube.ide.mcu.externaltools
 889              		.file 5 "c:\\st\\stm32cubeide_1.3.0\\stm32cubeide\\plugins\\com.st.stm32cube.ide.mcu.externaltools
 890              		.file 6 "c:\\st\\stm32cubeide_1.3.0\\stm32cubeide\\plugins\\com.st.stm32cube.ide.mcu.externaltools
 891              		.file 7 "c:\\st\\stm32cubeide_1.3.0\\stm32cubeide\\plugins\\com.st.stm32cube.ide.mcu.externaltools
 892              		.file 8 "c:\\st\\stm32cubeide_1.3.0\\stm32cubeide\\plugins\\com.st.stm32cube.ide.mcu.externaltools
 893              		.file 9 "ChibiOS_3.0.5/os/rt/ports/ARMCMx/compilers/GCC/chtypes.h"
 894              		.file 10 "ChibiOS_3.0.5/os/rt/include/chsystypes.h"
 895              		.file 11 "ChibiOS_3.0.5/os/rt/include/chschd.h"
 896              		.file 12 "ChibiOS_3.0.5/os/ext/CMSIS/include/core_cm4.h"
 897              		.file 13 "ChibiOS_3.0.5/os/ext/CMSIS/ST/system_stm32f4xx.h"
 898              		.file 14 "ChibiOS_3.0.5/os/ext/CMSIS/ST/stm32f407xx.h"
 899              		.file 15 "ChibiOS_3.0.5/os/rt/ports/ARMCMx/chcore.h"
 900              		.file 16 "ChibiOS_3.0.5/os/rt/ports/ARMCMx/chcore_v7m.h"
 901              		.file 17 "ChibiOS_3.0.5/os/rt/include/chtm.h"
 902              		.file 18 "ChibiOS_3.0.5/os/rt/include/chsem.h"
 903              		.file 19 "ChibiOS_3.0.5/os/rt/include/chmtx.h"
 904              		.file 20 "ChibiOS_3.0.5/os/rt/include/chregistry.h"
 905              		.file 21 "ChibiOS_3.0.5/os/rt/include/chevents.h"
 906              		.file 22 "ChibiOS_3.0.5/os/rt/include/chqueues.h"
 907              		.file 23 "./conf_general.h"
 908              		.file 24 "ChibiOS_3.0.5/os/hal/ports/STM32/STM32F4xx/stm32_dma.h"
 909              		.file 25 "ChibiOS_3.0.5/os/hal/ports/STM32/LLD/GPIOv2/pal_lld.h"
 910              		.file 26 "ChibiOS_3.0.5/os/hal/include/can.h"
 911              		.file 27 "ChibiOS_3.0.5/os/hal/ports/STM32/LLD/can_lld.h"
 912              		.file 28 "ChibiOS_3.0.5/os/hal/include/i2c.h"
ARM GAS  C:\Users\CFAR\AppData\Local\Temp\ccUaT5pA.s 			page 17


 913              		.file 29 "ChibiOS_3.0.5/os/hal/ports/STM32/LLD/I2Cv1/i2c_lld.h"
 914              		.file 30 "ChibiOS_3.0.5/os/hal/include/icu.h"
 915              		.file 31 "ChibiOS_3.0.5/os/hal/ports/STM32/LLD/TIMv1/icu_lld.h"
 916              		.file 32 "ChibiOS_3.0.5/os/hal/ports/STM32/LLD/TIMv1/stm32_tim.h"
 917              		.file 33 "ChibiOS_3.0.5/os/hal/include/serial.h"
 918              		.file 34 "ChibiOS_3.0.5/os/hal/ports/STM32/LLD/USARTv1/serial_lld.h"
 919              		.file 35 "ChibiOS_3.0.5/os/hal/include/spi.h"
 920              		.file 36 "ChibiOS_3.0.5/os/hal/ports/STM32/LLD/SPIv1/spi_lld.h"
 921              		.file 37 "ChibiOS_3.0.5/os/hal/include/usb.h"
 922              		.file 38 "ChibiOS_3.0.5/os/hal/ports/STM32/LLD/OTGv1/usb_lld.h"
 923              		.file 39 "ChibiOS_3.0.5/os/hal/ports/STM32/LLD/OTGv1/stm32_otg.h"
 924              		.file 40 "blackmagic/platform.h"
