ARM GAS  C:\Users\CFAR\AppData\Local\Temp\cc6YrM6f.s 			page 1


   1              		.cpu cortex-m4
   2              		.eabi_attribute 27, 1
   3              		.eabi_attribute 28, 1
   4              		.eabi_attribute 20, 1
   5              		.eabi_attribute 21, 1
   6              		.eabi_attribute 23, 3
   7              		.eabi_attribute 24, 1
   8              		.eabi_attribute 25, 1
   9              		.eabi_attribute 26, 1
  10              		.eabi_attribute 30, 2
  11              		.eabi_attribute 34, 1
  12              		.eabi_attribute 18, 4
  13              		.file	"timer.c"
  14              		.text
  15              	.Ltext0:
  16              		.cfi_sections	.debug_frame
  17              		.section	.text.timer_init,"ax",%progbits
  18              		.align	1
  19              		.p2align 4,,15
  20              		.global	timer_init
  21              		.syntax unified
  22              		.thumb
  23              		.thumb_func
  24              		.fpu fpv4-sp-d16
  25              		.type	timer_init, %function
  26              	timer_init:
  27              	.LFB256:
  28              		.file 1 "timer.c"
  29              		.loc 1 28 0
  30              		.cfi_startproc
  31              		@ args = 0, pretend = 0, frame = 16
  32              		@ frame_needed = 0, uses_anonymous_args = 0
  33 0000 30B5     		push	{r4, r5, lr}
  34              		.cfi_def_cfa_offset 12
  35              		.cfi_offset 4, -12
  36              		.cfi_offset 5, -8
  37              		.cfi_offset 14, -4
  38              		.loc 1 37 0
  39 0002 0C4C     		ldr	r4, .L4
  40              		.loc 1 28 0
  41 0004 85B0     		sub	sp, sp, #20
  42              		.cfi_def_cfa_offset 32
  43              		.loc 1 29 0
  44 0006 0121     		movs	r1, #1
  45 0008 0820     		movs	r0, #8
  46 000a FFF7FEFF 		bl	RCC_APB1PeriphClockCmd
  47              	.LVL0:
  48              		.loc 1 33 0
  49 000e 0025     		movs	r5, #0
  50              		.loc 1 34 0
  51 0010 0722     		movs	r2, #7
  52              		.loc 1 36 0
  53 0012 4FF0FF33 		mov	r3, #-1
  54              		.loc 1 37 0
  55 0016 2046     		mov	r0, r4
  56 0018 01A9     		add	r1, sp, #4
  57              		.loc 1 36 0
ARM GAS  C:\Users\CFAR\AppData\Local\Temp\cc6YrM6f.s 			page 2


  58 001a CDE90123 		strd	r2, r3, [sp, #4]
  59              		.loc 1 33 0
  60 001e ADF80C50 		strh	r5, [sp, #12]	@ movhi
  61              		.loc 1 37 0
  62 0022 FFF7FEFF 		bl	TIM_TimeBaseInit
  63              	.LVL1:
  64              		.loc 1 39 0
  65 0026 6562     		str	r5, [r4, #36]
  66              		.loc 1 40 0
  67 0028 2046     		mov	r0, r4
  68 002a 0121     		movs	r1, #1
  69 002c FFF7FEFF 		bl	TIM_Cmd
  70              	.LVL2:
  71              		.loc 1 41 0
  72 0030 05B0     		add	sp, sp, #20
  73              		.cfi_def_cfa_offset 12
  74              		@ sp needed
  75 0032 30BD     		pop	{r4, r5, pc}
  76              	.L5:
  77              		.align	2
  78              	.L4:
  79 0034 000C0040 		.word	1073744896
  80              		.cfi_endproc
  81              	.LFE256:
  82              		.size	timer_init, .-timer_init
  83              		.section	.text.timer_time_now,"ax",%progbits
  84              		.align	1
  85              		.p2align 4,,15
  86              		.global	timer_time_now
  87              		.syntax unified
  88              		.thumb
  89              		.thumb_func
  90              		.fpu fpv4-sp-d16
  91              		.type	timer_time_now, %function
  92              	timer_time_now:
  93              	.LFB257:
  94              		.loc 1 43 0
  95              		.cfi_startproc
  96              		@ args = 0, pretend = 0, frame = 0
  97              		@ frame_needed = 0, uses_anonymous_args = 0
  98              		@ link register save eliminated.
  99              		.loc 1 44 0
 100 0000 014B     		ldr	r3, .L7
 101 0002 586A     		ldr	r0, [r3, #36]
 102              		.loc 1 45 0
 103 0004 7047     		bx	lr
 104              	.L8:
 105 0006 00BF     		.align	2
 106              	.L7:
 107 0008 000C0040 		.word	1073744896
 108              		.cfi_endproc
 109              	.LFE257:
 110              		.size	timer_time_now, .-timer_time_now
 111              		.section	.text.timer_seconds_elapsed_since,"ax",%progbits
 112              		.align	1
 113              		.p2align 4,,15
 114              		.global	timer_seconds_elapsed_since
ARM GAS  C:\Users\CFAR\AppData\Local\Temp\cc6YrM6f.s 			page 3


 115              		.syntax unified
 116              		.thumb
 117              		.thumb_func
 118              		.fpu fpv4-sp-d16
 119              		.type	timer_seconds_elapsed_since, %function
 120              	timer_seconds_elapsed_since:
 121              	.LFB258:
 122              		.loc 1 47 0
 123              		.cfi_startproc
 124              		@ args = 0, pretend = 0, frame = 0
 125              		@ frame_needed = 0, uses_anonymous_args = 0
 126              		@ link register save eliminated.
 127              	.LVL3:
 128              		.loc 1 48 0
 129 0000 054B     		ldr	r3, .L10
 130              		.loc 1 49 0
 131 0002 DFED067A 		vldr.32	s15, .L10+4
 132              		.loc 1 48 0
 133 0006 5B6A     		ldr	r3, [r3, #36]
 134              	.LVL4:
 135 0008 181A     		subs	r0, r3, r0
 136              	.LVL5:
 137              		.loc 1 49 0
 138 000a 07EE100A 		vmov	s14, r0	@ int
 139 000e B8EE470A 		vcvt.f32.u32	s0, s14
 140              		.loc 1 50 0
 141 0012 80EE270A 		vdiv.f32	s0, s0, s15
 142 0016 7047     		bx	lr
 143              	.L11:
 144              		.align	2
 145              	.L10:
 146 0018 000C0040 		.word	1073744896
 147 001c 8096184B 		.word	1259902592
 148              		.cfi_endproc
 149              	.LFE258:
 150              		.size	timer_seconds_elapsed_since, .-timer_seconds_elapsed_since
 151              		.section	.text.timer_sleep,"ax",%progbits
 152              		.align	1
 153              		.p2align 4,,15
 154              		.global	timer_sleep
 155              		.syntax unified
 156              		.thumb
 157              		.thumb_func
 158              		.fpu fpv4-sp-d16
 159              		.type	timer_sleep, %function
 160              	timer_sleep:
 161              	.LFB259:
 162              		.loc 1 58 0
 163              		.cfi_startproc
 164              		@ args = 0, pretend = 0, frame = 0
 165              		@ frame_needed = 0, uses_anonymous_args = 0
 166              		@ link register save eliminated.
 167              	.LVL6:
 168              		.loc 1 59 0
 169 0000 084A     		ldr	r2, .L15
 170              	.LBB4:
 171              	.LBB5:
ARM GAS  C:\Users\CFAR\AppData\Local\Temp\cc6YrM6f.s 			page 4


 172              		.loc 1 49 0
 173 0002 DFED096A 		vldr.32	s13, .L15+4
 174              	.LBE5:
 175              	.LBE4:
 176              		.loc 1 59 0
 177 0006 516A     		ldr	r1, [r2, #36]
 178              	.LVL7:
 179              	.L13:
 180              	.LBB7:
 181              	.LBB6:
 182              		.loc 1 48 0
 183 0008 536A     		ldr	r3, [r2, #36]
 184              	.LVL8:
 185 000a 5B1A     		subs	r3, r3, r1
 186              		.loc 1 49 0
 187 000c 07EE903A 		vmov	s15, r3	@ int
 188 0010 F8EE677A 		vcvt.f32.u32	s15, s15
 189 0014 87EEA67A 		vdiv.f32	s14, s15, s13
 190              	.LBE6:
 191              	.LBE7:
 192              		.loc 1 62 0
 193 0018 B4EEC70A 		vcmpe.f32	s0, s14
 194 001c F1EE10FA 		vmrs	APSR_nzcv, FPSCR
 195 0020 F2D8     		bhi	.L13
 196              		.loc 1 66 0
 197 0022 7047     		bx	lr
 198              	.L16:
 199              		.align	2
 200              	.L15:
 201 0024 000C0040 		.word	1073744896
 202 0028 8096184B 		.word	1259902592
 203              		.cfi_endproc
 204              	.LFE259:
 205              		.size	timer_sleep, .-timer_sleep
 206              		.text
 207              	.Letext0:
 208              		.file 2 "c:\\st\\stm32cubeide_1.3.0\\stm32cubeide\\plugins\\com.st.stm32cube.ide.mcu.externaltools
 209              		.file 3 "c:\\st\\stm32cubeide_1.3.0\\stm32cubeide\\plugins\\com.st.stm32cube.ide.mcu.externaltools
 210              		.file 4 "c:\\st\\stm32cubeide_1.3.0\\stm32cubeide\\plugins\\com.st.stm32cube.ide.mcu.externaltools
 211              		.file 5 "ChibiOS_3.0.5/os/rt/ports/ARMCMx/compilers/GCC/chtypes.h"
 212              		.file 6 "ChibiOS_3.0.5/os/rt/include/chsystypes.h"
 213              		.file 7 "ChibiOS_3.0.5/os/rt/include/chschd.h"
 214              		.file 8 "ChibiOS_3.0.5/os/ext/CMSIS/include/core_cm4.h"
 215              		.file 9 "ChibiOS_3.0.5/os/ext/CMSIS/ST/system_stm32f4xx.h"
 216              		.file 10 "ChibiOS_3.0.5/os/ext/CMSIS/ST/stm32f407xx.h"
 217              		.file 11 "ChibiOS_3.0.5/os/rt/ports/ARMCMx/chcore.h"
 218              		.file 12 "ChibiOS_3.0.5/os/rt/ports/ARMCMx/chcore_v7m.h"
 219              		.file 13 "ChibiOS_3.0.5/os/rt/include/chtm.h"
 220              		.file 14 "ChibiOS_3.0.5/os/rt/include/chsem.h"
 221              		.file 15 "ChibiOS_3.0.5/os/rt/include/chmtx.h"
 222              		.file 16 "ChibiOS_3.0.5/os/rt/include/chregistry.h"
 223              		.file 17 "ChibiOS_3.0.5/os/rt/include/chevents.h"
 224              		.file 18 "ChibiOS_3.0.5/os/rt/include/chqueues.h"
 225              		.file 19 "./conf_general.h"
 226              		.file 20 "ChibiOS_3.0.5/ext/stdperiph_stm32f4/inc/stm32f4xx_tim.h"
 227              		.file 21 "ChibiOS_3.0.5/os/hal/ports/STM32/STM32F4xx/stm32_dma.h"
 228              		.file 22 "ChibiOS_3.0.5/os/hal/ports/STM32/LLD/GPIOv2/pal_lld.h"
ARM GAS  C:\Users\CFAR\AppData\Local\Temp\cc6YrM6f.s 			page 5


 229              		.file 23 "ChibiOS_3.0.5/os/ext/CMSIS/ST/stm32f4xx.h"
 230              		.file 24 "ChibiOS_3.0.5/os/hal/include/can.h"
 231              		.file 25 "ChibiOS_3.0.5/os/hal/ports/STM32/LLD/can_lld.h"
 232              		.file 26 "ChibiOS_3.0.5/os/hal/include/i2c.h"
 233              		.file 27 "ChibiOS_3.0.5/os/hal/ports/STM32/LLD/I2Cv1/i2c_lld.h"
 234              		.file 28 "ChibiOS_3.0.5/os/hal/include/icu.h"
 235              		.file 29 "ChibiOS_3.0.5/os/hal/ports/STM32/LLD/TIMv1/icu_lld.h"
 236              		.file 30 "ChibiOS_3.0.5/os/hal/ports/STM32/LLD/TIMv1/stm32_tim.h"
 237              		.file 31 "ChibiOS_3.0.5/os/hal/include/serial.h"
 238              		.file 32 "ChibiOS_3.0.5/os/hal/ports/STM32/LLD/USARTv1/serial_lld.h"
 239              		.file 33 "ChibiOS_3.0.5/os/hal/include/spi.h"
 240              		.file 34 "ChibiOS_3.0.5/os/hal/ports/STM32/LLD/SPIv1/spi_lld.h"
 241              		.file 35 "ChibiOS_3.0.5/os/hal/include/usb.h"
 242              		.file 36 "ChibiOS_3.0.5/os/hal/ports/STM32/LLD/OTGv1/usb_lld.h"
 243              		.file 37 "ChibiOS_3.0.5/os/hal/ports/STM32/LLD/OTGv1/stm32_otg.h"
 244              		.file 38 "ChibiOS_3.0.5/ext/stdperiph_stm32f4/inc/stm32f4xx_rcc.h"
